:0200000460009A
:100000004643464200000156000000000103030081
:1000100000000000000000000000000000000000E0
:1000200000000000000000000000000000000000D0
:1000300000000000000000000000000000000000C0
:1000400000000000010408000000000000000000A3
:100050000000800000000000000000000000000020
:100060000000000000000000000000000000000090
:100070000000000000000000000000000000000080
:10008000EB04180A063204260000000000000000FD
:10009000050404240000000000000000000000002F
:1000A0000000000000000000000000000000000050
:1000B0000604000000000000000000000000000036
:1000C0000000000000000000000000000000000030
:1000D00020041808000000000000000000000000DC
:1000E0000000000000000000000000000000000010
:1000F0000000000000000000000000000000000000
:10010000D8041808000000000000000000000000F3
:100110000204180804200000000000000000000095
:1001200000000000000000000000000000000000CF
:10013000600400000000000000000000000000005B
:1001400000000000000000000000000000000000AF
:10015000000000000000000000000000000000009F
:10016000000000000000000000000000000000008F
:10017000000000000000000000000000000000007F
:10018000000000000000000000000000000000006F
:10019000000000000000000000000000000000005F
:1001A000000000000000000000000000000000004F
:1001B000000000000000000000000000000000003F
:1001C000000100000010000001000000000000001D
:1001D000000001000000000000000000000000001E
:1001E000000000000000000000000000000000000F
:1001F00000000000000000000000000000000000FF
:10020000FFFFFFFFFFFFFFFFFFFFFFFFFFFFFFFFFE
:10021000FFFFFFFFFFFFFFFFFFFFFFFFFFFFFFFFEE
:10100000D100204325160060000000000000000011
:1010100020100060001000600088026000000000E6
:10102000000000600094020000000000FFFFFFFFCE
:10103000FFFFFFFFFFFFFFFFFFFFFFFFFFFFFFFFC0
:10104000FFFFFFFFFFFFFFFFFFFFFFFFFFFFFFFFB0
:10105000FFFFFFFFFFFFFFFFFFFFFFFFFFFFFFFFA0
:10106000FFFFFFFFFFFFFFFFFFFFFFFFFFFFFFFF90
:10140000884207D0904205D251F8043B40F8043B93
:101410008242F9D8704700BF884204D2002340F8C6
:10142000043B8142FBD870472DE9884800F0D0F991
:101430000824614B614AC3F8544161496148FFF790
:10144000DFFF614A61496248FFF7DAFF614962489C
:10145000FFF7E2FF614C4FF0E0214FF470000023F2
:101460005F4AC1F8880D44F823200133B02BFAD12C
:101470005C4B80215C4A03F8011B9342FBD14FF087
:10148000E0254D4E4FF08039DFF88CB1DFF88CA1AC
:101490004FF0FF31C5F8084D0027C6F80491C6F893
:1014A00000B1C6F8F490C6F8F0A0D5F8243DDFF8F6
:1014B000708143F4E0234D4AC5F8243DD8F81C3030
:1014C00023F07F0343F04003C8F81C30D8F82430E1
:1014D00023F07F0343F04003C8F824309166D166BF
:1014E0001167516700F07CF9414B4249A363424BBD
:1014F000E36363236B610323AF612B613F4BC5F84B
:10150000203DD5F8FC3D43F08073C5F8FC3D3C4BD5
:101510001A6842F001021A605B680B6000F09EFBE3
:10152000C6F804913748C6F800B1C6F8F490C6F87A
:10153000F0A000F039FDD8F86C10334B334A41F479
:101540004051C8F86C101F60C3F80871C3F81871D7
:10155000C3F82871C3F83871936BDB0708D442F6DF
:1015600015632B4951651365936B43F00103936336
:10157000264A284C936843F00113936000F0ACF9BD
:1015800000F0D0FC00F014FD00F096FB00F000FD30
:101590002368132BFCD900F027FC2368B3F5967F52
:1015A000FBD300F01BF900F017F900F0EDFC00F0A0
:1015B000F3FC30BFFDE700BF00800D408803020050
:1015C0002C28006000000000C05A0020B82B0260E8
:1015D0000000002060BC0320C05A002000580020FA
:1015E000E57C010000E400E0A0E400E000C00A4067
:1015F000DD65010014B80320E16501000000202032
:10160000001000E00046C3230040084000400D40A9
:101610000000C05618B803201B1018200C0D111321
:1016200000C00F40074B4FF42A01074A07485A648D
:101630001864074A99639546BFF34F8FBFF36F8FC6
:10164000FFF7F2FE00C00A40FFABAAAA0700200085
:101650000080052043690A4A03EB011010B4037AA5
:10166000084C02EB0313D3E901321460C2681A601C
:1016700003690BB142691A605DF8044B704700BF03
:10168000A43D002061F801004369027E03EB0212D1
:1016900092F808C08C451CD01A7AFF2A19D09142C2
:1016A00010B5044616D01A7EFF2A06D00121D3E9D0
:1016B000002312681A4201D1217610BD064B052283
:1016C000204603EB0C135B681A60FFF7C3FF21761B
:1016D000F3E770470021EAE7A43D002043690A4A86
:1016E00003EB011010B490F82830084C02EB031300
:1016F000D3E901321460C26A1A60036B0BB1426B0A
:101700001A605DF8044B7047A43D002061F80100A9
:101710004369427E03EB021292F828C08C451ED02A
:1017200093F82820FF2A1AD0914210B5044617D00A
:1017300093F83820FF2A06D00121D3E9002312684C
:101740001A4201D1617610BD064B0522204603EBFB
:101750000C135B681A60FFF7C1FF6176F3E770470F
:101760000021EAE7A43D0020164942698B6B23F46F
:101770007C0343F4802370B58B630446124DD2E999
:1017800000130A681A4303690A60022200211A61E1
:101790000E4A19619A6401225A629D624FF43035F3
:1017A000DD624FF001159E6C1E6519629D651A6120
:1017B000017EFFF74FFF617E2046BDE87040FFF7D6
:1017C0008DBF00BF00C00F40B80B05053B3728197F
:1017D000704700BF704700BF704700BF00BF704731
:1017E00010B44FF0E023002110242B48C3F8941DBF
:1017F000C3F89C4D1124C3F8A00D2848C3F89C4D94
:101800001224C3F8A00D2648C3F89C4D254AC3F8FE
:10181000A00D254C42F015022448C3F89C4DC3F896
:10182000A00D234C2348C3F89C4DC3F8A00D224CB7
:10183000C3F89C2D2148224AC3F8A04DC3F89C0D43
:10184000C3F8A02D02F5A0221E4C0C321E48C3F88E
:101850009C4DC3F8A02D1D4AC3F89C0D1C4CC3F829
:10186000A02D01221B48C3F89C4DC3F8A00DC3F85E
:10187000942DBFF34F8FBFF36F8FC3F8501FBFF38B
:101880004F8FBFF36F8FD3F8142D5DF8044B42F4E4
:101890004032C3F8142D70473F00001025000803A4
:1018A0000900100060BC0320130020002100020783
:1018B0001400002025000813090000101600202045
:1018C00027000B1317000040180000602F000B07C3
:1018D000190000702F000B13F0B5B84B1822B84E4A
:1018E0000120B84F83B0C3F85C62B749C3F8607297
:1018F000B64DC3F86462A6F53046B54CC3F86862CD
:10190000C3F86C52C3F87052C3F87452C3F87852DB
:1019100048F20C75DA661A675A679A67DA67C3F88D
:101920008020C3F88420C3F88820C1F82C03A94A7A
:10193000C1F83003C1F83403C1F83803C1F83C03DF
:10194000C1F85003A169A44B0A40A448A449134319
:10195000A44AA361D4F8843043F00C03C4F8843063
:101960004FF0FF34036843F00203036003682B4029
:101970004FF400551A439C4B026044608A689B4CAC
:1019800013409B4A43F000538360C36823F07803FD
:10199000C360036A134023430362036A1340954AFA
:1019A0002343954C43628262C2620022D1F8B83070
:1019B00023F03F0343F00103C0F8B830D1F8BC3046
:1019C0008E4923F03F0343F00103C0F8BC3040F2DE
:1019D0000563026105660467C0F8803045664467A8
:1019E0000224C0F88430036823F00203036081619D
:1019F000834B8449C46143F8042B8B42FBD1774A63
:101A0000136843F001031360136813F00103FBD163
:101A10007A48022140F2F564906140F29940D16128
:101A200040F26641C2F8004242F20144C2F810128C
:101A30007549C2F82002C2F8301240F235417348AD
:101A4000C2F83442C2F84012714CC2F8500242F25D
:101A500001207049C2F854120121C2F86042C2F854
:101A600064025E48C2F8A030C2F8A430C2F8B010D8
:101A70004369DA07FCD5012300244FF4803257492B
:101A80004361C0F8A040C0F8A420C0F8B0304B6952
:101A9000DB07FCD5012300244FF400304F4A4B6193
:101AA000C1F8A040C1F8A400C1F8B0305369DF0705
:101AB000FCD501230024584848495361C2F8A0408E
:101AC000C2F8A400C2F8B0304B69DE07FCD5D1F8EB
:101AD000003145F60D5221209BB24861934265D1F9
:101AE00000244FF4802201233C48C1F8A040C1F8F3
:101AF000A420C1F8B0304369DD07FCD501234FF4C1
:101B000000040021354A4361C0F8A040C0F8A41089
:101B1000C0F8B0305369DC07FCD501234FF4000452
:101B20004FF480302D495361C2F8A040C2F8A400A0
:101B3000C2F8B0304B69D807FCD501234FF400043C
:101B40004FF40030254A4B61C1F8A040C1F8A40011
:101B5000C1F8B0305369D907FCD501234FF4000414
:101B60002D481E495361C2F8A040C2F8A400C2F833
:101B7000B0304B69DA07FCD5D1F8003145F60D528B
:101B800021209BB24861934250D008254FF40004B5
:101B900022490020224B234A009015705A1A012333
:101BA0002148224400F0FCF903B0F0BD1E4B002296
:101BB000C3E90022C3E9022203B0F0BD00801F4048
:101BC000F9B00100F910010000841F40F970010014
:101BD00000C00F40FFFCFF1F000300A000402A4090
:101BE00000802A401200FFFFFF37F700400000800E
:101BF00000FFF07CFF000F8363000200F05AF05AF0
:101C000000422A4000432A409F041830EB06180A7D
:101C10003806180A0632012604000300000000708E
:101C200000000070EFBB0320CCF100204FF4000453
:101C30004FF4802201230848C1F8A040C1F8A42035
:101C4000C1F8B0304369DB07FCD5012310254FF004
:101C5000807443619CE700BF00402A40F0B4154AFD
:101C600040274FF480314FF480564FF400554FF425
:101C7000404443F24200136913F0020F0ED113F4F3
:101C8000005F0FD013F4805F0ED0002BF3DA13F453
:101C9000803F0BD15B060BD5F0BC7047946151615E
:101CA0009061E8E75561E6E75661E4E79161E2E7B4
:101CB0005761E0E700800D403F4A03203F49F3EEC3
:101CC000095AD2F880304FF0000C9FED3D6A23F0A6
:101CD00001039FED3C5A30B4C2F88030C2F8900046
:101CE000D1F8E010384DCBB2384C39482B6007EEB4
:101CF000903A0B0DC1F30B21F8EEE77A06EE903A1D
:101D000007EE101A334BB8EEC77A2160F8EEE66A98
:101D1000314937EEC66A37EEC55A76EEC76A77EEB6
:101D2000E57A26EE266AC3ED006A25EE265AD2F839
:101D3000803067EEA64AC0ED007AC6EE275A2748E3
:101D400085EE276AC4EEA76A75EE875AFCEEE55A5F
:101D500036EE076A15EE904ABCEEC66A43EA0453B3
:101D600076EE877AC2F8803016EE103AD2F89041BB
:101D7000FCEEE77A01EA0341214317EE903AC2F8FC
:101D80009011C3F30B03D2F890110B431449C2F81E
:101D90009031D2F8803043F00203C2F88030114B0A
:101DA00080F840C0C1F840314FF0E023012230BC40
:101DB000C3F80821704700BF00810D4000441F4058
:101DC0000000AA420000B442D0B50120CCB50120E9
:101DD000D4B50120D8B501200000FF0F00E400E0D9
:101DE00000580020C57E0100314B40F6617210B5ED
:101DF000C3F8202140F2044400F0E2F82D4A2E49B5
:101E0000D2F880302D4843F00303C2F880302C4BC9
:101E1000C1F8604102681A4203D1D1F8A8319A078B
:101E20001BD0254A4FF00041244B5963D2F8403172
:101E300043F00203C2F84031D2F840319B07FBD493
:101E40004FF400304FF0E0211C4B4FF00042C1F83E
:101E50008C0219209A6300F0AFF8184A4FF08040C6
:101E6000154C002190630A20164B11604FF420722C
:101E7000C4F8A801184600F0A7F84FF48002034602
:101E80004FF4810040F243111860C4F858311A64CD
:101E90000D4B0E4AC4F84811C3F804224FF0E0225B
:101EA0004FF400310123C2F80C11C4F8403110BDC9
:101EB00000800D4000C00F4000002E4000900D40FB
:101EC000001C1E000000002000580020E5800100DA
:101ED00008B50E4B1B6E9B0700D4FBBE72B60C4BB5
:101EE00000200C4AC3F8400103F160430A49A3F5FE
:101EF0005F2311649D46BFF34F8F4FF400130748D3
:101F0000074ADB6902609B68984700BF00441F4096
:101F100000002E4000C00A40030020000080202066
:101F2000000012EB104BA020104AD96E41F4403152
:101F300010B4D96640F23764D96E41F44071D96665
:101F400054649064936C1B06FCD4094A40F23761D8
:101F5000A02351649364936C13F08003FBD1054A72
:101F600013705DF8044B704700C00F4000400C40F8
:101F700000800C40DDBB0320F8B500BFF8BC08BCF6
:101F80009E467047000000005FF800F039B0010085
:101F90005FF800F06D6700005FF800F09D790100C8
:101FA0005FF800F0619A01005FF800F0B56F010082
:101FB0005FF800F0C97B01005FF800F0A572010036
:101FC0005FF800F0218801005FF800F0B5A901007A
:101FD00001010000397A00006DC4000079E50000BD
:081FE000FDEC0000716C010032
:101FE80000000000000000000000000000000000E9
:101FF80000000000000000000000000000000000D9
:1020080000000000000000000000000000000000C8
:1020180000000000000000000000000000000000B8
:1020280000000000000000000000000000000000A8
:102038000000000000000000000000000000000098
:102048000000000000000000000000000000000088
:102058000000000000000000000000000000000078
:102068000000000000000000000000000000000068
:102078000000000000000000000000000000000058
:102088000000000000000000000000000000000048
:102098000000000000000000000000000000000038
:1020A8000000000000000000000000000000000028
:1020B8000000000000000000000000000000000018
:1020C8000000000000000000000000000000000008
:1020D80000000000000000000000000000000000F8
:1020E80000000000000000000000000000000000E8
:1020F80000000000000000000000000000000000D8
:1021080000000000000000000000000000000000C7
:1021180000000000000000000000000000000000B7
:1021280000000000000000000000000000000000A7
:102138000000000000000000000000000000000097
:102148003F000000000000000000000000001FFC2D
:102158003F000000000000000000000000007FFCBD
:102168003F00000000000000000000000000FFFC2D
:102178003F00000000000000000000000001FFFC1C
:102188003F00000000000000000000000003FFFC0A
:102198003F00000000000000000000000007FFFCF6
:1021A8003F3F007E3F3FC0FF001FFF80000FF9FC4C
:1021B8003F3F007E3F7FF3FFC07FFFE0001FE1FC51
:1021C8003F3F007E3FFFFFFFE0FFFFE0000FC1FC45
:1021D8003F3F007E3FFFFFFFE1FFFFF0000781FC6C
:1021E8003F3F007E3FC1FF07F1F807F0000301FC05
:1021F8003F3F007E3F80FE03F00003F0000001FC3B
:102208003F3F007E3F00FC03F03FFBF1FFF801FC7D
:102218003F3F007E3F00FC03F0FFFFF1FFF801FCA9
:102228003F3F007E3F00FC03F0FFFFF1FFF801FC99
:102238003F3F007E3F00FC03F1FC03F1FFF801FC87
:102248003F3F00FE3F00FC03F1F803F0000001FCF3
:102258003F3F81FE3F00FC03F1F807F0000001FC5E
:102268003F1FFFFE3F00FC03F1FFFFF0000001FCF1
:102278003F1FFFFE3F00FC03F1FFFFF0000001FCE1
:102288003F0FFF7E3F00FC03F0FFFBF0000001FC66
:102298003F03FE7E3F00FC03F07FF3F0000001FCEB
:1022A8000000000000000000000000000000000026
:1022B8000000000000000000000000000000000016
:1022C8000000000000000000000000000000000006
:1022D80000000000000000000000000000000000F6
:1022E80000000000000000000000000000000000E6
:1022F80000000000000000000000000000000000D6
:1023080000000000000000000000000000000000C5
:1023180000000000000000000000000000000000B5
:1023280000000000000000000000000000000000A5
:102338000000000000000000000000000000000095
:102348000000000000000000000000000000000085
:102358000000000000000000000000000000000075
:102368000000000000000000000000000000000065
:102378000000000000000000000000000000000055
:102388000000000000000000000000000000000045
:102398000000000000000000000000000000000035
:1023A8000000000000000000000000000000000025
:1023B8000000000000000000000000000000000015
:1023C8000000000000000000000000000000000005
:1023D80000000000000000000000000000000000F5
:1023E80070C00F40C0000000120000001300000081
:1023F800D0841F4001000000FF000000FF00000023
:10240800000000000000000013000000130000009E
:10241800CC841F4001000000FF000000FF00000006
:1024280000000000000000001C000000D1C30000F4
:1024380070C00F40000C00001100000011000000E7
:10244800E0841F40020000002C0000001200000081
:10245800E0841F400100000010000000110000008F
:10246800DC841F40020000002D0000001200000064
:10247800DC841F40010000001E000000DDC30000D6
:1024880080C00F4000000003190000001000000089
:10249800E8841F4001000000FF000000FF0000006A
:1024A80000000000000000001800000010000000FC
:1024B800E4841F4001000000FF000000FF0000004E
:1024C80000000000000000001F000000E9C3000039
:1024D8000000600000000000000000000000000094
:1024E80000E0000000000000000000000000000103
:1024F800E00000000000000000000000000001F003
:102508000000000000000000000000000003F000D0
:1025180000000000000000000000000007F00000BC
:10252800000000000000000000000007F8000000A4
:10253800000000000000000000000FF80000000389
:10254800C0007E000001E0007F0FF800000003C01B
:1025580000FE000001E000FFEFF800000003C000EB
:10256800FE000001E000FFFFF800000003C000F0DB
:102578000000000F007FFE7FC0000003C000F000D5
:1025880000000F003FFE7FF83FF1FBCFFCFEF3BCDD
:102598003DEFE01FFE7FFF7FFBFFDFFEFEFFBC3D40
:1025A800EFE01FC6FFFF7FFBFFDFFEFEFFBC3DEF36
:1025B800E00FE3C7FE787BC3DE1EF0FFBC3DEF00F3
:1025C80007FF87FC787BC3DE1EF0F83C3DEF000177
:1025D800FFFFF0007BC3C01EF0F03C3DEF0001F3AD
:1025E8007FE03FFBC3CFFEF0F03C3DEF0003E33F4D
:1025F800807FFBC3DFFEF0F03C3DEF0007E73C00C7
:10260800787BC3DE1EF0F03C3DEF0007FFBE00788C
:102618007BC3DE1EF0F03C3DEF0007FFFE00787B39
:10262800C3DE1EF0F03C3DEF000FFFFE007FFBFF16
:10263800DFFEF0F03FFDEFE00FFFFF007FFBFFDF65
:10264800FEF0F03FFDEFE00FF9FF003E79F9CF9E75
:10265800F0F01F3DE7E01FF1FF0000000000000060
:1026680000000000001F80FF007FFFFFFFFFFFFF4B
:10267800FFFFFFE01C007F007FFFFFFFFEB46D88B7
:102688008D18E000001F007FFFFFFFFE95AD7DB5B0
:1026980077E000000F007FFFFFFFFEA5AD9D8D19BD
:1026A800E0000006007FFFFFFFFEB5ADEDB57EE060
:1026B8000000000118035400650065006E007300F7
:1026C800790020004D0049004400490018035400D7
:1026D800650065006E00730079006400750069008C
:1026E8006E006F000403090409029500030100C08D
:1026F80032080B0002020201000904000001020274
:10270800010005240010010524010101042402062A
:1027180005240600010705820310001009040100C2
:10272800020A0000000705030240000007058302B3
:102738004000000904020002010300000724010010
:1027480001250006240201010006240202020009F4
:102758002403010301020100092403020401010109
:1027680000090504024000000000052501010109D7
:102778000584024000000000052501010300000057
:1027880009029500030100C032080B000202020191
:1027980000090400000102020100052400100105DF
:1027A800240101010424020605240600010705820C
:1027B8000310000509040100020A000000070503D0
:1027C8000200020007058302000200090402000259
:1027D800010300000724010001250006240201016D
:1027E8000006240202020009240301030102010079
:1027F8000924030204010101000905040200020082
:1028080000000525010101090584020002000000FD
:1028180005250101030000000A060002EF0201403D
:0428280001000000AB
:10282C00000000000000000000000000000000009C
:10283C00000000000000000000000000000000008C
:10284C00F8B54FF084439D695A6915400DD0244F5B
:10285C0001269D6195FAA5F4B4FA84F457F8243056
:10286C0006FA04F49847A543F4D11E4B9D695A69A6
:10287C0015400DD01C4F01269D6195FAA5F4B4FAB4
:10288C0084F457F8243006FA04F49847A543F4D19D
:10289C00164B9D695A6915400DD0154F01269D6147
:1028AC0095FAA5F4B4FA84F457F8243006FA04F433
:1028BC009847A543F4D10F4B9D695A6915400DD02B
:1028CC000D4F01269D6195FAA5F4B4FA84F457F8DE
:1028DC00243006FA04F49847A543F4D1F8BD00BFA0
:1028EC00244B002000400042A44B002000800042FA
:1028FC00244C002000C00042A44C00200548064B8C
:10290C001B1AD90F01EBA301491002D0034B03B1E1
:10291C0018477047C05A0020C05A00200000000021
:10292C0008B5054B1BB105490548AFF30080BDE860
:10293C000840FFF7E3BF00BF00000000487401200F
:10294C000094026000207047704700BF036D0BB10C
:10295C0001207047406D003818BF0120704700BF40
:10296C00704700BF10B50446806D18B119F014FD06
:10297C000023A365236D2BB104F11800BDE81040B2
:10298C0013F0E0BC636D002BF6D110BD08B5172019
:10299C0017F040F960B9084A13680133012B08DDC0
:1029AC00064B012110601970054A064B12681A601B
:1029BC0008BD1360F8E700BF087301200BBC0320AF
:1029CC0018B8032078B60120054B1B78DB0706D519
:1029DC00044A01200449054B126808701A607047BC
:1029EC00FBBB032018B80320E3BB032080B60120F7
:1029FC00054B1B789B0706D5044A01200449054B5F
:102A0C00126808701A607047FBBB032018B80320CB
:102A1C00E5BB032088B6012010B50446806D00B1DB
:102A2C0010BD4FF4807019F0AFFCA065B0B100225E
:102A3C00236D02703BB101464FF48072184613F0BF
:102A4C002DF8A06D10BD636D002BE9D001464FF43D
:102A5C008072184610F022FCA06D10BD014B184678
:102A6C00A36510BDDABB032038B5056D6DB10BB194
:102A7C00002038BD1146284611F09EFC0028F7D0E6
:102A8C002846BDE8384011F039BE446D002CEFD01B
:102A9C0020460EF017FF0028EAD02046BDE838404B
:102AAC000FF0C8BE8A79A2F150031B0622D402F2A1
:102ABC006C72F0B54B7985B0046D01330D798E785D
:102ACC004F78DBB209784CB1204601960095CDE9E0
:102ADC000271022111F0A6FD05B0F0BD406D002879
:102AEC00FAD001960095CDE9027102210FF0E6FDB6
:102AFC0005B0F0BD00207047036D10B50C4682B0D8
:102B0C002BB30DF1060201A9184610F0FBFF38B3E8
:102B1C00BDF80430BDF8062053EA020120D0C2F300
:102B2C00451C02F01F00D20AC3F34311400084F885
:102B3C0001C0A2705A0A013903F01F0302F5EA62C0
:102B4C002070012061712371A27102B010BD406D23
:102B5C0030B10DF1060201A90EF05AFD0028D7D1B3
:102B6C00002002B010BD00BF036D10B50C4682B042
:102B7C002BB30DF1060201A9184610F0B3FF38B3C0
:102B8C00BDF80430BDF8062053EA020120D0C2F390
:102B9C00451C02F01F00D20AC3F34311400084F815
:102BAC0001C0A2705A0A013903F01F0302F5EA6250
:102BBC002070012061712371A27102B010BD406DB3
:102BCC0030B10DF1060201A90EF010FD0028D7D18D
:102BDC00002002B010BD00BF30B5D0F880448FB0DB
:102BEC0013464CB100250A46684604F589610095E8
:102BFC0011F04EF80FB030BDD0F884040028F9D095
:102C0C000A4600F5896168460C940FF0EBFC0FB096
:102C1C0030BD00BF10B5044600230A2216F014FD87
:102C2C002046BDE8104016F0E5BC00BF69B170B598
:102C3C00054608460C461AF093FE2B6802462146C0
:102C4C0028465B68BDE8704018477047006990B132
:102C5C000368154A1B69934225D1036D63B118783B
:102C6C0010F0080007D0D8695B69C01A48BF6FF034
:102C7C000040704718467047436D002BFAD093F80C
:102C8C00310010F00800F6D0186919685A69401A1A
:102C9C005B6862EB0303B0F1004F73F10003EAD3FE
:102CAC006FF00040704718473D080000036973B18E
:102CBC001A68084952698A4207D1186D08B111F097
:102CCC0007BA586D18B10EF0E7BD184610474FF013
:102CDC00FF3070471D06000000B5006983B08DF809
:102CEC00071060B10368104ADB68934215D1036D7D
:102CFC0043B101220DF10701184611F039FD03B063
:102D0C005DF804FB406D0028F9D001220DF107019C
:102D1C000FF002FE03B05DF804FB01220DF1070178
:102D2C00984703B05DF804FBA1070000036963B189
:102D3C001A68074992698A4208D1186D08B111F0D6
:102D4C006BBC586D08B10FF043BB70471846104769
:102D5C0021070000036D13B1586900217047436DC2
:102D6C0013B1D3E90001704718461946704700BFEC
:102D7C00036D13B1D86900217047436D13B1D3E9CA
:102D8C000401704718461946704700BFF0B595B05E
:102D9C0000224FF47A74244F1831054604A88DF89C
:102DAC000C200097CDE90124CDE9122213F036FB5B
:102DBC00129B002B2DD05C20002617F0A1FA019B52
:102DCC0004464660C36004A9029B183040F8083CD6
:102DDC009DF80C3000F8043C144B40F8183C144B94
:102DEC0040F8103C13F06CFA124B4FF47A72A76057
:102DFC002B606368A66501336E602E73AA602C612C
:102E0C0063600D4B04A8009313F09CFA284615B090
:102E1C00F0BD139B002BCED1064A2B732A602B617D
:102E2C00C5E90134EDE700BF90390020B43900202A
:102E3C00103A00206439002008370020036D13B1CC
:102E4C00184611F045B9406D08B10EF025BD4FF094
:102E5C00FF307047836C13B1184611F039B9C06C50
:102E6C0008B10EF019BD4FF0FF307047036D33B150
:102E7C001B7813F0700F14BF012000207047406DB9
:102E8C0030B190F8313013F0500F14BF01200020F6
:102E9C00704700BF10B50446006D80B1037813F085
:102EAC00700F00D110BD002111F086FA606D002862
:102EBC00F8D000220023BDE810400EF003BD606D79
:102ECC000028EFD090F8313013F0500FEAD00022E8
:102EDC000023BDE810400EF0F5BC00BF036D13B12C
:102EEC00184611F021B8406D08B10EF005BC4FF03A
:102EFC00FF307047836C00B583B063B101220DF1D4
:102F0C000701184611F010F801280CD19DF80700A4
:102F1C0003B05DF804FBC06C28B101220DF1070170
:102F2C000EF0EAFBF0E74FF0FF30F1E7836C13B1E2
:102F3C00184611F071BBC06C08B10FF049BA70475C
:102F4C00036D13B1184611F067BB406D08B10FF05B
:102F5C003FBA7047036923B31968134A10B58C68DC
:102F6C0082B0944214D1186D48B101220DF10701C1
:102F7C0010F0DAFF90B19DF8070002B010BD586D4B
:102F8C000028F8D001220DF107010EF0B5FBF1E796
:102F9C0001220DF107011846A047EBE74FF0FF3077
:102FAC00EBE74FF0FF307047BD060000836C13B1A8
:102FBC00184611F0DDBBC06C08B10FF0ADBC70470A
:102FCC00036D13B1184611F0D3BB406D08B10FF06F
:102FDC00A3BC704700B5836C83B08DF8071043B168
:102FEC0001220DF10701184611F0C2FB03B05DF888
:102FFC0004FBC06C0028F9D001220DF107010FF081
:10300C008BFC03B05DF804FB8A79A2F150031B061C
:10301C0022D402F26C72F0B54B7985B0046D013399
:10302C000D798E784F78DBB209784CB12046019639
:10303C000095CDE90271042111F0F4FA05B0F0BD50
:10304C00406D0028FAD001960095CDE9027104215B
:10305C000FF034FB05B0F0BD00207047036D53B189
:10306C00187810F008000DD0D8695B69C01A48BFF9
:10307C006FF000407047436DA3B193F8310010F02E
:10308C00080000D17047186919685A69401A5B68C2
:10309C0062EB0303B0F1004F73F10003F2D36FF056
:1030AC00004070471846EDE7836C53B1187810F068
:1030BC0008000DD0D8695B69C01A48BF6FF000409A
:1030CC007047C36CA3B193F8310010F0080000D125
:1030DC007047186919685A69401A5B6862EB0303F8
:1030EC00B0F1004F73F10003F2D36FF00040704762
:1030FC001846EDE70369D3B10E4810B41C68E468B8
:10310C0084420FD1186D18B15DF8044B11F030BB2F
:10311C00586D18B15DF8044B0FF0FEBB00205DF844
:10312C00044B7047184623465DF8044B18470020A3
:10313C00704700BFA107000048B10368174A5B6BDA
:10314C00934210B5044616D1806D10B110BD1448D1
:10315C0070474FF4807019F017F9A065C8B10022C0
:10316C00236D027053B101464FF48072184612F071
:10317C0095FCA06D10BDBDE810401847636D002B89
:10318C00E4D001464FF48072184610F087F8A06D19
:10319C0010BD044B1846A36510BD00BFF90100001B
:1031AC009C410020DABB032038B504460C4B806DE3
:1031BC00236018B119F0F0F80023A365236D04F116
:1031CC0018054BB1284613F0BDF8064B2846A360F2
:1031DC0013F0B8F8204638BD636D002BF2D1F4E73C
:1031EC00B43900200837002038B504460E4B806DEA
:1031FC00236018B119F0D0F80023A365236D04F1F6
:10320C0018056BB1284613F09DF8084B2846A360AF
:10321C0013F098F820465C2117F074F8204638BD5E
:10322C00636D002BEED1F0E7B43900200837002095
:10323C0030B4029C11469C4634B1012C1CD0022C9B
:10324C000ED0002030BC7047056DF5B14FF0FF3348
:10325C00934274EB0C04F4D3284630BC11F0ACB898
:10326C00026D0AB3D36959184CF10003002BE8D155
:10327C00104630BC11F0A0B8026D62B153695918F8
:10328C004CF10003002BDCD1F2E7406D0028D8D0C4
:10329C0030BC0EF017BB406D0028D2D0D0E9002313
:1032AC008A184CEB0303F3E7406D0028C9D0D0E932
:1032BC00042330BC8A184CEB03030EF003BB00BF95
:1032CC0038B5044649B108460D461AF049FB236847
:1032DC00024629465B68204698472046BDE83840A0
:1032EC0016F088B970B5244B044605690360002DAF
:1032FC0032D06E68013E6E6076BB2B681F4ADB6A6B
:10330C0093422FD1A86D10B119F046F8AE652B6D14
:10331C0023B305F1180013F015F82569E5B12B68F6
:10332C00174A5B68934224D1164BA86D2B6018B1D9
:10333C0019F032F80023AB652B6D05F11806A3B11B
:10334C00304612F0FFFF104B3046AB6012F0FAFF24
:10335C005C21284616F0D6FF204670BD6B6D002B05
:10336C00D7D1DAE728469847D7E76B6D002BE7D122
:10337C00E9E728469847EFE764390020450100004B
:10338C00C9090000B43900200837002070B5264B5D
:10339C00044605690360002D32D06E68013E6E60F4
:1033AC0076BB2B68214ADB6A934233D1A86D10B1EE
:1033BC0018F0F2FFAE652B6D43B305F1180012F057
:1033CC00C1FF2569E5B12B68194A5B68934228D186
:1033DC00184BA86D2B6018B118F0DEFF0023AB65FD
:1033EC002B6D05F11806C3B1304612F0ABFF124B32
:1033FC003046AB6012F0A6FF5C21284616F082FF27
:10340C002046142116F07EFF204670BD6B6D002BFC
:10341C00D3D1D6E728469847D3E76B6D002BE3D181
:10342C00E5E728469847EBE76439002045010000A2
:10343C00C9090000B43900200837002008B518F07D
:10344C0097FD10B908BD18F0D7FD18F091FD0028B4
:10345C00F9D1012008BD00BF38B50446094D112132
:10346C00094818F0EFFD214600230A22284616F0E1
:10347C00EBF8284616F0BEF821460020BDE838408F
:10348C0016F074BD38450020101B002010B500202C
:10349C0016F05CFC04461121114818F0D3FD0023F2
:1034AC000A2221460F4816F0CFF80E4816F0A2F863
:1034BC00022C01D8204610BD11210B4818F0C2FD7A
:1034CC0000230A2207481C46194616F0BDF8054889
:1034DC0016F090F82046214616F048FD204610BD07
:1034EC00FC1A002038450020101B002038B504467B
:1034FC00094D1B21094818F0A5FD214600230A227D
:10350C00284616F0A1F8284616F074F8214601203A
:10351C00BDE8384016F02ABD38450020182A002096
:10352C0038B50446094D1D21094818F08BFD21467C
:10353C0000230A22284616F087F8284616F05AF877
:10354C0021460220BDE8384016F010BD3845002059
:10355C009028002070B514460D461E4602462346A0
:10356C000549064816F062F844EA06012846BDE80B
:10357C00704016F0FBBC00BF4C27002038450020E3
:10358C0030B5032083B016F0E1FB0446164D14F061
:10359C00010F1649164824F0F00308BF294614F011
:1035AC00020F144A08BF2846009113490190134892
:1035BC0016F03CF804F0F003A02B03D104F00F003C
:1035CC0003B030BD0E490D4816F030F80323094AFC
:1035DC000C490A4816F02AF8A321032016F0C6FC61
:1035EC00032003B030BD00BF18140020BC260020FF
:1035FC00E4410020A42A0020C426002038450020E5
:10360C00682A00204C27002030B5042083B016F027
:10361C009DFB0446164D14F0010F1649164824F074
:10362C00F00308BF294614F0020F144A08BF2846BD
:10363C00009113490190134815F0F8FF04F0F003C2
:10364C00A02B03D104F00F0003B030BD0E490D4880
:10365C0015F0ECFF0323094A0C490A4815F0E6FF64
:10366C00A321042016F082FC032003B030BD00BF60
:10367C0018140020BC260020E4410020342A00202D
:10368C00C426002038450020682A00204C27002042
:10369C0030B5052083B016F059FB0446164D14F0D6
:1036AC00010F1649164824F0F00308BF294614F000
:1036BC00020F144A08BF2846009113490190134881
:1036CC0015F0B4FF04F0F003A02B03D104F00F00AD
:1036DC0003B030BD0E490D4815F0A8FF0323094A6D
:1036EC000C490A4815F0A2FFA321052016F03EFC58
:1036FC00032003B030BD00BF18140020BC260020EE
:10370C00E4410020BC2A0020C426002038450020BB
:10371C00682A00204C27002030B5062083B016F014
:10372C0015FB0446164D14F0010F1649164824F0EB
:10373C00F00308BF294614F0020F144A08BF2846AC
:10374C00009113490190134815F070FF04F0F00339
:10375C00A02B03D104F00F0003B030BD0E490D486F
:10376C0015F064FF0223094A0C490A4815F05EFF64
:10377C00A221062016F0FAFB022003B030BD00BFD8
:10378C0018140020BC260020E44100208C2A0020C4
:10379C00C4260020384500204C2A00204C2700204D
:1037AC0030B5072083B016F0D1FA0446164D14F04C
:1037BC00010F1649164824F0F00308BF294614F0EF
:1037CC00020F144A08BF2846009113490190134870
:1037DC0015F02CFF04F0F003A02B03D104F00F0024
:1037EC0003B030BD0E490D4815F020FF0223094AE5
:1037FC000C490A4815F01AFFA221072016F0B6FB57
:10380C00022003B030BD00BF18140020BC260020DD
:10381C00E44100209C290020C426002038450020CB
:10382C004C2A00204C27002010B550B10B490C4AF3
:10383C000C4815F0FBFE01210820BDE8104016F0E5
:10384C0095BB04460549084A064815F0EFFE21468B
:10385C000820BDE8104016F089BB00BF1C290020D1
:10386C0088150020384500201829002010B550B1CB
:10387C000B490C4A0C4815F0D9FE01210920BDE872
:10388C00104016F073BB04460549084A064815F06B
:10389C00CDFE21460920BDE8104016F067BB00BFE5
:1038AC007429002094290020384500206829002024
:1038BC00F8B50B2042F20F7616F048FA04460A20AF
:1038CC00240216F043FA04F47F440444A4B2B44234
:1038DC000AD8651C42F21073ADB29D4218D1002576
:1038EC0034462F46294604E0002601253746294652
:1038FC0034460A2016F03AFB39460B2016F036FBFC
:10390C002B4632460449054815F090FE2046F8BD7A
:10391C00E9B226462F0AECE788270020384500201C
:10392C0070B505460C490D482A4605F108062C468B
:10393C0015F07CFE14F8011B04F2FF10401B16F06E
:10394C0015FBA642F6D10521054818F07BFB034870
:10395C00BDE8704015F04EBEB02800203845002060
:10396C00D8280020F8B5074640F2012524210C4840
:10397C007C1EFE1DED1B18F065FB281916F0E6F9F0
:10398C0004F8010FB442F8D10023052105483B721D
:10399C0018F058FB0448BDE8F84015F02BBE00BFEA
:1039AC0038280020D828002038450020012810B5E0
:1039BC0004460BD0022816D090B11A210B4818F0EF
:1039CC0041FB0B48BDE8104015F014BE0B21094813
:1039DC0018F038FB064815F00DFE074B1C6010BDA7
:1039EC000D210648F4E70C210548F1E7CC0C00202A
:1039FC0038450020B00C0020044B0020A00C002007
:103A0C00BC0C0020194B2DE9F041194E0446DFF88F
:103A1C0068801F68174D04F00F03092B1BD0082B6F
:103A2C0004F0F00220D80134E4B257B9992CF2D842
:103A3C00414655F8240019F047FD0028EBD02046EC
:103A4C0010E0032CE7D8414656F8240019F03CFD51
:103A5C000028E0D0F3E704F0F0041034E4B2902C2A
:103A6C00E3D90020BDE8F0811446DEE7287301207D
:103A7C00D8050020700300204C09002000F00F0333
:103A8C00092B16D0082B00F0F0020DD900231109D8
:103A9C000C4801EB8101007803EB4103DBB2984247
:103AAC0038BF002210467047431CDAB203F00F03F4
:103ABC00EDE700F0F0001030C2B2902AE6D90022F7
:103ACC0010467047F8BB0320144B2DE9F041DFF88A
:103ADC0058800446124E1D68124F23070FD114F064
:103AEC00F00417D19924002DF7D156F82400414643
:103AFC0019F0EAFC0028F0D02046BDE8F081013C2A
:103B0C00E4B215B9992CE8D8EFE7032CE5D857F8AF
:103B1C002400ECE7073CE4B2F3E700BF2873012074
:103B2C0070030020D80500204C090020030705D1A4
:103B3C0010F0F0001FD1632399200AE00138C0F384
:103B4C00031200F00F03C0B202EB820203EB42033C
:103B5C00DBB20A4A12789A420CD2094BA3FB02132D
:103B6C00DB08C3EB4311C3EB8101490001EB0313E9
:103B7C001A44D0B270470738E1E700BFF8BB032006
:103B8C00CDCCCCCC70B5274D002128460CF09CF840
:103B9C00254B022128462B610CF090F8234B1C7806
:103BAC00012C0AD0022C27D0BCB10022204B43F6AA
:103BBC003F7110469A70198070BD1E4B00241C4931
:103BCC005F221B7828464A7002221B098C70303306
:103BDC000B7015F0DBFC204670BD154E45F65F737F
:103BEC0030463380B47019F0BBFE3146024628468D
:103BFC0015F0CCFC204670BD0E4B00220C4C1B78F3
:103C0C00A27020461A0903F00F03303230332270B1
:103C1C00637019F0A5FE21460246284615F0B6FC45
:103C2C00012070BDC06F00200100230002BC0320E6
:103C3C0068740120EDBB032038B5174B04461B6894
:103C4C00002B0FD0154D1A461549B8BF5A1C2868C1
:103C5C00096800EB62028A4204DC0344994200DDED
:103C6C00296038BD0F4D4FF001130F4A0021284633
:103C7C00C5E904230CF028F8012128460CF01EF8A5
:103C8C00002CEED0204619F06BFE21460246284649
:103C9C00BDE8384015F07ABCFC710120F0710120B0
:103CAC0060740120C06F00200100140038B5174B60
:103CBC0004461B68002B0FD0154D1A461549B8BF8A
:103CCC005A1C2868096800EB62028A4204DC03442F
:103CDC00994200DD296038BD0F4D4FF001130F4A9A
:103CEC0000212846C5E904230BF0EEFF01212846EC
:103CFC000BF0E4FF002CEED0204619F031FE2146EB
:103D0C0002462846BDE8384015F040BCF871012049
:103D1C00EC71012060740120C06F002001002600AE
:103D2C0038B5174B04461B68002B0FD0154D1A469F
:103D3C001549B8BF5A1C2868096800EB62028A4210
:103D4C0004DC0344994200DD296038BD0F4D4FF06F
:103D5C0001130F4A00212846C5E904230BF0B4FFD8
:103D6C00012128460BF0AAFF002CEED0204619F0BA
:103D7C00F7FD214602462846BDE8384015F006BC42
:103D8C00F4710120E871012060740120C06F0020E3
:103D9C000100380038B50A4D04460A4B012128466B
:103DAC002B610BF08BFF4CB1204619F0D9FD21464D
:103DBC0002462846BDE8384015F0E8BB38BD00BFC8
:103DCC00C06F00201E00260030B55E4A83B05E4CEA
:103DDC00156823685B1B962B06D95C4D2368136012
:103DEC002B7883F001032B70FF281CD00F2811D8DF
:103DFC00574C2378012B5ED013F0FD0F49D00020D7
:103E0C00B3B9524B1B78002B14BFCC23FC230B7083
:103E1C0003B030BD1238072805D8DFE800F0251CA8
:103E2C000404041404104A4B00201B78002BE8D027
:103E3C00013BDBB2012BEBD8464B1B7831E0444BFA
:103E4C0002201B78DCE7424B1B78A3F10200B0FA8E
:103E5C0080F04009D4E73E4C2378012B59D0022B3B
:103E6C0030D09BB10020E3E7394C2378012B41D0B3
:103E7C00022B34D0002BF5D1374A18460191128809
:103E8C00012A54D0FFF752FE019903460222314D0C
:103E9C0004E0000101222F4D0C30C3B200202B7026
:103EAC0022702A4A0B70127812B943F00F03DBB25E
:103EBC000B7003B030BD274D02222B7823F00F037B
:103ECC000343EBE7244B234D1B882878012B0191EE
:103EDC0025D0FFF7D3FD019902220346DEE71E4BE6
:103EEC001C4D1B882878012B01911CD0FFF71EFE5E
:103EFC000199F1E7184B174D1B882878012B01917C
:103F0C0000F0F00018D0FFF711FE019903460222D1
:103F1C00C4E7104D0222287800F0F003BEE7FFF74B
:103F2C0071FD0199D8E7FFF7CFFD0199D4E7FFF7B1
:103F3C00CBFD01990346A9E7FFF7C6FD019903469E
:103F4C00E5E700BFBC6B002018B80320E1BB0320E1
:103F5C0002BC0320EDBB0320BEBB032008B5374BCE
:103F6C001B68042B21D8DFE803F0424A030322002C
:103F7C00334B344A1B88344903F51F5311603C33CF
:103F8C009BB2092B50D8314A52F82300FFF754FE4C
:103F9C002F4B1B8803F51F533C339BB2092B45D881
:103FAC002A4A52F82300FFF781FE012008BD254B59
:103FBC001868FFF741FE224B1B8803F51F533C3357
:103FCC009BB2092B38D8214A52F82300FFF76EFE1A
:103FDC001F4B1B8803F51F533C339BB2092B29D86D
:103FEC001A4A52F82300FFF79BFE012008BD154B1F
:103FFC00184A19481A60FFF71FFE012008BD104B24
:10400C00104A1B88134903F51F5311603C339BB2B4
:10401C00092B0DD80D4A52F82300FFF70DFE0E4860
:10402C00FFF744FE012008BD0C48AFE70B48BAE788
:10403C000A48F2E70948D6E70848C7E7B4BA0320AC
:10404C00CEBB0320804D002018100020E805002076
:10405C00D0BB0320F80F00200C100020F807002024
:10406C00554B1B6810B5072B2CD8DFE803F08404E4
:10407C0004562D2D3267514C514B52491B682288E6
:10408C00514818F07DFE5048FFF7D6FD2388B3F554
:10409C00005F00F08C8000F28380B3F5006F02D0DB
:1040AC00B3F5805F02D14948FFF700FE484B1A6810
:1040BC002AB148490020484A0968186011604748ED
:1040CC00FFF72EFE012010BD4548FFF7B5FD01207E
:1040DC0010BD444B1A681E2A05D03E491E20424A88
:1040EC000968186011604148FFF7A6FD404B414933
:1040FC001A88354818F044FE3F4B1A682AB13549E6
:10410C0000203E4A0968186011602F48FFF7CEFD69
:10411C003248FFF705FE012010BD3948FFF78CFD32
:10412C00354B1A681E2A05D02A491E20334A0968C5
:10413C00186011603348FFF7B9FDC0E7294B1A68C6
:10414C002AB124490020284A0968186011602A4BBA
:10415C001A682AB11F490020284A096818601160A2
:10416C001B4B1A68002AADD01A4900201A4A09685C
:10417C0018601160A6E7124B234A24481A60FFF717
:10418C005BFD134B1A68122A05D012491220124AF1
:10419C000968186011601E48FFF7C2FD012010BDB0
:1041AC00B3F5804F03D0B3F5004F7FF47FAF1948C0
:1041BC00FFF77CFD7AE700BFC4F00020BCBB0320F6
:1041CC00004B0020201C0020C8F00020301C0020D8
:1041DC00F471012060740120E8710120601C002042
:1041EC009C1C0020FC710120F0710120A81C0020F7
:1041FC00B8BB0320BC1C0020F8710120EC7101201D
:10420C00781C0020881C0020F80F0020F41B0020D4
:10421C00081C0020481C00202DE9F0474FF0000935
:10422C00DFF8E482012484B049464046B34E43276C
:10423C0025460BF049FD3B4622B202214046009533
:10424C000834CDE901950BF08DFC16F8017FA4B272
:10425C00002FF0D1AA4D03200A23DFF8ACA2298845
:10426C0001243222B94601F00101DFF8A482542660
:10427C00029139462746CDE9003050460BF048F8FC
:10428C00334622B20F21504600970834CDE90197EE
:10429C000BF068FC18F8016FA4B2002EF0D12A883C
:1042AC0003210A23DFF86092C2F34002012448463E
:1042BC00B24602923222A046924F5326CDE90031EB
:1042CC000D210BF025F8334622B21C214846CDF8BF
:1042DC0000800834CDE901A80BF044FC17F8016FFD
:1042EC00A4B2002EEFD12A8803210A23DFF818A2EA
:1042FC00C2F3800201245046DFF818820292322267
:10430C00A1464227CDE900311A210BF001F83B46BA
:10431C0022B229215046CDF800900834CDE901692C
:10432C000BF020FC18F8017FA4B2002FEFD12A88E3
:10433C0003210A23DFF8D0A1C2F3C00201245046A6
:10434C00DFF8D48102923222A1464826CDE9003111
:10435C0027210AF0DDFF334622B236215046CDF834
:10436C0000900834CDE901790BF0FCFB18F8016FD3
:10437C00A4B2002EEFD12A8803210A23DFF888A1EA
:10438C00C2F3001201245046DFF8908102923222CF
:10439C00A1464327CDE9003134210AF0B9FF3B4651
:1043AC0022B243215046CDF800900834CDE9016982
:1043BC000BF0D8FB18F8017FA4B2002FEFD12A889C
:1043CC0003210A23DFF840A1C2F340120124504616
:1043DC00DFF84C8102923222A1464326CDE900310E
:1043EC0041210AF095FF334622B250215046CDF8B8
:1043FC0000900834CDE901790BF0B4FB18F8016F8B
:10440C00A4B2002EEFD12A8803210A23DFF8F8A0EA
:10441C00C2F3801201245046DFF808810292322246
:10442C00A1465227CDE900314E210AF071FF3B46DF
:10443C0022B25D215046CDF800900834CDE90169D7
:10444C000BF090FB18F8017FA4B2002FEFD12A8853
:10445C0003210A23DFF8B0A0C2F3C0120124504696
:10446C00DFF8C48002923222A1465426CDE90031F5
:10447C005B210AF04DFF334622B26A215046CDF83B
:10448C0000900834CDE901790BF06CFB18F8016F42
:10449C00A4B2002EEFD12A880A2303210124C2F3EF
:1044AC0000221948A046194F02923222DFF8589088
:1044BC00CDE9003168210AF02BFF432322B277218A
:1044CC004846CDF800800834CDE901680BF04AFB72
:1044DC0017F8013FA4B2002BF0D1288803210A233E
:1044EC003222C0F3402001917521009302900648BE
:1044FC000AF00EFF04B0BDE8F08700BFD414002012
:10450C0088540020E0140020C06F002018150020F3
:10451C00DC140020E8140020F0140020F814002013
:10452C00001500200815002010150020F8B50220F9
:10453C0015F00CFC0446002800F0F48002467D4B7C
:10454C007D497E4815F072F8112C28BF00247C4B55
:10455C000025012603271C60FFF712F8794B187011
:10456C00FFF752F8784B1870FFF792F8774B1870EA
:10457C00FFF7D2F8764B1870FFF712F9754B02461D
:10458C0008201A7015F0E2FB734B041E734A744931
:10459C0008BF1A46694815F049F8641B714B4FF077
:1045AC00090018BF01241C7015F0D0FB6E4B041EC3
:1045BC006E4A6F4908BF1A46604815F037F8601B01
:1045CC006C494DF6060218BF01206B4B6B4C087002
:1045DC004DF604019A83998024211A85272219808B
:1045EC004DF605019A8407221982252183F826208D
:1045FC004DF60A0299814DF60701A3F858209986C9
:10460C002821A3F864202C2219864DF60801A3F862
:10461C0060204DF60B02A3F840102921A3F870205E
:10462C0099874DF60901A3F87C202E22A3F84C1093
:10463C002A219D70A3F8481026219D7319832B21E4
:10464C009D76A3F854102D2183F83260A3F86C10DA
:10465C002F2183F83E5083F84A5083F8626083F828
:10466C00567083F86E70A3F87820626DA3F88410EE
:10467C00302183F87A60A3F8901047F6122183F862
:10468C00866083F8926010684DF60C02A3F88820BF
:10469C004DF60D02A3F894202A46394BE360394BB2
:1046AC00A360394BA361394BA363394BE363394B9B
:1046BC006364394BA364394B636214F087FC384A4A
:1046CC004FF6FF7384F870701268A4F85860C4F841
:1046DC000021344A84F85A506567334984F8F850FD
:1046EC00C4F8FC503148C4E91A339369C4E918552D
:1046FC0043F080532E4C93610C602E4B2E4C2F4A62
:10470C0004601A602E492F4C2F4B304A0C601A60F3
:10471C002F49304A3048314C314B1160314A0460DA
:10472C001A60F8BD0246304B0349044814F07EFF72
:10473C000DE700BF18140020602800203845002029
:10474C00284D0020FCBB0320FBBB0320FABB03203D
:10475C00F9BB0320FFBB032018290020881500207B
:10476C0000290020FDBB032068290020942900208B
:10477C0048290020F3BB0320187000202C73012063
:10478C007D870000A9010000499600004922000025
:10479C0099540000D55500005D5300007191000044
:1047AC0018B803200080194050B903204CB90320DD
:1047BC00B187000058B90320D101000079960000A0
:1047CC0040B90320E521000068B90320C95400005A
:1047DC008D5300006CB9032044B90320055600002A
:1047EC0074B90320E1910000842800200A4B0B4A85
:1047FC000B49002808BF1A4610B50A4C20700A480D
:10480C0014F014FF2378094A191E18BF012143EA3A
:10481C00410382F8703010BD182900208815002043
:10482C00C8180020FDBB0320384500202C73012044
:10483C000C2836D8DFE800F021271B09070B1117CD
:10484C00192D2F3133001848704718487047184BF2
:10485C0018483F2998BF18467047174B17483F29EF
:10486C0098BF184670471648704716487047164B45
:10487C0016483F2998BF18467047154B15483F29D5
:10488C0098BF18467047144B14483F2998BF1846D8
:10489C0070471348704713487047134870471348C4
:1048AC0070471348704700BF00150020F82B0020FC
:1048BC00042C0020181500200C2C002010150020B2
:1048CC00142C00201C2C0020F02B0020F0140020B5
:1048DC00E02B0020E8140020E82B0020E01400203E
:1048EC00242C00202C2C0020342C00203C2C0020CC
:1048FC00442C002010B53E4C2368062B0BD8DFE867
:10490C0003F01A2A374A60040B0015F02FF9394AC4
:10491C0006231060236010BD15F028F9354A40F6C7
:10492C00D7631268801A9842F5D90121324B0022C4
:10493C0021601A7010BD304B4FF084424FF08071E3
:10494C001B78C2F888100BB1052323602B4B40F663
:10495C00D8621A6010BD4FF084434FF08072C3F8D8
:10496C00842015F003F9234A02231060236010BD44
:10497C0015F0FCF81F4A214B12681B68801AB0EB2B
:10498C00530FC8D34FF084424FF080710323C2F809
:10499C008810236010BD15F0E9F8194A174B1268FE
:1049AC001B68801A8342B6D84FF084434FF0807254
:1049BC00C3F8842015F0DAF80E4A04231060236043
:1049CC0010BD15F0D3F80B4A0C4B12681B68801AFB
:1049DC00B0EB530F9FD3084B4FF084424FF08071D4
:1049EC001B78C2F88810002B94D00523236010BDCF
:1049FC0020B90320407401200CBC032024B90320EF
:104A0C007CB60120104B1B789B0700D4704710B567
:104A1C000E4C15F0ABF80E4B2268801A400818604B
:104A2C0015F0A4F80B4B20601B783BB90A4A012007
:104A3C000A490B4B126808701A6010BD094B012211
:104A4C001A60FFF757FFF1E7F9BB03207CB6012092
:104A5C0024B90320F2BB032018B80320E5BB0320C4
:104A6C0088B6012020B90320104B1B78DB0700D43B
:104A7C00704710B50E4C15F079F80E4B2268801A61
:104A8C004008186015F072F80B4B20601B783BB98E
:104A9C000A4A01200A490B4B126808701A6010BDB3
:104AAC00094B01221A60FFF725FFF1E7F9BB032040
:104ABC007CB6012024B90320F2BB032018B80320D4
:104ACC00E3BB032080B6012020B90320074B084923
:104ADC00084A10B51C78002818BF0A4618700649F9
:104AEC00064814F0A3FD204610BD00BFF3BB032005
:104AFC009018002098180020A41800203845002099
:104B0C00092809D80138082828D8DFE800F00C0F4C
:104B1C001215181B1E212400FF2802D1114B1888D6
:104B2C007047002070474DF6050070474DF60600A3
:104B3C0070474DF6070070474DF6080070474DF66C
:104B4C00090070474DF60A0070474DF60B00704790
:104B5C004DF60C0070474DF60D0070474DF60400F5
:104B6C00704700BF86540020092809D8013808284E
:104B7C0020D8DFE800F00C0F11131517191B1D00BE
:104B8C000D4B0E4AFF2808BF1346184670470C4BB6
:104B9C00184670470B4BF8E70B4BF6E70B4BF4E75B
:104BAC000B4BF2E70B4BF0E70B4BEEE70B4BECE749
:104BBC000B4BEAE70B4BE8E76C1100209811002037
:104BCC00E0140020F014002000150020181500201F
:104BDC00101500207811002080110020342C0020AA
:104BEC0088110020E814002070B50546204E0C46B4
:104BFC0020482A46204914F019FD33789A0707D427
:104C0C00DB0711D41D491B48BDE8704014F00EBDE4
:104C1C001B49184814F00AFD00222946204616F0BC
:104C2C0027FC3378DB07EDD5164E1749114814F0E5
:104C3C00FDFC736DF021186803681B68984755B12B
:104C4C00013C2544736D14F8011F186803681B6838
:104C5C009847A542F6D1736DF721186803681B6855
:104C6C00984706490348BDE8704014F0DFBC00BF0C
:104C7C00FFBB032038450020B4070020F0070020BC
:104C8C00D40700202C730120E0070020F72813D054
:104C9C00124938B50B78124C5B00124D2268DBB20E
:104CAC000B7023F07F0310491843531C8B42236075
:104CBC00A85403DC002038BD0120704727210B4885
:104CCC0017F0C0F921680A4814F088FC084814F061
:104CDC0091FC0123074A1846137038BDDBBB032037
:104CEC00F0B70220D0B701201F000100AC14002047
:104CFC00384500200FBC032010B51C4C034622681D
:104D0C000A2A2AD8DFE802F0060B271A0F0F0F0F1A
:104D1C000F0F200000221648164902600A70F02B73
:104D2C0008D0002010BDFFF7B1FFD0B923680133C4
:104D3C00236010BD02230020236010BD0E49042205
:104D4C0000200B70226010BDFFF7A0FF48B90323B1
:104D5C000020236010BD6928F9D0012300202360B6
:104D6C0010BD01231846236010BD00BF6C750120D7
:104D7C00F0B702200FBC0320DBBB03202DE9F0476A
:104D8C004FF0000A82B05346CD1802EB0A0403F12F
:104D9C0007084FF0000CAAEB030715F801EB4FEADC
:104DAC004C0C01331EF0800F5FFA8CFC0EF07F066A
:104DBC0007EB030918BF4CF0010C834204F8016F98
:104DCC0006DA4345E9D102F80AC00AF1080ADBE722
:104DDC0002F80AC002460549CDF80090044814F0C8
:104DEC0025FC09F1010002B0BDE8F0875C1400203D
:104DFC003845002010B5FA20174C14F063FE012240
:104E0C003C2116480CF018F8154A164B1268207005
:104E1C001A6000B910BD2421134817F013F9134878
:104E2C0014F0E8FB0121112014F006FF01211020E1
:104E3C0014F002FF0021112014F0C2FE00211020FA
:104E4C0014F0BEFE0A481DF09FFE0A49084809F0FE
:104E5C00E1FE207810BD00BFE7BB0320C06F00202F
:104E6C0018B8032064740120E41800203845002091
:104E7C002C65002040420F0070B506690446756829
:104E8C00013D756075BB33681F4ADB6A93422CD1B8
:104E9C00B06D10B117F080FAB565336D63B306F1E0
:104EAC00180011F04FFA2569E5B12B68174A5B68B9
:104EBC00934225D1164BA86D2B6018B117F06CFAE4
:104ECC000023AB652B6D05F118068BB1304611F044
:104EDC0039FA104B3046AB6011F034FA5C2128469D
:104EEC0015F010FA0023236170BD30469847DAE7BD
:104EFC006B6D002BEAD1ECE7736D002BCFD1D2E7B1
:104F0C0028469847EEE700BF45010000C90900009C
:104F1C00B439002008370020012BF0B5054695B0B8
:104F2C003DD0022B40F2022001F104010CBF0346DC
:104F3C000023684611F020FB129B002B38D05C201C
:104F4C00002615F0DDF9214B04AF0446C0E900360C
:104F5C00019B3946183040F80C3C1D4B40F8103C76
:104F6C00029B40F8083C9DF80C3000F8043C11F012
:104F7C00A7F9184B4FF47A72A665A360164B6E60B6
:104F8C002B6063682E730133AA602C616360134B32
:104F9C003846009311F0D6F9284615B0F0BD44F20E
:104FAC0002230431684611F0E7FA129B002BC6D19C
:104FBC00139B002BC3D14FF47A71074A04AF2B73A8
:104FCC002A602B61C5E90131E1E700BFB43900204B
:104FDC00103A002090390020643900200837002056
:104FEC00F0B502469DB0A049A048019214F01EFBFA
:104FFC009F4C019A9F49A04817F0C2FE00239E4A7D
:10500C0008A89E49FFF788FF236913B12046FFF7D4
:10501C0033FF0C992161002900F0E2800B68984A5B
:10502C00DB6B93424FF0000240F008814FF47A742E
:10503C00944E18310CA88DF82C200896CDE9092433
:10504C00CDE91A2211F0EAF91A9B002B00F0D2805C
:10505C005C20002515F054F98B4B04460CA9C0E9D3
:10506C000035099B183040F80C3C884B40F8103C3C
:10507C000A9B40F8083C9DF82C3000F8043C11F0D9
:10508C001FF963684FF47A72A56501330495059294
:10509C008DF818500794C4E901367D4B03937D4B72
:1050AC000CA8089311F04EF97B4C236913B12046E0
:1050BC00FFF7E2FE079B7048236118F051FC014694
:1050CC006D4816F0BFFF694814F094FA2069F8B1E6
:1050DC000368724A1B6B934217D1036D002B00F0CF
:1050EC0095800B216E4816F0ADFF604814F082FAE3
:1050FC00206900B303686B4A9B6A93421AD1036D13
:10510C00002B00F09180DB6916E098470028E8D16D
:10511C000F21654816F096FF5448002414F06AFAE3
:10512C000521624816F08EFF504814F063FA2046B1
:10513C001DB0F0BD984703465D4F06215D483B60AE
:10514C0016F080FF2569002D73D02B685A4A5B6BD3
:10515C00934240F08380AE6D002E00F0B980304653
:10516C0018F0FEFB0146304616F06CFF3F4814F079
:10517C0041FA0621514816F065FF00230A223968CE
:10518C003A4814F061FA394814F034FA2569002DC4
:10519C0052D02B684A4A9E68964259D1286D0028F5
:1051AC0039D04FF4005247490EF0BEFE2569002D50
:1051BC0042D02B68DB6A444A934246D1A86D18B1A1
:1051CC0017F0EAF80023AB652B6D002B39D005F1F5
:1051DC00180011F0B7F830483A4CFFF74DFE9FE736
:1051EC004FF47A722A4B04918DF8181005920393A0
:1051FC00079159E71B9B002B7FF42AAF244A8DF8AB
:10520C00183003920793CDE9043448E7436D002B23
:10521C007FF467AF7CE7686D0028CBD04FF4005269
:10522C0028490CF069FAC1E7436D002B84D01B6947
:10523C0082E72946254E96E7224C71E703A898474A
:10524C0032E76B6D002BC2D1C5E728469847C2E701
:10525C004FF400521B492846B047A7E72846984709
:10526C000646002E82D07AE7E0090020384500205F
:10527C002C4D00200C0A002000720120C85D00207B
:10528C006D05000090390020B4390020103A002040
:10529C006439002008370020104B00202D0100003D
:1052AC001C0A002051050000380A0020480A002082
:1052BC00E4710120280A0020F9010000300A0020C6
:1052CC00BD06000070950120450100009C410020A6
:1052DC004FF4807017F058F80146A865B0B106700D
:1052EC00286D40B14FF4807210F0D8FBAE6D002EDB
:1052FC003FF43CAF33E7686D18B14FF480720DF09A
:10530C00CDFFAE6D002E3FF431AF28E7014B1E46AA
:10531C00AB6524E7DABB03202DE9F04F05469DB0C1
:10532C000E468B488B492A46019614F07FF92A4683
:10533C0089498A4817F024FD0023884A08A888491F
:10534C0011F01AF91A9B002B00F096805C200026B5
:10535C0014F0D6FF099B00F1180BDFF83882C360FC
:10536C0004460A9B0CA97F4F03619DF82C304660C4
:10537C000375C0F800808760584610F0A1FF636881
:10538C00DFF814920CA80133A665DFF8F4A1764E71
:10539C006360C4F80890CDF820A010F0D3FF3269F8
:1053AC0012B13046FFF768FD2368704ADB6B34613D
:1053BC00934240F0B38000224FF47A7459460CA803
:1053CC00CDF8209009928DF82C200A94CDE91A2260
:1053DC0011F024F81A9B002B00F090805C2014F044
:1053EC008FFF099B87600027C36004460A9B0CA9AA
:1053FC00C0F80080183040F8083C9DF82C3040F87C
:10540C00147C00F8043C10F05BFF6368C4F808904F
:10541C000133A765049763604FF47A738DF81870A5
:10542C000593534B079403930CA8CDF820A010F0D0
:10543C0089FF504C236913B14E48FFF71DFD0798A7
:10544C002061A8B103684C4A1B6B93420DD1036DCC
:10545C00002B5FD049493E4814F0E8F8019B002B23
:10546C002BD101201DB0BDE8F08F98470028F1D159
:10547C0000201DB0BDE8F08F1B9C002C7FF466AFA4
:10548C003F4B0CA8384F089310F05CFF3B691BB1E5
:10549C003846FFF7F1FC3C6100234FF47A72354C2F
:1054AC008DF8183020690793CDE90432304A039205
:1054BC000028C1D11DB0BDE8F08F3249244814F04A
:1054CC00B5F82069FDF738FE2A4603462E492348D5
:1054DC0017F056FC214A2D491D4814F0A7F82C4B07
:1054EC00D3F88424FAB10020114601231B4A0890FA
:1054FC0008A80EF0C5FC30BB0198B3E71B9B002B32
:10550C007FF46CAF8DF818300793CDE90434184B49
:10551C00039389E7436D002B9CD1A9E72146002218
:10552C0003A8984785E7D3F88814002999D01492DA
:10553C0001230A4A08A80CF083FC0028DCD008A838
:10554C000CF020FED8E708A80FF0A0FDD4E700BFB0
:10555C0038450020241B00200C0A0020007201207A
:10556C00CC5D0020103A00202C4D00206D05000071
:10557C0064390020104B00202D010000501B00202E
:10558C00083700206C1B0020841B0020981B002077
:10559C00C85D0020B439002090390020104BD3F89E
:1055AC00840410B558B1002308220E4900F5896017
:1055BC000FF014FE0B48BDE8104014F01BB8D3F8E4
:1055CC008844002CF6D00346082204F5896005496E
:1055DC000CF0F8FC0348BDE8104014F00BB800BF09
:1055EC00C85D0020384500202DE9F04F074688465D
:1055FC009FB0664943463A466548DFF8E09114F09F
:10560C0015F800233A4663490AA8FFF785FCD9F838
:10561C00103013B14846FFF72FFC0E99C9F8101043
:10562C00002900F0BE810B685B4ADB6B934240F0B3
:10563C0013830EAE00224FF47A74DFF89CA118315C
:10564C0030460B928DF834200C94CDF828A0CDE97F
:10565C001C2210F0E3FE1C9B002B00F0C8815C2088
:10566C00002514F04DFE0B9B04464560C36031468B
:10567C000C9B183040F8083C9DF8343000F8043C82
:10568C00464B40F8183C464B40F8103C10F018FEC6
:10569C006368C4F808A00133A565069563604FF4F0
:1056AC007A738DF8205007933E4B099405933E4B2B
:1056BC0030460A9310F046FE3C4D2B6913B13B4823
:1056CC00FFF7DAFB09982861002800F0788103685D
:1056DC0037491A6B8A4240F0C382026D002A00F0EF
:1056EC007A819B6A33498B4240F08D81D36928695A
:1056FC00314C2360FDF720FD3F2102462F4817F067
:10570C00FBFA2E4A2E49224813F090FF22682D49AD
:10571C001F4813F08BFF2268B2F5004F00F2928203
:10572C002C692CB3236828499E688E4240F0B382C2
:10573C00206D002800F09D8224490EF0F5FB2C69A9
:10574C00B4B12368DB6A224A934240F0B082A06D68
:10575C0018B116F021FE0023A365236D002B00F079
:10576C00908204F1180010F0EDFD1048FFF784FB57
:10577C001021184816F066FC0B4B05484FF47A7B49
:10578C000EAE029313F036FF3FE000BFE80C002092
:10579C0038450020C85D00206D050000B43900209C
:1057AC00103A00206439002008370020104B0020EC
:1057BC002D01000051050000E471012090B601207C
:1057CC00FC0C0020080D0020BD060000E4F10020B8
:1057DC00450100003C0D0020903900202C4D00208C
:1057EC0000238B4A0AA80A9301230EF049FB0028D8
:1057FC0040F0C8811B21874816F024FC864813F022
:10580C00F9FEBBF1010B00F04881002342468349AD
:10581C000AA810F0B1FE1C9B002B00F01F815C202D
:10582C00002714F06DFD0B9B00F1180A0446C360B1
:10583C0031460C9B476003619DF834300375784BFF
:10584C000360784B8360504610F03AFD029BA765CD
:10585C0030460A936368744F0133A760636010F09D
:10586C0071FDD9F8103013B17048FFF705FB2368B0
:10587C006F49DB6BC9F810408B4240F091810022DC
:10588C004FF47A74514630460A970B928DF83420B7
:10589C000C94CDE91C2210F0C1FD1C9B002B00F0D8
:1058AC0065815C204FF0000A14F02AFD5C4B044625
:1058BC00C0F804A0036031465A4B183040F8103C35
:1058CC000B9B40F80C3C0C9B40F8083C9DF834308A
:1058DC0000F8043C10F0F4FC6368A7600133C4F8D2
:1058EC0058A0CDF818A063604FF47A738DF820A0FF
:1058FC000793504B09940593029B30460A9310F082
:10590C0021FD2B6913B14C48FFF7B6FA099C2C61A9
:10591C00002C00F0C280236848491A6B8A4240F080
:10592C003581226D002A00F015815B6B444A93424D
:10593C0040F01881A76D002F00F03B814346414A8F
:10594C00FF213348009717F0D7F92C69002C00F091
:10595C00FF8023683A4A5B6B934240F02681A26D2C
:10596C00002A00F038812A4B37492B4813F05EFE91
:10597C00364BD3F8841400297FF432AFD3F8883433
:10598C00002B3FF437AF16910AA81946204A012381
:10599C000CF056FA00283FF42DAF0AA80CF0F2FBDD
:1059AC0028E74FF47A73244D06910793214B8DF819
:1059BC00201005932B690991002B7FF480AE3A4699
:1059CC002349154813F032FE224913481FB0BDE895
:1059DC00F04F13F02BBE426D002AF0D09B6A1E4A8A
:1059EC00934210D1436D03B11B69286980E61D9B5E
:1059FC00002B7FF434AE8DF820300993CDE90634BA
:105A0C000C4B059353E698470346286970E600BF94
:105A1C00D0B60120740D002038450020CC5D00204C
:105A2C00B4390020103A0020903900202C4D002071
:105A3C006D05000064390020104B00202D01000082
:105A4C00F9010000500D0020580D0020C85D002009
:105A5C00CC0D0020C0200020510500001D9C002C06
:105A6C007FF4DDAE029B30460A9310F06BFCD9F844
:105A7C00103023B19E48FFF7FFF9C9F810400023FE
:105A8C0006938DF8203009934FF47A730793994B52
:105A9C0005932B69002B7FF436AF974A4346FF21C1
:105AAC0096480092964A17F027F90B21954816F064
:105ABC00C9FA924817F054FF0146904816F0C2FA02
:105ACC00914813F097FD01230AA88C4A8F49FFF7E0
:105ADC0023FA2B6913B18E48FFF7CEF90E98286183
:105AEC00002800F09F8003688A491A6B8A4240F0B4
:105AFC009680026D002A00F0C980874A1268DB6824
:105B0C0086498B4240F0E380036D002B00F0D2807D
:105B1C00834918460EF02CFE2C69002C3FF454AF30
:105B2C002368804ADB6A934240F0D480A06D18B1A0
:105B3C0016F032FC0023A365236D002B00F0C2800D
:105B4C0004F1180010F0FEFB7148FFF795F93BE7E4
:105B5C00754A08E7626D002A9FD05B6B734A9342CB
:105B6C003FF4E8AE204698470746E7E61D9B002B1E
:105B7C007FF497AE8DF820300993CDE906345D4B58
:105B8C000593B9E60AA80FF081FA33E62046904750
:105B9C00002882D02C690CB9634FCFE62368C4E689
:105BAC002146002205A89847ABE6204698470246B6
:105BBC00D9E64FF4807016F0E7FB0146A06500288B
:105BCC0000F0C2800770206DC8B14FF480720FF0E6
:105BDC0065FFA76DB2E64FF48070039216F0D4FB0C
:105BEC000146A065002800F0AB80039A0270206D7E
:105BFC0068B14FF480720FF051FFA26DB3E6606D87
:105C0C0018B14FF480720DF049FBA76D96E6606DEC
:105C1C0018B14FF480720DF041FBA26DA3E69047D2
:105C2C0000283CD11F21424816F00CFA334817F0DB
:105C3C0097FE0146314816F005FA3E493248FDF709
:105C4C003FFBC1E64FF400423B492F4813F0EEFCFA
:105C5C004FF40042226063E5002205A898472BE52B
:105C6C00904700283FF4ABAE2869002835D1034695
:105C7C003EE5606D00283FF465AD29490BF03CFD15
:105C8C005DE5636D002B7FF46CAD6EE5426D002A13
:105C9C007FF433AFC6E720462149B0474FE51E4B92
:105CAC0028691A6800283FF48FAE036827E720465E
:105CBC0098475AE5406D18B119490CF02DFE2BE7A9
:105CCC002C692DE7636D002B7FF43AAF3CE7144948
:105CDC00984721E72046984736E70368174A9B6A9E
:105CEC0093427FF490AE026D002A7FF4FFAC79E60C
:105CFC002C4D00206439002090B60120D0B6012034
:105D0C00500D0020900D002038450020C85D00206B
:105D1C00104B00202D010000E4710120A1070000B0
:105D2C00E4F10020450100009C410020F901000035
:105D3C009C0D0020BC0D0020140D0020510500000E
:105D4C00034B1A46A3650EE6014B1F46A365F5E50A
:105D5C00DABB032030B59BB004460D460346094A16
:105D6C00302102A816F0C8FF2B46074A30210EA896
:105D7C00009416F0C1FF0EA902A8FFF735FC1BB06A
:105D8C0030BD00BF20160020301600202DE9F04752
:105D9C000D469AB006460821AB4890461F4616F0B1
:105DAC0051F935B1284617F0DBFD0146284616F0AF
:105DBC0049F9A648A64C13F01DFC00233246A54910
:105DCC0006A8FFF7A9F8236913B12046FFF754F88A
:105DDC000A992161002900F0F7800B689E4ADB6B61
:105DEC00934240F05B8100224FF47A74DFF8A8A252
:105DFC0018310AA807928DF824200894CDF818A021
:105E0C00CDE9182210F00AFB189B002B00F0EB8058
:105E1C005C204FF0000914F073FA079B0446C0F89D
:105E2C000490C3600AA9089B183040F8083C9DF800
:105E3C00243000F8043C894B40F8183C884B40F85F
:105E4C00103C10F03DFA6368C4F808A00133C4F8A4
:105E5C005890CDF8089063604FF47A738DF81090D9
:105E6C000393804B059401937F4B0AA8069310F083
:105E7C0069FA7E4C236913B17C48FEF7FDFF059847
:105E8C00206100283BD00368794A1B6B934240F099
:105E9C000F81036D002B00F0B2801421754816F0B1
:105EAC00D1F82069FDF748F9814628B117F058FD63
:105EBC000146484616F0C6F8644813F09BFB20696F
:105ECC00FDF73AF96C49034632466C4816F058FF18
:105EDC00604BD3F88414002900F09A800023674AA1
:105EEC0006A8069301230DF0CBFF002840F0F380A9
:105EFC001B21634816F0A6F8544813F07BFB32467E
:105F0C002B465D495D4816F03BFF3B465B4A5D49BD
:105F1C004E4813F08BFB012306A8584A4D49FEF757
:105F2C00FBFF236913B15148FEF7A6FF0A982061C5
:105F3C00002834D003684E491A6B8A422BD1026D6B
:105F4C00002A61D0DB68504A934240F0BE80036D5A
:105F5C00002B70D03A46414618460EF009FC2469D5
:105F6C00B4B12368494ADB6A934240F0AB80A06D20
:105F7C0018B116F011FA0023A365236D002B00F065
:105F8C009C8004F1180010F0DDF93848FEF774FF1E
:105F9C001AB0BDE8F0879047002840F083801F219D
:105FAC003B4816F04FF8354817F0DAFC01463348F9
:105FBC0016F048F80D21374816F044F823481AB06B
:105FCC00BDE8F04713F016BB4FF47A73274C0291DF
:105FDC000393244B8DF81010019323690591002B2A
:105FEC007FF44AAF8BE7199B002B7FF411AF8DF830
:105FFC0010300593CDE902341A4B019334E7436D0D
:10600C00002B7FF44AAF7AE7426D002A9AD1C6E79B
:10601C00D3F88834002B3FF46BAF129106A81946C5
:10602C00164A01230BF00CFF00283FF461AF06A8C1
:10603C000CF0A8F85CE7406D00284AD03A4641467F
:10604C000CF06AFC8BE700BF540900203845002097
:10605C002C4D0020C85D00206D050000B4390020D7
:10606C00103A00206439002008370020104B002023
:10607C002D0100006009002078090020D0B6012015
:10608C00740D002080090020A107000045010000CC
:10609C009C0D0020BC0D002090390020002201A88E
:1060AC009847E6E6206900283FF472AF036849E799
:1060BC00984700283FF423AFEFE6636D002B7FF485
:1060CC0060AF62E7204698475FE73A4641469847FB
:1060DC0045E7246945E706A80EF0D8FF08E700BF9E
:1060EC00294B034410B50446092B47D8DFE803F0CD
:1060FC00191E23282D32373C41050621234815F063
:10610C00A1FF0121224815F09DFF214600231022FA
:10611C00204813F099FA02211F48BDE8104015F0F1
:10612C0091BF05211D4815F08DFFEAE706211C489B
:10613C0015F088FFE5E706211A4815F083FFE0E724
:10614C000621194815F07EFFDBE70721174815F0EB
:10615C0079FFD6E70521164815F074FFD1E7052124
:10616C00144815F06FFFCCE70721134815F06AFFB0
:10617C00C7E70821114815F065FFC2E70821104850
:10618C0015F060FFBDE700BFFC27FFFFD415002012
:10619C00F415002038450020F81500209415002037
:1061AC009C150020A4150020AC150020B41500206F
:1061BC00BC150020C4150020CC150020DC150020D7
:1061CC00E8150020FF2994460AD04B4B0344092BB9
:1061DC0012D8DFE803F0171C21262B30353A3F127A
:1061EC00454B034410B4092B47D8DFE803F0823841
:1061FC00494B4D586470728070470A4660463F495F
:10620C0016F0BEBD0A4660463D4916F0B9BD0A46B9
:10621C0060463C4916F0B4BD0A4660463A4916F051
:10622C00AFBD0A466046394916F0AABD0A4660461B
:10623C00374916F0A5BD0A466046364916F0A0BD92
:10624C000A466046344916F09BBD0A4660463349FF
:10625C0016F096BD0A466046314916F091BD314B99
:10626C0007CBCCF8000018889B78ACF80C00CCF865
:10627C000410CCF808208CF80E305DF8044B7047F5
:10628C00294BEDE7294BEBE7294C0FCCCCF8000060
:10629C00CCF80410CCF80820CCF80C30EDE7254BEA
:1062AC0007CB1B88CCF80000CCF80410CCF80820E5
:1062BC00ACF80C30E1E7204B07CB1B78CCF8000096
:1062CC00CCF80410CCF808208CF80C30D5E71B4B1C
:1062DC00C6E71B4C0FCCCCF800002078CCF804108F
:1062EC00CCF80820CCF80C308CF81000C5E7154B16
:1062FC00B6E7154BD4E700BFFC27FFFFB81A002008
:10630C005C1A0020441A0020701A0020A01A0020E9
:10631C00E41A0020D01A0020301A0020181A00208D
:10632C00881A002094190020B4190020D8190020D4
:10633C00081A0020F8190020841900207419002074
:10634C00C4190020E8190020A419002070B51446C7
:10635C0096B00B46024668496848009416F010FD4A
:10636C000023664A02A8664910F006F9149B002B1C
:10637C006FD05C20002513F0C3FF0399049A0446E8
:10638C00604B45600360604BC0E903129DF814201C
:10639C0006A98360183000F8042C0FF091FF636895
:1063AC005A4A06A80133A565A260594D594A636043
:1063BC0002920FF0C7FF2B6913B12846FEF75CFD64
:1063CC002368554A1B6B2C61934267D1236D002BBC
:1063DC004FD028690368514A9B6A934240F08280EF
:1063EC00036D002B50D0D8692C691828024628BFA1
:1063FC0018224B4B4B4918600023C1E90033C1E90B
:10640C000233C1E904330B7604B3236846489E6813
:10641C00864261D1206D002854D00DF085FD2C6989
:10642C00A4B12368DB6A414A934258D1A06D18B1DC
:10643C0015F0B2FF0023A365236D002B48D004F1A7
:10644C0018000FF07FFF3248FEF716FD354816B0E6
:10645C0070BD159C002C8CD12E4B06A82C4D029394
:10646C000FF070FF2B693BB12846FEF705FD2C6140
:10647C0002E0636D002BACD12D4B2A4C0FCB07C423
:10648C002848237016B070BD426D002A31D01069B7
:10649C002C691828024628BF1822AAE720469847DC
:1064AC000028E9D02869002894D11E491C4B0860AB
:1064BC00186048610876C1E90100C1E90300194878
:1064CC0016B070BD606D0028ACD00BF015F9A6E7C6
:1064DC00636D002BB3D1B6E72046B0479FE720464B
:1064EC009847B0E79847182802462C6928BF18220D
:1064FC007FE72C6910467CE7F40D002090B6012054
:10650C00CC5D0020B4390020103A002090390020D6
:10651C00104B0020083700202D0100005105000011
:10652C00E4710120E4F10020BD06000045010000EB
:10653C00000E002038B50D46044619214C4815F0C4
:10654C0081FD0A22002329464A4813F07DF8494868
:10655C0013F050F8E20712D4A3071CD4600726D41A
:10656C00210730D4E2063AD4A30644D460064ED4B4
:10657C00210658D4E20562D4A3056CD438BD4DF67F
:10658C000B003D4A2946FFF71DFE29463B48FFF705
:10659C00E1FBA307E2D54DF60A00374A2946FFF77F
:1065AC0011FE37482946FFF7D5FB6007D8D54DF6C5
:1065BC000500314A2946FFF705FE29463148FFF709
:1065CC00C9FB2107CED52C4A4DF604002946FFF70E
:1065DC00F9FD29462C48FFF7BDFBE206C4D54DF664
:1065EC000600254A2946FFF7EDFD29462748FFF707
:1065FC00B1FBA306BAD54DF60C001F4A2946FFF78E
:10660C00E1FD23482946FFF7A5FB6006B0D54DF602
:10661C000700194A2946FFF7D5FD29461D48FFF703
:10662C0099FB2106A6D5144A4DF60D002946FFF715
:10663C00C9FD29461848FFF78DFBE2059CD54DF6A0
:10664C0009000D4A2946FFF7BDFD29461348FFF7FF
:10665C0081FBA30592D529464DF60800064AFFF7A3
:10666C00B1FD29460E48BDE83840FFF773BB00BFAB
:10667C00FC1500203845002000720120D4140020A5
:10668C00DC140020E0140020E8140020F01400209A
:10669C00342C0020001500201816002010150020A6
:1066AC00181500202DE9F04304469DB00D46164602
:1066BC0000214FF40042A94816F08CFD0821A8488F
:1066CC0015F0C0FC34B1204617F04AF901462046BB
:1066DC0015F0B8FCA34812F08DFF2246A24C002303
:1066EC00A24908A8FEF718FC236913B12046FEF74F
:1066FC00C3FB0C992161002900F0D6800A68D46B89
:10670C009B4A94424FF0000240F01B814FF47A7484
:10671C00DFF8A88218310CA809928DF82C200A9465
:10672C00CDF82080CDE91A220FF078FE1A9B002BB1
:10673C0000F0F3805C20002713F0E2FD099B044677
:10674C004760C3600CA90A9B183040F8083C9DF8C0
:10675C002C3000F8043C874B40F8183C864B40F832
:10676C00103C0FF0ADFD6368C4F808800133A765D9
:10677C00049763604FF47A738DF8187005937F4B10
:10678C00079403937E4B0CA808930FF0DBFD7D4C14
:10679C00236913B17B48FEF76FFB07982061002833
:1067AC0000F09080036878491A6B8A4240F0CC80E4
:1067BC00026D002A00F0A6809B6A74498B4240F05F
:1067CC00B880D069DFF8EC810621C8F80000704869
:1067DC0015F038FC2769002F00F0AF803B686D4A3C
:1067EC005B6B934240F0F980D7F85890B9F1000FE9
:1067FC0000F00681484617F0B3F80146484615F0FC
:10680C0021FC584812F0F6FE0621634815F01AFCDC
:10681C000A220023D8F80010524812F015FF5148F4
:10682C0012F0E8FE2769D8F80020002F00F08380D2
:10683C003B685A49D3F80890894540F0DD80386DA3
:10684C00002800F0BD8045490DF06EFB2769002F34
:10685C0071D03B685B6B4F4A934240F0C680BB6D76
:10686C00002B00F0E4804E4A182108A816F044FAD8
:10687C002469B4B123684B4ADB6A934240F0B98077
:10688C00A06D18B115F088FD0023A365236D002BB6
:10689C0000F09E8004F118000FF054FD3948FEF70B
:1068AC00EBFAD8F8004023E0344B4FF47A72354CB5
:1068BC000393236904918DF8181007910592002B0E
:1068CC007FF468AF3421384815F0BCFB254812F032
:1068DC0091FE0024354B03F8014F0134B4F5006FE1
:1068EC00F9D11822324908A816F00CFD314B1C6066
:1068FC00182208A92846346016F004FD17481DB06C
:10690C00BDE8F083426D002ADCD09B6A1F4A93429B
:10691C000FD1436DFBB1186954E71B9B002B7FF41F
:10692C0009AF8DF818300793CDE90434134B03935A
:10693C0028E7984746E7204B95E73946DFF87890EB
:10694C005CE703A8A04722E790470028BAD020694B
:10695C00002840F09680002034E700BFE4F10020CE
:10696C002C100020384500202C4D0020C85D002044
:10697C006D050000B4390020103A00206439002065
:10698C0008370020104B00202D010000510500009D
:10699C00280A0020F9010000300A0020BD06000082
:1069AC002C1C00204501000038100020E3F10020D1
:1069BC0070100020E47101209C41002090390020CF
:1069CC00786D00283FF446AF35490AF095FE3DE757
:1069DC00636D002B7FF45EAF60E7384698478146C5
:1069EC00B9F1000F3FF40DAF04E738469847034662
:1069FC0039E72046984751E738462949C84725E7E3
:106A0C004FF4807015F0C0FC0146B865002843D0E7
:106A1C0080F80090386DE0B14FF480720FF03EF8C2
:106A2C00D7F85890B9F1000F3FF4EBAEE2E64FF413
:106A3C008070019315F0A8FC0146B865F0B1019B7C
:106A4C000370386D90B14FF480720FF027F8BB6D66
:106A5C0009E7786D18B14FF480720CF01FFCD7F871
:106A6C005890B9F1000F3FF4CCAEC3E6786D18B175
:106A7C004FF480720CF012FCBB6DF4E6094BBB6555
:106A8C00F1E60368084A9B6A93427FF452AF026DA9
:106A9C00002A3FF43EAF94E6024B9946BB65A9E64B
:106AAC00E4F10020DABB03205105000010B538B327
:106ABC004FF084434FF4801201211A20C3F8882030
:106ACC0013F0BAF80121192013F0B6F801211B209C
:106ADC0013F0B2F801211C2013F0AEF801210A20AA
:106AEC0013F0AAF801210B2013F0A6F801210C20B9
:106AFC0013F0A2F801211820BDE8104013F09CB847
:106B0C0004461A20214613F097F82146192013F059
:106B1C0093F821461B2013F08FF821461C2013F00C
:106B2C008BF821460A2013F087F821460B2013F02E
:106B3C0083F821460C2013F07FF82146182013F01F
:106B4C007BF84FF084434FF48012C3F8842010BDBF
:106B5C002DE9F8430446002800F0D1807B4B1B78CC
:106B6C00FBB97B4B4FF4807206207A4FC3F8882018
:106B7C00794E7A4D13F04EF898B179684FF4FA7358
:106B8C003268120C03FB02F25208A5FB0232120A05
:106B9C007B685B1A9A42FBD8062013F03BF800285E
:106BAC00EBD10121262013F047F84FF084464FF02B
:106BBC008053012125204FF40025C6F8843013F0B2
:106BCC003BF8674B01210F20C3F8845013F034F8C5
:106BDC00C6F888504FF400130125C6F888302946B2
:106BEC00212013F029F8294622204FF0844613F077
:106BFC0023F8294623204FF4802713F01DF829464B
:106C0C002420DFF8648113F017F8294620204FF474
:106C1C00805913F011F829461F2013F00DF829465E
:106C2C00272013F009F82946092013F005F8294606
:106C3C00082013F001F82946072012F0FDFF294621
