:0200000460009A
:100000004643464200000156000000000103030081
:1000100000000000000000000000000000000000E0
:1000200000000000000000000000000000000000D0
:1000300000000000000000000000000000000000C0
:1000400000000000010408000000000000000000A3
:100050000000800000000000000000000000000020
:100060000000000000000000000000000000000090
:100070000000000000000000000000000000000080
:10008000EB04180A063204260000000000000000FD
:10009000050404240000000000000000000000002F
:1000A0000000000000000000000000000000000050
:1000B0000604000000000000000000000000000036
:1000C0000000000000000000000000000000000030
:1000D00020041808000000000000000000000000DC
:1000E0000000000000000000000000000000000010
:1000F0000000000000000000000000000000000000
:10010000D8041808000000000000000000000000F3
:100110000204180804200000000000000000000095
:1001200000000000000000000000000000000000CF
:10013000600400000000000000000000000000005B
:1001400000000000000000000000000000000000AF
:10015000000000000000000000000000000000009F
:10016000000000000000000000000000000000008F
:10017000000000000000000000000000000000007F
:10018000000000000000000000000000000000006F
:10019000000000000000000000000000000000005F
:1001A000000000000000000000000000000000004F
:1001B000000000000000000000000000000000003F
:1001C000000100000010000001000000000000001D
:1001D000000001000000000000000000000000001E
:1001E000000000000000000000000000000000000F
:1001F00000000000000000000000000000000000FF
:10020000FFFFFFFFFFFFFFFFFFFFFFFFFFFFFFFFFE
:10021000FFFFFFFFFFFFFFFFFFFFFFFFFFFFFFFFEE
:10100000D100204325160060000000000000000011
:101010002010006000100060007C026000000000F2
:10102000000000600088020000000000FFFFFFFFDA
:10103000FFFFFFFFFFFFFFFFFFFFFFFFFFFFFFFFC0
:10104000FFFFFFFFFFFFFFFFFFFFFFFFFFFFFFFFB0
:10105000FFFFFFFFFFFFFFFFFFFFFFFFFFFFFFFFA0
:10106000FFFFFFFFFFFFFFFFFFFFFFFFFFFFFFFF90
:10140000884207D0904205D251F8043B40F8043B93
:101410008242F9D8704700BF884204D2002340F8C6
:10142000043B8142FBD870472DE9884800F0D0F991
:101430000824614B614AC3F8544161496148FFF790
:10144000DFFF614A61496248FFF7DAFF614962489C
:10145000FFF7E2FF614C4FF0E0214FF470000023F2
:101460005F4AC1F8880D44F823200133B02BFAD12C
:101470005C4B80215C4A03F8011B9342FBD14FF087
:10148000E0254D4E4FF08039DFF88CB1DFF88CA1AC
:101490004FF0FF31C5F8084D0027C6F80491C6F893
:1014A00000B1C6F8F490C6F8F0A0D5F8243DDFF8F6
:1014B000708143F4E0234D4AC5F8243DD8F81C3030
:1014C00023F07F0343F04003C8F81C30D8F82430E1
:1014D00023F07F0343F04003C8F824309166D166BF
:1014E0001167516700F07CF9414B4249A363424BBD
:1014F000E36363236B610323AF612B613F4BC5F84B
:10150000203DD5F8FC3D43F08073C5F8FC3D3C4BD5
:101510001A6842F001021A605B680B6000F09EFBE3
:10152000C6F804913748C6F800B1C6F8F490C6F87A
:10153000F0A000F029FDD8F86C10334B334A41F489
:101540004051C8F86C101F60C3F80871C3F81871D7
:10155000C3F82871C3F83871936BDB0708D442F6DF
:1015600015632B4951651365936B43F00103936336
:10157000264A284C936843F00113936000F0ACF9BD
:1015800000F0D0FC00F020FD00F096FB00F00CFD18
:101590002368132BFCD900F027FC2368B3F5967F52
:1015A000FBD300F01BF900F017F900F001FD00F08B
:1015B000F7FC30BFFDE700BF00800D40C8F9010017
:1015C0002C28006000000000C0560020F8210260B6
:1015D0000000002040B80320C05600200054002026
:1015E0008166010000E400E0A0E400E000C00A40E1
:1015F000658301000CB403206983010000002020F2
:10160000001000E00046C3230040084000400D40A9
:101610000000C05610B403201B1018200C0D11132D
:1016200000C00F40074B4FF42A01074A07485A648D
:101630001864074A99639546BFF34F8FBFF36F8FC6
:10164000FFF7F2FE00C00A40FFAAAAAA0700200086
:101650000000062043690A4A03EB011010B4037A24
:10166000084C02EB0313D3E901321460C2681A601C
:1016700003690BB142691A605DF8044B704700BF03
:10168000D43A002061F801004369027E03EB0212A4
:1016900092F808C08C451CD01A7AFF2A19D09142C2
:1016A00010B5044616D01A7EFF2A06D00121D3E9D0
:1016B000002312681A4201D1217610BD064B052283
:1016C000204603EB0C135B681A60FFF7C3FF21761B
:1016D000F3E770470021EAE7D43A002043690A4A59
:1016E00003EB011010B490F82830084C02EB031300
:1016F000D3E901321460C26A1A60036B0BB1426B0A
:101700001A605DF8044B7047D43A002061F801007C
:101710004369427E03EB021292F828C08C451ED02A
:1017200093F82820FF2A1AD0914210B5044617D00A
:1017300093F83820FF2A06D00121D3E9002312684C
:101740001A4201D1617610BD064B0522204603EBFB
:101750000C135B681A60FFF7C1FF6176F3E770470F
:101760000021EAE7D43A0020164942698B6B23F442
:101770007C0343F4802370B58B630446124DD2E999
:1017800000130A681A4303690A60022200211A61E1
:101790000E4A19619A6401225A629D624FF43035F3
:1017A000DD624FF001159E6C1E6519629D651A6120
:1017B000017EFFF74FFF617E2046BDE87040FFF7D6
:1017C0008DBF00BF00C00F40B80B05053B3728197F
:1017D000704700BF704700BF704700BF00BF704731
:1017E00010B44FF0E023002110242B48C3F8941DBF
:1017F000C3F89C4D1124C3F8A00D2848C3F89C4D94
:101800001224C3F8A00D2648C3F89C4D254AC3F8FE
:10181000A00D254C42F015022448C3F89C4DC3F896
:10182000A00D234C2348C3F89C4DC3F8A00D224CB7
:10183000C3F89C2D2148224AC3F8A04DC3F89C0D43
:10184000C3F8A02D02F5A0221E4C0C321E48C3F88E
:101850009C4DC3F8A02D1D4AC3F89C0D1C4CC3F829
:10186000A02D01221B48C3F89C4DC3F8A00DC3F85E
:10187000942DBFF34F8FBFF36F8FC3F8501FBFF38B
:101880004F8FBFF36F8FD3F8142D5DF8044B42F4E4
:101890004032C3F8142D70473F00001025000803A4
:1018A0000900100040B803201300200021000207A7
:1018B0001400002025000813090000101600202045
:1018C00027000B1317000040180000602F000B07C3
:1018D000190000702F000B13F0B5B84B1822B84E4A
:1018E0000120B84F83B0C3F85C62B749C3F8607297
:1018F000B64DC3F86462A6F53046B54CC3F86862CD
:10190000C3F86C52C3F87052C3F87452C3F87852DB
:1019100048F20C75DA661A675A679A67DA67C3F88D
:101920008020C3F88420C3F88820C1F82C03A94A7A
:10193000C1F83003C1F83403C1F83803C1F83C03DF
:10194000C1F85003A169A44B0A40A448A449134319
:10195000A44AA361D4F8843043F00C03C4F8843063
:101960004FF0FF34036843F00203036003682B4029
:101970004FF400551A439C4B026044608A689B4CAC
:1019800013409B4A43F000538360C36823F07803FD
:10199000C360036A134023430362036A1340954AFA
:1019A0002343954C43628262C2620022D1F8B83070
:1019B00023F03F0343F00103C0F8B830D1F8BC3046
:1019C0008E4923F03F0343F00103C0F8BC3040F2DE
:1019D0000563026105660467C0F8803045664467A8
:1019E0000224C0F88430036823F00203036081619D
:1019F000834B8449C46143F8042B8B42FBD1774A63
:101A0000136843F001031360136813F00103FBD163
:101A10007A48022140F2F564906140F29940D16128
:101A200040F26641C2F8004242F20144C2F810128C
:101A30007549C2F82002C2F8301240F235417348AD
:101A4000C2F83442C2F84012714CC2F8500242F25D
:101A500001207049C2F854120121C2F86042C2F854
:101A600064025E48C2F8A030C2F8A430C2F8B010D8
:101A70004369DA07FCD5012300244FF4803257492B
:101A80004361C0F8A040C0F8A420C0F8B0304B6952
:101A9000DB07FCD5012300244FF400304F4A4B6193
:101AA000C1F8A040C1F8A400C1F8B0305369DF0705
:101AB000FCD501230024584848495361C2F8A0408E
:101AC000C2F8A400C2F8B0304B69DE07FCD5D1F8EB
:101AD000003145F60D5221209BB24861934265D1F9
:101AE00000244FF4802201233C48C1F8A040C1F8F3
:101AF000A420C1F8B0304369DD07FCD501234FF4C1
:101B000000040021354A4361C0F8A040C0F8A41089
:101B1000C0F8B0305369DC07FCD501234FF4000452
:101B20004FF480302D495361C2F8A040C2F8A400A0
:101B3000C2F8B0304B69D807FCD501234FF400043C
:101B40004FF40030254A4B61C1F8A040C1F8A40011
:101B5000C1F8B0305369D907FCD501234FF4000414
:101B60002D481E495361C2F8A040C2F8A400C2F833
:101B7000B0304B69DA07FCD5D1F8003145F60D528B
:101B800021209BB24861934250D008254FF40004B5
:101B900022490020224B234A009015705A1A012333
:101BA0002148224400F0F8F903B0F0BD1E4B00229A
:101BB000C3E90022C3E9022203B0F0BD00801F4048
:101BC000F9B00100F910010000841F40F970010014
:101BD00000C00F40FFFCFF1F000300A000402A4090
:101BE00000802A401200FFFFFF37F700400000800E
:101BF00000FFF07CFF000F8363000200F05AF05AF0
:101C000000422A4000432A409F041830EB06180A7D
:101C10003806180A0632012604000300000000708E
:101C200000000070E7B70320CCED00204FF4000463
:101C30004FF4802201230848C1F8A040C1F8A42035
:101C4000C1F8B0304369DB07FCD5012310254FF004
:101C5000807443619CE700BF00402A40F0B4154AFD
:101C600040274FF480314FF480564FF400554FF425
:101C7000404443F24200136913F0020F0ED113F4F3
:101C8000005F0FD013F4805F0ED0002BF3DA13F453
:101C9000803F0BD15B060BD5F0BC7047946151615E
:101CA0009061E8E75561E6E75661E4E79161E2E7B4
:101CB0005761E0E700800D403F4A03203F49F3EEC3
:101CC000095AD2F880304FF0000C9FED3D6A23F0A6
:101CD00001039FED3C5A30B4C2F88030C2F8900046
:101CE000D1F8E010384DCBB2384C39482B6007EEB4
:101CF000903A0B0DC1F30B21F8EEE77A06EE903A1D
:101D000007EE101A334BB8EEC77A2160F8EEE66A98
:101D1000314937EEC66A37EEC55A76EEC76A77EEB6
:101D2000E57A26EE266AC3ED006A25EE265AD2F839
:101D3000803067EEA64AC0ED007AC6EE275A2748E3
:101D400085EE276AC4EEA76A75EE875AFCEEE55A5F
:101D500036EE076A15EE904ABCEEC66A43EA0453B3
:101D600076EE877AC2F8803016EE103AD2F89041BB
:101D7000FCEEE77A01EA0341214317EE903AC2F8FC
:101D80009011C3F30B03D2F890110B431449C2F81E
:101D90009031D2F8803043F00203C2F88030114B0A
:101DA00080F840C0C1F840314FF0E023012230BC40
:101DB000C3F80821704700BF00810D4000441F4058
:101DC0000000AA420000B442C8B10120C4B1012001
:101DD000CCB10120D0B101200000FF0F00E400E0F1
:101DE0000054002061680100314B40F6617210B56B
:101DF000C3F8202140F2044400F0CAF82D4A2E49CD
:101E0000D2F880302D4843F00303C2F880302C4BC9
:101E1000C1F8604102681A4203D1D1F8A8319A078B
:101E20001BD0254A4FF00041244B5963D2F8403172
:101E300043F00203C2F84031D2F840319B07FBD493
:101E40004FF400304FF0E0211C4B4FF00042C1F83E
:101E50008C0219209A6300F0AFF8184A4FF08040C6
:101E6000154C002190630A20164B11604FF420722C
:101E7000C4F8A801184600F0A3F84FF48002034606
:101E80004FF4810040F243111860C4F858311A64CD
:101E90000D4B0E4AC4F84811C3F804224FF0E0225B
:101EA0004FF400310123C2F80C11C4F8403110BDC9
:101EB00000800D4000C00F4000002E4000900D40FB
:101EC000001C1E000000002000540020816A010058
:101ED00008B50E4B1B6E9B0700D4FBBE72B60C4BB5
:101EE00000200C4AC3F8400103F160430A49A3F5FE
:101EF0005F2311649D46BFF34F8F4FF400130748D3
:101F0000074ADB6902609B68984700BF00441F4096
:101F100000002E4000C00A40030020000080202066
:101F2000000012EB104BA020104AD96E41F4403152
:101F300010B4D96640F23764D96E41F44071D96665
:101F400054649064936C1B06FCD4094A40F23761D8
:101F5000A02351649364936C13F08003FBD1054A72
:101F600013705DF8044B704700C00F4000400C40F8
:101F700000800C40D5B70320F8B500BFF8BC08BC02
:101F80009E467047000000005FF800F0755C01009D
:101F90005FF800F0BD7101005FF800F0899001006A
:101FA0005FF800F03D8D01005FF800F0FD5F00007C
:101FB0005FF800F079A601005FF800F0655F0100AE
:101FC0005FF800F0E19F01005FF800F0498F010029
:101FD000010100002971000099BA0000A5DB000092
:081FE00029E30000F98901006A
:101FE80000000000000000000000000000000000E9
:101FF80000000000000000000000000000000000D9
:1020080000000000000000000000000000000000C8
:1020180000000000000000000000000000000000B8
:1020280000000000000000000000000000000000A8
:102038000000000000000000000000000000000098
:102048000000000000000000000000000000000088
:102058000000000000000000000000000000000078
:102068000000000000000000000000000000000068
:102078000000000000000000000000000000000058
:102088000000000000000000000000000000000048
:102098000000000000000000000000000000000038
:1020A8000000000000000000000000000000000028
:1020B8000000000000000000000000000000000018
:1020C8000000000000000000000000000000000008
:1020D80000000000000000000000000000000000F8
:1020E80000000000000000000000000000000000E8
:1020F80000000000000000000000000000000000D8
:1021080000000000000000000000000000000000C7
:1021180000000000000000000000000000000000B7
:1021280000000000000000000000000000000000A7
:102138000000000000000000000000000000000097
:102148003F000000000000000000000000001FFC2D
:102158003F000000000000000000000000007FFCBD
:102168003F00000000000000000000000000FFFC2D
:102178003F00000000000000000000000001FFFC1C
:102188003F00000000000000000000000003FFFC0A
:102198003F00000000000000000000000007FFFCF6
:1021A8003F3F007E3F3FC0FF001FFF80000FF9FC4C
:1021B8003F3F007E3F7FF3FFC07FFFE0001FE1FC51
:1021C8003F3F007E3FFFFFFFE0FFFFE0000FC1FC45
:1021D8003F3F007E3FFFFFFFE1FFFFF0000781FC6C
:1021E8003F3F007E3FC1FF07F1F807F0000301FC05
:1021F8003F3F007E3F80FE03F00003F0000001FC3B
:102208003F3F007E3F00FC03F03FFBF1FFF801FC7D
:102218003F3F007E3F00FC03F0FFFFF1FFF801FCA9
:102228003F3F007E3F00FC03F0FFFFF1FFF801FC99
:102238003F3F007E3F00FC03F1FC03F1FFF801FC87
:102248003F3F00FE3F00FC03F1F803F0000001FCF3
:102258003F3F81FE3F00FC03F1F807F0000001FC5E
:102268003F1FFFFE3F00FC03F1FFFFF0000001FCF1
:102278003F1FFFFE3F00FC03F1FFFFF0000001FCE1
:102288003F0FFF7E3F00FC03F0FFFBF0000001FC66
:102298003F03FE7E3F00FC03F07FF3F0000001FCEB
:1022A8000000000000000000000000000000000026
:1022B8000000000000000000000000000000000016
:1022C8000000000000000000000000000000000006
:1022D80000000000000000000000000000000000F6
:1022E80000000000000000000000000000000000E6
:1022F80000000000000000000000000000000000D6
:1023080000000000000000000000000000000000C5
:1023180000000000000000000000000000000000B5
:1023280000000000000000000000000000000000A5
:102338000000000000000000000000000000000095
:102348000000000000000000000000000000000085
:102358000000000000000000000000000000000075
:102368000000000000000000000000000000000065
:102378000000000000000000000000000000000055
:102388000000000000000000000000000000000045
:102398000000000000000000000000000000000035
:1023A8000000000000000000000000000000000025
:1023B8000000000000000000000000000000000015
:1023C8000000000000000000000000000000000005
:1023D80000000000000000000000000000000000F5
:1023E80070C00F40C0000000120000001300000081
:1023F800D0841F4001000000FF000000FF00000023
:10240800000000000000000013000000130000009E
:10241800CC841F4001000000FF000000FF00000006
:1024280000000000000000001C000000FDB90000D2
:1024380070C00F40000C00001100000011000000E7
:10244800E0841F40020000002C0000001200000081
:10245800E0841F400100000010000000110000008F
:10246800DC841F40020000002D0000001200000064
:10247800DC841F40010000001E00000009BA0000B3
:1024880080C00F4000000003190000001000000089
:10249800E8841F4001000000FF000000FF0000006A
:1024A80000000000000000001800000010000000FC
:1024B800E4841F4001000000FF000000FF0000004E
:1024C80000000000000000001F00000015BA000016
:1024D8000000600000000000000000000000000094
:1024E80000E0000000000000000000000000000103
:1024F800E00000000000000000000000000001F003
:102508000000000000000000000000000003F000D0
:1025180000000000000000000000000007F00000BC
:10252800000000000000000000000007F8000000A4
:10253800000000000000000000000FF80000000389
:10254800C0007E000001E0007F0FF800000003C01B
:1025580000FE000001E000FFEFF800000003C000EB
:10256800FE000001E000FFFFF800000003C000F0DB
:102578000000000F007FFE7FC0000003C000F000D5
:1025880000000F003FFE7FF83FF1FBCFFCFEF3BCDD
:102598003DEFE01FFE7FFF7FFBFFDFFEFEFFBC3D40
:1025A800EFE01FC6FFFF7FFBFFDFFEFEFFBC3DEF36
:1025B800E00FE3C7FE787BC3DE1EF0FFBC3DEF00F3
:1025C80007FF87FC787BC3DE1EF0F83C3DEF000177
:1025D800FFFFF0007BC3C01EF0F03C3DEF0001F3AD
:1025E8007FE03FFBC3CFFEF0F03C3DEF0003E33F4D
:1025F800807FFBC3DFFEF0F03C3DEF0007E73C00C7
:10260800787BC3DE1EF0F03C3DEF0007FFBE00788C
:102618007BC3DE1EF0F03C3DEF0007FFFE00787B39
:10262800C3DE1EF0F03C3DEF000FFFFE007FFBFF16
:10263800DFFEF0F03FFDEFE00FFFFF007FFBFFDF65
:10264800FEF0F03FFDEFE00FF9FF003E79F9CF9E75
:10265800F0F01F3DE7E01FF1FF0000000000000060
:1026680000000000001F80FF007FFFFFFFFFFFFF4B
:10267800FFFFFFE01C007F007FFFFFFFFEB46D88B7
:102688008D18E000001F007FFFFFFFFE95AD7DB5B0
:1026980077E000000F007FFFFFFFFEA5AD9D8D19BD
:1026A800E0000006007FFFFFFFFEB5ADEDB57EE060
:1026B80018035400650065006E007300790020005F
:1026C8004D004900440049001803540065006500A6
:1026D8006E00730079006400750069006E006F0079
:1026E8000403090409029500030100C032080B0025
:1026F800020202010009040000010202010005248F
:102708000010010524010101042402060524060025
:10271800010705820310001009040100020A0000E5
:102728000007050302400000070583024000000976
:10273800040200020103000007240100012500062D
:1027480024020101000624020202000924030103F5
:102758000102010009240302040101010009050422
:10276800024000000000052501010109058402401E
:102778000000000005250101030000000902950082
:10278800030100C032080B00020202010009040024
:1027980000010202010005240010010524010101C5
:1027A800042402060524060001070582031000051B
:1027B80009040100020A00000007050302000200E4
:1027C8000705830200020009040200020103000059
:1027D8000724010001250006240201010006240245
:1027E8000202000924030103010201000924030273
:1027F800040101010009050402000200000005258A
:1028080001010109058402000200000005250101FB
:10281800030000000A060002EF0201400100000068
:0428280000010000AB
:10282C00000000000000000000000000000000009C
:10283C00000000000000000000000000000000008C
:10284C00F8B54FF084439D695A6915400DD0244F5B
:10285C0001269D6195FAA5F4B4FA84F457F8243056
:10286C0006FA04F49847A543F4D11E4B9D695A69A6
:10287C0015400DD01C4F01269D6195FAA5F4B4FAB4
:10288C0084F457F8243006FA04F49847A543F4D19D
:10289C00164B9D695A6915400DD0154F01269D6147
:1028AC0095FAA5F4B4FA84F457F8243006FA04F433
:1028BC009847A543F4D10F4B9D695A6915400DD02B
:1028CC000D4F01269D6195FAA5F4B4FA84F457F8DE
:1028DC00243006FA04F49847A543F4D1F8BD00BFA0
:1028EC003448002000400042B448002000800042E0
:1028FC003449002000C00042B44900200548064B72
:10290C001B1AD90F01EBA301491002D0034B03B1E1
:10291C0018477047C0560020C05600200000000029
:10292C0008B5054B1BB105490548AFF30080BDE860
:10293C000840FFF7E3BF00BF000000004470012017
:10294C000088026000207047704700BF036D0BB118
:10295C0001207047406D003818BF0120704700BF40
:10296C00704700BF10B50446806D18B119F02AF8F5
:10297C000023A365236D2BB104F11800BDE81040B2
:10298C0012F0F6BF636D002BF6D110BD08B5172001
:10299C0015F0A0FF60B9084A13680133012B08DD5C
:1029AC00064B012110601970054A064B12681A601B
:1029BC0008BD1360F8E700BF086F012002B80320C0
:1029CC0010B4032070B20120054B1B78DB0706D531
:1029DC00044A01200449054B126808701A607047BC
:1029EC00F2B7032010B40320DBB7032078B2012028
:1029FC00054B1B789B0706D5044A01200449054B5F
:102A0C00126808701A607047F2B7032010B40320E4
:102A1C00DDB7032080B2012010B50446806D00B1F3
:102A2C0010BD4FF4807018F0C5FFA065B0B1002246
:102A3C00236D02703BB101464FF48072184612F0C0
:102A4C0043FBA06D10BD636D002BE9D001464FF424
:102A5C00807218460FF038FFA06D10BD014B184660
:102A6C00A36510BDD2B7032038B5056D6DB10BB1A0
:102A7C00002038BD1146284610F0B4FF0028F7D0CE
:102A8C002846BDE8384011F04FB9446D002CEFD00A
:102A9C0020460EF02DFA0028EAD02046BDE838403A
:102AAC000FF0DEB98A79A2F150031B0622D402F290
:102ABC006C72F0B54B7985B0046D01330D798E785D
:102ACC004F78DBB209784CB1204601960095CDE9E0
:102ADC000271022111F0BCF805B0F0BD406D002868
:102AEC00FAD001960095CDE9027102210FF0FCF8A5
:102AFC0005B0F0BD00207047036D10B50C4682B0D8
:102B0C002BB30DF1060201A9184610F011FB38B3D6
:102B1C00BDF80430BDF8062053EA020120D0C2F300
:102B2C00451C02F01F00D20AC3F34311400084F885
:102B3C0001C0A2705A0A013903F01F0302F5EA62C0
:102B4C002070012061712371A27102B010BD406D23
:102B5C0030B10DF1060201A90EF070F80028D7D1A2
:102B6C00002002B010BD00BF036D10B50C4682B042
:102B7C002BB30DF1060201A9184610F0C9FA38B3AF
:102B8C00BDF80430BDF8062053EA020120D0C2F390
:102B9C00451C02F01F00D20AC3F34311400084F815
:102BAC0001C0A2705A0A013903F01F0302F5EA6250
:102BBC002070012061712371A27102B010BD406DB3
:102BCC0030B10DF1060201A90EF026F80028D7D17C
:102BDC00002002B010BD00BF30B5D0F880448FB0DB
:102BEC0013464CB100250A46684604F589610095E8
:102BFC0010F064FB0FB030BDD0F884040028F9D07D
:102C0C000A4600F5896168460C940FF001F80FB084
:102C1C0030BD00BF10B5044600230A2218F0D8FBC3
:102C2C002046BDE8104018F0A9BB00BF69B170B5D3
:102C3C00054608460C461AF0B3F92B6802462146A5
:102C4C0028465B68BDE87040184770470369D3B1EC
:102C5C000E4810B41C68E46884420FD1186D18B18A
:102C6C005DF8044B11F09AB8586D18B15DF8044B2F
:102C7C000FF068B900205DF8044B704718462346E6
:102C8C005DF8044B18470020704700BF9107000007
:102C9C00006990B10368154A1B69934225D1036DF5
:102CAC0063B1187810F0080007D0D8695B69C01AB6
:102CBC0048BF6FF00040704718467047436D002BBB
:102CCC00FAD093F8310010F00800F6D018691968A2
:102CDC005A69401A5B6862EB0303B0F1004F73F161
:102CEC000003EAD36FF000407047184779080000E2
:102CFC00036963B11A68074992698A4208D1186D51
:102D0C0008B110F09FBF586D08B10EF077BE704738
:102D1C0018461047FD060000036973B11A6808498C
:102D2C0052698A4207D1186D08B110F0E7BC586D92
:102D3C0018B10EF0C7B8184610474FF0FF30704767
:102D4C000D060000036D13B1586900217047436DE7
:102D5C0013B1D3E90001704718461946704700BFFC
:102D6C00036D13B1D86900217047436D13B1D3E9DA
:102D7C000401704718461946704700BFF0B595B06E
:102D8C0000224FF47A74244F1831054604A88DF8AC
:102D9C000C200097CDE90124CDE9122212F054FE4B
:102DAC00129B002B2DD05C20002618F0DFFB019B22
:102DBC0004464660C36004A9029B183040F8083CE6
:102DCC009DF80C3000F8043C144B40F8183C144BA4
:102DDC0040F8103C12F08AFD124B4FF47A72A76047
:102DEC002B606368A66501336E602E73AA602C613C
:102DFC0063600D4B04A8009312F0BAFD284615B081
:102E0C00F0BD139B002BCED1064A2B732A602B618D
:102E1C00C5E90134EDE700BFC0360020E4360020E0
:102E2C00403700209436002038340020036D13B155
:102E3C00184610F063BC406D08B10EF043B84FF06B
:102E4C00FF307047836C13B1184610F057BCC06C40
:102E5C0008B10EF037B84FF0FF307047036D33B147
:102E6C001B7813F0700F14BF012000207047406DC9
:102E7C0030B190F8313013F0500F14BF0120002006
:102E8C00704700BF10B50446006D80B1037813F095
:102E9C00700F00D110BD002110F0A4FD606D002852
:102EAC00F8D000220023BDE810400EF021B8606D70
:102EBC000028EFD090F8313013F0500FEAD00022F8
:102ECC000023BDE810400EF013B800BF036D13B122
:102EDC00184610F03FBB406D08B10DF023BF4FF00A
:102EEC00FF307047836C00B583B063B101220DF1E4
:102EFC000701184610F02EFB01280CD19DF8070095
:102F0C0003B05DF804FBC06C28B101220DF1070180
:102F1C000DF008FFF0E74FF0FF30F1E7036D13B150
:102F2C00184610F08FBE406D08B10EF067BD7047AB
:102F3C00836C13B1184610F085BEC06C08B10EF04E
:102F4C005DBD7047036923B31968134A10B58C68CB
:102F5C0082B0944214D1186D48B101220DF10701D1
:102F6C0010F0F8FA90B19DF8070002B010BD586D42
:102F7C000028F8D001220DF107010DF0D3FEF1E786
:102F8C0001220DF107011846A047EBE74FF0FF3087
:102F9C00EBE74FF0FF307047AD060000836C13B1C8
:102FAC00184610F0FBBEC06C08B10EF0CBBF7047DA
:102FBC00036D13B1184610F0F1BE406D08B10EF060
:102FCC00C1BF704700B5836C83B08DF8071043B157
:102FDC0001220DF10701184610F0E0FE03B05DF878
:102FEC0004FBC06C0028F9D001220DF107010EF092
:102FFC00A9FF03B05DF804FB8A79A2F150031B060C
:10300C0022D402F26C72F0B54B7985B0046D0133A9
:10301C000D798E784F78DBB209784CB12046019649
:10302C000095CDE90271042110F012FE05B0F0BD3F
:10303C00406D0028FAD001960095CDE9027104216B
:10304C000EF052FE05B0F0BD00207047836C53B1FA
:10305C00187810F008000DD0D8695B69C01A48BF09
:10306C006FF000407047C36CA3B193F8310010F0BF
:10307C00080000D17047186919685A69401A5B68D2
:10308C0062EB0303B0F1004F73F10003F2D36FF066
:10309C00004070471846EDE7036D53B1187810F0F7
:1030AC0008000DD0D8695B69C01A48BF6FF00040AA
:1030BC007047436DA3B193F8310010F0080000D1B4
:1030CC007047186919685A69401A5B6862EB030308
:1030DC00B0F1004F73F10003F2D36FF00040704772
:1030EC001846EDE700B5006983B08DF8071060B1A4
:1030FC000368104ADB68934215D1036D43B101227A
:10310C000DF10701184610F049FE03B05DF804FB01
:10311C00406D0028F9D001220DF107010EF012FFCD
:10312C0003B05DF804FB01220DF10701984703B0D1
:10313C005DF804FB9107000048B10368174A5B6B0C
:10314C00934210B5044616D1806D10B110BD1448D1
:10315C0070474FF4807018F02DFCA065C8B10022A8
:10316C00236D027053B101464FF48072184611F072
:10317C00ABFFA06D10BDBDE810401847636D002B70
:10318C00E4D001464FF4807218460FF09DFBA06D01
:10319C0010BD044B1846A36510BD00BFF90100001B
:1031AC00CC3E0020D2B7032038B504460C4B806DC2
:1031BC00236018B118F006FC0023A365236D04F1FD
:1031CC0018054BB1284612F0D3FB064B2846A360DA
:1031DC0012F0CEFB204638BD636D002BF2D1F4E724
:1031EC00E43600203834002038B504460E4B806D90
:1031FC00236018B118F0E6FB0023A365236D04F1DE
:10320C0018056BB1284612F0B3FB084B2846A36097
:10321C0012F0AEFB20465C2118F0AAF9204638BD0E
:10322C00636D002BEED1F0E7E4360020383400203B
:10323C0030B4029C11469C4634B1012C1CD0022C9B
:10324C000ED0002030BC7047056DF5B14FF0FF3348
:10325C00934274EB0C04F4D3284630BC10F0C2BB80
:10326C00026D0AB3D36959184CF10003002BE8D155
:10327C00104630BC10F0B6BB026D62B153695918E0
:10328C004CF10003002BDCD1F2E7406D0028D8D0C4
:10329C0030BC0DF02DBE406D0028D2D0D0E90023FB
:1032AC008A184CEB0303F3E7406D0028C9D0D0E932
:1032BC00042330BC8A184CEB03030DF019BE00BF7D
:1032CC0038B5044649B108460D4619F069FE236825
:1032DC00024629465B68204698472046BDE83840A0
:1032EC0018F04CB808B517F001FB10B908BD17F071
:1032FC0041FB17F0FBFA0028F9D1012008BD00BFF3
:10330C0038B50446094D1121094817F059FB2146DF
:10331C0000230A22284618F05BF8284618F02EF8ED
:10332C0021460020BDE8384015F080BC4842002002
:10333C00101A002010B5002015F068FB044611216E
:10334C00114817F03DFB00230A2221460F4818F0C4
:10335C003FF80E4818F012F8022C01D8204610BD88
:10336C0011210B4817F02CFB00230A2207481C469E
:10337C00194618F02DF8054818F000F8204621469B
:10338C0015F054FC204610BDFC19002048420020CA
:10339C00101A002038B50446094D1B21094817F0B6
:1033AC000FFB214600230A22284618F011F8284664
:1033BC0017F0E4FF21460120BDE8384015F036BC7B
:1033CC0048420020E027002038B50446094D1D2155
:1033DC00094817F0F5FA214600230A22284617F06F
:1033EC00F7FF284617F0CAFF21460220BDE83840F7
:1033FC0015F01CBC48420020D026002070B51446A5
:10340C000D461E46024623460549064817F0D2FFD4
:10341C0044EA06012846BDE8704015F007BC00BF21
:10342C00B82500204842002030B5032083B015F0A9
:10343C00EDFA0446164D14F0010F1649164824F007
:10344C00F00308BF294614F0020F144A08BF28469F
:10345C00009113490190134817F0ACFF04F0F003EE
:10346C00A02B03D104F00F0003B030BD0E490D4862
:10347C0017F0A0FF0323094A0C490A4817F09AFFDA
:10348C00A321032015F0D2FB032003B030BD00BFF5
:10349C007C13002028250020143F00206C280020DD
:1034AC00302500204842002030280020B82500207C
:1034BC0030B5042083B015F0A9FA0446164D14F06B
:1034CC00010F1649164824F0F00308BF294614F0E2
:1034DC00020F144A08BF2846009113490190134863
:1034EC0017F068FF04F0F003A02B03D104F00F00D9
:1034FC0003B030BD0E490D4817F05CFF0323094A99
:10350C000C490A4817F056FFA321042015F08EFB36
:10351C00032003B030BD00BF7C1300202825002001
:10352C00143F0020FC2700203025002048420020BA
:10353C0030280020B825002030B5052083B015F0C8
:10354C0065FA0446164D14F0010F1649164824F07E
:10355C00F00308BF294614F0020F144A08BF28468E
:10356C00009113490190134817F024FF04F0F00365
:10357C00A02B03D104F00F0003B030BD0E490D4851
:10358C0017F018FF0323094A0C490A4817F012FFD9
:10359C00A321052015F04AFB032003B030BD00BF6A
:1035AC007C13002028250020143F002084280020B4
:1035BC00302500204842002030280020B82500206B
:1035CC0030B5062083B015F021FA0446164D14F0E0
:1035DC00010F1649164824F0F00308BF294614F0D1
:1035EC00020F144A08BF2846009113490190134852
:1035FC0017F0E0FE04F0F003A02B03D104F00F0051
:10360C0003B030BD0E490D4817F0D4FE0223094A11
:10361C000C490A4817F0CEFEA221062015F006FB35
:10362C00022003B030BD00BF7C13002028250020F1
:10363C00143F002054280020302500204842002050
:10364C0014280020B825002030B5072083B015F0D1
:10365C00DDF90446164D14F0010F1649164824F0F6
:10366C00F00308BF294614F0020F144A08BF28467D
:10367C00009113490190134817F09CFE04F0F003DD
:10368C00A02B03D104F00F0003B030BD0E490D4840
:10369C0017F090FE0223094A0C490A4817F08AFEDB
:1036AC00A221072015F0C2FA022003B030BD00BFE2
:1036BC007C13002028250020143F002088270020A0
:1036CC00302500204842002014280020B825002076
:1036DC0010B550B10B490C4A0C4817F06BFE012188
:1036EC000820BDE8104015F0A1BA04460549084A67
:1036FC00064817F05FFE21460820BDE8104015F083
:10370C0095BA00BF5C270020EC1400204842002032
:10371C005827002070B505460C490D482A4605F17E
:10372C0008062C4617F046FE14F8011B04F2FF1095
:10373C00401B15F07BFAA642F6D10521054817F07F
:10374C003FF90348BDE8704017F018BEF026002082
:10375C004842002018270020F8B5074640F2012502
:10376C0024210C487C1EFE1DED1B17F029F928198D
:10377C0015F04CF904F8010FB442F8D100230521DF
:10378C0005483B7217F01CF90448BDE8F84017F0E7
:10379C00F5BD00BF782600201827002048420020E5
:1037AC00012810B504460BD0022816D090B11A216E
:1037BC000B4817F005F90B48BDE8104017F0DEBDBB
:1037CC000B21094817F0FCF8064817F0D7FD074BFA
:1037DC001C6010BD0D210648F4E70C210548F1E7EB
:1037EC00780C0020484200205C0C0020144800207B
:1037FC004C0C0020680C0020194B2DE9F041194E9F
:10380C000446DFF868801F68174D04F00F03092B7E
:10381C001BD0082B04F0F00220D80134E4B257B9C5
:10382C00992CF2D8414655F8240019F06DF900286E
:10383C00EBD0204610E0022CE7D8414656F8240085
:10384C0019F062F90028E0D0F3E704F0F00410342A
:10385C00E4B2902CE3D90020BDE8F0811446DEE7F9
:10386C00286F012050060020E803002020090020CA
:10387C0000F00F03092B16D0082B00F0F0020DD925
:10388C00002311090C4801EB8101007803EB410383
:10389C00DBB2984238BF002210467047431CDAB2A4
:1038AC0003F00F03EDE700F0F0001030C2B2902AE5
:1038BC00E6D9002210467047EFB70320144B2DE9D0
:1038CC00F041DFF858800446124E1D68124F230752
:1038DC000FD114F0F00417D19924002DF7D156F81C
:1038EC002400414619F010F90028F0D02046BDE81C
:1038FC00F081013CE4B215B9992CE8D8EFE7022C21
:10390C00E5D857F82400ECE7073CE4B2F3E700BF36
:10391C00286F0120E8030020500600202009002019
:10392C00030705D110F0F0001FD1632399200AE0A2
:10393C000138C0F3031200F00F03C0B202EB820295
:10394C0003EB4203DBB20A4A12789A420CD2094BBF
:10395C00A3FB0213DB08C3EB4311C3EB810149004A
:10396C0001EB03131A44D0B270470738E1E700BFEC
:10397C00EFB70320CDCCCCCC70B5274D0021284619
:10398C000BF0B8FC254B022128462B610BF0ACFC4C
:10399C00234B1C78012C0AD0022C27D0BCB100225E
:1039AC00204B43F63F7110469A70198070BD1E4B28
:1039BC0000241C495F221B7828464A7002221B09EE
:1039CC008C7030330B7017F0A5FC204670BD154E73
:1039DC0045F65F7330463380B47019F0E1FA314626
:1039EC000246284617F096FC204670BD0E4B00226E
:1039FC000C4C1B78A27020461A0903F00F033032CE
:103A0C0030332270637019F0CBFA214602462846F7
:103A1C0017F080FC012070BDC06B0020010023005A
:103A2C00F9B7032064700120E5B7032038B5174BB4
:103A3C0004461B68002B0FD0154D1A461549B8BF0C
:103A4C005A1C2868096800EB62028A4204DC0344B1
:103A5C00994200DD296038BD0F4D4FF001130F4A1C
:103A6C0000212846C5E904230BF044FC012128461B
:103A7C000BF03AFC002CEED0204619F091FA2146BE
:103A8C0002462846BDE8384017F044BCFC6D0120C6
:103A9C00F06D01205C700120C06B0020010014004F
:103AAC0038B5174B04461B68002B0FD0154D1A4622
:103ABC001549B8BF5A1C2868096800EB62028A4293
:103ACC0004DC0344994200DD296038BD0F4D4FF0F2
:103ADC0001130F4A00212846C5E904230BF00AFC08
:103AEC00012128460BF000FC002CEED0204619F0EA
:103AFC0057FA214602462846BDE8384017F00ABC62
:103B0C00F86D0120EC6D01205C700120C06B002071
:103B1C000100260038B5174B04461B68002B0FD04C
:103B2C00154D1A461549B8BF5A1C2868096800EB90
:103B3C0062028A4204DC0344994200DD296038BDEC
:103B4C000F4D4FF001130F4A00212846C5E90423FD
:103B5C000BF0D0FB012128460BF0C6FB002CEED05D
:103B6C00204619F01DFA214602462846BDE8384089
:103B7C0017F0D0BBF46D0120E86D01205C700120C2
:103B8C00C06B00200100380038B50A4D04460A4BC2
:103B9C00012128462B610BF0A7FB4CB1204619F0F4
:103BAC00FFF9214602462846BDE8384017F0B2BB63
:103BBC0038BD00BFC06B00201E00260030B55E4A29
:103BCC0083B05E4C156823685B1B962B06D95C4D45
:103BDC00236813602B7883F001032B70FF281CD013
:103BEC000F2811D8574C2378012B5ED013F0FD0F02
:103BFC0049D00020B3B9524B1B78002B14BFCC23F7
:103C0C00FC230B7003B030BD1238072805D8DFE851
:103C1C0000F0251C0404041404104A4B00201B78EB
:103C2C00002BE8D0013BDBB2012BEBD8464B1B78C9
:103C3C0031E0444B02201B78DCE7424B1B78A3F1AC
:103C4C000200B0FA80F04009D4E73E4C2378012BF7
:103C5C0059D0022B30D09BB10020E3E7394C2378AC
:103C6C00012B41D0022B34D0002BF5D1374A18460A
:103C7C0001911288012A54D0FFF752FE0199034694
:103C8C000222314D04E0000101222F4D0C30C3B251
:103C9C0000202B7022702A4A0B70127812B943F054
:103CAC000F03DBB20B7003B030BD274D02222B7813
:103CBC0023F00F030343EBE7244B234D1B88287899
:103CCC00012B019125D0FFF7D3FD01990222034668
:103CDC00DEE71E4B1C4D1B882878012B01911CD054
:103CEC00FFF71EFE0199F1E7184B174D1B8828783A
:103CFC00012B019100F0F00018D0FFF711FE019993
:103D0C0003460222C4E7104D0222287800F0F0038B
:103D1C00BEE7FFF771FD0199D8E7FFF7CFFD0199D9
:103D2C00D4E7FFF7CBFD01990346A9E7FFF7C6FDE2
:103D3C0001990346E5E700BFBC67002010B40320DF
:103D4C00D9B70320F9B70320E5B70320B6B7032092
:103D5C0008B5374B1B68042B21D8DFE803F0424A27
:103D6C0003032200334B344A1B88344903F51F5399
:103D7C0011603C339BB2092B50D8314A52F82300C6
:103D8C00FFF754FE2F4B1B8803F51F533C339BB29C
:103D9C00092B45D82A4A52F82300FFF781FE01204F
:103DAC0008BD254B1868FFF741FE224B1B8803F515
:103DBC001F533C339BB2092B38D8214A52F82300AD
:103DCC00FFF76EFE1F4B1B8803F51F533C339BB252
:103DDC00092B29D81A4A52F82300FFF79BFE012021
:103DEC0008BD154B184A19481A60FFF71FFE012031
:103DFC0008BD104B104A1B88134903F51F53116063
:103E0C003C339BB2092B0DD80D4A52F82300FFF717
:103E1C000DFE0E48FFF744FE012008BD0C48AFE72D
:103E2C000B48BAE70A48F2E70948D6E70848C7E75B
:103E3C00ACB60320C6B70320904A00209C0F00208C
:103E4C0070030020C8B703207C0F0020900F0020C7
:103E5C00CC070020554B1B6810B5072B2CD8DFE87E
:103E6C0003F0840404562D2D3267514C514B5249AA
:103E7C001B682288514818F099FA5048FFF7D6FD74
:103E8C002388B3F5005F00F08C8000F28380B3F5DB
:103E9C00006F02D0B3F5805F02D14948FFF700FEF6
:103EAC00484B1A682AB148490020484A09681860EA
:103EBC0011604748FFF72EFE012010BD4548FFF763
:103ECC00B5FD012010BD444B1A681E2A05D03E4991
:103EDC001E20424A0968186011604148FFF7A6FD90
:103EEC00404B41491A88354818F060FA3F4B1A6824
:103EFC002AB1354900203E4A0968186011602F48E4
:103F0C00FFF7CEFD3248FFF705FE012010BD394802
:103F1C00FFF78CFD354B1A681E2A05D02A491E2046
:103F2C00334A0968186011603348FFF7B9FDC0E7E0
:103F3C00294B1A682AB124490020284A09681860BC
:103F4C0011602A4B1A682AB11F490020284A0968B7
:103F5C00186011601B4B1A68002AADD01A4900205A
:103F6C001A4A096818601160A6E7124B234A2448C4
:103F7C001A60FFF75BFD134B1A68122A05D0124921
:103F8C001220124A0968186011601E48FFF7C2FD22
:103F9C00012010BDB3F5804F03D0B3F5004F7FF473
:103FAC007FAF1948FFF77CFD7AE700BFC4EC002017
:103FBC00B4B70320104800208C1A0020C8EC002055
:103FCC009C1A0020F46D01205C700120E86D01202A
:103FDC00CC1A0020081B0020FC6D0120F06D012084
:103FEC00141B0020B0B70320281B0020F86D012003
:103FFC00EC6D0120E41A0020F41A00207C0F002044
:10400C00601A0020741A0020B41A00202DE9F04721
:10401C004FF00009DFF8E482012484B049464046A1
:10402C00B34E432725460BF065F93B4622B20221DD
:10403C00404600950834CDE901950BF0A9F816F827
:10404C00017FA4B2002FF0D1AA4D03200A23DFF880
:10405C00ACA2298801243222B94601F00101DFF813
:10406C00A4825426029139462746CDE900305046A9
:10407C000AF064FC334622B20F21504600970834F4
:10408C00CDE901970BF084F818F8016FA4B2002E5B
:10409C00F0D12A8803210A23DFF86092C2F3400290
:1040AC0001244846B24602923222A046924F532631
:1040BC00CDE900310D210AF041FC334622B21C211E
:1040CC004846CDF800800834CDE901A80BF060F823
:1040DC0017F8016FA4B2002EEFD12A8803210A230E
:1040EC00DFF818A2C2F3800201245046DFF81882D0
:1040FC0002923222A1464227CDE900311A210AF060
:10410C001DFC3B4622B229215046CDF800900834C4
:10411C00CDE901690BF03CF818F8017FA4B2002F2F
:10412C00EFD12A8803210A23DFF8D0A1C2F3C00201
:10413C0001245046DFF8D48102923222A14648264F
:10414C00CDE9003127210AF0F9FB334622B23621A2
:10415C005046CDF800900834CDE901790BF018F8F1
:10416C0018F8016FA4B2002EEFD12A8803210A237C
:10417C00DFF888A1C2F3001201245046DFF89081C9
:10418C0002923222A1464327CDE9003134210AF0B4
:10419C00D5FB3B4622B243215046CDF80090083463
:1041AC00CDE901690AF0F4FF18F8017FA4B2002FE1
:1041BC00EFD12A8803210A23DFF840A1C2F3401271
:1041CC0001245046DFF84C8102923222A14643264C
:1041DC00CDE9003141210AF0B1FB334622B2502126
:1041EC005046CDF800900834CDE901790AF0D0FFA3
:1041FC0018F8016FA4B2002EEFD12A8803210A23EC
:10420C00DFF8F8A0C2F3801201245046DFF80881D1
:10421C0002923222A1465227CDE900314E210AF0FA
:10422C008DFB3B4622B25D215046CDF80090083400
:10423C00CDE901690AF0ACFF18F8017FA4B2002F98
:10424C00EFD12A8803210A23DFF8B0A0C2F3C012F1
:10425C0001245046DFF8C48002923222A146542633
:10426C00CDE900315B210AF069FB334622B26A21A9
:10427C005046CDF800900834CDE901790AF088FF5A
:10428C0018F8016FA4B2002EEFD12A880A2303215B
:10429C000124C2F300221948A046194F029232227F
:1042AC00DFF85890CDE9003168210AF047FB432331
:1042BC0022B277214846CDF800800834CDE9016858
:1042CC000AF066FF17F8013FA4B2002BF0D1288842
:1042DC0003210A233222C0F340200191752100935F
:1042EC00029006480AF02AFB04B0BDE8F08700BF34
:1042FC00381400209851002044140020C06B00207A
:10430C007C140020401400204C1400205414002075
:10431C005C140020641400206C1400207414002021
:10432C00F8B5022014F072FB0446002800F0E2807D
:10433C000246744B7449754817F03CF8112C28BF91
:10434C000024734B0025012603271C60FFF76CF833
:10435C00704B1870FFF7ACF86F4B1870FFF7ECF858
:10436C006E4B1870FFF72CF96D4B1870FFF76CF94A
:10437C006C4B024608201A7014F048FB6A4B041E62
:10438C006A4A6B4908BF1A46604817F013F8601B5D
:10439C0068494DF6060218BF0120674B674C087040
:1043AC004DF604019A83998024211A8527221980BD
:1043BC004DF605019A8407221982252183F82620BF
:1043CC004DF60A0299814DF60701A3F858209986FB
:1043DC002821A3F864202C2219864DF60801A3F895
:1043EC0060204DF60B02A3F840102921A3F8702091
:1043FC0099874DF60901A3F87C202E22A3F84C10C6
:10440C002A219D70A3F8481026219D7319832B2116
:10441C009D76A3F854102D2183F83260A3F86C100C
:10442C002F2183F83E5083F84A5083F8626083F85A
:10443C00567083F86E70A3F87820626DA3F8841020
:10444C00302183F87A60A3F8901047F6122183F894
:10445C00866083F8926010684DF60C02A3F88820F1
:10446C004DF60D02A3F894202A46354BE360354BEC
:10447C00A360354BA361354BA363354BE363354BDD
:10448C006364354BA364354B636216F063FC344AAA
:10449C004FF6FF7384F870701268A4F85860C4F873
:1044AC000021304A84F85A5065672F4984F8F85037
:1044BC00C4F8FC502D48C4E91A339369C4E9185563
:1044CC0043F080532A4C93610C602A4B2A4C2B4AA4
:1044DC0004601A602A492B4C2B4B2C4A0C601A6036
:1044EC002B492C4A2C482D4C2D4B11602D4A046025
:1044FC001A60F8BD02462C4B0349044816F05AFFCB
:10450C001FE700BF7C130020A0260020484200209B
:10451C00384A0020F3B70320F2B70320F1B7032089
:10452C00F0B70320F6B7032058270020EC14002026
:10453C0040270020F4B70320186C00202C6F0120BA
:10454C00457E0000A9010000F58C0000551F0000FD
:10455C0091460000BD470000654500001D88000025
:10456C0010B403200080194048B5032044B5032043
:10457C00797E000050B50320D1010000258D00008C
:10458C0038B50320B91F000060B50320C1460000F8
:10459C009545000064B503203CB50320ED470000B1
:1045AC006CB503208D880000C42600200A4B0B4AF2
:1045BC000B49002808BF1A4610B50A4C20700A484F
:1045CC0016F0F8FE2378094A191E18BF012143EA98
:1045DC00410382F8703010BD58270020EC140020E5
:1045EC00CC170020F4B70320484200202C6F012088
:1045FC000C2836D8DFE800F021271B09070B111710
:10460C00192D2F3133001848704718487047184B34
:10461C0018483F2998BF18467047174B17483F2931
:10462C0098BF184670471648704716487047164B87
:10463C0016483F2998BF18467047154B15483F2917
:10464C0098BF18467047144B14483F2998BF18461A
:10465C007047134870471348704713487047134806
:10466C0070471348704700BF641400205029002085
:10467C005C2900207C140020642900207414002084
:10468C006C29002074290020482900205414002093
:10469C00382900204C14002040290020441400200C
:1046AC007C290020842900208C29002094290020BA
:1046BC009C29002010B52B4C2368042B0AD8DFE86A
:1046CC0003F0031C293B0A004FF084434FF0807227
:1046DC00C3F8882010BD14F0A9F8234A40F6D7631C
:1046EC001268801A9842F5D94FF084424FF08071CD
:1046FC000023C2F88810236010BD4FF084434FF0A4
:10470C008072C3F8842014F091F8174A02231060C9
:10471C00236010BD14F08AF8134A40F6D763126870
:10472C00801A9842D6D94FF084424FF080710323FF
:10473C00C2F88810236010BD14F078F80B4A0C4BAB
:10474C0012681B68801A8342C4D84FF084434FF020
:10475C008072C3F8842014F069F8034A04231060B3
:10476C00236010BD18B503203C70012074B20120E9
:10477C001CB50320104B1B78DB0700D4704710B519
:10478C000E4C14F053F80E4B2268801A4008186037
:10479C0014F04CF80B4B20601B783BB90A4A0120F3
:1047AC000A490B4B126808701A6010BD094B0122A4
:1047BC001A60FFF77FFFF1E7F0B7032074B2012016
:1047CC001CB50320EAB7032010B40320DBB7032089
:1047DC0078B2012018B50320104B1B789B0700D42E
:1047EC00704710B50E4C14F021F80E4B2268801A4D
:1047FC004008186014F01AF80B4B20601B783BB97A
:10480C000A4A01200A490B4B126808701A6010BD45
:10481C00094B01221A60FFF74DFFF1E7F0B70320B7
:10482C0074B201201CB50320EAB7032010B4032096
:10483C00DDB7032080B2012018B50320092809D860
:10484C000138082828D8DFE800F00C0F1215181BC7
:10485C001E212400FF2802D1114B1888704700201C
:10486C0070474DF6050070474DF6060070474DF643
:10487C00070070474DF6080070474DF60900704769
:10488C004DF60A0070474DF60B0070474DF60C00C4
:10489C0070474DF60D0070474DF60400704700BF91
:1048AC0096510020092809D80138082820D8DFE8BB
:1048BC0000F00C0F11131517191B1D000D4B0E4A90
:1048CC00FF2808BF1346184670470C4B1846704714
:1048DC000B4BF8E70B4BF6E70B4BF4E70B4BF2E704
:1048EC000B4BF0E70B4BEEE70B4BECE70B4BEAE714
:1048FC000B4BE8E7F01000201C11002044140020A2
:10490C0054140020641400207C1400207414002023
:10491C00FC100020041100208C2900200C11002018
:10492C004C14002070B50546204E0C4620482A46F3
:10493C00204916F03FFD33789A0707D4DB0711D4D2
:10494C001D491B48BDE8704016F034BD1B49184882
:10495C0016F030FD00222946204615F047FA337830
:10496C00DB07EDD5164E1749114816F023FD736D74
:10497C00F021186803681B68984755B1013C254421
:10498C00736D14F8011F186803681B689847A542DB
:10499C00F6D1736DF721186803681B6898470649B0
:1049AC000348BDE8704016F005BD00BFF6B7032004
:1049BC004842002088070020C4070020A8070020D8
:1049CC002C6F0120B4070020F72813D0124938B5FA
:1049DC000B78124C5B00124D2268DBB20B7023F08B
:1049EC007F0310491843531C8B422360A85403DCEB
:1049FC00002038BD0120704727210B4815F0E0FF3F
:104A0C0021680A4816F0AEFC084816F0B7FC0123E2
:104A1C00074A1846137038BDD3B70320E8B30220F9
:104A2C00C8B301201F0001001014002048420020D0
:104A3C0005B8032010B51C4C034622680A2A2AD854
:104A4C00DFE802F0060B271A0F0F0F0F0F0F2000D5
:104A5C0000221648164902600A70F02B08D000207C
:104A6C0010BDFFF7B1FFD0B923680133236010BD2F
:104A7C0002230020236010BD0E49042200200B707D
:104A8C00226010BDFFF7A0FF48B90323002023606C
:104A9C0010BD6928F9D001230020236010BD01232B
:104AAC001846236010BD00BF64710120E8B30220DA
:104ABC0005B80320D3B703202DE9F0474FF0000AC7
:104ACC0082B05346CD1802EB0A0403F107084FF0ED
:104ADC00000CAAEB030715F801EB4FEA4C0C013361
:104AEC001EF0800F5FFA8CFC0EF07F0607EB0309BB
:104AFC0018BF4CF0010C834204F8016F06DA4345F1
:104B0C00E9D102F80AC00AF1080ADBE702F80AC088
:104B1C0002460549CDF80090044816F04BFC09F10B
:104B2C00010002B0BDE8F087C0130020484200200D
:104B3C0010B5FA20174C13F025FE01223C21164823
:104B4C000BF090FC154A164B126820701A6000B9D5
:104B5C0010BD2421134815F033FF134816F00EFC3A
:104B6C000121112013F0C8FE0121102013F0C4FE06
:104B7C000021112013F084FE0021102013F080FE80
:104B8C000A481DF01DFB0A49084809F059FB20781A
:104B9C0010BD00BFDFB70320C06B002010B4032092
:104BAC0060700120E8170020484200202C61002092
:104BBC0040420F0070B5066904467568013D75608A
:104BCC0075BB33681F4ADB6A93422CD1B06D10B1B0
:104BDC0016F0F8FEB565336D63B306F1180010F0EE
:104BEC00C7FE2569E5B12B68174A5B68934225D14E
:104BFC00164BA86D2B6018B116F0E4FE0023AB65C4
:104C0C002B6D05F118068BB1304610F0B1FE104B30
:104C1C003046AB6010F0ACFE5C21284616F0A8FCC8
:104C2C000023236170BD30469847DAE76B6D002B8B
:104C3C00EAD1ECE7736D002BCFD1D2E72846984729
:104C4C00EEE700BF45010000C9090000E436002072
:104C5C0038340020044A036910B5044602600BB1D5
:104C6C00FFF7A8FF204610BD94360020064A0369C2
:104C7C0010B5044602600BB1FFF79CFF20461421CF
:104C8C0016F076FC204610BD94360020012BF0B5B2
:104C9C00054695B03DD0022B40F2022001F10401F3
:104CAC000CBF03460023684610F07CFF129B002BC0
:104CBC0038D05C20002616F059FC214B04AF04467A
:104CCC00C0E90036019B3946183040F80C3C1D4BAE
:104CDC0040F8103C029B40F8083C9DF80C3000F862
:104CEC00043C10F003FE184B4FF47A72A665A360D7
:104CFC00164B6E602B6063682E730133AA602C61B7
:104D0C006360134B3846009310F032FE284615B002
:104D1C00F0BD44F202230431684610F043FF129BAD
:104D2C00002BC6D1139B002BC3D14FF47A71074AC9
:104D3C0004AF2B732A602B61C5E90131E1E700BF99
:104D4C00E436002040370020C03600209436002086
:104D5C0038340020F0B502469DB0A049A04801921D
:104D6C0016F028FB9F4C019A9F49A04817F01EFB98
:104D7C0000239E4A08A89E49FFF788FF236913B1B8
:104D8C002046FFF717FF0C992161002900F0E28003
:104D9C000B68984ADB6B93424FF0000240F008819D
:104DAC004FF47A74944E18310CA88DF82C20089678
:104DBC00CDE90924CDE91A2210F046FE1A9B002BEE
:104DCC0000F0D2805C20002516F0D0FB8B4B044603
:104DDC000CA9C0E90035099B183040F80C3C884BF5
:104DEC0040F8103C0A9B40F8083C9DF82C3000F829
:104DFC00043C10F07BFD63684FF47A72A5650133B7
:104E0C00049505928DF818500794C4E901367D4B32
:104E1C0003937D4B0CA8089310F0AAFD7B4C2369DF
:104E2C0013B12046FFF7C6FE079B7048236118F0AC
:104E3C00B7F801466D4815F0C3FD694816F09EFAA7
:104E4C002069F8B10368724A1B6B934217D1036D4A
:104E5C00002B00F095800B216E4815F0B1FD6048D9
:104E6C0016F08CFA206900B303686B4A9B6A934274
:104E7C001AD1036D002B00F09180DB6916E0984786
:104E8C000028E8D10F21654815F09AFD54480024FC
:104E9C0016F074FA0521624815F092FD504816F090
:104EAC006DFA20461DB0F0BD984703465D4F0621B4
:104EBC005D483B6015F084FD2569002D73D02B688F
:104ECC005A4A5B6B934240F08380AE6D002E00F02B
:104EDC00B980304618F064F80146304615F070FD84
:104EEC003F4816F04BFA0621514815F069FD002396
:104EFC000A2239683A4816F06BFA394816F03EFA2D
:104F0C002569002D52D02B684A4A9E68964259D189
:104F1C00286D002839D04FF4005247490EF01AFB87
:104F2C002569002D42D02B68DB6A444A934246D156
:104F3C00A86D18B116F046FD0023AB652B6D002B48
:104F4C0039D005F1180010F013FD30483A4CFFF73A
:104F5C0031FE9FE74FF47A722A4B04918DF81810AA
:104F6C0005920393079159E71B9B002B7FF42AAF03
:104F7C00244A8DF8183003920793CDE9043448E79E
:104F8C00436D002B7FF467AF7CE7686D0028CBD0B6
:104F9C004FF4005228490BF0C5FEC1E7436D002BBE
:104FAC0084D01B6982E72946254E96E7224C71E78F
:104FBC0003A8984732E76B6D002BC2D1C5E7284692
:104FCC009847C2E74FF400521B492846B047A7E761
:104FDC00284698470646002E82D07AE7A009002082
:104FEC00484200203C4A0020CC090020006E0120E1
:104FFC00C85900205D050000C0360020E4360020B2
:10500C0040370020943600203834002020480020FF
:10501C002D010000DC09002041050000F8090020EA
:10502C00080A0020E46D0120E8090020F9010000C5
:10503C00F0090020AD060000689101204501000038
:10504C00CC3E00204FF4807016F0B4FC0146A865ED
:10505C00B0B10670286D40B14FF4807210F034F886
:10506C00AE6D002E3FF43CAF33E7686D18B14FF4D2
:10507C0080720DF029FCAE6D002E3FF431AF28E7A5
:10508C00014B1E46AB6524E7D2B70320104BD3F877
:10509C00840410B558B1002308220E4900F589602C
:1050AC000FF0B2FB0B48BDE8104016F067B9D3F80F
:1050BC008844002CF6D00346082204F58960054983
:1050CC000CF096FA0348BDE8104016F057B900BF33
:1050DC00C8590020484200202DE9F04F05460E46E5
:1050EC009FB0B14933462A46B048B14F16F062F929
:1050FC0000232A46AF490AA8FFF7C8FD3B6913B144
:10510C003846FFF757FD0E993961002900F0DD8113
:10511C000B68A94ADB6B934240F039820DF1380BD6
:10512C0000224FF47A74DFF8D882183158460B926B
:10513C008DF834200C94CDF82880CDE91C2210F089
:10514C0083FC1C9B002B00F0E2815C204FF00009DB
:10515C0016F00CFA0B9B0446C0F80490C360594639
:10516C000C9B183040F8083C9DF8343000F8043C97
:10517C00924B40F8183C924B40F8103C10F0B6FBA8
:10518C006368C4F808800133C4F85890CDF81890BF
:10519C0063604FF47A738DF820900793894B0994D0
:1051AC000593894B58460A9310F0E2FB874C236910
:1051BC0013B18648FFF7FEFC09982061002800F027
:1051CC0092810368DFF83C921A6B4A4540F0E38108
:1051DC00026D002A00F08F819B6A7D498B4240F062
:1051EC00A281D0692569DFF820A2CAF80000002D41
:1051FC0000F08A822B68774A5B6B934240F01982ED
:10520C00AA6D002A00F02F823F21734817F08AF80C
:10521C00714A7249654816F0CDF8DAF800207049E9
:10522C00624816F0C7F8DAF80020B2F5004F00F229
:10523C009581256935B32B686A49D3F80880884570
:10524C0040F00582286D002800F0B28166490EF00E
:10525C0081F92569B5B12B68DB6A644A934240F049
:10526C00DD81A86D18B116F0ADFB0023AB652B6D7D
:10527C00002B00F0BB8105F1180010F079FB5348AE
:10528C00FFF798FC10215A4815F09AFB474816F086
:10529C0075F80023324647490AA8FFF7F7FC3B692B
:1052AC0013B14348FFF786FC0E993961002900F0D1
:1052BC0060810B68404ADB6B934240F0BE810DF17C
:1052CC00380B00224FF47A75DFF8348118315846C8
:1052DC000B928DF834200C95CDF82880CDE91C224A
:1052EC0010F0B2FB1C9B002B00F06A815C200027A5
:1052FC0016F03CF90B9B05464760C36059460C9B66
:10530C00183040F8083C9DF8343000F8043C2B4B26
:10531C0040F8183C2A4B40F8103C10F0E7FA6B6848
:10532C00C5F808800133AF6506976B604FF47A734C
:10533C008DF820700793234B09950593224B584603
:10534C000A9310F015FB236913B12048FFF732FCC8
:10535C0009982061002860D003681B6B4B4540F016
:10536C007081036D002B00F03781FDF7E5FE2149BC
:10537C0002460E4816F01EF82069FDF7DDFE334696
:10538C00FF2100901C4A1D4816F0CCFF094BD3F8A6
:10539C008414002900F02F810023184A0AA80A93CC
:1053AC0001230EF083F831E0940C002048420020D9
:1053BC003C4A0020C85900205D050000E43600205E
:1053CC00403700209436002038340020204800203C
:1053DC0041050000F901000088B20120A80C002052
:1053EC00B40C0020AD060000E4ED002045010000E7
:1053FC00E80C0020FC0C0020180D0020C8B2012085
:10540C00C03600202D010000E46D0120002840F082
:10541C006F81A149A148FDF753FFA14A3346FF21F3
:10542C00A0480092A04A16F07DFF0B219F4815F072
:10543C00C7FA9C4817F0B4FD01469A4815F0C0FA1B
:10544C00964815F09BFF01230AA8964A9849FFF746
:10545C001DFC236913B19748FFF7ACFB0E98206134
:10546C00002866D003681A6B4A455FD1026D002A8A
:10547C0000F0B780DAF80020DB688F498B4240F0EF
:10548C003181036D002B00F0E6808C4918460EF03C
:10549C0085FC2469B4B12368894ADB6A934240F0E5
:1054AC002481A06D18B116F08DFA0023A365236D2D
:1054BC00002B00F0EC8004F1180010F059FA7D4834
:1054CC00FFF778FB1FB0BDE8F08F4FF47A73794C7F
:1054DC00069107937B4B8DF8201005932369099156
:1054EC00002B7FF466AE2A4677496C481FB0BDE8A6
:1054FC00F04F15F05FBF426D002AF4D09B6A734ADF
:10550C00934210D1406D78B1006925696BE61D9B03
:10551C00002B7FF41AAE8DF820300993CDE90634B8
:10552C00684B05933DE6984725695CE69047002853
:10553C0077D11F21664815F043FA5A4817F030FD11
:10554C000146584815F03CFA0D21624815F038FA1E
:10555C0052481FB0BDE8F04F15F010BF4FF4004299
:10556C005D494E4815F026FF4FF40042CAF8002062
:10557C005FE64FF47A7306918DF820100793514B28
:10558C00099105932369002B7FF4DFAE45E70022D8
:10559C0005A898470AE690470028A4D0206900285F
:1055AC0040F0B780DFF838A14C4ACAF800002BE66F
:1055BC00686D00283FF450AE40490BF0B3FB48E651
:1055CC001D9B002B7FF492AE8DF820300993CDE912
:1055DC0006353C4B0593B1E6436D002B7FF4C5AE0D
:1055EC001BE7426D002A7FF445AFA2E76B6D002BE1
:1055FC007FF441AE43E6D3F88834002B3FF409AF77
:10560C0016910AA81946274A01230BF02FFF0028F0
:10561C003FF4FFAE0AA80CF0CBF8FAE62846984700
:10562C002DE62069DAF8002000283FF44BAF036820
:10563C0022E7284698470246E6E5002205A8984747
:10564C0081E6984700283FF4E8AE20698DE62846AD
:10565C001A49C047FDE5406D18B118490CF072FCB1
:10566C0017E7246917E74FF48070039216F0A2F93C
:10567C000146A865002849D0039A0270286D0028BD
:10568C003AD04FF480720FF01FFDAA6DBCE5636D2C
:10569C00002B7FF410AF12E7200D002048420020B1
:1056AC0088B20120C8B201203C0D0020440D00201E
:1056BC00C85900202048002091070000E4ED00208C
:1056CC004501000094360020800D002041050000AB
:1056DC00500D0020700D0020C00C0020CC3E00208E
:1056EC00E46D012010499847D3E620469847E6E63A
:1056FC000AA80EF0E1FF8CE6686D18B14FF48072C9
:10570C000DF0E2F8AA6D7FE5084A7DE5084AAA6526
:10571C007AE50368074A9B6A93427FF404AF026DF3
:10572C00002A7FF45EADEDE6E4ED0020CC3E0020D7
:10573C00D2B703204105000030B59BB004460D469E
:10574C000346094A302102A816F0ECFD2B46074A05
:10575C0030210EA8009416F0E5FD0EA902A8FFF763
:10576C00BBFC1BB030BD00BF84150020941500207D
:10577C002DE9F0470D469CB006460821AF48174668
:10578C00984615F01DF935B1284617F009FC01466D
:10579C00284615F015F9AA48AA4C15F0EFFD002380
:1057AC003246A94908A8FFF771FA236913B12046BC
:1057BC00FFF700FA0C992161002900F01A810B689F
:1057CC00A24ADB6B934240F08A8100224FF47A7438
:1057DC00DFF8BCA218310CA809928DF82C200A9481
:1057EC00CDF820A0CDE91A2210F02EF91A9B002B2F
:1057FC0000F017815C204FF0000915F0B7FE099BF3
:10580C000446C0F80490C3600CA90A9B183040F8F9
:10581C00083C9DF82C3000F8043C8D4B40F8183CAB
:10582C008C4B40F8103C10F061F86368C4F808A089
:10583C000133C4F85890CDF8109063604FF47A732C
:10584C008DF818900593844B07940393834B0CA805
:10585C00089310F08DF8824C236913B18048FFF740
:10586C00A9F907982061002855D003687D4A1B6B65
:10587C00934240F03881036D002B00F0CD80142151
:10588C00794815F09DF82369002B00F003811A6804
:10589C007649526B8A4240F03F81D3F85890B9F167
:1058AC00000F00F04581484617F07AFB0146484648
:1058BC0015F086F8624815F061FDD4F81090B9F136
:1058CC00000F00F01581D9F80030684A5B6B9342E9
:1058DC0040F02A81D9F85830002B00F043816449FC
:1058EC003246644816F062FD574BD3F884140029F5
:1058FC0000F0DC8000235F4A08A8089301230DF018
:10590C00D5FD002840F004811B215B4815F058F8A8
:10591C004B4815F033FD2B4632465549554816F089
:10592C0045FD1121554815F04BF8524817F038FB3E
:10593C000146504815F044F8414815F01FFD01236D
:10594C0008A84C4A4049FFF7A1F9236913B1444810
:10595C00FFF730F90C982061002835D003684149D5
:10596C001A6B8A422CD1026D002A51D0DB68444A52
:10597C00934240F0C480036D002B00F08F804246B0
:10598C00394618460EF00AFA2469B4B123683D4A28
:10599C00DB6A934240F0B780A06D18B116F012F894
:1059AC000023A365236D002B00F0A48004F11800E4
:1059BC000FF0DEFF2A48FFF7FDF81CB0BDE8F087BA
:1059CC009047002840F085801F212F4814F0F8FFE5
:1059DC00284817F0E5FA0146264814F0F1FF0D218E
:1059EC002A4814F0EDFF16481CB0BDE8F04715F03E
:1059FC00C5BC4FF47A731A4C04910593164B8DF871
:105A0C001810039323690791002B7FF427AF82E7CB
:105A1C00426D002AAAD1D7E7436D002B7FF42FAF3C
:105A2C0079E71B9B002B7FF4E5AE8DF818300793BC
:105A3C00CDE90434084B039308E700BF2809002084
:105A4C00484200203C4A0020C85900205D05000057
:105A5C00E4360020403700209436002038340020F3
:105A6C00204800202D01000034090020F90100001D
:105A7C00180D0020C8B20120200D00204C09002078
:105A8C009107000045010000500D0020700D002012
:105A9C00C03600201946DFF83C9108E7406D00281D
:105AAC0034D0424639460CF04DFA6DE7D3F88834C1
:105ABC00002B3FF429AF149108A81946444A01233E
:105ACC000BF0D4FC00283FF41FAF08A80BF070FEBD
:105ADC001AE7206900283FF470AF036846E70022FC
:105AEC0003A89847B7E6984700283FF414AFC6E6DA
:105AFC00384BF4E6636D002B7FF458AF5AE74246FF
:105B0C003946984740E72046984753E724693DE7D4
:105B1C0008A80EF0D1FDF7E6184690478146B9F17A
:105B2C00000F3FF4C7AEBEE6484698470346D6E69C
:105B3C004FF48070019315F03DFF019B0146986571
:105B4C00002841D080F80090186D00B34FF480729B
:105B5C000FF0BAFA019BD3F85890B9F1000F3FF44B
:105B6C00A9AEA0E64FF48070019315F023FF014617
:105B7C00C9F8580020B3019B0370D9F85000A8B1A4
:105B8C004FF480720FF0A0FAD9F85830A7E6586D90
:105B9C0028B14FF4807201930CF096FE019BD3F860
:105BAC005890B9F1000F3FF485AE7CE6D9F854005B
:105BBC0018B14FF480720CF087FED9F858308EE68D
:105BCC00054BC9F858308AE6034A91469A656AE64D
:105BDC00C8B20120CC3E0020D2B70320294B03448D
:105BEC0010B50446092B47D8DFE803F0191E23280B
:105BFC002D32373C41050621234814F0E1FE0121EA
:105C0C00224814F0DDFE214600231022204815F016
:105C1C00DFFB02211F48BDE8104014F0D1BE052166
:105C2C001D4814F0CDFEEAE706211C4814F0C8FE0E
:105C3C00E5E706211A4814F0C3FEE0E706211948EF
:105C4C0014F0BEFEDBE70721174814F0B9FED6E7C7
:105C5C000521164814F0B4FED1E70521144814F0C0
:105C6C00AFFECCE70721134814F0AAFEC7E70821C2
:105C7C00114814F0A5FEC2E70821104814F0A0FE4C
:105C8C00BDE700BFFC27FFFF38150020581500208A
:105C9C00484200205C150020F8140020001500205C
:105CAC0008150020101500201815002020150020C4
:105CBC002815002030150020401500204C15002020
:105CCC00FF2994460AD04B4B0344092B12D8DFE82A
:105CDC0003F0171C21262B30353A3F12454B034459
:105CEC0010B4092B47D8DFE803F08238494B4D58E4
:105CFC006470728070470A4660463F4916F056BB86
:105D0C000A4660463D4916F051BB0A4660463C497E
:105D1C0016F04CBB0A4660463A4916F047BB0A4699
:105D2C006046394916F042BB0A466046374916F0C0
:105D3C003DBB0A466046364916F038BB0A466046FB
:105D4C00344916F033BB0A466046334916F02EBB75
:105D5C000A466046314916F029BB314B07CBCCF8CB
:105D6C00000018889B78ACF80C00CCF80410CCF828
:105D7C0008208CF80E305DF8044B7047294BEDE78A
:105D8C00294BEBE7294C0FCCCCF80000CCF80410D5
:105D9C00CCF80820CCF80C30EDE7254B07CB1B8852
:105DAC00CCF80000CCF80410CCF80820ACF80C307F
:105DBC00E1E7204B07CB1B78CCF80000CCF80410A3
:105DCC00CCF808208CF80C30D5E71B4BC6E71B4CE5
:105DDC000FCCCCF800002078CCF80410CCF80820BC
:105DEC00CCF80C308CF81000C5E7154BB6E7154B0A
:105DFC00D4E700BFFC27FFFFB81900205C19002076
:105E0C004419002070190020A0190020E41900206A
:105E1C00D0190020301900201819002088190020F2
:105E2C0094180020B4180020D8180020081900205D
:105E3C00F81800208418002074180020C4180020C2
:105E4C00E8180020A418002070B5144696B00B4634
:105E5C00024668496848009416F0A8FA0023664A7E
:105E6C0002A866490FF09EFE149B002B6FD05C209D
:105E7C00002515F07BFB0399049A0446604B4560A2
:105E8C000360604BC0E903129DF8142006A98360DF
:105E9C00183000F8042C0FF029FD63685A4A06A844
:105EAC000133A565A260594D594A636002920FF007
:105EBC005FFD2B6913B12846FEF77CFE2368554A1B
:105ECC001B6B2C61934267D1236D002B4FD028693B
:105EDC000368514A9B6A934240F08280036D002B09
:105EEC0050D0D8692C691828024628BF18224B4B71
:105EFC004B4918600023C1E90033C1E90233C1E901
:105F0C0004330B7604B3236846489E68864261D1FD
:105F1C00206D002854D00DF01DFB2C69A4B1236812
:105F2C00DB6A414A934258D1A06D18B115F04AFD75
:105F3C000023A365236D002B48D004F118000FF04B
:105F4C0017FD3248FEF736FE354816B070BD159C6D
:105F5C00002C8CD12E4B06A82C4D02930FF008FD73
:105F6C002B693BB12846FEF725FE2C6102E0636DE0
:105F7C00002BACD12D4B2A4C0FCB07C428482370D7
:105F8C0016B070BD426D002A31D010692C691828EA
:105F9C00024628BF1822AAE7204698470028E9D0D5
:105FAC002869002894D11E491C4B08601860486170
:105FBC000876C1E90100C1E90300194816B070BDAB
:105FCC00606D0028ACD00AF0ADFEA6E7636D002B27
:105FDC00B3D1B6E72046B0479FE720469847B0E7D5
:105FEC009847182802462C6928BF18227FE72C698D
:105FFC0010467CE7A00D002088B20120CC5900206F
:10600C00E436002040370020C03600202048002015
:10601C00383400202D01000041050000E46D012002
:10602C00E4ED0020AD06000045010000AC0D0020A1
:10603C0038B50D46044619214C4814F0C1FC0A220F
:10604C00002329464A4815F0C3F9494815F096F93A
:10605C00E20712D4A3071CD4600726D4210730D43E
:10606C00E2063AD4A30644D460064ED4210658D492
:10607C00E20562D4A3056CD438BD4DF60B003D4A45
:10608C002946FFF71DFE29463B48FFF755FBA307A2
:10609C00E2D54DF60A00374A2946FFF711FE37487C
:1060AC002946FFF749FB6007D8D54DF60500314A64
:1060BC002946FFF705FE29463148FFF73DFB21072E
:1060CC00CED52C4A4DF604002946FFF7F9FD29469A
:1060DC002C48FFF731FBE206C4D54DF60600254AE5
:1060EC002946FFF7EDFD29462748FFF725FBA306B8
:1060FC00BAD54DF60C001F4A2946FFF7E1FD23489F
:10610C002946FFF719FB6006B0D54DF60700194A72
:10611C002946FFF7D5FD29461D48FFF70DFB210643
:10612C00A6D5144A4DF60D002946FFF7C9FD2946A0
:10613C001848FFF701FBE2059CD54DF609000D4A06
:10614C002946FFF7BDFD29461348FFF7F5FAA305CD
:10615C0092D529464DF60800064AFFF7B1FD2946AF
:10616C000E48BDE83840FFF7E7BA00BF60150020C5
:10617C0048420020006E01203814002040140020FA
:10618C00441400204C140020541400208C290020AE
:10619C00641400207C150020741400207C14002052
:1061AC002DE9F04304469DB00D46164600214FF4F0
:1061BC000042A94816F024FB0821A84814F000FC62
:1061CC0034B1204616F0ECFE0146204614F0F8FBE4
:1061DC00A34815F0D3F82246A24C0023A24908A8E4
:1061EC00FEF754FD236913B12046FEF7E3FC0C992E
:1061FC002161002900F0D6800A68D46B9B4A944236
:10620C004FF0000240F01B814FF47A74DFF8A88243
:10621C0018310CA809928DF82C200A94CDF8208006
:10622C00CDE91A220FF010FC1A9B002B00F0F38022
:10623C005C20002715F09AF9099B04464760C3605F
:10624C000CA90A9B183040F8083C9DF82C3000F83B
:10625C00043C874B40F8183C864B40F8103C0FF040
:10626C0045FB6368C4F808800133A7650497636035
:10627C004FF47A738DF8187005937F4B0794039342
:10628C007E4B0CA808930FF073FB7D4C236913B164
:10629C007B48FEF78FFC07982061002800F0908067
:1062AC00036878491A6B8A4240F0CC80026D002A50
:1062BC0000F0A6809B6A74498B4240F0B880D0698C
:1062CC00DFF8EC810621C8F80000704814F078FB68
:1062DC002769002F00F0AF803B686D4A5B6B9342DF
:1062EC0040F0F980D7F85890B9F1000F00F0068112
:1062FC00484616F055FE0146484614F061FB5848D6
:10630C0015F03CF80621634814F05AFB0A220023CE
:10631C00D8F80010524815F05BF8514815F02EF8DB
:10632C002769D8F80020002F00F083803B685A4979
:10633C00D3F80890894540F0DD80386D002800F0D6
:10634C00BD8045490DF006F92769002F71D03B68D7
:10635C005B6B4F4A934240F0C680BB6D002B00F044
:10636C00E4804E4A182108A815F0DCFF2469B4B16A
:10637C0023684B4ADB6A934240F0B980A06D18B198
:10638C0015F020FB0023A365236D002B00F09E80ED
:10639C0004F118000FF0ECFA3948FEF70BFCD8F8B2
:1063AC00004023E0344B4FF47A72354C039323694D
:1063BC0004918DF8181007910592002B7FF468AFAB
:1063CC003421384814F0FCFA254814F0D7FF002487
:1063DC00354B03F8014F0134B4F5006FF9D1182295
:1063EC00324908A816F0A4FA314B1C60182208A9EF
:1063FC002846346016F09CFA17481DB0BDE8F083AF
:10640C00426D002ADCD09B6A1F4A93420FD1436D28
:10641C00FBB1186954E71B9B002B7FF409AF8DF877
:10642C0018300793CDE90434134B039328E79847AE
:10643C0046E7204B95E73946DFF878905CE703A8F0
:10644C00A04722E790470028BAD02069002840F0E6
:10645C009680002034E700BFE4ED0020B00F002050
:10646C00484200203C4A0020C85900205D0500002D
:10647C00E4360020403700209436002038340020C9
:10648C00204800202D01000041050000E8090020F3
:10649C00F9010000F0090020AD060000981A002058
:1064AC0045010000BC0F0020E3ED0020F40F00209C
:1064BC00E46D0120CC3E0020C0360020786D002811
:1064CC003FF446AF35490AF02DFC3DE7636D002BD8
:1064DC007FF45EAF60E7384698478146B9F1000F0C
:1064EC003FF40DAF04E738469847034639E720469A
:1064FC00984751E738462949C84725E74FF480703B
:10650C0015F058FA0146B865002843D080F8009081
:10651C00386DE0B14FF480720EF0D6FDD7F858907C
:10652C00B9F1000F3FF4EBAEE2E64FF4807001934B
:10653C0015F040FA0146B865F0B1019B0370386D57
:10654C0090B14FF480720EF0BFFDBB6D09E7786D12
:10655C0018B14FF480720CF0B7F9D7F85890B9F124
:10656C00000F3FF4CCAEC3E6786D18B14FF48072D7
:10657C000CF0AAF9BB6DF4E6094BBB65F1E60368B8
:10658C00084A9B6A93427FF452AF026D002A3FF493
:10659C003EAF94E6024B9946BB65A9E6E4ED0020BC
:1065AC00D2B703204105000010B538B34FF0844337
:1065BC004FF4801201211A20C3F8882012F09CF9A4
:1065CC000121192012F098F901211B2012F094F9E5
:1065DC0001211C2012F090F901210A2012F08CF9F3
:1065EC0001210B2012F088F901210C2012F084F902
:1065FC0001211820BDE8104012F07EB904461A2083
:10660C00214612F079F92146192012F075F921462C
:10661C001B2012F071F921461C2012F06DF9214655
:10662C000A2012F069F921460B2012F065F9214677
:10663C000C2012F061F92146182012F05DF94FF090
:10664C0084434FF48012C3F8842010BD2DE9F84325
:10665C000446002800F0D1807B4B1B78FBB97B4BA8
:10666C004FF4807206207A4FC3F88820794E7A4D09
:10667C0012F030F998B179684FF4FA733268120C51
:10668C0003FB02F25208A5FB0232120A7B685B1A6A
:10669C009A42FBD8062012F01DF90028EBD10121FB
:1066AC00262012F029F94FF084464FF08053012137
:1066BC0025204FF40025C6F8843012F01DF9674BE5
:1066CC0001210F20C3F8845012F016F9C6F8885037
:1066DC004FF400130125C6F888302946212012F00A
:1066EC000BF9294622204FF0844612F005F9294671
:1066FC0023204FF4802712F0FFF829462420DFF8DE
:10670C00648112F0F9F8294620204FF4805912F0D8
:10671C00F3F829461F2012F0EFF82946272012F033
:10672C00EBF82946092012F0E7F82946082012F068
:10673C00E3F82946072012F0DFF829460E2012F064
:10674C00DBF82946042012F0D7F82946142012F061
:10675C00D3F829460220414D12F0CEF83B4B1021C4
:10676C004FF000520020C3F884104FF08061C6F83F
:10677C0084104021C3F884104FF40031C6F88470A3
:10678C00C5F884104FF48031C5F884104FF40061C3
:10679C00C5F884104FF48001C6F88420C8F8841022
:1067AC004FF08051C5F88490C5F88470C5F88410FA
:1067BC00C5F884208022C3F88420FFF7F5FE02235D
:1067CC00C6F884900121C5F8843004234FF00042B0
:1067DC00C5F884304FF40053C5F88410C8F88470A1
:1067EC00C6F88420C6F884304FF08043C6F8843055
:1067FC0014B31B4B1C70BDE8F8830146262012F025
:10680C007BF84FF084464FF08053214625204FF4FF
:10681C000025C6F8843012F06FF8104B21460F207B
:10682C00C3F8845012F068F84FF40013C6F888507F
:10683C002546C6F8843050E7052012F021F8084BA5
:10684C001C70BDE8F88300BF9D51002000C00042C1
:10685C00001000E044420020112397080040004241
:10686C0006B803200080004228B10A4A136853B1CD
:10687C00013313607047074B1868002801DD01389D
:10688C00186020B1704701201060FFF7DFBEFFF7E2
:10689C00DDBE00BFB86700208104634B4FF01002CF
:1068AC0060D5C104C3F884204FF084434FF080625C
:1068BC0060D50105C3F884205B4B4FF0400260D5D6
:1068CC004105C3F884204FF084434FF4802260D5F7
:1068DC008105C3F88420554B4FF4003260D5C105B7
:1068EC00C3F88420514B4FF4803260D50106C3F8B5
:1068FC0084204E4B4FF4006260D54106C3F88420CF
:10690C004FF084434FF0005260D58106C3F88420C9
:10691C00474B4FF4800260D5C106C3F88420434B2B
:10692C004FF4805260D50107C3F884203F4B4FF4DD
:10693C00802260D54107C3F884203C4B4FF0805235
:10694C0060D58107C3F88420384B4FF0005260D5D6
:10695C00C107C3F88420344B4FF0800260D5C3F8D4
:10696C0084207047C104C3F888204FF084434FF053
:10697C0080629ED40105C3F888202B4B4FF0400257
:10698C009ED44105C3F888204FF084434FF48022F5
:10699C009ED48105C3F88820244B4FF400329ED43A
:1069AC00C105C3F88820214B4FF480329ED40106D8
:1069BC00C3F888201D4B4FF400629ED44106C3F8E7
:1069CC0088204FF084434FF000529ED48106C3F8C8
:1069DC008820174B4FF480029ED4C106C3F8882040
:1069EC00124B4FF480529ED40107C3F888200F4BF2
:1069FC004FF480229ED44107C3F888200B4B4FF0F4
:106A0C0080529ED48107C3F88820084B4FF0005267
:106A1C009ED4C107C3F88820034B4FF080029ED44C
:106A2C00C3F88820704700BF00C0004200400042FD
:106A3C000080004201064FF084434FF4805236D55B
:106A4C004106C3F88420354B4FF0020236D581063F
:106A5C00C3F88420314B4FF0040236D5C106C3F87D
:106A6C0084202E4B4FF0010236D50107C3F8842049
:106A7C002B4B4FF4802236D54107C3F884204FF0BE
:106A8C0084434FF0004236D58107C3F884204FF081
:106A9C0084434FF4005236D5C107C3F884204FF01D
:106AAC0084434FF0804236D5C3F8842070474106AA
:106ABC00C3F88820194B4FF00202C8D48106C3F8E2
:106ACC008820164B4FF00402C8D4C106C3F88820A6
:106ADC00124B4FF00102C8D40107C3F88820104BA9
:106AEC004FF48022C8D44107C3F888204FF0844368
:106AFC004FF00042C8D48107C3F888204FF084437C
:106B0C004FF40052C8D4C107C3F888204FF0844317
:106B1C004FF08042C8D4C3F8882070470040004230
:106B2C00008000424FF08442194B90689B68C0F380
:106B3C0000309907164B4FEAC0109B6848BF40F0D5
:106B4C0040005A07124B9B6848BF40F02000DB07FF
:106B5C00104B9B6848BF40F0100059034FF0844322
:106B6C009B6848BF40F00800002B4FF084439B68A3
:106B7C00B8BF40F004009A044FF084439B6848BFB0
:106B8C0040F002005B0048BF40F00100704700BFBE
:106B9C000040004200800042F8B50D4614464FF00C
:106BAC008447FFF779FE4FF4002301201B4EC7F8F2
:106BBC008430FFF7F9FC2846FFF73CFF184D4FF0E7
:106BCC008053C7F888306A683168164B090C04FB8F
:106BDC0001F14908A3FB0131090A6B689B1A994220
:106BEC00FBD84FF084434FF080520020C3F8842030
:106BFC004FF40022C3F88820FFF7D6FC686833688E
:106C0C00084D1B0C064904FB03F25208A5FB02526B
:106C1C00120A4B681B1A9A42FBD8F8BD444200205A
:106C2C00001000E01123970808B54FF47A72FFF7B3
:106C3C00B3FFC820BDE8084011F0A4BD38B5FFF77C
