:0200000460009A
:100000004643464200000156000000000103030081
:1000100000000000000000000000000000000000E0
:1000200000000000000000000000000000000000D0
:1000300000000000000000000000000000000000C0
:1000400000000000010408000000000000000000A3
:100050000000800000000000000000000000000020
:100060000000000000000000000000000000000090
:100070000000000000000000000000000000000080
:10008000EB04180A063204260000000000000000FD
:10009000050404240000000000000000000000002F
:1000A0000000000000000000000000000000000050
:1000B0000604000000000000000000000000000036
:1000C0000000000000000000000000000000000030
:1000D00020041808000000000000000000000000DC
:1000E0000000000000000000000000000000000010
:1000F0000000000000000000000000000000000000
:10010000D8041808000000000000000000000000F3
:100110000204180804200000000000000000000095
:1001200000000000000000000000000000000000CF
:10013000600400000000000000000000000000005B
:1001400000000000000000000000000000000000AF
:10015000000000000000000000000000000000009F
:10016000000000000000000000000000000000008F
:10017000000000000000000000000000000000007F
:10018000000000000000000000000000000000006F
:10019000000000000000000000000000000000005F
:1001A000000000000000000000000000000000004F
:1001B000000000000000000000000000000000003F
:1001C000000100000010000001000000000000001D
:1001D000000001000000000000000000000000001E
:1001E000000000000000000000000000000000000F
:1001F00000000000000000000000000000000000FF
:10020000FFFFFFFFFFFFFFFFFFFFFFFFFFFFFFFFFE
:10021000FFFFFFFFFFFFFFFFFFFFFFFFFFFFFFFFEE
:10100000D100204325160060000000000000000011
:1010100020100060001000600084026000000000EA
:10102000000000600090020000000000FFFFFFFFD2
:10103000FFFFFFFFFFFFFFFFFFFFFFFFFFFFFFFFC0
:10104000FFFFFFFFFFFFFFFFFFFFFFFFFFFFFFFFB0
:10105000FFFFFFFFFFFFFFFFFFFFFFFFFFFFFFFFA0
:10106000FFFFFFFFFFFFFFFFFFFFFFFFFFFFFFFF90
:10140000884207D0904205D251F8043B40F8043B93
:101410008242F9D8704700BF884204D2002340F8C6
:10142000043B8142FBD870472DE9884800F0D0F991
:101430000824614B614AC3F8544161496148FFF790
:10144000DFFF614A61496248FFF7DAFF614962489C
:10145000FFF7E2FF614C4FF0E0214FF470000023F2
:101460005F4AC1F8880D44F823200133B02BFAD12C
:101470005C4B80215C4A03F8011B9342FBD14FF087
:10148000E0254D4E4FF08039DFF88CB1DFF88CA1AC
:101490004FF0FF31C5F8084D0027C6F80491C6F893
:1014A00000B1C6F8F490C6F8F0A0D5F8243DDFF8F6
:1014B000708143F4E0234D4AC5F8243DD8F81C3030
:1014C00023F07F0343F04003C8F81C30D8F82430E1
:1014D00023F07F0343F04003C8F824309166D166BF
:1014E0001167516700F07CF9414B4249A363424BBD
:1014F000E36363236B610323AF612B613F4BC5F84B
:10150000203DD5F8FC3D43F08073C5F8FC3D3C4BD5
:101510001A6842F001021A605B680B6000F09EFBE3
:10152000C6F804913748C6F800B1C6F8F490C6F87A
:10153000F0A000F03DFDD8F86C10334B334A41F475
:101540004051C8F86C101F60C3F80871C3F81871D7
:10155000C3F82871C3F83871936BDB0708D442F6DF
:1015600015632B4951651365936B43F00103936336
:10157000264A284C936843F00113936000F0ACF9BD
:1015800000F0D0FC00F000FD00F096FB00F00CFD38
:101590002368132BFCD900F027FC2368B3F5967F52
:1015A000FBD300F01BF900F017F900F00DFD00F07F
:1015B00003FD30BFFDE700BF00800D404801020081
:1015C0002C28006000000000C0560020782902602E
:1015D0000000002060B80320C05600200054002006
:1015E000857A010000E400E0A0E400E000C00A40C9
:1015F0007D63010014B403208163010000002020FA
:10160000001000E00046C3230040084000400D40A9
:101610000000C05618B403201B1018200C0D111325
:1016200000C00F40074B4FF42A01074A07485A648D
:101630001864074A99639546BFF34F8FBFF36F8FC6
:10164000FFF7F2FE00C00A40FFABAAAA0700200085
:101650000080052043690A4A03EB011010B4037AA5
:10166000084C02EB0313D3E901321460C2681A601C
:1016700003690BB142691A605DF8044B704700BF03
:10168000A83C002061F801004369027E03EB0212CE
:1016900092F808C08C451CD01A7AFF2A19D09142C2
:1016A00010B5044616D01A7EFF2A06D00121D3E9D0
:1016B000002312681A4201D1217610BD064B052283
:1016C000204603EB0C135B681A60FFF7C3FF21761B
:1016D000F3E770470021EAE7A83C002043690A4A83
:1016E00003EB011010B490F82830084C02EB031300
:1016F000D3E901321460C26A1A60036B0BB1426B0A
:101700001A605DF8044B7047A83C002061F80100A6
:101710004369427E03EB021292F828C08C451ED02A
:1017200093F82820FF2A1AD0914210B5044617D00A
:1017300093F83820FF2A06D00121D3E9002312684C
:101740001A4201D1617610BD064B0522204603EBFB
:101750000C135B681A60FFF7C1FF6176F3E770470F
:101760000021EAE7A83C0020164942698B6B23F46C
:101770007C0343F4802370B58B630446124DD2E999
:1017800000130A681A4303690A60022200211A61E1
:101790000E4A19619A6401225A629D624FF43035F3
:1017A000DD624FF001159E6C1E6519629D651A6120
:1017B000017EFFF74FFF617E2046BDE87040FFF7D6
:1017C0008DBF00BF00C00F40B80B05053B3728197F
:1017D000704700BF704700BF704700BF00BF704731
:1017E00010B44FF0E023002110242B48C3F8941DBF
:1017F000C3F89C4D1124C3F8A00D2848C3F89C4D94
:101800001224C3F8A00D2648C3F89C4D254AC3F8FE
:10181000A00D254C42F015022448C3F89C4DC3F896
:10182000A00D234C2348C3F89C4DC3F8A00D224CB7
:10183000C3F89C2D2148224AC3F8A04DC3F89C0D43
:10184000C3F8A02D02F5A0221E4C0C321E48C3F88E
:101850009C4DC3F8A02D1D4AC3F89C0D1C4CC3F829
:10186000A02D01221B48C3F89C4DC3F8A00DC3F85E
:10187000942DBFF34F8FBFF36F8FC3F8501FBFF38B
:101880004F8FBFF36F8FD3F8142D5DF8044B42F4E4
:101890004032C3F8142D70473F00001025000803A4
:1018A0000900100060B80320130020002100020787
:1018B0001400002025000813090000101600202045
:1018C00027000B1317000040180000602F000B07C3
:1018D000190000702F000B13F0B5B84B1822B84E4A
:1018E0000120B84F83B0C3F85C62B749C3F8607297
:1018F000B64DC3F86462A6F53046B54CC3F86862CD
:10190000C3F86C52C3F87052C3F87452C3F87852DB
:1019100048F20C75DA661A675A679A67DA67C3F88D
:101920008020C3F88420C3F88820C1F82C03A94A7A
:10193000C1F83003C1F83403C1F83803C1F83C03DF
:10194000C1F85003A169A44B0A40A448A449134319
:10195000A44AA361D4F8843043F00C03C4F8843063
:101960004FF0FF34036843F00203036003682B4029
:101970004FF400551A439C4B026044608A689B4CAC
:1019800013409B4A43F000538360C36823F07803FD
:10199000C360036A134023430362036A1340954AFA
:1019A0002343954C43628262C2620022D1F8B83070
:1019B00023F03F0343F00103C0F8B830D1F8BC3046
:1019C0008E4923F03F0343F00103C0F8BC3040F2DE
:1019D0000563026105660467C0F8803045664467A8
:1019E0000224C0F88430036823F00203036081619D
:1019F000834B8449C46143F8042B8B42FBD1774A63
:101A0000136843F001031360136813F00103FBD163
:101A10007A48022140F2F564906140F29940D16128
:101A200040F26641C2F8004242F20144C2F810128C
:101A30007549C2F82002C2F8301240F235417348AD
:101A4000C2F83442C2F84012714CC2F8500242F25D
:101A500001207049C2F854120121C2F86042C2F854
:101A600064025E48C2F8A030C2F8A430C2F8B010D8
:101A70004369DA07FCD5012300244FF4803257492B
:101A80004361C0F8A040C0F8A420C0F8B0304B6952
:101A9000DB07FCD5012300244FF400304F4A4B6193
:101AA000C1F8A040C1F8A400C1F8B0305369DF0705
:101AB000FCD501230024584848495361C2F8A0408E
:101AC000C2F8A400C2F8B0304B69DE07FCD5D1F8EB
:101AD000003145F60D5221209BB24861934265D1F9
:101AE00000244FF4802201233C48C1F8A040C1F8F3
:101AF000A420C1F8B0304369DD07FCD501234FF4C1
:101B000000040021354A4361C0F8A040C0F8A41089
:101B1000C0F8B0305369DC07FCD501234FF4000452
:101B20004FF480302D495361C2F8A040C2F8A400A0
:101B3000C2F8B0304B69D807FCD501234FF400043C
:101B40004FF40030254A4B61C1F8A040C1F8A40011
:101B5000C1F8B0305369D907FCD501234FF4000414
:101B60002D481E495361C2F8A040C2F8A400C2F833
:101B7000B0304B69DA07FCD5D1F8003145F60D528B
:101B800021209BB24861934250D008254FF40004B5
:101B900022490020224B234A009015705A1A012333
:101BA0002148224400F0FCF903B0F0BD1E4B002296
:101BB000C3E90022C3E9022203B0F0BD00801F4048
:101BC000F9B00100F910010000841F40F970010014
:101BD00000C00F40FFFCFF1F000300A000402A4090
:101BE00000802A401200FFFFFF37F700400000800E
:101BF00000FFF07CFF000F8363000200F05AF05AF0
:101C000000422A4000432A409F041830EB06180A7D
:101C10003806180A0632012604000300000000708E
:101C200000000070EFB70320CCED00204FF400045B
:101C30004FF4802201230848C1F8A040C1F8A42035
:101C4000C1F8B0304369DB07FCD5012310254FF004
:101C5000807443619CE700BF00402A40F0B4154AFD
:101C600040274FF480314FF480564FF400554FF425
:101C7000404443F24200136913F0020F0ED113F4F3
:101C8000005F0FD013F4805F0ED0002BF3DA13F453
:101C9000803F0BD15B060BD5F0BC7047946151615E
:101CA0009061E8E75561E6E75661E4E79161E2E7B4
:101CB0005761E0E700800D403F4A03203F49F3EEC3
:101CC000095AD2F880304FF0000C9FED3D6A23F0A6
:101CD00001039FED3C5A30B4C2F88030C2F8900046
:101CE000D1F8E010384DCBB2384C39482B6007EEB4
:101CF000903A0B0DC1F30B21F8EEE77A06EE903A1D
:101D000007EE101A334BB8EEC77A2160F8EEE66A98
:101D1000314937EEC66A37EEC55A76EEC76A77EEB6
:101D2000E57A26EE266AC3ED006A25EE265AD2F839
:101D3000803067EEA64AC0ED007AC6EE275A2748E3
:101D400085EE276AC4EEA76A75EE875AFCEEE55A5F
:101D500036EE076A15EE904ABCEEC66A43EA0453B3
:101D600076EE877AC2F8803016EE103AD2F89041BB
:101D7000FCEEE77A01EA0341214317EE903AC2F8FC
:101D80009011C3F30B03D2F890110B431449C2F81E
:101D90009031D2F8803043F00203C2F88030114B0A
:101DA00080F840C0C1F840314FF0E023012230BC40
:101DB000C3F80821704700BF00810D4000441F4058
:101DC0000000AA420000B442D0B10120CCB10120F1
:101DD000D4B10120D8B101200000FF0F00E400E0E1
:101DE00000540020657C0100314B40F6617210B553
:101DF000C3F8202140F2044400F0CEF82D4A2E49C9
:101E0000D2F880302D4843F00303C2F880302C4BC9
:101E1000C1F8604102681A4203D1D1F8A8319A078B
:101E20001BD0254A4FF00041244B5963D2F8403172
:101E300043F00203C2F84031D2F840319B07FBD493
:101E40004FF400304FF0E0211C4B4FF00042C1F83E
:101E50008C0219209A6300F0B3F8184A4FF08040C2
:101E6000154C002190630A20164B11604FF420722C
:101E7000C4F8A801184600F08BF84FF4800203461E
:101E80004FF4810040F243111860C4F858311A64CD
:101E90000D4B0E4AC4F84811C3F804224FF0E0225B
:101EA0004FF400310123C2F80C11C4F8403110BDC9
:101EB00000800D4000C00F4000002E4000900D40FB
:101EC000001C1E000000002000540020857E010040
:101ED00008B50E4B1B6E9B0700D4FBBE72B60C4BB5
:101EE00000200C4AC3F8400103F160430A49A3F5FE
:101EF0005F2311649D46BFF34F8F4FF400130748D3
:101F0000074ADB6902609B68984700BF00441F4096
:101F100000002E4000C00A40030020000080202066
:101F2000000012EB104BA020104AD96E41F4403152
:101F300010B4D96640F23764D96E41F44071D96665
:101F400054649064936C1B06FCD4094A40F23761D8
:101F5000A02351649364936C13F08003FBD1054A72
:101F600013705DF8044B704700C00F4000400C40F8
:101F700000800C40DDB70320F8B500BFF8BC08BCFA
:101F80009E467047000000005FF800F0697901008C
:101F90005FF800F055A701005FF800F0C18501006F
:101FA0005FF800F0019801005FF800F0156500008F
:101FB0005FF800F0556D01005FF800F03D7701001B
:101FC0005FF800F0457001005FF800F0D9AD010046
:101FD00001010000E17700000DC2000019E30000DC
:081FE0009DEA0000116A0100F6
:101FE80000000000000000000000000000000000E9
:101FF80000000000000000000000000000000000D9
:1020080000000000000000000000000000000000C8
:1020180000000000000000000000000000000000B8
:1020280000000000000000000000000000000000A8
:102038000000000000000000000000000000000098
:102048000000000000000000000000000000000088
:102058000000000000000000000000000000000078
:102068000000000000000000000000000000000068
:102078000000000000000000000000000000000058
:102088000000000000000000000000000000000048
:102098000000000000000000000000000000000038
:1020A8000000000000000000000000000000000028
:1020B8000000000000000000000000000000000018
:1020C8000000000000000000000000000000000008
:1020D80000000000000000000000000000000000F8
:1020E80000000000000000000000000000000000E8
:1020F80000000000000000000000000000000000D8
:1021080000000000000000000000000000000000C7
:1021180000000000000000000000000000000000B7
:1021280000000000000000000000000000000000A7
:102138000000000000000000000000000000000097
:102148003F000000000000000000000000001FFC2D
:102158003F000000000000000000000000007FFCBD
:102168003F00000000000000000000000000FFFC2D
:102178003F00000000000000000000000001FFFC1C
:102188003F00000000000000000000000003FFFC0A
:102198003F00000000000000000000000007FFFCF6
:1021A8003F3F007E3F3FC0FF001FFF80000FF9FC4C
:1021B8003F3F007E3F7FF3FFC07FFFE0001FE1FC51
:1021C8003F3F007E3FFFFFFFE0FFFFE0000FC1FC45
:1021D8003F3F007E3FFFFFFFE1FFFFF0000781FC6C
:1021E8003F3F007E3FC1FF07F1F807F0000301FC05
:1021F8003F3F007E3F80FE03F00003F0000001FC3B
:102208003F3F007E3F00FC03F03FFBF1FFF801FC7D
:102218003F3F007E3F00FC03F0FFFFF1FFF801FCA9
:102228003F3F007E3F00FC03F0FFFFF1FFF801FC99
:102238003F3F007E3F00FC03F1FC03F1FFF801FC87
:102248003F3F00FE3F00FC03F1F803F0000001FCF3
:102258003F3F81FE3F00FC03F1F807F0000001FC5E
:102268003F1FFFFE3F00FC03F1FFFFF0000001FCF1
:102278003F1FFFFE3F00FC03F1FFFFF0000001FCE1
:102288003F0FFF7E3F00FC03F0FFFBF0000001FC66
:102298003F03FE7E3F00FC03F07FF3F0000001FCEB
:1022A8000000000000000000000000000000000026
:1022B8000000000000000000000000000000000016
:1022C8000000000000000000000000000000000006
:1022D80000000000000000000000000000000000F6
:1022E80000000000000000000000000000000000E6
:1022F80000000000000000000000000000000000D6
:1023080000000000000000000000000000000000C5
:1023180000000000000000000000000000000000B5
:1023280000000000000000000000000000000000A5
:102338000000000000000000000000000000000095
:102348000000000000000000000000000000000085
:102358000000000000000000000000000000000075
:102368000000000000000000000000000000000065
:102378000000000000000000000000000000000055
:102388000000000000000000000000000000000045
:102398000000000000000000000000000000000035
:1023A8000000000000000000000000000000000025
:1023B8000000000000000000000000000000000015
:1023C8000000000000000000000000000000000005
:1023D80000000000000000000000000000000000F5
:1023E80070C00F40C0000000120000001300000081
:1023F800D0841F4001000000FF000000FF00000023
:10240800000000000000000013000000130000009E
:10241800CC841F4001000000FF000000FF00000006
:1024280000000000000000001C00000071C1000056
:1024380070C00F40000C00001100000011000000E7
:10244800E0841F40020000002C0000001200000081
:10245800E0841F400100000010000000110000008F
:10246800DC841F40020000002D0000001200000064
:10247800DC841F40010000001E0000007DC1000038
:1024880080C00F4000000003190000001000000089
:10249800E8841F4001000000FF000000FF0000006A
:1024A80000000000000000001800000010000000FC
:1024B800E4841F4001000000FF000000FF0000004E
:1024C80000000000000000001F00000089C100009B
:1024D8000000600000000000000000000000000094
:1024E80000E0000000000000000000000000000103
:1024F800E00000000000000000000000000001F003
:102508000000000000000000000000000003F000D0
:1025180000000000000000000000000007F00000BC
:10252800000000000000000000000007F8000000A4
:10253800000000000000000000000FF80000000389
:10254800C0007E000001E0007F0FF800000003C01B
:1025580000FE000001E000FFEFF800000003C000EB
:10256800FE000001E000FFFFF800000003C000F0DB
:102578000000000F007FFE7FC0000003C000F000D5
:1025880000000F003FFE7FF83FF1FBCFFCFEF3BCDD
:102598003DEFE01FFE7FFF7FFBFFDFFEFEFFBC3D40
:1025A800EFE01FC6FFFF7FFBFFDFFEFEFFBC3DEF36
:1025B800E00FE3C7FE787BC3DE1EF0FFBC3DEF00F3
:1025C80007FF87FC787BC3DE1EF0F83C3DEF000177
:1025D800FFFFF0007BC3C01EF0F03C3DEF0001F3AD
:1025E8007FE03FFBC3CFFEF0F03C3DEF0003E33F4D
:1025F800807FFBC3DFFEF0F03C3DEF0007E73C00C7
:10260800787BC3DE1EF0F03C3DEF0007FFBE00788C
:102618007BC3DE1EF0F03C3DEF0007FFFE00787B39
:10262800C3DE1EF0F03C3DEF000FFFFE007FFBFF16
:10263800DFFEF0F03FFDEFE00FFFFF007FFBFFDF65
:10264800FEF0F03FFDEFE00FF9FF003E79F9CF9E75
:10265800F0F01F3DE7E01FF1FF0000000000000060
:1026680000000000001F80FF007FFFFFFFFFFFFF4B
:10267800FFFFFFE01C007F007FFFFFFFFEB46D88B7
:102688008D18E000001F007FFFFFFFFE95AD7DB5B0
:1026980077E000000F007FFFFFFFFEA5AD9D8D19BD
:1026A800E0000006007FFFFFFFFEB5ADEDB57EE060
:1026B8000000000118035400650065006E007300F7
:1026C800790020004D0049004400490018035400D7
:1026D800650065006E00730079006400750069008C
:1026E8006E006F000403090409029500030100C08D
:1026F80032080B0002020201000904000001020274
:10270800010005240010010524010101042402062A
:1027180005240600010705820310001009040100C2
:10272800020A0000000705030240000007058302B3
:102738004000000904020002010300000724010010
:1027480001250006240201010006240202020009F4
:102758002403010301020100092403020401010109
:1027680000090504024000000000052501010109D7
:102778000584024000000000052501010300000057
:1027880009029500030100C032080B000202020191
:1027980000090400000102020100052400100105DF
:1027A800240101010424020605240600010705820C
:1027B8000310000509040100020A000000070503D0
:1027C8000200020007058302000200090402000259
:1027D800010300000724010001250006240201016D
:1027E8000006240202020009240301030102010079
:1027F8000924030204010101000905040200020082
:1028080000000525010101090584020002000000FD
:1028180005250101030000000A060002EF0201403D
:0428280001000000AB
:10282C00000000000000000000000000000000009C
:10283C00000000000000000000000000000000008C
:10284C00F8B54FF084439D695A6915400DD0244F5B
:10285C0001269D6195FAA5F4B4FA84F457F8243056
:10286C0006FA04F49847A543F4D11E4B9D695A69A6
:10287C0015400DD01C4F01269D6195FAA5F4B4FAB4
:10288C0084F457F8243006FA04F49847A543F4D19D
:10289C00164B9D695A6915400DD0154F01269D6147
:1028AC0095FAA5F4B4FA84F457F8243006FA04F433
:1028BC009847A543F4D10F4B9D695A6915400DD02B
:1028CC000D4F01269D6195FAA5F4B4FA84F457F8DE
:1028DC00243006FA04F49847A543F4D1F8BD00BFA0
:1028EC002C4A002000400042AC4A002000800042EC
:1028FC002C4B002000C00042AC4B00200548064B7E
:10290C001B1AD90F01EBA301491002D0034B03B1E1
:10291C0018477047C0560020C05600200000000029
:10292C0008B5054B1BB105490548AFF30080BDE860
:10293C000840FFF7E3BF00BF000000004870012013
:10294C000090026000207047704700BF036D0BB110
:10295C0001207047406D003818BF0120704700BF40
:10296C00704700BF10B50446806D18B119F0E4FB38
:10297C000023A365236D2BB104F11800BDE81040B2
:10298C0013F0B0BB636D002BF6D110BD08B517204A
:10299C0017F010F860B9084A13680133012B08DDF1
:1029AC00064B012110601970054A064B12681A601B
:1029BC0008BD1360F8E700BF086F01200BB80320B7
:1029CC0018B4032078B20120054B1B78DB0706D521
:1029DC00044A01200449054B126808701A607047BC
:1029EC00FBB7032018B40320E3B7032080B2012007
:1029FC00054B1B789B0706D5044A01200449054B5F
:102A0C00126808701A607047FBB7032018B40320D3
:102A1C00E5B7032088B2012010B50446806D00B1E3
:102A2C0010BD4FF4807019F07FFBA065B0B100228F
:102A3C00236D02703BB101464FF48072184612F0C0
:102A4C00FDFEA06D10BD636D002BE9D001464FF467
:102A5C008072184610F0F2FAA06D10BD014B1846AA
:102A6C00A36510BDDAB7032038B5056D6DB10BB198
:102A7C00002038BD1146284611F06EFB0028F7D017
:102A8C002846BDE8384011F009BD446D002CEFD04C
:102A9C0020460EF0E7FD0028EAD02046BDE838407D
:102AAC000FF098BD8A79A2F150031B0622D402F2D2
:102ABC006C72F0B54B7985B0046D01330D798E785D
:102ACC004F78DBB209784CB1204601960095CDE9E0
:102ADC000271022111F076FC05B0F0BD406D0028AA
:102AEC00FAD001960095CDE9027102210FF0B6FCE7
:102AFC0005B0F0BD00207047036D10B50C4682B0D8
:102B0C002BB30DF1060201A9184610F0CBFE38B319
:102B1C00BDF80430BDF8062053EA020120D0C2F300
:102B2C00451C02F01F00D20AC3F34311400084F885
:102B3C0001C0A2705A0A013903F01F0302F5EA62C0
:102B4C002070012061712371A27102B010BD406D23
:102B5C0030B10DF1060201A90EF02AFC0028D7D1E4
:102B6C00002002B010BD00BF036D10B50C4682B042
:102B7C002BB30DF1060201A9184610F083FE38B3F1
:102B8C00BDF80430BDF8062053EA020120D0C2F390
:102B9C00451C02F01F00D20AC3F34311400084F815
:102BAC0001C0A2705A0A013903F01F0302F5EA6250
:102BBC002070012061712371A27102B010BD406DB3
:102BCC0030B10DF1060201A90EF0E0FB0028D7D1BF
:102BDC00002002B010BD00BF30B5D0F880448FB0DB
:102BEC0013464CB100250A46684604F589610095E8
:102BFC0010F01EFF0FB030BDD0F884040028F9D0BF
:102C0C000A4600F5896168460C940FF0BBFB0FB0C7
:102C1C0030BD00BF10B5044600230A2216F0E4FBB9
:102C2C002046BDE8104016F0B5BB00BF69B170B5C9
:102C3C00054608460C461AF073FD2B6802462146E1
:102C4C0028465B68BDE8704018477047006990B132
:102C5C000368154A1B69934225D1036D63B118783B
:102C6C0010F0080007D0D8695B69C01A48BF6FF034
:102C7C000040704718467047436D002BFAD093F80C
:102C8C00310010F00800F6D0186919685A69401A1A
:102C9C005B6862EB0303B0F1004F73F10003EAD3FE
:102CAC006FF00040704718473D080000036963B19E
:102CBC001A68074992698A4208D1186D08B111F057
:102CCC007BBB586D08B10FF053BA704718461047CC
:102CDC000D07000000B5006983B08DF8071060B1D6
:102CEC000368104ADB68934215D1036D43B101228E
:102CFC000DF10701184611F00BFC03B05DF804FB55
:102D0C00406D0028F9D001220DF107010FF0D4FC21
:102D1C0003B05DF804FB01220DF10701984703B0E5
:102D2C005DF804FBA1070000036973B11A68084938
:102D3C0052698A4207D1186D08B111F099B8586DD3
:102D4C0018B10EF079BC184610474FF0FF307047A1
:102D5C001D060000036D13B1586900217047436DC7
:102D6C0013B1D3E90001704718461946704700BFEC
:102D7C00036D13B1D86900217047436D13B1D3E9CA
:102D8C000401704718461946704700BFF0B595B05E
:102D9C0000224FF47A74244F1831054604A88DF89C
:102DAC000C200097CDE90124CDE9122213F006FA8C
:102DBC00129B002B2DD05C20002617F071F9019B83
:102DCC0004464660C36004A9029B183040F8083CD6
:102DDC009DF80C3000F8043C144B40F8183C144B94
:102DEC0040F8103C13F03CF9124B4FF47A72A76088
:102DFC002B606368A66501336E602E73AA602C612C
:102E0C0063600D4B04A8009313F06CF9284615B0C1
:102E1C00F0BD139B002BCED1064A2B732A602B617D
:102E2C00C5E90134EDE700BF94380020B838002024
:102E3C0014390020683800200C360020036D13B1C3
:102E4C00184611F015B8406D08B10EF0F5BB4FF0F7
:102E5C00FF307047836C13B1184611F009B8C06C81
:102E6C0008B10EF0E9BB4FF0FF307047036D33B182
:102E7C001B7813F0700F14BF012000207047406DB9
:102E8C0030B190F8313013F0500F14BF01200020F6
:102E9C00704700BF10B50446006D80B1037813F085
:102EAC00700F00D110BD002111F056F9606D002893
:102EBC00F8D000220023BDE810400EF0D3BB606DAB
:102ECC000028EFD090F8313013F0500FEAD00022E8
:102EDC000023BDE810400EF0C5BB00BF036D13B15D
:102EEC00184610F0F1BE406D08B10EF0D5BA4FF097
:102EFC00FF307047836C00B583B063B101220DF1D4
:102F0C000701184610F0E0FE01280CD19DF80700CF
:102F1C0003B05DF804FBC06C28B101220DF1070170
:102F2C000EF0BAFAF0E74FF0FF30F1E7036D13B192
:102F3C00184611F041BA406D08B10FF019B970473D
:102F4C00836C13B1184611F037BAC06C08B10FF08E
:102F5C000FB97047036923B31968134A10B58C680D
:102F6C0082B0944214D1186D48B101220DF10701C1
:102F7C0010F0AAFE90B19DF8070002B010BD586D7C
:102F8C000028F8D001220DF107010EF085FAF1E7C7
:102F9C0001220DF107011846A047EBE74FF0FF3077
:102FAC00EBE74FF0FF307047BD060000836C13B1A8
:102FBC00184611F0ADBAC06C08B10FF07DBB70476C
:102FCC00036D13B1184611F0A3BA406D08B10FF0A0
:102FDC0073BB704700B5836C83B08DF8071043B199
:102FEC0001220DF10701184611F092FA03B05DF8B9
:102FFC0004FBC06C0028F9D001220DF107010FF081
:10300C005BFB03B05DF804FB8A79A2F150031B064D
:10301C0022D402F26C72F0B54B7985B0046D013399
:10302C000D798E784F78DBB209784CB12046019639
:10303C000095CDE90271042111F0C4F905B0F0BD81
:10304C00406D0028FAD001960095CDE9027104215B
:10305C000FF004FA05B0F0BD00207047036D53B1BA
:10306C00187810F008000DD0D8695B69C01A48BFF9
:10307C006FF000407047436DA3B193F8310010F02E
:10308C00080000D17047186919685A69401A5B68C2
:10309C0062EB0303B0F1004F73F10003F2D36FF056
:1030AC00004070471846EDE7836C53B1187810F068
:1030BC0008000DD0D8695B69C01A48BF6FF000409A
:1030CC007047C36CA3B193F8310010F0080000D125
:1030DC007047186919685A69401A5B6862EB0303F8
:1030EC00B0F1004F73F10003F2D36FF00040704762
:1030FC001846EDE70369D3B10E4810B41C68E468B8
:10310C0084420FD1186D18B15DF8044B11F000BA60
:10311C00586D18B15DF8044B0FF0CEBA00205DF875
:10312C00044B7047184623465DF8044B18470020A3
:10313C00704700BFA107000048B10368174A5B6BDA
:10314C00934210B5044616D1806D10B110BD1448D1
:10315C0070474FF4807018F0E7FFA065C8B10022EB
:10316C00236D027053B101464FF48072184612F071
:10317C0065FBA06D10BDBDE810401847636D002BBA
:10318C00E4D001464FF4807218460FF057FFA06D43
:10319C0010BD044B1846A36510BD00BFF90100001B
:1031AC00A0400020DAB7032038B504460C4B806DE4
:1031BC00236018B118F0C0FF0023A365236D04F140
:1031CC0018054BB1284612F08DFF064B2846A3601C
:1031DC0012F088FF204638BD636D002BF2D1F4E766
:1031EC00B83800200C36002038B504460E4B806DE4
:1031FC00236018B118F0A0FF0023A365236D04F120
:10320C0018056BB1284612F06DFF084B2846A360D9
:10321C0012F068FF20465C2116F044FF204638BDB2
:10322C00636D002BEED1F0E7B83800200C3600208F
:10323C0030B4029C11469C4634B1012C1CD0022C9B
:10324C000ED0002030BC7047056DF5B14FF0FF3348
:10325C00934274EB0C04F4D3284630BC10F07CBFC2
:10326C00026D0AB3D36959184CF10003002BE8D155
:10327C00104630BC10F070BF026D62B15369591822
:10328C004CF10003002BDCD1F2E7406D0028D8D0C4
:10329C0030BC0EF0E7B9406D0028D2D0D0E9002345
:1032AC008A184CEB0303F3E7406D0028C9D0D0E932
:1032BC00042330BC8A184CEB03030EF0D3B900BFC7
:1032CC0038B5044649B108460D461AF029FA236868
:1032DC00024629465B68204698472046BDE83840A0
:1032EC0016F058B870B5244B044605690360002DE0
:1032FC0032D06E68013E6E6076BB2B681F4ADB6A6B
:10330C0093422FD1A86D10B118F016FFAE652B6D3E
:10331C0023B305F1180012F0E5FE2569E5B12B6821
:10332C00174A5B68934224D1164BA86D2B6018B1D9
:10333C0018F002FF0023AB652B6D05F11806A3B145
:10334C00304612F0CFFE104B3046AB6012F0CAFE86
:10335C005C21284616F0A6FE204670BD6B6D002B36
:10336C00D7D1DAE728469847D7E76B6D002BE7D122
:10337C00E9E728469847EFE7683800204501000048
:10338C00C9090000B83800200C36002070B5264B57
:10339C00044605690360002D32D06E68013E6E60F4
:1033AC0076BB2B68214ADB6A934233D1A86D10B1EE
:1033BC0018F0C2FEAE652B6D43B305F1180012F088
:1033CC0091FE2569E5B12B68194A5B68934228D1B7
:1033DC00184BA86D2B6018B118F0AEFE0023AB652E
:1033EC002B6D05F11806C3B1304612F07BFE124B63
:1033FC003046AB6012F076FE5C21284616F052FE89
:10340C002046142116F04EFE204670BD6B6D002B2D
:10341C00D3D1D6E728469847D3E76B6D002BE3D181
:10342C00E5E728469847EBE768380020450100009F
:10343C00C9090000B83800200C36002008B518F077
:10344C0067FC10B908BD18F0A7FC18F061FC002847
:10345C00F9D1012008BD00BF38B50446094D112132
:10346C00094818F0BFFC214600230A22284615F013
:10347C00BBFF284615F08EFF21460020BDE83840E2
:10348C0016F044BC40440020F81A002010B500206F
:10349C0016F02CFB04461121114818F0A3FC002354
:1034AC000A2221460F4815F09FFF0E4815F072FFB7
:1034BC00022C01D8204610BD11210B4818F092FCAB
:1034CC0000230A2207481C46194615F08DFF0548B3
:1034DC0015F060FF2046214616F018FC204610BD62
:1034EC00E41A002040440020F81A002038B50446A5
:1034FC00094D1B21094818F075FC214600230A22AE
:10350C00284615F071FF284615F044FF214601208E
:10351C00BDE8384016F0FABB404400204429002096
:10352C0038B50446094D1D21094818F05BFC2146AD
:10353C0000230A22284615F057FF284615F02AFFCB
:10354C0021460220BDE8384016F0E0BB4044002084
:10355C00BC27002070B514460D461E460246234675
:10356C000549064815F032FF44EA06012846BDE835
:10357C00704016F0CBBB00BFA426002040440020B6
:10358C0030B5032083B016F0B1FA0446164D14F092
:10359C00010F1649164824F0F00308BF294614F011
:1035AC00020F144A08BF2846009113490190134892
:1035BC0015F00CFF04F0F003A02B03D104F00F0066
:1035CC0003B030BD0E490D4815F000FF0323094A26
:1035DC000C490A4815F0FAFEA321032016F096FBBD
:1035EC00032003B030BD00BF0414002014260020BB
:1035FC00E8400020D02900201C2600204044002058
:10360C0094290020A426002030B5042083B016F0A5
:10361C006DFA0446164D14F0010F1649164824F0A5
:10362C00F00308BF294614F0020F144A08BF2846BD
:10363C00009113490190134815F0C8FE04F0F003F3
:10364C00A02B03D104F00F0003B030BD0E490D4880
:10365C0015F0BCFE0323094A0C490A4815F0B6FEC6
:10366C00A321042016F052FB032003B030BD00BF91
:10367C000414002014260020E840002060290020BB
:10368C001C2600204044002094290020A426002061
:10369C0030B5052083B016F029FA0446164D14F007
:1036AC00010F1649164824F0F00308BF294614F000
:1036BC00020F144A08BF2846009113490190134881
:1036CC0015F084FE04F0F003A02B03D104F00F00DE
:1036DC0003B030BD0E490D4815F078FE0323094A9E
:1036EC000C490A4815F072FEA321052016F00EFBBA
:1036FC00032003B030BD00BF0414002014260020AA
:10370C00E8400020E82900201C260020404400202E
:10371C0094290020A426002030B5062083B016F092
:10372C00E5F90446164D14F0010F1649164824F01D
:10373C00F00308BF294614F0020F144A08BF2846AC
:10374C00009113490190134815F040FE04F0F0036A
:10375C00A02B03D104F00F0003B030BD0E490D486F
:10376C0015F034FE0223094A0C490A4815F02EFEC6
:10377C00A221062016F0CAFA022003B030BD00BF09
:10378C000414002014260020E8400020B829002052
:10379C001C2600204044002078290020A42600206C
:1037AC0030B5072083B016F0A1F90446164D14F07D
:1037BC00010F1649164824F0F00308BF294614F0EF
:1037CC00020F144A08BF2846009113490190134870
:1037DC0015F0FCFD04F0F003A02B03D104F00F0056
:1037EC0003B030BD0E490D4815F0F0FD0223094A17
:1037FC000C490A4815F0EAFDA221072016F086FABA
:10380C00022003B030BD00BF041400201426002099
:10381C00E8400020C82800201C260020404400203E
:10382C0078290020A426002010B550B10B490C4A71
:10383C000C4815F0CBFD01210820BDE8104016F016
:10384C0065BA04460549084A064815F0BFFD2146ED
:10385C000820BDE8104016F059BA00BF48280020D7
:10386C0074150020404400204428002010B550B1AD
:10387C000B490C4A0C4815F0A9FD01210920BDE8A3
:10388C00104016F043BA04460549084A064815F09C
:10389C009DFD21460920BDE8104016F037BA00BF47
:1038AC00A0280020C028002040440020942800209C
:1038BC0070B505460C490D482A4605F108062C46FC
:1038CC0015F084FD14F8011B04F2FF10401B16F0D8
:1038DC001DFAA642F6D10521054818F083FA0348D3
:1038EC00BDE8704015F056BDDC2700204044002098
:1038FC0004280020F8B5074640F2012524210C4885
:10390C007C1EFE1DED1B18F06DFA281916F0EEF852
:10391C0004F8010FB442F8D10023052105483B728D
:10392C0018F060FA0448BDE8F84015F033BD00BF4C
:10393C00642700200428002040440020012810B5F2
:10394C0004460BD0022816D090B11A210B4818F05F
:10395C0049FA0B48BDE8104015F01CBD0B21094875
:10396C0018F040FA064815F015FD074B1C6010BD09
:10397C000D210648F4E70C210548F1E7B80C0020AE
:10398C00404400209C0C00200C4A00208C0C002091
:10399C00A80C0020194B2DE9F041194E0446DFF814
:1039AC0068801F68174D04F00F03092B1BD0082BE0
:1039BC0004F0F00220D80134E4B257B9992CF2D8B3
:1039CC00414655F8240019F04FFC0028EBD0204656
:1039DC0010E0032CE7D8414656F8240019F044FCBB
:1039EC000028E0D0F3E704F0F0041034E4B2902C9B
:1039FC00E3D90020BDE8F0811446DEE7286F0120F2
:103A0C00D8050020700300204C09002000F00F03A3
:103A1C00092B16D0082B00F0F0020DD90023110948
:103A2C000C4801EB8101007803EB4103DBB29842B7
:103A3C0038BF002210467047431CDAB203F00F0364
:103A4C00EDE700F0F0001030C2B2902AE6D9002267
:103A5C0010467047F8B70320144B2DE9F041DFF8FE
:103A6C0058800446124E1D68124F23070FD114F0D4
:103A7C00F00417D19924002DF7D156F824004146B3
:103A8C0019F0F2FB0028F0D02046BDE8F081013C93
:103A9C00E4B215B9992CE8D8EFE7032CE5D857F820
:103AAC002400ECE7073CE4B2F3E700BF286F0120E9
:103ABC0070030020D80500204C090020030705D115
:103ACC0010F0F0001FD1632399200AE00138C0F3F5
:103ADC00031200F00F03C0B202EB820203EB4203AD
:103AEC00DBB20A4A12789A420CD2094BA3FB02139E
:103AFC00DB08C3EB4311C3EB8101490001EB03135A
:103B0C001A44D0B270470738E1E700BFF8B703207A
:103B1C00CDCCCCCC70B5274D002128460BF0A4FFA2
:103B2C00254B022128462B610BF098FF234B1C7868
:103B3C00012C0AD0022C27D0BCB10022204B43F61A
:103B4C003F7110469A70198070BD1E4B00241C49A1
:103B5C005F221B7828464A7002221B098C70303376
:103B6C000B7015F0E3FB204670BD154E45F65F73E8
:103B7C0030463380B47019F0D3FD314602462846E6
:103B8C0015F0D4FB204670BD0E4B00220C4C1B785C
:103B9C00A27020461A0903F00F0330323033227022
:103BAC00637019F0BDFD21460246284615F0BEFB98
:103BBC00012070BDC06B00200100230002B803205F
:103BCC0068700120EDB7032038B5174B04461B680D
:103BDC00002B0FD0154D1A461549B8BF5A1C286832
:103BEC00096800EB62028A4204DC0344994200DD5E
:103BFC00296038BD0F4D4FF001130F4A00212846A4
:103C0C00C5E904230BF030FF012128460BF026FFF9
:103C1C00002CEED0204619F083FD214602462846A2
:103C2C00BDE8384015F082BBFC6D0120F06D012021
:103C3C0060700120C06B00200100140038B5174BD8
:103C4C0004461B68002B0FD0154D1A461549B8BFFA
:103C5C005A1C2868096800EB62028A4204DC03449F
:103C6C00994200DD296038BD0F4D4FF001130F4A0A
:103C7C0000212846C5E904230BF0F6FE0121284655
:103C8C000BF0ECFE002CEED0204619F049FD21463D
:103C9C0002462846BDE8384015F048BBF86D0120B7
:103CAC00EC6D012060700120C06B0020010026002B
:103CBC0038B5174B04461B68002B0FD0154D1A4610
:103CCC001549B8BF5A1C2868096800EB62028A4281
:103CDC0004DC0344994200DD296038BD0F4D4FF0E0
:103CEC0001130F4A00212846C5E904230BF0BCFE42
:103CFC00012128460BF0B2FE002CEED0204619F024
:103D0C000FFD214602462846BDE8384015F00EBB93
:103D1C00F46D0120E86D012060700120C06B002063
:103D2C000100380038B50A4D04460A4B01212846DB
:103D3C002B610BF093FE4CB1204619F0F1FC21469F
:103D4C0002462846BDE8384015F0F0BA38BD00BF31
:103D5C00C06B00201E00260030B55E4A83B05E4C5E
:103D6C00156823685B1B962B06D95C4D2368136082
:103D7C002B7883F001032B70FF281CD00F2811D84F
:103D8C00574C2378012B5ED013F0FD0F49D0002047
:103D9C00B3B9524B1B78002B14BFCC23FC230B70F4
:103DAC0003B030BD1238072805D8DFE800F0251C19
:103DBC000404041404104A4B00201B78002BE8D098
:103DCC00013BDBB2012BEBD8464B1B7831E0444B6B
:103DDC0002201B78DCE7424B1B78A3F10200B0FAFF
:103DEC0080F04009D4E73E4C2378012B59D0022BAC
:103DFC0030D09BB10020E3E7394C2378012B41D024
:103E0C00022B34D0002BF5D1374A18460191128879
:103E1C00012A54D0FFF752FE019903460222314D7C
:103E2C0004E0000101222F4D0C30C3B200202B7096
:103E3C0022702A4A0B70127812B943F00F03DBB2CE
:103E4C000B7003B030BD274D02222B7823F00F03EB
:103E5C000343EBE7244B234D1B882878012B01915E
:103E6C0025D0FFF7D3FD019902220346DEE71E4B56
:103E7C001C4D1B882878012B01911CD0FFF71EFECE
:103E8C000199F1E7184B174D1B882878012B0191EC
:103E9C0000F0F00018D0FFF711FE01990346022242
:103EAC00C4E7104D0222287800F0F003BEE7FFF7BC
:103EBC0071FD0199D8E7FFF7CFFD0199D4E7FFF722
:103ECC00CBFD01990346A9E7FFF7C6FD019903460F
:103EDC00E5E700BFBC67002018B40320E1B703205E
:103EEC0002B80320EDB70320BEB7032008B5374B4B
:103EFC001B68042B21D8DFE803F0424A030322009D
:103F0C00334B344A1B88344903F51F5311603C333F
:103F1C009BB2092B50D8314A52F82300FFF754FEBC
:103F2C002F4B1B8803F51F533C339BB2092B45D8F1
:103F3C002A4A52F82300FFF781FE012008BD254BC9
:103F4C001868FFF741FE224B1B8803F51F533C33C7
:103F5C009BB2092B38D8214A52F82300FFF76EFE8A
:103F6C001F4B1B8803F51F533C339BB2092B29D8DD
:103F7C001A4A52F82300FFF79BFE012008BD154B8F
:103F8C00184A19481A60FFF71FFE012008BD104B94
:103F9C00104A1B88134903F51F5311603C339BB225
:103FAC00092B0DD80D4A52F82300FFF70DFE0E48D1
:103FBC00FFF744FE012008BD0C48AFE70B48BAE7F9
:103FCC000A48F2E70948D6E70848C7E7B4B6032021
:103FDC00CEB70320884C002004100020E8050020F8
:103FEC00D0B70320E40F0020F80F0020F8070020C2
:103FFC00554B1B6810B5072B2CD8DFE803F0840455
:10400C0004562D2D3267514C514B52491B68228856
:10401C00514818F085FD5048FFF7D6FD2388B3F5BD
:10402C00005F00F08C8000F28380B3F5006F02D04B
:10403C00B3F5805F02D14948FFF700FE484B1A6880
:10404C002AB148490020484A09681860116047485D
:10405C00FFF72EFE012010BD4548FFF7B5FD0120EE
:10406C0010BD444B1A681E2A05D03E491E20424AF8
:10407C000968186011604148FFF7A6FD404B4149A3
:10408C001A88354818F04CFD3F4B1A682AB135494F
:10409C0000203E4A0968186011602F48FFF7CEFDDA
:1040AC003248FFF705FE012010BD3948FFF78CFDA3
:1040BC00354B1A681E2A05D02A491E20334A096836
:1040CC00186011603348FFF7B9FDC0E7294B1A6837
:1040DC002AB124490020284A0968186011602A4B2B
:1040EC001A682AB11F490020284A09681860116013
:1040FC001B4B1A68002AADD01A4900201A4A0968CD
:10410C0018601160A6E7124B234A24481A60FFF787
:10411C005BFD134B1A68122A05D012491220124A61
:10412C000968186011601E48FFF7C2FD012010BD20
:10413C00B3F5804F03D0B3F5004F7FF47FAF194830
:10414C00FFF77CFD7AE700BFC4EC0020BCB703206E
:10415C00084A0020781B0020C8EC0020881B002097
:10416C00F46D012060700120E86D0120B81B002067
:10417C00F41B0020FC6D0120F06D0120001C0020C0
:10418C00B8B70320141C0020F86D0120EC6D012041
:10419C00D01B0020E01B0020E40F00204C1B002053
:1041AC00601B0020A01B00202DE9F0474FF00009F8
:1041BC00DFF8E482012484B049464046B34E4327DD
:1041CC0025460BF051FC3B4622B20221404600959D
:1041DC000834CDE901950BF095FB16F8017FA4B2DC
:1041EC00002FF0D1AA4D03200A23DFF8ACA22988B6
:1041FC0001243222B94601F00101DFF8A4825426D1
:10420C00029139462746CDE9003050460AF050FF5E
:10421C00334622B20F21504600970834CDE901975E
:10422C000BF070FB18F8016FA4B2002EF0D12A88A5
:10423C0003210A23DFF86092C2F3400201244846AE
:10424C00B24602923222A046924F5326CDE900315B
:10425C000D210AF02DFF334622B21C214846CDF821
:10426C0000800834CDE901A80BF04CFB17F8016F66
:10427C00A4B2002EEFD12A8803210A23DFF818A25A
:10428C00C2F3800201245046DFF8188202923222D7
:10429C00A1464227CDE900311A210AF009FF3B461D
:1042AC0022B229215046CDF800900834CDE901699D
:1042BC000BF028FB18F8017FA4B2002FEFD12A884D
:1042CC0003210A23DFF8D0A1C2F3C0020124504617
:1042DC00DFF8D48102923222A1464826CDE9003182
:1042EC0027210AF0E5FE334622B236215046CDF89E
:1042FC0000900834CDE901790BF004FB18F8016F3C
:10430C00A4B2002EEFD12A8803210A23DFF888A15A
:10431C00C2F3001201245046DFF89081029232223F
:10432C00A1464327CDE9003134210AF0C1FE3B46BA
:10433C0022B243215046CDF800900834CDE90169F2
:10434C000BF0E0FA18F8017FA4B2002FEFD12A8805
:10435C0003210A23DFF840A1C2F340120124504686
:10436C00DFF84C8102923222A1464326CDE900317E
:10437C0041210AF09DFE334622B250215046CDF821
:10438C0000900834CDE901790BF0BCFA18F8016FF4
:10439C00A4B2002EEFD12A8803210A23DFF8F8A05B
:1043AC00C2F3801201245046DFF8088102923222B7
:1043BC00A1465227CDE900314E210AF079FE3B4649
:1043CC0022B25D215046CDF800900834CDE9016948
:1043DC000BF098FA18F8017FA4B2002FEFD12A88BD
:1043EC0003210A23DFF8B0A0C2F3C0120124504607
:1043FC00DFF8C48002923222A1465426CDE9003166
:10440C005B210AF055FE334622B26A215046CDF8A4
:10441C0000900834CDE901790BF074FA18F8016FAB
:10442C00A4B2002EEFD12A880A2303210124C2F35F
:10443C0000221948A046194F02923222DFF85890F8
:10444C00CDE9003168210AF033FE432322B27721F3
:10445C004846CDF800800834CDE901680BF052FADB
:10446C0017F8013FA4B2002BF0D1288803210A23AE
:10447C003222C0F34020019175210093029006482E
:10448C000AF016FE04B0BDE8F08700BFC01400208F
:10449C0090530020CC140020C06B00200415002089
:1044AC00C8140020D4140020DC140020E4140020D4
:1044BC00EC140020F4140020FC140020F8B50220A9
:1044CC0015F014FB0446002800F0F48002467D4BE6
:1044DC007D497E4814F07AFF112C28BF00247C4BB8
:1044EC000025012603271C60FFF74AF8794B18704A
:1044FC00FFF78AF8784B1870FFF7CAF8774B1870EB
:10450C00FFF70AF9764B1870FFF74AF9754B02461C
:10451C0008201A7015F0EAFA734B041E734A74499A
:10452C0008BF1A46694814F051FF641B714B4FF0D9
:10453C00090018BF01241C7015F0D8FA6E4B041E2C
:10454C006E4A6F4908BF1A46604814F03FFF601B63
:10455C006C494DF6060218BF01206B4B6B4C087072
:10456C004DF604019A83998024211A8527221980FB
:10457C004DF605019A8407221982252183F82620FD
:10458C004DF60A0299814DF60701A3F85820998639
:10459C002821A3F864202C2219864DF60801A3F8D3
:1045AC0060204DF60B02A3F840102921A3F87020CF
:1045BC0099874DF60901A3F87C202E22A3F84C1004
:1045CC002A219D70A3F8481026219D7319832B2155
:1045DC009D76A3F854102D2183F83260A3F86C104B
:1045EC002F2183F83E5083F84A5083F8626083F899
:1045FC00567083F86E70A3F87820626DA3F884105F
:10460C00302183F87A60A3F8901047F6122183F8D2
:10461C00866083F8926010684DF60C02A3F888202F
:10462C004DF60D02A3F894202A46394BE360394B22
:10463C00A360394BA361394BA363394BE363394B0B
:10464C006364394BA364394B636214F08FFB384AB3
:10465C004FF6FF7384F870701268A4F85860C4F8B1
:10466C000021344A84F85A506567334984F8F8506D
:10467C00C4F8FC503148C4E91A339369C4E918559D
:10468C0043F080532E4C93610C602E4B2E4C2F4AD2
:10469C0004601A602E492F4C2F4B304A0C601A6064
:1046AC002F49304A3048314C314B1160314A04604B
:1046BC001A60F8BD0246304B0349044814F086FEDC
:1046CC000DE700BF041400208C270020404400207C
:1046DC00304C0020FCB70320FBB70320FAB70320B3
:1046EC00F9B70320FFB703204428002074150020DD
:1046FC002C280020FDB7032094280020C02800207F
:10470C0074280020F3B70320186C00202C6F0120B4
:10471C0025850000A9010000D5930000752100003B
:10472C00C55100000153000089500000FD8E0000AF
:10473C0018B403200080194050B503204CB5032059
:10474C005985000058B50320D101000005940000E4
:10475C0040B50320D921000068B50320F5510000B5
:10476C00B95000006CB5032044B503203153000050
:10477C0074B503206D8F0000B02700200A4B0B4A44
:10478C000B49002808BF1A4610B50A4C20700A487D
:10479C0014F01CFE2378094A191E18BF012143EAA4
:1047AC00410382F8703010BD44280020741500209D
:1047BC00B4180020FDB70320404400202C6F0120CA
:1047CC000C2836D8DFE800F021271B09070B11173E
:1047DC00192D2F3133001848704718487047184B63
:1047EC0018483F2998BF18467047174B17483F2960
:1047FC0098BF184670471648704716487047164BB6
:10480C0016483F2998BF18467047154B15483F2945
:10481C0098BF18467047144B14483F2998BF184648
:10482C007047134870471348704713487047134834
:10483C0070471348704700BFEC140020242B002055
:10484C00302B002004150020382B0020FC140020F5
:10485C00402B0020482B00201C2B0020DC140020B7
:10486C000C2B0020D4140020142B0020CC1400207E
:10487C00502B0020582B0020602B0020682B002090
:10488C00702B002010B53E4C2368062B0BD8DFE8AC
:10489C0003F01A2A374A60040B0015F037F8394A2E
:1048AC0006231060236010BD15F030F8354A40F631
:1048BC00D7631268801A9842F5D90121324B002235
:1048CC0021601A7010BD304B4FF084424FF0807154
:1048DC001B78C2F888100BB1052323602B4B40F6D4
:1048EC00D8621A6010BD4FF084434FF08072C3F849
:1048FC00842015F00BF8234A02231060236010BDAE
:10490C0015F004F81F4A214B12681B68801AB0EB93
:10491C00530FC8D34FF084424FF080710323C2F879
:10492C008810236010BD14F0F1FF194A174B126860
:10493C001B68801A8342B6D84FF084434FF08072C4
:10494C00C3F8842014F0E2FF0E4A042310602360A5
:10495C0010BD14F0DBFF0B4A0C4B12681B68801A5D
:10496C00B0EB530F9FD3084B4FF084424FF0807144
:10497C001B78C2F88810002B94D00523236010BD3F
:10498C0020B50320407001200CB8032024B503206F
:10499C007CB20120104B1B78DB0700D4704710B59C
:1049AC000E4C14F0B3FF0E4B2268801A40081860AE
:1049BC0014F0ACFF0B4B20601B783BB90A4A01206A
:1049CC000A490B4B126808701A6010BD094B012282
:1049DC001A60FFF757FFF1E7F9B703207CB201200B
:1049EC0024B50320F2B7032018B40320E3B7032047
:1049FC0080B2012020B50320104B1B789B0700D4FC
:104A0C00704710B50E4C14F081FF0E4B2268801AC3
:104A1C004008186014F07AFF0B4B20601B783BB9F0
:104A2C000A4A01200A490B4B126808701A6010BD23
:104A3C00094B01221A60FFF725FFF1E7F9B70320B4
:104A4C007CB2012024B50320F2B7032018B4032054
:104A5C00E5B7032088B2012020B50320074B084995
:104A6C00084A10B51C78002818BF0A461870064969
:104A7C00064814F0ABFC204610BD00BFF3B7032072
:104A8C007C1800208418002090180020404400203E
:104A9C00092809D80138082828D8DFE800F00C0FBD
:104AAC001215181B1E212400FF2802D1114B188847
:104ABC007047002070474DF6050070474DF6060014
:104ACC0070474DF6070070474DF6080070474DF6DD
:104ADC00090070474DF60A0070474DF60B00704701
:104AEC004DF60C0070474DF60D0070474DF6040066
:104AFC00704700BF8E530020092809D801380828B8
:104B0C0020D8DFE800F00C0F11131517191B1D002E
:104B1C000D4B0E4AFF2808BF1346184670470C4B26
:104B2C00184670470B4BF8E70B4BF6E70B4BF4E7CB
:104B3C000B4BF2E70B4BF0E70B4BEEE70B4BECE7B9
:104B4C000B4BEAE70B4BE8E75811002084110020CF
:104B5C00CC140020DC140020EC14002004150020E0
:104B6C00FC140020641100206C110020602B00202C
:104B7C0074110020D414002070B50546204E0C464C
:104B8C0020482A46204914F021FC33789A0707D490
:104B9C00DB0711D41D491B48BDE8704014F016BC4E
:104BAC001B49184814F012FC00222946204616F026
:104BBC002FFB3378DB07EDD5164E1749114814F04F
:104BCC0005FC736DF021186803681B68984755B194
:104BDC00013C2544736D14F8011F186803681B68A9
:104BEC009847A542F6D1736DF721186803681B68C6
:104BFC00984706490348BDE8704014F0E7BB00BF76
:104C0C00FFB7032040440020B4070020F007002029
:104C1C00D40700202C6F0120E0070020F72813D0C8
:104C2C00124938B50B78124C5B00124D2268DBB27E
:104C3C000B7023F07F0310491843531C8B422360E5
:104C4C00A85403DC002038BD0120704727210B48F5
:104C5C0017F0C8F821680A4814F090FB084814F0C3
:104C6C0099FB0123074A1846137038BDDBB70320A4
:104C7C00F0B30220D0B301201F00010098140020D3
:104C8C00404400200FB8032010B51C4C034622688A
:104C9C000A2A2AD8DFE802F0060B271A0F0F0F0F8B
:104CAC000F0F200000221648164902600A70F02BE4
:104CBC0008D0002010BDFFF7B1FFD0B92368013335
:104CCC00236010BD02230020236010BD0E49042276
:104CDC0000200B70226010BDFFF7A0FF48B9032322
:104CEC000020236010BD6928F9D001230020236027
:104CFC0010BD01231846236010BD00BF6C7101204C
:104D0C00F0B302200FB80320DBB703202DE9F047E6
:104D1C004FF0000A82B05346CD1802EB0A0403F19F
:104D2C0007084FF0000CAAEB030715F801EB4FEA4C
:104D3C004C0C01331EF0800F5FFA8CFC0EF07F06DA
:104D4C0007EB030918BF4CF0010C834204F8016F08
:104D5C0006DA4345E9D102F80AC00AF1080ADBE792
:104D6C0002F80AC002460549CDF80090044814F038
:104D7C002DFB09F1010002B0BDE8F08748140020BA
:104D8C004044002010B5FA20174C14F06BFD0122A2
:104D9C003C2116480BF020FF154A164B1268207068
:104DAC001A6000B910BD2421134817F01BF81348E2
:104DBC0014F0F0FA0121112014F00EFE0121102044
:104DCC0014F00AFE0021112014F0CAFD002110205D
:104DDC0014F0C6FD0A481DF0B3FD0A49084809F055
:104DEC00E9FD207810BD00BFE7B70320C06B0020A1
:104DFC0018B4032064700120D01800204044002017
:104E0C002C61002040420F0070B50669044675689D
:104E1C00013D756075BB33681F4ADB6A93422CD128
:104E2C00B06D10B117F088F9B565336D63B306F149
:104E3C00180011F057F92569E5B12B68174A5B6822
:104E4C00934225D1164BA86D2B6018B117F074F94D
:104E5C000023AB652B6D05F118068BB1304611F0B4
:104E6C0041F9104B3046AB6011F03CF95C212846FF
:104E7C0015F018F90023236170BD30469847DAE726
:104E8C006B6D002BEAD1ECE7736D002BCFD1D2E721
:104E9C0028469847EEE700BF45010000C90900000D
:104EAC00B83800200C360020012BF0B5054695B023
:104EBC003DD0022B40F2022001F104010CBF03464D
:104ECC000023684611F028FA129B002B38D05C2086
:104EDC00002615F0E5F8214B04AF0446C0E9003676
:104EEC00019B3946183040F80C3C1D4B40F8103CE7
:104EFC00029B40F8083C9DF80C3000F8043C11F083
:104F0C00AFF8184B4FF47A72A665A360164B6E601F
:104F1C002B6063682E730133AA602C616360134BA2
:104F2C003846009311F0DEF8284615B0F0BD44F277
:104F3C0002230431684611F0EFF9129B002BC6D105
:104F4C00139B002BC3D14FF47A71074A04AF2B7318
:104F5C002A602B61C5E90131E1E700BFB8380020B8
:104F6C001439002094380020683800200C360020BA
:104F7C00F0B502469DB0A049A048019214F026FA63
:104F8C009F4C019A9F49A04817F0CAFD00239E4AE6
:104F9C0008A89E49FFF788FF236913B12046FFF745
:104FAC0033FF0C992161002900F0E2800B68984ACC
:104FBC00DB6B93424FF0000240F008814FF47A749F
:104FCC00944E18310CA88DF82C200896CDE90924A4
:104FDC00CDE91A2211F0F2F81A9B002B00F0D280C6
:104FEC005C20002515F05CF88B4B04460CA9C0E93D
:104FFC000035099B183040F80C3C884B40F8103CAD
:10500C000A9B40F8083C9DF82C3000F8043C11F049
:10501C0027F863684FF47A72A565013304950592FD
:10502C008DF818500794C4E901367D4B03937D4BE2
:10503C000CA8089311F056F87B4C236913B1204649
:10504C00FFF7E2FE079B7048236118F069FB0146ED
:10505C006D4816F0C7FE694814F09CF92069F8B148
:10506C000368724A1B6B934217D1036D002B00F03F
:10507C0095800B216E4816F0B5FE604814F08AF945
:10508C00206900B303686B4A9B6A93421AD1036D83
:10509C00002B00F09180DB6916E098470028E8D1DE
:1050AC000F21654816F09EFE5448002414F072F946
:1050BC000521624816F096FE504814F06BF9204614
:1050CC001DB0F0BD984703465D4F06215D483B601F
:1050DC0016F088FE2569002D73D02B685A4A5B6B3D
:1050EC00934240F08380AE6D002E00F0B9803046C4
:1050FC0018F016FB0146304616F074FE3F4814F0CB
:10510C0049F90621514816F06DFE00230A22396830
:10511C003A4814F069F9394814F03CF92569002D26
:10512C0052D02B684A4A9E68964259D1286D002865
:10513C0039D04FF4005247490EF0C6FD2569002DB9
:10514C0042D02B68DB6A444A934246D1A86D18B111
:10515C0016F0F2FF0023AB652B6D002B39D005F157
:10516C00180010F0BFFF30483A4CFFF74DFE9FE798
:10517C004FF47A722A4B04918DF818100592039310
:10518C00079159E71B9B002B7FF42AAF244A8DF81B
:10519C00183003920793CDE9043448E7436D002B94
:1051AC007FF467AF7CE7686D0028CBD04FF40052DA
:1051BC0028490CF071F9C1E7436D002B84D01B69B1
:1051CC0082E72946254E96E7224C71E703A89847BB
:1051DC0032E76B6D002BC2D1C5E728469847C2E772
:1051EC004FF400521B492846B047A7E7284698477A
:1051FC000646002E82D07AE7CC09002040440020DD
:10520C00344C0020F8090020006E0120C859002001
:10521C006D05000094380020B838002014390020A7
:10522C00683800200C360020184A00202D010000A0
:10523C00080A002051050000240A0020340A00202E
:10524C00E46D0120140A0020F90100001C0A002062
:10525C00BD0600007091012045010000A040002017
:10526C004FF4807016F060FF0146A865B0B106706F
:10527C00286D40B14FF4807210F0E0FAAE6D002E44
:10528C003FF43CAF33E7686D18B14FF480720DF00A
:10529C00D5FEAE6D002E3FF431AF28E7014B1E4614
:1052AC00AB6524E7DAB70320104BD3F8840410B5B0
:1052BC0058B1002308220E4900F589600FF05EFEFC
:1052CC000B48BDE8104014F065B8D3F88844002CA6
:1052DC00F6D00346082204F5896005490CF042FD1E
:1052EC000348BDE8104014F055B800BFC859002061
:1052FC00404400202DE9F04F05460E469FB0B149C1
:10530C0033462A46B048B14F14F060F800232A46C1
:10531C00AF490AA8FFF7C8FD3B6913B13846FFF740
:10532C0073FD0E993961002900F0DD810B68A94AE3
:10533C00DB6B934240F039820DF1380B00224FF4B5
:10534C007A74DFF8D882183158460B928DF83420D5
:10535C000C94CDF82880CDE91C2210F02FFF1C9B5B
:10536C00002B00F0E2815C204FF0000914F098FE55
:10537C000B9B0446C0F80490C36059460C9B183034
:10538C0040F8083C9DF8343000F8043C924B40F84F
:10539C00183C924B40F8103C10F062FE6368C4F865
:1053AC0008800133C4F85890CDF8189063604FF41E
:1053BC007A738DF820900793894B09940593894B48
:1053CC0058460A9310F08EFE874C236913B1864819
:1053DC00FFF71AFD09982061002800F092810368FC
:1053EC00DFF83C921A6B4A4540F0E381026D002ACB
:1053FC0000F08F819B6A7D498B4240F0A281D0697D
:10540C002569DFF820A2CAF80000002D00F08A827E
:10541C002B68774A5B6B934240F01982AA6D002A85
:10542C0000F02F823F21734817F036FB714A724906
:10543C00654813F0CBFFDAF800207049624813F08E
:10544C00C5FFDAF80020B2F5004F00F2958125690E
:10545C0035B32B686A49D3F80880884540F005823B
:10546C00286D002800F0B28166490EF02DFC2569EC
:10547C00B5B12B68DB6A644A934240F0DD81A86DBC
:10548C0018B116F059FE0023AB652B6D002B00F004
:10549C00BB8105F1180010F025FE5348FFF7B4FC52
:1054AC0010215A4816F09EFC474813F073FF002356
:1054BC00324647490AA8FFF7F7FC3B6913B143484A
:1054CC00FFF7A2FC0E993961002900F060810B688E
:1054DC00404ADB6B934240F0BE810DF1380B002249
:1054EC004FF47A75DFF83481183158460B928DF8E9
:1054FC0034200C95CDF82880CDE91C2210F05EFEEE
:10550C001C9B002B00F06A815C20002714F0C8FD66
:10551C000B9B05464760C36059460C9B183040F8FE
:10552C00083C9DF8343000F8043C2B4B40F8183CF8
:10553C002A4B40F8103C10F093FD6B68C5F80880BE
:10554C000133AF6506976B604FF47A738DF820705A
:10555C000793234B09950593224B58460A9310F059
:10556C00C1FD236913B12048FFF74EFC0998206157
:10557C00002860D003681B6B4B4540F07081036DB5
:10558C00002B00F03781FDF7D7FD214902460E486C
:10559C0013F01CFF2069FDF7CFFD3346FF2100906F
:1055AC001C4A1D4817F078FA094BD3F884140029CB
:1055BC0000F02F810023184A0AA80A9301230EF049
:1055CC002FFB31E0D40C002040440020344C002050
:1055DC00C85900206D050000B8380020143900208F
:1055EC00683800200C360020184A002051050000B5
:1055FC00F901000090B20120E80C0020F40C00200E
:10560C00BD060000E4ED002045010000280D00203F
:10561C003C0D0020580D0020D0B201209438002001
:10562C002D010000E46D0120002840F06F81A1499C
:10563C00A148FDF745FEA14A3346FF21A048009240
:10564C00A04A17F029FA0B219F4816F0CBFB9C4877
:10565C0018F066F801469A4816F0C4FB964813F009
:10566C0099FE01230AA8964A9849FFF71DFC236965
:10567C0013B19748FFF7C8FB0E982061002866D03D
:10568C0003681A6B4A455FD1026D002A00F0B7809F
:10569C00DAF80020DB688F498B4240F03181036DD2
:1056AC00002B00F0E6808C4918460EF031FF24697F
:1056BC00B4B12368894ADB6A934240F02481A06D1F
:1056CC0018B116F039FD0023A365236D002B00F0F3
:1056DC00EC8004F1180010F005FD7D48FFF794FBF9
:1056EC001FB0BDE8F08F4FF47A73794C0691079395
:1056FC007B4B8DF82010059323690991002B7FF4C7
:10570C0066AE2A4677496C481FB0BDE8F04F13F0DF
:10571C005DBE426D002AF4D09B6A734A934210D14D
:10572C00406D78B1006925696BE61D9B002B7FF4F9
:10573C001AAE8DF820300993CDE90634684B0593E9
:10574C003DE6984725695CE69047002877D11F21F4
:10575C00664816F047FB5A4817F0E2FF01465848D6
:10576C0016F040FB0D21624816F03CFB52481FB06E
:10577C00BDE8F04F13F00EBE4FF400425D494E48A9
:10578C0013F024FE4FF40042CAF800205FE64FF4F9
:10579C007A7306918DF820100793514B099105935C
:1057AC002369002B7FF4DFAE45E7002205A898475C
:1057BC000AE690470028A4D02069002840F0B78062
:1057CC00DFF838A14C4ACAF800002BE6686D0028B7
:1057DC003FF450AE40490BF05FFE48E61D9B002B9A
:1057EC007FF492AE8DF820300993CDE906353C4B11
:1057FC000593B1E6436D002B7FF4C5AE1BE7426DFC
:10580C00002A7FF445AFA2E76B6D002B7FF441AE0D
:10581C0043E6D3F88834002B3FF409AF16910AA85D
:10582C001946274A01230CF0DBF900283FF4FFAEA0
:10583C000AA80CF077FBFAE6284698472DE6206973
:10584C00DAF8002000283FF44BAF036822E7284623
:10585C0098470246E6E5002205A8984781E6984756
:10586C0000283FF4E8AE20698DE628461A49C04767
:10587C00FDE5406D18B118490CF01EFF17E72469BF
:10588C0017E74FF48070039216F04EFC0146A865A2
:10589C00002849D0039A0270286D00283AD04FF4A2
:1058AC0080720FF0CBFFAA6DBCE5636D002B7FF40B
:1058BC0010AF12E7600D00204044002090B2012090
:1058CC00D0B201207C0D0020840D0020C85900208E
:1058DC00184A0020A1070000E4ED0020450100005B
:1058EC0068380020C00D002051050000900D0020EC
:1058FC00B00D0020000D0020A0400020E46D012020
:10590C0010499847D3E620469847E6E60AA80FF0D8
:10591C008DFA8CE6686D18B14FF480720DF08EFB29
:10592C00AA6D7FE5084A7DE5084AAA657AE5036811
:10593C00074A9B6A93427FF404AF026D002A7FF4FE
:10594C005EADEDE6E4ED0020A0400020DAB70320C8
:10595C005105000030B59BB004460D460346094A7C
:10596C00302102A817F098F82B46074A30210EA8D0
:10597C00009417F091F80EA902A8FFF7BBFC1BB01E
:10598C0030BD00BF0C1600201C1600202DE9F0477E
:10599C000D469CB006460821AF481746984616F0AF
:1059AC0021FA35B1284617F0BBFE0146284616F001
:1059BC0019FAAA48AA4C13F0EDFC00233246A94967
:1059CC0008A8FFF771FA236913B12046FFF71CFAF8
:1059DC000C992161002900F01A810B68A24ADB6B3B
:1059EC00934240F08A8100224FF47A74DFF8BCA213
:1059FC0018310CA809928DF82C200A94CDF820A00F
:105A0C00CDE91A2210F0DAFB1A9B002B00F017815B
:105A1C005C204FF0000914F043FB099B0446C0F8CE
:105A2C000490C3600CA90A9B183040F8083C9DF800
:105A3C002C3000F8043C8D4B40F8183C8C4B40F853
:105A4C00103C10F00DFB6368C4F808A00133C4F8D7
:105A5C005890CDF8109063604FF47A738DF81890CD
:105A6C000593844B07940393834B0CA8089310F075
:105A7C0039FB824C236913B18048FFF7C5F90798AD
:105A8C002061002855D003687D4A1B6B934240F07F
:105A9C003881036D002B00F0CD801421794816F06D
:105AAC00A1F92369002B00F003811A687649526B27
:105ABC008A4240F03F81D3F85890B9F1000F00F0C2
:105ACC004581484617F02CFE0146484616F08AF9E7
:105ADC00624813F05FFCD4F81090B9F1000F00F09D
:105AEC001581D9F80030684A5B6B934240F02A81EB
:105AFC00D9F85830002B00F0438164493246644891
:105B0C0017F00EF8574BD3F88414002900F0DC8002
:105B1C0000235F4A08A8089301230EF081F800289F
:105B2C0040F004811B215B4816F05CF94B4813F0E4
:105B3C0031FC2B4632465549554816F0F1FF1121E0
:105B4C00554816F04FF9524817F0EAFD01465048F7
:105B5C0016F048F9414813F01DFC012308A84C4AE3
:105B6C004049FFF7A1F9236913B14448FFF74CF9F9
:105B7C000C982061002835D0036841491A6B8A4281
:105B8C002CD1026D002A51D0DB68444A934240F07C
:105B9C00C480036D002B00F08F80424639461846B6
:105BAC000EF0B6FC2469B4B123683D4ADB6A93421B
:105BBC0040F0B780A06D18B116F0BEFA0023A365B3
:105BCC00236D002B00F0A48004F1180010F08AFA69
:105BDC002A48FFF719F91CB0BDE8F0879047002858
:105BEC0040F085801F212F4816F0FCF8284817F04C
:105BFC0097FD0146264816F0F5F80D212A4816F0B7
:105C0C00F1F816481CB0BDE8F04713F0C3BB4FF4D5
:105C1C007A731A4C04910593164B8DF81810039354
:105C2C0023690791002B7FF427AF82E7426D002A8E
:105C3C00AAD1D7E7436D002B7FF42FAF79E71B9BDD
:105C4C00002B7FF4E5AE8DF818300793CDE90434C2
:105C5C00084B039308E700BF540900204044002080
:105C6C00344C0020C85900206D050000B8380020C5
:105C7C0014390020683800200C360020184A002007
:105C8C002D01000060090020F9010000580D0020D2
:105C9C00D0B20120600D002078090020A10700007F
:105CAC0045010000900D0020B00D0020943800201C
:105CBC001946DFF83C9108E7406D002834D0424685
:105CCC0039460CF0F9FC6DE7D3F88834002B3FF41F
:105CDC0029AF149108A81946444A01230BF080FF00
:105CEC0000283FF41FAF08A80CF01CF91AE7206934
:105CFC0000283FF470AF036846E7002203A89847DA
:105D0C00B7E6984700283FF414AFC6E6384BF4E6E4
:105D1C00636D002B7FF458AF5AE7424639469847DB
:105D2C0040E72046984753E724693DE708A80FF061
:105D3C007DF8F7E6184690478146B9F1000F3FF41D
:105D4C00C7AEBEE6484698470346D6E64FF4807089
:105D5C00019316F0E9F9019B01469865002841D0A2
:105D6C0080F80090186D00B34FF480720FF066FD50
:105D7C00019BD3F85890B9F1000F3FF4A9AEA0E6FF
:105D8C004FF48070019316F0CFF90146C9F8580012
:105D9C0020B3019B0370D9F85000A8B14FF4807266
:105DAC000FF04CFDD9F85830A7E6586D28B14FF4D8
:105DBC00807201930DF042F9019BD3F85890B9F120
:105DCC00000F3FF485AE7CE6D9F8540018B14FF4BF
:105DDC0080720DF033F9D9F858308EE6054BC9F8BE
:105DEC0058308AE6034A91469A656AE6D0B2012099
:105DFC00A0400020DAB70320294B034410B5044619
:105E0C00092B47D8DFE803F0191E23282D32373C25
:105E1C0041050621234815F0E5FF0121224815F024
:105E2C00E1FF214600231022204813F0DDFA022165
:105E3C001F48BDE8104015F0D5BF05211D4815F0D1
:105E4C00D1FFEAE706211C4815F0CCFFE5E7062157
:105E5C001A4815F0C7FFE0E70621194815F0C2FFF4
:105E6C00DBE70721174815F0BDFFD6E705211648DB
:105E7C0015F0B8FFD1E70521144815F0B3FFCCE7B6
:105E8C000721134815F0AEFFC7E70821114815F09C
:105E9C00A9FFC2E70821104815F0A4FFBDE700BF19
:105EAC00FC27FFFFC0150020E01500204044002017
:105EBC00E415002080150020881500209015002086
:105ECC0098150020A0150020A8150020B015002062
:105EDC00B8150020C8150020D4150020FF299446C1
:105EEC000AD04B4B0344092B12D8DFE803F0171CE4
:105EFC0021262B30353A3F12454B034410B4092B65
:105F0C0047D8DFE803F08238494B4D5864707280F3
:105F1C0070470A4660463F4916F002BE0A46604684
:105F2C003D4916F0FDBD0A4660463C4916F0F8BDE9
:105F3C000A4660463A4916F0F3BD0A4660463949AE
:105F4C0016F0EEBD0A466046374916F0E9BD0A4622
:105F5C006046364916F0E4BD0A466046344916F0F0
:105F6C00DFBD0A466046334916F0DABD0A46604684
:105F7C00314916F0D5BD314B07CBCCF80000188851
:105F8C009B78ACF80C00CCF80410CCF808208CF8FA
:105F9C000E305DF8044B7047294BEDE7294BEBE7CE
:105FAC00294C0FCCCCF80000CCF80410CCF808200D
:105FBC00CCF80C30EDE7254B07CB1B88CCF8000058
:105FCC00CCF80410CCF80820ACF80C30E1E7204BEE
:105FDC0007CB1B78CCF80000CCF80410CCF80820C8
:105FEC008CF80C30D5E71B4BC6E71B4C0FCCCCF810
:105FFC0000002078CCF80410CCF80820CCF80C3039
:10600C008CF81000C5E7154BB6E7154BD4E700BF6D
:10601C00FC27FFFFA01A0020441A00202C1A002095
:10602C00581A0020881A0020CC1A0020B81A002018
:10603C00181A0020001A0020701A00207C19002069
:10604C009C190020C0190020F0190020E019002034
:10605C006C1900205C190020AC190020D01900200C
:10606C008C19002070B5144696B00B460246684950
:10607C006848009416F054FD0023664A02A866494D
:10608C0010F04AF9149B002B6FD05C20002514F003
:10609C0007F80399049A0446604B45600360604B13
:1060AC00C0E903129DF8142006A98360183000F88B
:1060BC00042C0FF0D5FF63685A4A06A80133A56576
:1060CC00A260594D594A6360029210F00BF82B698B
:1060DC0013B12846FEF798FE2368554A1B6B2C61BA
:1060EC00934267D1236D002B4FD028690368514A26
:1060FC009B6A934240F08280036D002B50D0D8698C
:10610C002C691828024628BF18224B4B4B491860A3
:10611C000023C1E90033C1E90233C1E904330B7632
:10612C0004B3236846489E68864261D1206D0028DE
:10613C0054D00DF0C9FD2C69A4B12368DB6A414A27
:10614C00934258D1A06D18B115F0F6FF0023A3654A
:10615C00236D002B48D004F118000FF0C3FF324818
:10616C00FEF752FE354816B070BD159C002C8CD134
:10617C002E4B06A82C4D02930FF0B4FF2B693BB1AC
:10618C002846FEF741FE2C6102E0636D002BACD17A
:10619C002D4B2A4C0FCB07C42848237016B070BD6A
:1061AC00426D002A31D010692C691828024628BF8C
:1061BC001822AAE7204698470028E9D02869002829
:1061CC0094D11E491C4B0860186048610876C1E9DF
:1061DC000100C1E90300194816B070BD606D0028BC
:1061EC00ACD00BF059F9A6E7636D002BB3D1B6E731
:1061FC002046B0479FE720469847B0E798471828B5
:10620C0002462C6928BF18227FE72C6910467CE7D0
:10621C00E00D002090B20120CC590020B8380020AD
:10622C001439002094380020184A00200C36002025
:10623C002D01000051050000E46D0120E4ED00206B
:10624C00BD06000045010000EC0D002070B50D46A8
:10625C00044619214F4815F0C5FD00230A22294692
:10626C004D4813F0C1F84C4813F094F8E60712D4DB
:10627C00A0071CD4610727D4220731D4E3063BD4F2
:10628C00A60645D460064FD4210659D4E20563D442
:10629C00A3056DD470BD4DF60B00404A2946FFF79F
:1062AC001DFE3F482946FFF755FBA007E2D5FF2D01
:1062BC006AD02A463B49394816F032FC29463A48FE
:1062CC00FFF748FB6107D7D5344A4DF60500294640
:1062DC00FFF704FE29463548FFF73CFB2207CDD5D6
:1062EC004DF604002D4A2946FFF7F8FD29463048A3
:1062FC00FFF730FBE306C3D54DF60600274A2946C7
:10630C00FFF7ECFD29462B48FFF724FBA606B9D571
:10631C004DF60C00214A2946FFF7E0FD2648294698
:10632C00FFF718FB6006AFD54DF607001B4A294650
:10633C00FFF7D4FD29462148FFF70CFB2106A5D514
:10634C00164A4DF60D002946FFF7C8FD29461C4894
:10635C00FFF700FBE2059BD54DF609000F4A2946D5
:10636C00FFF7BCFD29461748FFF7F4FAA30591D5B2
:10637C0029464DF60800094AFFF7B0FD2946124898
:10638C00BDE87040FFF7E6BA104B044E0FCB07C6C2
:10639C00337093E7E815002040440020006E012084
:1063AC00C0140020181A0020C8140020CC1400209F
:1063BC00D4140020DC140020602B0020EC140020EE
:1063CC0004160020FC140020041500206C19002079
:1063DC002DE9F04304469DB00D46164600214FF4BE
:1063EC000042A94816F0C6FD0821A84815F0FAFC91
:1063FC0034B1204617F094F90146204615F0F2FC12
:10640C00A34812F0C7FF2246A24C0023A24908A8B9
:10641C00FEF74AFD236913B12046FEF7F5FC0C99F3
:10642C002161002900F0D6800A68D46B9B4A944203
:10643C004FF0000240F01B814FF47A74DFF8A88211
:10644C0018310CA809928DF82C200A94CDF82080D4
:10645C00CDE91A220FF0B2FE1A9B002B00F0F3804C
:10646C005C20002713F01CFE099B04464760C360A8
:10647C000CA90A9B183040F8083C9DF82C3000F809
:10648C00043C874B40F8183C864B40F8103C0FF00E
:10649C00E7FD6368C4F808800133A765049763605F
:1064AC004FF47A738DF8187005937F4B0794039310
:1064BC007E4B0CA808930FF015FE7D4C236913B18D
:1064CC007B48FEF7A1FC07982061002800F0908023
:1064DC00036878491A6B8A4240F0CC80026D002A1E
:1064EC0000F0A6809B6A74498B4240F0B880D0695A
:1064FC00DFF8EC810621C8F80000704815F072FC3A
:10650C002769002F00F0AF803B686D4A5B6B9342AC
:10651C0040F0F980D7F85890B9F1000F00F00681DF
:10652C00484617F0FDF80146484615F05BFC584804
:10653C0012F030FF0621634815F054FC0A220023A8
:10654C00D8F80010524812F04FFF514812F022FFB9
:10655C002769D8F80020002F00F083803B685A4947
:10656C00D3F80890894540F0DD80386D002800F0A4
:10657C00BD8045490DF0A8FB2769002F71D03B6801
:10658C005B6B4F4A934240F0C680BB6D002B00F012
:10659C00E4804E4A182108A816F07EFA2469B4B19A
:1065AC0023684B4ADB6A934240F0B980A06D18B166
:1065BC0015F0C2FD0023A365236D002B00F09E8017
:1065CC0004F118000FF08EFD3948FEF71DFCD8F8C9
:1065DC00004023E0344B4FF47A72354C039323691B
:1065EC0004918DF8181007910592002B7FF468AF79
:1065FC003421384815F0F6FB254812F0CBFE002468
:10660C00354B03F8014F0134B4F5006FF9D1182262
:10661C00324908A816F046FD314B1C60182208A917
:10662C002846346016F03EFD17481DB0BDE8F083D7
:10663C00426D002ADCD09B6A1F4A93420FD1436DF6
:10664C00FBB1186954E71B9B002B7FF409AF8DF845
:10665C0018300793CDE90434134B039328E798477C
:10666C0046E7204B95E73946DFF878905CE703A8BE
:10667C00A04722E790470028BAD02069002840F0B4
:10668C009680002034E700BFE4ED002018100020B5
:10669C0040440020344C0020C85900206D050000F7
:1066AC00B838002014390020683800200C3600203F
:1066BC00184A00202D01000051050000140A00208A
:1066CC00F90100001C0A0020BD060000841B0020FC
:1066DC004501000024100020E3ED00205C10002098
:1066EC00E46D0120A040002094380020786D002833
:1066FC003FF446AF35490AF0CFFE3DE7636D002B02
:10670C007FF45EAF60E7384698478146B9F1000FD9
:10671C003FF40DAF04E738469847034639E7204667
:10672C00984751E738462949C84725E74FF4807008
:10673C0015F0FAFC0146B865002843D080F80090AB
:10674C00386DE0B14FF480720FF078F8D7F85890AC
:10675C00B9F1000F3FF4EBAEE2E64FF48070019319
:10676C0015F0E2FC0146B865F0B1019B0370386D81
:10677C0090B14FF480720FF061F8BB6D09E7786D42
:10678C0018B14FF480720CF059FCD7F85890B9F14D
:10679C00000F3FF4CCAEC3E6786D18B14FF48072A5
:1067AC000CF04CFCBB6DF4E6094BBB65F1E60368E1
:1067BC00084A9B6A93427FF452AF026D002A3FF461
:1067CC003EAF94E6024B9946BB65A9E6E4ED00208A
:1067DC00DAB703205105000010B538B34FF08443ED
:1067EC004FF4801201211A20C3F8882013F0F4F81A
:1067FC000121192013F0F0F801211B2013F0ECF803
:10680C0001211C2013F0E8F801210A2013F0E4F810
:10681C0001210B2013F0E0F801210C2013F0DCF81F
:10682C0001211820BDE8104013F0D6B804461A20F8
:10683C00214613F0D1F82146192013F0CDF821464A
:10684C001B2013F0C9F821461C2013F0C5F8214673
:10685C000A2013F0C1F821460B2013F0BDF8214695
:10686C000C2013F0B9F82146182013F0B5F84FF0AE
:10687C0084434FF48012C3F8842010BD2DE9F843F3
:10688C000446002800F0D1807B4B1B78FBB97B4B76
:10689C004FF4807206207A4FC3F88820794E7A4DD7
:1068AC0013F088F898B179684FF4FA733268120CC7
:1068BC0003FB02F25208A5FB0232120A7B685B1A38
:1068CC009A42FBD8062013F075F80028EBD1012171
:1068DC00262013F081F84FF084464FF080530121AD
:1068EC0025204FF40025C6F8843013F075F8674B5B
:1068FC0001210F20C3F8845013F06EF8C6F88850AD
:10690C004FF400130125C6F888302946212013F0D6
:10691C0063F8294622204FF0844613F05DF829468F
:10692C0023204FF4802713F057F829462420DFF852
:10693C00648113F051F8294620204FF4805913F04C
:10694C004BF829461F2013F047F82946272013F04F
:10695C0043F82946092013F03FF82946082013F084
:10696C003BF82946072013F037F829460E2013F080
:10697C0033F82946042013F02FF82946142013F07D
:10698C002BF829460220414D13F026F83B4B1021E1
:10699C004FF000520020C3F884104FF08061C6F80D
:1069AC0084104021C3F884104FF40031C6F8847071
:1069BC00C5F884104FF48031C5F884104FF4006191
:1069CC00C5F884104FF48001C6F88420C8F88410F0
:1069DC004FF08051C5F88490C5F88470C5F88410C8
:1069EC00C5F884208022C3F88420FFF7F5FE02232B
:1069FC00C6F884900121C5F8843004234FF000427E
:106A0C00C5F884304FF40053C5F88410C8F884706E
:106A1C00C6F88420C6F884304FF08043C6F8843022
:106A2C0014B31B4B1C70BDE8F8830146262012F0F2
:106A3C00D3FF4FF084464FF08053214625204FF46E
:106A4C000025C6F8843012F0C7FF104B21460F20EA
:106A5C00C3F8845012F0C0FF4FF40013C6F88850EE
:106A6C002546C6F8843050E7052012F079FF084B14
:106A7C001C70BDE8F88300BF9553002000C0004295
:106A8C00001000E03C440020112397080040004215
:106A9C0010B803200080004228B10A4A136853B191
:106AAC00013313607047074B1868002801DD01386B
:106ABC00186020B1704701201060FFF7DFBEFFF7B0
:106ACC00DDBE00BFB86700208104634B4FF010029D
:106ADC0060D5C104C3F884204FF084434FF080622A
:106AEC0060D50105C3F884205B4B4FF0400260D5A4
:106AFC004105C3F884204FF084434FF4802260D5C5
:106B0C008105C3F88420554B4FF4003260D5C10584
:106B1C00C3F88420514B4FF4803260D50106C3F882
:106B2C0084204E4B4FF4006260D54106C3F884209C
:106B3C004FF084434FF0005260D58106C3F8842097
:106B4C00474B4FF4800260D5C106C3F88420434BF9
:106B5C004FF4805260D50107C3F884203F4B4FF4AB
:106B6C00802260D54107C3F884203C4B4FF0805203
:106B7C0060D58107C3F88420384B4FF0005260D5A4
:106B8C00C107C3F88420344B4FF0800260D5C3F8A2
:106B9C0084207047C104C3F888204FF084434FF021
:106BAC0080629ED40105C3F888202B4B4FF0400225
:106BBC009ED44105C3F888204FF084434FF48022C3
:106BCC009ED48105C3F88820244B4FF400329ED408
:106BDC00C105C3F88820214B4FF480329ED40106A6
:106BEC00C3F888201D4B4FF400629ED44106C3F8B5
:106BFC0088204FF084434FF000529ED48106C3F896
:106C0C008820174B4FF480029ED4C106C3F888200D
:106C1C00124B4FF480529ED40107C3F888200F4BBF
:106C2C004FF480229ED44107C3F888200B4B4FF0C1
:106C3C0080529ED48107C3F88820084B4FF0005235
