:0200000460009A
:100000004643464200000156000000000103030081
:1000100000000000000000000000000000000000E0
:1000200000000000000000000000000000000000D0
:1000300000000000000000000000000000000000C0
:1000400000000000010408000000000000000000A3
:100050000000800000000000000000000000000020
:100060000000000000000000000000000000000090
:100070000000000000000000000000000000000080
:10008000EB04180A063204260000000000000000FD
:10009000050404240000000000000000000000002F
:1000A0000000000000000000000000000000000050
:1000B0000604000000000000000000000000000036
:1000C0000000000000000000000000000000000030
:1000D00020041808000000000000000000000000DC
:1000E0000000000000000000000000000000000010
:1000F0000000000000000000000000000000000000
:10010000D8041808000000000000000000000000F3
:100110000204180804200000000000000000000095
:1001200000000000000000000000000000000000CF
:10013000600400000000000000000000000000005B
:1001400000000000000000000000000000000000AF
:10015000000000000000000000000000000000009F
:10016000000000000000000000000000000000008F
:10017000000000000000000000000000000000007F
:10018000000000000000000000000000000000006F
:10019000000000000000000000000000000000005F
:1001A000000000000000000000000000000000004F
:1001B000000000000000000000000000000000003F
:1001C000000100000010000001000000000000001D
:1001D000000001000000000000000000000000001E
:1001E000000000000000000000000000000000000F
:1001F00000000000000000000000000000000000FF
:10020000FFFFFFFFFFFFFFFFFFFFFFFFFFFFFFFFFE
:10021000FFFFFFFFFFFFFFFFFFFFFFFFFFFFFFFFEE
:10100000D1002043551600600000000000000000E1
:1010100020100060001000600094026000000000DA
:101020000000006000A0020000000000FFFFFFFFC2
:10103000FFFFFFFFFFFFFFFFFFFFFFFFFFFFFFFFC0
:10104000FFFFFFFFFFFFFFFFFFFFFFFFFFFFFFFFB0
:10105000FFFFFFFFFFFFFFFFFFFFFFFFFFFFFFFFA0
:10106000FFFFFFFFFFFFFFFFFFFFFFFFFFFFFFFF90
:1014000080B500F033FA764B0822C3F85421754AB0
:10141000754B9A420FD0754B9A420CD2581E801AC7
:1014200020F003000430704B184453F8041B42F8BA
:10143000041B8342F9D16E4A6E4B9A4210D06E4B18
:101440009A420DD26A4A6D48801A20F00300043097
:10145000684B184453F8041B42F8041B8342F9D12B
:10146000674A684B9A420BD2654B674AD21A22F000
:10147000030204321A44002143F8041B9342FBD1B7
:101480004FF0E0234FF47002C3F8882D00235F492A
:101490005F4A41F823200133B02BFAD15D4B802104
:1014A0005D4A03F8011B9342FBD1584E4FF0E024F4
:1014B000C4F8086D4A4D4FF08038C5F80481DFF854
:1014C0008CA1C5F800A1C5F8F480DFF88491C5F8B7
:1014D000F090D4F8243D43F4E023C4F8243D4F4F6A
:1014E000FB6923F07F0343F04003FB617B6A23F039
:1014F0007F0343F040037B62494B4FF0FF329A6613
:10150000DA661A675A6700F0B6F9464BB363464B82
:10151000F363632363610026A66103232361434BC6
:10152000C4F8203DD4F8FC3D43F08073C4F8FC3D82
:101530003F4B1A6842F001021A605A683D4B1A602C
:1015400000F05CFBC5F80481C5F800A1C5F8F48083
:10155000C5F8F090384800F013FDFB6E43F440539B
:10156000FB66364B1E60C3F80861C3F81861C3F808
:101570002861C3F8386103F5A0239B6B13F0010FBA
:1015800009D12F4B2F4A5A6542F615621A659A6B9C
:1015900042F001029A632A4A936843F00113936070
:1015A00000F0E2F900F09EFC00F0F2FC00F056FBC7
:1015B00000F0CAFC244A1368132BFCD900F0F2FB9C
:1015C000214A1368B3F5967FFBD300F052F900F07F
:1015D0004FF900F0D9FC00F0BFFC30BFFDE700BFC1
:1015E00000800D4000000000F4270060480A02005F
:1015F0000000002040320260C05E0020BF5E00207C
:10160000C05E002080C103207FC10320005C002059
:101610009D76010000E400E0A0E400E000C00F407F
:1016200000C00A40499201005192010000002020B0
:10163000001000E03CBD03200046C32300400840EA
:1016400000400D400000C05640BD03201B10182074
:101650000C0D1113074B084A5A64084A1A644FF4D8
:101660002A029A63064B9D46BFF34F8FBFF36F8FDD
:10167000FFF7C6FE00C00A40FFABAAAA0700200081
:101680000080052010B40F4A436903EB01131B7A55
:1016900002EB03139B680C4C1C60436903EB0113C2
:1016A00093F808C002EB0C125268DB6813604369C0
:1016B00003EB01110B690BB14A691A605DF8044B29
:1016C000704700BF2844002061F8010038B5044687
:1016D0004369027E03EB0212107A884209D01A7A1B
:1016E000FF2A06D0914207D01A7EFF2A01D08A42F3
:1016F00000D038BD012500E000251A6812685B683B
:101700001A4201D12576F4E7054B03EB00135B6821
:1017100005221A6029462046FFF7B4FFF2E700BF12
:101720002844002010B40F4A436903EB011393F8D7
:10173000283002EB03139B680B4C1C60436903EBDE
:10174000011393F828C002EB0C125268DB6A136095
:10175000436903EB01110B6B0BB14A6B1A605DF827
:10176000044B70472844002061F8010038B5044656
:101770004369427E03EB021292F8280088420BD0A4
:1017800093F82820FF2A07D0914208D093F83820F8
:10179000FF2A01D08A4200D038BD012500E0002593
:1017A0001A6812685B681A4201D16576F4E7054B46
:1017B00003EB00135B6805221A6029462046FFF7F9
:1017C000B1FFF2E72844002010B504460D4A936BA0
:1017D00023F47C0343F48023936341690A6813680C
:1017E00049680B431360036902221A61064900F03D
:1017F000B7FB217E2046FFF745FF617E2046FFF7BD
:1018000091FF10BD00C00F40A0860100094BC3F836
:10181000A010000400F47020C3F8A4000122C3F853
:10182000B0201A46536913F0010FFBD0014B01227F
:101830005A61704700402A400A4BC3F8A0000A4A88
:10184000C3F8A4200122C3F8B0201A46536913F04C
:10185000010FFBD0034BD3F8000121225A6180B263
:10186000704700BF00402A400400030070477047E3
:10187000704700BF70474FF0E0230021C3F8941D6C
:101880001022C3F89C2D284AC3F8A02D1122C3F8BA
:101890009C2D264AC3F8A02D1222C3F89C2D244A61
:1018A000C3F8A02D234AC3F89C2D234AC3F8A02DCA
:1018B000224AC3F89C2D224AC3F8A02D214A42F0A7
:1018C0001502C3F89C2D204AC3F8A02D02F18152C5
:1018D0000D32C3F89C2D1D4AC3F8A02D1C4AC3F835
:1018E0009C2D1C4AC3F8A02D1B4AC3F89C2D1B4AF3
:1018F000C3F8A02D1A4AC3F89C2D1A4AC3F8A02D8C
:101900000122C3F8942DBFF34F8FBFF36F8FC3F83D
:10191000501FBFF34F8FBFF36F8FD3F8142D42F4D6
:101920004032C3F8142D70473F0000102500080313
:1019300009001000130020002100020714000020FD
:101940002500081380C103200900001027000B1395
:101950001700004033001013180000602F000B0721
:10196000190000702F000B1310B582B08C4B8D4AFC
:10197000C3F85C228C49C3F86012C3F86422A2F554
:101980003042C3F8682202F5E042C3F86C22C3F883
:101990007022C3F87422C3F878221822DA661A6714
:1019A0005A679A67DA67C3F88020C3F88420C3F8BF
:1019B000882003F580630122C3F82C23C3F8302369
:1019C000C3F83423C3F83823C3F83C23C3F85023A7
:1019D000764B9A6976491140764A0A439A61D3F860
:1019E000842042F00C02C3F8842003F5D4131A6853
:1019F00042F002021A60196821F4F14121F07301EA
:101A00000904090C6C4A0A431A604FF0FF325A600D
:101A10006A49886802F5770202F56052024042F096
:101A200000529A60DA6822F07802DA601A6A644C2E
:101A30002240644802431A621A6A224002435A62F0
:101A4000614A9A62DA62D1F8B82022F03F0242F08D
:101A50000102C3F8B820D1F8BC2022F03F0242F0C6
:101A60000102C3F8BC2000221A614FF4005018662E
:101A70005649196740F20562C3F8802058665967D5
:101A8000C3F884201A6822F002021A60504A9A6150
:101A90000222DA6103F5007300214E4A43F8041B69
:101AA0009342FBD14C4A136843F00103136013685F
:101AB00013F0010FFBD1484B454A9A610224DC61C7
:101AC00040F2F562C3F8002240F26642C3F81022E9
:101AD00040F29942C3F82022404AC3F8302242F231
:101AE0000142C3F8342240F23542C3F840223C4A56
:101AF000C3F850223B4AC3F854223B4AC3F8602241
:101B000042F20122C3F8642200210846FFF77EFE5C
:101B100000210120FFF77AFE00212046FFF776FE24
:101B20000020FFF789FE45F60D53984207D02F4B52
:101B300000221A605A609A60DA6002B010BD00217B
:101B40000420FFF763FE4FF400010020FFF75EFE64
:101B50004FF400010120FFF759FE4FF40001204629
:101B6000FFF754FE4FF40000FFF766FE45F60D53F5
:101B700098420ED008201E4B18701E491E4A521A59
:101B800000230093012302EB0052184800F0ECF907
:101B9000D3E74FF400010420FFF738FE1020EAE7F6
:101BA00000801F40F9B00100F910010000C00F4093
:101BB000FFFCFF1F000300A01200FFFF00802A406F
:101BC00000FFF07C40000080FF000F8363000200F4
:101BD000F05AF05A00432A4000402A409F0418302F
:101BE000EB06180A063201263806180AECF5002022
:101BF00013C103200000007000000070F0B4164A0A
:101C000040274FF480314FF480564FF400554FF485
:101C1000404443F2420002E09461516190611369D3
:101C200013F0020FF8D113F4005F0CD013F4805FAF
:101C30000BD0002BF3DA13F4803F08D113F0400FE0
:101C400007D0F0BC70475561E9E75661E7E791615D
:101C5000E5E75761E3E700BF00800D4030B4454B36
:101C6000D3F8802022F00102C3F880200322C3F8B9
:101C70009020414AD2F8E020D1B2404C2160C2F31A
:101C80000B203F4D286007EE901AB8EE677AF3EE0E
:101C9000094A37EE646A3B4981ED006A07EE900A13
:101CA000F8EE676A120D07EE902AF8EE677A77EE83
:101CB000E67A3548C0ED007AD3F88020DFED335A5C
:101CC00037EE657A27EE277AC7EE067A77EEA67AA0
:101CD000FCEEE77A17EE90CA42EA0C52C3F8802075
:101CE00095ED006AB8EE466AD4ED007AF8EE677AB0
:101CF00090ED005AD1ED005AD3F89011DFED246A2F
:101D000077EEE66A66EE856A86EEA57A37EE067AA3
:101D1000BCEEC77A1F4A17EE100A02EA00420A43D5
:101D2000C3F89021D3F8901177EEE47A27EE857A04
:101D3000C7EE257A77EE867AFCEEE77A17EE902AE0
:101D4000C2F30B020A43C3F89021D3F8802042F07B
:101D50000202C3F88020104B002283F840200F4B72
:101D60000F4AC3F840214FF0E0230122C3F80821B5
:101D700030BC704700810D4000441F40F0B9012085
:101D8000ECB90120F4B90120F8B901200000AA4201
:101D90000000B4420000FF0F00E400E0005C0020FF
:101DA0007B78010038B5324B40F66172C3F82021D0
:101DB00000F0E2F82F4AD2F8803043F00303C2F873
:101DC00080302D4B40F20442C3F860212B4B1A683F
:101DD0002B4B1A4205D1284BD3F8A83113F0030F2F
:101DE0001CD0264B4FF000425A63234AD2F84031B0
:101DF00043F00203C2F84031D2F8403113F0020F31
:101E0000FAD14FF0E0234FF40032C3F88C221B4B81
:101E10004FF000429A63192000F0AAF8174B4FF0D8
:101E200080429A6300211960134C0A23C4F8A83138
:101E3000144D4FF42072284600F08AF84FF48103C5
:101E40002B604FF480032B64C4F8585140F24313C5
:101E5000C4F848310C4B0D4AC3F804224FF0E0237C
:101E60004FF40032C3F80C210123C4F8403138BDCF
:101E700000800D4000C00F4000002E4000900D403B
:101E8000001C1E0000000020005C0020757B01008B
:101E900008B50F4B1B6E13F0020F00D1FBBE72B6DC
:101EA0000C4B0022C3F84021A3F50D130A4A1A6413
:101EB000A3F1FF53A3F52B239D46BFF34F8F074894
:101EC000074B03604FF40013DB699B689847E6E714
:101ED00000441F4000002E4003002000008020200E
:101EE000000012EB114BDA6E42F44032DA66DA6E21
:101EF00042F44072DA66A3F5603340F237625A6406
:101F0000A0229A641A46936C13F0800FFBD1084B01
:101F100040F237625A64A0229A641A46936C13F016
:101F2000800FFBD1034B00221A70704700C00F4096
:101F300000800C4001C10320F8B500BFF8BC08BC0C
:101F40009E467047000000005FF800F0F57E00003C
:101F50005FF800F025AF01005FF800F0859D0100FB
:101F60005FF800F0F9D500005FF800F0E1A0010093
:101F70005FF800F0F56F01005FF800F015810100D7
:101F80005FF800F0056D01005FF800F079B5010021
:101F90005FF800F009A0010009010000C5990000E8
:101FA00099D60000C1F3000019FC0000019901005E
:101FB0000000000000000000000000000000000021
:101FC0000000000000000000000000000000000011
:101FD0000000000000000000000000000000000001
:101FE00000000000000000000000000000000000F1
:101FF00000000000000000000000000000000000E1
:1020000000000000000000000000000000000000D0
:1020100000000000000000000000000000000000C0
:1020200000000000000000000000000000000000B0
:1020300000000000000000000000000000000000A0
:102040000000000000000000000000000000000090
:102050000000000000000000000000000000000080
:102060000000000000000000000000000000000070
:102070000000000000000000000000000000000060
:102080000000000000000000000000000000000050
:102090000000000000000000000000000000000040
:1020A0000000000000000000000000000000000030
:1020B0000000000000000000000000000000000020
:1020C0000000000000000000000000000000000010
:1020D0000000000000000000000000000000000000
:1020E00000000000000000000000000000000000F0
:1020F00000000000000000000000000000000000E0
:1021000000000000000000000000000000000000CF
:102110003F000000000000000000000000001FFC65
:102120003F000000000000000000000000007FFCF5
:102130003F00000000000000000000000000FFFC65
:102140003F00000000000000000000000001FFFC54
:102150003F00000000000000000000000003FFFC42
:102160003F00000000000000000000000007FFFC2E
:102170003F3F007E3F3FC0FF001FFF80000FF9FC84
:102180003F3F007E3F7FF3FFC07FFFE0001FE1FC89
:102190003F3F007E3FFFFFFFE0FFFFE0000FC1FC7D
:1021A0003F3F007E3FFFFFFFE1FFFFF0000781FCA4
:1021B0003F3F007E3FC1FF07F1F807F0000301FC3D
:1021C0003F3F007E3F80FE03F00003F0000001FC73
:1021D0003F3F007E3F00FC03F03FFBF1FFF801FCB6
:1021E0003F3F007E3F00FC03F0FFFFF1FFF801FCE2
:1021F0003F3F007E3F00FC03F0FFFFF1FFF801FCD2
:102200003F3F007E3F00FC03F1FC03F1FFF801FCBF
:102210003F3F00FE3F00FC03F1F803F0000001FC2B
:102220003F3F81FE3F00FC03F1F807F0000001FC96
:102230003F1FFFFE3F00FC03F1FFFFF0000001FC29
:102240003F1FFFFE3F00FC03F1FFFFF0000001FC19
:102250003F0FFF7E3F00FC03F0FFFBF0000001FC9E
:102260003F03FE7E3F00FC03F07FF3F0000001FC23
:10227000000000000000000000000000000000005E
:10228000000000000000000000000000000000004E
:10229000000000000000000000000000000000003E
:1022A000000000000000000000000000000000002E
:1022B000000000000000000000000000000000001E
:1022C000000000000000000000000000000000000E
:1022D00000000000000000000000000000000000FE
:1022E00000000000000000000000000000000000EE
:1022F00000000000000000000000000000000000DE
:1023000000000000000000000000000000000000CD
:1023100000000000000000000000000000000000BD
:1023200000000000000000000000000000000000AD
:10233000000000000000000000000000000000009D
:10234000000000000000000000000000000000008D
:10235000000000000000000000000000000000007D
:10236000000000000000000000000000000000006D
:10237000000000000000000000000000000000005D
:10238000000000000000000000000000000000004D
:10239000000000000000000000000000000000003D
:1023A000000000000000000000000000000000002D
:1023B00070C00F40C00000001200000013000000B9
:1023C000D0841F4001000000FF000000FF0000005B
:1023D00000000000000000001300000013000000D7
:1023E000CC841F4001000000FF000000FF0000003F
:1023F00000000000000000001C000000C9D5000023
:1024000070C00F40000C000011000000110000001F
:10241000E0841F40020000002C00000012000000B9
:10242000E0841F40010000001000000011000000C7
:10243000DC841F40020000002D000000120000009C
:10244000DC841F40010000001E000000D9D5000000
:1024500080C00F40000000031900000010000000C1
:10246000E8841F4001000000FF000000FF000000A2
:102470000000000000000000180000001000000034
:10248000E4841F4001000000FF000000FF00000086
:1024900000000000000000001F000000E9D500005F
:1024A00000006000000000000000000000000000CC
:1024B00000E000000000000000000000000000013B
:1024C000E00000000000000000000000000001F03B
:1024D0000000000000000000000000000003F00009
:1024E00000000000000000000000000007F00000F5
:1024F000000000000000000000000007F8000000DD
:10250000000000000000000000000FF800000003C1
:10251000C0007E000001E0007F0FF800000003C053
:1025200000FE000001E000FFEFF800000003C00023
:10253000FE000001E000FFFFF800000003C000F013
:102540000000000F007FFE7FC0000003C000F0000D
:1025500000000F003FFE7FF83FF1FBCFFCFEF3BC15
:102560003DEFE01FFE7FFF7FFBFFDFFEFEFFBC3D78
:10257000EFE01FC6FFFF7FFBFFDFFEFEFFBC3DEF6E
:10258000E00FE3C7FE787BC3DE1EF0FFBC3DEF002B
:1025900007FF87FC787BC3DE1EF0F83C3DEF0001AF
:1025A000FFFFF0007BC3C01EF0F03C3DEF0001F3E5
:1025B0007FE03FFBC3CFFEF0F03C3DEF0003E33F85
:1025C000807FFBC3DFFEF0F03C3DEF0007E73C00FF
:1025D000787BC3DE1EF0F03C3DEF0007FFBE0078C5
:1025E0007BC3DE1EF0F03C3DEF0007FFFE00787B72
:1025F000C3DE1EF0F03C3DEF000FFFFE007FFBFF4F
:10260000DFFEF0F03FFDEFE00FFFFF007FFBFFDF9D
:10261000FEF0F03FFDEFE00FF9FF003E79F9CF9EAD
:10262000F0F01F3DE7E01FF1FF0000000000000098
:1026300000000000001F80FF007FFFFFFFFFFFFF83
:10264000FFFFFFE01C007F007FFFFFFFFEB46D88EF
:102650008D18E000001F007FFFFFFFFE95AD7DB5E8
:1026600077E000000F007FFFFFFFFEA5AD9D8D19F5
:10267000E0000006007FFFFFFFFEB5ADEDB57EE098
:1026800018035400650065006E0073007900200097
:102690004D004900440049001803540065006500DE
:1026A0006E00730079006400750069006E006F00B1
:1026B0000403090409029500030100C032080B005D
:1026C00002020201000904000001020201000524C7
:1026D000001001052401010104240206052406005E
:1026E000010705820310001009040100020A00001E
:1026F00000070503024000000705830240000009AF
:102700000402000201030000072401000125000665
:10271000240201010006240202020009240301032D
:10272000010201000924030204010101000905045A
:102730000240000000000525010101090584024056
:1027400000000000052501010300000009029500BA
:10275000030100C032080B0002020201000904005C
:1027600000010202010005240010010524010101FD
:102770000424020605240600010705820310000553
:1027800009040100020A000000070503020002001C
:102790000705830200020009040200020103000091
:1027A000072401000125000624020101000624027D
:1027B00002020009240301030102010009240302AB
:1027C00004010101000905040200020000000525C2
:1027D0000101010905840200020000000525010134
:1027E000030000000A060002EF02014001000000A1
:0427F00000010000E4
:1027F40000000000000000000000000000000000D5
:1028040000000000000000000000000000000000C4
:10281400F8B54FF084439D695B691D400FD04FF0BC
:1028240084439D61244F012695FAA5F4B4FA84F4F7
:1028340057F82430984706FA04F4A543F4D11F4B03
:102844009D695B691D400ED01C4B9D611C4F012688
:1028540095FAA5F4B4FA84F457F82430984706FAA4
:1028640004F4A543F4D1174B9D695B691D400ED058
:10287400144B9D61144F012695FAA5F4B4FA84F41F
:1028840057F82430984706FA04F4A543F4D10F4BC3
:102894009D695B691D400ED00C4B9D610C4F012658
:1028A40095FAA5F4B4FA84F457F82430984706FA54
:1028B40004F4A543F4D1F8BD585000200040004270
:1028C400D8500020008000425851002000C000422F
:1028D400D85100200548064B1B1AD90F01EBA30160
:1028E400491002D0034B03B118477047C05E002063
:1028F400C05E00200000000008B5054B1BB105496F
:102904000548AFF30080BDE80840FFF7E3BF00BF10
:10291400000000006878012000A0026000207047D9
:102924007047006920B108B50368DB68984708BDA3
:1029340000207047006920B108B503681B699847F7
:1029440008BD00207047006920B108B503685B69C1
:10295400984708BD4FF0FF307047006920B108B5B3
:1029640003689B69984708BD7047006968B100B562
:1029740083B003689B6801220DF10701984738B1C1
:102984009DF8070003B05DF804FB4FF0FF3070477B
:102994004FF0FF30F6E700B583B08DF807100069FB
:1029A40040B10368DB6801220DF10701984703B0C9
:1029B4005DF804FB0020FAE7036D53B11A7812F0B6
:1029C400080F20D0D8695B69C01A48BF6FF0004077
:1029D4007047436DCBB193F8312012F0080F16D035
:1029E40010B41A69596918685C68131A61EB040217
:1029F4001846B3F1004F72F1000201D36FF00040AA
:102A04005DF8044B70470020704700207047002396
:102A14001A461846B3F1004F72F1000228BF6FF056
:102A240000407047036D13B1586900217047436D2E
:102A340013B1186859687047002001467047036D48
:102A440013B1D86900217047436D13B118695969EE
:102A54007047002001467047036D0BB10120704799
:102A6400406D003818BF01207047704738B52D4CB1
:102A740001231A46202120460DF0A4F894F8A22040
:102A840094F8A330934247D92346511C84F8A210EA
:102A940013449B7EDBB2244A1370224C402384F8F7
:102AA400A530012584F8305184F82F5123681B6820
:102AB400102120469847294620460DF007F82B465A
:102AC4002A46202120460DF07DF894F8A22094F89F
:102AD400A330934223D92346511984F8A2101344F6
:102AE4009B7EDBB2114A13700E4C402384F8A53050
:102AF400012584F8305184F82F5123681B68132171
:102B040020469847294620460CF0E0FF084B002257
:102B14001A70084B1D7038BD4FF0FF33BAE74FF001
:102B2400FF33DEE70C6800200DC103200FC1032032
:102B340010C1032002C1032038B52D4C01231A46CD
:102B4400202120460DF03EF894F8A22094F8A330FA
:102B5400934247D92346511C84F8A21013449B7E08
:102B6400DBB2244A1370224C402384F8A53001259B
:102B740084F8305184F82F5123681B6811212046B2
:102B84009847294620460CF0A1FF2B462A462021CF
:102B940020460DF017F894F8A22094F8A33093423D
:102BA40023D92346511984F8A21013449B7EDBB227
:102BB400114A13700E4C402384F8A530012584F883
:102BC400305184F82F5123681B68132120469847FD
:102BD400294620460CF07AFF084B00221A70084B55
:102BE4001D7038BD4FF0FF33BAE74FF0FF33DEE717
:102BF4000C6800200DC1032010C103200FC1032065
:102C040002C1032008B5172016F028FE70B9094B3D
:102C14001B680133012B0ADD064B00221A60064BA8
:102C240001221A70054B1A68054B1A6008BD014A47
:102C34001360F7E72877012030C1032040BD03204B
:102C44009CBB012010B5044619F018FB204610BDAA
:102C54008A79A2F1500313F0800F20D1F0B585B02A
:102C640002F26C724B790133DBB20D798E784F78B6
:102C74000978046D4CB103910297019600950421E3
:102C8400204612F0C3FB05B0F0BD406D48B103917E
:102C9400029701960095042110F0DDFCF3E7002073
:102CA40070470020EFE710B582B003460C46006D74
:102CB40010B301AA0DF1060112F082F9D0B1BDF8EA
:102CC4000630BDF8042053EA02011FD002F01F01B0
:102CD40049002170C2F345116170D20AA27003F059
:102CE4001F022271C3F34312013A62715B0A03F5B6
:102CF400EA63A37102B010BD586D28B101AA0DF1A9
:102D040006010FF0F7FBD9E70020F3E70020F1E715
:102D140010B582B003460C46006D10B301AA0DF144
:102D2400060112F03DF9D0B1BDF80630BDF804201B
:102D340053EA02011FD002F01F0149002170C2F3BF
:102D440045116170D20AA27003F01F022271C3F30D
:102D54004312013A62715B0A03F5EA63A37102B09C
:102D640010BD586D28B101AA0DF106010FF0B0FB9A
:102D7400D9E70020F3E70020F1E710B50446006D21
:102D840020B1037813F0700F0ED110BD636D002BCA
:102D9400FBD093F8313013F0500FF6D0606D002261
:102DA40000230FF002FDF0E7002111F0C1FE606D79
:102DB4000028EAD0F3E708B50346806C10B111F09F
:102DC40081FE08BDD86C10B10FF0D9FCF9E74FF0C3
:102DD400FF30F6E700B583B00346806C58B101229A
:102DE4000DF1070111F099FD01280FD19DF807009D
:102DF40003B05DF804FBD86C28B101220DF1070182
:102E04000FF0F2FBF0E74FF0FF30F1E74FF0FF3047
:102E1400EEE708B50346806C10B111F0D7FF08BD8A
:102E2400D86C0028FBD010F08FFAF8E700B583B017
:102E340003468DF80710806C38B101220DF10701AB
:102E440012F09CFB03B05DF804FBD86C28B101229E
:102E54000DF1070110F02CFDF4E70020F2E700006B
:102E640010B50446836D0BB1A06D10BD4FF4807096
:102E740019F070FD0146A06580B100230370206D38
:102E840020B14FF4807213F043FDEDE7606D00282C
:102E9400EAD04FF4807211F0ABF9E5E7014BA3657A
:102EA400E2E700BFFEC0032010B50446806D18B1F0
:102EB40019F058FD0023A365236D23B104F1180014
:102EC40014F0F2F810BD636D002BF7D1FAE710B5DA
:102ED400046D94B14FF0FF3191424FF000019941DC
:102EE40001D2002010BD1146204611F021FE002819
:102EF400F8D0204612F008FBF4E7446D44B12046B4
:102F04000FF053FC0028EDD0204610F05EFCE9E7FA
:102F14000020E7E770B594B00546002201924FF413
:102F24007A7302938DF80C20129213921F4B009324
:102F3400183104A814F006F9129B002B2AD05C2047
:102F440019F020FB044600264660194B0360019BE0
:102F5400C360184B8360029B03619DF80C300375BA
:102F640004A9183014F05FF8104BA360A6656E60D6
:102F74004FF47A73AB602E730F4B2B602C61636834
:102F8400013363600D4B009304A814F08DF82846B8
:102F940014B070BD139B002BD1D16B604FF47A72C7
:102FA400AA602B73044A2A602B61EBE714400020CB
:102FB4003840002094400020E83F00208C3D002051
:102FC40008B50346006D10B111F07CFD08BD586DC5
:102FD40010B10FF0D4FBF9E74FF0FF30F6E7036DC3
:102FE40033B11B7813F0700F14BF01200020704719
:102FF400436D3BB193F8313013F0500F14BF0120EF
:10300400002070470020704708B50346006D10B1DA
:1030140011F083FC08BD586D10B10FF0E5FAF9E723
:103024004FF0FF30F6E708B50346006D10B111F01C
:10303400CDFE08BD586D0028FBD010F085F9F8E7E7
:1030440010B504460C4B0360806D18B119F08AFC6E
:103054000023A365236D5BB104F1180014F024F878
:10306400064BA36004F1180014F01EF8204610BDAE
:10307400636D002BF0D1F3E7384000208C3D002035
:1030840010B504460E4B0360806D18B119F06AFC4C
:103094000023A365236D7BB104F1180014F004F838
:1030A400084BA36004F1180013F0FEFF5C212046D6
:1030B40019F06CFA204610BD636D002BECD1EFE7DC
:1030C400384000208C3D002008B50346006D10B147
:1030D40012F054FA08BD586D10B110F0E9FBF9E78D
:1030E4000020F7E708B50346806C10B112F046FAE9
:1030F40008BDD86C10B110F0DBFBF9E70020F7E74E
:103104008A79A2F1500313F0800F20D1F0B585B075
:1031140002F26C724B790133DBB20D798E784F7801
:103124000978046D4CB10391029701960095022130
:10313400204612F06BF905B0F0BD406D48B1039123
:10314400029701960095022110F085FAF3E700201A
:1031540070470020EFE7836C53B11A7812F0080F20
:1031640020D0D8695B69C01A48BF6FF0004070472F
:10317400C36CCBB193F8312012F0080F16D010B401
:103184001A69596918685C68131A61EB04021846D5
:10319400B3F1004F72F1000201D36FF000405DF80B
:1031A400044B7047002070470020704700231A46E4
:1031B4001846B3F1004F72F1000228BF6FF00040CF
:1031C400704710B5029C2CB1012C19D0022C34D0BC
:1031D400002010BD046D6CB14FF0FF3191424FF0EF
:1031E4000001994101D20020F3E71146204611F075
:1031F4009FFCEEE7406D00283CD00FF0D6FAE8E7DC
:10320400046D64B16169891843F100034FF0FF3222
:103214008A424FF000029A410BD20020D9E7406D58
:1032240050B301684468521843EB04030FF0BDFA2D
:10323400CFE7204611F07CFCCBE7046D64B1E16973
:10324400891843F100034FF0FF328A424FF0000225
:103254009A410BD20020BCE7406D78B10169446902
:10326400521843EB04030FF0A0FAB2E7204611F022
:103274005FFCAEE70020ACE70020AAE70020A8E747
:1032840010B50446094B0360036963B15A68013AF7
:103294005A6042B900690368DB6A9847206910B133
:1032A40003685B689847204610BD00BFE83F0020D4
:1032B40010B504460B4B0360036963B15A68013AC5
:1032C4005A6042B900690368DB6A9847206910B103
:1032D40003685B6898471421204619F057F9204683
:1032E40010BD00BFE83F002008B518F0CFF910B9B1
:1032F40008BD18F009FA18F0C9F90028F9D101201D
:10330400F6E7000008B5084B1B7803B908BD074B66
:1033140001221A70032016F097FD1D2016F094FD6B
:10332400014B00221A70F1E70EC1032029C10320CA
:1033340038B504460A4D2B685B68112209492846B2
:10334400984700230A222146284619F007F8284600
:1033540018F0DCFF2146002016F038FC38BD00BF11
:10336400684A0020AC1F002038B5002016F01EFB70
:1033740004460C4D2B685B6811220B49284698477C
:1033840000230A222146284618F0E8FF284618F0B0
:10339400BDFF022C01D8204638BD0020FFF7C8FF2E
:1033A4000024F8E7684A0020981F002038B5044636
:1033B4000A4D2B685B681B2209492846984700235D
:1033C4000A222146284618F0C9FF284618F09EFF15
:1033D4002146012016F0FAFB38BD00BF684A0020E0
:1033E4006C30002038B5012016F0E0FA04460A4D8E
:1033F4002B685B681B2209492846984700230A2248
:103404002146284618F0AAFF284618F07FFF032C0F
:1034140034BF2046002038BD684A002030300020E8
:1034240038B504460A4D2B685B681D2209492846B5
:10343400984700230A222146284618F08FFF284681
:1034440018F064FF2146022016F0C0FB38BD00BF0F
:10345400684A00203C2E002010B5022016F0A6FA7F
:10346400044650B1084B02460849094818F068FF61
:10347400112C28BF0024204610BD064B002203490E
:10348400034818F05DFFF6E7002F00200C2E002003
:10349400684A0020302E002070B50D4614461E46A2
:1034A400134602460449054818F04AFF44EA060157
:1034B400284616F08BFB70BD542C0020684A00206F
:1034C40030B583B00546084616F070FA044610F08D
:1034D400010F0B4B0B4A08BF134610F0020F0A4AA8
:1034E400084908BF0A460192009320F0F0032A46D7
:1034F4000649074818F024FF204603B030BD00BF3A
:10350400BC2B0020002F0020980C0020C42B00208E
:10351400684A002008B50246A02303210148FFF7AA
:10352400BBFF08BD1831002008B503210948FFF787
:10353400C7FF00F0F003A02B02D100F00F0008BD7C
:103544000549064818F0FCFE0320FFF7E3FF0320BB
:10355400F3E700BF18310020DC300020684A002067
:1035640008B50246A02304210148FFF795FF08BDD2
:103574008830002008B504210948FFF7A1FF00F0B6
:10358400F003A02B02D100F00F0008BD0549064846
:1035940018F0D6FE0320FFF7E3FF0320F3E700BF94
:1035A40088300020DC300020684A002008B502463C
:1035B400A02305210148FFF76FFF08BD303100202B
:1035C40008B505210948FFF77BFF00F0F003A02BA5
:1035D40002D100F00F0008BD0549064818F0B0FEFE
:1035E4000320FFF7E3FF0320F3E700BF303100209F
:1035F400DC300020684A002008B50246A0230621DA
:103604000148FFF749FF08BD0031002008B5062135
:103614000948FFF755FF00F0F003A02B02D100F09A
:103624000F0008BD0549064818F08AFE0220FFF77E
:10363400E3FF0220F3E700BF00310020C030002088
:10364400684A002008B50246A02307210148FFF775
:1036540023FF08BDD02F002008B507210948FFF734
:103664002FFF00F0F003A02B02D100F00F0008BDE3
:103674000549064818F064FE0220FFF7E3FF022024
:10368400F3E700BFD02F0020C0300020684A00209C
:1036940010B5041E064A074B08BF1A4606490748D8
:1036A40018F04EFE2146082016F090FA10BD00BF17
:1036B40018190020C42E0020C82E0020684A0020BB
:1036C40010B5082016F072F9041E064A064B08BF0E
:1036D4001A460649064818F033FE201E18BF01207A
:1036E40010BD00BF18190020C42E0020AC2E0020ED
:1036F400684A002010B5041E064A074B08BF1A4644
:103704000649074818F01CFE2146092016F05EFA07
:1037140010BD00BF7C2F0020842F0020902F00209C
:10372400684A002010B5092016F040F9041E064A24
:10373400064B08BF1A460649064818F001FE201E2B
:1037440018BF012010BD00BF7C2F0020842F002053
:103754000C2F0020684A002010B5041E064A074BAF
:1037640008BF1A460649074818F0EAFD21460C200E
:1037740016F02CFA10BD00BF7C2F0020842F0020EF
:10378400A0300020684A002010B50C2016F00EF975
:10379400041E064A064B08BF1A460649064818F096
:1037A400CFFD201E18BF012010BD00BF7C2F0020BC
:1037B400842F00204C300020684A002010B50446B5
:1037C40002460449044818F0BBFD21460D2016F0BA
:1037D400FDF910BDB02F0020684A002008B5002074
:1037E400FFF7A6FD0020FFF7E1FD0020FFF718FE1C
:1037F4000320FFF78FFE0320FFF7B2FE0320FFF73D
:10380400D5FE0220FFF7F8FE0220FFF71BFF012080
:10381400FFF73EFF0020FFF76DFF0120FFF79CFF3D
:103824003220FFF7CBFF08BD10B578B90B4C2368E5
:103834005B680E220A4920469847204618F066FD28
:103844004FF0E023074AC3F80C2D10BDFFF7C6FF65
:103854004FF47A7015F0C6FFE8E700BF684A00200D
:10386400D43100200400FA0510B50D2016F09EF89E
:10387400044602460849094818F062FD632C01D841
:10388400204610BD0649054818F05AFD3220FFF7BE
:1038940095FF3224F4E700BF2C2F0020684A002053
:1038A4004C2F002038B50B2016F080F8040204F4E5
:1038B4007F440A2016F07AF80444A4B242F20F734B
:1038C4009C4215D8651CADB29D4288BF0025E9B263
:1038D4000A2016F07BF9C5F307210B2016F076F9C0
:1038E4002B4622460449054818F02AFD204638BDD7
:1038F40000240125EBE700BFA82C0020684A002023
:1039040070B5054602460D490D4818F019FD05F13C
:1039140008062C4614F8011B04F2FF10401B16F095
:1039240055F9B442F6D1064C23685B680522054973
:1039340020469847204618F0E9FC70BD5C2E002014
:10394400684A0020842E0020F8B507460F48036813
:103954005B6824220E4998477C1EFE1D40F2012517
:10396400ED1B281916F022F804F8010FB442F8D11F
:1039740000233B72054C23685B68052205492046F9
:103984009847204618F0C2FCF8BD00BF684A0020E2
:10399400E42D0020842E002010B501281BD002281D
:1039A40027D050B11A4C23685B681A221949204663
:1039B4009847204618F0AAFC0CE0154C23685B6875
:1039C4000D22154920469847204618F09FFC134BBA
:1039D40000221A6010BD0E4C23685B680B2210494C
:1039E40020469847204618F091FC0C4B01221A609F
:1039F400F0E7074C23685B680C220A492046984785
:103A0400204618F083FC054B02221A60E2E700BF4F
:103A1400684A0020E80D0020BC0D0020385000202A
:103A2400CC0D0020D80D0020992800F28180DFE819
:103A340000F0814D4F517F7F7F7F7F7F7F7F7F7F2E
:103A44007F7F53557F7F7F7F7F7F7F7F7F7F7F7FD8
:103A54007F7F7F7F7F7F7F7F7F7F7F7F7F7F7F7F72
:103A64007F7F7F7F7F7F7F7F7F7F7F7F7F7F7F7F62
:103A74007F7F7F7F7F7F7F7F7F7F7F7F7F7F7F7F52
:103A84007F7F7F7F7F7F7F577F7F7F7F7F7F7F7F6A
:103A94007F7F7F7F7F7F7F7F597F7F7F7F7F7F7F58
:103AA4007F7F5B5D5F617F7F7F7F7F7F7F7F7F7FA6
:103AB4007F7F636567696B6D6F7173757F7F7F7FD0
:103AC4007F7F777F7F7F7F7F7F797B7D1A487047F9
:103AD4001A4870471A4870471A4870471A4870477E
:103AE4001A4870471A4870471A4870471A4870476E
:103AF4001A4870471A4870471A4870471A4870475E
:103B04001A4870471A4870471A4870471A4870474D
:103B14001A4870471A4870471A4870471A4870473D
:103B24001A4870471A4870471A4870471A4870472D
:103B34001A4870471A487047A4080020B4080020A7
:103B4400C4080020D4080020E0080020F008002069
:103B5400FC0800200809002014090020280900207E
:103B6400380900204809002058090020680900206D
:103B7400780900208809002098090020A409002061
:103B8400B4090020C8090020D8090020EC0900204D
:103B9400F8090020000A00200C0A0020140A002062
:103BA40098080020032809D8DFE800F00A02040678
:103BB40004487047044870470448704704487047F5
:103BC40004487047BC320020C8320020D4320020A0
:103BD400140A0020B0320020F8B50446134B1E68C6
:103BE4000027134D0EE004F0F0041034E4B2912CDD
:103BF40028BF002412E02046FFF716FF294619F0DB
:103C0400EBFE88B904F00F03092BECD004F0F004A8
:103C1400082B94BF01333B461C44E4B2002EEAD087
:103C24002046FFF7BFFFE9E72046F8BD4C770120A7
:103C3400140A0020F8B50446104B1E689027104D56
:103C44000AE03C460934E4B296B92046FFF7ECFE9C
:103C5400294619F0C1FE78B914F00F0F05D114F0FC
:103C6400F004EED0103CE4B2ECE7013CE4B2EBE744
:103C74002046FFF797FFEBE72046F8BD4C7701207D
:103C8400140A002070B52C4C002120460CF033FFA0
:103C94000123238223236382022120460CF025FF83
:103CA400264B1B78012B1AD0022B2DD033B1244B79
:103CB4003F221A705A70002098700FE0204D5F2345
:103CC4002B706B700024AC7028461AF0D1F80246B1
:103CD400194801684E682946B047204670BD184D02
:103CE400184B1B781B0930332B705F236B70002437
:103CF400AC7028461AF0BCF802460F4801684E68BA
:103D04002946B0472046E9E70E4B1B780C4C1A09AC
:103D14003032227003F00F03303363700023A3703A
:103D240020461AF0A5F80246034801684D6821466A
:103D3400A8470120D2E700BFE073002027C1032079
:103D44008878012011C1032070B515460C4C2082DF
:103D540061820126E682A682002120460CF0CBFE79
:103D6400314620460CF0C1FE45B128461AF080F8D1
:103D74000246204621684C682946A04770BD00BF12
:103D8400E07300200D4B1B6893B10D4A10680D4A77
:103D940011681A46002BB8BF5A1C00EB62028A4213
:103DA40008DC0344994207DD054B19600020704785
:103DB4000120704701207047002070471C760120C5
:103DC40010760120807801200D4B1B6893B10D4AB9
:103DD40010680D4A11681A46002BB8BF5A1C00EB34
:103DE40062028A4208DC0344994207DD054B1960EC
:103DF4000020704701207047012070470020704761
:103E0400187601200C760120807801200D4B1B6868
:103E140093B10D4A10680D4A11681A46002BB8BFB9
:103E24005A1C00EB62028A4208DC0344994207DD13
:103E3400054B19600020704701207047012070472E
:103E44000020704714760120087601208078012034
:103E540010B50446FFF796FF00B910BD22461421A1
:103E64000120FFF771FFF8E710B50446FFF7ACFF38
:103E740000B910BD224626210120FFF765FFF8E7AF
:103E840010B50446FFF7C2FF00B910BD2246382121
:103E94000120FFF759FFF8E738B5044609481E2307
:103EA40003822623438201210CF01FFE44B12046E5
:103EB40019F0DEFF0246034801684D682146A84711
:103EC40038BD00BFE07300204200064B1B68B3EB13
:103ED400400F05D0034B1A60034B1A68034B1A605A
:103EE400704700BF1C7601208078012010760120E5
:103EF4004200064B1B68B3EB400F05D0034B1A601E
:103F0400034B1A68034B1A60704700BF18760120F0
:103F1400807801200C7601204200064B1B68B3EB2D
:103F2400400F05D0034B1A60034B1A68034B1A6009
:103F3400704700BF147601208078012008760120A4
:103F4400104B0344092B18D8DFE803F009070B0FC3
:103F5400151305190D110C4870470C4870470C488F
:103F640070470C4870470C4870470C4870470C4821
:103F740070470C4870470C4870470C4870470C4811
:103F8400704700BFFC27FFFF2C05002034050020EC
:103F94003C050020440500204C0500205405002069
:103FA4005C050020640500206C05002074050020D9
:103FB400240500201C38112825D8DFE800F0262627
:103FC40009090C0C0F0F121215121B181E1E2121A9
:103FD4004DF60A0070474DF6050070474DF6040093
:103FE40070474DF6060070474DF60C0070474DF6CD
:103FF400070070474DF60D0070474DF609007047F5
:104004004DF608007047002070474DF60B007047CE
:1040140011F0010F18BF01F1FF318C460029B8BF20
:1040240001F1010C5FEA6C0C0BD0431E0131084412
:104034009C4413F8012F10F8011D19700270634598
:10404400F7D1704708B5274B1B68042B0AD8DFE863
:1040540003F0030B18283800234B244A1A60244821
:10406400FFF7F6FE012008BD1F4B204A1A60214BC2
:104074001888FFF765FFFFF7EBFE1D48FFF7F4FE16
:10408400F0E7194B1C4A1A601A4B1888FFF758FFBF
:10409400FFF7DEFE194B1888FFF752FFFFF7E4FE27
:1040A400E0E7114B144A1A60124B1888FFF748FFD7
:1040B400FFF7CEFE114B1888FFF742FFFFF7D4FE3F
:1040C400D0E7094B1868FFF7C3FE0A4B1888FFF7BF
:1040D40037FFFFF7C9FE094B1888FFF731FFFFF7D9
:1040E400CFFEBFE7D8BF0320BC520020A811002098
:1040F400BC110020F2C00320C8110020F4C003202A
:10410400002929D0042822D8DFE800F003090F157C
:104114001B00124B4FF400621A80114870470F4B7A
:104124004FF480521A800F4870470C4B4FF40052E2
:104134001A800D487047094B4FF480421A800B488F
:104144007047064B4FF400421A8009487047034BEE
:1041540000221A800748704707487047E0C00320D0
:10416400382B0020442B0020502B00205C2B0020F7
:104174006C2B00207C2B00208C2B002038B5404B6E
:104184001B68072B11D8DFE803F0041212495656B6
:104194005A713C4B3C4A1A603C48FFF759FE0920CF
:1041A400FFF7BAFE3A48FFF76BFE012038BD394CE1
:1041B400394D344B1B6822883849284619F0C6F813
:1041C4002846FFF745FE2388B3F5005F1ED009D9C2
:1041D400B3F5804F1ED0B3F5004F10D13048FFF730
:1041E40043FE0CE0B3F5006F06D0B3F5805F06D153
:1041F4002C48FFF739FE02E02A48FFF735FE00207D
:10420400FFF78AFE2848FFF73BFECEE72448FFF776
:104214002BFEF4E72248FFF727FEF0E72348FFF7D9
:1042240017FE0F20FFF764FE2148FFF71DFE1E480E
:10423400FFF726FEB9E71F48FFF70AFEB5E70F2090
:10424400FFF742FE1C48FFF703FE134C1B4B1A8872
:104254001B49204619F07AF80020FFF749FE204652
:10426400FFF702FE1048FFF70BFE9EE70020FFF762
:104274002BFE0020FFF73CFE0020FFF74DFE94E7E5
:10428400E4F4002034500020A8110020D4200020A1
:10429400E8200020E0C00320E8F4002000210020F2
:1042A4002821002010210020402100205821002036
:1042B400682100207C21002088210020DCC003200C
:1042C4009C2100201378D3B12DE9F04184B00C4631
:1042D400164607B2DFF828800125029500220192D4
:1042E400009522B2394640460CF066FB0834A4B26D
:1042F40016F8013F002BF0D104B0BDE8F0817047FF
:10430400E073002000B585B00292032301930A23D1
:1043140000930AB201B203480CF034F805B05DF81A
:1043240004FB00BFE073002010B500213E480CF0F0
:10433400E2FB3E4A01210220FFF7C4FF3C4C2288E5
:1043440002F0010232210020FFF7DCFF394A01218B
:104354000F20FFF7B7FF2288C2F3400232210D205D
:10436400FFF7D0FF344A01211C20FFF7ABFF22885E
:10437400C2F3800232211A20FFF7C4FF2F4A012121
:104384002920FFF79FFF2288C2F3C0023221272091
:10439400FFF7B8FF2A4A01213620FFF793FF22884E
:1043A400C2F3001232213420FFF7ACFF254A012169
:1043B4004320FFF787FF2288C2F3401232214120B5
:1043C400FFF7A0FF204A01215020FFF77BFF22883E
:1043D400C2F3801232214E20FFF794FF1B4A0121C1
:1043E4005D20FFF76FFF2288C2F3C01232215B20E9
:1043F400FFF788FF164A01216A20FFF763FF22882E
:10440400C2F3002232216820FFF77CFF114A012108
:104414007720FFF757FF2288C2F34022322175200C
:10442400FFF770FF10BD00BFE07300209418002058
:10443400C45900209C180020340500203C050020AD
:1044440044050020A018002054050020A8180020CE
:10445400640500206C05002010B5134C4FF0000CCF
:1044640094F800E0864507D00CF1010C0C34BCF143
:104474000D0FF5D1002010BD0B480CEB4C0400EBE4
:104484008404A48814800CEB4C0C00EB8C00C278E0
:1044940032B93F298CBF032201221A700120EAE7B6
:1044A4001A700120E7E700BF3874002008B50D4BEF
:1044B40018700D4A0D4B002808BF1A460C490D48C8
:1044C40017F03EFF074B1978081E18BF01200A4A4F
:1044D40092F8703061F3000360F3470382F87030A0
:1044E40008BD00BF22C1032018190020C42E0020DB
:1044F400401D0020684A00205077012010B5044672
:10450400064B1978064A074B002908BF1A46064984
:10451400064817F015FF014B1C7010BD21C1032084
:1045240018190020C42E00204C1C0020684A0020CA
:1045340010B5044602460349034817F001FF034B34
:104544001C7010BD60200020684A002034C1032084
:10455400034B01221A70034B1A68034B1A6070470D
:1045640008C1032040BD0320ACBB0120034B012242
:104574001A70034B1A68034B1A60704707C1032073
:1045840040BD0320A8BB012008B5044B1B7813F0E1
:10459400010F00D108BDFFF7E9FFFBE71FC10320AE
:1045A40008B5044B1B7813F0010F00D108BDFFF7C9
:1045B400DDFFFBE71DC10320034B01221A70034BEF
:1045C4001A68034B1A6070470AC1032040BD0320D8
:1045D400B4BB0120034B01221A70034B1A68034B2E
:1045E4001A60704709C1032040BD0320B0BB0120FD
:1045F40008B5044B1B7813F0020F00D108BDFFF778
:10460400E9FFFBE71FC1032008B5044B1B7813F037
:10461400020F00D108BDFFF7DDFFFBE71DC103203A
:10462400064B187830B1064B1B68064A12689B1A71
:10463400632B02D90020014B1870704708C1032076
:1046440040BD0320ACBB0120064B187830B1064BAB
:104654001B68064A12689B1A632B02D90020014B7F
:104664001870704707C1032040BD0320A8BB012078
:10467400064B187830B1064B1B68064A12689B1A21
:10468400632B02D90020014B187070470AC1032024
:1046940040BD0320B4BB0120064B187830B1064B53
:1046A4001B68064A12689B1A632B02D90020014B2F
:1046B4001870704709C1032040BD0320B0BB01201E
:1046C400054B1868054B1B68C01AB0F5FA7F8CBF00
:1046D40000200120704700BF40BD03206478012002
:1046E40008B5FFF7EDFF30B1074B1B783BB1074826
:1046F400FFF7BAFB08BD0648FFF7AAFBF4E7054835
:10470400FFF7B2FBF6E700BF17C10320D41A00205D
:10471400BC1A0020E81A00200C2834D8DFE800F086
:10472400090F1535071B2127292B2D2F3100184878
:1047340070471848184B3F2998BF184670471748C8
:10474400174B3F2998BF184670471648164B3F2908
:1047540098BF184670471548154B3F2998BF18460F
:1047640070471448144B3F2998BF184670471348A4
:1047740070471348704713487047134870471348ED
:10478400704713487047134870471348704700BF79
:10479400540500203C05002054320020340500203C
:1047A4005C32002044050020643200206C050020A7
:1047B40078320020640500208032002088320020F6
:1047C4009032002098320020A03200204C050020B6
:1047D4005C050020A83200206C32002030B14FF07C
:1047E40084434FF08072C3F8842070474FF08443B1
:1047F4004FF08072C3F8882070470000000000006A
:1048040008B5254B1B68022B3EDC244B187880F03E
:1048140001001870224B1B7843B1FFF7DFFF1E4ADB
:10482400136801331360022B04D008BD0020FFF786
:10483400D5FFF4E71B4B93ED007AB8EE477B9FED71
:10484400146B27EE067BB7EEC77BB5EEC07AF1EEAC
:1048540010FAEAD9DFED147AB4EEE77AF1EE10FA41
:10486400E3DCF3EE087A27EE277AF6EE007A37EEE9
:10487400677AFCEEC77A17EE902A102AD5D90B492D
:104884000B4817F09DFCD0E7094817F0F7FCCCE77C
:10489400666666666666E63F4CBE032037C1032043
:1048A40033C1032048770120ABAA2A4D1120000010
:1048B4007452002038B504460D46304817F0DEFC2B
:1048C4004CF2503240F6AC53944288BF1C4614F06C
:1048D4005FFF2B4B186035B92A4B01221A702A4B03
:1048E40000221A6011E014F053FF04F57A73274A8A
:1048F4001268801A83423AD2224B00221A70224B49
:1049040001221A60224B00221A70224B1B784BBBE7
:10491400214B1C60621E214B9A4207D204EB4404D3
:10492400E200013A1E49154817F04AFC134B0022D5
:104934001A711968A9B11B4A1B4B0B441B110021A6
:10494400D154137851788B4228BF0B4691788B420F
:1049540028BF0B46D278934228BF1346134A82F8E5
:104964007A3038BD074B1878FFF738FFD0E7054B8E
:1049740001221A70044B00221A60C3E7745200200B
:10498400A0BB012037C103204CBE0320A4BB0120DF
:1049940015C1032033C1032048770120AAAAAA0A1B
:1049A40011200000784A002000BFF7BF00E400E0B7
:1049B40008B514F0EDFE044B1B68C01A034B1978BC
:1049C4008008FFF777FF08BDA0BB012015C10320B5
:1049D40008B5054B1B7813F0010F00D108BDFFF794
:1049E400E7FFFFF7C3FDF9E71DC1032008B5054B39
:1049F4001B7813F0020F00D108BDFFF7D9FFFFF7B2
:104A0400E9FDF9E71DC1032010B5074B1C781870A8
:104A1400064A074B002808BF1A460649064817F0FD
:104A24008FFC204610BD00BF17C10320081D0020C5
:104A3400101D00201C1D0020684A002038B5114BB1
:104A44001C78187080B1104D2B685B6811220F49D7
:104A540028469847284617F059FC02220C4915208D
:104A640015F054F9204638BD074D2B685B681222B7
:104A7400084928469847284617F048FC152015F0A1
:104A8400E3F9EFE723C10320684A0020E42F002064
:104A940015040000F82F002009280BD8092828D86D
:104AA400DFE800F029050F1215181B1E21244DF60E
:104AB40005007047FF2802D1104B1888704700206A
:104AC40070474DF6060070474DF6070070474DF6E7
:104AD400080070474DF6090070474DF60A0070470C
:104AE4004DF60B0070474DF60C0070474DF60D0067
:104AF4007047002070474DF604007047C2590020EB
:104B0400034609280AD809281ED8DFE800F01F0543
:104B14000D0F11131517191B0D4870470D480E4A38
:104B2400FF2B08BF104670470C4870470C4870476D
:104B34000C4870470C4870470C4870470C48704745
:104B44000C4870470C487047024870470B48704740
:104B540034050020D4130020F01300204405002065
:104B6400540500206C050020640500202C0500205D
:104B7400240500204C050020E01300203C05002003
:104B84002DE9F04F83B005460C4602466149624860
:104B940017F0D6FB614B1B7813F0020F0CD15F4B5F
:104BA4001B7813F0010F40F08F805D495A4817F0CD
:104BB400C7FB03B0BDE8F08F5A49574817F0C0FB54
:104BC400B5F5807F05DC00222946204616F0E6F87C
:104BD400E5E7A846002DB8BF05F1FF084FEA2828ED
:104BE4006B42EAB2DBB258BF5A4201924A4E1346B4
:104BF40042464D49304617F0A3FB4C4F3846F0234C
:104C040000F8013B4FF48072214614F0D9FB0022D6
:104C140040F20111384616F077F8454B187814F035
:104C2400E1FD42464349304617F08AFB04F58073A0
:104C34000093B8F1010920D01F460026DFF8F0B038
:104C4400DFF800A100224FF48071384616F05CF8BA
:104C54009BF8000014F0C6FD013643463246514627
:104C64002D4817F06DFB07F580774E45EAD108F122
:104C7400FF38009B03EB082300932E4615F0FF0F2B
:104C84001CD12A48F723019943540022013116F01C
:104C94003BF82949204817F053FB204B1B7813F0AD
:104CA400010F82D025491C4817F04AFB244B5B6D49
:104CB400186803681B68F021984712E0019A00996C
:104CC4001A4814F07DFBDCE71C49134817F038FB45
:104CD4002E461B4B5B6D186803681B68F0219847D0
:104CE4007DB1671EDFF858803D46D8F85430186807
:104CF40003681B6817F8011F984702352D1BAE4245
:104D0400F2D80F4B5B6D186803681B68F72198474E
:104D14004BE700BF84040020684A002024C103201C
:104D240018050020A0040020AC04002000BA0120D3
:104D340034C10320C8040020F0040020080500202A
:104D440050770120DC040020F72826D010B5144A3F
:104D540013785B00DBB21370124C21684A1C22608A
:104D640023F07F031843104B5854104B9A4201DC34
:104D7400002010BD0E4C23685B6827220D49204695
:104D84009847084B1968204617F02DFB204617F06A
:104D9400BDFA0120084B1870EBE70120704700BFF3
:104DA400FFC0032018BD0220F8BC01201F00010031
:104DB400684A00204818002035C1032008B5224B5A
:104DC4001B680A2B3BD8DFE803F0060B141C2323D3
:104DD400232323232F0000231C4A13601C4A13702F
:104DE400F02801D0002008BD174B02221A600020D1
:104DF400F9E76928144B0CBF032201221A60002032
:104E0400F1E7144B1870104B04221A600020EAE7F3
:104E1400FFF79AFF20B90C4A136801331360E2E7E5
:104E2400094B01221A60DEE7FFF78EFF18B9064B23
:104E340003221A60D7E7044B01221A60D3E7024B1E
:104E440001221A600020CEE78C79012018BD0220CF
:104E540035C10320FFC003202DE9F04F83B0054680
:104E64008A46904600273B46BB460AEB0301B946F7
:104E740008EB0702DC1DDC46C3F10100C6184FEA4B
:104E84004C0C5FFA8CFC013311F801EB1EF0800F1F
:104E940018BF4CF0010C0EF07F0E02F801EFAB428C
:104EA40005DAA342EAD108F809C00837DDE708F8B3
:104EB40009C0374400972A460349044817F040FACA
:104EC400781C03B0BDE8F08FF0160020684A00207B
:104ED40038B5044639493A4817F032FA6278092A53
:104EE40066D8DFE802F0051D252D353D454D555D9D
:104EF400344B1D782A463449314817F021FAA570FD
:104F040004232370314D2A46692302F8013B2146CC
:104F14002020FFF7A1FF29460130FFF731FE38BDFD
:104F24002B4B1D782A462B49254817F009FAE6E74A
:104F3400294B1D782A462949214817F001FADEE752
:104F4400274B1D782A4627491D4817F0F9F9D6E75B
:104F5400254B1D782A462549194817F0F1F9CEE763
:104F6400234B1D782A462349154817F0E9F9C6E76B
:104F7400214B1D782A462149114817F0E1F9BEE773
:104F84001F4B1D782A461F490D4817F0D9F9B6E77B
:104F94001D4B1D782A461D49094817F0D1F9AEE783
:104FA4001B4B1D782A461949054817F0C9F9A6E78D
:104FB40000251849024817F0C3F9A0E7281E00206D
:104FC400684A002038500020401E00201CBD0220EA
:104FD4005C520020541E002020C103206C1E0020BF
:104FE4001FC10320841E00201EC103209C1E00201C
:104FF4001DC10320B81E002024C10320D01E0020A0
:1050040022C10320E81E002017C10320041F002032
:1050140021C10320201F002010B5FA2014F0E2FB68
:1050240001223C2117480CF00FFE174B1870174B48
:105034001A68174B1A6010B9134B187810BD154C29
:1050440023685B682422144920469847204617F0B9
:105054005DF90121112014F013FC0121102014F03A
:105064000FFC0021112014F0D3FB0021102014F0B8
:10507400CFFB0A4C20461EF0CFF8094920460AF01F
:10508400B3FED9E7E07300200BC1032040BD032029
:1050940084780120684A00205C1D00204C690020AF
:1050A40040420F0000B587B0014604AB03930DF1F5
:1050B4001203029305AB01930DF116030093002331
:1050C4001A4604480BF0F5FDBDF8120007B05DF870
:1050D40004FB00BFE073002070B594B0474CFF237D
:1050E40084F8C034012184F8CC1404F29445284691
:1050F40013F0BCFAC4F89054D4F894345B6B28468B
:10510400984768B13E4C23685B6822223D4920469B
:105114009847204617F0FAF80025284614B070BDC9
:10512400204601231A46D4F89014043012F03CF8B7
:1051340005460028E6D0324C23685B680B223249CE
:1051440020469847204617F0E1F800232F4A3049BB
:10515400684612F09FF8129B002B3ED05C2017F09B
:1051640011FA0446002646602A4B0360019BC36083
:10517400294B8360029B03619DF80C30037504A9DD
:10518400183011F050FF254BA360A6656368013306
:105194006360234B009304A811F086FF214B1B6925
:1051A4006BB15A68013A5A604AB91E4E30690368B5
:1051B400DB6A9847306910B103685B689847194BFC
:1051C4001C610E4BD3F8840458B100231A460C49D1
:1051D40000F5896010F07EFF9FE7139C002CBDD181
:1051E400D7E7064BD3F88804002896D000231A4644
:1051F400034900F589600DF09BFE8EE7E86100200D
:10520400684A0020380B00202C0B0020903300202B
:10521400EC6100203840002094400020144000201D
:105224008C3D0020605200202DE9F0479EB00F46CF
:1052340091469846002302468D49684612F02AF8A2
:10524400129B002B2BD05C2017F09CF90446002500
:105254004560884B0360019BC360874B8360029B5E
:1052640003619DF80C30037504A9183011F0DBFEBE
:10527400824BA360A565636801336360804B009330
:1052840004A811F011FF7F4B1B69002B00F024814F
:105294005A68013A5A609AB17A4B1C611EE1139C18
:1052A400002CD0D1764B009304A811F0FDFE754B71
:1052B4001B69A3B15A68013A5A60002A40F02E8152
:1052C400704D28690368DB6A9847286910B1036840
:1052D4005B6898476B4B1C61002C40F0FF800023F7
:1052E40015934FF47A7216928DF85C30664A1492D4
:1052F4001893F9E01D9B2361013D3BD020690028F0
:1053040000F0DF8003685B6B984703782E2B31D164
:10531400206910B303685B6B9847024631465B48CB
:1053240017F00EF8574B1969C9B10B68DB6B0022F3
:1053340019A898472369002BDCD05A68013A5A60AF
:10534400002AD7D120690368DB6A984720690028BE
:10535400D0D003685B689847CCE75246DEE7002369
:105364001A934FF47A721B928DF87030464A199250
:105374001D93DFE7464B1869002800F0A7800368F7
:105384001B6B98470446002800F09C803F48036844
:105394005B6806223F4998473D4B1869002864D052
:1053A40003685B6B9847054640B1284618F060FDDA
:1053B4000246364801684E682946B047334816F01D
:1053C400A5FF334B1869002800F0828003689B6AAC
:1053D4009847314B1860269B984265D82B4D2B6813
:1053E4005B6806222D492846984700230A222A4949
:1053F4000968284616F0B2FF284616F087FF244BAA
:105404001869002859D003689B68234A12684946E2
:1054140098471F4B1869002851D003685B6B984765
:1054240003461F4A1821384617F04CFF1A4B1B68D5
:10543400C8F80030164B1869002843D00368DB6AAB
:105444009847134B1A695368013B53604BB9104D8D
:1054540028690368DB6A9847286910B103685B68A8
:1054640098470B4B00221A612CE00E4D9DE700BFBC
:10547400EC610020384000209440002014400020BB
:105484008C3D002060520020E83F0020684A002044
:1054940044500020D4210020047601201C22002046
:1054A4000C210020E02D002002461E491E4816F063
:1054B40047FF1E4B269A1A6090E71D4BB1E71C4B21
:1054C400AFE7002420461EB0BDE8F0870024F9E7CA
:1054D400164B00221A6081E7164B1C612368DB6BB4
:1054E4000022214614A89847134B1B696BB15A68D4
:1054F400013A5A604AB9104C20690368DB6A98473C
:10550400206910B103685B6898470B4B189A1A61BD
:105514000A251C46DFF818A0084EEFE6054B0022CA
:105524001A61DCE6DC210020684A002004760120B0
:10553400E02D00206052002044500020AC210020C7
:105544002DE9F04194B005460E4617460023024665
:105554008249684611F09EFE129B002B00F0B68033
:105564005C2017F00FF804464FF00008C0F80480E0
:105574007B4B0360019BC3607A4B8360029B036196
:105584009DF80C30037504A9183011F04CFD764BCE
:10559400A360C4F85880636801336360734B00935D
:1055A40004A811F081FD724B1B69002B00F0EA8006
:1055B4005A68013A5A6062B9DFF8B481D8F8100029
:1055C4000368DB6A9847D8F8100010B103685B6879
:1055D4009847674B1C61002C40F0D6802A466549E9
:1055E400654816F0ADFE44F202232A465B4968463C
:1055F40011F050FE129B002B00F093805C2016F0FB
:10560400C1FF04464FF00008C0F80480544B036007
:10561400019BC360534B8360029B03619DF80C3074
:10562400037504A9183011F0FEFC4F4BA360C4F8B5
:1056340058806368013363604C4B009304A811F0F5
:1056440033FD4B4B1B69002B00F085805A68013AEF
:105654005A6062B9DFF81881D8F810000368DB6A71
:105664009847D8F8100010B103685B689847404B1E
:105674001C61002C65D023681B6B204698470446A8
:1056840000285ED03A4B1869002860D00368DB68B4
:105694003A4631469847364B1869002857D0036874
:1056A400DB6A9847324B1A695368013B53604BB924
:1056B4002F4D28690368DB6A9847286910B103688D
:1056C4005B6898472A4B00221A6140E0139C002C27
:1056D4007FF446AF254B009304A811F0E5FC244B5E
:1056E4001B69002B7FF464AF214B00221A6175E71C
:1056F400224BD3F8881400293FF475AF00238DF8AA
:1057040031308DF832308DF8333001232A46684623
:105714000DF01DFB00283FF466AF68460DF001FD57
:1057240061E7139C002C7FF469AF104B009304A82D
:1057340011F0BAFC0E4B1B69002B87D10C4B0022D5
:105744001A612A460E490C4816F0FAFD0024204638
:1057540014B0BDE8F081064B1C618CE7EC610020BD
:105764003840002094400020144000208C3D00204C
:1057740044500020740D0020684A0020E861002095
:105784008C0D00201F4B1C6123681B6B204698471F
:1057940000283FF423AF2A461B491C4816F0D0FDCD
:1057A400184B1869A8B10368DB6A9847154B1A6946
:1057B4005368013B53604BB9124C20690368DB6AA0
:1057C4009847206910B103685B6898470D4B002225
:1057D4001A610F4BD3F88414002989D000238DF863
:1057E40000308DF801308DF8023001232A466846D6
:1057F4000FF0ABFB00283FF4F6AE684610F08AFBCE
:10580400F1E600BF445000205C0D0020684A0020EF
:10581400E86100202DE9F04395B005460E46174691
:10582400984603460A469749974816F089FD00238F
:105834002A469649684611F02DFD129B002B3ED056
:105844005C2016F09FFE04464FF00009C0F8049057
:105854008F4B0360019BC3608E4B8360029B03618B
:105864009DF80C30037504A9183011F0DCFB8A4B49
:10587400A360C4F85890636801336360874B009356
:1058840004A811F011FC864B1B69002B00F03A812F
:105894005A68013A5A6062B9DFF80492D9F81000E4
:1058A4000368DB6A9847D9F8100010B103685B6895
:1058B40098477B4B1C61002C40F026812BE1139C04
:1058C400002CBDD1754B009304A811F0EDFB744B73
:1058D4001B69002BDCD1724B00221A611BE12A46A2
:1058E4007049694816F02CFD6D4B1869A8B103681E
:1058F400DB6A98476A4B1A695368013B53604BB99A
:10590400674C20690368DB6A9847206910B1036813
:105914005B689847624B00221A61634BD3F8841486
:1059240091B100238DF800308DF801308DF80230EC
:1059340001232A4668460FF008FB002800F0EB809C
:10594400684610F0E7FAE6E0574BD3F888140029CC
:1059540000F0E18000238DF831308DF832308DF87D
:10596400333001232A4668460DF0F1F9002800F08F
:10597400D28068460DF0D5FBCDE0139C002C40F09E
:10598400DA80464B009304A811F08EFB444B1B694C
:10599400002B40F0F480424B00221A6106E0434B96
:1059A400186015E14249384816F0CAFC44F2022353
:1059B4002A463649684611F06DFC129B002B79D0BB
:1059C4005C2016F0DFFD044600264660304B036081
:1059D400019BC3602F4B8360029B03619DF80C30D5
:1059E400037504A9183011F01EFB2B4BA360A665A8
:1059F400606801306060294B009304A811F054FBE7
:105A0400274B1B69002B73D05A68013A5A604AB974
:105A1400234E30690368DB6A9847306910B1036824
:105A24005B6898471E4B1C61002C52D023681B6B8B
:105A34002046984700284CD01C4B1A68002A4ED1A7
:105A4400174803685B68424639469847144B1869FF
:105A5400A8B10368DB6A9847114B1A695368013B84
:105A640053604BB90E4C20690368DB6A9847206980
:105A740010B103685B689847094B00221A6115B09E
:105A8400BDE8F08384130020684A0020EC61002004
:105A94003840002094400020144000208C3D002019
:105AA400445000205C0D0020E861002004760120B1
:105AB400B4130020139C002C82D15E4B009304A8E5
:105AC40011F0F2FA5C4B1B69002B9DD15A4B00225A
:105AD4001A612A4659495A4816F032FCCFE7564B08
:105AE40018690028CBD00368DB6856499847ADE7AE
:105AF400514B1C619AE7544B00221A6068E04E4BEC
:105B04001C614FE04C4B1C6123681B6B204698477B
:105B140000287FF4E4AE4C4B00221A60002E3FF4C0
:105B240041AF134632464949684611F0B3FB129B14
:105B3400002B3FF422AF5C2016F024FD044600261F
:105B44004660434B0360019BC360424B8360029BEE
:105B540003619DF80C30037504A9183011F063FA41
:105B64003D4BA360A665636801336360314B0093CA
:105B740004A811F099FA304B1B69002BBFD05A6866
:105B8400013A5A604AB92C4E30690368DB6A984777
:105B9400306910B103685B689847274B1C61002C7F
:105BA4003FF404AF23681B6B2046984700283FF45A
:105BB400FDAE214B186900289DD003689B6A984765
:105BC400B0F5004F7FF6EBAE1F4B4FF400421A6066
:105BD4001D4C226821491A4816F0B2FB246822465B
:105BE4000021184817F096FD134B186900283FF45C
:105BF400DDAE03689B682246124998470E4B18692C
:105C040000283FF4D3AE0368DB6A98470A4B1A694D
:105C14005368013B53604BB9074C20690368DB6A46
:105C24009847206910B103685B689847024B0022CB
:105C34001A61BBE68C3D0020445000208C0D0020EE
:105C4400684A002004F6002004760120EC6100205C
:105C5400384000209440002014400020A01300206D
:105C64002DE9F0479AB0074602469349934816F047
:105C740067FB934B186900286ED003681B6B984729
:105C8400002869D01426DFF874828E4DDFF87092F4
:105C9400D2E0139C002C40F0D9808B4B009304A8D5
:105CA40011F002FA864B1B69B3B15A68013A5A6083
:105CB400002A40F0FC80DFF808A2DAF8100003683C
:105CC400DB6A9847DAF8100010B103685B689847FC
:105CD4007B4B1C61002C46D1002316934FF47A723F
:105CE40017928DF86030CDF8549019932B69002BDE
:105CF40041D1744B199A1A617449704816F020FB0B
:105D040073496E4816F01CFB1AB0BDE8F087714960
:105D14005AE0684610F0FEF8034688E06E4BD3F86C
:105D2400881499B100238DF831308DF832308DF814
:105D340033300123694A68460DF009F80346002808
:105D440075D068460DF0EDF9034670E0634A644986
:105D54005A4816F0F5FA6CE06249584816F0F0FA21
:105D6400CEE7574B1C612368DB6B0022214615A844
:105D740098472B6963B15A68013A5A6042B9286955
:105D84000368DB6A9847286910B103685B68984721
:105D9400199828610028AFD003681B6B9847002826
:105DA400AAD04E4C3A46FF21204617F08BFA2046E3
:105DB40018F05EF84C4B1B88235228690028A6D0A3
:105DC40003685B6B98470146444C204617F0F4FC8B
:105DD40022464649394816F0B3FA286990B1036857
:105DE400DB6A98472A695368013B536043B92869C1
:105DF4000368DB6A9847286910B103685B689847B1
:105E040000232B61344BD3F88414002986D000235B
:105E14008DF800308DF801308DF8023001232F4ABF
:105E240068460FF092F8034600287FF472AF002B07
:105E34008CD0013E3FF464AF00233A4641466846A5
:105E440011F028FA129B002B3FF423AF5C2016F0CC
:105E540099FB04464FF0000AC0F804A0244B0360E9
:105E6400019BC360234B8360029B03619DF80C304C
:105E7400037504A9183011F0D6F81F4BA360C4F8B9
:105E840058A06368013363600F4B009304A811F0BA
:105E94000BF90B4B1B69002B3FF463AF5A68013AB3
:105EA4005A60002A3FF407AF054B1C615BE7044BC3
:105EB40000221A6110E700BFF8190020684A002088
:105EC40060520020445000208C3D0020381A0020ED
:105ED400A01A0020E02D0020E86100202076012097
:105EE400101A0020681A0020903300205C0D002056
:105EF400384000209440002014400020EC61002031
:105F0400E83F002010B58EB00446024616491748F3
:105F140016F016FA164BD3F8841479B100238DF8D1
:105F240000308DF801308DF802300123224601F54E
:105F3400896168460FF000F90EB010BD0C4BD3F820
:105F4400881471B100238DF831308DF832308DF81A
:105F540033300123224601F5896168460DF0A7FA22
:105F6400EAE70020E8E700BF44320020684A002046
:105F7400E86100202DE9F04194B005460F4616462D
:105F8400134602464749484816F0DAF944F2022318
:105F94002A464649684611F07DF9129B002B44D0ED
:105FA4005C2016F0EFFA04464FF00008C0F80480B5
:105FB4003F4B0360019BC3603E4B8360029B0361C4
:105FC4009DF80C30037504A9183011F02CF83A4BE5
:105FD400A360C4F85880636801336360374B00934F
:105FE40004A811F061F8364B1B69002B2DD05A68B8
:105FF400013A5A6062B9DFF8C880D8F81000036823
:10600400DB6A9847D8F8100010B103685B689847BA
:106014002B4B1C61DCB92A462A49234816F090F917
:106024000024204614B0BDE8F081139C002CB7D1A5
:10603400224B009304A811F037F8214B1B69002B65
:10604400D5D11F4B00221A61E5E71D4B1C61236863
:106054001B6B2046984704460028DCD0184B18696F
:106064000028DED00368DB68324639469847144B73
:1060740018690028D5D00368DB6A9847104B1A6961
:106084005368013B53604BB90D4D28690368DB6AC3
:106094009847286910B103685B689847084B002249
:1060A4001A61BEE77C050020684A0020EC610020EC
:1060B4003840002094400020144000208C3D0020F3
:1060C400445000209805002008B584460B4610462D
:1060D4006246024917F03AF908BD00BF982B002028
:1060E400F0B59BB005460E4602467649764816F052
:1060F40027F9764C2A467649204617F027F90023DB
:1061040022467449684611F0C5F8129B002B2BD027
:106114005C2016F037FA0446002747606E4B036094
:10612400019BC3606D4B8360029B03619DF80C303F
:10613400037504A9183010F076FF694BA360A765B6
:10614400636801336360674B009304A810F0ACFFED
:10615400654B1B69002B00F089805A68013A5A602C
:106164009AB1614B1C6183E0139C002CD0D15D4B30
:10617400009304A810F098FF5B4B1B699BB15A680D
:10618400013A5A60002A40F09880574F38690368F2
:10619400DB6A9847386910B103685B689847524BCB
:1061A4001C61002C64D1002316934FF47A72179269
:1061B4008DF860304D4A159219934D4B1B69002B95
:1061C4005FD14B4B199A1A61002473E049493E4848
:1061D40016F0B6F8002E6DD047493B4816F0B0F8DB
:1061E400434B186908B303685B6B98470346374C05
:1061F4002A464249204617F0A9F822464049324827
:1062040016F09EF83F4BD3F88414A1B100238DF807
:1062140000308DF801308DF80230012322466846A3
:106224000EF093FE18B9344644E0374BDFE7684676
:106234000FF070FEF7E7334BD3F88814A1B10023B5
:106244008DF831308DF832308DF8333001231F4A08
:1062540068460CF07CFD08B934462BE068460CF027
:1062640060FFF9E7002425E0344623E01E4B1C615F
:106274002368DB6B0022214615A898471C4B1B6939
:106284006BB15A68013A5A604AB9194C20690368DB
:10629400DB6A9847206910B103685B6898471998CE
:1062A400134B18610028DDD003681B6B9847044624
:1062B40000288BD120461BB0F0BD0B4B00221A6185
:1062C40071E700BFC01F0020684A0020207601202B
:1062D400EC1F0020EC610020384000209440002096
:1062E400144000208C3D002060520020E83F002034
:1062F40044500020FC1F00201820002030200020E3
:1063040044200020E8610020E02D002049B1431E14
:106314005918002013F8012F104480B28B42F9D190
:10632400704700207047000008B50E4BD3F8840472
:1063340050B1002308220C4900F589600FF0CAFE11
:10634400094815F0E3FF08BD064BD3F8880400287C
:10635400F6D000230822044900F589600CF0E8FD1A
:10636400EEE700BFE8610020684A00202DE9F04311
:1063740095B05E4CFF2384F8C034012184F8CC141A
:1063840004F29445284612F071F9C4F89054D4F8F4
:1063940094345B6B2846984760B1554C23685B681E
:1063A4001622544920469847204615F0AFFF4FF077
:1063B4000008E4E3204601231A46D4F8901404307C
:1063C40010F0F2FE0028E8D0494C23685B681322E1
:1063D400494920469847204615F098FF0023474A2C
:1063E4004749684610F056FF129B002B63D05C208F
:1063F40016F0C8F8044600254560424B0360019B33
:10640400C360414B8360029B03619DF80C300375AC
:1064140004A9183010F007FE3C4BA360A56563681F
:10642400013363603A4B009304A810F03DFE394BEE
:106434001B696BB15A68013A5A604AB9354D2869EB
:106444000368DB6A9847286910B103685B6898475A
:10645400304B1C61254BD3F8840480B300231A46C7
:10646400234900F589600FF035FE204CFF2384F8A2
:10647400C034012184F8CC1404F29445284612F067
:10648400F5F8C4F89054D4F894345B6B28469847D4
:1064940010B34FF00008164C23685B681D221E4998
:1064A40020469847204615F031FF0026DFF870900B
:1064B4001A4C0E4D20E1139C002C98D1B2E70B4BE3
:1064C400D3F888040028D0D000231A46084900F5E0
:1064D40089600CF02DFDC8E7204601231A46D4F844
:1064E4009014043010F060FE8046D4E7E861002088
:1064F400684A0020D0050020E805002090330020E1
:10650400EC6100203840002094400020144000201A
:106514008C3D002060520020FC05002020760120E4
:106524004C14002000238DF800308DF801308DF8D4
:1065340002300123224601F5896168460EF0FCFD14
:106544003246DD49204616F001FFD5F884140029AF
:1065540000F0FE8000238DF800308DF801308DF8B6
:1065640002300123224601F5896168460EF0E4FDFC
:106574003246D249204616F0E9FED5F884140029A3
:1065840000F0FA8000238DF800308DF801308DF88A
:1065940002300123224601F5896168460EF0CCFDE4
:1065A4003246C749204616F0D1FED5F88414002996
:1065B40000F0F68000238DF800308DF801308DF85E
:1065C40002300123224601F5896168460EF0B4FDCC
:1065D4003246BC49204616F0B9FED5F88414002989
:1065E40000F0F28000238DF800308DF801308DF832
:1065F40002300123224601F5896168460EF09CFDB4
:106604003246B149204616F0A1FED5F8841400297B
:1066140000F0EE8000238DF800308DF801308DF805
:1066240002300123224601F5896168460EF084FD9B
:106634003246A649204616F089FED5F8841400296E
:1066440000F0EA8000238DF800308DF801308DF8D9
:1066540002300123224601F5896168460EF06CFD83
:1066640032469B49204616F071FED5F88414002961
:1066740000F0E68000238DF800308DF801308DF8AD
:1066840002300123224601F5896168460EF054FD6B
:1066940032469049204616F059FED5F88414002954
:1066A40000F0E28000238DF800308DF801308DF881
:1066B40002300123224601F5896168460EF03CFD53
:1066C40032468549204616F041FED5F88414002947
:1066D40000F0DE8000238DF800308DF801308DF855
:1066E40002300123224601F5896168460EF024FD3B
:1066F4000136642E00F0F680784F3B685B68052213
:106704004946384698473146384615F06CFE3846B7
:1067140015F0FCFD32467249204616F017FED5F8F6
:10672400841400297FF4FEAED5F8881400293FF4C0
:1067340007AF00238DF831308DF832308DF83330C7
:106744000123224601F5896168460CF0B0FEF7E6A4
:10675400D5F8881400293FF40BAF00238DF83130AD
:106764008DF832308DF833300123224601F58961EA
:1067740068460CF09CFEFBE6D5F8881400293FF42B
:106784000FAF00238DF831308DF832308DF833306F
:106794000123224601F5896168460CF088FEFFE674
:1067A400D5F8881400293FF413AF00238DF8313055
:1067B4008DF832308DF833300123224601F589619A
:1067C40068460CF074FE03E7D5F8881400293FF4FA
:1067D40017AF00238DF831308DF832308DF8333017
:1067E4000123224601F5896168460CF060FE07E743
:1067F400D5F8881400293FF41BAF00238DF83130FD
:106804008DF832308DF833300123224601F5896149
:1068140068460CF04CFE0BE7D5F8881400293FF4C9
:106824001FAF00238DF831308DF832308DF83330BE
:106834000123224601F5896168460CF038FE0FE712
:10684400D5F8881400293FF423AF00238DF83130A4
:106854008DF832308DF833300123224601F58961F9
:1068640068460CF024FE13E7D5F8881400293FF499
:1068740027AF00238DF831308DF832308DF8333066
:106884000123224601F5896168460CF010FE17E7E2
:10689400D5F8881400293FF42BAF00238DF831304C
:1068A4008DF832308DF833300123224601F58961A9
:1068B40068460CF0FCFD1BE730060020480600206B
:1068C400600600207806002090060020A80600201C
:1068D400C0060020D8060020EC060020684A0020EC
:1068E4001C060020C64C23685B681D22C54920464F
:1068F4009847204615F00AFD0024C34FC04DC34EEF
:1069040014E0C34BD3F8881469B100238DF83130F7
:106914008DF832308DF833300123BE4A01F5896198
:1069240068460CF0C4FD0134642C25D02B685B68E8
:1069340006223946284698472146284615F053FD35
:10694400284615F0E3FC22463146B24816F0FEFC18
:10695400AF4BD3F884140029D3D000238DF8003032
:106964008DF801308DF802300123AA4A01F58961BE
:1069740068460EF0E1FBD6E7A14C23685B681A2257
:10698400A54920469847204615F0C0FCA04BD3F8F3
:106994008414002900F0F78000238DF800308DF86E
:1069A40001308DF8023001239C4A01F58961684663
:1069B4000EF0C2FB964BD3F88414002900F0F78044
:1069C40000238DF800308DF801308DF8023001235A
:1069D400934A01F5896168460EF0AEFB8C4BD3F8FF
:1069E4008414002900F0F78000238DF800308DF81E
:1069F40001308DF8023001238A4A01F58961684625
:106A04000EF09AFB824BD3F88414002900F0228103
:106A140000238DF800308DF801308DF80230012309
:106A2400814A01F5896168460EF086FB784BD3F8FC
:106A34008414002900F0238100238DF800308DF8A0
:106A440001308DF802300123784A01F589616846E6
:106A54000EF072FB6E4BD3F88414002900F02481ED
:106A640000238DF800308DF801308DF802300123B9
:106A74006F4A01F5896168460EF05EFB644BD3F8FA
:106A84008414002900F0258100238DF800308DF84E
:106A940001308DF802300123664A01F589616846A8
:106AA4000EF04AFB5A4BD3F88414002900F02681D7
:106AB40000238DF800308DF801308DF80230012369
:106AC4005D4A01F5896168460EF036FB504BD3F8F8
:106AD4008414002900F0278100238DF800308DF8FC
:106AE40001308DF802300123544A01F5896168466A
:106AF4000EF022FB464BD3F88414002900F02881C1
:106B040000238DF800308DF801308DF80230012318
:106B14004B4A01F5896168460EF00EFB384C236838
:106B24005B681B22474920469847204615F0EEFB38
:106B3400374BD3F88414002900F01F8100238DF80B
:106B440000308DF801308DF8023001233E4A01F502
:106B5400896168460EF0F0FA294C23685B6831229B
:106B64003A4920469847204615F0D0FB23685B68D5
:106B74000522374920469847204615F0C7FB404672
:106B840015B0BDE8F083224BD3F888140029C5D092
:106B940000238DF831308DF832308DF833300123F5
:106BA4001E4A01F5896168460CF081FC02E7184B26
:106BB400D3F888140029B1D000238DF831308DF832
:106BC40032308DF833300123154A01F58961684666
:106BD4000CF06DFC02E70E4BD3F8881400299DD00D
:106BE40000238DF831308DF832308DF833300123A5
:106BF4000C4A01F5896168460CF059FC02E700BFB4
:106C0400684A0020000700202007002028070020F1
:106C1400E861002020760120380700205407002076
:106C240064070020740700208407002094070020D4
:106C3400A4070020B8070020C8070020D8070020B8
