:0200000460009A
:100000004643464200000156000000000103030081
:1000100000000000000000000000000000000000E0
:1000200000000000000000000000000000000000D0
:1000300000000000000000000000000000000000C0
:1000400000000000010408000000000000000000A3
:100050000000800000000000000000000000000020
:100060000000000000000000000000000000000090
:100070000000000000000000000000000000000080
:10008000EB04180A063204260000000000000000FD
:10009000050404240000000000000000000000002F
:1000A0000000000000000000000000000000000050
:1000B0000604000000000000000000000000000036
:1000C0000000000000000000000000000000000030
:1000D00020041808000000000000000000000000DC
:1000E0000000000000000000000000000000000010
:1000F0000000000000000000000000000000000000
:10010000D8041808000000000000000000000000F3
:100110000204180804200000000000000000000095
:1001200000000000000000000000000000000000CF
:10013000600400000000000000000000000000005B
:1001400000000000000000000000000000000000AF
:10015000000000000000000000000000000000009F
:10016000000000000000000000000000000000008F
:10017000000000000000000000000000000000007F
:10018000000000000000000000000000000000006F
:10019000000000000000000000000000000000005F
:1001A000000000000000000000000000000000004F
:1001B000000000000000000000000000000000003F
:1001C000000100000010000001000000000000001D
:1001D000000001000000000000000000000000001E
:1001E000000000000000000000000000000000000F
:1001F00000000000000000000000000000000000FF
:10020000FFFFFFFFFFFFFFFFFFFFFFFFFFFFFFFFFE
:10021000FFFFFFFFFFFFFFFFFFFFFFFFFFFFFFFFEE
:10100000D100204325160060000000000000000011
:10101000201000600010006000A0026000000000CE
:101020000000006000AC020000000000FFFFFFFFB6
:10103000FFFFFFFFFFFFFFFFFFFFFFFFFFFFFFFFC0
:10104000FFFFFFFFFFFFFFFFFFFFFFFFFFFFFFFFB0
:10105000FFFFFFFFFFFFFFFFFFFFFFFFFFFFFFFFA0
:10106000FFFFFFFFFFFFFFFFFFFFFFFFFFFFFFFF90
:10140000884207D0904205D251F8043B40F8043B93
:101410008242F9D8704700BF884204D2002340F8C6
:10142000043B8142FBD870472DE9884800F0D0F991
:101430000824614B614AC3F8544161496148FFF790
:10144000DFFF614A61496248FFF7DAFF614962489C
:10145000FFF7E2FF614C4FF0E0214FF470000023F2
:101460005F4AC1F8880D44F823200133B02BFAD12C
:101470005C4B80215C4A03F8011B9342FBD14FF087
:10148000E0254D4E4FF08039DFF88CB1DFF88CA1AC
:101490004FF0FF31C5F8084D0027C6F80491C6F893
:1014A00000B1C6F8F490C6F8F0A0D5F8243DDFF8F6
:1014B000708143F4E0234D4AC5F8243DD8F81C3030
:1014C00023F07F0343F04003C8F81C30D8F82430E1
:1014D00023F07F0343F04003C8F824309166D166BF
:1014E0001167516700F07CF9414B4249A363424BBD
:1014F000E36363236B610323AF612B613F4BC5F84B
:10150000203DD5F8FC3D43F08073C5F8FC3D3C4BD5
:101510001A6842F001021A605B680B6000F09EFBE3
:10152000C6F804913748C6F800B1C6F8F490C6F87A
:10153000F0A000F045FDD8F86C10334B334A41F46D
:101540004051C8F86C101F60C3F80871C3F81871D7
:10155000C3F82871C3F83871936BDB0708D442F6DF
:1015600015632B4951651365936B43F00103936336
:10157000264A284C936843F00113936000F0ACF9BD
:1015800000F0D0FC00F008FD00F096FB00F008FD34
:101590002368132BFCD900F027FC2368B3F5967F52
:1015A000FBD300F01BF900F017F900F0EDFC00F0A0
:1015B0000BFD30BFFDE700BF00800D408818020022
:1015C0002C28006000000000C05E0020B8400260CF
:1015D0000000002080C00320C05E0020005C0020CE
:1015E0008591010000E400E0A0E400E000C00A40B2
:1015F000FD78010038BC03200179010000002020A3
:10160000001000E00046C3230040084000400D40A9
:101610000000C0563CBC03201B1018200C0D1113F9
:1016200000C00F40074B4FF42A01074A07485A648D
:101630001864074A99639546BFF34F8FBFF36F8FC6
:10164000FFF7F2FE00C00A40FFABAAAA0700200085
:101650000080052043690A4A03EB011010B4037AA5
:10166000084C02EB0313D3E901321460C2681A601C
:1016700003690BB142691A605DF8044B704700BF03
:101680009044002061F801004369027E03EB0212DE
:1016900092F808C08C451CD01A7AFF2A19D09142C2
:1016A00010B5044616D01A7EFF2A06D00121D3E9D0
:1016B000002312681A4201D1217610BD064B052283
:1016C000204603EB0C135B681A60FFF7C3FF21761B
:1016D000F3E770470021EAE79044002043690A4A93
:1016E00003EB011010B490F82830084C02EB031300
:1016F000D3E901321460C26A1A60036B0BB1426B0A
:101700001A605DF8044B70479044002061F80100B6
:101710004369427E03EB021292F828C08C451ED02A
:1017200093F82820FF2A1AD0914210B5044617D00A
:1017300093F83820FF2A06D00121D3E9002312684C
:101740001A4201D1617610BD064B0522204603EBFB
:101750000C135B681A60FFF7C1FF6176F3E770470F
:101760000021EAE790440020164942698B6B23F47C
:101770007C0343F4802370B58B630446124DD2E999
:1017800000130A681A4303690A60022200211A61E1
:101790000E4A19619A6401225A629D624FF43035F3
:1017A000DD624FF001159E6C1E6519629D651A6120
:1017B000017EFFF74FFF617E2046BDE87040FFF7D6
:1017C0008DBF00BF00C00F40B80B05053B3728197F
:1017D000704700BF704700BF704700BF00BF704731
:1017E00010B44FF0E023002110242B48C3F8941DBF
:1017F000C3F89C4D1124C3F8A00D2848C3F89C4D94
:101800001224C3F8A00D2648C3F89C4D254AC3F8FE
:10181000A00D254C42F015022448C3F89C4DC3F896
:10182000A00D234C2348C3F89C4DC3F8A00D224CB7
:10183000C3F89C2D2148224AC3F8A04DC3F89C0D43
:10184000C3F8A02D02F5A0221E4C0C321E48C3F88E
:101850009C4DC3F8A02D1D4AC3F89C0D1C4CC3F829
:10186000A02D01221B48C3F89C4DC3F8A00DC3F85E
:10187000942DBFF34F8FBFF36F8FC3F8501FBFF38B
:101880004F8FBFF36F8FD3F8142D5DF8044B42F4E4
:101890004032C3F8142D70473F00001025000803A4
:1018A0000900100080C0032013002000210002075F
:1018B0001400002025000813090000101600202045
:1018C00027000B1317000040180000602F000B07C3
:1018D000190000702F000B13F0B5B84B1822B84E4A
:1018E0000120B84F83B0C3F85C62B749C3F8607297
:1018F000B64DC3F86462A6F53046B54CC3F86862CD
:10190000C3F86C52C3F87052C3F87452C3F87852DB
:1019100048F20C75DA661A675A679A67DA67C3F88D
:101920008020C3F88420C3F88820C1F82C03A94A7A
:10193000C1F83003C1F83403C1F83803C1F83C03DF
:10194000C1F85003A169A44B0A40A448A449134319
:10195000A44AA361D4F8843043F00C03C4F8843063
:101960004FF0FF34036843F00203036003682B4029
:101970004FF400551A439C4B026044608A689B4CAC
:1019800013409B4A43F000538360C36823F07803FD
:10199000C360036A134023430362036A1340954AFA
:1019A0002343954C43628262C2620022D1F8B83070
:1019B00023F03F0343F00103C0F8B830D1F8BC3046
:1019C0008E4923F03F0343F00103C0F8BC3040F2DE
:1019D0000563026105660467C0F8803045664467A8
:1019E0000224C0F88430036823F00203036081619D
:1019F000834B8449C46143F8042B8B42FBD1774A63
:101A0000136843F001031360136813F00103FBD163
:101A10007A48022140F2F564906140F29940D16128
:101A200040F26641C2F8004242F20144C2F810128C
:101A30007549C2F82002C2F8301240F235417348AD
:101A4000C2F83442C2F84012714CC2F8500242F25D
:101A500001207049C2F854120121C2F86042C2F854
:101A600064025E48C2F8A030C2F8A430C2F8B010D8
:101A70004369DA07FCD5012300244FF4803257492B
:101A80004361C0F8A040C0F8A420C0F8B0304B6952
:101A9000DB07FCD5012300244FF400304F4A4B6193
:101AA000C1F8A040C1F8A400C1F8B0305369DF0705
:101AB000FCD501230024584848495361C2F8A0408E
:101AC000C2F8A400C2F8B0304B69DE07FCD5D1F8EB
:101AD000003145F60D5221209BB24861934265D1F9
:101AE00000244FF4802201233C48C1F8A040C1F8F3
:101AF000A420C1F8B0304369DD07FCD501234FF4C1
:101B000000040021354A4361C0F8A040C0F8A41089
:101B1000C0F8B0305369DC07FCD501234FF4000452
:101B20004FF480302D495361C2F8A040C2F8A400A0
:101B3000C2F8B0304B69D807FCD501234FF400043C
:101B40004FF40030254A4B61C1F8A040C1F8A40011
:101B5000C1F8B0305369D907FCD501234FF4000414
:101B60002D481E495361C2F8A040C2F8A400C2F833
:101B7000B0304B69DA07FCD5D1F8003145F60D528B
:101B800021209BB24861934250D008254FF40004B5
:101B900022490020224B234A009015705A1A012333
:101BA0002148224400F0F4F903B0F0BD1E4B00229E
:101BB000C3E90022C3E9022203B0F0BD00801F4048
:101BC000F9B00100F910010000841F40F970010014
:101BD00000C00F40FFFCFF1F000300A000402A4090
:101BE00000802A401200FFFFFF37F700400000800E
:101BF00000FFF07CFF000F8363000200F05AF05AF0
:101C000000422A4000432A409F041830EB06180A7D
:101C10003806180A0632012604000300000000708E
:101C2000000000700FC00320ECF500204FF400040A
:101C30004FF4802201230848C1F8A040C1F8A42035
:101C4000C1F8B0304369DB07FCD5012310254FF004
:101C5000807443619CE700BF00402A40F0B4154AFD
:101C600040274FF480314FF480564FF400554FF425
:101C7000404443F24200136913F0020F0ED113F4F3
:101C8000005F0FD013F4805F0ED0002BF3DA13F453
:101C9000803F0BD15B060BD5F0BC7047946151615E
:101CA0009061E8E75561E6E75661E4E79161E2E7B4
:101CB0005761E0E700800D403F4A03203F49F3EEC3
:101CC000095AD2F880304FF0000C9FED3D6A23F0A6
:101CD00001039FED3C5A30B4C2F88030C2F8900046
:101CE000D1F8E010384DCBB2384C39482B6007EEB4
:101CF000903A0B0DC1F30B21F8EEE77A06EE903A1D
:101D000007EE101A334BB8EEC77A2160F8EEE66A98
:101D1000314937EEC66A37EEC55A76EEC76A77EEB6
:101D2000E57A26EE266AC3ED006A25EE265AD2F839
:101D3000803067EEA64AC0ED007AC6EE275A2748E3
:101D400085EE276AC4EEA76A75EE875AFCEEE55A5F
:101D500036EE076A15EE904ABCEEC66A43EA0453B3
:101D600076EE877AC2F8803016EE103AD2F89041BB
:101D7000FCEEE77A01EA0341214317EE903AC2F8FC
:101D80009011C3F30B03D2F890110B431449C2F81E
:101D90009031D2F8803043F00203C2F88030114B0A
:101DA00080F840C0C1F840314FF0E023012230BC40
:101DB000C3F80821704700BF00810D4000441F4058
:101DC0000000AA420000B442F0B90120ECB90120A1
:101DD000F4B90120F8B901200000FF0F00E400E091
:101DE000005C002065930100314B40F6617210B534
:101DF000C3F8202140F2044400F0DEF82D4A2E49B9
:101E0000D2F880302D4843F00303C2F880302C4BC9
:101E1000C1F8604102681A4203D1D1F8A8319A078B
:101E20001BD0254A4FF00041244B5963D2F8403172
:101E300043F00203C2F84031D2F840319B07FBD493
:101E40004FF400304FF0E0211C4B4FF00042C1F83E
:101E50008C0219209A6300F0A7F8184A4FF08040CE
:101E6000154C002190630A20164B11604FF420722C
:101E7000C4F8A801184600F09BF84FF4800203460E
:101E80004FF4810040F243111860C4F858311A64CD
:101E90000D4B0E4AC4F84811C3F804224FF0E0225B
:101EA0004FF400310123C2F80C11C4F8403110BDC9
:101EB00000800D4000C00F4000002E4000900D40FB
:101EC000001C1E0000000020005C00208595010021
:101ED00008B50E4B1B6E9B0700D4FBBE72B60C4BB5
:101EE00000200C4AC3F8400103F160430A49A3F5FE
:101EF0005F2311649D46BFF34F8F4FF400130748D3
:101F0000074ADB6902609B68984700BF00441F4096
:101F100000002E4000C00A40030020000080202066
:101F2000000012EB104BA020104AD96E41F4403152
:101F300010B4D96640F23764D96E41F44071D96665
:101F400054649064936C1B06FCD4094A40F23761D8
:101F5000A02351649364936C13F08003FBD1054A72
:101F600013705DF8044B704700C00F4000400C40F8
:101F700000800C40FDBF0320F8B500BFF8BC08BCD2
:101F80009E467047000000005FF800F019C4010091
:101F90005FF800F001AF01005FF800F06990010008
:101FA0005FF800F0017B00005FF800F0458701005A
:101FB0005FF800F0C9BD01005FF800F0C19C0100AE
:101FC0005FF800F0558401005FF800F03D8E0100DD
:101FD00001010000958E00008DD7000099F80000E7
:081FE0001D000100917F0100CA
:101FE80000000000000000000000000000000000E9
:101FF80000000000000000000000000000000000D9
:1020080000000000000000000000000000000000C8
:1020180000000000000000000000000000000000B8
:1020280000000000000000000000000000000000A8
:102038000000000000000000000000000000000098
:102048000000000000000000000000000000000088
:102058000000000000000000000000000000000078
:102068000000000000000000000000000000000068
:102078000000000000000000000000000000000058
:102088000000000000000000000000000000000048
:102098000000000000000000000000000000000038
:1020A8000000000000000000000000000000000028
:1020B8000000000000000000000000000000000018
:1020C8000000000000000000000000000000000008
:1020D80000000000000000000000000000000000F8
:1020E80000000000000000000000000000000000E8
:1020F80000000000000000000000000000000000D8
:1021080000000000000000000000000000000000C7
:1021180000000000000000000000000000000000B7
:1021280000000000000000000000000000000000A7
:102138000000000000000000000000000000000097
:102148003F000000000000000000000000001FFC2D
:102158003F000000000000000000000000007FFCBD
:102168003F00000000000000000000000000FFFC2D
:102178003F00000000000000000000000001FFFC1C
:102188003F00000000000000000000000003FFFC0A
:102198003F00000000000000000000000007FFFCF6
:1021A8003F3F007E3F3FC0FF001FFF80000FF9FC4C
:1021B8003F3F007E3F7FF3FFC07FFFE0001FE1FC51
:1021C8003F3F007E3FFFFFFFE0FFFFE0000FC1FC45
:1021D8003F3F007E3FFFFFFFE1FFFFF0000781FC6C
:1021E8003F3F007E3FC1FF07F1F807F0000301FC05
:1021F8003F3F007E3F80FE03F00003F0000001FC3B
:102208003F3F007E3F00FC03F03FFBF1FFF801FC7D
:102218003F3F007E3F00FC03F0FFFFF1FFF801FCA9
:102228003F3F007E3F00FC03F0FFFFF1FFF801FC99
:102238003F3F007E3F00FC03F1FC03F1FFF801FC87
:102248003F3F00FE3F00FC03F1F803F0000001FCF3
:102258003F3F81FE3F00FC03F1F807F0000001FC5E
:102268003F1FFFFE3F00FC03F1FFFFF0000001FCF1
:102278003F1FFFFE3F00FC03F1FFFFF0000001FCE1
:102288003F0FFF7E3F00FC03F0FFFBF0000001FC66
:102298003F03FE7E3F00FC03F07FF3F0000001FCEB
:1022A8000000000000000000000000000000000026
:1022B8000000000000000000000000000000000016
:1022C8000000000000000000000000000000000006
:1022D80000000000000000000000000000000000F6
:1022E80000000000000000000000000000000000E6
:1022F80000000000000000000000000000000000D6
:1023080000000000000000000000000000000000C5
:1023180000000000000000000000000000000000B5
:1023280000000000000000000000000000000000A5
:102338000000000000000000000000000000000095
:102348000000000000000000000000000000000085
:102358000000000000000000000000000000000075
:102368000000000000000000000000000000000065
:102378000000000000000000000000000000000055
:102388000000000000000000000000000000000045
:102398000000000000000000000000000000000035
:1023A8000000000000000000000000000000000025
:1023B8000000000000000000000000000000000015
:1023C8000000000000000000000000000000000005
:1023D80000000000000000000000000000000000F5
:1023E80070C00F40C0000000120000001300000081
:1023F800D0841F4001000000FF000000FF00000023
:10240800000000000000000013000000130000009E
:10241800CC841F4001000000FF000000FF00000006
:1024280000000000000000001C000000F1D60000C1
:1024380070C00F40000C00001100000011000000E7
:10244800E0841F40020000002C0000001200000081
:10245800E0841F400100000010000000110000008F
:10246800DC841F40020000002D0000001200000064
:10247800DC841F40010000001E000000FDD60000A3
:1024880080C00F4000000003190000001000000089
:10249800E8841F4001000000FF000000FF0000006A
:1024A80000000000000000001800000010000000FC
:1024B800E4841F4001000000FF000000FF0000004E
:1024C80000000000000000001F00000009D7000005
:1024D8000000600000000000000000000000000094
:1024E80000E0000000000000000000000000000103
:1024F800E00000000000000000000000000001F003
:102508000000000000000000000000000003F000D0
:1025180000000000000000000000000007F00000BC
:10252800000000000000000000000007F8000000A4
:10253800000000000000000000000FF80000000389
:10254800C0007E000001E0007F0FF800000003C01B
:1025580000FE000001E000FFEFF800000003C000EB
:10256800FE000001E000FFFFF800000003C000F0DB
:102578000000000F007FFE7FC0000003C000F000D5
:1025880000000F003FFE7FF83FF1FBCFFCFEF3BCDD
:102598003DEFE01FFE7FFF7FFBFFDFFEFEFFBC3D40
:1025A800EFE01FC6FFFF7FFBFFDFFEFEFFBC3DEF36
:1025B800E00FE3C7FE787BC3DE1EF0FFBC3DEF00F3
:1025C80007FF87FC787BC3DE1EF0F83C3DEF000177
:1025D800FFFFF0007BC3C01EF0F03C3DEF0001F3AD
:1025E8007FE03FFBC3CFFEF0F03C3DEF0003E33F4D
:1025F800807FFBC3DFFEF0F03C3DEF0007E73C00C7
:10260800787BC3DE1EF0F03C3DEF0007FFBE00788C
:102618007BC3DE1EF0F03C3DEF0007FFFE00787B39
:10262800C3DE1EF0F03C3DEF000FFFFE007FFBFF16
:10263800DFFEF0F03FFDEFE00FFFFF007FFBFFDF65
:10264800FEF0F03FFDEFE00FF9FF003E79F9CF9E75
:10265800F0F01F3DE7E01FF1FF0000000000000060
:1026680000000000001F80FF007FFFFFFFFFFFFF4B
:10267800FFFFFFE01C007F007FFFFFFFFEB46D88B7
:102688008D18E000001F007FFFFFFFFE95AD7DB5B0
:1026980077E000000F007FFFFFFFFEA5AD9D8D19BD
:1026A800E0000006007FFFFFFFFEB5ADEDB57EE060
:1026B8000000000118035400650065006E007300F7
:1026C800790020004D0049004400490018035400D7
:1026D800650065006E00730079006400750069008C
:1026E8006E006F000403090409029500030100C08D
:1026F80032080B0002020201000904000001020274
:10270800010005240010010524010101042402062A
:1027180005240600010705820310001009040100C2
:10272800020A0000000705030240000007058302B3
:102738004000000904020002010300000724010010
:1027480001250006240201010006240202020009F4
:102758002403010301020100092403020401010109
:1027680000090504024000000000052501010109D7
:102778000584024000000000052501010300000057
:1027880009029500030100C032080B000202020191
:1027980000090400000102020100052400100105DF
:1027A800240101010424020605240600010705820C
:1027B8000310000509040100020A000000070503D0
:1027C8000200020007058302000200090402000259
:1027D800010300000724010001250006240201016D
:1027E8000006240202020009240301030102010079
:1027F8000924030204010101000905040200020082
:1028080000000525010101090584020002000000FD
:1028180005250101030000000A060002EF0201403D
:0428280001000000AB
:10282C00000000000000000000000000000000009C
:10283C00000000000000000000000000000000008C
:10284C00F8B54FF084439D695A6915400DD0244F5B
:10285C0001269D6195FAA5F4B4FA84F457F8243056
:10286C0006FA04F49847A543F4D11E4B9D695A69A6
:10287C0015400DD01C4F01269D6195FAA5F4B4FAB4
:10288C0084F457F8243006FA04F49847A543F4D19D
:10289C00164B9D695A6915400DD0154F01269D6147
:1028AC0095FAA5F4B4FA84F457F8243006FA04F433
:1028BC009847A543F4D10F4B9D695A6915400DD02B
:1028CC000D4F01269D6195FAA5F4B4FA84F457F8DE
:1028DC00243006FA04F49847A543F4D1F8BD00BFA0
:1028EC002852002000400042A852002000800042E4
:1028FC002853002000C00042A85300200548064B76
:10290C001B1AD90F01EBA301491002D0034B03B1E1
:10291C0018477047C05E0020C05E00200000000019
:10292C0008B5054B1BB105490548AFF30080BDE860
:10293C000840FFF7E3BF00BF0000000068780120EB
:10294C0000AC026000207047704700BF036D0BB1F4
:10295C0001207047406D003818BF0120704700BF40
:10296C00704700BF10B5044617F0ECFF204610BDB1
:10297C0010B50446806D18B11AF05EFF0023A365F4
:10298C00236D2BB104F11800BDE8104014F06ABEA1
:10299C00636D002BF6D110BD08B5172018F08AFB1B
:1029AC0060B9084A13680133012B08DD064B01217D
:1029BC0010601970054A064B12681A6008BD136046
:1029CC00F8E700BF287701202CC003203CBC032073
:1029DC0098BA0120054B1B78DB0706D5044A012069
:1029EC000449054B126808701A60704719C003201F
:1029FC003CBC032003C00320A4BA0120054B1B7868
:102A0C009B0706D5044A01200449054B126808703F
:102A1C001A60704719C003203CBC032005C003207A
:102A2C00ACBA012010B50446806D00B110BD4FF456
:102A3C0080701AF0F9FEA065B0B10022236D02700F
:102A4C003BB101464FF48072184614F0B7F9A06DF3
:102A5C0010BD636D002BE9D001464FF4807218460F
:102A6C0011F0ACFDA06D10BD014B1846A36510BD57
:102A7C00FABF032038B5056D6DB10BB1002038BD20
:102A8C001146284612F028FE0028F7D02846BDE84B
:102A9C00384012F0C3BF446D002CEFD0204610F02C
:102AAC00A1F80028EAD02046BDE8384011F052B811
:102ABC008A79A2F150031B0622D402F26C72F0B593
:102ACC004B7985B0046D01330D798E784F78DBB27C
:102ADC0009784CB1204601960095CDE9027104218C
:102AEC0012F030FF05B0F0BD406D0028FAD0019611
:102AFC000095CDE90271042110F070FF05B0F0BD16
:102B0C000020704710B50446006D80B1037813F0B7
:102B1C00700F00D110BD002112F0DEFD606D002899
:102B2C00F8D000220023BDE8104010F05BB8606DB7
:102B3C000028EFD090F8313013F0500FEAD000227B
:102B4C000023BDE8104010F04DB800BF036D10B568
:102B5C000C4682B02BB30DF1060201A9184612F0F7
:102B6C0061F938B3BDF80430BDF8062053EA020110
:102B7C0020D0C2F3451C02F01F00D20AC3F343114C
:102B8C00400084F801C0A2705A0A013903F01F03F7
:102B9C0002F5EA622070012061712371A27102B00A
:102BAC0010BD406D30B10DF1060201A90FF0C0FE51
:102BBC000028D7D1002002B010BD00BF036D10B5A6
:102BCC000C4682B02BB30DF1060201A9184612F087
:102BDC0019F938B3BDF80430BDF8062053EA0201E8
:102BEC0020D0C2F3451C02F01F00D20AC3F34311DC
:102BFC00400084F801C0A2705A0A013903F01F0387
:102C0C0002F5EA622070012061712371A27102B099
:102C1C0010BD406D30B10DF1060201A90FF076FE2A
:102C2C000028D7D1002002B010BD00BF000000006A
:102C3C002B490B68022B4ADC2A4810B402782A4C28
:102C4C0082F001022478027064B901334FF084429F
:102C5C004FF08070022BC2F888000B600ED05DF82C
:102C6C00044B7047002AF0D001334FF084424FF0F0
:102C7C008070022BC2F884000B60F0D11B4B93EDDB
:102C8C00007A9FED156BB8EE477B27EE067BB7EE0F
:102C9C00C77BB5EEC07AF1EE10FAE0D9DFED147A0D
:102CAC00B4EEE77AF1EE10FAD9DCF3EE086AFEEE38
:102CBC00007AE7EE267AFCEEE77A17EE902A102AD5
:102CCC00CDD90C490C485DF8044B17F0D7BD0A4818
:102CDC0017F038BEAFF30080666666666666E63F40
:102CEC0048BD032032C003202FC0032048770120A9
:102CFC00ABAA2A4D110400004454002010B5044620
:102D0C0000230A2217F0F0FE2046BDE8104017F011
:102D1C00C1BE00BF69B170B5054608460C461CF033
:102D2C001FF82B680246214628465B68BDE87040B8
:102D3C0018477047006990B10368154A1B699342A4
:102D4C0025D1036D63B1187810F0080007D0D8694D
:102D5C005B69C01A48BF6FF0004070471846704757
:102D6C00436D002BFAD093F8310010F00800F6D028
:102D7C00186919685A69401A5B6862EB0303B0F171
:102D8C00004F73F10003EAD36FF00040704718470F
:102D9C00A1090000036973B11A68084952698A4293
:102DAC0007D1186D08B112F023BB586D18B10FF094
:102DBC0003BF184610474FF0FF3070477D070000E7
:102DCC0000B5006983B08DF8071060B10368104A34
:102DDC00DB68934215D1036D43B101220DF107015C
:102DEC00184612F055FE03B05DF804FB406D002848
:102DFC00F9D001220DF1070110F01EFF03B05DF8B0
:102E0C0004FB01220DF10701984703B05DF804FBA8
:102E1C00B9080000036963B11A68074992698A42CC
:102E2C0008D1186D08B112F087BD586D08B110F0BB
:102E3C005FBC70471846104725080000036D13B19E
:102E4C00586900217047436D13B1D3E900017047F5
:102E5C0018461946704700BF036D13B1D86900219D
:102E6C007047436D13B1D3E90401704718461946F6
:102E7C00704700BFF0B595B000224FF47A74244F20
:102E8C001831054604A88DF80C200097CDE90124D3
:102E9C00CDE9122214F052FC129B002B2DD05C2099
:102EAC00002618F07DFC019B04464660C36004A913
:102EBC00029B183040F8083C9DF80C3000F8043C9C
:102ECC00144B40F8183C144B40F8103C14F088FBA1
:102EDC00124B4FF47A72A7602B606368A6650133BE
:102EEC006E602E73AA602C6163600D4B04A8009376
:102EFC0014F0B8FB284615B0F0BD139B002BCED1B7
:102F0C00064A2B732A602B61C5E90134EDE700BF3B
:102F1C007C400020A0400020FC40002050400020BD
:102F2C00F43D0020054B1B78DB0706D5044A012035
:102F3C000449054B126808701A6070471BC00320C7
:102F4C003CBC032003C00320A4BA0120054B1B7812
:102F5C009B0706D5044A01200449054B12680870EA
:102F6C001A6070471BC003203CBC032005C0032023
:102F7C00ACBA012040B102680749126B8A4209D1F0
:102F8C00026D12B1012070477047406D003818BFB8
:102F9C0001207047104700BF2D010000036D13B1D5
:102FAC00184612F025BA406D08B10FF005BE4FF06F
:102FBC00FF307047836C13B1184612F019BAC06C0D
:102FCC0008B10FF0F9BD4FF0FF307047036D33B10E
:102FDC001B7813F0700F14BF012000207047406D58
:102FEC0030B190F8313013F0500F14BF0120002095
:102FFC00704700BF036D13B1184612F025B9406D30
:10300C0008B10FF009BD4FF0FF307047836C00B56D
:10301C0083B063B101220DF10701184612F014F9C7
:10302C0001280CD19DF8070003B05DF804FBC06CBF
:10303C0028B101220DF107010FF0EEFCF0E74FF083
:10304C00FF30F1E7036D13B1184612F075BC406DFB
:10305C0008B110F04DBB7047836C13B1184612F0D9
:10306C006BBCC06C08B110F043BB7047036923B351
:10307C001968134A10B58C6882B0944214D1186D3B
:10308C0048B101220DF1070112F0DEF890B19DF864
:10309C00070002B010BD586D0028F8D001220DF1C8
:1030AC0007010FF0B9FCF1E701220DF107011846F9
:1030BC00A047EBE74FF0FF30EBE74FF0FF307047E6
:1030CC00D5070000836C13B1184612F0E1BCC06C3C
:1030DC0008B110F0B1BD7047036D13B1184612F072
:1030EC00D7BC406D08B110F0A7BD704700B5836C1C
:1030FC0083B08DF8071043B101220DF1070118467A
:10310C0012F0C6FC03B05DF804FBC06C0028F9D0CB
:10311C0001220DF1070110F08FFD03B05DF804FBE7
:10312C008A79A2F150031B0622D402F26C72F0B51C
:10313C004B7985B0046D01330D798E784F78DBB205
:10314C0009784CB1204601960095CDE90271022117
:10315C0012F0F8FB05B0F0BD406D0028FAD00196D6
:10316C000095CDE90271022110F038FC05B0F0BDDC
:10317C0000207047836C53B1187810F008000DD004
:10318C00D8695B69C01A48BF6FF000407047C36CC8
:10319C00A3B193F8310010F0080000D17047186902
:1031AC0019685A69401A5B6862EB0303B0F1004F6F
:1031BC0073F10003F2D36FF0004070471846EDE74F
:1031CC00036D53B1187810F008000DD0D8695B6905
:1031DC00C01A48BF6FF000407047436DA3B193F81D
:1031EC00310010F0080000D17047186919685A694D
:1031FC00401A5B6862EB0303B0F1004F73F10003FC
:10320C00F2D36FF0004070471846EDE70369D3B175
:10321C000E4810B41C68E46884420FD1186D18B1C4
:10322C005DF8044B12F034BC586D18B15DF8044BCA
:10323C0010F002BD00205DF8044B70471846234681
:10324C005DF8044B18470020704700BFB908000018
:10325C0048B10368174A5B6B934210B5044616D10C
:10326C00806D10B110BD144870474FF480701AF087
:10327C00DBFAA065C8B10022236D027053B1014680
:10328C004FF48072184613F099FDA06D10BDBDE887
:10329C0010401847636D002BE4D001464FF4807248
:1032AC00184611F08BF9A06D10BD044B1846A365A0
:1032BC0010BD00BF05020000AC2E0020FABF032099
:1032CC0038B504460C4B806D236018B11AF0B4FA73
:1032DC000023A365236D04F118054BB1284614F0A7
:1032EC00C1F9064B2846A36014F0BCF9204638BD42
:1032FC00636D002BF2D1F4E7A0400020F43D0020D8
:10330C0038B504460E4B806D236018B11AF094FA50
:10331C000023A365236D04F118056BB1284614F046
:10332C00A1F9084B2846A36014F09CF920465C21B7
:10333C0018F038FA204638BD636D002BEED1F0E75B
:10334C00A0400020F43D002030B4029C11469C4665
:10335C0034B1012C1CD0022C0ED0002030BC704794
:10336C00056DF5B14FF0FF33934274EB0C04F4D3BD
:10337C00284630BC12F0B0B9026D0AB3D3695918A3
:10338C004CF10003002BE8D1104630BC12F0A4B96C
:10339C00026D62B1536959184CF10003002BDCD15A
:1033AC00F2E7406D0028D8D030BC0FF01BBC406D4C
:1033BC000028D2D0D0E900238A184CEB0303F3E7A2
:1033CC00406D0028C9D0D0E9042330BC8A184CEBDE
:1033DC0003030FF007BC00BF38B5044649B10846DB
:1033EC000D461BF0BDFC2368024629465B6820464F
:1033FC0098472046BDE8384017F04CBB08B51AF08A
:10340C0007F810B908BD1AF047F81AF001F80028AF
:10341C00F9D1012008BD00BF38B50446094D112172
:10342C0009481AF05FF8214600230A22284617F0B3
:10343C005BFB284617F02EFB21460020BDE83840E8
:10344C0017F0E4BF384C00200021002038B50020D4
:10345C003A4CFFF7E1FF1B2139481AF043F80023DF
:10346C000A2220461946374D17F03EFB204617F02E
:10347C0011FB0021012017F0C9FF1D2132481AF061
:10348C0031F800230A222046194617F02DFB20465E
:10349C0017F000FB0021022017F0B8FF03232B4A82
:1034AC002946204617F012FBA321032017F0AEFF8C
:1034BC000323274A2946204617F008FBA3210420A2
:1034CC0017F0A4FF0323234A2946204617F0FEFADF
:1034DC00A321052017F09AFF02231F4A29462046F4
:1034EC0017F0F4FAA221062017F090FF02231B4AD2
:1034FC002946204617F0EAFAA221072017F086FF8A
:10350C00174A1849204617F0E1FA0121082017F054
:10351C007DFF154A1549204617F0D8FA00210920DD
:10352C0017F074FF12492046124A17F0CFFA012106
:10353C000C20BDE8384017F069BF00BF384C0020A4
:10354C0088300020DC300020A4300020C430002063
:10355C00F0300020083100202031002038310020CC
:10356C00EC1900204C310020643100207031002017
:10357C00983100209031002008B560B90E2109481F
:10358C0019F0B0FF084817F085FA4FF0E023074A0E
:10359C00C3F80C2D08BDFFF759FF4FF47A7017F0E4
:1035AC00E1FCEBE744320020384C00200400FA0523
:1035BC0010B5002017F01AFE044611210A4819F024
:1035CC0091FF00230A222146084817F08DFA07487C
:1035DC0017F060FA022C01D8204610BD00242046BA
:1035EC00FFF71AFF204610BDEC200020384C0020BD
:1035FC0038B50446094D1B21094819F073FF2146C3
:10360C0000230A22284617F06FFA284617F042FAD0
:10361C0021460120BDE8384017F0F8BE384C002098
:10362C008830002070B514460D461E4602462346CF
:10363C000549064817F04AFA44EA06012846BDE84F
:10364C00704017F0E3BE00BFDC300020384C002087
:10365C0010B550B10B490C4A0C4817F037FA012140
:10366C000820BDE8104017F0D1BE04460549084AB1
:10367C00064817F02BFA21460820BDE8104017F039
:10368C00C5BE00BF4C310020EC190020384C002086
:10369C00702F002010B550B10B490C4A0C4817F094
:1036AC0015FA01210920BDE8104017F0AFBE044601
:1036BC000549084A064817F009FA21460920BDE8D1
:1036CC00104017F0A3BE00BF7031002090310020D5
:1036DC00384C00206431002010B550B10B490C4A15
:1036EC000C4817F0F3F901210C20BDE8104017F03D
:1036FC008DBE04460549084A064817F0E7F92146ED
:10370C000C20BDE8104017F081BE00BF983100209E
:10371C0090310020384C002064310020F8B50B208B
:10372C0042F20F7617F062FD04460A20240217F0CD
:10373C005DFD04F47F440444A4B2B4420AD8651C71
:10374C0042F21073ADB29D4218D1002534462F467B
:10375C00294604E0002601253746294634460A202E
:10376C0017F054FE39460B2017F050FE2B4632460C
:10377C000449054817F0AAF92046F8BDE9B22646D7
:10378C002F0AECE7742D0020384C002070B505464C
:10379C000C490D482A4605F108062C4617F096F9F7
:1037AC0014F8011B04F2FF10401B17F02FFEA64269
:1037BC00F6D10521054819F095FE0348BDE8704087
:1037CC0017F068B9082F0020384C0020302F00204B
:1037DC00F8B5074640F2012524210C487C1EFE1D3D
:1037EC00ED1B19F07FFE281917F000FD04F8010FEE
:1037FC00B442F8D10023052105483B7219F072FE42
:10380C000448BDE8F84017F045B900BFB02E0020C1
:10381C00302F0020384C0020012810B504460BD066
:10382C00022816D090B11A210B4819F05BFE0B48F8
:10383C00BDE8104017F02EB90B21094819F052FEC3
:10384C00064817F027F9074B1C6010BD0D210648E0
:10385C00F4E70C210548F1E7B40E0020384C0020A9
:10386C00980E002008520020880E0020A40E002084
:10387C00194B2DE9F041194E0446DFF868801F689A
:10388C00174D04F00F03092B1BD0082B04F0F0028A
:10389C0020D80134E4B257B9992CF2D8414655F8E6
:1038AC0024001BF001F80028EBD0204610E0032C7C
:1038BC00E7D8414656F824001AF0F6FF0028E0D06D
:1038CC00F3E704F0F0041034E4B2902CE3D90020B8
:1038DC00BDE8F0811446DEE74C770120D8050020C6
:1038EC00700300205409002000F00F03092B16D0A0
:1038FC00082B00F0F0020DD9002311090C4801EB44
:10390C008101007803EB4103DBB2984238BF0022FF
:10391C0010467047431CDAB203F00F03EDE700F0DA
:10392C00F0001030C2B2902AE6D90022104670473F
:10393C0018C00320144B2DE9F041DFF858800446E1
:10394C00124E1D68124F23070FD114F0F00417D13B
:10395C009924002DF7D156F8240041461AF0A4FF03
:10396C000028F0D02046BDE8F081013CE4B215B946
:10397C00992CE8D8EFE7032CE5D857F82400ECE7AE
:10398C00073CE4B2F3E700BF4C7701207003002042
:10399C00D805002054090020030705D110F0F000D1
:1039AC001FD1632399200AE00138C0F3031200F001
:1039BC000F03C0B202EB820203EB4203DBB20A4AF2
:1039CC0012789A420CD2094BA3FB0213DB08C3EB0F
:1039DC004311C3EB8101490001EB03131A44D0B22C
:1039EC0070470738E1E700BF18C00320CDCCCCCC22
:1039FC0070B5274D002128460DF0F6FA254B022113
:103A0C0028462B610DF0EAFA234B1C78012C0AD0C6
:103A1C00022C27D0BCB10022204B43F63F7110463C
:103A2C009A70198070BD1E4B00241C495F221B78B4
:103A3C0028464A7002221B098C7030330B7016F02A
:103A4C00F5FF204670BD154E45F65F73304633804A
:103A5C00B4701BF085F931460246284616F0E6FF95
:103A6C00204670BD0E4B00220C4C1B78A2702046D9
:103A7C001A0903F00F0330323033227063701BF0DD
:103A8C006FF921460246284616F0D0FF012070BD82
:103A9C00E07300200100230023C00320887801205C
:103AAC000DC0032038B5174B04461B68002B0FD0F4
:103ABC00154D1A461549B8BF5A1C2868096800EB01
:103ACC0062028A4204DC0344994200DD296038BD5D
:103ADC000F4D4FF001130F4A00212846C5E904236E
:103AEC000DF082FA012128460DF078FA002CEED068
:103AFC0020461BF035F9214602462846BDE83840E1
:103B0C0016F094BF1C7601201076012080780120DD
:103B1C00E07300200100140038B5174B04461B68F5
:103B2C00002B0FD0154D1A461549B8BF5A1C2868E2
:103B3C00096800EB62028A4204DC0344994200DD0E
:103B4C00296038BD0F4D4FF001130F4A0021284654
:103B5C00C5E904230DF048FA012128460DF03EFA80
:103B6C00002CEED020461BF0FBF8214602462846DE
:103B7C00BDE8384016F05ABF187601200C760120AB
:103B8C0080780120E07300200100260038B5174B27
:103B9C0004461B68002B0FD0154D1A461549B8BFAB
:103BAC005A1C2868096800EB62028A4204DC034450
:103BBC00994200DD296038BD0F4D4FF001130F4ABB
:103BCC0000212846C5E904230DF00EFA01212846F0
:103BDC000DF004FA002CEED020461BF0C1F8214663
:103BEC0002462846BDE8384016F020BF1476012066
:103BFC000876012080780120E07300200100380055
:103C0C0038B50A4D04460A4B012128462B610DF0AC
:103C1C00E5F94CB120461BF0A3F821460246284694
:103C2C00BDE8384016F002BF38BD00BFE07300207D
:103C3C001E00260030B55E4A83B05E4C15682368C2
:103C4C005B1B962B06D95C4D236813602B7883F095
:103C5C0001032B70FF281CD00F2811D8574C237848
:103C6C00012B5ED013F0FD0F49D00020B3B9524B9D
:103C7C001B78002B14BFCC23FC230B7003B030BD7E
:103C8C001238072805D8DFE800F0251C04040414BA
:103C9C0004104A4B00201B78002BE8D0013BDBB210
:103CAC00012BEBD8464B1B7831E0444B02201B78A0
:103CBC00DCE7424B1B78A3F10200B0FA80F040091C
:103CCC00D4E73E4C2378012B59D0022B30D09BB13A
:103CDC000020E3E7394C2378012B41D0022B34D060
:103CEC00002BF5D1374A184601911288012A54D07D
:103CFC00FFF752FE019903460222314D04E0000108
:103D0C0001222F4D0C30C3B200202B7022702A4A96
:103D1C000B70127812B943F00F03DBB20B7003B0C7
:103D2C0030BD274D02222B7823F00F030343EBE722
:103D3C00244B234D1B882878012B019125D0FFF7AC
:103D4C00D3FD019902220346DEE71E4B1C4D1B8856
:103D5C002878012B01911CD0FFF71EFE0199F1E789
:103D6C00184B174D1B882878012B019100F0F0009F
:103D7C0018D0FFF711FE019903460222C4E7104D3B
:103D8C000222287800F0F003BEE7FFF771FD0199DD
:103D9C00D8E7FFF7CFFD0199D4E7FFF7CBFD0199E9
:103DAC000346A9E7FFF7C6FD01990346E5E700BF07
:103DBC00DC6F00203CBC032001C0032023C0032087
:103DCC000DC00320DEBF032008B5374B1B68042B46
:103DDC0021D8DFE803F0424A03032200334B344A74
:103DEC001B88344903F51F5311603C339BB2092BDC
:103DFC0050D8314A52F82300FFF754FE2F4B1B8842
:103E0C0003F51F533C339BB2092B45D82A4A52F871
:103E1C002300FFF781FE012008BD254B1868FFF732
:103E2C0041FE224B1B8803F51F533C339BB2092BDD
:103E3C0038D8214A52F82300FFF76EFE1F4B1B881F
:103E4C0003F51F533C339BB2092B29D81A4A52F85D
:103E5C002300FFF79BFE012008BD154B184A19489B
:103E6C001A60FFF71FFE012008BD104B104A1B887B
:103E7C00134903F51F5311603C339BB2092B0DD82A
:103E8C000D4A52F82300FFF70DFE0E48FFF744FED3
:103E9C00012008BD0C48AFE70B48BAE70A48F2E727
:103EAC000948D6E70848C7E7D4BE0320EEBF032075
:103EBC008C54002078120020E8050020F0BF03206D
:103ECC00581200206C120020B8070020554B1B68BC
:103EDC0010B5072B2CD8DFE803F0840404562D2DE5
:103EEC003267514C514B52491B68228851481AF089
:103EFC0097F95048FFF7D6FD2388B3F5005F00F023
:103F0C008C8000F28380B3F5006F02D0B3F5805F34
:103F1C0002D14948FFF700FE484B1A682AB14849BC
:103F2C000020484A0968186011604748FFF72EFEC8
:103F3C00012010BD4548FFF7B5FD012010BD444BD5
:103F4C001A681E2A05D03E491E20424A096818608C
:103F5C0011604148FFF7A6FD404B41491A8835488E
:103F6C001AF05EF93F4B1A682AB1354900203E4AD7
:103F7C000968186011602F48FFF7CEFD3248FFF733
:103F8C0005FE012010BD3948FFF78CFD354B1A6832
:103F9C001E2A05D02A491E20334A09681860116070
:103FAC003348FFF7B9FDC0E7294B1A682AB12449F9
:103FBC000020284A0968186011602A4B1A682AB137
:103FCC001F490020284A0968186011601B4B1A68A9
:103FDC00002AADD01A4900201A4A096818601160ED
:103FEC00A6E7124B234A24481A60FFF75BFD134BDC
:103FFC001A68122A05D012491220124A0968186050
:10400C0011601E48FFF7C2FD012010BDB3F5804FB3
:10401C0003D0B3F5004F7FF47FAF1948FFF77CFD59
:10402C007AE700BFE4F40020DCBF03200452002038
:10403C0010220020E8F40020202200201476012019
:10404C008078012008760120502200208C2200204C
:10405C001C7601201076012098220020D8BF032066
:10406C00AC220020187601200C760120682200205A
:10407C007822002058120020E4210020F821002092
:10408C00382200202DE9F0474FF00009DFF8E482D8
:10409C00012484B049464046B34E432725460CF0D4
:1040AC00A3FF3B4622B20221404600950834CDE9DD
:1040BC0001950CF0E7FE16F8017FA4B2002FF0D1A9
:1040CC00AA4D03200A23DFF8ACA22988012432224E
:1040DC00B94601F00101DFF8A48254260291394659
:1040EC002746CDE9003050460CF0A2FA334622B2F6
:1040FC000F21504600970834CDE901970CF0C2FE11
:10410C0018F8016FA4B2002EF0D12A8803210A23DB
:10411C00DFF86092C2F3400201244846B246029294
:10412C003222A046924F5326CDE900310D210CF0DE
:10413C007FFA334622B21C214846CDF80080083461
:10414C00CDE901A80CF09EFE17F8016FA4B2002E69
:10415C00EFD12A8803210A23DFF818A2C2F38002C8
:10416C0001245046DFF8188202923222A1464227DF
:10417C00CDE900311A210CF05BFA3B4622B2292121
:10418C005046CDF800900834CDE901690CF07AFE68
:10419C0018F8017FA4B2002FEFD12A8803210A233B
:1041AC00DFF8D0A1C2F3C00201245046DFF8D4815D
:1041BC0002923222A1464826CDE9003127210CF08B
:1041CC0037FA334622B236215046CDF800900834E7
:1041DC00CDE901790CF056FE18F8016FA4B2002E4F
:1041EC00EFD12A8803210A23DFF888A1C2F3001239
:1041FC0001245046DFF8908102923222A1464327D7
:10420C00CDE9003134210CF013FA3B4622B24321A4
:10421C005046CDF800900834CDE901690CF032FE1F
:10422C0018F8017FA4B2002FEFD12A8803210A23AA
:10423C00DFF840A1C2F3401201245046DFF84C8154
:10424C0002923222A1464326CDE9003141210CF0E5
:10425C00EFF9334622B250215046CDF80090083485
:10426C00CDE901790CF00EFE18F8016FA4B2002E06
:10427C00EFD12A8803210A23DFF8F8A0C2F38012B9
:10428C0001245046DFF8088102923222A1465227BF
:10429C00CDE900314E210CF0CBF93B4622B25D2129
:1042AC005046CDF800900834CDE901690CF0EAFDD8
:1042BC0018F8017FA4B2002FEFD12A8803210A231A
:1042CC00DFF8B0A0C2F3C01201245046DFF8C4805E
:1042DC0002923222A1465426CDE900315B210CF02A
:1042EC00A7F9334622B26A215046CDF80090083423
:1042FC00CDE901790CF0C6FD18F8016FA4B2002EBF
:10430C00EFD12A880A2303210124C2F30022194881
:10431C00A046194F02923222DFF85890CDE90031B5
:10432C0068210CF085F9432322B277214846CDF859
:10433C0000800834CDE901680CF0A4FD17F8013FAA
:10434C00A4B2002BF0D1288803210A233222C0F317
:10435C004020019175210093029006480CF068F9F9
:10436C0004B0BDE8F08700BF38190020945B002032
:10437C0044190020E07300207C1900204019002013
:10438C004C190020541900205C19002064190020DD
:10439C006C1900207419002038B5214B214C1D6874
:1043AC002A4625B32049214816F090FB636D002264
:1043BC0047F61221186815F099FF1D4900234FF696
:1043CC00FF720120096884F85A30A4F8580063661B
:1043DC002366C4E91A2200230322C4F8001184F8CE
:1043EC00F8306367C4F8FC3084F8702038BD11498C
:1043FC000E4816F06BFB636D2A4647F612211868BF
:10440C0015F074FF0A4A4FF6FF73A4F85850116860
:10441C0084F85A50C4E91855C4E91A33DBE700BFD5
:10442C002C54002050770120DC110020384C002047
:10443C003CBC03201C1200202DE9F041022084B06A
:10444C0016F0D4FE0446002800F0EE810246B84B6C
:10445C00B849B94816F03AFB112C28BF0024B74DC7
:10446C0003202C6016F0C2FEB14B10F0010FB449C2
:10447C00044608BF194610F0020FB24A08BF1A468C
:10448C0020F0F003AC48CDE90012AF4AAF4916F06A
:10449C001DFB04F0F003A02B40F0CD8104F00F04C1
:1044AC00AB4B04201C7016F0A1FEA14B10F0010FB9
:1044BC00A349044608BF194610F0020FA14A08BFD1
:1044CC001A4620F0F0039C48CDE90012A14A9F49FE
:1044DC0016F0FCFA04F0F003A02B40F0EC8104F091
:1044EC000F049D4B05201C7016F080FE904B10F0B5
:1044FC00010F9349044608BF194610F0020F914A68
:10450C0008BF1A4620F0F0038B48CDE90012934AFD
:10451C008E4916F0DBFA04F0F003A02B40F0BB81BF
:10452C0004F00F048E4B06201C7016F05FFE804BBF
:10453C0010F0010F8249044608BF194610F0020F13
:10454C00804A08BF1A4620F0F0037B48CDE90012E0
:10455C00844A7E4916F0BAFA04F0F003A02B40F01E
:10456C008A8104F00F04804B07201C7016F03EFE6D
:10457C006F4B10F0010F7249044608BF194610F03A
:10458C00020F704A08BF1A4620F0F0036A48CDE9C2
:10459C000012764A6D4916F099FA04F0F003A02B3C
:1045AC0040F0598104F00F04714B0820714E1C70BF
:1045BC0016F01CFE704B041E704A08BF1A46704958
:1045CC005D48039216F082FA201E039A6D4918BFBB
:1045DC0001206D4C6D4F3070574816F077FA3378D8
:1045EC000C20DFF83C821A1E18BF012243EA42035A
:1045FC0084F8703016F0FAFD061E654914BF3A4671
:10460C0042464D4816F062FA301E624B18BF01202C
:10461C001870092016F0EAFD061E5F4914BF3A46D1
:10462C004246454816F052FA5C4B301E4DF60602D7
:10463C005B4918BF01209A831A855A4A08702421B5
:10464C001A634DF6070219604DF604019A86292269
:10465C0099802521DA634DF60802D9604DF60501E3
:10466C00A3F840202A22198226219A644DF60A02C8
:10467C0099614DF60901A3F85820A3F864204A4A21
:10468C00A3F84C10DA664DF60B024849A3F87020DB
:10469C005965A3F87C204DF60C024549A3F88820F7
:1046AC000022C3F88410302183F892200122A3F851
:1046BC0090104DF60D0183F89320A3F894103D4A09
:1046CC003D49C4E902213D493D4AA1613D49596238
:1046DC003D491966023199673C4BA2633C493D4AFE
:1046EC0063643D4B2868E163A2646362FFF754FE88
:1046FC003A4A3B4C93693B4D43F080533A483B4913
:10470C0093613B4B3B4A036025603B4B3B4C1A602F
:10471C000C603B483B4C3C4B3C4A3D491A600460A6
:10472C003C4B3D483D4A08601A6004B07AE000BF3B
:10473C00942F0020D82E0020384C00202C54002020
:10474C00BC2C0020D0480020C4300020C42C0020F9
:10475C001CC00320F03000201BC0032008310020B7
:10476C001AC003202031002019C00320383100204A
:10477C0020C003201EC00320702F0020EC19002045
:10478C00582F00203033002050770120903100202A
:10479C00283000201DC00320A02F002038740020DA
:1047AC0013C00320280000012D0000032B00000380
:1047BC002F00000105070000019A0000B9AC0000B1
:1047CC00D9230000270000072C000001B5010000D0
:1047DC00BD630000AD640000C5A700000080194057
:1047EC0070BD0320459A00006CBD032078BD0320EA
:1047FC002D0700009123000060BD0320E9AC0000F0
:10480C0088BD0320ED63000064BD0320DD010000C2
:10481C008CBD032094BD0320DD64000035A800008E
:10482C0064310020BDE8F08102462B4B2B492C480B
:10483C0016F04CF913E62B490324294816F046F9D7
:10484C000323294A2949264816F040F9A3210320BD
:10485C0016F0DCFD24E626490224214816F036F930
:10486C000223244A21491E4816F030F9A2210720C0
:10487C0016F0CCFD98E61E490224194816F026F9CC
:10488C0002231D4A1949164816F020F9A2210620C8
:10489C0016F0BCFD67E613490324114816F016F90F
:1048AC000323164A11490E4816F010F9A3210520CE
:1048BC0016F0ACFD36E60B490324094816F006F950
:1048CC0003230F4A0949064816F000F9A3210420D6
:1048DC0016F09CFD05E600BFFC2E0020D82E002013
:1048EC00384C002064300020C4300020DC30002024
:1048FC0048300020383100202031002008310020C1
:10490C00F030002070B50D4D04460D4E1D212C606D
:10491C00E4B20C4818F0E6FD214600230A2230468A
:10492C0016F0E2F8304616F0B5F82146022016F0E3
:10493C006DFD2868BDE87040FFF72EBD2C5400209B
:10494C00384C0020A43000200A4B0B4A0B4900289D
:10495C0008BF1A4610B50A4C20700A4816F0B6F873
:10496C002378094A191E18BF012143EA410382F832
:10497C00703010BD702F0020EC1900203033002057
:10498C001EC00320384C00205077012038B5074D4D
:10499C000446074B2978074A0748002908BF1A46DE
:1049AC00064916F093F82C7038BD00BF1DC00320CB
:1049BC00702F0020EC190020384C0020401D0020E6
:1049CC000C2836D8DFE800F021271B09070B11173C
:1049DC00192D2F3133001848704718487047184B61
:1049EC0018483F2998BF18467047174B17483F295E
:1049FC0098BF184670471648704716487047164BB4
:104A0C0016483F2998BF18467047154B15483F2943
:104A1C0098BF18467047144B14483F2998BF184646
:104A2C007047134870471348704713487047134832
:104A3C0070471348704700BF64190020DC32002017
:104A4C00E83200207C190020F0320020741900207C
:104A5C00F832002000330020D432002054190020FA
:104A6C00C43200204C190020CC3200204419002004
:104A7C00083300201033002018330020203300208E
:104A8C002833002070B504463C480D4615F05AFFFB
:104A9C004CF250339C4237D816F0B8FA384B661E9D
:104AAC001860002D3AD1374B01221A70364B374A19
:104ABC001B781560002B59D1354B364A9E42146039
:104ACC0007D204EB440434492C48E200013A15F0B7
:104ADC00D5FE2A4B002118681971A0B12F4B304A12
:104AEC000344304C1B11D154537810789178834285
:104AFC00D27828BF03468B4228BF0B46934228BF6F
:104B0C00134684F87A3070BD16F080FA1C4B40F6D0
:104B1C00AB5640F6AC541860002DC4D016F076FAA3
:104B2C00214A04F57A731268801A834212D2002348
:104B3C00144A164901201370134A086012781B4955
:104B4C000B70002AB8D04FF084434FF08072C3F83A
:104B5C008820B1E70B49012000230B4A08700B4950
:104B6C0012780B6011490B70002AA5D04FF08443CA
:104B7C004FF08072C3F884209EE700BF445400209D
:104B8C009CBA012032C003202FC0032048BD032053
:104B9C00AAAAAA0A487701201104000000BFF7BF97
:104BAC00484C002000E400E0A0BA012011C0032012
:104BBC0008B50B4B1B789B0700D408BD16F026FAE2
:104BCC00084B094A1B681178C01A8008FFF75AFF76
:104BDC00064B074901201A68064B08701A6008BD7D
:104BEC0019C003209CBA012011C003203CBC032037
:104BFC0005C00320ACBA012008B50B4B1B78DB07B2
:104C0C0000D408BD16F002FA084B094A1B6811784B
:104C1C00C01A8008FFF736FF064B074901201A68B7
:104C2C00064B08701A6008BD19C003209CBA0120FD
:104C3C0011C003203CBC032003C00320A4BA0120F4
:104C4C00074B0849084A10B51C78002818BF0A46BB
:104C5C0018700649064815F039FF204610BD00BFF4
:104C6C0013C00320FC1D0020041E0020101E002079
:104C7C00384C0020092809D80138082828D8DFE842
:104C8C0000F00C0F1215181B1E212400FF2802D156
:104C9C00114B18887047002070474DF6050070477F
:104CAC004DF6060070474DF6070070474DF60800AC
:104CBC0070474DF6090070474DF60A0070474DF6E7
:104CCC000B0070474DF60C0070474DF60D00704709
:104CDC004DF60400704700BF925B0020092809D8EC
:104CEC000138082820D8DFE800F00C0F1113151735
:104CFC00191B1D000D4B0E4AFF2808BF1346184602
:104D0C0070470C4B184670470B4BF8E70B4BF6E70C
:104D1C000B4BF4E70B4BF2E70B4BF0E70B4BEEE7CF
:104D2C000B4BECE70B4BEAE70B4BE8E7841400204A
:104D3C00B0140020441900205419002064190020DC
:104D4C007C19002074190020901400209814002065
:104D5C0018330020A01400204C19002070B5044614
:104D6C0081498248A57815F0B1FE6278092A0AD8E3
:104D7C00013A082A00F2EA80DFE802F0515B6A7916
:104D8C008897A6122F00F02A00F0B480FE2A40F07B
:104D9C00BD802A4676497548BDE8704015F096BE30
:104DAC002A467449714815F091FE002D724B14BFC0
:104DBC00012200221A7040F0BD80704A70496B4885
:104DCC0015F084FE6F4A7049684815F07FFE29463D
:104DDC000920BDE8704016F019BB6C4C2A46654999
:104DEC00624815F073FE2E1E2178694B18BF012600
:104DFC00684A5E48002908BF1A46674915F066FEE6
:104E0C002670002D40F08F805E4A6449574815F09B
:104E1C005DFE29460C20BDE8704016F0F7BA2A4614
:104E2C005F49524815F052FE2846BDE87040FFF726
:104E3C0069BD2A465B494D4815F048FE5A482A463A
:104E4C00A023057003215948BDE87040FEF7EABB6A
:104E5C002A465749454815F039FE56482A46A0239C
:104E6C00057004215448BDE87040FEF7DBBB2A46B0
:104E7C0052493E4815F02AFE51482A46A023057097
:104E8C0005215048BDE87040FEF7CCBB2A464E4980
:104E9C00364815F01BFE4D482A46A0230570062106
:104EAC004B48BDE87040FEF7BDBB2A4649492F4828
:104EBC0015F00CFE48482A46A023057007214748E8
:104ECC00BDE87040FEF7AEBB2A464549274815F0B1
:104EDC00FDFD281E18BF0120FFF736FDE5B92C4A51
:104EEC004049224815F0F2FD29460820BDE87040E3
:104EFC0016F08CBA2A463C491C4815F0E7FD281ED2
:104F0C00BDE8704018BF0120FEF736BB3749174883
:104F1C00BDE8704015F0DABD1E4A01253149134831
:104F2C0015F0D4FDE0E7324A01251C490F4815F075
:104F3C00CDFD6EE72F4A012511490C4815F0C6FD31
:104F4C002B4A1149094815F0C1FD40E72A462A4968
:104F5C00064815F0BBFD2846FEF75EFC2846BDE86A
:104F6C007040FEF759BA00BFA8090020384C002049
:104F7C00B40A0020840A002013C00320041E002061
:104F8C00101E002064310020703100201DC0032051
:104F9C00702F0020EC190020401D002098310020BB
:104FAC00D4090020EC0900201CC00320C4300020D0
:104FBC00040A00201BC00320F03000201C0A002033
:104FCC001AC0032008310020380A002019C0032021
:104FDC0020310020500A002020C00320383100204E
:104FEC00680A00204C310020A00A0020C80A0020CA
:104FFC0090310020FC1D0020C009002070B5054632
:10500C00204E0C4620482A46204915F05FFD337887
:10501C009A0707D4DB0711D41D491B48BDE8704023
:10502C0015F054BD1B49184815F050FD00222946B7
:10503C00204617F06DFC3378DB07EDD5164E17497B
:10504C00114815F043FD736DF021186803681B6857
:10505C00984755B1013C2544736D14F8011F18682D
:10506C0003681B689847A542F6D1736DF721186841
:10507C0003681B68984706490348BDE8704015F063
:10508C0025BD00BF20C00320384C00207407002031
:10509C00B00700209407002050770120A0070020C3
:1050AC00F72813D0124938B50B78124C5B00124D0F
:1050BC002268DBB20B7023F07F0310491843531C9A
:1050CC008B422360A85403DC002038BD01207047BC
:1050DC0027210B4818F006FA21680A4815F0CEFC77
:1050EC00084815F0D7FC0123074A1846137038BD41
:1050FC00FBBF032014BC0220F4BB01201F000100E5
:10510C00EC180020384C002030C0032010B51C4C8B
:10511C00034622680A2A2AD8DFE802F0060B271A6F
:10512C000F0F0F0F0F0F20000022164816490260B8
:10513C000A70F02B08D0002010BDFFF7B1FFD0B9DA
:10514C0023680133236010BD02230020236010BDAF
:10515C000E49042200200B70226010BDFFF7A0FF47
:10516C0048B903230020236010BD6928F9D001231E
:10517C000020236010BD01231846236010BD00BF22
:10518C008C79012014BC022030C00320FBBF03200B
:10519C002DE9F0474FF0000A82B05346CD1802EBD0
:1051AC000A0403F107084FF0000CAAEB030715F8EB
:1051BC0001EB4FEA4C0C01331EF0800F5FFA8CFCB4
:1051CC000EF07F0607EB030918BF4CF0010C83426D
:1051DC0004F8016F06DA4345E9D102F80AC00AF176
:1051EC00080ADBE702F80AC002460549CDF8009030
:1051FC00044815F06BFC09F1010002B0BDE8F08722
:10520C0094170020384C002070B5044637493848B4
:10521C0015F05CFC6278092A61D8DFE802F01E26E2
:10522C002E363E464E565E05324B1D78324930487E
:10523C002A4615F04BFC314E04226923214622707C
:10524C003246A570202002F8013BFFF7A1FF314642
:10525C000130BDE87040FFF7D1BE294B29491D78BC
:10526C0023482A4615F032FCE5E7274B27491D78E1
:10527C001F482A4615F02AFCDDE7254B25491D78E9
:10528C001B482A4615F022FCD5E7234B23491D78F1
:10529C0017482A4615F01AFCCDE7214B21491D78F9
:1052AC0013482A4615F012FCC5E71F4B1F491D7801
:1052BC000F482A4615F00AFCBDE71D4B1D491D7809
:1052CC000B482A4615F002FCB5E71B4B1B491D7811
:1052DC0007482A4615F0FAFBADE7194BA5E7194923
:1052EC000025034815F0F2FBA5E700BF001F0020C6
:1052FC00384C00201DC00320840A002018BC02205A
:10530C0008520020C00900202C540020D409002091
:10531C001CC00320EC0900201BC00320040A002041
:10532C001AC003201C0A002019C00320380A0020D0
:10533C0020C00320500A00201EC00320680A002051
:10534C0013C00320C80A002010B5FA20174C15F022
:10535C0009FE01223C2116480CF0FEFE154A164BA4
:10536C00126820701A6000B910BD2421134818F07F
:10537C00B9F8134815F08EFB0121112015F0ACFE85
:10538C000121102015F0A8FE0021112015F068FE57
:10539C000021102015F064FE0A481EF07DFE0A491B
:1053AC0008480AF0C7FD207810BD00BF07C00320D5
:1053BC00E07300203CBC032084780120341E0020C4
:1053CC00384C00204C69002040420F0030B5D0F81A
:1053DC0080448FB013464CB100250A46684604F54C
:1053EC00896100950FF0E4FD0FB030BDD0F8840456
:1053FC000028F9D00A4600F5896168460C940EF035
:10540C0081FA0FB030BD00BF70B5066904467568EF
:10541C00013D756075BB33681F4ADB6A93422CD122
:10542C00B06D10B118F008FAB565336D63B306F1C1
:10543C00180012F017F92569E5B12B68174A5B685B
:10544C00934225D1164BA86D2B6018B118F0F4F9C6
:10545C000023AB652B6D05F118068BB1304612F0AD
:10546C0001F9104B3046AB6012F0FCF85C21284679
:10547C0016F098F90023236170BD30469847DAE79F
:10548C006B6D002BEAD1ECE7736D002BCFD1D2E71B
:10549C0028469847EEE700BF51010000E10A0000E2
:1054AC00A0400020F43D0020044A036910B50446D6
:1054BC0002600BB1FFF7A8FF204610BD5040002042
:1054CC00064A036910B5044602600BB1FFF79CFF56
:1054DC002046142116F066F9204610BD50400020DD
:1054EC0038B50469A4B1236805460D4ADB6A9342BA
:1054FC0013D1A06D18B118F09FF90023A365236D8B
:10550C003BB104F1180012F0ADF82846FFF77CFF10
:10551C0038BD636D002BF4D1F7E720469847F4E7CC
:10552C0051010000012BF0B5054695B03DD0022B82
:10553C0040F2022001F104010CBF0346002368462F
:10554C0012F0AAF9129B002B38D05C20002616F022
:10555C0027F9214B04AF0446C0E90036019B3946BC
:10556C00183040F80C3C1D4B40F8103C029B40F8A6
:10557C00083C9DF80C3000F8043C12F031F8184B44
:10558C004FF47A72A665A360164B6E602B6063684D
:10559C002E730133AA602C616360134B3846009361
:1055AC0012F060F8284615B0F0BD44F20223043125
:1055BC00684612F071F9129B002BC6D1139B002B7D
:1055CC00C3D14FF47A71074A04AF2B732A602B6155
:1055DC00C5E90131E1E700BFA0400020FC400020FC
:1055EC007C40002050400020F43D0020F0B50246E5
:1055FC009DB0A049A048019215F068FA9F4C019A01
:10560C009F49A04818F00CFE00239E4A08A89E490A
:10561C00FFF788FF236913B12046FFF7F5FE0C99BD
:10562C002161002900F0C7800B68984ADB6B93421C
:10563C004FF0000240F0EE804FF47A74944E183123
:10564C000CA88DF82C200896CDE90924CDE91A2256
:10565C0012F074F81A9B002B00F0B7805C20002528
:10566C0016F09EF88B4B04460CA9C0E90035099B3B
:10567C00183040F80C3C884B40F8103C0A9B40F822
:10568C00083C9DF82C3000F8043C11F0A9FF63682D
:10569C004FF47A72A5650133049505928DF8185074
:1056AC000794C4E901367D4B03937D4B0CA80893FA
:1056BC0011F0D8FF7B4C236913B12046FFF7A4FEF1
:1056CC00079B7048236119F04BFB01466D4817F09E
:1056DC0009FF694815F0DEF92069E8B10368724AE0
:1056EC001B6B934215D1036D002B7AD00B216F48A5
:1056FC0017F0F8FE604815F0CDF92069F8B1036891
:10570C006B4A9B6A934219D1036D002B7AD0DB69EB
:10571C0016E098470028E9D10F21664817F0E2FE01
:10572C005548002415F0B6F90521634817F0DAFE48
:10573C00514815F0AFF920461DB0F0BD984703460F
:10574C005E4F06215E483B6017F0CCFE2569002DAC
:10575C005DD02B685B4A5B6B934264D1AE6D002EBF
:10576C0067D0304619F0FCFA0146304617F0BAFE05
:10577C00414815F08FF90621534817F0B3FE00236A
:10578C000A2239683C4815F0AFF93B4815F082F90C
:10579C0023695BB119684D4A8C6894423DD1186DF0
:1057AC0018B34FF400524A490FF04EFD3D48484C97
:1057BC00FFF796FEB8E74FF47A72384B04918DF8E8
:1057CC00181005920393079174E71B9B002B7FF431
:1057DC0045AF324A8DF8183003920793CDE9043463
:1057EC0063E7436D002B81D196E7586D0028DDD01F
:1057FC004FF4005236490DF00FF92A48344CFFF79C
:10580C006FFE91E7436D002B9AD01B6998E72946F0
:10581C00304EAAE703A898474CE74FF400522C49A6
:10582C001846A047C2E7284698470646002E9FD048
:10583C0097E74FF4807017F0F7FF0146A865A0B109
:10584C000670286D38B14FF4807211F0B7FAAE6D56
:10585C00002E8DD085E7686D18B14FF480720EF074
:10586C00ADFEAE6D002E83D07BE71B4B1E46AB65A9
:10587C0077E700BF380B0020384C00203054002054
:10588C00640B002020760120E86100205506000002
:10589C007C400020A0400020FC4000205040002014
:1058AC00F43D0020145200202D010000740B002048
:1058BC0039060000900B0020A00B0020047601207C
:1058CC00800B002005020000880B0020D50700008B
:1058DC0090990120AC2E0020FABF03202DE9F04F47
:1058EC0093469FB01C46DFF80093024600230AA89B
:1058FC008DE81208A949FFF715FED9F8103013B13D
:10590C004846FFF781FD0E99C9F81010002900F0E8
:10591C00BD810B68A24ADB6B934240F0D4810EAE82
:10592C0000224FF47A749F4F183130460B928DF849
:10593C0034200C940A97CDE91C2211F0FFFE1C9B1D
:10594C00002B00F0AD815C20002515F029FF0B9B8E
:10595C0004464560C36031460C9B183040F8083C47
:10596C009DF8343000F8043C8F4B40F8183C8F4BBA
:10597C0040F8103C11F034FE6368A7600133A56554
:10598C00069563604FF47A738DF820500793884B1B
:10599C0009940593874B30460A9311F063FE864EAB
:1059AC00336913B13046FFF72FFD099C0A25DFF848
:1059BC003C823461002C00F0E18023685B6B434532
:1059CC0040F02281A76D002F00F02A813B782E2B0E
:1059DC0068D1002C00F0E08023685B6B434540F0FD
:1059EC001B81A26D002A00F02D817449744815F0BA
:1059FC006DF8D9F81010002900F0C4800B68684AC3
:105A0C00DB6B93424FF0000240F003810DF1380A3A
:105A1C004FF47A74DFF88CB1183150468DF834207D
:105A2C00CDF828B0CDE90B24CDE91C2211F086FE6F
:105A3C001C9B002B00F0DC805C20002715F0B0FED6
:105A4C000B9B04464760C36051460C9B183040F8D2
:105A5C00083C9DF8343000F8043C534B40F8183C9B
:105A6C00524B40F8103C11F0BBFD514BC4F808B040
:105A7C0005936368A765013306978DF82070636002
:105A8C004FF47A73099407934A4B50460A9311F0DA
:105A9C00E9FD336913B14848FFF7B6FC099C013D99
:105AAC00346187D1002C69D02368464A1B6B934222
:105ABC0060D1236D002B00F0FF800621424817F0C7
:105ACC0011FD3069FDF7C4FB044628B119F048F903
:105ADC000146204617F006FD394814F0DBFF30690B
:105AEC00002800F0F6800368384A9B6A934240F025
:105AFC00FE80036D002B00F0EA80DA69289B344CA1
:105B0C009342226005D233492D4814F0DFFF289BC5
:105B1C0023600621304817F0E5FC00230A22216897
:105B2C00274814F0E1FF264814F0B4FF306978B12F
:105B3C0003682A499B6822688B4240F0DD80036D24
:105B4C00002B00F0CA80029918460FF07DFB3069DB
:105B5C00FDF77EFB18210346214A009818F01CFB28
:105B6C002368019A14481360FFF7BAFC01201FB098
:105B7C00BDE8F08F2046984700289ED100201FB02A
:105B8C00BDE8F08F4FF47A7306918DF820100793CF
:105B9C00074B099105937CE7124A26E7E861002040
:105BAC00550600007C400020A0400020FC40002056
:105BBC0050400020F43D002014520020BC22002054
:105BCC00384C00202D010000800B0020390600000D
:105BDC0004760120E4220020880B0020D507000069
:105BEC001C220020AC2E00203054002005020000A6
:105BFC001D9B002B7FF420AF8DF820300993CDE94D
:105C0C000634434B05933FE72046984734690746D3
:105C1C00DCE605A898473CE7204698470246E4E6B0
:105C2C004FF4807017F000FE0146A06500286BD081
:105C3C000770206DC8B14FF4807211F0BFF8A76DDA
:105C4C003469C3E64FF48070039217F0EDFD014602
:105C5C00A065002854D0039A0270206D70B14FF4E7
:105C6C00807211F0ABF8A26DBFE6606D48B34FF4D3
:105C7C0080720EF0A3FCA76D3469A7E6606D18B1B5
:105C8C004FF480720EF09AFCA26DAEE64FF47A736C
:105C9C0006918DF8201007931D4B099105937EE614
:105CAC001D9B002B7FF44FAE8DF820300993CDE96E
:105CBC000634174B05936DE6636D002B7FF4FDAE38
:105CCC005CE7A76D82E6002205A8984767E6436D5E
:105CDC0083B9104C002323601BE7436D002B3FF46A
:105CEC0037AF029918460CF097FE306930E79847A9
:105CFC00024603E71A6901E702999847306927E7DA
:105D0C00054B1A46A36570E6034B1F46A3655DE67B
:105D1C005040002004760120FABF03202DE9F04109
:105D2C0094B0002305460F469046874902466846C4
:105D3C0011F0B2FD129B002B00F0BD805C20002600
:105D4C0015F02EFD019B04464660C36004A9029B1E
:105D5C00183040F8083C9DF80C3000F8043C7B4BA4
:105D6C0040F8183C7A4B40F8103C11F039FC636851
:105D7C00A66504A80133774E6360774BA360774B1D
:105D8C00009311F06FFC336913B13046FFF73CFB05
:105D9C002368734A1B6B3461934240F0C080236DBF
:105DAC00002B00F099802A466E496F4814F08EFE45
:105DBC003469B4B123686D4ADB6A934240F0B88011
:105DCC00A06D18B117F038FD0023A365236D002BCF
:105DDC0000F0978004F1180011F044FC5D48FFF7C7
:105DEC0013FB634BD3F88414002947D000232A46B5
:105DFC006846009301230FF0D3F900287DD10123CD
:105E0C0068462A465A49FFF78DFB336913B151484E
:105E1C00FFF7FAFA04983061002843D00368504920
:105E2C001A6B8A423BD1026D002A6FD0DB68514A53
:105E3C00934240F08380036D002B57D04246394685
:105E4C0018460FF025FE3469A4B12368474ADB6A73
:105E5C00934270D1A06D18B117F0EEFC0023A3652E
:105E6C00236D002B60D004F1180011F0FBFB3948B6
:105E7C00FFF7CAFA012014B0BDE8F081D3F88834DA
:105E8C00002BBCD00C912A461946684601230DF014
:105E9C0067F90028B3D068460DF004FBAFE79047D4
:105EAC00002837D12A4634492F4814F00FFE002021
:105EBC0014B0BDE8F081139C002C7FF43FAF274B4E
:105ECC0004A8244E009311F0CDFB336943B1304646
:105EDC00FFF79AFA346103E0636D002B7FF463AF34
:105EEC002A462649204814F0F1FD88E7406D48B356
:105EFC00424639460DF0A0FEA5E7684610F056FA6A
:105F0C007DE7636D002B7FF465AF67E7426D002A78
:105F1C008CD1C7E730690028ACD0036886E72046EF
:105F2C0098470028DCD03EE7636D002B9BD19EE7A1
:105F3C002046984752E72046984798E7424639460C
:105F4C00984780E7346980E7EC610020A04000208E
:105F5C00FC400020145200207C400020F43D002026
:105F6C002D010000280E0020384C002051010000AB
:105F7C00E8610020B9080000580E0020400E0020F7
:105F8C002DE9F043064691B00C46174698460A4652
:105F9C0003469C499C489D4D14F098FD00233246C5
:105FAC009B4902A8FFF7BEFA2B6913B12846FFF7ED
:105FBC002BFA0698286110B30368964A1B6B934220
:105FCC0040F0E980036D002B00F0E08092493246EE
:105FDC008D4814F07BFD8D48FFF782FA8C4BD3F87B
:105FEC008414002900F0BF800023324602A80293DB
:105FFC0001230FF0D5F810B102A810F0D7F9DFF893
:10600C003C920023C9F80030002C00F0A7802246F7
:10601C007F4902A8FFF786FA2B6913B17B48FFF77B
:10602C00F3F906982861002834D0036879491A6B73
:10603C008A4240F0C980026D002A00F0B1809B6A50
:10604C0076498B4240F0B480D269B2F5004F88BFDC
:10605C004FF40042C9F8002071496B4814F036FD2A
:10606C00D9F8002000216F48019218F0BDFA2B6975
:10607C006BB11968019A8C686B498C4240F00181B4
:10608C00186D002800F0DC8066490FF0DDF85F48E1
:10609C00FFF726FA012302A832465D49FFF742FAC0
:1060AC002B6913B15948FFF7AFF9069C2C61002CF2
:1060BC004CD02368574A1B6B934214D1236D002B91
:1060CC0041D0D9F80020C2B92368584ADB68934202
:1060DC0040F0BE80206D002800F08B80424639468F
:1060EC000FF0D6FC15E02046984700282ED0D9F8A2
:1060FC0000202C69002A62D014B323684B49DB685A
:10610C008B4240F0AA80206D00286BD045490FF0DF
:10611C00BFFC2C69A4B12368454ADB6A93425ED16B
:10612C00A06D18B117F088FB0023A365236D002B1D
:10613C0041D004F1180011F095FA3448FFF764F9D6
:10614C0011B0BDE8F083636D002BBAD132463949EA
:10615C002D4811B0BDE8F04314F0B8BC36492A48BC
:10616C0014F0B4FC96E7D3F88834002B3FF447AF17
:10617C000E913246194602A801230CF0F1FF0028BB
:10618C003FF43DAF02A80DF08DF938E7436D002BBD
:10619C007FF41CAF33E7984700283FF430AF15E786
:1061AC00426D002A3FF476AF9B6A1C4A934263D03F
:1061BC009847024649E7636D002BBAD1BDE7002C26
:1061CC0082D111B0BDE8F083904700283FF462AF54
:1061DC002869002847D10022C9F800203CE7204656
:1061EC009847AAE7606D00283BD00E490DF024FDBE
:1061FC008FE7606D00288ED0424639460DF01CFDAD
:10620C0087E700BF34140020384C002014520020C3
:10621C00E86100202D010000280E00203906000046
:10622C005014002004F60020D5070000B908000027
:10623C0051010000580E0020641400200476012047
:10624C00586D00283FF423AF10490CF0E5FB1EE716
:10625C0042463946204698475BE70C49204698470A
:10626C0057E72C6957E70368094A9B6A93429FD109
:10627C00026D002A7FF4E8AE436D002BABD01A6997
:10628C00E3E618460149A04701E700BF04F60020E9
:10629C00390600002DE9F04F0746DFF8C0A29DB08B
:1062AC00A349A4483A4614F011FCDAF8100000286F
:1062BC0000F0E6810368A04A1B6B934240F0DC813E
:1062CC00036D002B00F0EC814FF014099B4DC84678
:1062DC00B94612E000239A4A08A8089301230EF04D
:1062EC005FFF002840F08981954A9649914814F047
:1062FC00EDFBB8F1010800F0668100234A46924993
:10630C0008A811F0C9FA1A9B002B00F039815C2007
:10631C00002615F045FA099B00F1180B8B4FC36052
:10632C0004460A9B0CA9466003619DF82C3007605B
:10633C000375874B8360584611F052F9854BA6655F
:10634C000CA808936368844E0133A660636011F057
:10635C0089F9DAF8103013B18048FFF755F8236843
:10636C007F4ADB6BCAF81040934240F05281002206
:10637C004FF47A7459460CA8089609928DF82C2083
:10638C000A94CDE91A2211F0D9F91A9B002B00F0CE
:10639C0028815C2015F004FA6D4B076000278360A0
:1063AC000446099B0CA94760183040F80C3C0A9B2A
:1063BC0040F8083C9DF82C3000F8043C11F010F922
:1063CC006368A6600133A765049763604FF47A7322
:1063DC008DF818700593634B079403935D4B0CA8D1
:1063EC00089311F03FF92B6913B15448FFF70CF8DF
:1063FC0007982861002800F0E28003684E4A1B6B66
:10640C00934240F00B81036D002B00F0E5804C4C67
:10641C004A46FF21204617F0BFFE204618F0A0FC8C
:10642C00514B1B8823522C69002C00F0D38023681D
:10643C004E4A5B6B934240F0F880A16D002900F04E
:10644C00F8803F4818F022F93D4A4949394814F080
:10645C003DFB2C69002C4FD02368464EDB6AB342BF
:10646C0040F0E080A06D18B117F0E6F90023A365A9
:10647C00236D002B00F0C88004F1180011F0F2F825
:10648C002F697C68013C7C60002C33D13B68DB6A53
:10649C00B34240F0FA80B86D10B117F0CDF9BC657D
:1064AC003B6D002B00F0D98007F1180011F0DAF8E1
:1064BC002C69FCB12368304A5B68934240F0ED8054
:1064CC00224BA06D236018B117F0B6F90023A36519
:1064DC00236D04F11806002B00F0DA80304611F021
:1064EC00C1F81C4B3046A36011F0BCF820465C216F
:1064FC0015F058F900232B61204BD3F88414002994
:10650C007FF4E8AED3F88834002B3FF4EDAE149151
:10651C0008A819460A4A01230CF022FE00283FF471
:10652C00E3AE08A80CF0BEFF00287FF4E2AEDBE679
:10653C00CC1A0020384C00202D01000014520020F1
:10654C0020760120E41A0020EC610020A0400020FD
:10655C00FC400020F43D00207C4000203054002002
:10656C005506000050400020F833002005020000C2
:10657C00280E002051010000E10A0000E861002013
:10658C001B9C002C7FF4C3AE4A4B0CA8089311F053
:10659C0069F8DAF8103023B14748FEF735FFCAF82E
:1065AC001040002304938DF8183007934FF47A733E
:1065BC000593424B03932B69002B7FF416AF404994
:1065CC00404814F083FA40493E481DB0BDE8F04FF6
:1065DC0014F07CBA3D4934E7436D002B7FF417AFC0
:1065EC00EDE71B9B002B7FF4D4AE8DF8183007938E
:1065FC00CDE90434314B0393F0E608A80FF0D6FE36
:10660C0000287FF476AE6FE6636D002B7FF434AF19
:10661C0036E72146002203A89847E4E6984700286D
:10662C00CDD0F4E6204698472AE720469847014605
:10663C0007E74FF48070019117F0F6F8A065002879
:10664C0033D001990170236D63B101464FF4807210
:10665C00184610F0B3FBA16DF3E67B6D002B7FF4B5
:10666C0023AF25E7636D2BB101464FF480721846BA
:10667C000DF0A4FFA16DE4E6984700287FF424AE4A
:10668C001349104814F022FA9DE7384698470FE753
:10669C00636D002B7FF422AF23E72046984729E750
:1066AC00436D002B7FF410AEEAE70A4B1946A36545
:1066BC00C7E600BFF43D00203054002050400020BD
:1066CC000C1B0020384C0020741B0020AC2E00202A
:1066DC003C1B0020FABF03202DE9F041054694B085
:1066EC0013461646884602465049514814F0EEF9B6
:1066FC0044F202232A464F49684611F0CDF8129B0A
:10670C00002B5AD05C20002715F04AF8019B044658
:10671C004760C36004A9029B183040F8083C9DF800
:10672C000C3000F8043C444B40F8183C434B40F808
:10673C00103C10F055FF6368A76504A80133404F67
:10674C006360404BA360404B009310F08BFF3B69A0
:10675C0013B13846FEF758FE23683C4A1B6B3C616C
:10676C0093424DD1236D002B37D03B691A68D46806
:10677C00374A944253D1186D00283AD032464146DC
:10678C000FF086F93C69A4B12368324ADB6A934264
:10679C0042D1A06D18B117F04FF80023A365236DFB
:1067AC00002B35D004F1180010F05CFF2448FEF7E4
:1067BC002BFE012014B0BDE8F081139C002CA1D15C
:1067CC00214B04A81E4E009310F04CFF33693BB1D3
:1067DC003046FEF719FE346102E0636D002BC4D124
:1067EC002A461D49124814F071F9002014B0BDE876
:1067FC00F081586DC0B1324641460DF01DFAC1E72B
:10680C00204698470028EBD03B69002BD1D0ADE750
:10681C00636D002BC6D1C9E720469847C6E73246C0
:10682C0041461846A047ADE73C69ADE7C0070020DC
:10683C00384C0020EC610020A0400020FC400020DF
:10684C00145200207C400020F43D00202D0100005B
:10685C00B908000051010000DC0700202DE9F04FC1
:10686C0005469DB00E468B488B492A46019614F07E
:10687C002DF92A4689498A4817F0D2FC0023884A08
:10688C0008A8884911F008F81A9B002B00F0968094
:10689C005C20002614F084FF099B00F1180BDFF834
:1068AC003882C36004460A9B0CA97F4F03619DF894
:1068BC002C3046600375C0F800808760584610F095
:1068CC008FFE6368DFF814920CA80133A665DFF81D
:1068DC00F4A1764E6360C4F80890CDF820A010F0B7
:1068EC00C1FE326912B13046FEF78EFD2368704A44
:1068FC00DB6B3461934240F0B38000224FF47A7426
:10690C0059460CA8CDF8209009928DF82C200A94A9
:10691C00CDE91A2210F012FF1A9B002B00F0908088
:10692C005C2014F03DFF099B87600027C360044680
:10693C000A9B0CA9C0F80080183040F8083C9DF860
:10694C002C3040F8147C00F8043C10F049FE6368CD
:10695C00C4F808900133A765049763604FF47A7309
:10696C008DF818700593534B079403930CA8CDF82E
:10697C0020A010F077FE504C236913B14E48FEF75F
:10698C0043FD07982061A8B103684C4A1B6B9342E6
:10699C000DD1036D002B5FD049493E4814F096F899
:1069AC00019B002B2BD101201DB0BDE8F08F984727
:1069BC000028F1D100201DB0BDE8F08F1B9C002CED
:1069CC007FF466AF3F4B0CA8384F089310F04AFE8B
:1069DC003B691BB13846FEF717FD3C6100234FF4B1
:1069EC007A72354C8DF8183020690793CDE9043252
:1069FC00304A03920028C1D11DB0BDE8F08F324956
:106A0C00244814F063F82069FCF722FC2A4603465C
:106A1C002E49234817F004FC214A2D491D4814F037
:106A2C0055F82C4BD3F88424FAB1002011460123DD
:106A3C001B4A089008A80EF0B3FB30BB0198B3E7D3
:106A4C001B9B002B7FF46CAF8DF818300793CDE9AE
:106A5C000434184B039389E7436D002B9CD1A9E7B1
:106A6C002146002203A8984785E7D3F8881400290B
:106A7C0099D0149201230A4A08A80CF071FB002843
:106A8C00DCD008A80CF00EFDD8E708A80FF08EFC9F
:106A9C00D4E700BF384C002014210020640B0020E8
:106AAC0020760120EC610020FC40002030540020B6
:106ABC005506000050400020145200202D0100000B
:106ACC0040210020F43D00205C2100207421002096
:106ADC0088210020E8610020A04000207C4000209C
:106AEC00104BD3F8840410B558B1002308220E497A
:106AFC0000F589600FF002FD0B48BDE8104013F063
:106B0C00C9BFD3F88844002CF6D00346082204F5FC
:106B1C00896005490CF0E6FB0348BDE8104013F012
:106B2C00B9BF00BFE8610020384C00202DE9F04FC0
:106B3C0007468846A1B05B4943463A465A48DFF8B7
:106B4C00ACA113F0C3FF00233A4658490CA8FEF73A
:106B5C00E9FCDAF8103013B15046FEF755FC1099E9
:106B6C00CAF81010002900F0B2810B68504ADB6B98
:106B7C00934240F0CA8210AE00224FF47A74DFF8D0
:106B8C006891183130460D928DF83C200E94CDF85A
:106B9C003090CDE91E2210F0D1FD1E9B002B00F091
:106BAC00A0815C20002514F0FBFD0D9B0446456084
:106BBC00C36031460E9B183040F8083C9DF83C30C1
:106BCC0000F8043C3B4B40F8183C3B4B40F8103C65
:106BDC0010F006FD6368C4F808900133A5650895AC
:106BEC0063604FF47A738DF828500993334B0B94F0
:106BFC000793334B30460C9310F034FD314D2B6919
:106C0C0013B12846FEF700FC0B982861FCF7B2F98B
:106C1C00002800F050812869002800F06E8103687C
:106C2C00294A9B6A934240F07C82036D002B00F052
:106C3C006681DB69254C2360FCF70AFB3F21024689
