:0200000460009A
:100000004643464200000156000000000103030081
:1000100000000000000000000000000000000000E0
:1000200000000000000000000000000000000000D0
:1000300000000000000000000000000000000000C0
:1000400000000000010408000000000000000000A3
:100050000000800000000000000000000000000020
:100060000000000000000000000000000000000090
:100070000000000000000000000000000000000080
:10008000EB04180A063204260000000000000000FD
:10009000050404240000000000000000000000002F
:1000A0000000000000000000000000000000000050
:1000B0000604000000000000000000000000000036
:1000C0000000000000000000000000000000000030
:1000D00020041808000000000000000000000000DC
:1000E0000000000000000000000000000000000010
:1000F0000000000000000000000000000000000000
:10010000D8041808000000000000000000000000F3
:100110000204180804200000000000000000000095
:1001200000000000000000000000000000000000CF
:10013000600400000000000000000000000000005B
:1001400000000000000000000000000000000000AF
:10015000000000000000000000000000000000009F
:10016000000000000000000000000000000000008F
:10017000000000000000000000000000000000007F
:10018000000000000000000000000000000000006F
:10019000000000000000000000000000000000005F
:1001A000000000000000000000000000000000004F
:1001B000000000000000000000000000000000003F
:1001C000000100000010000001000000000000001D
:1001D000000001000000000000000000000000001E
:1001E000000000000000000000000000000000000F
:1001F00000000000000000000000000000000000FF
:10020000FFFFFFFFFFFFFFFFFFFFFFFFFFFFFFFFFE
:10021000FFFFFFFFFFFFFFFFFFFFFFFFFFFFFFFFEE
:10100000D100204325160060000000000000000011
:101010002010006000100060008C026000000000E2
:10102000000000600098020000000000FFFFFFFFCA
:10103000FFFFFFFFFFFFFFFFFFFFFFFFFFFFFFFFC0
:10104000FFFFFFFFFFFFFFFFFFFFFFFFFFFFFFFFB0
:10105000FFFFFFFFFFFFFFFFFFFFFFFFFFFFFFFFA0
:10106000FFFFFFFFFFFFFFFFFFFFFFFFFFFFFFFF90
:10140000884207D0904205D251F8043B40F8043B93
:101410008242F9D8704700BF884204D2002340F8C6
:10142000043B8142FBD870472DE9884800F0D0F991
:101430000824614B614AC3F8544161496148FFF790
:10144000DFFF614A61496248FFF7DAFF614962489C
:10145000FFF7E2FF614C4FF0E0214FF470000023F2
:101460005F4AC1F8880D44F823200133B02BFAD12C
:101470005C4B80215C4A03F8011B9342FBD14FF087
:10148000E0254D4E4FF08039DFF88CB1DFF88CA1AC
:101490004FF0FF31C5F8084D0027C6F80491C6F893
:1014A00000B1C6F8F490C6F8F0A0D5F8243DDFF8F6
:1014B000708143F4E0234D4AC5F8243DD8F81C3030
:1014C00023F07F0343F04003C8F81C30D8F82430E1
:1014D00023F07F0343F04003C8F824309166D166BF
:1014E0001167516700F07CF9414B4249A363424BBD
:1014F000E36363236B610323AF612B613F4BC5F84B
:10150000203DD5F8FC3D43F08073C5F8FC3D3C4BD5
:101510001A6842F001021A605B680B6000F09EFBE3
:10152000C6F804913748C6F800B1C6F8F490C6F87A
:10153000F0A000F03DFDD8F86C10334B334A41F475
:101540004051C8F86C101F60C3F80871C3F81871D7
:10155000C3F82871C3F83871936BDB0708D442F6DF
:1015600015632B4951651365936B43F00103936336
:10157000264A284C936843F00113936000F0ACF9BD
:1015800000F0D0FC00F008FD00F096FB00F01CFD20
:101590002368132BFCD900F027FC2368B3F5967F52
:1015A000FBD300F01BF900F017F900F0F1FC00F09C
:1015B000FBFC30BFFDE700BF00800D408806020045
:1015C0002C28006000000000C05A0020B82E0260E5
:1015D0000000002060BC0320C05A002000580020FA
:1015E000BD7F010000E400E0A0E400E000C00A408C
:1015F000B568010014B80320B9680100000020207C
:10160000001000E00046C3230040084000400D40A9
:101610000000C05618B803201B1018200C0D111321
:1016200000C00F40074B4FF42A01074A07485A648D
:101630001864074A99639546BFF34F8FBFF36F8FC6
:10164000FFF7F2FE00C00A40FFABAAAA0700200085
:101650000080052043690A4A03EB011010B4037AA5
:10166000084C02EB0313D3E901321460C2681A601C
:1016700003690BB142691A605DF8044B704700BF03
:10168000883E002061F801004369027E03EB0212EC
:1016900092F808C08C451CD01A7AFF2A19D09142C2
:1016A00010B5044616D01A7EFF2A06D00121D3E9D0
:1016B000002312681A4201D1217610BD064B052283
:1016C000204603EB0C135B681A60FFF7C3FF21761B
:1016D000F3E770470021EAE7883E002043690A4AA1
:1016E00003EB011010B490F82830084C02EB031300
:1016F000D3E901321460C26A1A60036B0BB1426B0A
:101700001A605DF8044B7047883E002061F80100C4
:101710004369427E03EB021292F828C08C451ED02A
:1017200093F82820FF2A1AD0914210B5044617D00A
:1017300093F83820FF2A06D00121D3E9002312684C
:101740001A4201D1617610BD064B0522204603EBFB
:101750000C135B681A60FFF7C1FF6176F3E770470F
:101760000021EAE7883E0020164942698B6B23F48A
:101770007C0343F4802370B58B630446124DD2E999
:1017800000130A681A4303690A60022200211A61E1
:101790000E4A19619A6401225A629D624FF43035F3
:1017A000DD624FF001159E6C1E6519629D651A6120
:1017B000017EFFF74FFF617E2046BDE87040FFF7D6
:1017C0008DBF00BF00C00F40B80B05053B3728197F
:1017D000704700BF704700BF704700BF00BF704731
:1017E00010B44FF0E023002110242B48C3F8941DBF
:1017F000C3F89C4D1124C3F8A00D2848C3F89C4D94
:101800001224C3F8A00D2648C3F89C4D254AC3F8FE
:10181000A00D254C42F015022448C3F89C4DC3F896
:10182000A00D234C2348C3F89C4DC3F8A00D224CB7
:10183000C3F89C2D2148224AC3F8A04DC3F89C0D43
:10184000C3F8A02D02F5A0221E4C0C321E48C3F88E
:101850009C4DC3F8A02D1D4AC3F89C0D1C4CC3F829
:10186000A02D01221B48C3F89C4DC3F8A00DC3F85E
:10187000942DBFF34F8FBFF36F8FC3F8501FBFF38B
:101880004F8FBFF36F8FD3F8142D5DF8044B42F4E4
:101890004032C3F8142D70473F00001025000803A4
:1018A0000900100060BC0320130020002100020783
:1018B0001400002025000813090000101600202045
:1018C00027000B1317000040180000602F000B07C3
:1018D000190000702F000B13F0B5B84B1822B84E4A
:1018E0000120B84F83B0C3F85C62B749C3F8607297
:1018F000B64DC3F86462A6F53046B54CC3F86862CD
:10190000C3F86C52C3F87052C3F87452C3F87852DB
:1019100048F20C75DA661A675A679A67DA67C3F88D
:101920008020C3F88420C3F88820C1F82C03A94A7A
:10193000C1F83003C1F83403C1F83803C1F83C03DF
:10194000C1F85003A169A44B0A40A448A449134319
:10195000A44AA361D4F8843043F00C03C4F8843063
:101960004FF0FF34036843F00203036003682B4029
:101970004FF400551A439C4B026044608A689B4CAC
:1019800013409B4A43F000538360C36823F07803FD
:10199000C360036A134023430362036A1340954AFA
:1019A0002343954C43628262C2620022D1F8B83070
:1019B00023F03F0343F00103C0F8B830D1F8BC3046
:1019C0008E4923F03F0343F00103C0F8BC3040F2DE
:1019D0000563026105660467C0F8803045664467A8
:1019E0000224C0F88430036823F00203036081619D
:1019F000834B8449C46143F8042B8B42FBD1774A63
:101A0000136843F001031360136813F00103FBD163
:101A10007A48022140F2F564906140F29940D16128
:101A200040F26641C2F8004242F20144C2F810128C
:101A30007549C2F82002C2F8301240F235417348AD
:101A4000C2F83442C2F84012714CC2F8500242F25D
:101A500001207049C2F854120121C2F86042C2F854
:101A600064025E48C2F8A030C2F8A430C2F8B010D8
:101A70004369DA07FCD5012300244FF4803257492B
:101A80004361C0F8A040C0F8A420C0F8B0304B6952
:101A9000DB07FCD5012300244FF400304F4A4B6193
:101AA000C1F8A040C1F8A400C1F8B0305369DF0705
:101AB000FCD501230024584848495361C2F8A0408E
:101AC000C2F8A400C2F8B0304B69DE07FCD5D1F8EB
:101AD000003145F60D5221209BB24861934265D1F9
:101AE00000244FF4802201233C48C1F8A040C1F8F3
:101AF000A420C1F8B0304369DD07FCD501234FF4C1
:101B000000040021354A4361C0F8A040C0F8A41089
:101B1000C0F8B0305369DC07FCD501234FF4000452
:101B20004FF480302D495361C2F8A040C2F8A400A0
:101B3000C2F8B0304B69D807FCD501234FF400043C
:101B40004FF40030254A4B61C1F8A040C1F8A40011
:101B5000C1F8B0305369D907FCD501234FF4000414
:101B60002D481E495361C2F8A040C2F8A400C2F833
:101B7000B0304B69DA07FCD5D1F8003145F60D528B
:101B800021209BB24861934250D008254FF40004B5
:101B900022490020224B234A009015705A1A012333
:101BA0002148224400F0F0F903B0F0BD1E4B0022A2
:101BB000C3E90022C3E9022203B0F0BD00801F4048
:101BC000F9B00100F910010000841F40F970010014
:101BD00000C00F40FFFCFF1F000300A000402A4090
:101BE00000802A401200FFFFFF37F700400000800E
:101BF00000FFF07CFF000F8363000200F05AF05AF0
:101C000000422A4000432A409F041830EB06180A7D
:101C10003806180A0632012604000300000000708E
:101C200000000070EFBB0320CCF100204FF4000453
:101C30004FF4802201230848C1F8A040C1F8A42035
:101C4000C1F8B0304369DB07FCD5012310254FF004
:101C5000807443619CE700BF00402A40F0B4154AFD
:101C600040274FF480314FF480564FF400554FF425
:101C7000404443F24200136913F0020F0ED113F4F3
:101C8000005F0FD013F4805F0ED0002BF3DA13F453
:101C9000803F0BD15B060BD5F0BC7047946151615E
:101CA0009061E8E75561E6E75661E4E79161E2E7B4
:101CB0005761E0E700800D403F4A03203F49F3EEC3
:101CC000095AD2F880304FF0000C9FED3D6A23F0A6
:101CD00001039FED3C5A30B4C2F88030C2F8900046
:101CE000D1F8E010384DCBB2384C39482B6007EEB4
:101CF000903A0B0DC1F30B21F8EEE77A06EE903A1D
:101D000007EE101A334BB8EEC77A2160F8EEE66A98
:101D1000314937EEC66A37EEC55A76EEC76A77EEB6
:101D2000E57A26EE266AC3ED006A25EE265AD2F839
:101D3000803067EEA64AC0ED007AC6EE275A2748E3
:101D400085EE276AC4EEA76A75EE875AFCEEE55A5F
:101D500036EE076A15EE904ABCEEC66A43EA0453B3
:101D600076EE877AC2F8803016EE103AD2F89041BB
:101D7000FCEEE77A01EA0341214317EE903AC2F8FC
:101D80009011C3F30B03D2F890110B431449C2F81E
:101D90009031D2F8803043F00203C2F88030114B0A
:101DA00080F840C0C1F840314FF0E023012230BC40
:101DB000C3F80821704700BF00810D4000441F4058
:101DC0000000AA420000B442D0B50120CCB50120E9
:101DD000D4B50120D8B501200000FF0F00E400E0D9
:101DE000005800209D810100314B40F6617210B512
:101DF000C3F8202140F2044400F0D2F82D4A2E49C5
:101E0000D2F880302D4843F00303C2F880302C4BC9
:101E1000C1F8604102681A4203D1D1F8A8319A078B
:101E20001BD0254A4FF00041244B5963D2F8403172
:101E300043F00203C2F84031D2F840319B07FBD493
:101E40004FF400304FF0E0211C4B4FF00042C1F83E
:101E50008C0219209A6300F0B3F8184A4FF08040C2
:101E6000154C002190630A20164B11604FF420722C
:101E7000C4F8A801184600F09FF84FF4800203460A
:101E80004FF4810040F243111860C4F858311A64CD
:101E90000D4B0E4AC4F84811C3F804224FF0E0225B
:101EA0004FF400310123C2F80C11C4F8403110BDC9
:101EB00000800D4000C00F4000002E4000900D40FB
:101EC000001C1E000000002000580020BD830100FF
:101ED00008B50E4B1B6E9B0700D4FBBE72B60C4BB5
:101EE00000200C4AC3F8400103F160430A49A3F5FE
:101EF0005F2311649D46BFF34F8F4FF400130748D3
:101F0000074ADB6902609B68984700BF00441F4096
:101F100000002E4000C00A40030020000080202066
:101F2000000012EB104BA020104AD96E41F4403152
:101F300010B4D96640F23764D96E41F44071D96665
:101F400054649064936C1B06FCD4094A40F23761D8
:101F5000A02351649364936C13F08003FBD1054A72
:101F600013705DF8044B704700C00F4000400C40F8
:101F700000800C40DDBB0320F8B500BFF8BC08BCF6
:101F80009E467047000000005FF800F0399D010098
:101F90005FF800F019B301005FF800F0A17E0100C6
:101FA0005FF800F0F98A01005FF800F0757C01002D
:101FB0005FF800F08D7201005FF800F08DAC010059
:101FC0005FF800F07D7501005FF800F0C56A000061
:101FD00001010000917D000045C7000051E80000AC
:081FE000D5EF0000496F01007C
:101FE80000000000000000000000000000000000E9
:101FF80000000000000000000000000000000000D9
:1020080000000000000000000000000000000000C8
:1020180000000000000000000000000000000000B8
:1020280000000000000000000000000000000000A8
:102038000000000000000000000000000000000098
:102048000000000000000000000000000000000088
:102058000000000000000000000000000000000078
:102068000000000000000000000000000000000068
:102078000000000000000000000000000000000058
:102088000000000000000000000000000000000048
:102098000000000000000000000000000000000038
:1020A8000000000000000000000000000000000028
:1020B8000000000000000000000000000000000018
:1020C8000000000000000000000000000000000008
:1020D80000000000000000000000000000000000F8
:1020E80000000000000000000000000000000000E8
:1020F80000000000000000000000000000000000D8
:1021080000000000000000000000000000000000C7
:1021180000000000000000000000000000000000B7
:1021280000000000000000000000000000000000A7
:102138000000000000000000000000000000000097
:102148003F000000000000000000000000001FFC2D
:102158003F000000000000000000000000007FFCBD
:102168003F00000000000000000000000000FFFC2D
:102178003F00000000000000000000000001FFFC1C
:102188003F00000000000000000000000003FFFC0A
:102198003F00000000000000000000000007FFFCF6
:1021A8003F3F007E3F3FC0FF001FFF80000FF9FC4C
:1021B8003F3F007E3F7FF3FFC07FFFE0001FE1FC51
:1021C8003F3F007E3FFFFFFFE0FFFFE0000FC1FC45
:1021D8003F3F007E3FFFFFFFE1FFFFF0000781FC6C
:1021E8003F3F007E3FC1FF07F1F807F0000301FC05
:1021F8003F3F007E3F80FE03F00003F0000001FC3B
:102208003F3F007E3F00FC03F03FFBF1FFF801FC7D
:102218003F3F007E3F00FC03F0FFFFF1FFF801FCA9
:102228003F3F007E3F00FC03F0FFFFF1FFF801FC99
:102238003F3F007E3F00FC03F1FC03F1FFF801FC87
:102248003F3F00FE3F00FC03F1F803F0000001FCF3
:102258003F3F81FE3F00FC03F1F807F0000001FC5E
:102268003F1FFFFE3F00FC03F1FFFFF0000001FCF1
:102278003F1FFFFE3F00FC03F1FFFFF0000001FCE1
:102288003F0FFF7E3F00FC03F0FFFBF0000001FC66
:102298003F03FE7E3F00FC03F07FF3F0000001FCEB
:1022A8000000000000000000000000000000000026
:1022B8000000000000000000000000000000000016
:1022C8000000000000000000000000000000000006
:1022D80000000000000000000000000000000000F6
:1022E80000000000000000000000000000000000E6
:1022F80000000000000000000000000000000000D6
:1023080000000000000000000000000000000000C5
:1023180000000000000000000000000000000000B5
:1023280000000000000000000000000000000000A5
:102338000000000000000000000000000000000095
:102348000000000000000000000000000000000085
:102358000000000000000000000000000000000075
:102368000000000000000000000000000000000065
:102378000000000000000000000000000000000055
:102388000000000000000000000000000000000045
:102398000000000000000000000000000000000035
:1023A8000000000000000000000000000000000025
:1023B8000000000000000000000000000000000015
:1023C8000000000000000000000000000000000005
:1023D80000000000000000000000000000000000F5
:1023E80070C00F40C0000000120000001300000081
:1023F800D0841F4001000000FF000000FF00000023
:10240800000000000000000013000000130000009E
:10241800CC841F4001000000FF000000FF00000006
:1024280000000000000000001C000000A9C6000019
:1024380070C00F40000C00001100000011000000E7
:10244800E0841F40020000002C0000001200000081
:10245800E0841F400100000010000000110000008F
:10246800DC841F40020000002D0000001200000064
:10247800DC841F40010000001E000000B5C60000FB
:1024880080C00F4000000003190000001000000089
:10249800E8841F4001000000FF000000FF0000006A
:1024A80000000000000000001800000010000000FC
:1024B800E4841F4001000000FF000000FF0000004E
:1024C80000000000000000001F000000C1C600005E
:1024D8000000600000000000000000000000000094
:1024E80000E0000000000000000000000000000103
:1024F800E00000000000000000000000000001F003
:102508000000000000000000000000000003F000D0
:1025180000000000000000000000000007F00000BC
:10252800000000000000000000000007F8000000A4
:10253800000000000000000000000FF80000000389
:10254800C0007E000001E0007F0FF800000003C01B
:1025580000FE000001E000FFEFF800000003C000EB
:10256800FE000001E000FFFFF800000003C000F0DB
:102578000000000F007FFE7FC0000003C000F000D5
:1025880000000F003FFE7FF83FF1FBCFFCFEF3BCDD
:102598003DEFE01FFE7FFF7FFBFFDFFEFEFFBC3D40
:1025A800EFE01FC6FFFF7FFBFFDFFEFEFFBC3DEF36
:1025B800E00FE3C7FE787BC3DE1EF0FFBC3DEF00F3
:1025C80007FF87FC787BC3DE1EF0F83C3DEF000177
:1025D800FFFFF0007BC3C01EF0F03C3DEF0001F3AD
:1025E8007FE03FFBC3CFFEF0F03C3DEF0003E33F4D
:1025F800807FFBC3DFFEF0F03C3DEF0007E73C00C7
:10260800787BC3DE1EF0F03C3DEF0007FFBE00788C
:102618007BC3DE1EF0F03C3DEF0007FFFE00787B39
:10262800C3DE1EF0F03C3DEF000FFFFE007FFBFF16
:10263800DFFEF0F03FFDEFE00FFFFF007FFBFFDF65
:10264800FEF0F03FFDEFE00FF9FF003E79F9CF9E75
:10265800F0F01F3DE7E01FF1FF0000000000000060
:1026680000000000001F80FF007FFFFFFFFFFFFF4B
:10267800FFFFFFE01C007F007FFFFFFFFEB46D88B7
:102688008D18E000001F007FFFFFFFFE95AD7DB5B0
:1026980077E000000F007FFFFFFFFEA5AD9D8D19BD
:1026A800E0000006007FFFFFFFFEB5ADEDB57EE060
:1026B8000000000118035400650065006E007300F7
:1026C800790020004D0049004400490018035400D7
:1026D800650065006E00730079006400750069008C
:1026E8006E006F000403090409029500030100C08D
:1026F80032080B0002020201000904000001020274
:10270800010005240010010524010101042402062A
:1027180005240600010705820310001009040100C2
:10272800020A0000000705030240000007058302B3
:102738004000000904020002010300000724010010
:1027480001250006240201010006240202020009F4
:102758002403010301020100092403020401010109
:1027680000090504024000000000052501010109D7
:102778000584024000000000052501010300000057
:1027880009029500030100C032080B000202020191
:1027980000090400000102020100052400100105DF
:1027A800240101010424020605240600010705820C
:1027B8000310000509040100020A000000070503D0
:1027C8000200020007058302000200090402000259
:1027D800010300000724010001250006240201016D
:1027E8000006240202020009240301030102010079
:1027F8000924030204010101000905040200020082
:1028080000000525010101090584020002000000FD
:1028180005250101030000000A060002EF0201403D
:0428280001000000AB
:10282C00000000000000000000000000000000009C
:10283C00000000000000000000000000000000008C
:10284C00F8B54FF084439D695A6915400DD0244F5B
:10285C0001269D6195FAA5F4B4FA84F457F8243056
:10286C0006FA04F49847A543F4D11E4B9D695A69A6
:10287C0015400DD01C4F01269D6195FAA5F4B4FAB4
:10288C0084F457F8243006FA04F49847A543F4D19D
:10289C00164B9D695A6915400DD0154F01269D6147
:1028AC0095FAA5F4B4FA84F457F8243006FA04F433
:1028BC009847A543F4D10F4B9D695A6915400DD02B
:1028CC000D4F01269D6195FAA5F4B4FA84F457F8DE
:1028DC00243006FA04F49847A543F4D1F8BD00BFA0
:1028EC000C4C0020004000428C4C00200080004228
:1028FC000C4D002000C000428C4D00200548064BBA
:10290C001B1AD90F01EBA301491002D0034B03B1E1
:10291C0018477047C05A0020C05A00200000000021
:10292C0008B5054B1BB105490548AFF30080BDE860
:10293C000840FFF7E3BF00BF00000000487401200F
:10294C000098026000207047704700BF036D0BB108
:10295C0001207047406D003818BF0120704700BF40
:10296C00704700BF10B50446806D18B119F080FE99
:10297C000023A365236D2BB104F11800BDE81040B2
:10298C0013F04CBE636D002BF6D110BD08B51720AB
:10299C0017F0ACFA60B9084A13680133012B08DD53
:1029AC00064B012110601970054A064B12681A601B
:1029BC0008BD1360F8E700BF087301200BBC0320AF
:1029CC0018B8032078B60120054B1B78DB0706D519
:1029DC00044A01200449054B126808701A607047BC
:1029EC00FBBB032018B80320E3BB032080B60120F7
:1029FC00054B1B789B0706D5044A01200449054B5F
:102A0C00126808701A607047FBBB032018B80320CB
:102A1C00E5BB032088B6012010B50446806D00B1DB
:102A2C0010BD4FF4807019F01BFEA065B0B10022F0
:102A3C00236D02703BB101464FF48072184613F0BF
:102A4C0099F9A06D10BD636D002BE9D001464FF4D0
:102A5C008072184610F08EFDA06D10BD014B18460B
:102A6C00A36510BDDABB032038B5056D6DB10BB194
:102A7C00002038BD1146284611F00AFE0028F7D078
:102A8C002846BDE8384011F0A5BF446D002CEFD0AE
:102A9C0020460FF083F80028EAD02046BDE83840E5
:102AAC0010F034B88A79A2F150031B0622D402F23A
:102ABC006C72F0B54B7985B0046D01330D798E785D
:102ACC004F78DBB209784CB1204601960095CDE9E0
:102ADC000271022111F012FF05B0F0BD406D00280B
:102AEC00FAD001960095CDE9027102210FF052FF48
:102AFC0005B0F0BD00207047036D10B50C4682B0D8
:102B0C002BB30DF1060201A9184611F067F938B381
:102B1C00BDF80430BDF8062053EA020120D0C2F300
:102B2C00451C02F01F00D20AC3F34311400084F885
:102B3C0001C0A2705A0A013903F01F0302F5EA62C0
:102B4C002070012061712371A27102B010BD406D23
:102B5C0030B10DF1060201A90EF0C6FE0028D7D146
:102B6C00002002B010BD00BF036D10B50C4682B042
:102B7C002BB30DF1060201A9184611F01FF938B359
:102B8C00BDF80430BDF8062053EA020120D0C2F390
:102B9C00451C02F01F00D20AC3F34311400084F815
:102BAC0001C0A2705A0A013903F01F0302F5EA6250
:102BBC002070012061712371A27102B010BD406DB3
:102BCC0030B10DF1060201A90EF07CFE0028D7D120
:102BDC00002002B010BD00BF30B5D0F880448FB0DB
:102BEC0013464CB100250A46684604F589610095E8
:102BFC0011F0BAF90FB030BDD0F884040028F9D028
:102C0C000A4600F5896168460C940FF057FE0FB028
:102C1C0030BD00BF10B5044600230A2216F080FE1A
:102C2C002046BDE8104016F051BE00BF69B170B52A
:102C3C00054608460C461BF013F82B680246214645
:102C4C0028465B68BDE87040184770470369D3B1EC
:102C5C000E4810B41C68E46884420FD1186D18B18A
:102C6C005DF8044B11F0F0BE586D18B15DF8044BD3
:102C7C000FF0BEBF00205DF8044B7047184623468A
:102C8C005DF8044B18470020704700BF9107000007
:102C9C00006990B10368154A1B69934225D1036DF5
:102CAC0063B1187810F0080007D0D8695B69C01AB6
:102CBC0048BF6FF00040704718467047436D002BBB
:102CCC00FAD093F8310010F00800F6D018691968A2
:102CDC005A69401A5B6862EB0303B0F1004F73F161
:102CEC000003EAD36FF00040704718472D0800002E
:102CFC00036973B11A68084952698A4207D1186D81
:102D0C0008B111F051BB586D18B10EF031BF184617
:102D1C0010474FF0FF3070470D060000036963B198
:102D2C001A68074992698A4208D1186D08B111F0E6
:102D3C00DFBD586D08B10FF0B7BC7047184610478F
:102D4C00FD060000036D13B1586900217047436DF7
:102D5C0013B1D3E90001704718461946704700BFFC
:102D6C00036D13B1D86900217047436D13B1D3E9DA
:102D7C000401704718461946704700BFF0B595B06E
:102D8C0000224FF47A74244F1831054604A88DF8AC
:102D9C000C200097CDE90124CDE9122213F0AAFCF6
:102DAC00129B002B2DD05C20002617F015FC019BEC
:102DBC0004464660C36004A9029B183040F8083CE6
:102DCC009DF80C3000F8043C144B40F8183C144BA4
:102DDC0040F8103C13F0E0FB124B4FF47A72A760F2
:102DEC002B606368A66501336E602E73AA602C613C
:102DFC0063600D4B04A8009313F010FC284615B02B
:102E0C00F0BD139B002BCED1064A2B732A602B618D
:102E1C00C5E90134EDE700BF743A0020983A002070
:102E2C00F43A0020483A0020EC370020036D13B12F
:102E3C00184611F0B9BA406D08B10EF099BE4FF0BA
:102E4C00FF307047836C13B1184611F0ADBAC06CEB
:102E5C0008B10EF08DBE4FF0FF307047036D33B1EB
:102E6C001B7813F0700F14BF012000207047406DC9
:102E7C0030B190F8313013F0500F14BF0120002006
:102E8C00704700BF10B50446006D80B1037813F095
:102E9C00700F00D110BD002111F0FAFB606D0028FD
:102EAC00F8D000220023BDE810400EF077BE606D14
:102EBC000028EFD090F8313013F0500FEAD00022F8
:102ECC000023BDE810400EF069BE00BF036D13B1C6
:102EDC00184611F095B9406D08B10EF079BD4FF060
:102EEC00FF307047836C00B583B063B101220DF1E4
:102EFC000701184611F084F901280CD19DF8070040
:102F0C0003B05DF804FBC06C28B101220DF1070180
:102F1C000EF05EFDF0E74FF0FF30F1E7036D13B1FB
:102F2C00184611F0E5BC406D08B10FF0BDBB704701
:102F3C00836C13B1184611F0DBBCC06C08B10FF0F8
:102F4C00B3BB7047036923B31968134A10B58C6877
:102F5C0082B0944214D1186D48B101220DF10701D1
:102F6C0011F04EF990B19DF8070002B010BD586DEC
:102F7C000028F8D001220DF107010EF029FDF1E730
:102F8C0001220DF107011846A047EBE74FF0FF3087
:102F9C00EBE74FF0FF307047AD060000836C13B1C8
:102FAC00184611F051BDC06C08B10FF021BE70472E
:102FBC00036D13B1184611F047BD406D08B10FF009
:102FCC0017BE704700B5836C83B08DF8071043B102
:102FDC0001220DF10701184611F036FD03B05DF822
:102FEC0004FBC06C0028F9D001220DF107010FF091
:102FFC00FFFD03B05DF804FB8A79A2F150031B06B8
:10300C0022D402F26C72F0B54B7985B0046D0133A9
:10301C000D798E784F78DBB209784CB12046019649
:10302C000095CDE90271042111F068FC05B0F0BDEA
:10303C00406D0028FAD001960095CDE9027104216B
:10304C000FF0A8FC05B0F0BD00207047036D53B124
:10305C00187810F008000DD0D8695B69C01A48BF09
:10306C006FF000407047436DA3B193F8310010F03E
:10307C00080000D17047186919685A69401A5B68D2
:10308C0062EB0303B0F1004F73F10003F2D36FF066
:10309C00004070471846EDE7836C53B1187810F078
:1030AC0008000DD0D8695B69C01A48BF6FF00040AA
:1030BC007047C36CA3B193F8310010F0080000D135
:1030CC007047186919685A69401A5B6862EB030308
:1030DC00B0F1004F73F10003F2D36FF00040704772
:1030EC001846EDE700B5006983B08DF8071060B1A4
:1030FC000368104ADB68934215D1036D43B101227A
:10310C000DF10701184611F09FFC03B05DF804FBAC
:10311C00406D0028F9D001220DF107010FF068FD78
:10312C0003B05DF804FB01220DF10701984703B0D1
:10313C005DF804FB9107000048B10368174A5B6B0C
:10314C00934210B5044616D1806D10B110BD1448D1
:10315C0070474FF4807019F083FAA065C8B1002253
:10316C00236D027053B101464FF48072184612F071
:10317C0001FEA06D10BDBDE810401847636D002B1B
:10318C00E4D001464FF48072184610F0F3F9A06DAC
:10319C0010BD044B1846A36510BD00BFF90100001B
:1031AC0080420020DABB032038B504460C4B806DFE
:1031BC00236018B119F05CFA0023A365236D04F1A8
:1031CC0018054BB1284613F029FA064B2846A36084
:1031DC0013F024FA204638BD636D002BF2D1F4E7CE
:1031EC00983A0020EC37002038B504460E4B806D21
:1031FC00236018B119F03CFA0023A365236D04F188
:10320C0018056BB1284613F009FA084B2846A36041
:10321C0013F004FA20465C2117F0E0F9204638BD83
:10322C00636D002BEED1F0E7983A0020EC370020CC
:10323C0030B4029C11469C4634B1012C1CD0022C9B
:10324C000ED0002030BC7047056DF5B14FF0FF3348
:10325C00934274EB0C04F4D3284630BC11F018BA2A
:10326C00026D0AB3D36959184CF10003002BE8D155
:10327C00104630BC11F00CBA026D62B1536959188A
:10328C004CF10003002BDCD1F2E7406D0028D8D0C4
:10329C0030BC0EF083BC406D0028D2D0D0E90023A6
:1032AC008A184CEB0303F3E7406D0028C9D0D0E932
:1032BC00042330BC8A184CEB03030EF06FBC00BF28
:1032CC0038B5044649B108460D461AF0C9FC2368C6
:1032DC00024629465B68204698472046BDE83840A0
:1032EC0016F0F4BA08B518F0AFFF10B908BD18F015
:1032FC00EFFF18F0A9FF0028F9D1012008BD00BF8D
:10330C0038B50446094D1121094819F007F8214632
:10331C0000230A22284616F003FB284616F0D6FA9C
:10332C0021460020BDE8384016F08CBF2046002016
:10333C00181C002010B5002016F074FE0446112154
:10334C00114818F0EBFF00230A2221460F4816F013
:10335C00E7FA0E4816F0BAFA022C01D8204610BD36
:10336C0011210B4818F0DAFF00230A2207481C46EB
:10337C00194616F0D5FA054816F0A8FA204621464B
:10338C0016F060FF204610BD041C002020460020D3
:10339C00181C002038B50446094D1B21094818F0AB
:1033AC00BDFF214600230A22284616F0B9FA28460A
:1033BC0016F08CFA21460120BDE8384016F042BFC9
:1033CC0020460020202B002038B50446094D1D2135
:1033DC00094818F0A3FF214600230A22284616F0BC
:1033EC009FFA284616F072FA21460220BDE83840B2
:1033FC0016F028BF204600209829002070B51446EE
:10340C000D461E46024623460549064816F07AFA32
:10341C0044EA06012846BDE8704016F013BF00BF11
:10342C00542800202046002030B5032083B016F02D
:10343C00F9FD0446164D14F0010F1649164824F0F8
:10344C00F00308BF294614F0020F144A08BF28469F
:10345C00009113490190134816F054FA04F0F0034C
:10346C00A02B03D104F00F0003B030BD0E490D4862
:10347C0016F048FA0323094A0C490A4816F042FA96
:10348C00A321032016F0DEFE032003B030BD00BFE5
:10349C00F8140020C4270020C8420020AC2B0020C8
:1034AC00CC27002020460020702B00205428002020
:1034BC0030B5042083B016F0B5FD0446164D14F05B
:1034CC00010F1649164824F0F00308BF294614F0E2
:1034DC00020F144A08BF2846009113490190134863
:1034EC0016F010FA04F0F003A02B03D104F00F0037
:1034FC0003B030BD0E490D4816F004FA0323094AF7
:10350C000C490A4816F0FEF9A321042016F09AFE85
:10351C00032003B030BD00BFF8140020C4270020E6
:10352C00C84200203C2B0020CC2700202046002045
:10353C00702B00205428002030B5052083B016F0E5
:10354C0071FD0446164D14F0010F1649164824F06F
:10355C00F00308BF294614F0020F144A08BF28468E
:10356C00009113490190134816F0CCF904F0F003C4
:10357C00A02B03D104F00F0003B030BD0E490D4851
:10358C0016F0C0F90323094A0C490A4816F0BAF997
:10359C00A321052016F056FE032003B030BD00BF5A
:1035AC00F8140020C4270020C8420020C42B00209F
:1035BC00CC27002020460020702B0020542800200F
:1035CC0030B5062083B016F02DFD0446164D14F0D0
:1035DC00010F1649164824F0F00308BF294614F0D1
:1035EC00020F144A08BF2846009113490190134852
:1035FC0016F088F904F0F003A02B03D104F00F00AF
:10360C0003B030BD0E490D4816F07CF90223094A6F
:10361C000C490A4816F076F9A221062016F012FE83
:10362C00022003B030BD00BFF8140020C4270020D6
:10363C00C8420020942B0020CC27002020460020DC
:10364C00542B00205428002030B5072083B016F0EE
:10365C00E9FC0446164D14F0010F1649164824F0E7
:10366C00F00308BF294614F0020F144A08BF28467D
:10367C00009113490190134816F044F904F0F0033B
:10368C00A02B03D104F00F0003B030BD0E490D4840
:10369C0016F038F90223094A0C490A4816F032F997
:1036AC00A221072016F0CEFD022003B030BD00BFD2
:1036BC00F8140020C4270020C8420020A42A0020AF
:1036CC00CC27002020460020542B0020542800201A
:1036DC0010B550B10B490C4A0C4816F013F90121E6
:1036EC000820BDE8104016F0ADBD04460549084A57
:1036FC00064816F007F921460820BDE8104016F0E0
:10370C00A1BD00BF242A00209016002020460020D6
:10371C00202A002010B550B10B490C4A0C4816F069
:10372C00F1F801210920BDE8104016F08BBD0446CC
:10373C000549084A064816F0E5F821460920BDE877
:10374C00104016F07FBD00BF7C2A00209C2A002070
:10375C0020460020702A0020F8B50B2042F20F768C
:10376C0016F060FC04460A20240216F05BFC04F4FC
:10377C007F440444A4B2B4420AD8651C42F21073CC
:10378C00ADB29D4218D1002534462F46294604E09F
:10379C00002601253746294634460A2016F052FDEC
:1037AC0039460B2016F04EFD2B463246044905488F
:1037BC0016F0A8F82046F8BDE9B226462F0AECE729
:1037CC00902800202046002070B505460C490D4875
:1037DC002A4605F108062C4616F094F814F8011B3D
:1037EC0004F2FF10401B16F02DFDA642F6D1052168
:1037FC00054818F093FD0348BDE8704016F066B814
:10380C00B829002020460020E0290020F8B5074602
:10381C0040F2012524210C487C1EFE1DED1B18F0E6
:10382C007DFD281916F0FEFB04F8010FB442F8D107
:10383C000023052105483B7218F070FD0448BDE8D3
:10384C00F84016F043B800BF40290020E0290020C2
:10385C0020460020012810B504460BD0022816D0B3
:10386C0090B11A210B4818F059FD0B48BDE81040D7
:10387C0016F02CB80B21094818F050FD064816F02C
:10388C0025F8074B1C6010BD0D210648F4E70C21F0
:10389C000548F1E7F00C002020460020D40C002055
:1038AC00EC4B0020C40C0020E00C0020194B2DE93F
:1038BC00F041194E0446DFF868801F68174D04F07C
:1038CC000F03092B1BD0082B04F0F00220D8013475
:1038DC00E4B257B9992CF2D8414655F8240019F0A6
:1038EC0063FF0028EBD0204610E0032CE7D84146BC
:1038FC0056F8240019F058FF0028E0D0F3E704F044
:10390C00F0041034E4B2902CE3D90020BDE8F0812F
:10391C001446DEE728730120D80500207003002030
:10392C007009002000F00F03092B16D0082B00F0B3
:10393C00F0020DD9002311090C4801EB810100782C
:10394C0003EB4103DBB2984238BF002210467047AC
:10395C00431CDAB203F00F03EDE700F0F000103077
:10396C00C2B2902AE6D9002210467047F8BB032059
:10397C00144B2DE9F041DFF858800446124E1D68B7
:10398C00124F23070FD114F0F00417D19924002DF6
:10399C00F7D156F82400414619F006FF0028F0D064
:1039AC002046BDE8F081013CE4B215B9992CE8D869
:1039BC00EFE7032CE5D857F82400ECE7073CE4B21A
:1039CC00F3E700BF2873012070030020D805002006
:1039DC0070090020030705D110F0F0001FD16323FC
:1039EC0099200AE00138C0F3031200F00F03C0B2B3
:1039FC0002EB820203EB4203DBB20A4A12789A42D0
:103A0C000CD2094BA3FB0213DB08C3EB4311C3EB32
:103A1C008101490001EB03131A44D0B270470738F7
:103A2C00E1E700BFF8BB0320CDCCCCCC70B5274D63
:103A3C00002128460CF0B4FA254B022128462B61B4
:103A4C000CF0A8FA234B1C78012C0AD0022C27D09E
:103A5C00BCB10022204B43F63F7110469A7019807E
:103A6C0070BD1E4B00241C495F221B7828464A70EF
:103A7C0002221B098C7030330B7015F0F3FE2046BC
:103A8C0070BD154E45F65F7330463380B4701AF036
:103A9C00E7F831460246284615F0E4FE204670BD94
:103AAC000E4B00220C4C1B78A27020461A0903F016
:103ABC000F0330323033227063701AF0D1F8214684
:103ACC000246284615F0CEFE012070BDC06F0020C6
:103ADC000100230002BC032068740120EDBB03200D
:103AEC0038B5174B04461B68002B0FD0154D1A46E2
:103AFC001549B8BF5A1C2868096800EB62028A4253
:103B0C0004DC0344994200DD296038BD0F4D4FF0B1
:103B1C0001130F4A00212846C5E904230CF040FA92
:103B2C00012128460CF036FA002CEED020461AF073
:103B3C0097F8214602462846BDE8384015F092BE5B
:103B4C00FC710120F071012060740120C06F002015
:103B5C000100140038B5174B04461B68002B0FD01E
:103B6C00154D1A461549B8BF5A1C2868096800EB50
:103B7C0062028A4204DC0344994200DD296038BDAC
:103B8C000F4D4FF001130F4A00212846C5E90423BD
:103B9C000CF006FA012128460CF0FCF9002CEED0B2
:103BAC0020461AF05DF8214602462846BDE838400A
:103BBC0015F058BEF8710120EC71012060740120E1
:103BCC00C06F00200100260038B5174B04461B6857
:103BDC00002B0FD0154D1A461549B8BF5A1C286832
:103BEC00096800EB62028A4204DC0344994200DD5E
:103BFC00296038BD0F4D4FF001130F4A00212846A4
:103C0C00C5E904230CF0CCF9012128460CF0C2F9CB
:103C1C00002CEED020461AF023F821460246284606
:103C2C00BDE8384015F01EBEF4710120E87101208A
:103C3C0060740120C06F00200100380038B50A4DB7
:103C4C0004460A4B012128462B610CF0A3F94CB118
:103C5C0020461AF005F8214602462846BDE83840B1
:103C6C0015F000BE38BD00BFC06F00201E0026003E
:103C7C0030B55E4A83B05E4C156823685B1B962B8F
:103C8C0006D95C4D236813602B7883F001032B70ED
:103C9C00FF281CD00F2811D8574C2378012B5ED04D
:103CAC0013F0FD0F49D00020B3B9524B1B78002BF9
:103CBC0014BFCC23FC230B7003B030BD1238072883
:103CCC0005D8DFE800F0251C0404041404104A4B4A
:103CDC0000201B78002BE8D0013BDBB2012BEBD88A
:103CEC00464B1B7831E0444B02201B78DCE7424BFF
:103CFC001B78A3F10200B0FA80F04009D4E73E4CE7
:103D0C002378012B59D0022B30D09BB10020E3E754
:103D1C00394C2378012B41D0022B34D0002BF5D118
:103D2C00374A184601911288012A54D0FFF752FEE7
:103D3C00019903460222314D04E0000101222F4D6E
:103D4C000C30C3B200202B7022702A4A0B701278F0
:103D5C0012B943F00F03DBB20B7003B030BD274D2B
:103D6C0002222B7823F00F030343EBE7244B234D64
:103D7C001B882878012B019125D0FFF7D3FD0199E1
:103D8C0002220346DEE71E4B1C4D1B882878012BB4
:103D9C0001911CD0FFF71EFE0199F1E7184B174D4E
:103DAC001B882878012B019100F0F00018D0FFF748
:103DBC0011FE019903460222C4E7104D0222287815
:103DCC0000F0F003BEE7FFF771FD0199D8E7FFF7AC
:103DDC00CFFD0199D4E7FFF7CBFD01990346A9E785
:103DEC00FFF7C6FD01990346E5E700BFBC6B002059
:103DFC0018B80320E1BB032002BC0320EDBB032059
:103E0C00BEBB032008B5374B1B68042B21D8DFE859
:103E1C0003F0424A03032200334B344A1B883449D3
:103E2C0003F51F5311603C339BB2092B50D8314A18
:103E3C0052F82300FFF754FE2F4B1B8803F51F533A
:103E4C003C339BB2092B45D82A4A52F82300FFF782
:103E5C0081FE012008BD254B1868FFF741FE224B5F
:103E6C001B8803F51F533C339BB2092B38D8214ACE
:103E7C0052F82300FFF76EFE1F4B1B8803F51F53F0
:103E8C003C339BB2092B29D81A4A52F82300FFF76E
:103E9C009BFE012008BD154B184A19481A60FFF704
:103EAC001FFE012008BD104B104A1B88134903F557
:103EBC001F5311603C339BB2092B0DD80D4A52F89D
:103ECC002300FFF70DFE0E48FFF744FE012008BD4E
:103EDC000C48AFE70B48BAE70A48F2E70948D6E7BF
:103EEC000848C7E7B4BA0320CEBB0320684E0020B5
:103EFC0058100020E8050020D0BB0320381000200B
:103F0C004C1000201C080020554B1B6810B5072BCB
:103F1C002CD8DFE803F0840404562D2D3267514C65
:103F2C00514B52491B682288514819F095F850485A
:103F3C00FFF7D6FD2388B3F5005F00F08C8000F20C
:103F4C008380B3F5006F02D0B3F5805F02D149488E
:103F5C00FFF700FE484B1A682AB148490020484A2E
:103F6C000968186011604748FFF72EFE012010BD4C
:103F7C004548FFF7B5FD012010BD444B1A681E2AB9
:103F8C0005D03E491E20424A09681860116041481C
:103F9C00FFF7A6FD404B41491A88354819F05CF8EB
:103FAC003F4B1A682AB1354900203E4A096818600F
:103FBC0011602F48FFF7CEFD3248FFF705FE0120B8
:103FCC0010BD3948FFF78CFD354B1A681E2A05D0F9
:103FDC002A491E20334A0968186011603348FFF7DC
:103FEC00B9FDC0E7294B1A682AB124490020284A98
:103FFC000968186011602A4B1A682AB11F49002001
:10400C00284A0968186011601B4B1A68002AADD049
:10401C001A4900201A4A096818601160A6E7124B69
:10402C00234A24481A60FFF75BFD134B1A68122AC7
:10403C0005D012491220124A0968186011601E48F6
:10404C00FFF7C2FD012010BDB3F5804F03D0B3F5CF
:10405C00004F7FF47FAF1948FFF77CFD7AE700BF74
:10406C00C4F00020BCBB0320E84B0020281D00201E
:10407C00C8F00020381D0020F4710120607401206C
:10408C00E8710120681D0020A41D0020FC71012096
:10409C00F0710120B01D0020B8BB0320C41D00200E
:1040AC00F8710120EC710120801D0020901D002072
:1040BC0038100020FC1C0020101D0020501D00207A
:1040CC002DE9F0474FF00009DFF8E482012484B0B9
:1040DC0049464046B34E432725460BF061FF3B460D
:1040EC0022B20221404600950834CDE901950BF02F
:1040FC00A5FE16F8017FA4B2002FF0D1AA4D032023
:10410C000A23DFF8ACA2298801243222B94601F037
:10411C000101DFF8A4825426029139462746CDE9E5
:10412C00003050460BF060FA334622B20F21504655
:10413C0000970834CDE901970BF080FE18F8016F59
:10414C00A4B2002EF0D12A8803210A23DFF8609252
:10415C00C2F3400201244846B24602923222A046E3
:10416C00924F5326CDE900310D210BF03DFA334629
:10417C0022B21C214846CDF800800834CDE901A8B4
:10418C000BF05CFE17F8016FA4B2002EEFD12A8859
:10419C0003210A23DFF818A2C2F38002012450463F
:1041AC00DFF8188202923222A1464227CDE9003173
:1041BC001A210BF019FA3B4622B229215046CDF8B0
:1041CC0000900834CDE901690BF038FE18F8017F36
:1041DC00A4B2002FEFD12A8803210A23DFF8D0A143
:1041EC00C2F3C00201245046DFF8D481029232227D
:1041FC00A1464826CDE9003127210BF0F5F93346CD
:10420C0022B236215046CDF800900834CDE9017920
:10421C000BF014FE18F8016FA4B2002EEFD12A880F
:10422C0003210A23DFF888A1C2F3001201245046AF
:10423C00DFF8908102923222A1464327CDE900316A
:10424C0034210BF0D1F93B4622B243215046CDF834
:10425C0000900834CDE901690BF0F0FD18F8017FEE
:10426C00A4B2002FEFD12A8803210A23DFF840A142
:10427C00C2F3401201245046DFF84C8102923222E4
:10428C00A1464326CDE9003141210BF0ADF933466F
:10429C0022B250215046CDF800900834CDE9017976
:1042AC000BF0CCFD18F8016FA4B2002EEFD12A88C8
:1042BC0003210A23DFF8F8A0C2F380120124504630
:1042CC00DFF8088102923222A1465227CDE9003153
:1042DC004E210BF089F93B4622B25D215046CDF8B8
:1042EC0000900834CDE901690BF0A8FD18F8017FA6
:1042FC00A4B2002FEFD12A8803210A23DFF8B0A043
:10430C00C2F3C01201245046DFF8C480029232225C
:10431C00A1465426CDE900315B210BF065F93346FB
:10432C0022B26A215046CDF800900834CDE90179CB
:10433C000BF084FD18F8016FA4B2002EEFD12A887F
:10434C000A2303210124C2F300221948A046194F65
:10435C0002923222DFF85890CDE9003168210BF03F
:10436C0043F9432322B277214846CDF80080083424
:10437C00CDE901680BF062FD17F8013FA4B2002BE8
:10438C00F0D1288803210A233222C0F34020019166
:10439C0075210093029006480BF026F904B0BDE895
:1043AC00F08700BFDC15002070550020E8150020B8
:1043BC00C06F002020160020E4150020F01500200E
:1043CC00F8150020001600200816002010160020FA
:1043DC0018160020F8B5022015F024FE044600281B
:1043EC0000F0F48002467D4B7D497E4815F08AFA38
:1043FC00112C28BF00247C4B0025012603271C60B0
:10440C00FFF712F8794B1870FFF752F8784B1870C9
:10441C00FFF792F8774B1870FFF7D2F8764B1870BD
:10442C00FFF712F9754B024608201A7015F0FAFDC9
:10443C00734B041E734A744908BF1A46694815F039
:10444C0061FA641B714B4FF0090018BF01241C70FA
:10445C0015F0E8FD6E4B041E6E4A6F4908BF1A46F4
:10446C00604815F04FFA601B6C494DF6060218BFF8
:10447C0001206B4B6B4C08704DF604019A839980AC
:10448C0024211A85272219804DF605019A840722CA
:10449C001982252183F826204DF60A0299814DF6C2
:1044AC000701A3F8582099862821A3F864202C2210
:1044BC0019864DF60801A3F860204DF60B02A3F8FF
:1044CC0040102921A3F8702099874DF60901A3F813
:1044DC007C202E22A3F84C102A219D70A3F84810A2
:1044EC0026219D7319832B219D76A3F854102D2121
:1044FC0083F83260A3F86C102F2183F83E5083F8B8
:10450C004A5083F8626083F8567083F86E70A3F893
:10451C007820626DA3F88410302183F87A60A3F8B8
:10452C00901047F6122183F8866083F89260106829
:10453C004DF60C02A3F888204DF60D02A3F894203A
:10454C002A46394BE360394BA360394BA361394B95
:10455C00A363394BE363394B6364394BA364394B25
:10456C00636214F09FFE384A4FF6FF7384F8707044
:10457C001268A4F85860C4F80021344A84F85A50E0
:10458C006567334984F8F850C4F8FC503148C4E9E5
:10459C001A339369C4E9185543F080532E4C936138
:1045AC000C602E4B2E4C2F4A04601A602E492F4C57
:1045BC002F4B304A0C601A602F49304A3048314C2E
:1045CC00314B1160314A04601A60F8BD0246304B21
:1045DC000349044815F096F90DE700BFF8140020C4
:1045EC006829002020460020104E0020FCBB032030
:1045FC00FBBB0320FABB0320F9BB0320FFBB03204A
:10460C00202A002090160020082A0020FDBB032041
:10461C00702A00209C2A0020502A0020F3BB032083
:10462C00187000202C730120D58A0000A90100000D
:10463C00D99900008D200000C95900008D58000048
:10464C0051570000F594000018B803200080194061
:10465C0050B903204CB90320098B000058B9032032
:10466C00D1010000099A000040B90320F12000009C
:10467C0068B90320F9590000815700006CB9032078
:10468C0044B90320BD58000074B90320659500009F
:10469C008C2900200A4B0B4A0B49002808BF1A46EC
:1046AC0010B50A4C20700A4815F02CF92378094AE9
:1046BC00191E18BF012143EA410382F8703010BD66
:1046CC00202A002090160020D0190020FDBB0320CA
:1046DC00204600202C7301200C2836D8DFE800F08F
:1046EC0021271B09070B1117192D2F3133001848DF
:1046FC00704718487047184B18483F2998BF184600
:10470C007047174B17483F2998BF184670471648F3
:10471C00704716487047164B16483F2998BF1846E5
:10472C007047154B15483F2998BF18467047144BD6
:10473C0014483F2998BF18467047134870471348D0
:10474C00704713487047134870471348704700BFB1
:10475C0008160020DC2C0020E82C0020201600205D
:10476C00F02C002018160020F82C0020002D002022
:10477C00D42C0020F8150020C42C0020F0150020AB
:10478C00CC2C0020E8150020082D0020102D002036
:10479C00182D0020202D0020282D002010B53E4C77
:1047AC002368062B0BD8DFE803F01A2A374A60047B
:1047BC000B0015F047FB394A06231060236010BD2F
:1047CC0015F040FB354A40F6D7631268801A9842C0
:1047DC00F5D90121324B002221601A7010BD304BEB
:1047EC004FF084424FF080711B78C2F888100BB1E7
:1047FC00052323602B4B40F6D8621A6010BD4FF096
:10480C0084434FF08072C3F8842015F01BFB234ABD
:10481C0002231060236010BD15F014FB1F4A214BBE
:10482C0012681B68801AB0EB530FC8D34FF0844248
:10483C004FF080710323C2F88810236010BD15F06F
:10484C0001FB194A174B12681B68801A8342B6D8B1
:10485C004FF084434FF08072C3F8842015F0F2FAC5
:10486C000E4A04231060236010BD15F0EBFA0B4ABE
:10487C000C4B12681B68801AB0EB530F9FD3084B7C
:10488C004FF084424FF080711B78C2F88810002BD7
:10489C0094D00523236010BD20B90320407401205F
:1048AC000CBC032024B903207CB60120104B1B78D0
:1048BC00DB0700D4704710B50E4C15F0C3FA0E4B45
:1048CC002268801A4008186015F0BCFA0B4B206067
:1048DC001B783BB90A4A01200A490B4B1268087035
:1048EC001A6010BD094B01221A60FFF757FFF1E760
:1048FC00F9BB03207CB6012024B90320F2BB0320B2
:10490C0018B80320E3BB032080B6012020B9032094
:10491C00104B1B789B0700D4704710B50E4C15F04C
:10492C0091FA0E4B2268801A4008186015F08AFA2A
:10493C000B4B20601B783BB90A4A01200A490B4BF0
:10494C00126808701A6010BD094B01221A60FFF73B
:10495C0025FFF1E7F9BB03207CB6012024B9032025
:10496C00F2BB032018B80320E5BB032088B6012056
:10497C0020B90320074B0849084A10B51C780028B9
:10498C0018BF0A4618700649064814F0BBFF2046AB
:10499C0010BD00BFF3BB032098190020A019002004
:1049AC00AC19002020460020092809D80138082815
:1049BC0028D8DFE800F00C0F1215181B1E2124005C
:1049CC00FF2802D1114B18887047002070474DF614
:1049DC00050070474DF6060070474DF6070070470E
:1049EC004DF6080070474DF6090070474DF60A0069
:1049FC0070474DF60B0070474DF60C0070474DF6A6
:104A0C000D0070474DF60400704700BF6E55002036
:104A1C00092809D80138082820D8DFE800F00C0F45
:104A2C0011131517191B1D000D4B0E4AFF2808BF3B
:104A3C001346184670470C4B184670470B4BF8E75B
:104A4C000B4BF6E70B4BF4E70B4BF2E70B4BF0E79A
:104A5C000B4BEEE70B4BECE70B4BEAE70B4BE8E7AA
:104A6C004C12002078120020E8150020F8150020C8
:104A7C0008160020201600201816002058120020BE
:104A8C0060120020182D002068120020F015002064
:104A9C0070B50546204E0C4620482A46204914F095
:104AAC0031FF33789A0707D4DB0711D41D491B4813
:104ABC00BDE8704014F026BF1B49184814F022FFC3
:104ACC0000222946204616F03FFE3378DB07EDD551
:104ADC00164E1749114814F015FF736DF021186824
:104AEC0003681B68984755B1013C2544736D14F855
:104AFC00011F186803681B689847A542F6D1736DAF
:104B0C00F721186803681B68984706490348BDE8F5
:104B1C00704014F0F7BE00BFFFBB032020460020FE
:104B2C00D807002014080020F80700202C7301205F
:104B3C0004080020F72813D0124938B50B78124C12
:104B4C005B00124D2268DBB20B7023F07F0310491F
:104B5C001843531C8B422360A85403DC002038BD3F
:104B6C000120704727210B4817F0D8FB21680A4811
:104B7C0014F0A0FE084814F0A9FE0123074A1846B9
:104B8C00137038BDDBBB0320F0B70220D0B7012077
:104B9C001F000100B4150020204600200FBC03208C
:104BAC0010B51C4C034622680A2A2AD8DFE802F00A
:104BBC00060B271A0F0F0F0F0F0F2000002216489D
:104BCC00164902600A70F02B08D0002010BDFFF7C8
:104BDC00B1FFD0B923680133236010BD022300203C
:104BEC00236010BD0E49042200200B70226010BD02
:104BFC00FFF7A0FF48B903230020236010BD6928EC
:104C0C00F9D001230020236010BD01231846236036
:104C1C0010BD00BF6C750120F0B702200FBC032043
:104C2C00DBBB03202DE9F0474FF0000A82B053465E
:104C3C00CD1802EB0A0403F107084FF0000CAAEBA5
:104C4C00030715F801EB4FEA4C0C01331EF0800FF3
:104C5C005FFA8CFC0EF07F0607EB030918BF4CF0D3
:104C6C00010C834204F8016F06DA4345E9D102F8DE
:104C7C000AC00AF1080ADBE702F80AC00246054935
:104C8C00CDF80090044814F03DFE09F1010002B08B
:104C9C00BDE8F0873C1500202046002010B5FA2016
:104CAC00174C15F07BF801223C2116480CF030FA19
:104CBC00154A164B126820701A6000B910BD2421D9
:104CCC00134817F02BFB134814F000FE01211120A0
:104CDC0015F01EF90121102015F01AF900211120F0
:104CEC0015F0DAF80021102015F0D6F80A481EF05D
:104CFC00C7F80A4908480AF0F9F8207810BD00BF37
:104D0C00E7BB0320C06F002018B803206474012097
:104D1C00EC190020204600202C65002040420F009A
:104D2C0070B5066904467568013D756075BB3368DE
:104D3C001F4ADB6A93422CD1B06D10B117F098FC6E
:104D4C00B565336D63B306F1180011F067FC256986
:104D5C00E5B12B68174A5B68934225D1164BA86DB9
:104D6C002B6018B117F084FC0023AB652B6D05F19B
:104D7C0018068BB1304611F051FC104B3046AB602D
:104D8C0011F04CFC5C21284615F028FC0023236113
:104D9C0070BD30469847DAE76B6D002BEAD1ECE733
:104DAC00736D002BCFD1D2E728469847EEE700BFB2
:104DBC0045010000C9090000983A0020EC3700209A
:104DCC00044A036910B5044602600BB1FFF7A8FF53
:104DDC00204610BD483A0020064A036910B5044627
:104DEC0002600BB1FFF79CFF2046142115F0F6FB77
:104DFC00204610BD483A0020012BF0B5054695B071
:104E0C003DD0022B40F2022001F104010CBF0346FD
:104E1C000023684611F01CFD129B002B38D05C203F
:104E2C00002615F0D9FB214B04AF0446C0E900362F
:104E3C00019B3946183040F80C3C1D4B40F8103C97
:104E4C00029B40F8083C9DF80C3000F8043C11F033
:104E5C00A3FB184B4FF47A72A665A360164B6E60D9
:104E6C002B6063682E730133AA602C616360134B53
:104E7C003846009311F0D2FB284615B0F0BD44F231
:104E8C0002230431684611F0E3FC129B002BC6D1BF
:104E9C00139B002BC3D14FF47A71074A04AF2B73C9
:104EAC002A602B61C5E90131E1E700BF983A002087
:104EBC00F43A0020743A0020483A0020EC370020E5
:104ECC00F0B502469DB0A049A048019214F01AFD1D
:104EDC009F4C019A9F49A04818F0BEF800239E4AA7
:104EEC0008A89E49FFF788FF236913B12046FFF7F6
:104EFC0017FF0C992161002900F0E2800B68984A99
:104F0C00DB6B93424FF0000240F008814FF47A744F
:104F1C00944E18310CA88DF82C200896CDE9092454
:104F2C00CDE91A2211F0E6FB1A9B002B00F0D2807F
:104F3C005C20002515F050FB8B4B04460CA9C0E9F6
:104F4C000035099B183040F80C3C884B40F8103C5D
:104F5C000A9B40F8083C9DF82C3000F8043C11F0FA
:104F6C001BFB63684FF47A72A565013304950592B7
:104F7C008DF818500794C4E901367D4B03937D4B93
:104F8C000CA8089311F04AFB7B4C236913B1204603
:104F9C00FFF7C6FE079B7048236118F061FE0146BF
:104FAC006D4817F0BBF9694814F090FC2069F8B112
:104FBC000368724A1B6B934217D1036D002B00F0F0
:104FCC0095800B216E4817F0A9F9604814F07EFC0F
:104FDC00206900B303686B4A9B6A93421AD1036D34
:104FEC00002B00F09180DB6916E098470028E8D18F
:104FFC000F21654817F092F95448002414F066FC10
:10500C000521624817F08AF9504814F05FFC2046DD
:10501C001DB0F0BD984703465D4F06215D483B60CF
:10502C0017F07CF92569002D73D02B685A4A5B6BFD
:10503C00934240F08380AE6D002E00F0B980304674
:10504C0018F00EFE0146304617F068F93F4814F090
:10505C003DFC0621514817F061F900230A223968FA
:10506C003A4814F05DFC394814F030FC2569002DE9
:10507C0052D02B684A4A9E68964259D1286D002816
:10508C0039D04FF4005247490FF0BAF82569002D7A
:10509C0042D02B68DB6A444A934246D1A86D18B1C2
:1050AC0017F0E6FA0023AB652B6D002B39D005F118
:1050BC00180011F0B3FA30483A4CFFF731FE9FE775
:1050CC004FF47A722A4B04918DF8181005920393C1
:1050DC00079159E71B9B002B7FF42AAF244A8DF8CC
:1050EC00183003920793CDE9043448E7436D002B45
:1050FC007FF467AF7CE7686D0028CBD04FF400528B
:10510C0028490CF065FCC1E7436D002B84D01B696A
:10511C0082E72946254E96E7224C71E703A898476B
:10512C0032E76B6D002BC2D1C5E728469847C2E722
:10513C004FF400521B492846B047A7E7284698472A
:10514C000646002E82D07AE7040A00202046002072
:10515C00144E0020300A002000720120C85D00208F
:10516C005D050000743A0020983A0020F43A0020C3
:10517C00483A0020EC370020F84B00202D010000AD
:10518C00400A0020410500005C0A00206C0A002047
:10519C00E47101204C0A0020F9010000540A00209F
:1051AC00AD060000709501204501000080420020F2
:1051BC004FF4807017F054FA0146A865B0B1067030
:1051CC00286D40B14FF4807210F0D4FDAE6D002EFE
:1051DC003FF43CAF33E7686D18B14FF480720EF0BA
:1051EC00C9F9AE6D002E3FF431AF28E7014B1E46D6
:1051FC00AB6524E7DABB03202DE9F04F05469DB0E3
:10520C000E468B488B492A46019614F07BFB2A46A6
:10521C0089498A4817F020FF0023884A08A8884942
:10522C0011F016FB1A9B002B00F096805C200026D8
:10523C0015F0D2F9099B00F1180BDFF83882C36026
:10524C0004460A9B0CA97F4F03619DF82C304660E5
:10525C000375C0F800808760584611F09DF96368AB
:10526C00DFF814920CA80133A665DFF8F4A1764E92
:10527C006360C4F80890CDF820A011F0CFF9326922
:10528C0012B13046FFF74CFD2368704ADB6B34617A
:10529C00934240F0B38000224FF47A7459460CA824
:1052AC00CDF8209009928DF82C200A94CDE91A2281
:1052BC0011F020FA1A9B002B00F090805C2015F066
:1052CC008BF9099B87600027C36004460A9B0CA9D5
:1052DC00C0F80080183040F8083C9DF82C3040F89D
:1052EC00147C00F8043C11F057F96368C4F808907A
:1052FC000133A765049763604FF47A738DF81870C7
:10530C000593534B079403930CA8CDF820A011F0F0
:10531C0085F9504C236913B14E48FFF701FD0798EE
:10532C002061A8B103684C4A1B6B93420DD1036DED
:10533C00002B5FD049493E4814F0E4FA019B002B46
:10534C002BD101201DB0BDE8F08F98470028F1D17A
:10535C0000201DB0BDE8F08F1B9C002C7FF466AFC5
:10536C003F4B0CA8384F089311F058F93B691BB10F
:10537C003846FFF7D5FC3C6100234FF47A72354C6C
:10538C008DF8183020690793CDE90432304A039226
:10539C000028C1D11DB0BDE8F08F3249244814F06B
:1053AC00B1FA2069FDF7C8FE2A4603462E49234868
:1053BC0017F052FE214A2D491D4814F0A3FA2C4B2C
:1053CC00D3F88424FAB10020114601231B4A08901B
:1053DC0008A80EF0C1FE30BB0198B3E71B9B002B55
:1053EC007FF46CAF8DF818300793CDE90434184B6B
:1053FC00039389E7436D002B9CD1A9E7214600223A
:10540C0003A8984785E7D3F88814002999D01492FB
:10541C0001230A4A08A80CF07FFE0028DCD008A85B
:10542C000DF01CF8D8E708A80FF09CFFD4E700BFDC
:10543C00204600202C1C0020300A00200072012085
:10544C00CC5D0020F43A0020144E00205D050000D5
:10545C00483A0020F84B00202D010000581C002079
:10546C00EC370020741C00208C1C0020A01C002099
:10547C00C85D0020983A0020743A0020104BD3F8F5
:10548C00840410B558B1002308220E4900F5896038
:10549C0010F010F80B48BDE8104014F017BAD3F810
:1054AC008844002CF6D00346082204F5896005498F
:1054BC000CF0F4FE0348BDE8104014F007BA00BF2E
:1054CC00C85D0020204600202DE9F04F0746884695
:1054DC009FB0664943463A466548DFF8E09114F0C0
:1054EC0011FA00233A4663490AA8FFF785FCD9F85C
:1054FC00103013B14846FFF713FC0E99C9F8101081
:10550C00002900F0BE810B685B4ADB6B934240F0D4
:10551C0013830EAE00224FF47A74DFF89CA118317D
:10552C0030460B928DF834200C94CDF828A0CDE9A0
:10553C001C2211F0DFF81C9B002B00F0C8815C20B2
:10554C00002515F049F80B9B04464560C3603146B5
:10555C000C9B183040F8083C9DF8343000F8043CA3
:10556C00464B40F8183C464B40F8103C11F014F8F0
:10557C006368C4F808A00133A565069563604FF411
:10558C007A738DF8205007933E4B099405933E4B4C
:10559C0030460A9311F042F83C4D2B6913B13B484D
:1055AC00FFF7BEFB09982861002800F0788103689A
:1055BC0037491A6B8A4240F0C382026D002A00F010
:1055CC007A819B6A33498B4240F08D81D36928697B
:1055DC00314C2360FDF7B0FD3F2102462F4817F0F8
:1055EC00F7FC2E4A2E49224814F08CF922682D49DA
:1055FC001F4814F087F92268B2F5004F00F292822E
:10560C002C692CB3236828499E688E4240F0B382E3
:10561C00206D002800F09D8224490EF0F1FD2C69CC
:10562C00B4B12368DB6A224A934240F0B082A06D89
:10563C0018B117F01DF80023A365236D002B00F0A3
:10564C00908204F1180010F0E9FF1048FFF768FB96
:10565C001021184816F062FE0B4B05484FF47A7B6C
:10566C000EAE029314F032F93FE000BF0C0D002097
:10567C0020460020C85D00205D050000983A0020FF
:10568C00F43A0020483A0020EC370020F84B002078
:10569C002D01000041050000E471012090B60120AD
:1056AC007C150020200D0020AD060000E4F1002048
:1056BC0045010000540D0020743A0020144E0020C7
:1056CC0000238B4A0AA80A9301230EF045FD0028FB
:1056DC0040F0C8811B21874816F020FE864814F044
:1056EC00F5F8BBF1010B00F04881002342468349D9
:1056FC000AA811F0ADF81C9B002B00F01F815C2058
:10570C00002714F069FF0B9B00F1180A0446C360D4
:10571C0031460C9B476003619DF834300375784B20
:10572C000360784B8360504610F036FF029BA765F0
:10573C0030460A936368744F0133A760636010F0BE
:10574C006DFFD9F8103013B17048FFF7E9FA2368F0
:10575C006F49DB6BC9F810408B4240F091810022FD
:10576C004FF47A74514630460A970B928DF83420D8
:10577C000C94CDE91C2210F0BDFF1C9B002B00F0FB
:10578C0065815C204FF0000A14F026FF5C4B044648
:10579C00C0F804A0036031465A4B183040F8103C56
:1057AC000B9B40F80C3C0C9B40F8083C9DF83430AB
:1057BC0000F8043C10F0F0FE6368A7600133C4F8F5
:1057CC0058A0CDF818A063604FF47A738DF820A020
:1057DC000793504B09940593029B30460A9310F0A3
:1057EC001DFF2B6913B14C48FFF79AFA099C2C61E9
:1057FC00002C00F0C280236848491A6B8A4240F0A2
:10580C003581226D002A00F015815B6B444A93426E
:10581C0040F01881A76D002F00F03B814346414AB0
:10582C00FF213348009717F0D3FB2C69002C00F0B4
:10583C00FF8023683A4A5B6B934240F02681A26D4D
:10584C00002A00F038812A4B37492B4814F05AF8BB
:10585C00364BD3F8841400297FF432AFD3F8883454
:10586C00002B3FF437AF16910AA81946204A0123A2
:10587C000CF052FC00283FF42DAF0AA80CF0EEFD02
:10588C0028E74FF47A73244D06910793214B8DF83A
:10589C00201005932B690991002B7FF480AE3A46BA
:1058AC002349154814F02EF8224913481FB0BDE8BF
:1058BC00F04F14F027B8426D002AF0D09B6A1E4AB4
:1058CC00934210D1436D03B11B69286980E61D9B7F
:1058DC00002B7FF434AE8DF820300993CDE90634DB
:1058EC000C4B059353E698470346286970E600BFB6
:1058FC00D0B601208C0D002020460020CC5D00206D
:10590C00983A0020F43A0020743A0020144E0020FB
:10591C005D050000483A0020F84B00202D010000E6
:10592C00F9010000680D0020700D0020C85D0020FA
:10593C00E40D0020C8210020410500001D9C002C16
:10594C007FF4DDAE029B30460A9310F067FED9F867
:10595C00103023B19E48FFF7E3F9C9F8104000233B
:10596C0006938DF8203009934FF47A730793994B73
:10597C0005932B69002B7FF436AF974A4346FF21E2
:10598C0096480092964A17F023FB0B21954816F087
:10599C00C5FC924818F064F90146904816F0BEFC1C
:1059AC00914813F093FF01230AA88C4A8F49FFF703
:1059BC0023FA2B6913B18E48FFF7B2F90E982861C0
:1059CC00002800F09F8003688A491A6B8A4240F0D5
:1059DC009680026D002A00F0C980874A1268DB6845
:1059EC0086498B4240F0E380036D002B00F0D2809F
:1059FC00834918460FF028F82C69002C3FF454AF5B
:105A0C002368804ADB6A934240F0D480A06D18B1C1
:105A1C0016F02EFE0023A365236D002B00F0C28030
:105A2C0004F1180010F0FAFD7148FFF779F93BE723
:105A3C00754A08E7626D002A9FD05B6B734A9342EC
:105A4C003FF4E8AE204698470746E7E61D9B002B3F
:105A5C007FF497AE8DF820300993CDE906345D4B79
:105A6C000593B9E60AA80FF07DFC33E62046904773
:105A7C00002882D02C690CB9634FCFE62368C4E6AA
:105A8C002146002205A89847ABE6204698470246D7
:105A9C00D9E64FF4807016F0E3FD0146A0650028AE
:105AAC0000F0C2800770206DC8B14FF4807210F006
:105ABC0061F9A76DB2E64FF48070039216F0D0FD39
:105ACC000146A065002800F0AB80039A0270206D9F
:105ADC0068B14FF4807210F04DF9A26DB3E6606DB1
:105AEC0018B14FF480720DF045FDA76D96E6606D10
:105AFC0018B14FF480720DF03DFDA26DA3E69047F6
:105B0C0000283CD11F21424816F008FC334818F0FD
:105B1C00A7F80146314816F001FC3E493248FDF722
:105B2C00CFFBC1E64FF400423B492F4813F0EAFE8D
:105B3C004FF40042226063E5002205A898472BE54C
:105B4C00904700283FF4ABAE2869002835D10346B6
:105B5C003EE5606D00283FF465AD29490BF038FF38
:105B6C005DE5636D002B7FF46CAD6EE5426D002A34
:105B7C007FF433AFC6E720462149B0474FE51E4BB3
:105B8C0028691A6800283FF48FAE036827E720467F
:105B9C0098475AE5406D18B119490DF029F82BE7D3
:105BAC002C692DE7636D002B7FF43AAF3CE7144969
:105BBC00984721E72046984736E70368174A9B6ABF
:105BCC0093427FF490AE026D002A7FF4FFAC79E62D
:105BDC00144E0020483A002090B60120D0B6012087
:105BEC00680D0020A80D002020460020C85D002074
:105BFC00F84B00202D010000E471012091070000FA
:105C0C00E4F100204501000080420020F901000071
:105C1C00B40D0020D40D00202C0D002041050000F7
:105C2C00034B1A46A3650EE6014B1F46A365F5E52B
:105C3C00DABB032030B59BB004460D460346094A37
:105C4C00302102A817F0C4F92B46074A30210EA8C0
:105C5C00009417F0BDF90EA902A8FFF735FC1BB094
:105C6C0030BD00BF28170020381700202DE9F04761
:105C7C000D469AB006460821AB4890461F4616F0D2
:105C8C004DFB35B1284617F0EBFF0146284616F0C0
:105C9C0045FBA648A64C13F019FE00233246A54935
:105CAC0006A8FFF7A9F8236913B12046FFF738F8C7
:105CBC000A992161002900F0F7800B689E4ADB6B82
:105CCC00934240F05B8100224FF47A74DFF8A8A273
:105CDC0018310AA807928DF824200894CDF818A042
:105CEC00CDE9182210F006FD189B002B00F0EB807C
:105CFC005C204FF0000914F06FFC079B0446C0F8C1
:105D0C000490C3600AA9089B183040F8083C9DF821
:105D1C00243000F8043C894B40F8183C884B40F880
:105D2C00103C10F039FC6368C4F808A00133C4F8C7
:105D3C005890CDF8089063604FF47A738DF81090FA
:105D4C000393804B059401937F4B0AA8069310F0A4
:105D5C0065FC7E4C236913B17C48FEF7E1FF059886
:105D6C00206100283BD00368794A1B6B934240F0BA
:105D7C000F81036D002B00F0B2801421754816F0D2
:105D8C00CDFA2069FDF7D8F9814628B117F068FFE4
:105D9C000146484616F0C2FA644813F097FD206994
:105DAC00FDF7CAF96C49034632466C4817F054F9B2
:105DBC00604BD3F88414002900F09A800023674AC2
:105DCC0006A8069301230EF0C7F9002840F0F380D3
:105DDC001B21634816F0A2FA544813F077FD3246A3
:105DEC002B465D495D4817F037F93B465B4A5D49E8
:105DFC004E4813F087FD012306A8584A4D49FEF77B
:105E0C00FBFF236913B15148FEF78AFF0A98206102
:105E1C00002834D003684E491A6B8A422BD1026D8C
:105E2C00002A61D0DB68504A934240F0BE80036D7B
:105E3C00002B70D03A46414618460EF005FE2469F8
:105E4C00B4B12368494ADB6A934240F0AB80A06D41
:105E5C0018B116F00DFC0023A365236D002B00F088
:105E6C009C8004F1180010F0D9FB3848FEF758FF5D
:105E7C001AB0BDE8F0879047002840F083801F21BE
:105E8C003B4816F04BFA354817F0EAFE014633480A
:105E9C0016F044FA0D21374816F040FA23481AB090
:105EAC00BDE8F04713F012BD4FF47A73274C029102
:105EBC000393244B8DF81010019323690591002B4B
:105ECC007FF44AAF8BE7199B002B7FF411AF8DF851
:105EDC0010300593CDE902341A4B019334E7436D2E
:105EEC00002B7FF44AAF7AE7426D002A9AD1C6E7BD
:105EFC00D3F88834002B3FF46BAF129106A81946E7
:105F0C00164A01230CF008F900283FF461AF06A8EB
:105F1C000CF0A4FA5CE7406D00284AD03A464146A2
:105F2C000CF066FE8BE700BF7809002020460020AD
:105F3C00144E0020C85D00205D050000983A00203A
:105F4C00F43A0020483A0020EC370020F84B0020AF
:105F5C002D010000840900209C090020D0B60120EE
:105F6C008C0D0020A40900209107000045010000C1
:105F7C00B40D0020D40D0020743A0020002201A89A
:105F8C009847E6E6206900283FF472AF036849E7BA
:105F9C00984700283FF423AFEFE6636D002B7FF4A6
:105FAC0060AF62E7204698475FE73A46414698471C
:105FBC0045E7246945E706A80FF0D4F908E700BFC8
:105FCC002DE9F047064690B00D46174698460A460E
:105FDC0003469B499B489C4C13F094FC002332468F
:105FEC009A4902A8FEF708FF236913B12046FEF771
:105FFC0097FE0698206100283AD00368944A1B6BE0
:10600C00934240F04381036D002B00F0F780324641
:10601C0090498C4813F076FC2369C3B11A688E49F9
:10602C00D26A8A4240F07D81986D28B1019316F0B6
:10603C001FFB0022019B9A651A6D002A00F06381F8
:10604C0003F1180010F0EAFA7F48FEF769FE7F4B67
:10605C00D3F88414002900F0E0800023324602A813
:10606C00029301230EF078F810B102A80FF07AF920
:10607C0000232A46754902A8FEF7BEFE236913B118
:10608C007148FEF74DFE06980023DFF8E891206179
:10609C00C9F8003000284BD003686D491A6B8A424E
:1060AC0040F0EA80026D002A00F0AD809B6A6B49DB
:1060BC008B4240F0AF80D269B2F5004F88BF4FF4ED
:1060CC000042C9F8002066495E4813F01BFCD9F861
:1060DC00002000216348019217F0E8F925693DB3CF
:1060EC002B686149D3F808A0019A8A4540F02181B8
:1060FC00286D002800F0EC805A490EF081F82569D3
:10610C00B5B12B68DB6A544A934240F00F81A86DFD
:10611C0018B116F0ADFA0023AB652B6D002B00F017
:10612C00ED8005F1180010F079FA4748FEF7F8FDFC
:10613C00012302A832464549FEF75EFE236913B1DE
:10614C004148FEF7EDFD069D2561002D4ED02B68D4
:10615C003F4A1B6B934214D12B6D002B43D0D9F8C3
:10616C000020CAB92B68414ADB68934240F0D480C6
:10617C00286D002800F0A380424639460EF064FCDE
:10618C0017E028469847002830D0D9F80020256918
:10619C00002A00F084801DB32B683449DB688B42E5
:1061AC0040F0B680286D002800F082802D490EF05A
:1061BC004BFC2569A5B12B68274ADB6A934274D145
:1061CC00A86D18B116F054FA0023AB652B6D002B9B
:1061DC0061D005F1180010F021FA1B48FEF7A0FD64
:1061EC0010B0BDE8F0876B6D002BB8D1324620495A
:1061FC00144810B0BDE8F04713F084BB436D002B7E
:10620C007FF405AF34E7426D002A91D09B6A134AA4
:10621C0093426ED0984702464EE7D3F88834002B51
:10622C003FF426AF0E913246194602A801230BF01B
:10623C0073FF00283FF41CAF02A80CF00FF917E70E
:10624C00D411002020460020F84B0020C85D00200F
:10625C002D010000F0110020450100004105000057
:10626C0008120020E4F10020AD06000091070000A8
:10627C001C120020E4710120904700283FF458AF15
:10628C00206968BB0022C9F800201CE79847002849
:10629C003FF4EEAEBBE66B6D002B9AD19DE7002D63
:1062AC007FF460AF10B0BDE8F0872846984794E7BC
:1062BC00686D002838D021490CF09AFC79E7686D9C
:1062CC0000283FF478AF424639460CF091FC70E759
:1062DC00686D00283FF416AF18490BF079FB0EE7F8
:1062EC000368174A9B6A934294D1026D002A7FF48B
:1062FC00E2AE436D002BC5D01A69DDE66B6D002B49
:10630C007FF40FAF11E75A6D002A7FF499AE9BE62C
:10631C000A49284698474CE742463946284698474A
:10632C0047E7184690478FE6256944E72846984783
:10633C00FBE628460149D047E1E600BFE4F1002026
:10634C0041050000294B034410B50446092B47D8DE
:10635C00DFE803F0191E23282D32373C41050621B6
:10636C00234815F0DBFF0121224815F0D7FF214609
:10637C0000231022204813F0D3FA02211F48BDE855
:10638C00104015F0CBBF05211D4815F0C7FFEAE7FB
:10639C0006211C4815F0C2FFE5E706211A4815F046
:1063AC00BDFFE0E70621194815F0B8FFDBE7072130
:1063BC00174815F0B3FFD6E70521164815F0AEFFC8
:1063CC00D1E70521144815F0A9FFCCE707211348A4
:1063DC0015F0A4FFC7E70821114815F09FFFC2E78D
:1063EC000821104815F09AFFBDE700BFFC27FFFFFE
:1063FC00DC160020FC160020204600200017002090
:10640C009C160020A4160020AC160020B416002008
:10641C00BC160020C4160020CC160020D416002078
:10642C00E4160020F0160020FF2994460AD04B4BAE
:10643C000344092B12D8DFE803F0171C21262B305C
:10644C00353A3F12454B034410B4092B47D8DFE8CB
:10645C0003F08238494B4D586470728070470A467D
:10646C0060463F4916F0F8BD0A4660463D4916F0B5
:10647C00F3BD0A4660463C4916F0EEBD0A4660463E
:10648C003A4916F0E9BD0A466046394916F0E4BDB2
:10649C000A466046374916F0DFBD0A466046364963
:1064AC0016F0DABD0A466046344916F0D5BD0A46E8
:1064BC006046334916F0D0BD0A466046314916F0A5
:1064CC00CBBD314B07CBCCF8000018889B78ACF8CF
:1064DC000C00CCF80410CCF808208CF80E305DF8C9
:1064EC00044B7047294BEDE7294BEBE7294C0FCCBC
:1064FC00CCF80000CCF80410CCF80820CCF80C3008
:10650C00EDE7254B07CB1B88CCF80000CCF804102A
:10651C00CCF80820ACF80C30E1E7204B07CB1B780B
:10652C00CCF80000CCF80410CCF808208CF80C3017
:10653C00D5E71B4BC6E71B4C0FCCCCF800002078E2
:10654C00CCF80410CCF80820CCF80C308CF81000E7
:10655C00C5E7154BB6E7154BD4E700BFFC27FFFF8B
:10656C00C01B0020641B00204C1B0020781B00204B
:10657C00A81B0020EC1B0020D81B0020381B00207F
:10658C00201B0020901B00209C1A0020BC1A00200D
:10659C00E01A0020101B0020001B00208C1A002089
:1065AC007C1A0020CC1A0020F01A0020AC1A002013
:1065BC00FF2870B594B07DD002466D496D4816F039
:1065CC004BFD00236B4A6C49684610F041F9129B55
:1065DC00002B79D05C20002513F0FEFF0199029A64
:1065EC000446664B45600360654BC0E903129DF899
:1065FC000C2004A98360183000F8042C0FF0CCFF99
:10660C006368604A04A80133A565A2605E4D5F4AC9
:10661C006360009210F002F82B6913B12846FEF764
:10662C007FFB23685A4A1B6B2C61934271D1236DFB
:10663C00002B59D028690368564A9B6A934240F054
:10664C008C80036D002B5AD0D8692C69182802460F
:10665C0028BF1822504B514918600023C1E9003360
:10666C00C1E90233C1E904330B7604B323684C4807
:10667C009E6886426BD1206D00285ED00DF0C0FD67
:10668C002C69A4B12368DB6A464A934262D1A06D9F
:10669C0018B115F0EDFF0023A365236D002B52D02C
:1066AC0004F118000FF0BAFF3748FEF739FB3B48EE
:1066BC0014B070BD3C4D2F4C0FCD0FC495E80300AA
:1066CC0044F8040B21807CE7139C002C82D12F4BC7
:1066DC0004A82D4D00930FF0A1FF2B693BB1284668
:1066EC00FEF71EFB2C6102E0636D002BA2D12F4B39
:1066FC002A4C0FCB07C42948237014B070BD426DCF
:10670C00002A31D010692C691828024628BF18229B
:10671C00A0E7204698470028E9D0286900288AD1AC
:10672C001E491D4B0860186048610876C1E90100DC
:10673C00C1E90300194814B070BD606D0028A2D0E7
:10674C000BF046F99CE7636D002BA9D1ACE7204612
:10675C00B04795E720469847A6E798471828024681
:10676C002C6928BF182275E72C69104672E700BF08
:10677C00240E002090B60120CC5D0020983A002019
:10678C00F43A0020743A0020F84B0020EC3700203B
:10679C002D01000041050000E4710120E4F100200E
:1067AC00AD060000450100000C0E0020400E00203C
:1067BC00FF2815D002460C490C4808B516F04CFCC5
:1067CC000A490C230A4A0B48FFF7FAFBFF20FFF794
:1067DC00EFFE094902460948BDE8084013F092B89B
:1067EC000749064813F08EB8240E002090B60120FD
:1067FC00400E00200C0E00207015002020460020BA
:10680C008815002070B50D4604461921514815F025
:10681C0085FD00230A2229464F4813F081F84E4883
:10682C0013F054F8E6071ED4A00728D4610732D41D
:10683C0022073CD4E30646D4A60650D460065AD4AC
:10684C00210664D4E2056ED4A30578D42A464349C4
:10685C00434816F001FC0C23424A43494048BDE82A
:10686C007040FFF7ADBB4DF60B00404A2946FFF7D1
:10687C00DBFD3F482946FFF7DDF9A007D6D54DF6DD
:10688C000A003A4A2946FFF7CFFD29463948FFF757
:10689C00D1F96107CCD5354A4DF605002946FFF7ED
:1068AC00C3FD29463448FFF7C5F92207C2D54DF67A
:1068BC0004002E4A2946FFF7B7FD29462F48FFF75B
:1068CC00B9F9E306B8D54DF60600284A2946FFF774
:1068DC00ABFD29462A48FFF7ADF9A606AED54DF615
:1068EC000C00224A2946FFF79FFD26482946FFF750
:1068FC00A1F96006A4D54DF607001C4A2946FFF7FE
:10690C0093FD29462048FFF795F921069AD5174A99
:10691C004DF60D002946FFF787FD29461B48FFF76A
:10692C0089F9E20590D54DF60900104A2946FFF782
:10693C007BFD29461648FFF77DF9A30586D5294628
:10694C004DF60800094AFFF76FFD29461148FFF77D
:10695C0071F97BE70417002020460020240E00204C
:10696C0090B60120400E00200C0E00200072012079
:10697C00DC150020E4150020E8150020F01500209F
:10698C00F8150020182D00200816002020170020D4
:10699C0018160020201600202DE9F04F93468A4649
:1069AC00044600214FF40042AF482DED028B9DB000
:1069BC0008EE10AACDF800B016F078FD0821AB480F
:1069CC0015F0ACFC34B1204617F04AF901462046CC
:1069DC0015F0A4FCA648DFF8E09212F077FF002334
:1069EC002246A44908A8FEF707FAD9F8103013B1CB
:1069FC004846FEF795F90C99C9F81010002900F0DB
:106A0C00E4810B689C4ADB6B934240F009820CAE2C
:106A1C0000224FF47A74994F1831304609928DF850
:106A2C002C200A940897CDE91A220FF063FE1A9BCA
:106A3C00002B00F0D4815C20002513F0CDFD099BC8
:106A4C0004464560C36031460A9B183040F8083C48
:106A5C009DF82C3000F8043C894B40F8183C894BCD
:106A6C0040F8103C0FF098FD6368A7600133A565F2
:106A7C00049563604FF47A738DF818500593824B2C
:106A8C0007940393814B304608930FF0C7FD804E5B
:106A9C00336913B13046FEF743F9079C0A25DFF83A
:106AAC001C823461002C00F0108123685B6B434521
:106ABC0040F04781A76D002F00F04F813B782E2BC3
:106ACC0068D1002C00F02F8123685B6B434540F0AC
:106ADC004081A26D002A00F053816E49644812F087
:106AEC0011FFD9F81010002900F013810B68624ACD
:106AFC00DB6B93424FF0000240F028810DF1300A1D
:106B0C004FF47A74DFF874B1183150468DF82C209C
:106B1C00CDF820B0CDE90924CDE91A220FF0EAFD19
:106B2C001A9B002B00F001815C20002713F054FD10
:106B3C00099B04464760C36051460A9B183040F8D5
:106B4C00083C9DF82C3000F8043C4D4B40F8183CA8
:106B5C004C4B40F8103C0FF01FFD4B4BC4F808B0E9
:106B6C0003936368A765013304978DF8187063600D
:106B7C004FF47A7307940593444B504608930FF0E7
:106B8C004DFD336913B14248FEF7CAF8079C013D2D
:106B9C00346187D1002C00F0988023683E491A6B31
:106BAC008A4240F08D80226D002A00F024819B6A7D
:106BBC003A498B4240F02D81D069394D062128602D
:106BCC00384815F0ABFB3069FCF7B6FA044628B12F
:106BDC0017F046F80146204615F0A0FB244812F0A9
:106BEC0075FE0621304815F099FB00230A2229680E
:106BFC001F4812F095FE1E4812F068FE306978B1FD
:106C0C0003682A499B682A688B4240F01C81036DFB
:106C1C00002B00F00981184613490DF0F1FA306988
:106C2C00FCF78AFA224A0346182108A816F0D0F974
:106C3C003469B4B123681F4ADB6A934240F0078180
