:0200000460009A
:100000004643464200000156000000000103030081
:1000100000000000000000000000000000000000E0
:1000200000000000000000000000000000000000D0
:1000300000000000000000000000000000000000C0
:1000400000000000010408000000000000000000A3
:100050000000800000000000000000000000000020
:100060000000000000000000000000000000000090
:100070000000000000000000000000000000000080
:10008000EB04180A063204260000000000000000FD
:10009000050404240000000000000000000000002F
:1000A0000000000000000000000000000000000050
:1000B0000604000000000000000000000000000036
:1000C0000000000000000000000000000000000030
:1000D00020041808000000000000000000000000DC
:1000E0000000000000000000000000000000000010
:1000F0000000000000000000000000000000000000
:10010000D8041808000000000000000000000000F3
:100110000204180804200000000000000000000095
:1001200000000000000000000000000000000000CF
:10013000600400000000000000000000000000005B
:1001400000000000000000000000000000000000AF
:10015000000000000000000000000000000000009F
:10016000000000000000000000000000000000008F
:10017000000000000000000000000000000000007F
:10018000000000000000000000000000000000006F
:10019000000000000000000000000000000000005F
:1001A000000000000000000000000000000000004F
:1001B000000000000000000000000000000000003F
:1001C000000100000010000001000000000000001D
:1001D000000001000000000000000000000000001E
:1001E000000000000000000000000000000000000F
:1001F00000000000000000000000000000000000FF
:10020000FFFFFFFFFFFFFFFFFFFFFFFFFFFFFFFFFE
:10021000FFFFFFFFFFFFFFFFFFFFFFFFFFFFFFFFEE
:10100000D100204325160060000000000000000011
:1010100020100060001000600088026000000000E6
:10102000000000600094020000000000FFFFFFFFCE
:10103000FFFFFFFFFFFFFFFFFFFFFFFFFFFFFFFFC0
:10104000FFFFFFFFFFFFFFFFFFFFFFFFFFFFFFFFB0
:10105000FFFFFFFFFFFFFFFFFFFFFFFFFFFFFFFFA0
:10106000FFFFFFFFFFFFFFFFFFFFFFFFFFFFFFFF90
:10140000884207D0904205D251F8043B40F8043B93
:101410008242F9D8704700BF884204D2002340F8C6
:10142000043B8142FBD870472DE9884800F0D0F991
:101430000824614B614AC3F8544161496148FFF790
:10144000DFFF614A61496248FFF7DAFF614962489C
:10145000FFF7E2FF614C4FF0E0214FF470000023F2
:101460005F4AC1F8880D44F823200133B02BFAD12C
:101470005C4B80215C4A03F8011B9342FBD14FF087
:10148000E0254D4E4FF08039DFF88CB1DFF88CA1AC
:101490004FF0FF31C5F8084D0027C6F80491C6F893
:1014A00000B1C6F8F490C6F8F0A0D5F8243DDFF8F6
:1014B000708143F4E0234D4AC5F8243DD8F81C3030
:1014C00023F07F0343F04003C8F81C30D8F82430E1
:1014D00023F07F0343F04003C8F824309166D166BF
:1014E0001167516700F07CF9414B4249A363424BBD
:1014F000E36363236B610323AF612B613F4BC5F84B
:10150000203DD5F8FC3D43F08073C5F8FC3D3C4BD5
:101510001A6842F001021A605B680B6000F09EFBE3
:10152000C6F804913748C6F800B1C6F8F490C6F87A
:10153000F0A000F039FDD8F86C10334B334A41F479
:101540004051C8F86C101F60C3F80871C3F81871D7
:10155000C3F82871C3F83871936BDB0708D442F6DF
:1015600015632B4951651365936B43F00103936336
:10157000264A284C936843F00113936000F0ACF9BD
:1015800000F0D0FC00F014FD00F096FB00F000FD30
:101590002368132BFCD900F027FC2368B3F5967F52
:1015A000FBD300F01BF900F017F900F0EDFC00F0A0
:1015B000F3FC30BFFDE700BF00800D40C802020011
:1015C0002C28006000000000C05A0020F82A0260A9
:1015D0000000002060BC0320C05A002000580020FA
:1015E000FD7B010000E400E0A0E400E000C00A4050
:1015F000F164010014B80320F5640100000020200C
:10160000001000E00046C3230040084000400D40A9
:101610000000C05618B803201B1018200C0D111321
:1016200000C00F40074B4FF42A01074A07485A648D
:101630001864074A99639546BFF34F8FBFF36F8FC6
:10164000FFF7F2FE00C00A40FFABAAAA0700200085
:101650000080052043690A4A03EB011010B4037AA5
:10166000084C02EB0313D3E901321460C2681A601C
:1016700003690BB142691A605DF8044B704700BF03
:10168000643D002061F801004369027E03EB021211
:1016900092F808C08C451CD01A7AFF2A19D09142C2
:1016A00010B5044616D01A7EFF2A06D00121D3E9D0
:1016B000002312681A4201D1217610BD064B052283
:1016C000204603EB0C135B681A60FFF7C3FF21761B
:1016D000F3E770470021EAE7643D002043690A4AC6
:1016E00003EB011010B490F82830084C02EB031300
:1016F000D3E901321460C26A1A60036B0BB1426B0A
:101700001A605DF8044B7047643D002061F80100E9
:101710004369427E03EB021292F828C08C451ED02A
:1017200093F82820FF2A1AD0914210B5044617D00A
:1017300093F83820FF2A06D00121D3E9002312684C
:101740001A4201D1617610BD064B0522204603EBFB
:101750000C135B681A60FFF7C1FF6176F3E770470F
:101760000021EAE7643D0020164942698B6B23F4AF
:101770007C0343F4802370B58B630446124DD2E999
:1017800000130A681A4303690A60022200211A61E1
:101790000E4A19619A6401225A629D624FF43035F3
:1017A000DD624FF001159E6C1E6519629D651A6120
:1017B000017EFFF74FFF617E2046BDE87040FFF7D6
:1017C0008DBF00BF00C00F40B80B05053B3728197F
:1017D000704700BF704700BF704700BF00BF704731
:1017E00010B44FF0E023002110242B48C3F8941DBF
:1017F000C3F89C4D1124C3F8A00D2848C3F89C4D94
:101800001224C3F8A00D2648C3F89C4D254AC3F8FE
:10181000A00D254C42F015022448C3F89C4DC3F896
:10182000A00D234C2348C3F89C4DC3F8A00D224CB7
:10183000C3F89C2D2148224AC3F8A04DC3F89C0D43
:10184000C3F8A02D02F5A0221E4C0C321E48C3F88E
:101850009C4DC3F8A02D1D4AC3F89C0D1C4CC3F829
:10186000A02D01221B48C3F89C4DC3F8A00DC3F85E
:10187000942DBFF34F8FBFF36F8FC3F8501FBFF38B
:101880004F8FBFF36F8FD3F8142D5DF8044B42F4E4
:101890004032C3F8142D70473F00001025000803A4
:1018A0000900100060BC0320130020002100020783
:1018B0001400002025000813090000101600202045
:1018C00027000B1317000040180000602F000B07C3
:1018D000190000702F000B13F0B5B84B1822B84E4A
:1018E0000120B84F83B0C3F85C62B749C3F8607297
:1018F000B64DC3F86462A6F53046B54CC3F86862CD
:10190000C3F86C52C3F87052C3F87452C3F87852DB
:1019100048F20C75DA661A675A679A67DA67C3F88D
:101920008020C3F88420C3F88820C1F82C03A94A7A
:10193000C1F83003C1F83403C1F83803C1F83C03DF
:10194000C1F85003A169A44B0A40A448A449134319
:10195000A44AA361D4F8843043F00C03C4F8843063
:101960004FF0FF34036843F00203036003682B4029
:101970004FF400551A439C4B026044608A689B4CAC
:1019800013409B4A43F000538360C36823F07803FD
:10199000C360036A134023430362036A1340954AFA
:1019A0002343954C43628262C2620022D1F8B83070
:1019B00023F03F0343F00103C0F8B830D1F8BC3046
:1019C0008E4923F03F0343F00103C0F8BC3040F2DE
:1019D0000563026105660467C0F8803045664467A8
:1019E0000224C0F88430036823F00203036081619D
:1019F000834B8449C46143F8042B8B42FBD1774A63
:101A0000136843F001031360136813F00103FBD163
:101A10007A48022140F2F564906140F29940D16128
:101A200040F26641C2F8004242F20144C2F810128C
:101A30007549C2F82002C2F8301240F235417348AD
:101A4000C2F83442C2F84012714CC2F8500242F25D
:101A500001207049C2F854120121C2F86042C2F854
:101A600064025E48C2F8A030C2F8A430C2F8B010D8
:101A70004369DA07FCD5012300244FF4803257492B
:101A80004361C0F8A040C0F8A420C0F8B0304B6952
:101A9000DB07FCD5012300244FF400304F4A4B6193
:101AA000C1F8A040C1F8A400C1F8B0305369DF0705
:101AB000FCD501230024584848495361C2F8A0408E
:101AC000C2F8A400C2F8B0304B69DE07FCD5D1F8EB
:101AD000003145F60D5221209BB24861934265D1F9
:101AE00000244FF4802201233C48C1F8A040C1F8F3
:101AF000A420C1F8B0304369DD07FCD501234FF4C1
:101B000000040021354A4361C0F8A040C0F8A41089
:101B1000C0F8B0305369DC07FCD501234FF4000452
:101B20004FF480302D495361C2F8A040C2F8A400A0
:101B3000C2F8B0304B69D807FCD501234FF400043C
:101B40004FF40030254A4B61C1F8A040C1F8A40011
:101B5000C1F8B0305369D907FCD501234FF4000414
:101B60002D481E495361C2F8A040C2F8A400C2F833
:101B7000B0304B69DA07FCD5D1F8003145F60D528B
:101B800021209BB24861934250D008254FF40004B5
:101B900022490020224B234A009015705A1A012333
:101BA0002148224400F0FCF903B0F0BD1E4B002296
:101BB000C3E90022C3E9022203B0F0BD00801F4048
:101BC000F9B00100F910010000841F40F970010014
:101BD00000C00F40FFFCFF1F000300A000402A4090
:101BE00000802A401200FFFFFF37F700400000800E
:101BF00000FFF07CFF000F8363000200F05AF05AF0
:101C000000422A4000432A409F041830EB06180A7D
:101C10003806180A0632012604000300000000708E
:101C200000000070EFBB0320CCF100204FF4000453
:101C30004FF4802201230848C1F8A040C1F8A42035
:101C4000C1F8B0304369DB07FCD5012310254FF004
:101C5000807443619CE700BF00402A40F0B4154AFD
:101C600040274FF480314FF480564FF400554FF425
:101C7000404443F24200136913F0020F0ED113F4F3
:101C8000005F0FD013F4805F0ED0002BF3DA13F453
:101C9000803F0BD15B060BD5F0BC7047946151615E
:101CA0009061E8E75561E6E75661E4E79161E2E7B4
:101CB0005761E0E700800D403F4A03203F49F3EEC3
:101CC000095AD2F880304FF0000C9FED3D6A23F0A6
:101CD00001039FED3C5A30B4C2F88030C2F8900046
:101CE000D1F8E010384DCBB2384C39482B6007EEB4
:101CF000903A0B0DC1F30B21F8EEE77A06EE903A1D
:101D000007EE101A334BB8EEC77A2160F8EEE66A98
:101D1000314937EEC66A37EEC55A76EEC76A77EEB6
:101D2000E57A26EE266AC3ED006A25EE265AD2F839
:101D3000803067EEA64AC0ED007AC6EE275A2748E3
:101D400085EE276AC4EEA76A75EE875AFCEEE55A5F
:101D500036EE076A15EE904ABCEEC66A43EA0453B3
:101D600076EE877AC2F8803016EE103AD2F89041BB
:101D7000FCEEE77A01EA0341214317EE903AC2F8FC
:101D80009011C3F30B03D2F890110B431449C2F81E
:101D90009031D2F8803043F00203C2F88030114B0A
:101DA00080F840C0C1F840314FF0E023012230BC40
:101DB000C3F80821704700BF00810D4000441F4058
:101DC0000000AA420000B442D0B50120CCB50120E9
:101DD000D4B50120D8B501200000FF0F00E400E0D9
:101DE00000580020DD7D0100314B40F6617210B5D6
:101DF000C3F8202140F2044400F0E2F82D4A2E49B5
:101E0000D2F880302D4843F00303C2F880302C4BC9
:101E1000C1F8604102681A4203D1D1F8A8319A078B
:101E20001BD0254A4FF00041244B5963D2F8403172
:101E300043F00203C2F84031D2F840319B07FBD493
:101E40004FF400304FF0E0211C4B4FF00042C1F83E
:101E50008C0219209A6300F0AFF8184A4FF08040C6
:101E6000154C002190630A20164B11604FF420722C
:101E7000C4F8A801184600F0A7F84FF48002034602
:101E80004FF4810040F243111860C4F858311A64CD
:101E90000D4B0E4AC4F84811C3F804224FF0E0225B
:101EA0004FF400310123C2F80C11C4F8403110BDC9
:101EB00000800D4000C00F4000002E4000900D40FB
:101EC000001C1E000000002000580020FD7F0100C3
:101ED00008B50E4B1B6E9B0700D4FBBE72B60C4BB5
:101EE00000200C4AC3F8400103F160430A49A3F5FE
:101EF0005F2311649D46BFF34F8F4FF400130748D3
:101F0000074ADB6902609B68984700BF00441F4096
:101F100000002E4000C00A40030020000080202066
:101F2000000012EB104BA020104AD96E41F4403152
:101F300010B4D96640F23764D96E41F44071D96665
:101F400054649064936C1B06FCD4094A40F23761D8
:101F5000A02351649364936C13F08003FBD1054A72
:101F600013705DF8044B704700C00F4000400C40F8
:101F700000800C40DDBB0320F8B500BFF8BC08BCF6
:101F80009E467047000000005FF800F059AF010066
:101F90005FF800F0896600005FF800F0B578010096
:101FA0005FF800F0799901005FF800F0CD6E010054
:101FB0005FF800F0E17A01005FF800F0BD71010008
:101FC0005FF800F0398701005FF800F0CDA801004C
:101FD000010100005579000081C300008DE400007C
:081FE00011EC0000856B01000B
:101FE80000000000000000000000000000000000E9
:101FF80000000000000000000000000000000000D9
:1020080000000000000000000000000000000000C8
:1020180000000000000000000000000000000000B8
:1020280000000000000000000000000000000000A8
:102038000000000000000000000000000000000098
:102048000000000000000000000000000000000088
:102058000000000000000000000000000000000078
:102068000000000000000000000000000000000068
:102078000000000000000000000000000000000058
:102088000000000000000000000000000000000048
:102098000000000000000000000000000000000038
:1020A8000000000000000000000000000000000028
:1020B8000000000000000000000000000000000018
:1020C8000000000000000000000000000000000008
:1020D80000000000000000000000000000000000F8
:1020E80000000000000000000000000000000000E8
:1020F80000000000000000000000000000000000D8
:1021080000000000000000000000000000000000C7
:1021180000000000000000000000000000000000B7
:1021280000000000000000000000000000000000A7
:102138000000000000000000000000000000000097
:102148003F000000000000000000000000001FFC2D
:102158003F000000000000000000000000007FFCBD
:102168003F00000000000000000000000000FFFC2D
:102178003F00000000000000000000000001FFFC1C
:102188003F00000000000000000000000003FFFC0A
:102198003F00000000000000000000000007FFFCF6
:1021A8003F3F007E3F3FC0FF001FFF80000FF9FC4C
:1021B8003F3F007E3F7FF3FFC07FFFE0001FE1FC51
:1021C8003F3F007E3FFFFFFFE0FFFFE0000FC1FC45
:1021D8003F3F007E3FFFFFFFE1FFFFF0000781FC6C
:1021E8003F3F007E3FC1FF07F1F807F0000301FC05
:1021F8003F3F007E3F80FE03F00003F0000001FC3B
:102208003F3F007E3F00FC03F03FFBF1FFF801FC7D
:102218003F3F007E3F00FC03F0FFFFF1FFF801FCA9
:102228003F3F007E3F00FC03F0FFFFF1FFF801FC99
:102238003F3F007E3F00FC03F1FC03F1FFF801FC87
:102248003F3F00FE3F00FC03F1F803F0000001FCF3
:102258003F3F81FE3F00FC03F1F807F0000001FC5E
:102268003F1FFFFE3F00FC03F1FFFFF0000001FCF1
:102278003F1FFFFE3F00FC03F1FFFFF0000001FCE1
:102288003F0FFF7E3F00FC03F0FFFBF0000001FC66
:102298003F03FE7E3F00FC03F07FF3F0000001FCEB
:1022A8000000000000000000000000000000000026
:1022B8000000000000000000000000000000000016
:1022C8000000000000000000000000000000000006
:1022D80000000000000000000000000000000000F6
:1022E80000000000000000000000000000000000E6
:1022F80000000000000000000000000000000000D6
:1023080000000000000000000000000000000000C5
:1023180000000000000000000000000000000000B5
:1023280000000000000000000000000000000000A5
:102338000000000000000000000000000000000095
:102348000000000000000000000000000000000085
:102358000000000000000000000000000000000075
:102368000000000000000000000000000000000065
:102378000000000000000000000000000000000055
:102388000000000000000000000000000000000045
:102398000000000000000000000000000000000035
:1023A8000000000000000000000000000000000025
:1023B8000000000000000000000000000000000015
:1023C8000000000000000000000000000000000005
:1023D80000000000000000000000000000000000F5
:1023E80070C00F40C0000000120000001300000081
:1023F800D0841F4001000000FF000000FF00000023
:10240800000000000000000013000000130000009E
:10241800CC841F4001000000FF000000FF00000006
:1024280000000000000000001C000000E5C20000E1
:1024380070C00F40000C00001100000011000000E7
:10244800E0841F40020000002C0000001200000081
:10245800E0841F400100000010000000110000008F
:10246800DC841F40020000002D0000001200000064
:10247800DC841F40010000001E000000F1C20000C3
:1024880080C00F4000000003190000001000000089
:10249800E8841F4001000000FF000000FF0000006A
:1024A80000000000000000001800000010000000FC
:1024B800E4841F4001000000FF000000FF0000004E
:1024C80000000000000000001F000000FDC2000026
:1024D8000000600000000000000000000000000094
:1024E80000E0000000000000000000000000000103
:1024F800E00000000000000000000000000001F003
:102508000000000000000000000000000003F000D0
:1025180000000000000000000000000007F00000BC
:10252800000000000000000000000007F8000000A4
:10253800000000000000000000000FF80000000389
:10254800C0007E000001E0007F0FF800000003C01B
:1025580000FE000001E000FFEFF800000003C000EB
:10256800FE000001E000FFFFF800000003C000F0DB
:102578000000000F007FFE7FC0000003C000F000D5
:1025880000000F003FFE7FF83FF1FBCFFCFEF3BCDD
:102598003DEFE01FFE7FFF7FFBFFDFFEFEFFBC3D40
:1025A800EFE01FC6FFFF7FFBFFDFFEFEFFBC3DEF36
:1025B800E00FE3C7FE787BC3DE1EF0FFBC3DEF00F3
:1025C80007FF87FC787BC3DE1EF0F83C3DEF000177
:1025D800FFFFF0007BC3C01EF0F03C3DEF0001F3AD
:1025E8007FE03FFBC3CFFEF0F03C3DEF0003E33F4D
:1025F800807FFBC3DFFEF0F03C3DEF0007E73C00C7
:10260800787BC3DE1EF0F03C3DEF0007FFBE00788C
:102618007BC3DE1EF0F03C3DEF0007FFFE00787B39
:10262800C3DE1EF0F03C3DEF000FFFFE007FFBFF16
:10263800DFFEF0F03FFDEFE00FFFFF007FFBFFDF65
:10264800FEF0F03FFDEFE00FF9FF003E79F9CF9E75
:10265800F0F01F3DE7E01FF1FF0000000000000060
:1026680000000000001F80FF007FFFFFFFFFFFFF4B
:10267800FFFFFFE01C007F007FFFFFFFFEB46D88B7
:102688008D18E000001F007FFFFFFFFE95AD7DB5B0
:1026980077E000000F007FFFFFFFFEA5AD9D8D19BD
:1026A800E0000006007FFFFFFFFEB5ADEDB57EE060
:1026B8000000000118035400650065006E007300F7
:1026C800790020004D0049004400490018035400D7
:1026D800650065006E00730079006400750069008C
:1026E8006E006F000403090409029500030100C08D
:1026F80032080B0002020201000904000001020274
:10270800010005240010010524010101042402062A
:1027180005240600010705820310001009040100C2
:10272800020A0000000705030240000007058302B3
:102738004000000904020002010300000724010010
:1027480001250006240201010006240202020009F4
:102758002403010301020100092403020401010109
:1027680000090504024000000000052501010109D7
:102778000584024000000000052501010300000057
:1027880009029500030100C032080B000202020191
:1027980000090400000102020100052400100105DF
:1027A800240101010424020605240600010705820C
:1027B8000310000509040100020A000000070503D0
:1027C8000200020007058302000200090402000259
:1027D800010300000724010001250006240201016D
:1027E8000006240202020009240301030102010079
:1027F8000924030204010101000905040200020082
:1028080000000525010101090584020002000000FD
:1028180005250101030000000A060002EF0201403D
:0428280001000000AB
:10282C00000000000000000000000000000000009C
:10283C00000000000000000000000000000000008C
:10284C00F8B54FF084439D695A6915400DD0244F5B
:10285C0001269D6195FAA5F4B4FA84F457F8243056
:10286C0006FA04F49847A543F4D11E4B9D695A69A6
:10287C0015400DD01C4F01269D6195FAA5F4B4FAB4
:10288C0084F457F8243006FA04F49847A543F4D19D
:10289C00164B9D695A6915400DD0154F01269D6147
:1028AC0095FAA5F4B4FA84F457F8243006FA04F433
:1028BC009847A543F4D10F4B9D695A6915400DD02B
:1028CC000D4F01269D6195FAA5F4B4FA84F457F8DE
:1028DC00243006FA04F49847A543F4D1F8BD00BFA0
:1028EC00E44A002000400042644B0020008000427B
:1028FC00E44B002000C00042644C00200548064B0D
:10290C001B1AD90F01EBA301491002D0034B03B1E1
:10291C0018477047C05A0020C05A00200000000021
:10292C0008B5054B1BB105490548AFF30080BDE860
:10293C000840FFF7E3BF00BF00000000487401200F
:10294C000094026000207047704700BF036D0BB10C
:10295C0001207047406D003818BF0120704700BF40
:10296C00704700BF10B50446806D18B119F0A0FC7B
:10297C000023A365236D2BB104F11800BDE81040B2
:10298C0013F06ABC636D002BF6D110BD08B517208F
:10299C0017F0CCF860B9084A13680133012B08DD35
:1029AC00064B012110601970054A064B12681A601B
:1029BC0008BD1360F8E700BF087301200BBC0320AF
:1029CC0018B8032078B60120054B1B78DB0706D519
:1029DC00044A01200449054B126808701A607047BC
:1029EC00FBBB032018B80320E3BB032080B60120F7
:1029FC00054B1B789B0706D5044A01200449054B5F
:102A0C00126808701A607047FBBB032018B80320CB
:102A1C00E5BB032088B6012010B50446806D00B1DB
:102A2C0010BD4FF4807019F03BFCA065B0B10022D2
:102A3C00236D02703BB101464FF48072184612F0C0
:102A4C00B7FFA06D10BD636D002BE9D001464FF4AC
:102A5C008072184610F0ACFBA06D10BD014B1846EF
:102A6C00A36510BDDABB032038B5056D6DB10BB194
:102A7C00002038BD1146284611F028FC0028F7D05C
:102A8C002846BDE8384011F0C3BD446D002CEFD092
:102A9C0020460EF0A1FE0028EAD02046BDE83840C2
:102AAC000FF052BE8A79A2F150031B0622D402F217
:102ABC006C72F0B54B7985B0046D01330D798E785D
:102ACC004F78DBB209784CB1204601960095CDE9E0
:102ADC000271022111F030FD05B0F0BD406D0028EF
:102AEC00FAD001960095CDE9027102210FF070FD2C
:102AFC0005B0F0BD00207047036D10B50C4682B0D8
:102B0C002BB30DF1060201A9184610F085FF38B35E
:102B1C00BDF80430BDF8062053EA020120D0C2F300
:102B2C00451C02F01F00D20AC3F34311400084F885
:102B3C0001C0A2705A0A013903F01F0302F5EA62C0
:102B4C002070012061712371A27102B010BD406D23
:102B5C0030B10DF1060201A90EF0E4FC0028D7D12A
:102B6C00002002B010BD00BF036D10B50C4682B042
:102B7C002BB30DF1060201A9184610F03DFF38B336
:102B8C00BDF80430BDF8062053EA020120D0C2F390
:102B9C00451C02F01F00D20AC3F34311400084F815
:102BAC0001C0A2705A0A013903F01F0302F5EA6250
:102BBC002070012061712371A27102B010BD406DB3
:102BCC0030B10DF1060201A90EF09AFC0028D7D104
:102BDC00002002B010BD00BF30B5D0F880448FB0DB
:102BEC0013464CB100250A46684604F589610095E8
:102BFC0010F0D8FF0FB030BDD0F884040028F9D005
:102C0C000A4600F5896168460C940FF075FC0FB00C
:102C1C0030BD00BF10B5044600230A2216F09EFCFE
:102C2C002046BDE8104016F06FBC00BF69B170B50E
:102C3C00054608460C461AF033FE2B680246214620
:102C4C0028465B68BDE8704018477047006990B132
:102C5C000368154A1B69934225D1036D63B118783B
:102C6C0010F0080007D0D8695B69C01A48BF6FF034
:102C7C000040704718467047436D002BFAD093F80C
:102C8C00310010F00800F6D0186919685A69401A1A
:102C9C005B6862EB0303B0F1004F73F10003EAD3FE
:102CAC006FF00040704718473D080000036973B18E
:102CBC001A68084952698A4207D1186D08B111F097
:102CCC0091B9586D18B10EF071BD184610474FF000
:102CDC00FF3070471D06000000B5006983B08DF809
:102CEC00071060B10368104ADB68934215D1036D7D
:102CFC0043B101220DF10701184611F0C3FC03B0DA
:102D0C005DF804FB406D0028F9D001220DF107019C
:102D1C000FF08CFD03B05DF804FB01220DF10701EF
:102D2C00984703B05DF804FB8D070000036963B19D
:102D3C001A68074992698A4208D1186D08B111F0D6
:102D4C00F5BB586D08B10FF0CDBA70471846104757
:102D5C000D070000036D13B1586900217047436DD6
:102D6C0013B1D3E90001704718461946704700BFEC
:102D7C00036D13B1D86900217047436D13B1D3E9CA
:102D8C000401704718461946704700BFF0B595B05E
:102D9C0000224FF47A74244F1831054604A88DF89C
:102DAC000C200097CDE90124CDE9122213F0C0FAD2
:102DBC00129B002B2DD05C20002617F02DFA019BC6
:102DCC0004464660C36004A9029B183040F8083CD6
:102DDC009DF80C3000F8043C144B40F8183C144B94
:102DEC0040F8103C13F0F6F9124B4FF47A72A760CE
:102DFC002B606368A66501336E602E73AA602C612C
:102E0C0063600D4B04A8009313F026FA284615B006
:102E1C00F0BD139B002BCED1064A2B732A602B617D
:102E2C00C5E90134EDE700BF5039002074390020AA
:102E3C00D039002024390020C8360020036D13B18E
:102E4C00184611F0CFB8406D08B10EF0AFBC4FF082
:102E5C00FF307047836C13B1184611F0C3B8C06CC7
:102E6C0008B10EF0A3BC4FF0FF307047036D33B1C7
:102E7C001B7813F0700F14BF012000207047406DB9
:102E8C0030B190F8313013F0500F14BF01200020F6
:102E9C00704700BF10B50446006D80B1037813F085
:102EAC00700F00D110BD002111F010FA606D0028D8
:102EBC00F8D000220023BDE810400EF08DBC606DF0
:102ECC000028EFD090F8313013F0500FEAD00022E8
:102EDC000023BDE810400EF07FBC00BF036D13B1A2
:102EEC00184610F0ABBF406D08B10EF08FBB4FF021
:102EFC00FF307047836C00B583B063B101220DF1D4
:102F0C000701184610F09AFF01280CD19DF8070014
:102F1C0003B05DF804FBC06C28B101220DF1070170
:102F2C000EF074FBF0E74FF0FF30F1E7036D13B1D7
:102F3C00184611F0FBBA406D08B10FF0D3B97047C9
:102F4C00836C13B1184611F0F1BAC06C08B10FF0D4
:102F5C00C9B97047036923B31968134A10B58C6853
:102F6C0082B0944214D1186D48B101220DF10701C1
:102F7C0010F064FF90B19DF8070002B010BD586DC1
:102F8C000028F8D001220DF107010EF03FFBF1E70C
:102F9C0001220DF107011846A047EBE74FF0FF3077
:102FAC00EBE74FF0FF307047BD060000036D13B127
:102FBC00184611F067BB406D08B10FF037BC704775
:102FCC00836C13B1184611F05DBBC06C08B10FF0E7
:102FDC002DBC704700B5836C83B08DF8071043B1DE
:102FEC0001220DF10701184611F04CFB03B05DF8FE
:102FFC0004FBC06C0028F9D001220DF107010FF081
:10300C0015FC03B05DF804FB8A79A2F150031B0692
:10301C0022D402F26C72F0B54B7985B0046D013399
:10302C000D798E784F78DBB209784CB12046019639
:10303C000095CDE90271042111F07EFA05B0F0BDC6
:10304C00406D0028FAD001960095CDE9027104215B
:10305C000FF0BEFA05B0F0BD00207047036D53B100
:10306C00187810F008000DD0D8695B69C01A48BFF9
:10307C006FF000407047436DA3B193F8310010F02E
:10308C00080000D17047186919685A69401A5B68C2
:10309C0062EB0303B0F1004F73F10003F2D36FF056
:1030AC00004070471846EDE7836C53B1187810F068
:1030BC0008000DD0D8695B69C01A48BF6FF000409A
:1030CC007047C36CA3B193F8310010F0080000D125
:1030DC007047186919685A69401A5B6862EB0303F8
:1030EC00B0F1004F73F10003F2D36FF00040704762
:1030FC001846EDE70369D3B10E4810B41C68E468B8
:10310C0084420FD1186D18B15DF8044B11F0BABAA6
:10311C00586D18B15DF8044B0FF088BB00205DF8BA
:10312C00044B7047184623465DF8044B18470020A3
:10313C00704700BF8D07000048B10368174A5B6BEE
:10314C00934210B5044616D1806D10B110BD1448D1
:10315C0070474FF4807019F0A3F8A065C8B1002235
:10316C00236D027053B101464FF48072184612F071
:10317C001FFCA06D10BDBDE810401847636D002BFF
:10318C00E4D001464FF48072184610F011F8A06D8F
:10319C0010BD044B1846A36510BD00BFF90100001B
:1031AC005C410020DABB032038B504460C4B806D23
:1031BC00236018B119F07CF80023A365236D04F18A
:1031CC0018054BB1284613F047F8064B2846A36068
:1031DC0013F042F8204638BD636D002BF2D1F4E7B2
:1031EC0074390020C836002038B504460E4B806D6B
:1031FC00236018B119F05CF80023A365236D04F16A
:10320C0018056BB1284613F027F8084B2846A36025
:10321C0013F022F820465C2117F000F8204638BD48
:10322C00636D002BEED1F0E774390020C836002016
:10323C0030B4029C11469C4634B1012C1CD0022C9B
:10324C000ED0002030BC7047056DF5B14FF0FF3348
:10325C00934274EB0C04F4D3284630BC11F036B80E
:10326C00026D0AB3D36959184CF10003002BE8D155
:10327C00104630BC11F02AB8026D62B1536959186E
:10328C004CF10003002BDCD1F2E7406D0028D8D0C4
:10329C0030BC0EF0A1BA406D0028D2D0D0E900238A
:1032AC008A184CEB0303F3E7406D0028C9D0D0E932
:1032BC00042330BC8A184CEB03030EF08DBA00BF0C
:1032CC0038B5044649B108460D461AF0E9FA2368A8
:1032DC00024629465B68204698472046BDE83840A0
:1032EC0016F012B970B5244B044605690360002D25
:1032FC0032D06E68013E6E6076BB2B681F4ADB6A6B
:10330C0093422FD1A86D10B118F0D2FFAE652B6D82
:10331C0023B305F1180012F09FFF2569E5B12B6866
:10332C00174A5B68934224D1164BA86D2B6018B1D9
:10333C0018F0BEFF0023AB652B6D05F11806A3B189
:10334C00304612F089FF104B3046AB6012F084FF10
:10335C005C21284616F062FF204670BD6B6D002B79
:10336C00D7D1DAE728469847D7E76B6D002BE7D122
:10337C00E9E728469847EFE724390020450100008B
:10338C00C909000074390020C836002070B5264BDE
:10339C00044605690360002D32D06E68013E6E60F4
:1033AC0076BB2B68214ADB6A934233D1A86D10B1EE
:1033BC0018F07EFFAE652B6D43B305F1180012F0CB
:1033CC004BFF2569E5B12B68194A5B68934228D1FC
:1033DC00184BA86D2B6018B118F06AFF0023AB6571
:1033EC002B6D05F11806C3B1304612F035FF124BA8
:1033FC003046AB6012F030FF5C21284616F00EFF11
:10340C002046142116F00AFF204670BD6B6D002B70
:10341C00D3D1D6E728469847D3E76B6D002BE3D181
:10342C00E5E728469847EBE72439002045010000E2
:10343C00C909000074390020C836002008B518F0FE
:10344C0023FD10B908BD18F063FD18F01DFD002810
:10345C00F9D1012008BD00BF38B50446094D112132
:10346C00094818F07BFD214600230A22284616F055
:10347C0075F8284616F048F821460020BDE838407B
:10348C0016F000BDF8440020F81A002010B50020FA
:10349C0016F0E8FB04461121114818F05FFD0023DB
:1034AC000A2221460F4816F059F80E4816F02CF84F
:1034BC00022C01D8204610BD11210B4818F04EFDEE
:1034CC0000230A2207481C46194616F047F80548FF
:1034DC0016F01AF82046214616F0D4FC204610BDF2
:1034EC00E41A0020F8440020F81A002038B50446ED
:1034FC00094D1B21094818F031FD214600230A22F1
:10350C00284616F02BF8284615F0FEFF2146012020
:10351C00BDE8384016F0B6BCF8440020002A002064
:10352C0038B50446094D1D21094818F017FD2146F0
:10353C0000230A22284616F011F8284615F0E4FF5D
:10354C0021460220BDE8384016F09CBCF84400200F
:10355C007828002070B514460D461E4602462346B8
:10356C000549064815F0ECFF44EA06012846BDE87B
:10357C00704016F087BC00BF34270020F8440020B0
:10358C0030B5032083B016F06DFB0446164D14F0D5
:10359C00010F1649164824F0F00308BF294614F011
:1035AC00020F144A08BF2846009113490190134892
:1035BC0015F0C6FF04F0F003A02B03D104F00F00AC
:1035CC0003B030BD0E490D4815F0BAFF0323094A6C
:1035DC000C490A4815F0B4FFA321032016F052FC45
:1035EC00032003B030BD00BF04140020A42600202B
:1035FC00A44100208C2A0020AC260020F844002096
:10360C00502A00203427002030B5042083B016F057
:10361C0029FB0446164D14F0010F1649164824F0E8
:10362C00F00308BF294614F0020F144A08BF2846BD
:10363C00009113490190134815F082FF04F0F00338
:10364C00A02B03D104F00F0003B030BD0E490D4880
:10365C0015F076FF0323094A0C490A4815F070FF50
:10366C00A321042016F00EFC032003B030BD00BFD4
:10367C0004140020A4260020A44100201C2A0020B1
:10368C00AC260020F8440020502A002034270020CB
:10369C0030B5052083B016F0E5FA0446164D14F04B
:1036AC00010F1649164824F0F00308BF294614F000
:1036BC00020F144A08BF2846009113490190134881
:1036CC0015F03EFF04F0F003A02B03D104F00F0023
:1036DC0003B030BD0E490D4815F032FF0323094AE3
:1036EC000C490A4815F02CFFA321052016F0CAFB43
:1036FC00032003B030BD00BF04140020A42600201A
:10370C00A4410020A42A0020AC260020F84400206C
:10371C00502A00203427002030B5062083B016F044
:10372C00A1FA0446164D14F0010F1649164824F060
:10373C00F00308BF294614F0020F144A08BF2846AC
:10374C00009113490190134815F0FAFE04F0F003B0
:10375C00A02B03D104F00F0003B030BD0E490D486F
:10376C0015F0EEFE0223094A0C490A4815F0E8FE52
:10377C00A221062016F086FB022003B030BD00BF4C
:10378C0004140020A4260020A4410020742A002048
:10379C00AC260020F8440020342A002034270020D6
:1037AC0030B5072083B016F05DFA0446164D14F0C0
:1037BC00010F1649164824F0F00308BF294614F0EF
:1037CC00020F144A08BF2846009113490190134870
:1037DC0015F0B6FE04F0F003A02B03D104F00F009B
:1037EC0003B030BD0E490D4815F0AAFE0223094A5C
:1037FC000C490A4815F0A4FEA221072016F042FB42
:10380C00022003B030BD00BF04140020A426002009
:10381C00A441002084290020AC260020F84400207C
:10382C00342A00203427002010B550B10B490C4A23
:10383C000C4815F085FE01210820BDE8104016F05B
:10384C0021BB04460549084A064815F079FE214675
:10385C000820BDE8104016F015BB00BF042900205D
:10386C0074150020F84400200029002010B550B138
:10387C000B490C4A0C4815F063FE01210920BDE8E8
:10388C00104016F0FFBA04460549084A064815F0E0
:10389C0057FE21460920BDE8104016F0F3BA00BFD0
:1038AC005C2900207C290020F844002050290020AD
:1038BC00F8B50B2042F20F7616F0D4F904460A2024
:1038CC00240216F0CFF904F47F440444A4B2B442A9
:1038DC000AD8651C42F21073ADB29D4218D1002576
:1038EC0034462F46294604E0002601253746294652
:1038FC0034460A2016F0C6FA39460B2016F0C2FAE6
:10390C002B4632460449054815F01AFE2046F8BDF0
:10391C00E9B226462F0AECE770270020F844002075
:10392C0070B505460C490D482A4605F108062C468B
:10393C0015F006FE14F8011B04F2FF10401B16F0E4
:10394C00A1FAA642F6D10521054818F007FB034859
:10395C00BDE8704015F0D8BD98280020F844002030
:10396C00C0280020F8B5074640F2012524210C4858
:10397C007C1EFE1DED1B18F0F1FA281916F072F9D9
:10398C0004F8010FB442F8D10023052105483B721D
:10399C0018F0E4FA0448BDE8F84015F0B5BD00BFD6
:1039AC0020280020C0280020F8440020012810B551
:1039BC0004460BD0022816D090B11A210B4818F0EF
:1039CC00CDFA0B48BDE8104015F09EBD0B210948FF
:1039DC0018F0C4FA064815F097FD074B1C6010BD93
:1039EC000D210648F4E70C210548F1E7B80C00203E
:1039FC00F84400209C0C0020C44A00208C0C0020B1
:103A0C00A80C0020194B2DE9F041194E0446DFF8A3
:103A1C0068801F68174D04F00F03092B1BD0082B6F
:103A2C0004F0F00220D80134E4B257B9992CF2D842
:103A3C00414655F8240019F0D7FC0028EBD020465D
:103A4C0010E0032CE7D8414656F8240019F0CCFCC2
:103A5C000028E0D0F3E704F0F0041034E4B2902C2A
:103A6C00E3D90020BDE8F0811446DEE7287301207D
:103A7C00D8050020700300204C09002000F00F0333
:103A8C00092B16D0082B00F0F0020DD900231109D8
:103A9C000C4801EB8101007803EB4103DBB2984247
:103AAC0038BF002210467047431CDAB203F00F03F4
:103ABC00EDE700F0F0001030C2B2902AE6D90022F7
:103ACC0010467047F8BB0320144B2DE9F041DFF88A
:103ADC0058800446124E1D68124F23070FD114F064
:103AEC00F00417D19924002DF7D156F82400414643
:103AFC0019F07AFC0028F0D02046BDE8F081013C9A
:103B0C00E4B215B9992CE8D8EFE7032CE5D857F8AF
:103B1C002400ECE7073CE4B2F3E700BF2873012074
:103B2C0070030020D80500204C090020030705D1A4
:103B3C0010F0F0001FD1632399200AE00138C0F384
:103B4C00031200F00F03C0B202EB820203EB42033C
:103B5C00DBB20A4A12789A420CD2094BA3FB02132D
:103B6C00DB08C3EB4311C3EB8101490001EB0313E9
:103B7C001A44D0B270470738E1E700BFF8BB032006
:103B8C00CDCCCCCC70B5274D002128460CF026F8B6
:103B9C00254B022128462B610CF01AF8234B1C787C
:103BAC00012C0AD0022C27D0BCB10022204B43F6AA
:103BBC003F7110469A70198070BD1E4B00241C4931
:103BCC005F221B7828464A7002221B098C70303306
:103BDC000B7015F065FC204670BD154E45F65F73F5
:103BEC0030463380B47019F05BFE314602462846ED
:103BFC0015F056FC204670BD0E4B00220C4C1B7869
:103C0C00A27020461A0903F00F03303230332270B1
:103C1C00637019F045FE21460246284615F040FC1B
:103C2C00012070BDC06F00200100230002BC0320E6
:103C3C0068740120EDBB032038B5174B04461B6894
:103C4C00002B0FD0154D1A461549B8BF5A1C2868C1
:103C5C00096800EB62028A4204DC0344994200DDED
:103C6C00296038BD0F4D4FF001130F4A0021284633
:103C7C00C5E904230BF0B2FF012128460BF0A8FF85
:103C8C00002CEED0204619F00BFE214602462846A9
:103C9C00BDE8384015F004BCFC710120F071012026
:103CAC0060740120C06F00200100140038B5174B60
:103CBC0004461B68002B0FD0154D1A461549B8BF8A
:103CCC005A1C2868096800EB62028A4204DC03442F
:103CDC00994200DD296038BD0F4D4FF001130F4A9A
:103CEC0000212846C5E904230BF078FF0121284662
:103CFC000BF06EFF002CEED0204619F0D1FD2146C2
:103D0C0002462846BDE8384015F0CABBF8710120C0
:103D1C00EC71012060740120C06F002001002600AE
:103D2C0038B5174B04461B68002B0FD0154D1A469F
:103D3C001549B8BF5A1C2868096800EB62028A4210
:103D4C0004DC0344994200DD296038BD0F4D4FF06F
:103D5C0001130F4A00212846C5E904230BF03EFF4E
:103D6C00012128460BF034FF002CEED0204619F030
:103D7C0097FD214602462846BDE8384015F090BB19
:103D8C00F4710120E871012060740120C06F0020E3
:103D9C000100380038B50A4D04460A4B012128466B
:103DAC002B610BF015FF4CB1204619F079FD214623
:103DBC0002462846BDE8384015F072BB38BD00BF3E
:103DCC00C06F00201E00260030B55E4A83B05E4CEA
:103DDC00156823685B1B962B06D95C4D2368136012
:103DEC002B7883F001032B70FF281CD00F2811D8DF
:103DFC00574C2378012B5ED013F0FD0F49D00020D7
:103E0C00B3B9524B1B78002B14BFCC23FC230B7083
:103E1C0003B030BD1238072805D8DFE800F0251CA8
:103E2C000404041404104A4B00201B78002BE8D027
:103E3C00013BDBB2012BEBD8464B1B7831E0444BFA
:103E4C0002201B78DCE7424B1B78A3F10200B0FA8E
:103E5C0080F04009D4E73E4C2378012B59D0022B3B
:103E6C0030D09BB10020E3E7394C2378012B41D0B3
:103E7C00022B34D0002BF5D1374A18460191128809
:103E8C00012A54D0FFF752FE019903460222314D0C
:103E9C0004E0000101222F4D0C30C3B200202B7026
:103EAC0022702A4A0B70127812B943F00F03DBB25E
:103EBC000B7003B030BD274D02222B7823F00F037B
:103ECC000343EBE7244B234D1B882878012B0191EE
:103EDC0025D0FFF7D3FD019902220346DEE71E4BE6
:103EEC001C4D1B882878012B01911CD0FFF71EFE5E
:103EFC000199F1E7184B174D1B882878012B01917C
:103F0C0000F0F00018D0FFF711FE019903460222D1
:103F1C00C4E7104D0222287800F0F003BEE7FFF74B
:103F2C0071FD0199D8E7FFF7CFFD0199D4E7FFF7B1
:103F3C00CBFD01990346A9E7FFF7C6FD019903469E
:103F4C00E5E700BFBC6B002018B80320E1BB0320E1
:103F5C0002BC0320EDBB0320BEBB032008B5374BCE
:103F6C001B68042B21D8DFE803F0424A030322002C
:103F7C00334B344A1B88344903F51F5311603C33CF
:103F8C009BB2092B50D8314A52F82300FFF754FE4C
:103F9C002F4B1B8803F51F533C339BB2092B45D881
:103FAC002A4A52F82300FFF781FE012008BD254B59
:103FBC001868FFF741FE224B1B8803F51F533C3357
:103FCC009BB2092B38D8214A52F82300FFF76EFE1A
:103FDC001F4B1B8803F51F533C339BB2092B29D86D
:103FEC001A4A52F82300FFF79BFE012008BD154B1F
:103FFC00184A19481A60FFF71FFE012008BD104B24
:10400C00104A1B88134903F51F5311603C339BB2B4
:10401C00092B0DD80D4A52F82300FFF70DFE0E4860
:10402C00FFF744FE012008BD0C48AFE70B48BAE788
:10403C000A48F2E70948D6E70848C7E7B4BA0320AC
:10404C00CEBB0320404D002004100020E8050020CA
:10405C00D0BB0320E40F0020F80F0020F80700204D
:10406C00554B1B6810B5072B2CD8DFE803F08404E4
:10407C0004562D2D3267514C514B52491B682288E6
:10408C00514818F009FE5048FFF7D6FD2388B3F5C8
:10409C00005F00F08C8000F28380B3F5006F02D0DB
:1040AC00B3F5805F02D14948FFF700FE484B1A6810
:1040BC002AB148490020484A0968186011604748ED
:1040CC00FFF72EFE012010BD4548FFF7B5FD01207E
:1040DC0010BD444B1A681E2A05D03E491E20424A88
:1040EC000968186011604148FFF7A6FD404B414933
:1040FC001A88354818F0D0FD3F4B1A682AB135495B
:10410C0000203E4A0968186011602F48FFF7CEFD69
:10411C003248FFF705FE012010BD3948FFF78CFD32
:10412C00354B1A681E2A05D02A491E20334A0968C5
:10413C00186011603348FFF7B9FDC0E7294B1A68C6
:10414C002AB124490020284A0968186011602A4BBA
:10415C001A682AB11F490020284A096818601160A2
:10416C001B4B1A68002AADD01A4900201A4A09685C
:10417C0018601160A6E7124B234A24481A60FFF717
:10418C005BFD134B1A68122A05D012491220124AF1
:10419C000968186011601E48FFF7C2FD012010BDB0
:1041AC00B3F5804F03D0B3F5004F7FF47FAF1948C0
:1041BC00FFF77CFD7AE700BFC4F00020BCBB0320F6
:1041CC00C04A0020081C0020C8F00020181C002049
:1041DC00F471012060740120E8710120481C00205A
:1041EC00841C0020FC710120F0710120901C002027
:1041FC00B8BB0320A41C0020F8710120EC71012035
:10420C00601C0020701C0020E40F0020DC1B002030
:10421C00F01B0020301C00202DE9F0474FF0000966
:10422C00DFF8E482012484B049464046B34E43276C
:10423C0025460BF0D3FC3B4622B2022140460095AA
:10424C000834CDE901950BF017FC16F8017FA4B2E8
:10425C00002FF0D1AA4D03200A23DFF8ACA2298845
:10426C0001243222B94601F00101DFF8A482542660
:10427C00029139462746CDE9003050460AF0D2FF6C
:10428C00334622B20F21504600970834CDE90197EE
:10429C000BF0F2FB18F8016FA4B2002EF0D12A88B3
:1042AC0003210A23DFF86092C2F34002012448463E
:1042BC00B24602923222A046924F5326CDE90031EB
:1042CC000D210AF0AFFF334622B21C214846CDF82F
:1042DC0000800834CDE901A80BF0CEFB17F8016F74
:1042EC00A4B2002EEFD12A8803210A23DFF818A2EA
:1042FC00C2F3800201245046DFF818820292322267
:10430C00A1464227CDE900311A210AF08BFF3B462A
:10431C0022B229215046CDF800900834CDE901692C
:10432C000BF0AAFB18F8017FA4B2002FEFD12A885A
:10433C0003210A23DFF8D0A1C2F3C00201245046A6
:10434C00DFF8D48102923222A1464826CDE9003111
:10435C0027210AF067FF334622B236215046CDF8AA
:10436C0000900834CDE901790BF086FB18F8016F49
:10437C00A4B2002EEFD12A8803210A23DFF888A1EA
:10438C00C2F3001201245046DFF8908102923222CF
:10439C00A1464327CDE9003134210AF043FF3B46C7
:1043AC0022B243215046CDF800900834CDE9016982
:1043BC000BF062FB18F8017FA4B2002FEFD12A8812
:1043CC0003210A23DFF840A1C2F340120124504616
:1043DC00DFF84C8102923222A1464326CDE900310E
:1043EC0041210AF01FFF334622B250215046CDF82E
:1043FC0000900834CDE901790BF03EFB18F8016F01
:10440C00A4B2002EEFD12A8803210A23DFF8F8A0EA
:10441C00C2F3801201245046DFF808810292322246
:10442C00A1465227CDE900314E210AF0FBFE3B4656
:10443C0022B25D215046CDF800900834CDE90169D7
:10444C000BF01AFB18F8017FA4B2002FEFD12A88C9
:10445C0003210A23DFF8B0A0C2F3C0120124504696
:10446C00DFF8C48002923222A1465426CDE90031F5
:10447C005B210AF0D7FE334622B26A215046CDF8B2
:10448C0000900834CDE901790BF0F6FA18F8016FB9
:10449C00A4B2002EEFD12A880A2303210124C2F3EF
:1044AC0000221948A046194F02923222DFF8589088
:1044BC00CDE9003168210AF0B5FE432322B2772101
:1044CC004846CDF800800834CDE901680BF0D4FAE9
:1044DC0017F8013FA4B2002BF0D1288803210A233E
:1044EC003222C0F3402001917521009302900648BE
:1044FC000AF098FE04B0BDE8F08700BFC01400209D
:10450C0048540020CC140020C06F0020041500205B
:10451C00C8140020D4140020DC140020E414002063
:10452C00EC140020F4140020FC140020F8B5022038
:10453C0015F098FB0446002800F0F48002467D4BF1
:10454C007D497E4814F0FCFF112C28BF00247C4BC5
:10455C000025012603271C60FFF712F8794B187011
:10456C00FFF752F8784B1870FFF792F8774B1870EA
:10457C00FFF7D2F8764B1870FFF712F9754B02461D
:10458C0008201A7015F06EFB734B041E734A7449A5
:10459C0008BF1A46694814F0D3FF641B714B4FF0E7
:1045AC00090018BF01241C7015F05CFB6E4B041E37
:1045BC006E4A6F4908BF1A46604814F0C1FF601B71
:1045CC006C494DF6060218BF01206B4B6B4C087002
:1045DC004DF604019A83998024211A85272219808B
:1045EC004DF605019A8407221982252183F826208D
:1045FC004DF60A0299814DF60701A3F858209986C9
:10460C002821A3F864202C2219864DF60801A3F862
:10461C0060204DF60B02A3F840102921A3F870205E
:10462C0099874DF60901A3F87C202E22A3F84C1093
:10463C002A219D70A3F8481026219D7319832B21E4
:10464C009D76A3F854102D2183F83260A3F86C10DA
:10465C002F2183F83E5083F84A5083F8626083F828
:10466C00567083F86E70A3F87820626DA3F88410EE
:10467C00302183F87A60A3F8901047F6122183F862
:10468C00866083F8926010684DF60C02A3F88820BF
:10469C004DF60D02A3F894202A46394BE360394BB2
:1046AC00A360394BA361394BA363394BE363394B9B
:1046BC006364394BA364394B636214F011FC384AC0
:1046CC004FF6FF7384F870701268A4F85860C4F841
:1046DC000021344A84F85A506567334984F8F850FD
:1046EC00C4F8FC503148C4E91A339369C4E918552D
:1046FC0043F080532E4C93610C602E4B2E4C2F4A62
:10470C0004601A602E492F4C2F4B304A0C601A60F3
:10471C002F49304A3048314C314B1160314A0460DA
:10472C001A60F8BD0246304B0349044814F008FFE8
:10473C000DE700BF0414002048280020F844002096
:10474C00E84C0020FCBB0320FBBB0320FABB03207E
:10475C00F9BB0320FFBB03200029002074150020A7
:10476C00E8280020FDBB0320502900207C290020D4
:10477C0030290020F3BB0320187000202C7301207B
:10478C0099860000A901000049950000E521000070
:10479C00B5530000F15400007952000071900000F4
:1047AC0018B803200080194050B903204CB90320DD
:1047BC00CD86000058B90320D10100007995000086
:1047CC0040B903204922000068B90320E5530000DA
:1047DC00A95200006CB9032044B9032021550000F4
:1047EC0074B90320E19000006C2800200A4B0B4A9E
:1047FC000B49002808BF1A4610B50A4C20700A480D
:10480C0014F09EFE2378094A191E18BF012143EAB1
:10481C00410382F8703010BD00290020741500206F
:10482C00B4180020FDBB0320F84400202C73012099
:10483C000C2836D8DFE800F021271B09070B1117CD
:10484C00192D2F3133001848704718487047184BF2
:10485C0018483F2998BF18467047174B17483F29EF
:10486C0098BF184670471648704716487047164B45
:10487C0016483F2998BF18467047154B15483F29D5
:10488C0098BF18467047144B14483F2998BF1846D8
:10489C0070471348704713487047134870471348C4
:1048AC0070471348704700BFEC140020E02B002029
:1048BC00EC2B002004150020F42B0020FC1400200D
:1048CC00FC2B0020042C0020D82B0020DC14002012
:1048DC00C82B0020D4140020D02B0020CC14002096
:1048EC000C2C0020142C00201C2C0020242C00202C
:1048FC002C2C002010B53E4C2368062B0BD8DFE87F
:10490C0003F01A2A374A60040B0015F0BBF8394A39
:10491C0006231060236010BD15F0B4F8354A40F63C
:10492C00D7631268801A9842F5D90121324B0022C4
:10493C0021601A7010BD304B4FF084424FF08071E3
:10494C001B78C2F888100BB1052323602B4B40F663
:10495C00D8621A6010BD4FF084434FF08072C3F8D8
:10496C00842015F08FF8234A02231060236010BDB9
:10497C0015F088F81F4A214B12681B68801AB0EB9F
:10498C00530FC8D34FF084424FF080710323C2F809
:10499C008810236010BD15F075F8194A174B126872
:1049AC001B68801A8342B6D84FF084434FF0807254
:1049BC00C3F8842015F066F80E4A042310602360B7
:1049CC0010BD15F05FF80B4A0C4B12681B68801A6F
:1049DC00B0EB530F9FD3084B4FF084424FF08071D4
:1049EC001B78C2F88810002B94D00523236010BDCF
:1049FC0020B90320407401200CBC032024B90320EF
:104A0C007CB60120104B1B78DB0700D4704710B527
:104A1C000E4C15F037F80E4B2268801A40081860BF
:104A2C0015F030F80B4B20601B783BB90A4A01207B
:104A3C000A490B4B126808701A6010BD094B012211
:104A4C001A60FFF757FFF1E7F9BB03207CB6012092
:104A5C0024B90320F2BB032018B80320E3BB0320C6
:104A6C0080B6012020B90320104B1B789B0700D483
:104A7C00704710B50E4C15F005F80E4B2268801AD5
:104A8C004008186014F0FEFF0B4B20601B783BB9FC
:104A9C000A4A01200A490B4B126808701A6010BDB3
:104AAC00094B01221A60FFF725FFF1E7F9BB032040
:104ABC007CB6012024B90320F2BB032018B80320D4
:104ACC00E5BB032088B6012020B90320074B084919
:104ADC00084A10B51C78002818BF0A4618700649F9
:104AEC00064814F02DFD204610BD00BFF3BB03207B
:104AFC007C1800208418002090180020F844002016
:104B0C00092809D80138082828D8DFE800F00C0F4C
:104B1C001215181B1E212400FF2802D1114B1888D6
:104B2C007047002070474DF6050070474DF60600A3
:104B3C0070474DF6070070474DF6080070474DF66C
:104B4C00090070474DF60A0070474DF60B00704790
:104B5C004DF60C0070474DF60D0070474DF60400F5
:104B6C00704700BF46540020092809D8013808288E
:104B7C0020D8DFE800F00C0F11131517191B1D00BE
:104B8C000D4B0E4AFF2808BF1346184670470C4BB6
:104B9C00184670470B4BF8E70B4BF6E70B4BF4E75B
:104BAC000B4BF2E70B4BF0E70B4BEEE70B4BECE749
:104BBC000B4BEAE70B4BE8E758110020841100205F
:104BCC00CC140020DC140020EC1400200415002070
:104BDC00FC140020641100206C1100201C2C0020FF
:104BEC0074110020D414002070B50546204E0C46DC
:104BFC0020482A46204914F0A3FC33789A0707D49E
:104C0C00DB0711D41D491B48BDE8704014F098BC5B
:104C1C001B49184814F094FC00222946204616F033
:104C2C00B3FB3378DB07EDD5164E1749114814F05A
:104C3C0087FC736DF021186803681B68984755B1A1
:104C4C00013C2544736D14F8011F186803681B6838
:104C5C009847A542F6D1736DF721186803681B6855
:104C6C00984706490348BDE8704014F069BC00BF82
:104C7C00FFBB0320F8440020B4070020F0070020FD
:104C8C00D40700202C730120E0070020F72813D054
:104C9C00124938B50B78124C5B00124D2268DBB20E
:104CAC000B7023F07F0310491843531C8B42236075
:104CBC00A85403DC002038BD0120704727210B4885
:104CCC0017F04CF921680A4814F012FC084814F04B
:104CDC001BFC0123074A1846137038BDDBBB0320AD
:104CEC00F0B70220D0B701201F000100981400205B
:104CFC00F84400200FBC032010B51C4C034622685E
:104D0C000A2A2AD8DFE802F0060B271A0F0F0F0F1A
:104D1C000F0F200000221648164902600A70F02B73
:104D2C0008D0002010BDFFF7B1FFD0B923680133C4
:104D3C00236010BD02230020236010BD0E49042205
:104D4C0000200B70226010BDFFF7A0FF48B90323B1
:104D5C000020236010BD6928F9D0012300202360B6
:104D6C0010BD01231846236010BD00BF6C750120D7
:104D7C00F0B702200FBC0320DBBB03202DE9F0476A
:104D8C004FF0000A82B05346CD1802EB0A0403F12F
:104D9C0007084FF0000CAAEB030715F801EB4FEADC
:104DAC004C0C01331EF0800F5FFA8CFC0EF07F066A
:104DBC0007EB030918BF4CF0010C834204F8016F98
:104DCC0006DA4345E9D102F80AC00AF1080ADBE722
:104DDC0002F80AC002460549CDF80090044814F0C8
:104DEC00AFFB09F1010002B0BDE8F08748140020C8
:104DFC00F844002010B5FA20174C14F0EFFD0122F6
:104E0C003C2116480BF0A2FF154A164B1268207075
:104E1C001A6000B910BD2421134817F09FF81348ED
:104E2C0014F072FB0121112014F092FE01211020CC
:104E3C0014F08EFE0021112014F04EFE00211020E3
:104E4C0014F04AFE0A481DF03FFE0A49084809F0D2
:104E5C006BFE207810BD00BFE7BB0320C06F0020A5
:104E6C0018B8032064740120D0180020F8440020E6
:104E7C002C65002040420F0070B506690446756829
:104E8C00013D756075BB33681F4ADB6A93422CD1B8
:104E9C00B06D10B117F00CFAB565336D63B306F154
:104EAC00180011F0D9F92569E5B12B68174A5B6830
:104EBC00934225D1164BA86D2B6018B117F0F8F959
:104ECC000023AB652B6D05F118068BB1304611F044
:104EDC00C3F9104B3046AB6011F0BEF95C2128468B
:104EEC0015F09CF90023236170BD30469847DAE732
:104EFC006B6D002BEAD1ECE7736D002BCFD1D2E7B1
:104F0C0028469847EEE700BF45010000C90900009C
:104F1C0074390020C8360020012BF0B5054695B039
:104F2C003DD0022B40F2022001F104010CBF0346DC
:104F3C000023684611F0AAFA129B002B38D05C2093
:104F4C00002615F069F9214B04AF0446C0E9003680
:104F5C00019B3946183040F80C3C1D4B40F8103C76
:104F6C00029B40F8083C9DF80C3000F8043C11F012
:104F7C0031F9184B4FF47A72A665A360164B6E602C
:104F8C002B6063682E730133AA602C616360134B32
:104F9C003846009311F060F9284615B0F0BD44F284
:104FAC0002230431684611F071FA129B002BC6D112
:104FBC00139B002BC3D14FF47A71074A04AF2B73A8
:104FCC002A602B61C5E90131E1E700BF743900208B
:104FDC00D03900205039002024390020C836002058
:104FEC00F0B502469DB0A049A048019214F0A8FA71
:104FFC009F4C019A9F49A04817F04EFE00239E4AF1
:10500C0008A89E49FFF788FF236913B12046FFF7D4
:10501C0033FF0C992161002900F0E2800B68984A5B
:10502C00DB6B93424FF0000240F008814FF47A742E
:10503C00944E18310CA88DF82C200896CDE9092433
:10504C00CDE91A2211F074F91A9B002B00F0D280D2
:10505C005C20002515F0E0F88B4B04460CA9C0E948
:10506C000035099B183040F80C3C884B40F8103C3C
:10507C000A9B40F8083C9DF82C3000F8043C11F0D9
:10508C00A9F863684FF47A72A5650133049505920B
:10509C008DF818500794C4E901367D4B03937D4B72
:1050AC000CA8089311F0D8F87B4C236913B1204657
:1050BC00FFF7E2FE079B7048236118F0F1FB0146F5
:1050CC006D4816F04BFF694814F01EFA2069F8B1D0
:1050DC000368724A1B6B934217D1036D002B00F0CF
:1050EC0095800B216E4816F039FF604814F00CFACD
:1050FC00206900B303686B4A9B6A93421AD1036D13
:10510C00002B00F09180DB6916E098470028E8D16D
:10511C000F21654816F022FF5448002414F0F4F9CE
:10512C000521624816F01AFF504814F0EDF920469C
:10513C001DB0F0BD984703465D4F06215D483B60AE
:10514C0016F00CFF2569002D73D02B685A4A5B6B47
:10515C00934240F08380AE6D002E00F0B980304653
:10516C0018F09EFB0146304616F0F8FE3F4814F04E
:10517C00CBF90621514816F0F1FE00230A223968BA
:10518C003A4814F0EBF9394814F0BEF92569002DB2
:10519C0052D02B684A4A9E68964259D1286D0028F5
:1051AC0039D04FF4005247490EF048FE2569002DC6
:1051BC0042D02B68DB6A444A934246D1A86D18B1A1
:1051CC0017F076F80023AB652B6D002B39D005F169
:1051DC00180011F041F830483A4CFFF74DFE9FE7AC
:1051EC004FF47A722A4B04918DF8181005920393A0
:1051FC00079159E71B9B002B7FF42AAF244A8DF8AB
:10520C00183003920793CDE9043448E7436D002B23
:10521C007FF467AF7CE7686D0028CBD04FF4005269
:10522C0028490CF0F3F9C1E7436D002B84D01B69BE
:10523C0082E72946254E96E7224C71E703A898474A
:10524C0032E76B6D002BC2D1C5E728469847C2E701
:10525C004FF400521B492846B047A7E72846984709
:10526C000646002E82D07AE7CC090020F8440020B4
:10527C00EC4C0020F809002000720120C85D0020D1
:10528C006D0500005039002074390020D039002001
:10529C0024390020C8360020D04A00202D010000FF
:1052AC00080A002051050000240A0020340A0020BE
:1052BC00E4710120140A0020F90100001C0A0020EE
:1052CC00BD06000070950120450100005C410020E6
:1052DC004FF4807016F0E4FF0146A865B0B106707B
:1052EC00286D40B14FF4807210F062FBAE6D002E51
:1052FC003FF43CAF33E7686D18B14FF480720DF09A
:10530C0057FFAE6D002E3FF431AF28E7014B1E4620
:10531C00AB6524E7DABB03202DE9F04F05469DB0C1
:10532C000E468B488B492A46019614F009F92A46F9
:10533C0089498A4817F0B0FC0023884A08A8884994
:10534C0011F0A4F81A9B002B00F096805C2000262C
:10535C0014F062FF099B00F1180BDFF83882C36070
:10536C0004460A9B0CA97F4F03619DF82C304660C4
:10537C000375C0F800808760584610F02BFF6368F7
:10538C00DFF814920CA80133A665DFF8F4A1764E71
:10539C006360C4F80890CDF820A010F05DFF32696E
:1053AC0012B13046FFF768FD2368704ADB6B34613D
:1053BC00934240F0B38000224FF47A7459460CA803
:1053CC00CDF8209009928DF82C200A94CDE91A2260
:1053DC0010F0AEFF1A9B002B00F090805C2014F0B4
:1053EC001BFF099B87600027C36004460A9B0CA91E
:1053FC00C0F80080183040F8083C9DF82C3040F87C
:10540C00147C00F8043C10F0E5FE6368C4F80890C6
:10541C000133A765049763604FF47A738DF81870A5
:10542C000593534B079403930CA8CDF820A010F0D0
:10543C0013FF504C236913B14E48FFF71DFD07981D
:10544C002061A8B103684C4A1B6B93420DD1036DCC
:10545C00002B5FD049493E4814F072F8019B002B99
:10546C002BD101201DB0BDE8F08F98470028F1D159
:10547C0000201DB0BDE8F08F1B9C002C7FF466AFA4
:10548C003F4B0CA8384F089310F0E6FE3B691BB15C
:10549C003846FFF7F1FC3C6100234FF47A72354C2F
:1054AC008DF8183020690793CDE90432304A039205
:1054BC000028C1D11DB0BDE8F08F3249244814F04A
:1054CC003FF82069FDF738FE2A4603462E4923484B
:1054DC0017F0E2FB214A2D491D4814F031F82C4BF2
:1054EC00D3F88424FAB10020114601231B4A0890FA
:1054FC0008A80EF04FFC30BB0198B3E71B9B002BA8
:10550C007FF46CAF8DF818300793CDE90434184B49
:10551C00039389E7436D002B9CD1A9E72146002218
:10552C0003A8984785E7D3F88814002999D01492DA
:10553C0001230A4A08A80CF00DFC0028DCD008A8AE
:10554C000CF0AAFDD8E708A80FF02AFDD4E700BF9D
:10555C00F84400200C1B0020F809002000720120E8
:10556C00CC5D0020D0390020EC4C00206D050000F3
:10557C0024390020D04A00202D010000381B0020C7
:10558C00C8360020541B00206C1B0020801B002000
:10559C00C85D00207439002050390020104BD3F81E
:1055AC00840410B558B1002308220E4900F5896017
:1055BC000FF09EFD0B48BDE8104013F0A5BFD3F8CB
:1055CC008844002CF6D00346082204F5896005496E
:1055DC000CF082FC0348BDE8104013F095BF00BFEF
:1055EC00C85D0020F84400202DE9F04F05460E461A
:1055FC009FB0B14933462A46B048B14F13F0A0FFD3
:10560C0000232A46AF490AA8FFF786FC3B6913B171
:10561C003846FFF731FC0E993961002900F0DD8125
:10562C000B68A94ADB6B934240F039820DF1380BC1
:10563C0000224FF47A74DFF8D882183158460B9256
:10564C008DF834200C94CDF82880CDE91C2210F074
:10565C006FFE1C9B002B00F0E2815C204FF00009D8
:10566C0014F0DAFD0B9B0446C0F80490C360594655
:10567C000C9B183040F8083C9DF8343000F8043C82
:10568C00924B40F8183C924B40F8103C10F0A2FDA5
:10569C006368C4F808800133C4F85890CDF81890AA
:1056AC0063604FF47A738DF820900793894B0994BB
:1056BC000593894B58460A9310F0CEFD874C23690D
:1056CC0013B18648FFF7D8FB09982061002800F039
:1056DC0092810368DFF83C921A6B4A4540F0E381F3
:1056EC00026D002A00F08F819B6A7D498B4240F04D
:1056FC00A281D0692569DFF820A2CAF80000002D2C
:10570C0000F08A822B68774A5B6B934240F01982D7
:10571C00AA6D002A00F02F823F21734817F078FA07
:10572C00714A7249654813F00BFFDAF80020704992
:10573C00624813F005FFDAF80020B2F5004F00F2D2
:10574C009581256935B32B686A49D3F8088088455B
:10575C0040F00582286D002800F0B28166490EF0F9
:10576C006DFB2569B5B12B68DB6A644A934240F046
:10577C00DD81A86D18B116F09BFD0023AB652B6D78
:10578C00002B00F0BB8105F1180010F065FD5348AB
:10579C00FFF772FB10215A4816F0E0FB474813F054
:1057AC00B3FE0023324647490AA8FFF7B5FB3B6915
:1057BC0013B14348FFF760FB0E993961002900F0E3
:1057CC0060810B68404ADB6B934240F0BE810DF167
:1057DC00380B00224FF47A75DFF8348118315846B3
:1057EC000B928DF834200C95CDF82880CDE91C2235
:1057FC0010F09EFD1C9B002B00F06A815C200027A2
:10580C0014F00AFD0B9B05464760C36059460C9B80
:10581C00183040F8083C9DF8343000F8043C2B4B11
:10582C0040F8183C2A4B40F8103C10F0D3FC6B6845
:10583C00C5F808800133AF6506976B604FF47A7337
:10584C008DF820700793234B09950593224B5846EE
:10585C000A9310F001FD236913B12048FFF70CFBEC
:10586C0009982061002860D003681B6B4B4540F001
:10587C007081036D002B00F03781FDF75DFC214931
:10588C0002460E4813F05CFE2069FDF755FC3346CA
:10589C00FF2100901C4A1D4817F0BAF9094BD3F8A8
:1058AC008414002900F02F810023184A0AA80A93B7
:1058BC0001230EF06FFA31E0D40C0020F8440020E4
:1058CC00EC4C0020C85D00206D05000074390020F0
:1058DC00D039002024390020C8360020D04A0020BE
:1058EC0051050000F901000090B60120E80C0020E1
:1058FC00F40C0020BD060000E4F10020450100007E
:10590C00280D00203C0D0020580D0020D0B60120A1
:10591C00503900202D010000E4710120002840F0D6
:10592C006F81A149A148FDF7CBFCA14A3346FF2169
:10593C00A0480092A04A17F06BF90B219F4816F073
:10594C000DFB9C4817F0ACFF01469A4816F006FB7D
:10595C00964813F0D9FD01230AA8964A9849FFF7F7
:10596C00DBFA236913B19748FFF786FA0E9820618A
:10597C00002866D003681A6B4A455FD1026D002A75
:10598C0000F0B780DAF80020DB688F498B4240F0DA
:10599C003181036D002B00F0E6808C4918460EF027
:1059AC0071FE2469B4B12368894ADB6A934240F0E2
:1059BC002481A06D18B116F07BFC0023A365236D28
:1059CC00002B00F0EC8004F1180010F045FC7D4831
:1059DC00FFF752FA1FB0BDE8F08F4FF47A73794C91
:1059EC00069107937B4B8DF8201005932369099141
:1059FC00002B7FF466AE2A4677496C481FB0BDE891
:105A0C00F04F13F09DBD426D002AF4D09B6A734A8F
:105A1C00934210D1406D78B1006925696BE61D9BEE
:105A2C00002B7FF41AAE8DF820300993CDE90634A3
:105A3C00684B05933DE6984725695CE6904700283E
:105A4C0077D11F21664816F089FA5A4817F028FFBB
:105A5C000146584816F082FA0D21624816F07EFA7B
:105A6C0052481FB0BDE8F04F13F04EBD4FF400424A
:105A7C005D494E4813F064FD4FF40042CAF8002013
:105A8C005FE64FF47A7306918DF820100793514B13
:105A9C00099105932369002B7FF4DFAE45E70022C3
:105AAC0005A898470AE690470028A4D0206900284A
:105ABC0040F0B780DFF838A14C4ACAF800002BE65A
:105ACC00686D00283FF450AE40490BF09FFD48E64E
:105ADC001D9B002B7FF492AE8DF820300993CDE9FD
:105AEC0006353C4B0593B1E6436D002B7FF4C5AEF8
:105AFC001BE7426D002A7FF445AFA2E76B6D002BCC
:105B0C007FF441AE43E6D3F88834002B3FF409AF61
:105B1C0016910AA81946274A01230CF01BF90028F4
:105B2C003FF4FFAE0AA80CF0B7FAFAE628469847FD
:105B3C002DE62069DAF8002000283FF44BAF03680B
:105B4C0022E7284698470246E6E5002205A8984732
:105B5C0081E6984700283FF4E8AE20698DE6284698
:105B6C001A49C047FDE5406D18B118490CF05EFEAE
:105B7C0017E7246917E74FF48070039216F090FB37
:105B8C000146A865002849D0039A0270286D0028A8
:105B9C003AD04FF480720FF00BFFAA6DBCE5636D29
:105BAC00002B7FF410AF12E7600D0020F8440020AA
:105BBC0090B60120D0B601207C0D0020840D002071
:105BCC00C85D0020D04A00208D070000E4F10020C1
:105BDC004501000024390020C00D002051050000B3
:105BEC00900D0020B00D0020000D00205C41002025
:105BFC00E471012010499847D3E620469847E6E621
:105C0C000AA80FF0CDF98CE6686D18B14FF48072CC
:105C1C000DF0CEFAAA6D7FE5084A7DE5084AAA6523
:105C2C007AE50368074A9B6A93427FF404AF026DDE
:105C3C00002A7FF45EADEDE6E4F100205C4100202B
:105C4C00DABB03205105000030B59BB004460D466D
:105C5C000346094A302102A816F0DAFF2B46074A00
:105C6C0030210EA8009416F0D3FF0EA902A8FFF75E
:105C7C00BBFC1BB030BD00BF0C1600201C16002056
:105C8C002DE9F0470D469AB006460821AB48174659
:105C9C00984616F063F935B1284617F001FE014617
:105CAC00284616F05BF9A648A64C13F02DFC0023F1
:105CBC003246A54906A8FFF72FF9236913B12046F0
:105CCC00FFF7DAF80A992161002900F000810B68CE
:105CDC009E4ADB6B934240F0628100224FF47A744F
:105CEC00DFF8A8A218310AA807928DF8242008948E
:105CFC00CDF818A0CDE9182210F01AFB189B002B38
:105D0C0000F0F4805C204FF0000914F085FA079B3A
:105D1C000446C0F80490C3600AA9089B183040F8E8
:105D2C00083C9DF8243000F8043C894B40F8183CA2
:105D3C00884B40F8103C10F04DFA6368C4F808A08A
:105D4C000133C4F85890CDF8089063604FF47A731F
:105D5C008DF810900393804B059401937F4B0AA808
:105D6C00069310F079FA7E4C236913B17C48FFF747
:105D7C0083F80598206100283BD00368794A1B6B97
:105D8C00934240F01681036D002B00F0BB80142170
:105D9C00754816F0E3F82069FDF7CEF9814628B175
:105DAC0017F07EFD0146484616F0D8F8644813F00B
:105DBC00ABFB2069FDF7C0F96C49034632466C48D1
:105DCC0016F06AFF604BD3F88414002900F0A3800E
:105DDC000023674A06A8069301230DF0DBFF002879
:105DEC0040F0FA801B21634816F0B8F8544813F0C1
:105DFC008BFB2B4632465D495D4816F04DFF112159
:105E0C005D4816F0ABF85A4817F04AFD0146584861
:105E1C0016F0A4F84A4813F077FB012306A8544A5D
:105E2C004949FFF779F8236913B14D48FFF724F876
:105E3C000A982061002835D003684A491A6B8A42B7
:105E4C002CD1026D002A62D0DB684C4A934240F0A0
:105E5C00BD80036D002B00F09B80424639461846EE
:105E6C000EF010FC2469B4B12368454ADB6A9342F6
:105E7C0040F0A980A06D18B116F01AFA0023A365A2
:105E8C00236D002B00F09A8004F1180010F0E4F957
:105E9C003348FEF7F1FF1AB0BDE8F08790470028B1
:105EAC0040F081801F21374816F058F8304817F021
:105EBC00F7FC01462E4816F051F80D21324816F029
:105ECC004DF81F481AB0BDE8F04713F01DBB4FF456
:105EDC007A73234C029103931F4B8DF8101001938E
:105EEC0023690591002B7FF441AF82E7199B002BAE
:105EFC007FF408AF8DF810300593CDE90234164BC2
:105F0C0001932BE7436D002B7FF441AF71E7426D9A
:105F1C00002A99D1C6E7D3F88834002B3FF462AF3E
:105F2C00129106A81946124A01230BF013FF002800
:105F3C003FF458AF06A80CF0AFF853E75409002013
:105F4C00F8440020EC4C0020C85D00206D050000DA
:105F5C0074390020D039002024390020C8360020A4
:105F6C00D04A00202D01000060090020580D0020AF
:105F7C00D0B60120600D0020780900208D070000AC
:105F8C0045010000900D0020B00D0020503900207C
:105F9C00406DF8B1424639460CF048FC62E70022ED
:105FAC0001A89847DFE6206900283FF474AF036826
:105FBC004AE7984700283FF41CAFE8E6636D002BD6
:105FCC007FF462AF64E72046984761E74246394662
:105FDC00984747E7246947E706A80EF0E1FF01E779
:105FEC00294B034410B50446092B47D8DFE803F0CE
:105FFC00191E23282D32373C41050621234815F064
:10600C00ADFF0121224815F0A9FF214600231022E3
:10601C00204813F0A3FA02211F48BDE8104015F0E8
:10602C009DBF05211D4815F099FFEAE706211C4884
:10603C0015F094FFE5E706211A4815F08FFFE0E70D
:10604C000621194815F08AFFDBE70721174815F0E0
:10605C0085FFD6E70521164815F080FFD1E705210D
:10606C00144815F07BFFCCE70721134815F076FF99
:10607C00C7E70821114815F071FFC2E70821104845
:10608C0015F06CFFBDE700BFFC27FFFFC01500201B
:10609C00E0150020F8440020E415002080150020B5
:1060AC00881500209015002098150020A0150020C0
:1060BC00A8150020B0150020B8150020C815002028
:1060CC00D4150020FF2994460AD04B4B0344092BCE
:1060DC0012D8DFE803F0171C21262B30353A3F127B
:1060EC00454B034410B4092B47D8DFE803F0823842
:1060FC00494B4D586470728070470A4660463F4960
:10610C0016F0CABD0A4660463D4916F0C5BD0A46A2
:10611C0060463C4916F0C0BD0A4660463A4916F046
:10612C00BBBD0A466046394916F0B6BD0A46604604
:10613C00374916F0B1BD0A466046364916F0ACBD7B
:10614C000A466046344916F0A7BD0A4660463349F4
:10615C0016F0A2BD0A466046314916F09DBD314B82
:10616C0007CBCCF8000018889B78ACF80C00CCF866
:10617C000410CCF808208CF80E305DF8044B7047F6
:10618C00294BEDE7294BEBE7294C0FCCCCF8000061
:10619C00CCF80410CCF80820CCF80C30EDE7254BEB
:1061AC0007CB1B88CCF80000CCF80410CCF80820E6
:1061BC00ACF80C30E1E7204B07CB1B78CCF8000097
:1061CC00CCF80410CCF808208CF80C30D5E71B4B1D
:1061DC00C6E71B4C0FCCCCF800002078CCF8041090
:1061EC00CCF80820CCF80C308CF81000C5E7154B17
:1061FC00B6E7154BD4E700BFFC27FFFFA01A002021
:10620C00441A00202C1A0020581A0020881A00204A
:10621C00CC1A0020B81A0020181A0020001A0020EE
:10622C00701A00207C1900209C190020C019002035
:10623C00F0190020E01900206C1900205C190020D6
:10624C00AC190020D01900208C19002070B5144610
:10625C0096B00B46024668496848009416F01CFD3F
:10626C000023664A02A8664910F010F9149B002B13
:10627C006FD05C20002513F0CFFF0399049A0446DD
:10628C00604B45600360604BC0E903129DF814201D
:10629C0006A98360183000F8042C0FF09BFF63688C
:1062AC005A4A06A80133A565A260594D594A636044
:1062BC0002920FF0D1FF2B6913B12846FEF7DCFDDB
:1062CC002368554A1B6B2C61934267D1236D002BBD
:1062DC004FD028690368514A9B6A934240F08280F0
:1062EC00036D002B50D0D8692C691828024628BFA2
:1062FC0018224B4B4B4918600023C1E90033C1E90C
:10630C000233C1E904330B7604B3236846489E6814
:10631C00864261D1206D002854D00DF08FFD2C6980
:10632C00A4B12368DB6A414A934258D1A06D18B1DD
:10633C0015F0BEFF0023A365236D002B48D004F19C
:10634C0018000FF089FF3248FEF796FD354816B05D
:10635C0070BD159C002C8CD12E4B06A82C4D029395
:10636C000FF07AFF2B693BB12846FEF785FD2C61B7
:10637C0002E0636D002BACD12D4B2A4C0FCB07C424
:10638C002848237016B070BD426D002A31D01069B8
:10639C002C691828024628BF1822AAE720469847DD
:1063AC000028E9D02869002894D11E491C4B0860AC
:1063BC00186048610876C1E90100C1E90300194879
:1063CC0016B070BD606D0028ACD00BF01FF9A6E7BD
:1063DC00636D002BB3D1B6E72046B0479FE720464C
:1063EC009847B0E79847182802462C6928BF18220E
:1063FC007FE72C6910467CE7E00D002090B6012069
:10640C00CC5D002074390020D03900205039002098
:10641C00D04A0020C83600202D0100005105000094
:10642C00E4710120E4F10020BD06000045010000EC
:10643C00EC0D002070B50D4604461921514815F09D
:10644C008DFD00230A2229464F4813F087F84E4849
:10645C0013F05AF8E60712D4A0071DD4610727D40D
:10646C00220731D4E3063BD4A60645D460064FD4AC
:10647C00210659D4E20563D4A3056DD470BDFF2D5C
:10648C0076D02A464149424816F006FC4148294636
:10649C00FFF7DAFBA007E1D54DF60A003C4A294686
:1064AC00FFF710FE29463C48FFF7CEFB6107D7D516
:1064BC00374A4DF605002946FFF704FE29463748B2
:1064CC00FFF7C2FB2207CDD54DF60400304A294612
:1064DC00FFF7F8FD29463248FFF7B6FBE306C3D5B4
:1064EC004DF606002A4A2946FFF7ECFD29462D48B1
:1064FC00FFF7AAFBA606B9D54DF60C00244A29468F
:10650C00FFF7E0FD28482946FFF79EFB6006AFD554
:10651C004DF607001E4A2946FFF7D4FD29462348AD
:10652C00FFF792FB2106A5D5194A4DF60D00294619
:10653C00FFF7C8FD29461E48FFF786FBE2059BD5F1
:10654C004DF60900124A2946FFF7BCFD29461948A9
:10655C00FFF77AFBA30591D529464DF608000C4AA6
:10656C00FFF7B0FD29461448BDE87040FFF76CBB3F
:10657C00124B074E0FCB07C61A0C26F8023B327093
:10658C0084E700BFE8150020F8440020001A002022
:10659C0000720120C0140020C8140020CC1400206C
:1065AC00D4140020DC1400201C2C0020EC1400203F
:1065BC0004160020FC140020041500205C19002097
:1065CC002DE9F04304469DB00D46164600214FF4CC
:1065DC000042A94816F08AFD0821A84815F0BEFC17
:1065EC0034B1204617F05CF90146204615F0B6FC94
:1065FC00A34812F089FF2246A24C0023A24908A806
:10660C00FEF78AFC236913B12046FEF735FC0C9982
:10661C002161002900F0D6800A68D46B9B4A944211
:10662C004FF0000240F01B814FF47A74DFF8A8821F
:10663C0018310CA809928DF82C200A94CDF82080E2
:10664C00CDE91A220FF074FE1A9B002B00F0F38098
:10665C005C20002713F0E0FD099B04464760C360F3
:10666C000CA90A9B183040F8083C9DF82C3000F817
:10667C00043C874B40F8183C864B40F8103C0FF01C
:10668C00A9FD6368C4F808800133A76504976360AB
:10669C004FF47A738DF8187005937F4B079403931E
:1066AC007E4B0CA808930FF0D7FD7D4C236913B1DA
:1066BC007B48FEF7E1FB07982061002800F09080F2
:1066CC00036878491A6B8A4240F0CC80026D002A2C
:1066DC0000F0A6809B6A74498B4240F0B880D06968
:1066EC00DFF8EC810621C8F80000704815F036FC84
:1066FC002769002F00F0AF803B686D4A5B6B9342BB
:10670C0040F0F980D7F85890B9F1000F00F00681ED
:10671C00484617F0C5F80146484615F01FFC584886
:10672C0012F0F2FE0621634815F018FC0A22002331
:10673C00D8F80010524812F011FF514812F0E4FE44
:10674C002769D8F80020002F00F083803B685A4955
:10675C00D3F80890894540F0DD80386D002800F0B2
:10676C00BD8045490DF06AFB2769002F71D03B684D
:10677C005B6B4F4A934240F0C680BB6D002B00F020
:10678C00E4804E4A182108A816F042FA2469B4B1E4
:10679C0023684B4ADB6A934240F0B980A06D18B174
:1067AC0015F086FD0023A365236D002B00F09E8061
:1067BC0004F118000FF050FD3948FEF75DFBD8F8D6
:1067CC00004023E0344B4FF47A72354C0393236929
:1067DC0004918DF8181007910592002B7FF468AF87
:1067EC003421384815F0BAFB254812F08DFE0024F0
:1067FC00354B03F8014F0134B4F5006FF9D1182271
:10680C00324908A816F00AFD314B1C60182208A961
:10681C002846346016F002FD17481DB0BDE8F08321
:10682C00426D002ADCD09B6A1F4A93420FD1436D04
:10683C00FBB1186954E71B9B002B7FF409AF8DF853
:10684C0018300793CDE90434134B039328E798478A
:10685C0046E7204B95E73946DFF878905CE703A8CC
:10686C00A04722E790470028BAD02069002840F0C2
:10687C009680002034E700BFE4F1002018100020BF
:10688C00F8440020EC4C0020C85D00206D05000091
:10689C0074390020D039002024390020C83600205B
:1068AC00D04A00202D01000051050000140A0020E0
:1068BC00F90100001C0A0020BD060000141C002079
:1068CC004501000024100020E3F100205C100020A2
:1068DC00E47101205C41002050390020786D0028C3
:1068EC003FF446AF35490AF091FE3DE7636D002B4E
:1068FC007FF45EAF60E7384698478146B9F1000FE8
:10690C003FF40DAF04E738469847034639E7204675
:10691C00984751E738462949C84725E74FF4807016
:10692C0015F0BEFC0146B865002843D080F80090F5
:10693C00386DE0B14FF480720FF03AF8D7F85890F8
:10694C00B9F1000F3FF4EBAEE2E64FF48070019327
:10695C0015F0A6FC0146B865F0B1019B0370386DCB
:10696C0090B14FF480720FF023F8BB6D09E7786D8E
:10697C0018B14FF480720CF01BFCD7F85890B9F199
:10698C00000F3FF4CCAEC3E6786D18B14FF48072B3
:10699C000CF00EFCBB6DF4E6094BBB65F1E603682D
:1069AC00084A9B6A93427FF452AF026D002A3FF46F
:1069BC003EAF94E6024B9946BB65A9E6E4F1002094
:1069CC00DABB03205105000010B538B34FF08443F7
:1069DC004FF4801201211A20C3F8882013F0B8F864
:1069EC000121192013F0B4F801211B2013F0B0F889
:1069FC0001211C2013F0ACF801210A2013F0A8F897
:106A0C0001210B2013F0A4F801210C2013F0A0F8A5
:106A1C0001211820BDE8104013F09AB804461A2042
:106A2C00214613F095F82146192013F091F82146D0
:106A3C001B2013F08DF821461C2013F089F82146F9
:106A4C000A2013F085F821460B2013F081F821461B
:106A5C000C2013F07DF82146182013F079F84FF034
:106A6C0084434FF48012C3F8842010BD2DE9F84301
:106A7C000446002800F0D1807B4B1B78FBB97B4B84
:106A8C004FF4807206207A4FC3F88820794E7A4DE5
:106A9C0013F04CF898B179684FF4FA733268120C11
:106AAC0003FB02F25208A5FB0232120A7B685B1A46
:106ABC009A42FBD8062013F039F80028EBD10121BB
:106ACC00262013F045F84FF084464FF080530121F7
:106ADC0025204FF40025C6F8843013F039F8674BA5
:106AEC0001210F20C3F8845013F032F8C6F88850F7
:106AFC004FF400130125C6F888302946212013F0E5
:106B0C0027F8294622204FF0844613F021F8294615
:106B1C0023204FF4802713F01BF829462420DFF89C
:106B2C00648113F015F8294620204FF4805913F096
:106B3C000FF829461F2013F00BF82946272013F0D5
:106B4C0007F82946092013F003F82946082012F00B
:106B5C00FFFF2946072012F0FBFF29460E2012F0FA
:106B6C00F7FF2946042012F0F3FF2946142012F0F7
:106B7C00EFFF29460220414D12F0EAFF3B4B10215A
:106B8C004FF000520020C3F884104FF08061C6F81B
:106B9C0084104021C3F884104FF40031C6F884707F
:106BAC00C5F884104FF48031C5F884104FF400619F
:106BBC00C5F884104FF48001C6F88420C8F88410FE
:106BCC004FF08051C5F88490C5F88470C5F88410D6
:106BDC00C5F884208022C3F88420FFF7F5FE022339
:106BEC00C6F884900121C5F8843004234FF000428C
:106BFC00C5F884304FF40053C5F88410C8F884707D
:106C0C00C6F88420C6F884304FF08043C6F8843030
:106C1C0014B31B4B1C70BDE8F8830146262012F000
:106C2C0097FF4FF084464FF08053214625204FF4B8
:106C3C000025C6F8843012F08BFF104B21460F2034
