:0200000460009A
:100000004643464200000156000000000103030081
:1000100000000000000000000000000000000000E0
:1000200000000000000000000000000000000000D0
:1000300000000000000000000000000000000000C0
:1000400000000000010408000000000000000000A3
:100050000000800000000000000000000000000020
:100060000000000000000000000000000000000090
:100070000000000000000000000000000000000080
:10008000EB04180A063204260000000000000000FD
:10009000050404240000000000000000000000002F
:1000A0000000000000000000000000000000000050
:1000B0000604000000000000000000000000000036
:1000C0000000000000000000000000000000000030
:1000D00020041808000000000000000000000000DC
:1000E0000000000000000000000000000000000010
:1000F0000000000000000000000000000000000000
:10010000D8041808000000000000000000000000F3
:100110000204180804200000000000000000000095
:1001200000000000000000000000000000000000CF
:10013000600400000000000000000000000000005B
:1001400000000000000000000000000000000000AF
:10015000000000000000000000000000000000009F
:10016000000000000000000000000000000000008F
:10017000000000000000000000000000000000007F
:10018000000000000000000000000000000000006F
:10019000000000000000000000000000000000005F
:1001A000000000000000000000000000000000004F
:1001B000000000000000000000000000000000003F
:1001C000000100000010000001000000000000001D
:1001D000000001000000000000000000000000001E
:1001E000000000000000000000000000000000000F
:1001F00000000000000000000000000000000000FF
:10020000FFFFFFFFFFFFFFFFFFFFFFFFFFFFFFFFFE
:10021000FFFFFFFFFFFFFFFFFFFFFFFFFFFFFFFFEE
:10100000D100204325160060000000000000000011
:101010002010006000100060007C026000000000F2
:10102000000000600088020000000000FFFFFFFFDA
:10103000FFFFFFFFFFFFFFFFFFFFFFFFFFFFFFFFC0
:10104000FFFFFFFFFFFFFFFFFFFFFFFFFFFFFFFFB0
:10105000FFFFFFFFFFFFFFFFFFFFFFFFFFFFFFFFA0
:10106000FFFFFFFFFFFFFFFFFFFFFFFFFFFFFFFF90
:10140000884207D0904205D251F8043B40F8043B93
:101410008242F9D8704700BF884204D2002340F8C6
:10142000043B8142FBD870472DE9884800F0D0F991
:101430000824614B614AC3F8544161496148FFF790
:10144000DFFF614A61496248FFF7DAFF614962489C
:10145000FFF7E2FF614C4FF0E0214FF470000023F2
:101460005F4AC1F8880D44F823200133B02BFAD12C
:101470005C4B80215C4A03F8011B9342FBD14FF087
:10148000E0254D4E4FF08039DFF88CB1DFF88CA1AC
:101490004FF0FF31C5F8084D0027C6F80491C6F893
:1014A00000B1C6F8F490C6F8F0A0D5F8243DDFF8F6
:1014B000708143F4E0234D4AC5F8243DD8F81C3030
:1014C00023F07F0343F04003C8F81C30D8F82430E1
:1014D00023F07F0343F04003C8F824309166D166BF
:1014E0001167516700F07CF9414B4249A363424BBD
:1014F000E36363236B610323AF612B613F4BC5F84B
:10150000203DD5F8FC3D43F08073C5F8FC3D3C4BD5
:101510001A6842F001021A605B680B6000F09EFBE3
:10152000C6F804913748C6F800B1C6F8F490C6F87A
:10153000F0A000F029FDD8F86C10334B334A41F489
:101540004051C8F86C101F60C3F80871C3F81871D7
:10155000C3F82871C3F83871936BDB0708D442F6DF
:1015600015632B4951651365936B43F00103936336
:10157000264A284C936843F00113936000F0ACF9BD
:1015800000F0D0FC00F020FD00F096FB00F00CFD18
:101590002368132BFCD900F027FC2368B3F5967F52
:1015A000FBD300F01BF900F017F900F001FD00F08B
:1015B000F7FC30BFFDE700BF00800D4048FA010096
:1015C0002C28006000000000C05600207822026035
:1015D0000000002040B80320C05600200054002026
:1015E0006D73010000E400E0A0E400E000C00A40E8
:1015F000615C01000CB40320655C01000000202048
:10160000001000E00046C3230040084000400D40A9
:101610000000C05610B403201B1018200C0D11132D
:1016200000C00F40074B4FF42A01074A07485A648D
:101630001864074A99639546BFF34F8FBFF36F8FC6
:10164000FFF7F2FE00C00A40FFAAAAAA0700200086
:101650000000062043690A4A03EB011010B4037A24
:10166000084C02EB0313D3E901321460C2681A601C
:1016700003690BB142691A605DF8044B704700BF03
:10168000D43A002061F801004369027E03EB0212A4
:1016900092F808C08C451CD01A7AFF2A19D09142C2
:1016A00010B5044616D01A7EFF2A06D00121D3E9D0
:1016B000002312681A4201D1217610BD064B052283
:1016C000204603EB0C135B681A60FFF7C3FF21761B
:1016D000F3E770470021EAE7D43A002043690A4A59
:1016E00003EB011010B490F82830084C02EB031300
:1016F000D3E901321460C26A1A60036B0BB1426B0A
:101700001A605DF8044B7047D43A002061F801007C
:101710004369427E03EB021292F828C08C451ED02A
:1017200093F82820FF2A1AD0914210B5044617D00A
:1017300093F83820FF2A06D00121D3E9002312684C
:101740001A4201D1617610BD064B0522204603EBFB
:101750000C135B681A60FFF7C1FF6176F3E770470F
:101760000021EAE7D43A0020164942698B6B23F442
:101770007C0343F4802370B58B630446124DD2E999
:1017800000130A681A4303690A60022200211A61E1
:101790000E4A19619A6401225A629D624FF43035F3
:1017A000DD624FF001159E6C1E6519629D651A6120
:1017B000017EFFF74FFF617E2046BDE87040FFF7D6
:1017C0008DBF00BF00C00F40B80B05053B3728197F
:1017D000704700BF704700BF704700BF00BF704731
:1017E00010B44FF0E023002110242B48C3F8941DBF
:1017F000C3F89C4D1124C3F8A00D2848C3F89C4D94
:101800001224C3F8A00D2648C3F89C4D254AC3F8FE
:10181000A00D254C42F015022448C3F89C4DC3F896
:10182000A00D234C2348C3F89C4DC3F8A00D224CB7
:10183000C3F89C2D2148224AC3F8A04DC3F89C0D43
:10184000C3F8A02D02F5A0221E4C0C321E48C3F88E
:101850009C4DC3F8A02D1D4AC3F89C0D1C4CC3F829
:10186000A02D01221B48C3F89C4DC3F8A00DC3F85E
:10187000942DBFF34F8FBFF36F8FC3F8501FBFF38B
:101880004F8FBFF36F8FD3F8142D5DF8044B42F4E4
:101890004032C3F8142D70473F00001025000803A4
:1018A0000900100040B803201300200021000207A7
:1018B0001400002025000813090000101600202045
:1018C00027000B1317000040180000602F000B07C3
:1018D000190000702F000B13F0B5B84B1822B84E4A
:1018E0000120B84F83B0C3F85C62B749C3F8607297
:1018F000B64DC3F86462A6F53046B54CC3F86862CD
:10190000C3F86C52C3F87052C3F87452C3F87852DB
:1019100048F20C75DA661A675A679A67DA67C3F88D
:101920008020C3F88420C3F88820C1F82C03A94A7A
:10193000C1F83003C1F83403C1F83803C1F83C03DF
:10194000C1F85003A169A44B0A40A448A449134319
:10195000A44AA361D4F8843043F00C03C4F8843063
:101960004FF0FF34036843F00203036003682B4029
:101970004FF400551A439C4B026044608A689B4CAC
:1019800013409B4A43F000538360C36823F07803FD
:10199000C360036A134023430362036A1340954AFA
:1019A0002343954C43628262C2620022D1F8B83070
:1019B00023F03F0343F00103C0F8B830D1F8BC3046
:1019C0008E4923F03F0343F00103C0F8BC3040F2DE
:1019D0000563026105660467C0F8803045664467A8
:1019E0000224C0F88430036823F00203036081619D
:1019F000834B8449C46143F8042B8B42FBD1774A63
:101A0000136843F001031360136813F00103FBD163
:101A10007A48022140F2F564906140F29940D16128
:101A200040F26641C2F8004242F20144C2F810128C
:101A30007549C2F82002C2F8301240F235417348AD
:101A4000C2F83442C2F84012714CC2F8500242F25D
:101A500001207049C2F854120121C2F86042C2F854
:101A600064025E48C2F8A030C2F8A430C2F8B010D8
:101A70004369DA07FCD5012300244FF4803257492B
:101A80004361C0F8A040C0F8A420C0F8B0304B6952
:101A9000DB07FCD5012300244FF400304F4A4B6193
:101AA000C1F8A040C1F8A400C1F8B0305369DF0705
:101AB000FCD501230024584848495361C2F8A0408E
:101AC000C2F8A400C2F8B0304B69DE07FCD5D1F8EB
:101AD000003145F60D5221209BB24861934265D1F9
:101AE00000244FF4802201233C48C1F8A040C1F8F3
:101AF000A420C1F8B0304369DD07FCD501234FF4C1
:101B000000040021354A4361C0F8A040C0F8A41089
:101B1000C0F8B0305369DC07FCD501234FF4000452
:101B20004FF480302D495361C2F8A040C2F8A400A0
:101B3000C2F8B0304B69D807FCD501234FF400043C
:101B40004FF40030254A4B61C1F8A040C1F8A40011
:101B5000C1F8B0305369D907FCD501234FF4000414
:101B60002D481E495361C2F8A040C2F8A400C2F833
:101B7000B0304B69DA07FCD5D1F8003145F60D528B
:101B800021209BB24861934250D008254FF40004B5
:101B900022490020224B234A009015705A1A012333
:101BA0002148224400F0F8F903B0F0BD1E4B00229A
:101BB000C3E90022C3E9022203B0F0BD00801F4048
:101BC000F9B00100F910010000841F40F970010014
:101BD00000C00F40FFFCFF1F000300A000402A4090
:101BE00000802A401200FFFFFF37F700400000800E
:101BF00000FFF07CFF000F8363000200F05AF05AF0
:101C000000422A4000432A409F041830EB06180A7D
:101C10003806180A0632012604000300000000708E
:101C200000000070E7B70320CCED00204FF4000463
:101C30004FF4802201230848C1F8A040C1F8A42035
:101C4000C1F8B0304369DB07FCD5012310254FF004
:101C5000807443619CE700BF00402A40F0B4154AFD
:101C600040274FF480314FF480564FF400554FF425
:101C7000404443F24200136913F0020F0ED113F4F3
:101C8000005F0FD013F4805F0ED0002BF3DA13F453
:101C9000803F0BD15B060BD5F0BC7047946151615E
:101CA0009061E8E75561E6E75661E4E79161E2E7B4
:101CB0005761E0E700800D403F4A03203F49F3EEC3
:101CC000095AD2F880304FF0000C9FED3D6A23F0A6
:101CD00001039FED3C5A30B4C2F88030C2F8900046
:101CE000D1F8E010384DCBB2384C39482B6007EEB4
:101CF000903A0B0DC1F30B21F8EEE77A06EE903A1D
:101D000007EE101A334BB8EEC77A2160F8EEE66A98
:101D1000314937EEC66A37EEC55A76EEC76A77EEB6
:101D2000E57A26EE266AC3ED006A25EE265AD2F839
:101D3000803067EEA64AC0ED007AC6EE275A2748E3
:101D400085EE276AC4EEA76A75EE875AFCEEE55A5F
:101D500036EE076A15EE904ABCEEC66A43EA0453B3
:101D600076EE877AC2F8803016EE103AD2F89041BB
:101D7000FCEEE77A01EA0341214317EE903AC2F8FC
:101D80009011C3F30B03D2F890110B431449C2F81E
:101D90009031D2F8803043F00203C2F88030114B0A
:101DA00080F840C0C1F840314FF0E023012230BC40
:101DB000C3F80821704700BF00810D4000441F4058
:101DC0000000AA420000B442C8B10120C4B1012001
:101DD000CCB10120D0B101200000FF0F00E400E0F1
:101DE000005400204D750100314B40F6617210B572
:101DF000C3F8202140F2044400F0CAF82D4A2E49CD
:101E0000D2F880302D4843F00303C2F880302C4BC9
:101E1000C1F8604102681A4203D1D1F8A8319A078B
:101E20001BD0254A4FF00041244B5963D2F8403172
:101E300043F00203C2F84031D2F840319B07FBD493
:101E40004FF400304FF0E0211C4B4FF00042C1F83E
:101E50008C0219209A6300F0AFF8184A4FF08040C6
:101E6000154C002190630A20164B11604FF420722C
:101E7000C4F8A801184600F0A3F84FF48002034606
:101E80004FF4810040F243111860C4F858311A64CD
:101E90000D4B0E4AC4F84811C3F804224FF0E0225B
:101EA0004FF400310123C2F80C11C4F8403110BDC9
:101EB00000800D4000C00F4000002E4000900D40FB
:101EC000001C1E0000000020005400206D7701005F
:101ED00008B50E4B1B6E9B0700D4FBBE72B60C4BB5
:101EE00000200C4AC3F8400103F160430A49A3F5FE
:101EF0005F2311649D46BFF34F8F4FF400130748D3
:101F0000074ADB6902609B68984700BF00441F4096
:101F100000002E4000C00A40030020000080202066
:101F2000000012EB104BA020104AD96E41F4403152
:101F300010B4D96640F23764D96E41F44071D96665
:101F400054649064936C1B06FCD4094A40F23761D8
:101F5000A02351649364936C13F08003FBD1054A72
:101F600013705DF8044B704700C00F4000400C40F8
:101F700000800C40D5B70320F8B500BFF8BC08BC02
:101F80009E467047000000005FF800F03D660100CB
:101F90005FF800F0A97E01005FF800F0E990010011
:101FA0005FF800F0257001005FF800F07960000034
:101FB0005FF800F0D9A601005FF800F02D6901007C
:101FC0005FF800F03DA001005FF800F051720100E1
:101FD00001010000A5710000F1BA0000FDDB000066
:081FE00081E30000F56201003D
:101FE80000000000000000000000000000000000E9
:101FF80000000000000000000000000000000000D9
:1020080000000000000000000000000000000000C8
:1020180000000000000000000000000000000000B8
:1020280000000000000000000000000000000000A8
:102038000000000000000000000000000000000098
:102048000000000000000000000000000000000088
:102058000000000000000000000000000000000078
:102068000000000000000000000000000000000068
:102078000000000000000000000000000000000058
:102088000000000000000000000000000000000048
:102098000000000000000000000000000000000038
:1020A8000000000000000000000000000000000028
:1020B8000000000000000000000000000000000018
:1020C8000000000000000000000000000000000008
:1020D80000000000000000000000000000000000F8
:1020E80000000000000000000000000000000000E8
:1020F80000000000000000000000000000000000D8
:1021080000000000000000000000000000000000C7
:1021180000000000000000000000000000000000B7
:1021280000000000000000000000000000000000A7
:102138000000000000000000000000000000000097
:102148003F000000000000000000000000001FFC2D
:102158003F000000000000000000000000007FFCBD
:102168003F00000000000000000000000000FFFC2D
:102178003F00000000000000000000000001FFFC1C
:102188003F00000000000000000000000003FFFC0A
:102198003F00000000000000000000000007FFFCF6
:1021A8003F3F007E3F3FC0FF001FFF80000FF9FC4C
:1021B8003F3F007E3F7FF3FFC07FFFE0001FE1FC51
:1021C8003F3F007E3FFFFFFFE0FFFFE0000FC1FC45
:1021D8003F3F007E3FFFFFFFE1FFFFF0000781FC6C
:1021E8003F3F007E3FC1FF07F1F807F0000301FC05
:1021F8003F3F007E3F80FE03F00003F0000001FC3B
:102208003F3F007E3F00FC03F03FFBF1FFF801FC7D
:102218003F3F007E3F00FC03F0FFFFF1FFF801FCA9
:102228003F3F007E3F00FC03F0FFFFF1FFF801FC99
:102238003F3F007E3F00FC03F1FC03F1FFF801FC87
:102248003F3F00FE3F00FC03F1F803F0000001FCF3
:102258003F3F81FE3F00FC03F1F807F0000001FC5E
:102268003F1FFFFE3F00FC03F1FFFFF0000001FCF1
:102278003F1FFFFE3F00FC03F1FFFFF0000001FCE1
:102288003F0FFF7E3F00FC03F0FFFBF0000001FC66
:102298003F03FE7E3F00FC03F07FF3F0000001FCEB
:1022A8000000000000000000000000000000000026
:1022B8000000000000000000000000000000000016
:1022C8000000000000000000000000000000000006
:1022D80000000000000000000000000000000000F6
:1022E80000000000000000000000000000000000E6
:1022F80000000000000000000000000000000000D6
:1023080000000000000000000000000000000000C5
:1023180000000000000000000000000000000000B5
:1023280000000000000000000000000000000000A5
:102338000000000000000000000000000000000095
:102348000000000000000000000000000000000085
:102358000000000000000000000000000000000075
:102368000000000000000000000000000000000065
:102378000000000000000000000000000000000055
:102388000000000000000000000000000000000045
:102398000000000000000000000000000000000035
:1023A8000000000000000000000000000000000025
:1023B8000000000000000000000000000000000015
:1023C8000000000000000000000000000000000005
:1023D80000000000000000000000000000000000F5
:1023E80070C00F40C0000000120000001300000081
:1023F800D0841F4001000000FF000000FF00000023
:10240800000000000000000013000000130000009E
:10241800CC841F4001000000FF000000FF00000006
:1024280000000000000000001C00000055BA000079
:1024380070C00F40000C00001100000011000000E7
:10244800E0841F40020000002C0000001200000081
:10245800E0841F400100000010000000110000008F
:10246800DC841F40020000002D0000001200000064
:10247800DC841F40010000001E00000061BA00005B
:1024880080C00F4000000003190000001000000089
:10249800E8841F4001000000FF000000FF0000006A
:1024A80000000000000000001800000010000000FC
:1024B800E4841F4001000000FF000000FF0000004E
:1024C80000000000000000001F0000006DBA0000BE
:1024D8000000600000000000000000000000000094
:1024E80000E0000000000000000000000000000103
:1024F800E00000000000000000000000000001F003
:102508000000000000000000000000000003F000D0
:1025180000000000000000000000000007F00000BC
:10252800000000000000000000000007F8000000A4
:10253800000000000000000000000FF80000000389
:10254800C0007E000001E0007F0FF800000003C01B
:1025580000FE000001E000FFEFF800000003C000EB
:10256800FE000001E000FFFFF800000003C000F0DB
:102578000000000F007FFE7FC0000003C000F000D5
:1025880000000F003FFE7FF83FF1FBCFFCFEF3BCDD
:102598003DEFE01FFE7FFF7FFBFFDFFEFEFFBC3D40
:1025A800EFE01FC6FFFF7FFBFFDFFEFEFFBC3DEF36
:1025B800E00FE3C7FE787BC3DE1EF0FFBC3DEF00F3
:1025C80007FF87FC787BC3DE1EF0F83C3DEF000177
:1025D800FFFFF0007BC3C01EF0F03C3DEF0001F3AD
:1025E8007FE03FFBC3CFFEF0F03C3DEF0003E33F4D
:1025F800807FFBC3DFFEF0F03C3DEF0007E73C00C7
:10260800787BC3DE1EF0F03C3DEF0007FFBE00788C
:102618007BC3DE1EF0F03C3DEF0007FFFE00787B39
:10262800C3DE1EF0F03C3DEF000FFFFE007FFBFF16
:10263800DFFEF0F03FFDEFE00FFFFF007FFBFFDF65
:10264800FEF0F03FFDEFE00FF9FF003E79F9CF9E75
:10265800F0F01F3DE7E01FF1FF0000000000000060
:1026680000000000001F80FF007FFFFFFFFFFFFF4B
:10267800FFFFFFE01C007F007FFFFFFFFEB46D88B7
:102688008D18E000001F007FFFFFFFFE95AD7DB5B0
:1026980077E000000F007FFFFFFFFEA5AD9D8D19BD
:1026A800E0000006007FFFFFFFFEB5ADEDB57EE060
:1026B8000000000118035400650065006E007300F7
:1026C800790020004D0049004400490018035400D7
:1026D800650065006E00730079006400750069008C
:1026E8006E006F000403090409029500030100C08D
:1026F80032080B0002020201000904000001020274
:10270800010005240010010524010101042402062A
:1027180005240600010705820310001009040100C2
:10272800020A0000000705030240000007058302B3
:102738004000000904020002010300000724010010
:1027480001250006240201010006240202020009F4
:102758002403010301020100092403020401010109
:1027680000090504024000000000052501010109D7
:102778000584024000000000052501010300000057
:1027880009029500030100C032080B000202020191
:1027980000090400000102020100052400100105DF
:1027A800240101010424020605240600010705820C
:1027B8000310000509040100020A000000070503D0
:1027C8000200020007058302000200090402000259
:1027D800010300000724010001250006240201016D
:1027E8000006240202020009240301030102010079
:1027F8000924030204010101000905040200020082
:1028080000000525010101090584020002000000FD
:1028180005250101030000000A060002EF0201403D
:0428280001000000AB
:10282C00000000000000000000000000000000009C
:10283C00000000000000000000000000000000008C
:10284C00F8B54FF084439D695A6915400DD0244F5B
:10285C0001269D6195FAA5F4B4FA84F457F8243056
:10286C0006FA04F49847A543F4D11E4B9D695A69A6
:10287C0015400DD01C4F01269D6195FAA5F4B4FAB4
:10288C0084F457F8243006FA04F49847A543F4D19D
:10289C00164B9D695A6915400DD0154F01269D6147
:1028AC0095FAA5F4B4FA84F457F8243006FA04F433
:1028BC009847A543F4D10F4B9D695A6915400DD02B
:1028CC000D4F01269D6195FAA5F4B4FA84F457F8DE
:1028DC00243006FA04F49847A543F4D1F8BD00BFA0
:1028EC003448002000400042B448002000800042E0
:1028FC003449002000C00042B44900200548064B72
:10290C001B1AD90F01EBA301491002D0034B03B1E1
:10291C0018477047C0560020C05600200000000029
:10292C0008B5054B1BB105490548AFF30080BDE860
:10293C000840FFF7E3BF00BF000000004470012017
:10294C000088026000207047704700BF036D0BB118
:10295C0001207047406D003818BF0120704700BF40
:10296C00704700BF10B50446806D18B119F058F8C7
:10297C000023A365236D2BB104F11800BDE81040B2
:10298C0013F022B8636D002BF6D110BD08B51720DB
:10299C0016F084FC60B9084A13680133012B08DD7A
:1029AC00064B012110601970054A064B12681A601B
:1029BC0008BD1360F8E700BF086F012002B80320C0
:1029CC0010B4032070B20120054B1B78DB0706D531
:1029DC00044A01200449054B126808701A607047BC
:1029EC00F2B7032010B40320DBB7032078B2012028
:1029FC00054B1B789B0706D5044A01200449054B5F
:102A0C00126808701A607047F2B7032010B40320E4
:102A1C00DDB7032080B2012010B50446806D00B1F3
:102A2C0010BD4FF4807018F0F3FFA065B0B1002218
:102A3C00236D02703BB101464FF48072184612F0C0
:102A4C006FFBA06D10BD636D002BE9D001464FF4F8
:102A5C00807218460FF064FFA06D10BD014B184634
:102A6C00A36510BDD2B7032038B5056D6DB10BB1A0
:102A7C00002038BD1146284610F0E0FF0028F7D0A2
:102A8C002846BDE8384011F07BB9446D002CEFD0DE
:102A9C0020460EF059FA0028EAD02046BDE838400E
:102AAC000FF00ABA8A79A2F150031B0622D402F263
:102ABC006C72F0B54B7985B0046D01330D798E785D
:102ACC004F78DBB209784CB1204601960095CDE9E0
:102ADC000271022111F0E8F805B0F0BD406D00283C
:102AEC00FAD001960095CDE9027102210FF028F978
:102AFC0005B0F0BD00207047036D10B50C4682B0D8
:102B0C002BB30DF1060201A9184610F03DFB38B3AA
:102B1C00BDF80430BDF8062053EA020120D0C2F300
:102B2C00451C02F01F00D20AC3F34311400084F885
:102B3C0001C0A2705A0A013903F01F0302F5EA62C0
:102B4C002070012061712371A27102B010BD406D23
:102B5C0030B10DF1060201A90EF09CF80028D7D176
:102B6C00002002B010BD00BF036D10B50C4682B042
:102B7C002BB30DF1060201A9184610F0F5FA38B383
:102B8C00BDF80430BDF8062053EA020120D0C2F390
:102B9C00451C02F01F00D20AC3F34311400084F815
:102BAC0001C0A2705A0A013903F01F0302F5EA6250
:102BBC002070012061712371A27102B010BD406DB3
:102BCC0030B10DF1060201A90EF052F80028D7D150
:102BDC00002002B010BD00BF30B5D0F880448FB0DB
:102BEC0013464CB100250A46684604F589610095E8
:102BFC0010F090FB0FB030BDD0F884040028F9D051
:102C0C000A4600F5896168460C940FF02DF80FB058
:102C1C0030BD00BF10B5044600230A2216F056F84A
:102C2C002046BDE8104016F027B800BF69B170B55A
:102C3C00054608460C461AF0F3F92B680246214665
:102C4C0028465B68BDE87040184770470369D3B1EC
:102C5C000E4810B41C68E46884420FD1186D18B18A
:102C6C005DF8044B11F0C6B8586D18B15DF8044B03
:102C7C000FF094B900205DF8044B704718462346BA
:102C8C005DF8044B18470020704700BF9107000007
:102C9C00006990B10368154A1B69934225D1036DF5
:102CAC0063B1187810F0080007D0D8695B69C01AB6
:102CBC0048BF6FF00040704718467047436D002BBB
:102CCC00FAD093F8310010F00800F6D018691968A2
:102CDC005A69401A5B6862EB0303B0F1004F73F161
:102CEC000003EAD36FF000407047184779080000E2
:102CFC00036963B11A68074992698A4208D1186D51
:102D0C0008B110F0CBBF586D08B10EF0A3BE7047E0
:102D1C0018461047FD060000036973B11A6808498C
:102D2C0052698A4207D1186D08B110F013BD586D65
:102D3C0018B10EF0F3B8184610474FF0FF3070473B
:102D4C000D060000036D13B1586900217047436DE7
:102D5C0013B1D3E90001704718461946704700BFFC
:102D6C00036D13B1D86900217047436D13B1D3E9DA
:102D7C000401704718461946704700BFF0B595B06E
:102D8C0000224FF47A74244F1831054604A88DF8AC
:102D9C000C200097CDE90124CDE9122212F080FE1F
:102DAC00129B002B2DD05C20002616F0EDFD019B14
:102DBC0004464660C36004A9029B183040F8083CE6
:102DCC009DF80C3000F8043C144B40F8183C144BA4
:102DDC0040F8103C12F0B6FD124B4FF47A72A7601B
:102DEC002B606368A66501336E602E73AA602C613C
:102DFC0063600D4B04A8009312F0E6FD284615B055
:102E0C00F0BD139B002BCED1064A2B732A602B618D
:102E1C00C5E90134EDE700BFC0360020E4360020E0
:102E2C00403700209436002038340020036D13B155
:102E3C00184610F08FBC406D08B10EF06FB84FF013
:102E4C00FF307047836C13B1184610F083BCC06C14
:102E5C0008B10EF063B84FF0FF307047036D33B11B
:102E6C001B7813F0700F14BF012000207047406DC9
:102E7C0030B190F8313013F0500F14BF0120002006
:102E8C00704700BF10B50446006D80B1037813F095
:102E9C00700F00D110BD002110F0D0FD606D002826
:102EAC00F8D000220023BDE810400EF04DB8606D44
:102EBC000028EFD090F8313013F0500FEAD00022F8
:102ECC000023BDE810400EF03FB800BF036D13B1F6
:102EDC00184610F06BBB406D08B10DF04FBF4FF0B2
:102EEC00FF307047836C00B583B063B101220DF1E4
:102EFC000701184610F05AFB01280CD19DF8070069
:102F0C0003B05DF804FBC06C28B101220DF1070180
:102F1C000DF034FFF0E74FF0FF30F1E7036D13B124
:102F2C00184610F0BBBE406D08B10EF093BD704753
:102F3C00836C13B1184610F0B1BEC06C08B10EF022
:102F4C0089BD7047036923B31968134A10B58C689F
:102F5C0082B0944214D1186D48B101220DF10701D1
:102F6C0010F024FB90B19DF8070002B010BD586D15
:102F7C000028F8D001220DF107010DF0FFFEF1E75A
:102F8C0001220DF107011846A047EBE74FF0FF3087
:102F9C00EBE74FF0FF307047AD060000836C13B1C8
:102FAC00184610F027BFC06C08B10EF0F7BF704781
:102FBC00036D13B1184610F01DBF406D08B10EF033
:102FCC00EDBF704700B5836C83B08DF8071043B12B
:102FDC0001220DF10701184610F00CFF03B05DF84B
:102FEC0004FBC06C0028F9D001220DF107010EF092
:102FFC00D5FF03B05DF804FB8A79A2F150031B06E0
:10300C0022D402F26C72F0B54B7985B0046D0133A9
:10301C000D798E784F78DBB209784CB12046019649
:10302C000095CDE90271042110F03EFE05B0F0BD13
:10303C00406D0028FAD001960095CDE9027104216B
:10304C000EF07EFE05B0F0BD00207047836C53B1CE
:10305C00187810F008000DD0D8695B69C01A48BF09
:10306C006FF000407047C36CA3B193F8310010F0BF
:10307C00080000D17047186919685A69401A5B68D2
:10308C0062EB0303B0F1004F73F10003F2D36FF066
:10309C00004070471846EDE7036D53B1187810F0F7
:1030AC0008000DD0D8695B69C01A48BF6FF00040AA
:1030BC007047436DA3B193F8310010F0080000D1B4
:1030CC007047186919685A69401A5B6862EB030308
:1030DC00B0F1004F73F10003F2D36FF00040704772
:1030EC001846EDE700B5006983B08DF8071060B1A4
:1030FC000368104ADB68934215D1036D43B101227A
:10310C000DF10701184610F075FE03B05DF804FBD5
:10311C00406D0028F9D001220DF107010EF03EFFA1
:10312C0003B05DF804FB01220DF10701984703B0D1
:10313C005DF804FB9107000048B10368174A5B6B0C
:10314C00934210B5044616D1806D10B110BD1448D1
:10315C0070474FF4807018F05BFCA065C8B100227A
:10316C00236D027053B101464FF48072184611F072
:10317C00D7FFA06D10BDBDE810401847636D002B44
:10318C00E4D001464FF4807218460FF0C9FBA06DD5
:10319C0010BD044B1846A36510BD00BFF90100001B
:1031AC00CC3E0020D2B7032038B504460C4B806DC2
:1031BC00236018B118F034FC0023A365236D04F1CF
:1031CC0018054BB1284612F0FFFB064B2846A360AE
:1031DC0012F0FAFB204638BD636D002BF2D1F4E7F8
:1031EC00E43600203834002038B504460E4B806D90
:1031FC00236018B118F014FC0023A365236D04F1AF
:10320C0018056BB1284612F0DFFB084B2846A3606B
:10321C0012F0DAFB20465C2116F0B8FB204638BDD4
:10322C00636D002BEED1F0E7E4360020383400203B
:10323C0030B4029C11469C4634B1012C1CD0022C9B
:10324C000ED0002030BC7047056DF5B14FF0FF3348
:10325C00934274EB0C04F4D3284630BC10F0EEBB54
:10326C00026D0AB3D36959184CF10003002BE8D155
:10327C00104630BC10F0E2BB026D62B153695918B4
:10328C004CF10003002BDCD1F2E7406D0028D8D0C4
:10329C0030BC0DF059BE406D0028D2D0D0E90023CF
:1032AC008A184CEB0303F3E7406D0028C9D0D0E932
:1032BC00042330BC8A184CEB03030DF045BE00BF51
:1032CC0038B5044649B108460D4619F0A9FE2368E5
:1032DC00024629465B68204698472046BDE83840A0
:1032EC0015F0CABC70B5244B044605690360002D6B
:1032FC0032D06E68013E6E6076BB2B681F4ADB6A6B
:10330C0093422FD1A86D10B118F08AFBAE652B6DCE
:10331C0023B305F1180012F057FB2569E5B12B68B2
:10332C00174A5B68934224D1164BA86D2B6018B1D9
:10333C0018F076FB0023AB652B6D05F11806A3B1D5
:10334C00304612F041FB104B3046AB6012F03CFBA8
:10335C005C21284616F01AFB204670BD6B6D002BC5
:10336C00D7D1DAE728469847D7E76B6D002BE7D122
:10337C00E9E728469847EFE794360020450100001E
:10338C00C9090000E43600203834002008B518F0D4
:10339C0033F910B908BD18F073F918F02DF900289D
:1033AC00F9D1012008BD00BF38B50446094D1121E3
:1033BC00094818F08BF9214600230A22284615F0FB
:1033CC0085FC284615F058FC21460020BDE8384005
:1033DC0016F010B948420020101A002010B5002039
:1033EC0015F0F8FF04461121114818F06FF900236D
:1033FC000A2221460F4815F069FC0E4815F03CFCDA
:10340C00022C01D8204610BD11210B4818F05EF992
:10341C0000230A2207481C46194615F057FC05489C
:10342C0015F02AFC2046214616F0E4F8204610BD83
:10343C00FC19002048420020101A002038B5044620
:10344C00094D1B21094818F041F9214600230A2295
:10345C00284615F03BFC284615F00EFC21460120B1
:10346C00BDE8384016F0C6B848420020E0270020DE
:10347C0038B50446094D1D21094818F027F9214695
:10348C0000230A22284615F021FC284615F0F4FBEF
:10349C0021460220BDE8384016F0ACB84842002066
:1034AC00D026002070B514460D461E460246234613
:1034BC000549064815F0FCFB44EA06012846BDE820
:1034CC00704016F097B800BFB82500204842002085
:1034DC0030B5032083B015F07DFF0446164D14F073
:1034EC00010F1649164824F0F00308BF294614F0C2
:1034FC00020F144A08BF2846009113490190134843
:10350C0015F0D6FB04F0F003A02B03D104F00F0050
:10351C0003B030BD0E490D4815F0CAFB0323094A10
:10352C000C490A4815F0C4FBA321032016F062F8DD
:10353C00032003B030BD00BF7C13002028250020E1
:10354C00143F00206C280020302500204842002029
:10355C0030280020B825002030B5042083B015F0A9
:10356C0039FF0446164D14F0010F1649164824F085
:10357C00F00308BF294614F0020F144A08BF28466E
:10358C00009113490190134815F092FB04F0F003DD
:10359C00A02B03D104F00F0003B030BD0E490D4831
:1035AC0015F086FB0323094A0C490A4815F080FBE9
:1035BC00A321042016F01EF8032003B030BD00BF79
:1035CC007C13002028250020143F0020FC2700201D
:1035DC00302500204842002030280020B82500204B
:1035EC0030B5052083B015F0F5FE0446164D14F0E9
:1035FC00010F1649164824F0F00308BF294614F0B1
:10360C00020F144A08BF2846009113490190134831
:10361C0015F04EFB04F0F003A02B03D104F00F00C7
:10362C0003B030BD0E490D4815F042FB0323094A87
:10363C000C490A4815F03CFBA321052015F0DAFFD4
:10364C00032003B030BD00BF7C13002028250020D0
:10365C00143F002084280020302500204842002000
:10366C0030280020B825002030B5062083B015F096
:10367C00B1FE0446164D14F0010F1649164824F0FD
:10368C00F00308BF294614F0020F144A08BF28465D
:10369C00009113490190134815F00AFB04F0F00354
:1036AC00A02B03D104F00F0003B030BD0E490D4820
:1036BC0015F0FEFA0223094A0C490A4815F0F8FAEB
:1036CC00A221062015F096FF022003B030BD00BFEA
:1036DC007C13002028250020143F002054280020B3
:1036EC00302500204842002014280020B825002056
:1036FC0030B5072083B015F06DFE0446164D14F05E
:10370C00010F1649164824F0F00308BF294614F09F
:10371C00020F144A08BF2846009113490190134820
:10372C0015F0C6FA04F0F003A02B03D104F00F003F
:10373C0003B030BD0E490D4815F0BAFA0223094A00
:10374C000C490A4815F0B4FAA221072015F052FFD3
:10375C00022003B030BD00BF7C13002028250020C0
:10376C00143F0020882700203025002048420020EC
:10377C0014280020B825002010B550B10B490C4A74
:10378C000C4815F095FA01210820BDE8104015F001
:10379C0031BF04460549084A064815F089FA214606
:1037AC000820BDE8104015F025BF00BF5C270020A5
:1037BC00EC140020484200205827002070B5054624
:1037CC000C490D482A4605F108062C4615F070FAEE
:1037DC0014F8011B04F2FF10401B15F00BFFA6425E
:1037EC00F6D10521054817F071FF0348BDE870407C
:1037FC0015F042BAF026002048420020182700207D
:10380C00F8B5074640F2012524210C487C1EFE1D0C
:10381C00ED1B17F05BFF281915F0DCFD04F8010F08
:10382C00B442F8D10023052105483B7217F04EFF36
:10383C000448BDE8F84015F01FBA00BF78260020F8
:10384C001827002048420020012810B504460BD050
:10385C00022816D090B11A210B4817F037FF0B48ED
:10386C00BDE8104015F008BA0B21094817F02EFFDF
:10387C00064815F001FA074B1C6010BD0D210648D7
:10388C00F4E70C210548F1E7780C002048420020B1
:10389C005C0C0020144800204C0C0020680C00200C
:1038AC00194B2DE9F041194E0446DFF868801F686A
:1038BC00174D04F00F03092B1BD0082B04F0F0025A
:1038CC0020D80134E4B257B9992CF2D8414655F8B6
:1038DC00240019F049F90028EBD0204610E0022C06
:1038EC00E7D8414656F8240019F03EF90028E0D0FC
:1038FC00F3E704F0F0041034E4B2902CE3D9002088
:10390C00BDE8F0811446DEE7286F01205006002048
:10391C00E80300202009002000F00F03092B16D02B
:10392C00082B00F0F0020DD9002311090C4801EB13
:10393C008101007803EB4103DBB2984238BF0022CF
:10394C0010467047431CDAB203F00F03EDE700F0AA
:10395C00F0001030C2B2902AE6D90022104670470F
:10396C00EFB70320144B2DE9F041DFF858800446E3
:10397C00124E1D68124F23070FD114F0F00417D10B
:10398C009924002DF7D156F82400414619F0ECF893
:10399C000028F0D02046BDE8F081013CE4B215B916
:1039AC00992CE8D8EFE7022CE5D857F82400ECE77F
:1039BC00073CE4B2F3E700BF286F0120E8030020C6
:1039CC005006002020090020030705D110F0F0005C
:1039DC001FD1632399200AE00138C0F3031200F0D1
:1039EC000F03C0B202EB820203EB4203DBB20A4AC2
:1039FC0012789A420CD2094BA3FB0213DB08C3EBDF
:103A0C004311C3EB8101490001EB03131A44D0B2FB
:103A1C0070470738E1E700BFEFB70320CDCCCCCC23
:103A2C0070B5274D002128460BF090FC254B022148
:103A3C0028462B610BF084FC234B1C78012C0AD0FC
:103A4C00022C27D0BCB10022204B43F63F7110460C
:103A5C009A70198070BD1E4B00241C495F221B7884
:103A6C0028464A7002221B098C7030330B7015F0FB
:103A7C00CFF8204670BD154E45F65F733046338047
:103A8C00B47019F0CDFA31460246284615F0C0F84C
:103A9C00204670BD0E4B00220C4C1B78A2702046A9
:103AAC001A0903F00F03303230332270637019F0AF
:103ABC00B7FA21460246284615F0AAF8012070BD37
:103ACC00C06B002001002300F9B7032064700120B3
:103ADC00E5B7032038B5174B04461B68002B0FD0F5
:103AEC00154D1A461549B8BF5A1C2868096800EBD1
:103AFC0062028A4204DC0344994200DD296038BD2D
:103B0C000F4D4FF001130F4A00212846C5E904233D
:103B1C000BF01CFC012128460BF012FC002CEED003
:103B2C00204619F07DFA214602462846BDE8384069
:103B3C0015F06EB8FC6D0120F06D01205C70012059
:103B4C00C06B00200100140038B5174B04461B68ED
:103B5C00002B0FD0154D1A461549B8BF5A1C2868B2
:103B6C00096800EB62028A4204DC0344994200DDDE
:103B7C00296038BD0F4D4FF001130F4A0021284624
:103B8C00C5E904230BF0E2FB012128460BF0D8FB1E
:103B9C00002CEED0204619F043FA21460246284666
:103BAC00BDE8384015F034B8F86D0120EC6D0120FB
:103BBC005C700120C06B00200100260038B5174B4B
:103BCC0004461B68002B0FD0154D1A461549B8BF7B
:103BDC005A1C2868096800EB62028A4204DC034420
:103BEC00994200DD296038BD0F4D4FF001130F4A8B
:103BFC0000212846C5E904230BF0A8FB0121284627
:103C0C000BF09EFB002CEED0204619F009FA214651
:103C1C0002462846BDE8384014F0FABFF46D012086
:103C2C00E86D01205C700120C06B002001003800A1
:103C3C0038B50A4D04460A4B012128462B610BF07E
:103C4C007FFB4CB1204619F0EBF921460246284681
:103C5C00BDE8384014F0DCBF38BD00BFC06B00209D
:103C6C001E00260030B55E4A83B05E4C1568236892
:103C7C005B1B962B06D95C4D236813602B7883F065
:103C8C0001032B70FF281CD00F2811D8574C237818
:103C9C00012B5ED013F0FD0F49D00020B3B9524B6D
:103CAC001B78002B14BFCC23FC230B7003B030BD4E
:103CBC001238072805D8DFE800F0251C040404148A
:103CCC0004104A4B00201B78002BE8D0013BDBB2E0
:103CDC00012BEBD8464B1B7831E0444B02201B7870
:103CEC00DCE7424B1B78A3F10200B0FA80F04009EC
:103CFC00D4E73E4C2378012B59D0022B30D09BB10A
:103D0C000020E3E7394C2378012B41D0022B34D02F
:103D1C00002BF5D1374A184601911288012A54D04C
:103D2C00FFF752FE019903460222314D04E00001D7
:103D3C0001222F4D0C30C3B200202B7022702A4A66
:103D4C000B70127812B943F00F03DBB20B7003B097
:103D5C0030BD274D02222B7823F00F030343EBE7F2
:103D6C00244B234D1B882878012B019125D0FFF77C
:103D7C00D3FD019902220346DEE71E4B1C4D1B8826
:103D8C002878012B01911CD0FFF71EFE0199F1E759
:103D9C00184B174D1B882878012B019100F0F0006F
:103DAC0018D0FFF711FE019903460222C4E7104D0B
:103DBC000222287800F0F003BEE7FFF771FD0199AD
:103DCC00D8E7FFF7CFFD0199D4E7FFF7CBFD0199B9
:103DDC000346A9E7FFF7C6FD01990346E5E700BFD7
:103DEC00BC67002010B40320D9B70320F9B7032017
:103DFC00E5B70320B6B7032008B5374B1B68042B77
:103E0C0021D8DFE803F0424A03032200334B344A43
:103E1C001B88344903F51F5311603C339BB2092BAB
:103E2C0050D8314A52F82300FFF754FE2F4B1B8811
:103E3C0003F51F533C339BB2092B45D82A4A52F841
:103E4C002300FFF781FE012008BD254B1868FFF702
:103E5C0041FE224B1B8803F51F533C339BB2092BAD
:103E6C0038D8214A52F82300FFF76EFE1F4B1B88EF
:103E7C0003F51F533C339BB2092B29D81A4A52F82D
:103E8C002300FFF79BFE012008BD154B184A19486B
:103E9C001A60FFF71FFE012008BD104B104A1B884B
:103EAC00134903F51F5311603C339BB2092B0DD8FA
:103EBC000D4A52F82300FFF70DFE0E48FFF744FEA3
:103ECC00012008BD0C48AFE70B48BAE70A48F2E7F7
:103EDC000948D6E70848C7E7ACB60320C6B70320A5
:103EEC00904A00209C0F002070030020C8B70320CC
:103EFC007C0F0020900F0020CC070020554B1B6836
:103F0C0010B5072B2CD8DFE803F0840404562D2DB4
:103F1C003267514C514B52491B682288514818F05A
:103F2C0073FA5048FFF7D6FD2388B3F5005F00F015
:103F3C008C8000F28380B3F5006F02D0B3F5805F04
:103F4C0002D14948FFF700FE484B1A682AB148498C
:103F5C000020484A0968186011604748FFF72EFE98
:103F6C00012010BD4548FFF7B5FD012010BD444BA5
:103F7C001A681E2A05D03E491E20424A096818605C
:103F8C0011604148FFF7A6FD404B41491A8835485E
:103F9C0018F03AFA3F4B1A682AB1354900203E4ACC
:103FAC000968186011602F48FFF7CEFD3248FFF703
:103FBC0005FE012010BD3948FFF78CFD354B1A6802
:103FCC001E2A05D02A491E20334A09681860116040
:103FDC003348FFF7B9FDC0E7294B1A682AB12449C9
:103FEC000020284A0968186011602A4B1A682AB107
:103FFC001F490020284A0968186011601B4B1A6879
:10400C00002AADD01A4900201A4A096818601160BC
:10401C00A6E7124B234A24481A60FFF75BFD134BAB
:10402C001A68122A05D012491220124A096818601F
:10403C0011601E48FFF7C2FD012010BDB3F5804F83
:10404C0003D0B3F5004F7FF47FAF1948FFF77CFD29
:10405C007AE700BFC4EC0020B4B70320104800205E
:10406C008C1A0020C8EC00209C1A0020F46D012052
:10407C005C700120E86D0120CC1A0020081B002088
:10408C00FC6D0120F06D0120141B0020B0B7032043
:10409C00281B0020F86D0120EC6D0120E41A002093
:1040AC00F41A00207C0F0020601A0020741A0020E3
:1040BC00B41A00202DE9F0474FF00009DFF8E48234
:1040CC00012484B049464046B34E432725460BF0A5
:1040DC003DF93B4622B20221404600950834CDE919
:1040EC0001950BF081F816F8017FA4B2002FF0D1E6
:1040FC00AA4D03200A23DFF8ACA22988012432221E
:10410C00B94601F00101DFF8A48254260291394628
:10411C002746CDE9003050460AF03CFC334622B22B
:10412C000F21504600970834CDE901970BF05CF84D
:10413C0018F8016FA4B2002EF0D12A8803210A23AB
:10414C00DFF86092C2F3400201244846B246029264
:10415C003222A046924F5326CDE900310D210AF0B0
:10416C0019FC334622B21C214846CDF80080083495
:10417C00CDE901A80BF038F817F8016FA4B2002EA6
:10418C00EFD12A8803210A23DFF818A2C2F3800298
:10419C0001245046DFF8188202923222A1464227AF
:1041AC00CDE900311A210AF0F5FB3B4622B2292158
:1041BC005046CDF800900834CDE901690BF014F8A5
:1041CC0018F8017FA4B2002FEFD12A8803210A230B
:1041DC00DFF8D0A1C2F3C00201245046DFF8D4812D
:1041EC0002923222A1464826CDE9003127210AF05D
:1041FC00D1FB334622B236215046CDF8009008341C
:10420C00CDE901790AF0F0FF18F8016FA4B2002E85
:10421C00EFD12A8803210A23DFF888A1C2F3001208
:10422C0001245046DFF8908102923222A1464327A6
:10423C00CDE9003134210AF0ADFB3B4622B24321DB
:10424C005046CDF800900834CDE901690AF0CCFF56
:10425C0018F8017FA4B2002FEFD12A8803210A237A
:10426C00DFF840A1C2F3401201245046DFF84C8124
:10427C0002923222A1464326CDE9003141210AF0B7
:10428C0089FB334622B250215046CDF800900834B9
:10429C00CDE901790AF0A8FF18F8016FA4B2002E3D
:1042AC00EFD12A8803210A23DFF8F8A0C2F3801289
:1042BC0001245046DFF8088102923222A14652278F
:1042CC00CDE900314E210AF065FB3B4622B25D215F
:1042DC005046CDF800900834CDE901690AF084FF0E
:1042EC0018F8017FA4B2002FEFD12A8803210A23EA
:1042FC00DFF8B0A0C2F3C01201245046DFF8C4802E
:10430C0002923222A1465426CDE900315B210AF0FB
:10431C0041FB334622B26A215046CDF80090083456
:10432C00CDE901790AF060FF18F8016FA4B2002EF4
:10433C00EFD12A880A2303210124C2F30022194851
:10434C00A046194F02923222DFF85890CDE9003185
:10435C0068210AF01FFB432322B277214846CDF88F
:10436C0000800834CDE901680AF03EFF17F8013FE0
:10437C00A4B2002BF0D1288803210A233222C0F3E7
:10438C004020019175210093029006480AF002FB2F
:10439C0004B0BDE8F08700BF38140020985100200D
:1043AC0044140020C06B00207C140020401400201A
:1043BC004C140020541400205C14002064140020C1
:1043CC006C14002074140020F8B5022015F002F8CB
:1043DC000446002800F0E2800246744B744975488C
:1043EC0014F066FC112C28BF0024734B0025012609
:1043FC0003271C60FFF76CF8704B1870FFF7ACF8D4
:10440C006F4B1870FFF7ECF86E4B1870FFF72CF928
:10441C006D4B1870FFF76CF96C4B024608201A7044
:10442C0014F0D8FF6A4B041E6A4A6B4908BF1A463F
:10443C00604814F03DFC601B68494DF6060218BF3D
:10444C000120674B674C08704DF604019A839980E4
:10445C0024211A85272219804DF605019A840722FA
:10446C001982252183F826204DF60A0299814DF6F2
:10447C000701A3F8582099862821A3F864202C2240
:10448C0019864DF60801A3F860204DF60B02A3F82F
:10449C0040102921A3F8702099874DF60901A3F843
:1044AC007C202E22A3F84C102A219D70A3F84810D2
:1044BC0026219D7319832B219D76A3F854102D2151
:1044CC0083F83260A3F86C102F2183F83E5083F8E8
:1044DC004A5083F8626083F8567083F86E70A3F8C4
:1044EC007820626DA3F88410302183F87A60A3F8E9
:1044FC00901047F6122183F8866083F8926010685A
:10450C004DF60C02A3F888204DF60D02A3F894206A
:10451C002A46354BE360354BA360354BA361354BD5
:10452C00A363354BE363354B6364354BA364354B65
:10453C00636214F08DF8344A4FF6FF7384F8707090
:10454C001268A4F85860C4F80021304A84F85A5014
:10455C0065672F4984F8F850C4F8FC502D48C4E91D
:10456C001A339369C4E9185543F080532A4C93616C
:10457C000C602A4B2A4C2B4A04601A602A492B4C9B
:10458C002B4B2C4A0C601A602B492C4A2C482D4C76
:10459C002D4B11602D4A04601A60F8BD02462C4B5D
:1045AC000349044814F084FB1FE700BF7C13002070
:1045BC00A026002048420020384A0020F3B70320F0
:1045CC00F2B70320F1B70320F0B70320F6B70320AE
:1045DC0058270020EC14002040270020F4B70320BB
:1045EC00186C00202C6F0120C17E0000A901000076
:1045FC00718D0000FD1F00006D4E0000994F0000F2
:10460C00414D00009988000010B40320008019402F
:10461C0048B5032044B50320F57E000050B50320B7
:10462C00D1010000A18D000038B5032061200000ED
:10463C0060B503209D4E0000714D000064B5032051
:10464C003CB50320C94F00006CB50320098900005C
:10465C00C42600200A4B0B4A0B49002808BF1A46F7
:10466C0010B50A4C20700A4814F022FB2378094A32
:10467C00191E18BF012143EA410382F8703010BDA6
:10468C0058270020EC140020CC170020F4B703208E
:10469C00484200202C6F01200C2836D8DFE800F0AF
:1046AC0021271B09070B1117192D2F31330018481F
:1046BC00704718487047184B18483F2998BF184640
:1046CC007047174B17483F2998BF18467047164834
:1046DC00704716487047164B16483F2998BF184626
:1046EC007047154B15483F2998BF18467047144B17
:1046FC0014483F2998BF1846704713487047134811
:10470C00704713487047134870471348704700BFF1
:10471C0064140020502900205C2900207C14002007
:10472C0064290020741400206C29002074290020B6
:10473C004829002054140020382900204C14002053
:10474C0040290020441400207C29002084290020CA
:10475C008C290020942900209C29002010B52B4C7A
:10476C002368042B0AD8DFE803F0031C293B0A005A
:10477C004FF084434FF08072C3F8882010BD14F0C2
:10478C0039FD234A40F6D7631268801A9842F5D94E
:10479C004FF084424FF080710023C2F888102360E0
:1047AC0010BD4FF084434FF08072C3F8842014F096
:1047BC0021FD174A02231060236010BD14F01AFD6E
:1047CC00134A40F6D7631268801A9842D6D94FF034
:1047DC0084424FF080710323C2F88810236010BD0F
:1047EC0014F008FD0B4A0C4B12681B68801A8342AC
:1047FC00C4D84FF084434FF08072C3F8842014F077
:10480C00F9FC034A04231060236010BD18B5032083
:10481C003C70012074B201201CB50320104B1B7896
:10482C00DB0700D4704710B50E4C14F0E3FC0E4BB4
:10483C002268801A4008186014F0DCFC0B4B2060D6
:10484C001B783BB90A4A01200A490B4B12680870C5
:10485C001A6010BD094B01221A60FFF77FFFF1E7C8
:10486C00F0B7032074B201201CB50320EAB7032073
:10487C0010B40320DBB7032078B2012018B5032055
:10488C00104B1B789B0700D4704710B50E4C14F0DE
:10489C00B1FC0E4B2268801A4008186014F0AAFC78
:1048AC000B4B20601B783BB90A4A01200A490B4B81
:1048BC00126808701A6010BD094B01221A60FFF7CC
:1048CC004DFFF1E7F0B7032074B201201CB50320B3
:1048DC00EAB7032010B40320DDB7032080B2012017
:1048EC0018B50320092809D80138082828D8DFE88A
:1048FC0000F00C0F1215181B1E212400FF2802D1EA
:10490C00114B18887047002070474DF60500704712
:10491C004DF6060070474DF6070070474DF608003F
:10492C0070474DF6090070474DF60A0070474DF67A
:10493C000B0070474DF60C0070474DF60D0070479C
:10494C004DF60400704700BF96510020092809D885
:10495C000138082820D8DFE800F00C0F11131517C8
:10496C00191B1D000D4B0E4AFF2808BF1346184695
:10497C0070470C4B184670470B4BF8E70B4BF6E7A0
:10498C000B4BF4E70B4BF2E70B4BF0E70B4BEEE763
:10499C000B4BECE70B4BEAE70B4BE8E7F010002076
:1049AC001C11002044140020541400206414002016
:1049BC007C14002074140020FC1000200411002032
:1049CC008C2900200C1100204C14002070B50546D9
:1049DC00204E0C4620482A46204914F069F93378B9
:1049EC009A0707D4DB0711D41D491B48BDE870405A
:1049FC0014F05EB91B49184814F05AF900222946E4
:104A0C00204616F079F83378DB07EDD5164E1749AA
:104A1C00114814F04DF9736DF021186803681B6888
:104A2C00984755B1013C2544736D14F8011F186863
:104A3C0003681B689847A542F6D1736DF721186877
:104A4C0003681B68984706490348BDE8704014F09A
:104A5C002FB900BFF6B7032048420020880700207A
:104A6C00C4070020A80700202C6F0120B4070020E9
:104A7C00F72813D0124938B50B78124C5B00124D45
:104A8C002268DBB20B7023F07F0310491843531CD0
:104A9C008B422360A85403DC002038BD01207047F2
:104AAC0027210B4816F012FE21680A4814F0D8F89A
:104ABC00084814F0E1F80123074A1846137038BD72
:104ACC00D3B70320E8B30220C8B301201F000100B4
:104ADC00101400204842002005B8032010B51C4CCF
:104AEC00034622680A2A2AD8DFE802F0060B271AA6
:104AFC000F0F0F0F0F0F20000022164816490260EF
:104B0C000A70F02B08D0002010BDFFF7B1FFD0B910
:104B1C0023680133236010BD02230020236010BDE5
:104B2C000E49042200200B70226010BDFFF7A0FF7D
:104B3C0048B903230020236010BD6928F9D0012354
:104B4C000020236010BD01231846236010BD00BF58
:104B5C0064710120E8B3022005B80320D3B7032009
:104B6C002DE9F0474FF0000A82B05346CD1802EB06
:104B7C000A0403F107084FF0000CAAEB030715F821
:104B8C0001EB4FEA4C0C01331EF0800F5FFA8CFCEA
:104B9C000EF07F0607EB030918BF4CF0010C8342A3
:104BAC0004F8016F06DA4345E9D102F80AC00AF1AC
:104BBC00080ADBE702F80AC002460549CDF8009066
:104BCC00044814F075F809F1010002B0BDE8F08753
:104BDC00C01300204842002010B5FA20174C14F0E6
:104BEC00B5FA01223C2116480BF068FC154A164B0D
:104BFC00126820701A6000B910BD2421134816F0F9
:104C0C0065FD134814F038F80121112014F058FBFD
:104C1C000121102014F054FB0021112014F014FB7E
:104C2C000021102014F010FB0A481DF009FB0A4962
:104C3C00084809F031FB207810BD00BFDFB7032016
:104C4C00C06B002010B4032060700120E817002016
:104C5C00484200202C61002040420F0070B50669CC
:104C6C0004467568013D756075BB33681F4ADB6A85
:104C7C0093422CD1B06D10B116F0D2FEB565336DE8
:104C8C0063B306F1180010F09FFE2569E5B12B689F
:104C9C00174A5B68934225D1164BA86D2B6018B14F
:104CAC0016F0BEFE0023AB652B6D05F118068BB11B
:104CBC00304610F089FE104B3046AB6010F084FE8D
:104CCC005C21284614F062FE0023236170BD30463F
:104CDC009847DAE76B6D002BEAD1ECE7736D002B8C
:104CEC00CFD1D2E728469847EEE700BF4501000038
:104CFC00C9090000E436002038340020064A036954
:104D0C0010B5044602600BB1FFF7A8FF2046142132
:104D1C0014F03CFE204610BD94360020012BF0B55B
:104D2C00054695B03DD0022B40F2022001F1040162
:104D3C000CBF03460023684610F060FF129B002B4B
:104D4C0038D05C20002614F01FFE214B04AF044623
:104D5C00C0E90036019B3946183040F80C3C1D4B1D
:104D6C0040F8103C029B40F8083C9DF80C3000F8D1
:104D7C00043C10F0E7FD184B4FF47A72A665A36063
:104D8C00164B6E602B6063682E730133AA602C6126
:104D9C006360134B3846009310F016FE284615B08E
:104DAC00F0BD44F202230431684610F027FF129B39
:104DBC00002BC6D1139B002BC3D14FF47A71074A39
:104DCC0004AF2B732A602B61C5E90131E1E700BF09
:104DDC00E436002040370020C036002094360020F6
:104DEC0038340020F0B502469DB0A049A04801928D
:104DFC0013F05EFF9F4C019A9F49A04817F004FBEB
:104E0C0000239E4A08A89E49FFF788FF236913B127
:104E1C002046FFF723FF0C992161002900F0E28066
:104E2C000B68984ADB6B93424FF0000240F008810C
:104E3C004FF47A74944E18310CA88DF82C200896E7
:104E4C00CDE90924CDE91A2210F02AFE1A9B002B79
:104E5C0000F0D2805C20002514F096FD8B4B0446AC
:104E6C000CA9C0E90035099B183040F80C3C884B64
:104E7C0040F8103C0A9B40F8083C9DF82C3000F898
:104E8C00043C10F05FFD63684FF47A72A565013342
:104E9C00049505928DF818500794C4E901367D4BA2
:104EAC0003937D4B0CA8089310F08EFD7B4C23696B
:104EBC0013B12046FFF7D2FE079B7048236118F010
:104ECC00AFF801466D4816F001FC694813F0D4FEAA
:104EDC002069F8B10368724A1B6B934217D1036DBA
:104EEC00002B00F095800B216E4816F0EFFB60480C
:104EFC0013F0C2FE206900B303686B4A9B6A9342AD
:104F0C001AD1036D002B00F09180DB6916E09847F5
:104F1C000028E8D10F21654816F0D8FB544800242E
:104F2C0013F0AAFE0521624816F0D0FB504813F08E
:104F3C00A3FE20461DB0F0BD984703465D4F0621E9
:104F4C005D483B6016F0C2FB2569002D73D02B68C1
:104F5C005A4A5B6B934240F08380AE6D002E00F09A
:104F6C00B980304618F05CF80146304616F0AEFBBE
:104F7C003F4813F081FE0621514816F0A7FB002391
:104F8C000A2239683A4813F0A1FE394813F074FE2E
:104F9C002569002D52D02B684A4A9E68964259D1F9
:104FAC00286D002839D04FF4005247490EF0FEFA14
:104FBC002569002D42D02B68DB6A444A934246D1C6
:104FCC00A86D18B116F02CFD0023AB652B6D002BD2
:104FDC0039D005F1180010F0F7FC30483A4CFFF7C7
:104FEC003DFE9FE74FF47A722A4B04918DF818100E
:104FFC0005920393079159E71B9B002B7FF42AAF73
:10500C00244A8DF8183003920793CDE9043448E70D
:10501C00436D002B7FF467AF7CE7686D0028CBD025
:10502C004FF4005228490BF0A9FEC1E7436D002B49
:10503C0084D01B6982E72946254E96E7224C71E7FE
:10504C0003A8984732E76B6D002BC2D1C5E7284601
:10505C009847C2E74FF400521B492846B047A7E7D0
:10506C00284698470646002E82D07AE7A0090020F1
:10507C00484200203C4A0020CC090020006E012050
:10508C00C85900205D050000C0360020E436002021
:10509C00403700209436002038340020204800206F
:1050AC002D010000DC09002041050000F80900205A
:1050BC00080A0020E46D0120E8090020F901000035
:1050CC00F0090020AD0600006891012045010000A8
:1050DC00CC3E00204FF4807016F09AFC0146A86577
:1050EC00B0B10670286D40B14FF4807210F018F812
:1050FC00AE6D002E3FF43CAF33E7686D18B14FF442
:10510C0080720DF00DFCAE6D002E3FF431AF28E730
:10511C00014B1E46AB6524E7D2B70320104BD3F8E6
:10512C00840410B558B1002308220E4900F589609B
:10513C000FF096FB0B48BDE8104013F09DBDD3F863
:10514C008844002CF6D00346082204F589600549F2
:10515C000CF07AFA0348BDE8104013F08DBD00BF87
:10516C00C8590020484200202DE9F04F05460E4654
:10517C009FB0B14933462A46B048B14F13F098FD61
:10518C0000232A46AF490AA8FFF7C8FD3B6913B1B3
:10519C003846FFF763FD0E993961002900F0DD8177
:1051AC000B68A94ADB6B934240F039820DF1380B46
:1051BC0000224FF47A74DFF8D882183158460B92DB
:1051CC008DF834200C94CDF82880CDE91C2210F0F9
:1051DC0067FC1C9B002B00F0E2815C204FF0000967
:1051EC0014F0D2FB0B9B0446C0F80490C3605946E4
:1051FC000C9B183040F8083C9DF8343000F8043C07
:10520C00924B40F8183C924B40F8103C10F09AFB33
:10521C006368C4F808800133C4F85890CDF818902E
:10522C0063604FF47A738DF820900793894B09943F
:10523C000593894B58460A9310F0C6FB874C23699B
:10524C0013B18648FFF70AFD09982061002800F089
:10525C0092810368DFF83C921A6B4A4540F0E38177
:10526C00026D002A00F08F819B6A7D498B4240F0D1
:10527C00A281D0692569DFF820A2CAF80000002DB0
:10528C0000F08A822B68774A5B6B934240F019825C
:10529C00AA6D002A00F02F823F21734817F070F896
:1052AC00714A7249654813F003FDDAF80020704921
:1052BC00624813F0FDFCDAF80020B2F5004F00F262
:1052CC009581256935B32B686A49D3F808808845E0
:1052DC0040F00582286D002800F0B28166490EF07E
:1052EC0065F92569B5B12B68DB6A644A934240F0D5
:1052FC00DD81A86D18B116F093FB0023AB652B6D07
:10530C00002B00F0BB8105F1180010F05DFB534839
:10531C00FFF7A4FC10215A4816F0D8F9474813F0AF
:10532C00ABFC0023324647490AA8FFF7F7FC3B6960
:10533C0013B14348FFF792FC0E993961002900F034
:10534C0060810B68404ADB6B934240F0BE810DF1EB
:10535C00380B00224FF47A75DFF834811831584637
:10536C000B928DF834200C95CDF82880CDE91C22B9
:10537C0010F096FB1C9B002B00F06A815C20002730
:10538C0014F002FB0B9B05464760C36059460C9B0F
:10539C00183040F8083C9DF8343000F8043C2B4B96
:1053AC0040F8183C2A4B40F8103C10F0CBFA6B68D4
:1053BC00C5F808800133AF6506976B604FF47A73BC
:1053CC008DF820700793234B09950593224B584673
:1053DC000A9310F0F9FA236913B12048FFF73EFC49
:1053EC0009982061002860D003681B6B4B4540F086
:1053FC007081036D002B00F03781FDF79DFE214974
:10540C0002460E4813F054FC2069FDF795FE334616
:10541C00FF2100901C4A1D4816F0B2FF094BD3F82F
:10542C008414002900F02F810023184A0AA80A933B
:10543C0001230EF067F831E0940C00204842002064
:10544C003C4A0020C85900205D050000E4360020CD
:10545C0040370020943600203834002020480020AB
:10546C0041050000F901000088B20120A80C0020C1
:10547C00B40C0020AD060000E4ED00204501000056
:10548C00E80C0020FC0C0020180D0020C8B20120F4
:10549C00C03600202D010000E46D0120002840F0F2
:1054AC006F81A149A148FDF70BFFA14A3346FF21AB
:1054BC00A0480092A04A16F063FF0B219F4816F0FB
:1054CC0005F99C4817F0ACFD01469A4816F0FEF819
:1054DC00964813F0D1FB01230AA8964A9849FFF786
:1054EC001DFC236913B19748FFF7B8FB0E98206198
:1054FC00002866D003681A6B4A455FD1026D002AFA
:10550C0000F0B780DAF80020DB688F498B4240F05E
:10551C003181036D002B00F0E6808C4918460EF0AB
:10552C0069FC2469B4B12368894ADB6A934240F070
:10553C002481A06D18B116F073FA0023A365236DB6
:10554C00002B00F0EC8004F1180010F03DFA7D48BF
:10555C00FFF784FB1FB0BDE8F08F4FF47A73794CE2
:10556C00069107937B4B8DF82010059323690991C5
:10557C00002B7FF466AE2A4677496C481FB0BDE815
:10558C00F04F13F095BB426D002AF4D09B6A734A1E
:10559C00934210D1406D78B1006925696BE61D9B73
:1055AC00002B7FF41AAE8DF820300993CDE9063428
:1055BC00684B05933DE6984725695CE690470028C3
:1055CC0077D11F21664816F081F85A4817F028FD4C
:1055DC000146584816F07AF80D21624816F076F814
:1055EC0052481FB0BDE8F04F13F046BB4FF40042D9
:1055FC005D494E4813F05CFB4FF40042CAF80020A2
:10560C005FE64FF47A7306918DF820100793514B97
:10561C00099105932369002B7FF4DFAE45E7002247
:10562C0005A898470AE690470028A4D020690028CE
:10563C0040F0B780DFF838A14C4ACAF800002BE6DE
:10564C00686D00283FF450AE40490BF097FB48E6DC
:10565C001D9B002B7FF492AE8DF820300993CDE981
:10566C0006353C4B0593B1E6436D002B7FF4C5AE7C
:10567C001BE7426D002A7FF445AFA2E76B6D002B50
:10568C007FF441AE43E6D3F88834002B3FF409AFE6
:10569C0016910AA81946274A01230BF013FF00287C
:1056AC003FF4FFAE0AA80CF0AFF8FAE6284698478C
:1056BC002DE62069DAF8002000283FF44BAF036890
:1056CC0022E7284698470246E6E5002205A89847B7
:1056DC0081E6984700283FF4E8AE20698DE628461D
:1056EC001A49C047FDE5406D18B118490CF056FC3D
:1056FC0017E7246917E74FF48070039216F088F9C6
:10570C000146A865002849D0039A0270286D00282C
:10571C003AD04FF480720FF003FDAA6DBCE5636DB7
:10572C00002B7FF410AF12E7200D00204842002020
:10573C0088B20120C8B201203C0D0020440D00208D
:10574C00C85900202048002091070000E4ED0020FB
:10575C004501000094360020800D0020410500001A
:10576C00500D0020700D0020C00C0020CC3E0020FD
:10577C00E46D012010499847D3E620469847E6E6A9
:10578C000AA80EF0C5FF8CE6686D18B14FF4807254
:10579C000DF0C6F8AA6D7FE5084A7DE5084AAA65B2
:1057AC007AE50368074A9B6A93427FF404AF026D63
:1057BC00002A7FF45EADEDE6E4ED0020CC3E002047
:1057CC00D2B703204105000030B59BB004460D460E
:1057DC000346094A302102A816F0D2FD2B46074A8F
:1057EC0030210EA8009416F0CBFD0EA902A8FFF7ED
:1057FC00BBFC1BB030BD00BF8415002094150020ED
:10580C002DE9F0470D469CB006460821AF481746D7
:10581C00984615F05BFF35B1284617F001FC0146A0
:10582C00284615F053FFAA48AA4C13F025FA00237A
:10583C003246A94908A8FFF771FA236913B120462B
:10584C00FFF70CFA0C992161002900F01A810B6802
:10585C00A24ADB6B934240F08A8100224FF47A74A7
:10586C00DFF8BCA218310CA809928DF82C200A94F0
:10587C00CDF820A0CDE91A2210F012F91A9B002BBA
:10588C0000F017815C204FF0000914F07DF8099BA3
:10589C000446C0F80490C3600CA90A9B183040F869
:1058AC00083C9DF82C3000F8043C8D4B40F8183C1B
:1058BC008C4B40F8103C10F045F86368C4F808A015
:1058CC000133C4F85890CDF8109063604FF47A739C
:1058DC008DF818900593844B07940393834B0CA875
:1058EC00089310F071F8824C236913B18048FFF7CC
:1058FC00B5F907982061002855D003687D4A1B6BC9
:10590C00934240F03881036D002B00F0CD801421C0
:10591C00794815F0DBFE2369002B00F003811A682F
:10592C007649526B8A4240F03F81D3F85890B9F1D6
:10593C00000F00F04581484617F072FB01464846BF
:10594C0015F0C4FE624813F097F9D4F81090B9F131
:10595C00000F00F01581D9F80030684A5B6B934258
:10596C0040F02A81D9F85830002B00F0438164496B
:10597C003246644816F048FD574BD3F8841400297E
:10598C0000F0DC8000235F4A08A8089301230DF087
:10599C00B9FD002840F004811B215B4815F096FEF0
:1059AC004B4813F069F92B4632465549554816F0C9
:1059BC002BFD1121554815F089FE524817F030FB8C
:1059CC000146504815F082FE414813F055F9012369
:1059DC0008A84C4A4049FFF7A1F9236913B1444880
:1059EC00FFF73CF90C982061002835D00368414939
:1059FC001A6B8A422CD1026D002A51D0DB68444AC2
:105A0C00934240F0C480036D002B00F08F8042461F
:105A1C00394618460EF0EEF92469B4B123683D4AB4
:105A2C00DB6A934240F0B780A06D18B115F0F8FF17
:105A3C000023A365236D002B00F0A48004F1180053
:105A4C000FF0C2FF2A48FFF709F91CB0BDE8F08738
:105A5C009047002840F085801F212F4815F036FE16
:105A6C00284817F0DDFA0146264815F02FFE0D21C7
:105A7C002A4815F02BFE16481CB0BDE8F04713F071
:105A8C00FBB84FF47A731A4C04910593164B8DF8AE
:105A9C001810039323690791002B7FF427AF82E73B
:105AAC00426D002AAAD1D7E7436D002B7FF42FAFAC
:105ABC0079E71B9B002B7FF4E5AE8DF8183007932C
:105ACC00CDE90434084B039308E700BF28090020F4
:105ADC00484200203C4A0020C85900205D050000C7
:105AEC00E436002040370020943600203834002063
:105AFC00204800202D01000034090020F90100008D
:105B0C00180D0020C8B20120200D00204C090020E7
:105B1C009107000045010000500D0020700D002081
:105B2C00C03600201946DFF83C9108E7406D00288C
:105B3C0034D0424639460CF031FA6DE7D3F888344C
:105B4C00002B3FF429AF149108A81946444A0123AD
:105B5C000BF0B8FC00283FF41FAF08A80BF054FE64
:105B6C001AE7206900283FF470AF036846E700226B
:105B7C0003A89847B7E6984700283FF414AFC6E649
:105B8C00384BF4E6636D002B7FF458AF5AE742466E
:105B9C003946984740E72046984753E724693DE744
:105BAC0008A80EF0B5FDF7E6184690478146B9F106
:105BBC00000F3FF4C7AEBEE6484698470346D6E60C
:105BCC004FF48070019315F023FF019B01469865FB
:105BDC00002841D080F80090186D00B34FF480720B
:105BEC000FF09EFA019BD3F85890B9F1000F3FF4D7
:105BFC00A9AEA0E64FF48070019315F009FF0146A1
:105C0C00C9F8580020B3019B0370D9F85000A8B113
:105C1C004FF480720FF084FAD9F85830A7E6586D1B
:105C2C0028B14FF4807201930CF07AFE019BD3F8EB
:105C3C005890B9F1000F3FF485AE7CE6D9F85400CA
:105C4C0018B14FF480720CF06BFED9F858308EE618
:105C5C00054BC9F858308AE6034A91469A656AE6BC
:105C6C00C8B20120CC3E0020D2B70320294B0344FC
:105C7C0010B50446092B47D8DFE803F0191E23287A
:105C8C002D32373C41050621234815F01FFD01211B
:105C9C00224815F01BFD214600231022204813F04A
:105CAC0015F802211F48BDE8104015F00FBD052165
:105CBC001D4815F00BFDEAE706211C4815F006FD02
:105CCC00E5E706211A4815F001FDE0E70621194821
:105CDC0015F0FCFCDBE70721174815F0F7FCD6E7BD
:105CEC000521164815F0F2FCD1E70521144815F0F2
:105CFC00EDFCCCE70721134815F0E8FCC7E70821B9
:105D0C00114815F0E3FCC2E70821104815F0DEFC41
:105D1C00BDE700BFFC27FFFF3815002058150020F9
:105D2C00484200205C150020F814002000150020CB
:105D3C000815002010150020181500202015002033
:105D4C002815002030150020401500204C1500208F
:105D5C00FF2994460AD04B4B0344092B12D8DFE899
:105D6C0003F0171C21262B30353A3F12454B0344C8
:105D7C0010B4092B47D8DFE803F08238494B4D5853
:105D8C006470728070470A4660463F4916F03CBB0F
:105D9C000A4660463D4916F037BB0A4660463C4908
:105DAC0016F032BB0A4660463A4916F02DBB0A463D
:105DBC006046394916F028BB0A466046374916F04A
:105DCC0023BB0A466046364916F01EBB0A4660469F
:105DDC00344916F019BB0A466046334916F014BB19
:105DEC000A466046314916F00FBB314B07CBCCF855
:105DFC00000018889B78ACF80C00CCF80410CCF898
:105E0C0008208CF80E305DF8044B7047294BEDE7F9
:105E1C00294BEBE7294C0FCCCCF80000CCF8041044
:105E2C00CCF80820CCF80C30EDE7254B07CB1B88C1
:105E3C00CCF80000CCF80410CCF80820ACF80C30EE
:105E4C00E1E7204B07CB1B78CCF80000CCF8041012
:105E5C00CCF808208CF80C30D5E71B4BC6E71B4C54
:105E6C000FCCCCF800002078CCF80410CCF808202B
:105E7C00CCF80C308CF81000C5E7154BB6E7154B79
:105E8C00D4E700BFFC27FFFFB81900205C190020E5
:105E9C004419002070190020A0190020E4190020DA
:105EAC00D019002030190020181900208819002062
:105EBC0094180020B4180020D818002008190020CD
:105ECC00F81800208418002074180020C418002032
:105EDC00E8180020A418002070B5144696B00B46A4
:105EEC00024668496848009416F08EFA0023664A08
:105EFC0002A866490FF082FE149B002B6FD05C2029
:105F0C00002513F041FD0399049A0446604B45604B
:105F1C000360604BC0E903129DF8142006A983604E
:105F2C00183000F8042C0FF00DFD63685A4A06A8CF
:105F3C000133A565A260594D594A636002920FF076
:105F4C0043FD2B6913B12846FEF788FE2368554A9A
:105F5C001B6B2C61934267D1236D002B4FD02869AA
:105F6C000368514A9B6A934240F08280036D002B78
:105F7C0050D0D8692C691828024628BF18224B4BE0
:105F8C004B4918600023C1E90033C1E90233C1E970
:105F9C0004330B7604B3236846489E68864261D16D
:105FAC00206D002854D00DF001FB2C69A4B123689E
:105FBC00DB6A414A934258D1A06D18B115F030FDFF
:105FCC000023A365236D002B48D004F118000FF0BB
:105FDC00FBFC3248FEF742FE354816B070BD159CEE
:105FEC00002C8CD12E4B06A82C4D02930FF0ECFC00
:105FFC002B693BB12846FEF731FE2C6102E0636D44
:10600C00002BACD12D4B2A4C0FCB07C42848237046
:10601C0016B070BD426D002A31D010692C69182859
:10602C00024628BF1822AAE7204698470028E9D044
:10603C002869002894D11E491C4B086018604861DF
:10604C000876C1E90100C1E90300194816B070BD1A
:10605C00606D0028ACD00AF091FEA6E7636D002BB2
:10606C00B3D1B6E72046B0479FE720469847B0E744
:10607C009847182802462C6928BF18227FE72C69FC
:10608C0010467CE7A00D002088B20120CC590020DE
:10609C00E436002040370020C03600202048002085
:1060AC00383400202D01000041050000E46D012072
:1060BC00E4ED0020AD06000045010000AC0D002011
:1060CC0038B50D46044619214C4815F0FFFA0A2242
:1060DC00002329464A4812F0F9FD494812F0CCFD3C
:1060EC00E20712D4A3071CD4600726D4210730D4AE
:1060FC00E2063AD4A30644D460064ED4210658D402
:10610C00E20562D4A3056CD438BD4DF60B003D4AB4
:10611C002946FFF71DFE29463B48FFF755FBA30711
:10612C00E2D54DF60A00374A2946FFF711FE3748EB
:10613C002946FFF749FB6007D8D54DF60500314AD3
:10614C002946FFF705FE29463148FFF73DFB21079D
:10615C00CED52C4A4DF604002946FFF7F9FD294609
:10616C002C48FFF731FBE206C4D54DF60600254A54
:10617C002946FFF7EDFD29462748FFF725FBA30627
:10618C00BAD54DF60C001F4A2946FFF7E1FD23480E
:10619C002946FFF719FB6006B0D54DF60700194AE2
:1061AC002946FFF7D5FD29461D48FFF70DFB2106B3
:1061BC00A6D5144A4DF60D002946FFF7C9FD294610
:1061CC001848FFF701FBE2059CD54DF609000D4A76
:1061DC002946FFF7BDFD29461348FFF7F5FAA3053D
:1061EC0092D529464DF60800064AFFF7B1FD29461F
:1061FC000E48BDE83840FFF7E7BA00BF6015002035
:10620C0048420020006E0120381400204014002069
:10621C00441400204C140020541400208C2900201D
:10622C00641400207C150020741400207C140020C1
:10623C002DE9F04304469DB00D46164600214FF45F
:10624C000042A94816F00AFB0821A84815F03EFAAE
:10625C0034B1204616F0E4FE0146204615F036FA1D
:10626C00A34812F009FD2246A24C0023A24908A81B
:10627C00FEF754FD236913B12046FEF7EFFC0C9991
:10628C002161002900F0D6800A68D46B9B4A9442A5
:10629C004FF0000240F01B814FF47A74DFF8A882B3
:1062AC0018310CA809928DF82C200A94CDF8208076
:1062BC00CDE91A220FF0F4FB1A9B002B00F0F380AF
:1062CC005C20002713F060FB099B04464760C36009
:1062DC000CA90A9B183040F8083C9DF82C3000F8AB
:1062EC00043C874B40F8183C864B40F8103C0FF0B0
:1062FC0029FB6368C4F808800133A76504976360C1
:10630C004FF47A738DF8187005937F4B07940393B1
:10631C007E4B0CA808930FF057FB7D4C236913B1EF
:10632C007B48FEF79BFC07982061002800F09080CA
:10633C00036878491A6B8A4240F0CC80026D002ABF
:10634C0000F0A6809B6A74498B4240F0B880D069FB
:10635C00DFF8EC810621C8F80000704815F0B6F99A
:10636C002769002F00F0AF803B686D4A5B6B93424E
:10637C0040F0F980D7F85890B9F1000F00F0068181
:10638C00484616F04DFE0146484615F09FF9584810
:10639C0012F072FC0621634815F098F90A220023CA
:1063AC00D8F80010524812F091FC514812F064FCDD
:1063BC002769D8F80020002F00F083803B685A49E9
:1063CC00D3F80890894540F0DD80386D002800F046
:1063DC00BD8045490DF0EAF82769002F71D03B6864
:1063EC005B6B4F4A934240F0C680BB6D002B00F0B4
:1063FC00E4804E4A182108A815F0C2FF2469B4B1F4
:10640C0023684B4ADB6A934240F0B980A06D18B107
:10641C0015F006FB0023A365236D002B00F09E8076
:10642C0004F118000FF0D0FA3948FEF717FCD8F831
:10643C00004023E0344B4FF47A72354C03932369BC
:10644C0004918DF8181007910592002B7FF468AF1A
:10645C003421384815F03AF9254812F00DFC002487
:10646C00354B03F8014F0134B4F5006FF9D1182204
:10647C00324908A816F08AFA314B1C60182208A978
:10648C002846346016F082FA17481DB0BDE8F08338
:10649C00426D002ADCD09B6A1F4A93420FD1436D98
:1064AC00FBB1186954E71B9B002B7FF409AF8DF8E7
:1064BC0018300793CDE90434134B039328E798471E
:1064CC0046E7204B95E73946DFF878905CE703A860
:1064DC00A04722E790470028BAD02069002840F056
:1064EC009680002034E700BFE4ED0020B00F0020C0
:1064FC00484200203C4A0020C85900205D0500009D
:10650C00E436002040370020943600203834002038
:10651C00204800202D01000041050000E809002062
:10652C00F9010000F0090020AD060000981A0020C7
:10653C0045010000BC0F0020E3ED0020F40F00200B
:10654C00E46D0120CC3E0020C0360020786D002880
:10655C003FF446AF35490AF011FC3DE7636D002B63
:10656C007FF45EAF60E7384698478146B9F1000F7B
:10657C003FF40DAF04E738469847034639E7204609
:10658C00984751E738462949C84725E74FF48070AA
:10659C0015F03EFA0146B865002843D080F800900B
:1065AC00386DE0B14FF480720EF0BAFDD7F8589008
:1065BC00B9F1000F3FF4EBAEE2E64FF480700193BB
:1065CC0015F026FA0146B865F0B1019B0370386DE1
:1065DC0090B14FF480720EF0A3FDBB6D09E7786D9E
:1065EC0018B14FF480720CF09BF9D7F85890B9F1B0
:1065FC00000F3FF4CCAEC3E6786D18B14FF4807247
:10660C000CF08EF9BB6DF4E6094BBB65F1E6036843
:10661C00084A9B6A93427FF452AF026D002A3FF402
:10662C003EAF94E6024B9946BB65A9E6E4ED00202B
:10663C00D2B703204105000010B538B34FF08443A6
:10664C004FF4801201211A20C3F8882012F038FE72
:10665C000121192012F034FE01211B2012F030FE12
:10666C0001211C2012F02CFE01210A2012F028FE20
:10667C0001210B2012F024FE01210C2012F020FE2F
:10668C0001211820BDE8104012F01ABE04461A2051
:10669C00214612F015FE2146192012F011FE21465A
:1066AC001B2012F00DFE21461C2012F009FE214683
:1066BC000A2012F005FE21460B2012F001FE2146A5
:1066CC000C2012F0FDFD2146182012F0F9FD4FF0C0
:1066DC0084434FF48012C3F8842010BD2DE9F84395
:1066EC000446002800F0D1807B4B1B78FBB97B4B18
:1066FC004FF4807206207A4FC3F88820794E7A4D79
:10670C0012F0CCFD98B179684FF4FA733268120C20
:10671C0003FB02F25208A5FB0232120A7B685B1AD9
:10672C009A42FBD8062012F0B9FD0028EBD10121CA
:10673C00262012F0C5FD4FF084464FF08053012106
:10674C0025204FF40025C6F8843012F0B9FD674BB4
:10675C0001210F20C3F8845012F0B2FDC6F8885006
:10676C004FF400130125C6F888302946212012F079
:10677C00A7FD294622204FF0844612F0A1FD2946A0
:10678C0023204FF4802712F09BFD29462420DFF8AC
:10679C00648112F095FD294620204FF4805912F0A7
:1067AC008FFD29461F2012F08BFD2946272012F061
:1067BC0087FD2946092012F083FD2946082012F096
:1067CC007FFD2946072012F07BFD29460E2012F092
:1067DC0077FD2946042012F073FD2946142012F08F
:1067EC006FFD29460220414D12F06AFD3B4B1021F2
:1067FC004FF000520020C3F884104FF08061C6F8AF
:10680C0084104021C3F884104FF40031C6F8847012
:10681C00C5F884104FF48031C5F884104FF4006132
:10682C00C5F884104FF48001C6F88420C8F8841091
:10683C004FF08051C5F88490C5F88470C5F8841069
:10684C00C5F884208022C3F88420FFF7F5FE0223CC
:10685C00C6F884900121C5F8843004234FF000421F
:10686C00C5F884304FF40053C5F88410C8F8847010
:10687C00C6F88420C6F884304FF08043C6F88430C4
:10688C0014B31B4B1C70BDE8F8830146262012F094
:10689C0017FD4FF084464FF08053214625204FF4CE
:1068AC000025C6F8843012F00BFD104B21460F204A
:1068BC00C3F8845012F004FD4FF40013C6F888504E
:1068CC002546C6F8843050E7052012F0BDFC084B75
:1068DC001C70BDE8F88300BF9D51002000C0004231
:1068EC00001000E0444200201123970800400042B1
:1068FC0006B803200080004228B10A4A136853B13D
:10690C00013313607047074B1868002801DD01380C
:10691C00186020B1704701201060FFF7DFBEFFF751
:10692C00DDBE00BFB86700208104634B4FF010023E
:10693C0060D5C104C3F884204FF084434FF08062CB
:10694C0060D50105C3F884205B4B4FF0400260D545
:10695C004105C3F884204FF084434FF4802260D566
:10696C008105C3F88420554B4FF4003260D5C10526
:10697C00C3F88420514B4FF4803260D50106C3F824
:10698C0084204E4B4FF4006260D54106C3F884203E
:10699C004FF084434FF0005260D58106C3F8842039
:1069AC00474B4FF4800260D5C106C3F88420434B9B
:1069BC004FF4805260D50107C3F884203F4B4FF44D
:1069CC00802260D54107C3F884203C4B4FF08052A5
:1069DC0060D58107C3F88420384B4FF0005260D546
:1069EC00C107C3F88420344B4FF0800260D5C3F844
:1069FC0084207047C104C3F888204FF084434FF0C3
:106A0C0080629ED40105C3F888202B4B4FF04002C6
:106A1C009ED44105C3F888204FF084434FF4802264
:106A2C009ED48105C3F88820244B4FF400329ED4A9
:106A3C00C105C3F88820214B4FF480329ED4010647
:106A4C00C3F888201D4B4FF400629ED44106C3F856
:106A5C0088204FF084434FF000529ED48106C3F837
:106A6C008820174B4FF480029ED4C106C3F88820AF
:106A7C00124B4FF480529ED40107C3F888200F4B61
:106A8C004FF480229ED44107C3F888200B4B4FF063
:106A9C0080529ED48107C3F88820084B4FF00052D7
:106AAC009ED4C107C3F88820034B4FF080029ED4BC
:106ABC00C3F88820704700BF00C00042004000426D
:106ACC000080004201064FF084434FF4805236D5CB
:106ADC004106C3F88420354B4FF0020236D58106AF
:106AEC00C3F88420314B4FF0040236D5C106C3F8ED
:106AFC0084202E4B4FF0010236D50107C3F88420B9
:106B0C002B4B4FF4802236D54107C3F884204FF02D
:106B1C0084434FF0004236D58107C3F884204FF0F0
:106B2C0084434FF4005236D5C107C3F884204FF08C
:106B3C0084434FF0804236D5C3F884207047410619
:106B4C00C3F88820194B4FF00202C8D48106C3F851
:106B5C008820164B4FF00402C8D4C106C3F8882015
:106B6C00124B4FF00102C8D40107C3F88820104B18
:106B7C004FF48022C8D44107C3F888204FF08443D7
:106B8C004FF00042C8D48107C3F888204FF08443EB
:106B9C004FF40052C8D4C107C3F888204FF0844387
:106BAC004FF08042C8D4C3F88820704700400042A0
:106BBC00008000424FF08442194B90689B68C0F3F0
:106BCC0000309907164B4FEAC0109B6848BF40F045
:106BDC0040005A07124B9B6848BF40F02000DB076F
:106BEC00104B9B6848BF40F0100059034FF0844392
:106BFC009B6848BF40F00800002B4FF084439B6813
:106C0C00B8BF40F004009A044FF084439B6848BF1F
:106C1C0040F002005B0048BF40F00100704700BF2D
:106C2C000040004200800042F8B50D4614464FF07B
:106C3C008447FFF779FE4FF4002301201B4EC7F861
