:0200000460009A
:100000004643464200000156000000000103030081
:1000100000000000000000000000000000000000E0
:1000200000000000000000000000000000000000D0
:1000300000000000000000000000000000000000C0
:1000400000000000010408000000000000000000A3
:100050000000800000000000000000000000000020
:100060000000000000000000000000000000000090
:100070000000000000000000000000000000000080
:10008000EB04180A063204260000000000000000FD
:10009000050404240000000000000000000000002F
:1000A0000000000000000000000000000000000050
:1000B0000604000000000000000000000000000036
:1000C0000000000000000000000000000000000030
:1000D00020041808000000000000000000000000DC
:1000E0000000000000000000000000000000000010
:1000F0000000000000000000000000000000000000
:10010000D8041808000000000000000000000000F3
:100110000204180804200000000000000000000095
:1001200000000000000000000000000000000000CF
:10013000600400000000000000000000000000005B
:1001400000000000000000000000000000000000AF
:10015000000000000000000000000000000000009F
:10016000000000000000000000000000000000008F
:10017000000000000000000000000000000000007F
:10018000000000000000000000000000000000006F
:10019000000000000000000000000000000000005F
:1001A000000000000000000000000000000000004F
:1001B000000000000000000000000000000000003F
:1001C000000100000010000001000000000000001D
:1001D000000001000000000000000000000000001E
:1001E000000000000000000000000000000000000F
:1001F00000000000000000000000000000000000FF
:10020000FFFFFFFFFFFFFFFFFFFFFFFFFFFFFFFFFE
:10021000FFFFFFFFFFFFFFFFFFFFFFFFFFFFFFFFEE
:10100000D100204325160060000000000000000011
:101010002010006000100060008C026000000000E2
:10102000000000600098020000000000FFFFFFFFCA
:10103000FFFFFFFFFFFFFFFFFFFFFFFFFFFFFFFFC0
:10104000FFFFFFFFFFFFFFFFFFFFFFFFFFFFFFFFB0
:10105000FFFFFFFFFFFFFFFFFFFFFFFFFFFFFFFFA0
:10106000FFFFFFFFFFFFFFFFFFFFFFFFFFFFFFFF90
:10140000884207D0904205D251F8043B40F8043B93
:101410008242F9D8704700BF884204D2002340F8C6
:10142000043B8142FBD870472DE9884800F0D0F991
:101430000824614B614AC3F8544161496148FFF790
:10144000DFFF614A61496248FFF7DAFF614962489C
:10145000FFF7E2FF614C4FF0E0214FF470000023F2
:101460005F4AC1F8880D44F823200133B02BFAD12C
:101470005C4B80215C4A03F8011B9342FBD14FF087
:10148000E0254D4E4FF08039DFF88CB1DFF88CA1AC
:101490004FF0FF31C5F8084D0027C6F80491C6F893
:1014A00000B1C6F8F490C6F8F0A0D5F8243DDFF8F6
:1014B000708143F4E0234D4AC5F8243DD8F81C3030
:1014C00023F07F0343F04003C8F81C30D8F82430E1
:1014D00023F07F0343F04003C8F824309166D166BF
:1014E0001167516700F07CF9414B4249A363424BBD
:1014F000E36363236B610323AF612B613F4BC5F84B
:10150000203DD5F8FC3D43F08073C5F8FC3D3C4BD5
:101510001A6842F001021A605B680B6000F09EFBE3
:10152000C6F804913748C6F800B1C6F8F490C6F87A
:10153000F0A000F045FDD8F86C10334B334A41F46D
:101540004051C8F86C101F60C3F80871C3F81871D7
:10155000C3F82871C3F83871936BDB0708D442F6DF
:1015600015632B4951651365936B43F00103936336
:10157000264A284C936843F00113936000F0ACF9BD
:1015800000F0D0FC00F010FD00F096FB00F0FCFC39
:101590002368132BFCD900F027FC2368B3F5967F52
:1015A000FBD300F01BF900F017F900F00DFD00F07F
:1015B000FFFC30BFFDE700BF00800D40C806020001
:1015C0002C28006000000000C05A0020F82E0260A5
:1015D0000000002060BC0320C05A002000580020FA
:1015E0001580010000E400E0A0E400E000C00A4033
:1015F0000D69010014B803201169010000002020CA
:10160000001000E00046C3230040084000400D40A9
:101610000000C05618B803201B1018200C0D111321
:1016200000C00F40074B4FF42A01074A07485A648D
:101630001864074A99639546BFF34F8FBFF36F8FC6
:10164000FFF7F2FE00C00A40FFABAAAA0700200085
:101650000080052043690A4A03EB011010B4037AA5
:10166000084C02EB0313D3E901321460C2681A601C
:1016700003690BB142691A605DF8044B704700BF03
:10168000A83E002061F801004369027E03EB0212CC
:1016900092F808C08C451CD01A7AFF2A19D09142C2
:1016A00010B5044616D01A7EFF2A06D00121D3E9D0
:1016B000002312681A4201D1217610BD064B052283
:1016C000204603EB0C135B681A60FFF7C3FF21761B
:1016D000F3E770470021EAE7A83E002043690A4A81
:1016E00003EB011010B490F82830084C02EB031300
:1016F000D3E901321460C26A1A60036B0BB1426B0A
:101700001A605DF8044B7047A83E002061F80100A4
:101710004369427E03EB021292F828C08C451ED02A
:1017200093F82820FF2A1AD0914210B5044617D00A
:1017300093F83820FF2A06D00121D3E9002312684C
:101740001A4201D1617610BD064B0522204603EBFB
:101750000C135B681A60FFF7C1FF6176F3E770470F
:101760000021EAE7A83E0020164942698B6B23F46A
:101770007C0343F4802370B58B630446124DD2E999
:1017800000130A681A4303690A60022200211A61E1
:101790000E4A19619A6401225A629D624FF43035F3
:1017A000DD624FF001159E6C1E6519629D651A6120
:1017B000017EFFF74FFF617E2046BDE87040FFF7D6
:1017C0008DBF00BF00C00F40B80B05053B3728197F
:1017D000704700BF704700BF704700BF00BF704731
:1017E00010B44FF0E023002110242B48C3F8941DBF
:1017F000C3F89C4D1124C3F8A00D2848C3F89C4D94
:101800001224C3F8A00D2648C3F89C4D254AC3F8FE
:10181000A00D254C42F015022448C3F89C4DC3F896
:10182000A00D234C2348C3F89C4DC3F8A00D224CB7
:10183000C3F89C2D2148224AC3F8A04DC3F89C0D43
:10184000C3F8A02D02F5A0221E4C0C321E48C3F88E
:101850009C4DC3F8A02D1D4AC3F89C0D1C4CC3F829
:10186000A02D01221B48C3F89C4DC3F8A00DC3F85E
:10187000942DBFF34F8FBFF36F8FC3F8501FBFF38B
:101880004F8FBFF36F8FD3F8142D5DF8044B42F4E4
:101890004032C3F8142D70473F00001025000803A4
:1018A0000900100060BC0320130020002100020783
:1018B0001400002025000813090000101600202045
:1018C00027000B1317000040180000602F000B07C3
:1018D000190000702F000B13F0B5B84B1822B84E4A
:1018E0000120B84F83B0C3F85C62B749C3F8607297
:1018F000B64DC3F86462A6F53046B54CC3F86862CD
:10190000C3F86C52C3F87052C3F87452C3F87852DB
:1019100048F20C75DA661A675A679A67DA67C3F88D
:101920008020C3F88420C3F88820C1F82C03A94A7A
:10193000C1F83003C1F83403C1F83803C1F83C03DF
:10194000C1F85003A169A44B0A40A448A449134319
:10195000A44AA361D4F8843043F00C03C4F8843063
:101960004FF0FF34036843F00203036003682B4029
:101970004FF400551A439C4B026044608A689B4CAC
:1019800013409B4A43F000538360C36823F07803FD
:10199000C360036A134023430362036A1340954AFA
:1019A0002343954C43628262C2620022D1F8B83070
:1019B00023F03F0343F00103C0F8B830D1F8BC3046
:1019C0008E4923F03F0343F00103C0F8BC3040F2DE
:1019D0000563026105660467C0F8803045664467A8
:1019E0000224C0F88430036823F00203036081619D
:1019F000834B8449C46143F8042B8B42FBD1774A63
:101A0000136843F001031360136813F00103FBD163
:101A10007A48022140F2F564906140F29940D16128
:101A200040F26641C2F8004242F20144C2F810128C
:101A30007549C2F82002C2F8301240F235417348AD
:101A4000C2F83442C2F84012714CC2F8500242F25D
:101A500001207049C2F854120121C2F86042C2F854
:101A600064025E48C2F8A030C2F8A430C2F8B010D8
:101A70004369DA07FCD5012300244FF4803257492B
:101A80004361C0F8A040C0F8A420C0F8B0304B6952
:101A9000DB07FCD5012300244FF400304F4A4B6193
:101AA000C1F8A040C1F8A400C1F8B0305369DF0705
:101AB000FCD501230024584848495361C2F8A0408E
:101AC000C2F8A400C2F8B0304B69DE07FCD5D1F8EB
:101AD000003145F60D5221209BB24861934265D1F9
:101AE00000244FF4802201233C48C1F8A040C1F8F3
:101AF000A420C1F8B0304369DD07FCD501234FF4C1
:101B000000040021354A4361C0F8A040C0F8A41089
:101B1000C0F8B0305369DC07FCD501234FF4000452
:101B20004FF480302D495361C2F8A040C2F8A400A0
:101B3000C2F8B0304B69D807FCD501234FF400043C
:101B40004FF40030254A4B61C1F8A040C1F8A40011
:101B5000C1F8B0305369D907FCD501234FF4000414
:101B60002D481E495361C2F8A040C2F8A400C2F833
:101B7000B0304B69DA07FCD5D1F8003145F60D528B
:101B800021209BB24861934250D008254FF40004B5
:101B900022490020224B234A009015705A1A012333
:101BA0002148224400F0FCF903B0F0BD1E4B002296
:101BB000C3E90022C3E9022203B0F0BD00801F4048
:101BC000F9B00100F910010000841F40F970010014
:101BD00000C00F40FFFCFF1F000300A000402A4090
:101BE00000802A401200FFFFFF37F700400000800E
:101BF00000FFF07CFF000F8363000200F05AF05AF0
:101C000000422A4000432A409F041830EB06180A7D
:101C10003806180A0632012604000300000000708E
:101C200000000070EFBB0320CCF100204FF4000453
:101C30004FF4802201230848C1F8A040C1F8A42035
:101C4000C1F8B0304369DB07FCD5012310254FF004
:101C5000807443619CE700BF00402A40F0B4154AFD
:101C600040274FF480314FF480564FF400554FF425
:101C7000404443F24200136913F0020F0ED113F4F3
:101C8000005F0FD013F4805F0ED0002BF3DA13F453
:101C9000803F0BD15B060BD5F0BC7047946151615E
:101CA0009061E8E75561E6E75661E4E79161E2E7B4
:101CB0005761E0E700800D403F4A03203F49F3EEC3
:101CC000095AD2F880304FF0000C9FED3D6A23F0A6
:101CD00001039FED3C5A30B4C2F88030C2F8900046
:101CE000D1F8E010384DCBB2384C39482B6007EEB4
:101CF000903A0B0DC1F30B21F8EEE77A06EE903A1D
:101D000007EE101A334BB8EEC77A2160F8EEE66A98
:101D1000314937EEC66A37EEC55A76EEC76A77EEB6
:101D2000E57A26EE266AC3ED006A25EE265AD2F839
:101D3000803067EEA64AC0ED007AC6EE275A2748E3
:101D400085EE276AC4EEA76A75EE875AFCEEE55A5F
:101D500036EE076A15EE904ABCEEC66A43EA0453B3
:101D600076EE877AC2F8803016EE103AD2F89041BB
:101D7000FCEEE77A01EA0341214317EE903AC2F8FC
:101D80009011C3F30B03D2F890110B431449C2F81E
:101D90009031D2F8803043F00203C2F88030114B0A
:101DA00080F840C0C1F840314FF0E023012230BC40
:101DB000C3F80821704700BF00810D4000441F4058
:101DC0000000AA420000B442D0B50120CCB50120E9
:101DD000D4B50120D8B501200000FF0F00E400E0D9
:101DE00000580020F5810100314B40F6617210B5BA
:101DF000C3F8202140F2044400F0DEF82D4A2E49B9
:101E0000D2F880302D4843F00303C2F880302C4BC9
:101E1000C1F8604102681A4203D1D1F8A8319A078B
:101E20001BD0254A4FF00041244B5963D2F8403172
:101E300043F00203C2F84031D2F840319B07FBD493
:101E40004FF400304FF0E0211C4B4FF00042C1F83E
:101E50008C0219209A6300F09FF8184A4FF08040D6
:101E6000154C002190630A20164B11604FF420722C
:101E7000C4F8A801184600F08BF84FF4800203461E
:101E80004FF4810040F243111860C4F858311A64CD
:101E90000D4B0E4AC4F84811C3F804224FF0E0225B
:101EA0004FF400310123C2F80C11C4F8403110BDC9
:101EB00000800D4000C00F4000002E4000900D40FB
:101EC000001C1E00000000200058002015840100A6
:101ED00008B50E4B1B6E9B0700D4FBBE72B60C4BB5
:101EE00000200C4AC3F8400103F160430A49A3F5FE
:101EF0005F2311649D46BFF34F8F4FF400130748D3
:101F0000074ADB6902609B68984700BF00441F4096
:101F100000002E4000C00A40030020000080202066
:101F2000000012EB104BA020104AD96E41F4403152
:101F300010B4D96640F23764D96E41F44071D96665
:101F400054649064936C1B06FCD4094A40F23761D8
:101F5000A02351649364936C13F08003FBD1054A72
:101F600013705DF8044B704700C00F4000400C40F8
:101F700000800C40DDBB0320F8B500BFF8BC08BCF6
:101F80009E467047000000005FF800F0F16A000014
:101F90005FF800F0E5AC01005FF800F0D5750100D6
:101FA0005FF800F0919D01005FF800F0F97E0100FC
:101FB0005FF800F0CD7C01005FF800F0518B01006C
:101FC0005FF800F0E57201005FF800F079B30100FE
:101FD00001010000D57D00009DC70000A9E80000B8
:081FE0002DF00000A16F0100CB
:101FE80000000000000000000000000000000000E9
:101FF80000000000000000000000000000000000D9
:1020080000000000000000000000000000000000C8
:1020180000000000000000000000000000000000B8
:1020280000000000000000000000000000000000A8
:102038000000000000000000000000000000000098
:102048000000000000000000000000000000000088
:102058000000000000000000000000000000000078
:102068000000000000000000000000000000000068
:102078000000000000000000000000000000000058
:102088000000000000000000000000000000000048
:102098000000000000000000000000000000000038
:1020A8000000000000000000000000000000000028
:1020B8000000000000000000000000000000000018
:1020C8000000000000000000000000000000000008
:1020D80000000000000000000000000000000000F8
:1020E80000000000000000000000000000000000E8
:1020F80000000000000000000000000000000000D8
:1021080000000000000000000000000000000000C7
:1021180000000000000000000000000000000000B7
:1021280000000000000000000000000000000000A7
:102138000000000000000000000000000000000097
:102148003F000000000000000000000000001FFC2D
:102158003F000000000000000000000000007FFCBD
:102168003F00000000000000000000000000FFFC2D
:102178003F00000000000000000000000001FFFC1C
:102188003F00000000000000000000000003FFFC0A
:102198003F00000000000000000000000007FFFCF6
:1021A8003F3F007E3F3FC0FF001FFF80000FF9FC4C
:1021B8003F3F007E3F7FF3FFC07FFFE0001FE1FC51
:1021C8003F3F007E3FFFFFFFE0FFFFE0000FC1FC45
:1021D8003F3F007E3FFFFFFFE1FFFFF0000781FC6C
:1021E8003F3F007E3FC1FF07F1F807F0000301FC05
:1021F8003F3F007E3F80FE03F00003F0000001FC3B
:102208003F3F007E3F00FC03F03FFBF1FFF801FC7D
:102218003F3F007E3F00FC03F0FFFFF1FFF801FCA9
:102228003F3F007E3F00FC03F0FFFFF1FFF801FC99
:102238003F3F007E3F00FC03F1FC03F1FFF801FC87
:102248003F3F00FE3F00FC03F1F803F0000001FCF3
:102258003F3F81FE3F00FC03F1F807F0000001FC5E
:102268003F1FFFFE3F00FC03F1FFFFF0000001FCF1
:102278003F1FFFFE3F00FC03F1FFFFF0000001FCE1
:102288003F0FFF7E3F00FC03F0FFFBF0000001FC66
:102298003F03FE7E3F00FC03F07FF3F0000001FCEB
:1022A8000000000000000000000000000000000026
:1022B8000000000000000000000000000000000016
:1022C8000000000000000000000000000000000006
:1022D80000000000000000000000000000000000F6
:1022E80000000000000000000000000000000000E6
:1022F80000000000000000000000000000000000D6
:1023080000000000000000000000000000000000C5
:1023180000000000000000000000000000000000B5
:1023280000000000000000000000000000000000A5
:102338000000000000000000000000000000000095
:102348000000000000000000000000000000000085
:102358000000000000000000000000000000000075
:102368000000000000000000000000000000000065
:102378000000000000000000000000000000000055
:102388000000000000000000000000000000000045
:102398000000000000000000000000000000000035
:1023A8000000000000000000000000000000000025
:1023B8000000000000000000000000000000000015
:1023C8000000000000000000000000000000000005
:1023D80000000000000000000000000000000000F5
:1023E80070C00F40C0000000120000001300000081
:1023F800D0841F4001000000FF000000FF00000023
:10240800000000000000000013000000130000009E
:10241800CC841F4001000000FF000000FF00000006
:1024280000000000000000001C00000001C70000C0
:1024380070C00F40000C00001100000011000000E7
:10244800E0841F40020000002C0000001200000081
:10245800E0841F400100000010000000110000008F
:10246800DC841F40020000002D0000001200000064
:10247800DC841F40010000001E0000000DC70000A2
:1024880080C00F4000000003190000001000000089
:10249800E8841F4001000000FF000000FF0000006A
:1024A80000000000000000001800000010000000FC
:1024B800E4841F4001000000FF000000FF0000004E
:1024C80000000000000000001F00000019C7000005
:1024D8000000600000000000000000000000000094
:1024E80000E0000000000000000000000000000103
:1024F800E00000000000000000000000000001F003
:102508000000000000000000000000000003F000D0
:1025180000000000000000000000000007F00000BC
:10252800000000000000000000000007F8000000A4
:10253800000000000000000000000FF80000000389
:10254800C0007E000001E0007F0FF800000003C01B
:1025580000FE000001E000FFEFF800000003C000EB
:10256800FE000001E000FFFFF800000003C000F0DB
:102578000000000F007FFE7FC0000003C000F000D5
:1025880000000F003FFE7FF83FF1FBCFFCFEF3BCDD
:102598003DEFE01FFE7FFF7FFBFFDFFEFEFFBC3D40
:1025A800EFE01FC6FFFF7FFBFFDFFEFEFFBC3DEF36
:1025B800E00FE3C7FE787BC3DE1EF0FFBC3DEF00F3
:1025C80007FF87FC787BC3DE1EF0F83C3DEF000177
:1025D800FFFFF0007BC3C01EF0F03C3DEF0001F3AD
:1025E8007FE03FFBC3CFFEF0F03C3DEF0003E33F4D
:1025F800807FFBC3DFFEF0F03C3DEF0007E73C00C7
:10260800787BC3DE1EF0F03C3DEF0007FFBE00788C
:102618007BC3DE1EF0F03C3DEF0007FFFE00787B39
:10262800C3DE1EF0F03C3DEF000FFFFE007FFBFF16
:10263800DFFEF0F03FFDEFE00FFFFF007FFBFFDF65
:10264800FEF0F03FFDEFE00FF9FF003E79F9CF9E75
:10265800F0F01F3DE7E01FF1FF0000000000000060
:1026680000000000001F80FF007FFFFFFFFFFFFF4B
:10267800FFFFFFE01C007F007FFFFFFFFEB46D88B7
:102688008D18E000001F007FFFFFFFFE95AD7DB5B0
:1026980077E000000F007FFFFFFFFEA5AD9D8D19BD
:1026A800E0000006007FFFFFFFFEB5ADEDB57EE060
:1026B8000000000118035400650065006E007300F7
:1026C800790020004D0049004400490018035400D7
:1026D800650065006E00730079006400750069008C
:1026E8006E006F000403090409029500030100C08D
:1026F80032080B0002020201000904000001020274
:10270800010005240010010524010101042402062A
:1027180005240600010705820310001009040100C2
:10272800020A0000000705030240000007058302B3
:102738004000000904020002010300000724010010
:1027480001250006240201010006240202020009F4
:102758002403010301020100092403020401010109
:1027680000090504024000000000052501010109D7
:102778000584024000000000052501010300000057
:1027880009029500030100C032080B000202020191
:1027980000090400000102020100052400100105DF
:1027A800240101010424020605240600010705820C
:1027B8000310000509040100020A000000070503D0
:1027C8000200020007058302000200090402000259
:1027D800010300000724010001250006240201016D
:1027E8000006240202020009240301030102010079
:1027F8000924030204010101000905040200020082
:1028080000000525010101090584020002000000FD
:1028180005250101030000000A060002EF0201403D
:0428280001000000AB
:10282C00000000000000000000000000000000009C
:10283C00000000000000000000000000000000008C
:10284C00F8B54FF084439D695A6915400DD0244F5B
:10285C0001269D6195FAA5F4B4FA84F457F8243056
:10286C0006FA04F49847A543F4D11E4B9D695A69A6
:10287C0015400DD01C4F01269D6195FAA5F4B4FAB4
:10288C0084F457F8243006FA04F49847A543F4D19D
:10289C00164B9D695A6915400DD0154F01269D6147
:1028AC0095FAA5F4B4FA84F457F8243006FA04F433
:1028BC009847A543F4D10F4B9D695A6915400DD02B
:1028CC000D4F01269D6195FAA5F4B4FA84F457F8DE
:1028DC00243006FA04F49847A543F4D1F8BD00BFA0
:1028EC002C4C002000400042AC4C002000800042E8
:1028FC002C4D002000C00042AC4D00200548064B7A
:10290C001B1AD90F01EBA301491002D0034B03B1E1
:10291C0018477047C05A0020C05A00200000000021
:10292C0008B5054B1BB105490548AFF30080BDE860
:10293C000840FFF7E3BF00BF00000000487401200F
:10294C000098026000207047704700BF036D0BB108
:10295C0001207047406D003818BF0120704700BF40
:10296C00704700BF10B50446806D18B119F0ACFE6D
:10297C000023A365236D2BB104F11800BDE81040B2
:10298C0013F078BE636D002BF6D110BD08B517207F
:10299C0017F0D8FA60B9084A13680133012B08DD27
:1029AC00064B012110601970054A064B12681A601B
:1029BC0008BD1360F8E700BF087301200BBC0320AF
:1029CC0018B8032078B60120054B1B78DB0706D519
:1029DC00044A01200449054B126808701A607047BC
:1029EC00FBBB032018B80320E3BB032080B60120F7
:1029FC00054B1B789B0706D5044A01200449054B5F
:102A0C00126808701A607047FBBB032018B80320CB
:102A1C00E5BB032088B6012010B50446806D00B1DB
:102A2C0010BD4FF4807019F047FEA065B0B10022C4
:102A3C00236D02703BB101464FF48072184613F0BF
:102A4C00C5F9A06D10BD636D002BE9D001464FF4A4
:102A5C008072184610F0BAFDA06D10BD014B1846DF
:102A6C00A36510BDDABB032038B5056D6DB10BB194
:102A7C00002038BD1146284611F036FE0028F7D04C
:102A8C002846BDE8384011F0D1BF446D002CEFD082
:102A9C0020460FF0AFF80028EAD02046BDE83840B9
:102AAC0010F060B88A79A2F150031B0622D402F20E
:102ABC006C72F0B54B7985B0046D01330D798E785D
:102ACC004F78DBB209784CB1204601960095CDE9E0
:102ADC000271022111F03EFF05B0F0BD406D0028DF
:102AEC00FAD001960095CDE9027102210FF07EFF1C
:102AFC0005B0F0BD00207047036D10B50C4682B0D8
:102B0C002BB30DF1060201A9184611F093F938B355
:102B1C00BDF80430BDF8062053EA020120D0C2F300
:102B2C00451C02F01F00D20AC3F34311400084F885
:102B3C0001C0A2705A0A013903F01F0302F5EA62C0
:102B4C002070012061712371A27102B010BD406D23
:102B5C0030B10DF1060201A90EF0F2FE0028D7D11A
:102B6C00002002B010BD00BF036D10B50C4682B042
:102B7C002BB30DF1060201A9184611F04BF938B32D
:102B8C00BDF80430BDF8062053EA020120D0C2F390
:102B9C00451C02F01F00D20AC3F34311400084F815
:102BAC0001C0A2705A0A013903F01F0302F5EA6250
:102BBC002070012061712371A27102B010BD406DB3
:102BCC0030B10DF1060201A90EF0A8FE0028D7D1F4
:102BDC00002002B010BD00BF30B5D0F880448FB0DB
:102BEC0013464CB100250A46684604F589610095E8
:102BFC0011F0E6F90FB030BDD0F884040028F9D0FC
:102C0C000A4600F5896168460C940FF083FE0FB0FC
:102C1C0030BD00BF10B5044600230A2216F0ACFEEE
:102C2C002046BDE8104016F07DBE00BF69B170B5FE
:102C3C00054608460C461BF033F82B680246214625
:102C4C0028465B68BDE87040184770470369D3B1EC
:102C5C000E4810B41C68E46884420FD1186D18B18A
:102C6C005DF8044B11F01CBF586D18B15DF8044BA6
:102C7C000FF0EABF00205DF8044B7047184623465E
:102C8C005DF8044B18470020704700BF9107000007
:102C9C00006990B10368154A1B69934225D1036DF5
:102CAC0063B1187810F0080007D0D8695B69C01AB6
:102CBC0048BF6FF00040704718467047436D002BBB
:102CCC00FAD093F8310010F00800F6D018691968A2
:102CDC005A69401A5B6862EB0303B0F1004F73F161
:102CEC000003EAD36FF00040704718472D0800002E
:102CFC00036973B11A68084952698A4207D1186D81
:102D0C0008B111F07DBB586D18B10EF05DBF1846BF
:102D1C0010474FF0FF3070470D060000036963B198
:102D2C001A68074992698A4208D1186D08B111F0E6
:102D3C000BBE586D08B10FF0E3BC70471846104736
:102D4C00FD060000036D13B1586900217047436DF7
:102D5C0013B1D3E90001704718461946704700BFFC
:102D6C00036D13B1D86900217047436D13B1D3E9DA
:102D7C000401704718461946704700BFF0B595B06E
:102D8C0000224FF47A74244F1831054604A88DF8AC
:102D9C000C200097CDE90124CDE9122213F0D6FCCA
:102DAC00129B002B2DD05C20002617F041FC019BC0
:102DBC0004464660C36004A9029B183040F8083CE6
:102DCC009DF80C3000F8043C144B40F8183C144BA4
:102DDC0040F8103C13F00CFC124B4FF47A72A760C5
:102DEC002B606368A66501336E602E73AA602C613C
:102DFC0063600D4B04A8009313F03CFC284615B0FF
:102E0C00F0BD139B002BCED1064A2B732A602B618D
:102E1C00C5E90134EDE700BF943A0020B83A002030
:102E2C00143B0020683A00200C380020036D13B1CD
:102E3C00184611F0E5BA406D08B10EF0C5BE4FF062
:102E4C00FF307047836C13B1184611F0D9BAC06CBF
:102E5C0008B10EF0B9BE4FF0FF307047036D33B1BF
:102E6C001B7813F0700F14BF012000207047406DC9
:102E7C0030B190F8313013F0500F14BF0120002006
:102E8C00704700BF10B50446006D80B1037813F095
:102E9C00700F00D110BD002111F026FC606D0028D0
:102EAC00F8D000220023BDE810400EF0A3BE606DE8
:102EBC000028EFD090F8313013F0500FEAD00022F8
:102ECC000023BDE810400EF095BE00BF036D13B19A
:102EDC00184611F0C1B9406D08B10EF0A5BD4FF008
:102EEC00FF307047836C00B583B063B101220DF1E4
:102EFC000701184611F0B0F901280CD19DF8070014
:102F0C0003B05DF804FBC06C28B101220DF1070180
:102F1C000EF08AFDF0E74FF0FF30F1E7036D13B1CF
:102F2C00184611F011BD406D08B10FF0E9BB7047A8
:102F3C00836C13B1184611F007BDC06C08B10FF0CB
:102F4C00DFBB7047036923B31968134A10B58C684B
:102F5C0082B0944214D1186D48B101220DF10701D1
:102F6C0011F07AF990B19DF8070002B010BD586DC0
:102F7C000028F8D001220DF107010EF055FDF1E704
:102F8C0001220DF107011846A047EBE74FF0FF3087
:102F9C00EBE74FF0FF307047AD060000836C13B1C8
:102FAC00184611F07DBDC06C08B10FF04DBE7047D6
:102FBC00036D13B1184611F073BD406D08B10FF0DD
:102FCC0043BE704700B5836C83B08DF8071043B1D6
:102FDC0001220DF10701184611F062FD03B05DF8F6
:102FEC0004FBC06C0028F9D001220DF107010FF091
:102FFC002BFE03B05DF804FB8A79A2F150031B068B
:10300C0022D402F26C72F0B54B7985B0046D0133A9
:10301C000D798E784F78DBB209784CB12046019649
:10302C000095CDE90271042111F094FC05B0F0BDBE
:10303C00406D0028FAD001960095CDE9027104216B
:10304C000FF0D4FC05B0F0BD00207047036D53B1F8
:10305C00187810F008000DD0D8695B69C01A48BF09
:10306C006FF000407047436DA3B193F8310010F03E
:10307C00080000D17047186919685A69401A5B68D2
:10308C0062EB0303B0F1004F73F10003F2D36FF066
:10309C00004070471846EDE7836C53B1187810F078
:1030AC0008000DD0D8695B69C01A48BF6FF00040AA
:1030BC007047C36CA3B193F8310010F0080000D135
:1030CC007047186919685A69401A5B6862EB030308
:1030DC00B0F1004F73F10003F2D36FF00040704772
:1030EC001846EDE700B5006983B08DF8071060B1A4
:1030FC000368104ADB68934215D1036D43B101227A
:10310C000DF10701184611F0CBFC03B05DF804FB80
:10311C00406D0028F9D001220DF107010FF094FD4C
:10312C0003B05DF804FB01220DF10701984703B0D1
:10313C005DF804FB9107000048B10368174A5B6B0C
:10314C00934210B5044616D1806D10B110BD1448D1
:10315C0070474FF4807019F0AFFAA065C8B1002227
:10316C00236D027053B101464FF48072184612F071
:10317C002DFEA06D10BDBDE810401847636D002BEF
:10318C00E4D001464FF48072184610F01FFAA06D7F
:10319C0010BD044B1846A36510BD00BFF90100001B
:1031AC00A0420020DABB032038B504460C4B806DDE
:1031BC00236018B119F088FA0023A365236D04F17C
:1031CC0018054BB1284613F055FA064B2846A36058
:1031DC0013F050FA204638BD636D002BF2D1F4E7A2
:1031EC00B83A00200C38002038B504460E4B806DE0
:1031FC00236018B119F068FA0023A365236D04F15C
:10320C0018056BB1284613F035FA084B2846A36015
:10321C0013F030FA20465C2117F00CFA204638BD2A
:10322C00636D002BEED1F0E7B83A00200C3800208B
:10323C0030B4029C11469C4634B1012C1CD0022C9B
:10324C000ED0002030BC7047056DF5B14FF0FF3348
:10325C00934274EB0C04F4D3284630BC11F044BAFE
:10326C00026D0AB3D36959184CF10003002BE8D155
:10327C00104630BC11F038BA026D62B1536959185E
:10328C004CF10003002BDCD1F2E7406D0028D8D0C4
:10329C0030BC0EF0AFBC406D0028D2D0D0E900237A
:1032AC008A184CEB0303F3E7406D0028C9D0D0E932
:1032BC00042330BC8A184CEB03030EF09BBC00BFFC
:1032CC0038B5044649B108460D461AF0E9FC2368A6
:1032DC00024629465B68204698472046BDE83840A0
:1032EC0016F020BB08B518F0DBFF10B908BD19F0BB
:1032FC001BF818F0D5FF0028F9D1012008BD00BF3C
:10330C0038B50446094D1121094819F033F8214606
:10331C0000230A22284616F02FFB284616F002FB43
:10332C0021460020BDE8384016F0B8BF40460020CA
:10333C00381C002010B5002016F0A0FE0446112108
:10334C00114819F017F800230A2221460F4816F0ED
:10335C0013FB0E4816F0E6FA022C01D8204610BDDD
:10336C0011210B4819F006F800230A2207481C46C5
:10337C00194616F001FB054816F0D4FA20462146F2
:10338C0016F08CFF204610BD241C00204046002067
:10339C00381C002038B50446094D1B21094818F08B
:1033AC00E9FF214600230A22284616F0E5FA2846B2
:1033BC0016F0B8FA21460120BDE8384016F06EBF71
:1033CC0040460020402B002038B50446094D1D21F5
:1033DC00094818F0CFFF214600230A22284616F090
:1033EC00CBFA284616F09EFA21460220BDE838405A
:1033FC0016F054BF40460020B829002070B5144682
:10340C000D461E46024623460549064816F0A6FA06
:10341C0044EA06012846BDE8704016F03FBF00BFE5
:10342C00742800204046002030B5032083B016F0ED
:10343C0025FE0446164D14F0010F1649164824F0CB
:10344C00F00308BF294614F0020F144A08BF28469F
:10345C00009113490190134816F080FA04F0F00320
:10346C00A02B03D104F00F0003B030BD0E490D4862
:10347C0016F074FA0323094A0C490A4816F06EFA3E
:10348C00A321032016F00AFF032003B030BD00BFB8
:10349C0018150020E4270020E8420020CC2B002047
:1034AC00EC27002040460020902B002074280020A0
:1034BC0030B5042083B016F0E1FD0446164D14F02F
:1034CC00010F1649164824F0F00308BF294614F0E2
:1034DC00020F144A08BF2846009113490190134863
:1034EC0016F03CFA04F0F003A02B03D104F00F000B
:1034FC0003B030BD0E490D4816F030FA0323094ACB
:10350C000C490A4816F02AFAA321042016F0C6FE2C
:10351C00032003B030BD00BF18150020E4270020A5
:10352C00E84200205C2B0020EC27002040460020C5
:10353C00902B00207428002030B5052083B016F0A5
:10354C009DFD0446164D14F0010F1649164824F043
:10355C00F00308BF294614F0020F144A08BF28468E
:10356C00009113490190134816F0F8F904F0F00398
:10357C00A02B03D104F00F0003B030BD0E490D4851
:10358C0016F0ECF90323094A0C490A4816F0E6F93F
:10359C00A321052016F082FE032003B030BD00BF2E
:1035AC0018150020E4270020E8420020E42B00201E
:1035BC00EC27002040460020902B0020742800208F
:1035CC0030B5062083B016F059FD0446164D14F0A4
:1035DC00010F1649164824F0F00308BF294614F0D1
:1035EC00020F144A08BF2846009113490190134852
:1035FC0016F0B4F904F0F003A02B03D104F00F0083
:10360C0003B030BD0E490D4816F0A8F90223094A43
:10361C000C490A4816F0A2F9A221062016F03EFE2B
:10362C00022003B030BD00BF18150020E427002095
:10363C00E8420020B42B0020EC270020404600205C
:10364C00742B00207428002030B5072083B016F0AE
:10365C0015FD0446164D14F0010F1649164824F0BA
:10366C00F00308BF294614F0020F144A08BF28467D
:10367C00009113490190134816F070F904F0F0030F
:10368C00A02B03D104F00F0003B030BD0E490D4840
:10369C0016F064F90223094A0C490A4816F05EF93F
:1036AC00A221072016F0FAFD022003B030BD00BFA6
:1036BC0018150020E4270020E8420020C42A00202E
:1036CC00EC27002040460020742B0020742800209A
:1036DC0010B550B10B490C4A0C4816F03FF90121BA
:1036EC000820BDE8104016F0D9BD04460549084A2B
:1036FC00064816F033F921460820BDE8104016F0B4
:10370C00CDBD00BF442A0020B0160020404600204A
:10371C00402A002010B550B10B490C4A0C4816F049
:10372C001DF901210920BDE8104016F0B7BD044673
:10373C000549084A064816F011F921460920BDE84A
:10374C00104016F0ABBD00BF9C2A0020BC2A002004
:10375C0040460020902A0020F8B50B2042F20F764C
:10376C0016F08CFC04460A20240216F087FC04F4A4
:10377C007F440444A4B2B4420AD8651C42F21073CC
:10378C00ADB29D4218D1002534462F46294604E09F
:10379C00002601253746294634460A2016F07EFDC0
:1037AC0039460B2016F07AFD2B4632460449054863
:1037BC0016F0D4F82046F8BDE9B226462F0AECE7FD
:1037CC00B02800204046002070B505460C490D4835
:1037DC002A4605F108062C4616F0C0F814F8011B11
:1037EC0004F2FF10401B16F059FDA642F6D105213C
:1037FC00054818F0BFFD0348BDE8704016F092B8BC
:10380C00D829002040460020002A0020F8B50746A1
:10381C0040F2012524210C487C1EFE1DED1B18F0E6
:10382C00A9FD281916F02AFC04F8010FB442F8D1AE
:10383C000023052105483B7218F09CFD0448BDE8A7
:10384C00F84016F06FB800BF60290020002A002055
:10385C0040460020012810B504460BD0022816D093
:10386C0090B11A210B4818F085FD0B48BDE81040AB
:10387C0016F058B80B21094818F07CFD064816F0D4
:10388C0051F8074B1C6010BD0D210648F4E70C21C4
:10389C000548F1E7F00C002040460020D40C002035
:1038AC000C4C0020C40C0020E00C0020194B2DE91E
:1038BC00F041194E0446DFF868801F68174D04F07C
:1038CC000F03092B1BD0082B04F0F00220D8013475
:1038DC00E4B257B9992CF2D8414655F8240019F0A6
:1038EC0093FF0028EBD0204610E0032CE7D841468C
:1038FC0056F8240019F088FF0028E0D0F3E704F014
:10390C00F0041034E4B2902CE3D90020BDE8F0812F
:10391C001446DEE728730120D80500207003002030
:10392C007009002000F00F03092B16D0082B00F0B3
:10393C00F0020DD9002311090C4801EB810100782C
:10394C0003EB4103DBB2984238BF002210467047AC
:10395C00431CDAB203F00F03EDE700F0F000103077
:10396C00C2B2902AE6D9002210467047F8BB032059
:10397C00144B2DE9F041DFF858800446124E1D68B7
:10398C00124F23070FD114F0F00417D19924002DF6
:10399C00F7D156F82400414619F036FF0028F0D034
:1039AC002046BDE8F081013CE4B215B9992CE8D869
:1039BC00EFE7032CE5D857F82400ECE7073CE4B21A
:1039CC00F3E700BF2873012070030020D805002006
:1039DC0070090020030705D110F0F0001FD16323FC
:1039EC0099200AE00138C0F3031200F00F03C0B2B3
:1039FC0002EB820203EB4203DBB20A4A12789A42D0
:103A0C000CD2094BA3FB0213DB08C3EB4311C3EB32
:103A1C008101490001EB03131A44D0B270470738F7
:103A2C00E1E700BFF8BB0320CDCCCCCC70B5274D63
:103A3C00002128460CF0E0FA254B022128462B6188
:103A4C000CF0D4FA234B1C78012C0AD0022C27D072
:103A5C00BCB10022204B43F63F7110469A7019807E
:103A6C0070BD1E4B00241C495F221B7828464A70EF
:103A7C0002221B098C7030330B7015F01FFF20468F
:103A8C0070BD154E45F65F7330463380B4701AF036
:103A9C0007F931460246284615F010FF204670BD46
:103AAC000E4B00220C4C1B78A27020461A0903F016
:103ABC000F0330323033227063701AF0F1F8214664
:103ACC000246284615F0FAFE012070BDC06F00209A
:103ADC000100230002BC032068740120EDBB03200D
:103AEC0038B5174B04461B68002B0FD0154D1A46E2
:103AFC001549B8BF5A1C2868096800EB62028A4253
:103B0C0004DC0344994200DD296038BD0F4D4FF0B1
:103B1C0001130F4A00212846C5E904230CF06CFA66
:103B2C00012128460CF062FA002CEED020461AF047
:103B3C00B7F8214602462846BDE8384015F0BEBE0F
:103B4C00FC710120F071012060740120C06F002015
:103B5C000100140038B5174B04461B68002B0FD01E
:103B6C00154D1A461549B8BF5A1C2868096800EB50
:103B7C0062028A4204DC0344994200DD296038BDAC
:103B8C000F4D4FF001130F4A00212846C5E90423BD
:103B9C000CF032FA012128460CF028FA002CEED059
:103BAC0020461AF07DF8214602462846BDE83840EA
:103BBC0015F084BEF8710120EC71012060740120B5
:103BCC00C06F00200100260038B5174B04461B6857
:103BDC00002B0FD0154D1A461549B8BF5A1C286832
:103BEC00096800EB62028A4204DC0344994200DD5E
:103BFC00296038BD0F4D4FF001130F4A00212846A4
:103C0C00C5E904230CF0F8F9012128460CF0EEF973
:103C1C00002CEED020461AF043F8214602462846E6
:103C2C00BDE8384015F04ABEF4710120E87101205E
:103C3C0060740120C06F00200100380038B50A4DB7
:103C4C0004460A4B012128462B610CF0CFF94CB1EC
:103C5C0020461AF025F8214602462846BDE8384091
:103C6C0015F02CBE38BD00BFC06F00201E00260012
:103C7C0030B55E4A83B05E4C156823685B1B962B8F
:103C8C0006D95C4D236813602B7883F001032B70ED
:103C9C00FF281CD00F2811D8574C2378012B5ED04D
:103CAC0013F0FD0F49D00020B3B9524B1B78002BF9
:103CBC0014BFCC23FC230B7003B030BD1238072883
:103CCC0005D8DFE800F0251C0404041404104A4B4A
:103CDC0000201B78002BE8D0013BDBB2012BEBD88A
:103CEC00464B1B7831E0444B02201B78DCE7424BFF
:103CFC001B78A3F10200B0FA80F04009D4E73E4CE7
:103D0C002378012B59D0022B30D09BB10020E3E754
:103D1C00394C2378012B41D0022B34D0002BF5D118
:103D2C00374A184601911288012A54D0FFF752FEE7
:103D3C00019903460222314D04E0000101222F4D6E
:103D4C000C30C3B200202B7022702A4A0B701278F0
:103D5C0012B943F00F03DBB20B7003B030BD274D2B
:103D6C0002222B7823F00F030343EBE7244B234D64
:103D7C001B882878012B019125D0FFF7D3FD0199E1
:103D8C0002220346DEE71E4B1C4D1B882878012BB4
:103D9C0001911CD0FFF71EFE0199F1E7184B174D4E
:103DAC001B882878012B019100F0F00018D0FFF748
:103DBC0011FE019903460222C4E7104D0222287815
:103DCC0000F0F003BEE7FFF771FD0199D8E7FFF7AC
:103DDC00CFFD0199D4E7FFF7CBFD01990346A9E785
:103DEC00FFF7C6FD01990346E5E700BFBC6B002059
:103DFC0018B80320E1BB032002BC0320EDBB032059
:103E0C00BEBB032008B5374B1B68042B21D8DFE859
:103E1C0003F0424A03032200334B344A1B883449D3
:103E2C0003F51F5311603C339BB2092B50D8314A18
:103E3C0052F82300FFF754FE2F4B1B8803F51F533A
:103E4C003C339BB2092B45D82A4A52F82300FFF782
:103E5C0081FE012008BD254B1868FFF741FE224B5F
:103E6C001B8803F51F533C339BB2092B38D8214ACE
:103E7C0052F82300FFF76EFE1F4B1B8803F51F53F0
:103E8C003C339BB2092B29D81A4A52F82300FFF76E
:103E9C009BFE012008BD154B184A19481A60FFF704
:103EAC001FFE012008BD104B104A1B88134903F557
:103EBC001F5311603C339BB2092B0DD80D4A52F89D
:103ECC002300FFF70DFE0E48FFF744FE012008BD4E
:103EDC000C48AFE70B48BAE70A48F2E70948D6E7BF
:103EEC000848C7E7B4BA0320CEBB0320884E002095
:103EFC0058100020E8050020D0BB0320381000200B
:103F0C004C1000201C080020554B1B6810B5072BCB
:103F1C002CD8DFE803F0840404562D2D3267514C65
:103F2C00514B52491B682288514819F0C1F850482E
:103F3C00FFF7D6FD2388B3F5005F00F08C8000F20C
:103F4C008380B3F5006F02D0B3F5805F02D149488E
:103F5C00FFF700FE484B1A682AB148490020484A2E
:103F6C000968186011604748FFF72EFE012010BD4C
:103F7C004548FFF7B5FD012010BD444B1A681E2AB9
:103F8C0005D03E491E20424A09681860116041481C
:103F9C00FFF7A6FD404B41491A88354819F088F8BF
:103FAC003F4B1A682AB1354900203E4A096818600F
:103FBC0011602F48FFF7CEFD3248FFF705FE0120B8
:103FCC0010BD3948FFF78CFD354B1A681E2A05D0F9
:103FDC002A491E20334A0968186011603348FFF7DC
:103FEC00B9FDC0E7294B1A682AB124490020284A98
:103FFC000968186011602A4B1A682AB11F49002001
:10400C00284A0968186011601B4B1A68002AADD049
:10401C001A4900201A4A096818601160A6E7124B69
:10402C00234A24481A60FFF75BFD134B1A68122AC7
:10403C0005D012491220124A0968186011601E48F6
:10404C00FFF7C2FD012010BDB3F5804F03D0B3F5CF
:10405C00004F7FF47FAF1948FFF77CFD7AE700BF74
:10406C00C4F00020BCBB0320084C0020481D0020DD
:10407C00C8F00020581D0020F4710120607401204C
:10408C00E8710120881D0020C41D0020FC71012056
:10409C00F0710120D01D0020B8BB0320E41D0020CE
:1040AC00F8710120EC710120A01D0020B01D002032
:1040BC00381000201C1D0020301D0020701D002019
:1040CC002DE9F0474FF00009DFF8E482012484B0B9
:1040DC0049464046B34E432725460BF08DFF3B46E1
:1040EC0022B20221404600950834CDE901950BF02F
:1040FC00D1FE16F8017FA4B2002FF0D1AA4D0320F7
:10410C000A23DFF8ACA2298801243222B94601F037
:10411C000101DFF8A4825426029139462746CDE9E5
:10412C00003050460BF08CFA334622B20F21504629
:10413C0000970834CDE901970BF0ACFE18F8016F2D
:10414C00A4B2002EF0D12A8803210A23DFF8609252
:10415C00C2F3400201244846B24602923222A046E3
:10416C00924F5326CDE900310D210BF069FA3346FD
:10417C0022B21C214846CDF800800834CDE901A8B4
:10418C000BF088FE17F8016FA4B2002EEFD12A882D
:10419C0003210A23DFF818A2C2F38002012450463F
:1041AC00DFF8188202923222A1464227CDE9003173
:1041BC001A210BF045FA3B4622B229215046CDF884
:1041CC0000900834CDE901690BF064FE18F8017F0A
:1041DC00A4B2002FEFD12A8803210A23DFF8D0A143
:1041EC00C2F3C00201245046DFF8D481029232227D
:1041FC00A1464826CDE9003127210BF021FA3346A0
:10420C0022B236215046CDF800900834CDE9017920
:10421C000BF040FE18F8016FA4B2002EEFD12A88E3
:10422C0003210A23DFF888A1C2F3001201245046AF
:10423C00DFF8908102923222A1464327CDE900316A
:10424C0034210BF0FDF93B4622B243215046CDF808
:10425C0000900834CDE901690BF01CFE18F8017FC1
:10426C00A4B2002FEFD12A8803210A23DFF840A142
:10427C00C2F3401201245046DFF84C8102923222E4
:10428C00A1464326CDE9003141210BF0D9F9334643
:10429C0022B250215046CDF800900834CDE9017976
:1042AC000BF0F8FD18F8016FA4B2002EEFD12A889C
:1042BC0003210A23DFF8F8A0C2F380120124504630
:1042CC00DFF8088102923222A1465227CDE9003153
:1042DC004E210BF0B5F93B4622B25D215046CDF88C
:1042EC0000900834CDE901690BF0D4FD18F8017F7A
:1042FC00A4B2002FEFD12A8803210A23DFF8B0A043
:10430C00C2F3C01201245046DFF8C480029232225C
:10431C00A1465426CDE900315B210BF091F93346CF
:10432C0022B26A215046CDF800900834CDE90179CB
:10433C000BF0B0FD18F8016FA4B2002EEFD12A8853
:10434C000A2303210124C2F300221948A046194F65
:10435C0002923222DFF85890CDE9003168210BF03F
:10436C006FF9432322B277214846CDF800800834F8
:10437C00CDE901680BF08EFD17F8013FA4B2002BBC
:10438C00F0D1288803210A233222C0F34020019166
:10439C0075210093029006480BF052F904B0BDE869
:1043AC00F08700BFFC150020905500200816002057
:1043BC00C06F0020401600200416002010160020AC
:1043CC001816002020160020281600203016002079
:1043DC0038160020F8B5022015F050FE04460028CF
:1043EC0000F0F48002467D4B7D497E4815F0B6FA0C
:1043FC00112C28BF00247C4B0025012603271C60B0
:10440C00FFF712F8794B1870FFF752F8784B1870C9
:10441C00FFF792F8774B1870FFF7D2F8764B1870BD
:10442C00FFF712F9754B024608201A7015F026FE9C
:10443C00734B041E734A744908BF1A46694815F039
:10444C008DFA641B714B4FF0090018BF01241C70CE
:10445C0015F014FE6E4B041E6E4A6F4908BF1A46C7
:10446C00604815F07BFA601B6C494DF6060218BFCC
:10447C0001206B4B6B4C08704DF604019A839980AC
:10448C0024211A85272219804DF605019A840722CA
:10449C001982252183F826204DF60A0299814DF6C2
:1044AC000701A3F8582099862821A3F864202C2210
:1044BC0019864DF60801A3F860204DF60B02A3F8FF
:1044CC0040102921A3F8702099874DF60901A3F813
:1044DC007C202E22A3F84C102A219D70A3F84810A2
:1044EC0026219D7319832B219D76A3F854102D2121
:1044FC0083F83260A3F86C102F2183F83E5083F8B8
:10450C004A5083F8626083F8567083F86E70A3F893
:10451C007820626DA3F88410302183F87A60A3F8B8
:10452C00901047F6122183F8866083F89260106829
:10453C004DF60C02A3F888204DF60D02A3F894203A
:10454C002A46394BE360394BA360394BA361394B95
:10455C00A363394BE363394B6364394BA364394B25
:10456C00636214F0CBFE384A4FF6FF7384F8707018
:10457C001268A4F85860C4F80021344A84F85A50E0
:10458C006567334984F8F850C4F8FC503148C4E9E5
:10459C001A339369C4E9185543F080532E4C936138
:1045AC000C602E4B2E4C2F4A04601A602E492F4C57
:1045BC002F4B304A0C601A602F49304A3048314C2E
:1045CC00314B1160314A04601A60F8BD0246304B21
:1045DC000349044815F0C2F90DE700BF1815002077
:1045EC008829002040460020304E0020FCBB0320D0
:1045FC00FBBB0320FABB0320F9BB0320FFBB03204A
:10460C00402A0020B0160020282A0020FDBB0320E1
:10461C00902A0020BC2A0020702A0020F3BB032023
:10462C00187000202C730120198B0000A9010000C8
:10463C00FD990000F1200000F5590000B958000068
:10464C007D5700001595000018B803200080194014
:10465C0050B903204CB903204D8B000058B90320EE
:10466C00D10100002D9A000040B903208D200000DC
:10467C0068B90320255A0000AD5700006CB903201F
:10468C0044B90320E958000074B903208595000053
:10469C00AC2900200A4B0B4A0B49002808BF1A46CC
:1046AC0010B50A4C20700A4815F058F92378094ABD
:1046BC00191E18BF012143EA410382F8703010BD66
:1046CC00402A0020B0160020F0190020FDBB03206A
:1046DC00404600202C7301200C2836D8DFE800F06F
:1046EC0021271B09070B1117192D2F3133001848DF
:1046FC00704718487047184B18483F2998BF184600
:10470C007047174B17483F2998BF184670471648F3
:10471C00704716487047164B16483F2998BF1846E5
:10472C007047154B15483F2998BF18467047144BD6
:10473C0014483F2998BF18467047134870471348D0
:10474C00704713487047134870471348704700BFB1
:10475C0028160020FC2C0020082D002040160020DC
:10476C00102D002038160020182D0020202D0020A0
:10477C00F42C002018160020E42C00201016002029
:10478C00EC2C002008160020282D0020302D0020B5
:10479C00382D0020402D0020482D002010B53E4C17
:1047AC002368062B0BD8DFE803F01A2A374A60047B
:1047BC000B0015F073FB394A06231060236010BD03
:1047CC0015F06CFB354A40F6D7631268801A984294
:1047DC00F5D90121324B002221601A7010BD304BEB
:1047EC004FF084424FF080711B78C2F888100BB1E7
:1047FC00052323602B4B40F6D8621A6010BD4FF096
:10480C0084434FF08072C3F8842015F047FB234A91
:10481C0002231060236010BD15F040FB1F4A214B92
:10482C0012681B68801AB0EB530FC8D34FF0844248
:10483C004FF080710323C2F88810236010BD15F06F
:10484C002DFB194A174B12681B68801A8342B6D885
:10485C004FF084434FF08072C3F8842015F01EFB98
:10486C000E4A04231060236010BD15F017FB0B4A91
:10487C000C4B12681B68801AB0EB530F9FD3084B7C
:10488C004FF084424FF080711B78C2F88810002BD7
:10489C0094D00523236010BD20B90320407401205F
:1048AC000CBC032024B903207CB60120104B1B78D0
:1048BC009B0700D4704710B50E4C15F0EFFA0E4B59
:1048CC002268801A4008186015F0E8FA0B4B20603B
:1048DC001B783BB90A4A01200A490B4B1268087035
:1048EC001A6010BD094B01221A60FFF757FFF1E760
:1048FC00F9BB03207CB6012024B90320F2BB0320B2
:10490C0018B80320E5BB032088B6012020B903208A
:10491C00104B1B78DB0700D4704710B50E4C15F00C
:10492C00BDFA0E4B2268801A4008186015F0B6FAD2
:10493C000B4B20601B783BB90A4A01200A490B4BF0
:10494C00126808701A6010BD094B01221A60FFF73B
:10495C0025FFF1E7F9BB03207CB6012024B9032025
:10496C00F2BB032018B80320E3BB032080B6012060
:10497C0020B90320074B0849084A10B51C780028B9
:10498C0018BF0A4618700649064814F0E7FF20467F
:10499C0010BD00BFF3BB0320B8190020C0190020C4
:1049AC00CC19002040460020092809D801380828D5
:1049BC0028D8DFE800F00C0F1215181B1E2124005C
:1049CC00FF2802D1114B18887047002070474DF614
:1049DC00050070474DF6060070474DF6070070470E
:1049EC004DF6080070474DF6090070474DF60A0069
:1049FC0070474DF60B0070474DF60C0070474DF6A6
:104A0C000D0070474DF60400704700BF8E55002016
:104A1C00092809D80138082820D8DFE800F00C0F45
:104A2C0011131517191B1D000D4B0E4AFF2808BF3B
:104A3C001346184670470C4B184670470B4BF8E75B
:104A4C000B4BF6E70B4BF4E70B4BF2E70B4BF0E79A
:104A5C000B4BEEE70B4BECE70B4BEAE70B4BE8E7AA
:104A6C006C12002098120020081600201816002046
:104A7C00281600204016002038160020781200203E
:104A8C0080120020382D00208812002010160020E3
:104A9C0070B50546204E0C4620482A46204914F095
:104AAC005DFF33789A0707D4DB0711D41D491B48E7
:104ABC00BDE8704014F052BF1B49184814F04EFF6B
:104ACC0000222946204616F06BFE3378DB07EDD525
:104ADC00164E1749114814F041FF736DF0211868F8
:104AEC0003681B68984755B1013C2544736D14F855
:104AFC00011F186803681B689847A542F6D1736DAF
:104B0C00F721186803681B68984706490348BDE8F5
:104B1C00704014F023BF00BFFFBB032040460020B1
:104B2C00D807002014080020F80700202C7301205F
:104B3C0004080020F72813D0124938B50B78124C12
:104B4C005B00124D2268DBB20B7023F07F0310491F
:104B5C001843531C8B422360A85403DC002038BD3F
:104B6C000120704727210B4817F004FC21680A48E4
:104B7C0014F0CCFE084814F0D5FE0123074A184661
:104B8C00137038BDDBBB0320F0B70220D0B7012077
:104B9C001F000100D4150020404600200FBC03204C
:104BAC0010B51C4C034622680A2A2AD8DFE802F00A
:104BBC00060B271A0F0F0F0F0F0F2000002216489D
:104BCC00164902600A70F02B08D0002010BDFFF7C8
:104BDC00B1FFD0B923680133236010BD022300203C
:104BEC00236010BD0E49042200200B70226010BD02
:104BFC00FFF7A0FF48B903230020236010BD6928EC
:104C0C00F9D001230020236010BD01231846236036
:104C1C0010BD00BF6C750120F0B702200FBC032043
:104C2C00DBBB03202DE9F0474FF0000A82B053465E
:104C3C00CD1802EB0A0403F107084FF0000CAAEBA5
:104C4C00030715F801EB4FEA4C0C01331EF0800FF3
:104C5C005FFA8CFC0EF07F0607EB030918BF4CF0D3
:104C6C00010C834204F8016F06DA4345E9D102F8DE
:104C7C000AC00AF1080ADBE702F80AC00246054935
:104C8C00CDF80090044814F069FE09F1010002B05F
:104C9C00BDE8F0875C1500204046002010B5FA20D6
:104CAC00174C15F0A7F801223C2116480CF05CFAC1
:104CBC00154A164B126820701A6000B910BD2421D9
:104CCC00134817F057FB134814F02CFE0121112048
:104CDC0015F04AF90121102015F046F90021112098
:104CEC0015F006F90021102015F002F90A481EF003
:104CFC00EFF80A4908480AF025F9207810BD00BFE2
:104D0C00E7BB0320C06F002018B803206474012097
:104D1C000C1A0020404600202C65002040420F0059
:104D2C0070B5066904467568013D756075BB3368DE
:104D3C001F4ADB6A93422CD1B06D10B117F0C4FC42
:104D4C00B565336D63B306F1180011F093FC25695A
:104D5C00E5B12B68174A5B68934225D1164BA86DB9
:104D6C002B6018B117F0B0FC0023AB652B6D05F16F
:104D7C0018068BB1304611F07DFC104B3046AB6001
:104D8C0011F078FC5C21284615F054FC00232361BB
:104D9C0070BD30469847DAE76B6D002BEAD1ECE733
:104DAC00736D002BCFD1D2E728469847EEE700BFB2
:104DBC0045010000C9090000B83A00200C38002059
:104DCC00044A036910B5044602600BB1FFF7A8FF53
:104DDC00204610BD683A0020064A036910B5044607
:104DEC0002600BB1FFF79CFF2046142115F022FC4A
:104DFC00204610BD683A002038B50469A4B1236878
:104E0C0005460D4ADB6A934213D1A06D18B117F019
:104E1C005BFC0023A365236D3BB104F1180011F07A
:104E2C0029FC2846FFF77CFF38BD636D002BF4D1BD
:104E3C00F7E720469847F4E745010000012BF0B551
:104E4C00054695B03DD0022B40F2022001F1040141
:104E5C000CBF03460023684611F026FD129B002B65
:104E6C0038D05C20002615F0E3FB214B04AF044640
:104E7C00C0E90036019B3946183040F80C3C1D4BFC
:104E8C0040F8103C029B40F8083C9DF80C3000F8B0
:104E9C00043C11F0ADFB184B4FF47A72A665A3607D
:104EAC00164B6E602B6063682E730133AA602C6105
:104EBC006360134B3846009311F0DCFB284615B0A9
:104ECC00F0BD44F202230431684611F0EDFC129B54
:104EDC00002BC6D1139B002BC3D14FF47A71074A18
:104EEC0004AF2B732A602B61C5E90131E1E700BFE8
:104EFC00B83A0020143B0020943A0020683A002075
:104F0C000C380020F0B502469DB0A049A048019293
:104F1C0014F024FD9F4C019A9F49A04818F0C8F842
:104F2C0000239E4A08A89E49FFF788FF236913B106
:104F3C002046FFF7F5FE0C992161002900F0E28074
:104F4C000B68984ADB6B93424FF0000240F00881EB
:104F5C004FF47A74944E18310CA88DF82C200896C6
:104F6C00CDE90924CDE91A2211F0F0FB1A9B002B94
:104F7C0000F0D2805C20002515F05AFB8B4B0446C8
:104F8C000CA9C0E90035099B183040F80C3C884B43
:104F9C0040F8103C0A9B40F8083C9DF82C3000F877
:104FAC00043C11F025FB63684FF47A72A56501335C
:104FBC00049505928DF818500794C4E901367D4B81
:104FCC0003937D4B0CA8089311F054FB7B4C236985
:104FDC0013B12046FFF7A4FE079B7048236118F01D
:104FEC005FFE01466D4817F0C5F9694814F09AFC4C
:104FFC002069F8B10368724A1B6B934217D1036D99
:10500C00002B00F095800B216E4817F0B3F9604827
:10501C0014F088FC206900B303686B4A9B6A9342C6
:10502C001AD1036D002B00F09180DB6916E09847D4
:10503C000028E8D10F21654817F09CF9544800244A
:10504C0014F070FC0521624817F094F9504814F0E4
:10505C0069FC20461DB0F0BD984703465D4F062104
:10506C005D483B6017F086F92569002D73D02B68DD
:10507C005A4A5B6B934240F08380AE6D002E00F079
:10508C00B980304618F00CFE0146304617F072F924
:10509C003F4814F047FC0621514817F06BF90023E8
:1050AC000A2239683A4814F067FC394814F03AFC83
:1050BC002569002D52D02B684A4A9E68964259D1D8
:1050CC00286D002839D04FF4005247490FF0C4F82E
:1050DC002569002D42D02B68DB6A444A934246D1A5
:1050EC00A86D18B117F0F0FA0023AB652B6D002BEF
:1050FC0039D005F1180011F0BDFA30483A4CFFF7E1
:10510C000FFE9FE74FF47A722A4B04918DF818101A
:10511C0005920393079159E71B9B002B7FF42AAF51
:10512C00244A8DF8183003920793CDE9043448E7EC
:10513C00436D002B7FF467AF7CE7686D0028CBD004
:10514C004FF4005228490CF06FFCC1E7436D002B63
:10515C0084D01B6982E72946254E96E7224C71E7DD
:10516C0003A8984732E76B6D002BC2D1C5E72846E0
:10517C009847C2E74FF400521B492846B047A7E7AF
:10518C00284698470646002E82D07AE7040A00206B
:10519C0040460020344E0020300A002000720120CE
:1051AC00C85D00205D050000943A0020B83A00204C
:1051BC00143B0020683A00200C380020184C0020CA
:1051CC002D010000400A0020410500005C0A00206F
:1051DC006C0A0020E47101204C0A0020F901000047
:1051EC00540A0020AD060000709501204501000016
:1051FC00A04200204FF4807017F05EFA0146A865BB
:10520C00B0B10670286D40B14FF4807210F0DEFD25
:10521C00AE6D002E3FF43CAF33E7686D18B14FF420
:10522C0080720EF0D3F9AE6D002E3FF431AF28E74B
:10523C00014B1E46AB6524E7DABB03202DE9F04F8A
:10524C0005469DB00E468B488B492A46019614F0B4
:10525C0085FB2A4689498A4817F02AFF0023884A89
:10526C0008A8884911F020FB1A9B002B00F09680AF
:10527C005C20002615F0DCF9099B00F1180BDFF817
:10528C003882C36004460A9B0CA97F4F03619DF8CA
:10529C002C3046600375C0F800808760584611F0CA
:1052AC00A7F96368DFF814920CA80133A665DFF840
:1052BC00F4A1764E6360C4F80890CDF820A011F0EC
:1052CC00D9F9326912B13046FFF72AFD2368704ACA
:1052DC00DB6B3461934240F0B38000224FF47A745C
:1052EC0059460CA8CDF8209009928DF82C200A94E0
:1052FC00CDE91A2211F02AFA1A9B002B00F09080AB
:10530C005C2015F095F9099B87600027C360044663
:10531C000A9B0CA9C0F80080183040F8083C9DF896
:10532C002C3040F8147C00F8043C11F061F96368EF
:10533C00C4F808900133A765049763604FF47A733F
:10534C008DF818700593534B079403930CA8CDF864
:10535C0020A011F08FF9504C236913B14E48FFF780
:10536C00DFFC07982061A8B103684C4A1B6B934281
:10537C000DD1036D002B5FD049493E4814F0EEFA75
:10538C00019B002B2BD101201DB0BDE8F08F98475D
:10539C000028F1D100201DB0BDE8F08F1B9C002C23
:1053AC007FF466AF3F4B0CA8384F089311F062F9AD
:1053BC003B691BB13846FFF7B3FC3C6100234FF44B
:1053CC007A72354C8DF8183020690793CDE9043288
:1053DC00304A03920028C1D11DB0BDE8F08F32498C
:1053EC00244814F0BBFA2069FDF7A6FE2A460346B2
:1053FC002E49234817F05CFE214A2D491D4814F014
:10540C00ADFA2C4BD3F88424FAB1002011460123B9
:10541C001B4A089008A80EF0CBFE30BB0198B3E7EE
:10542C001B9B002B7FF46CAF8DF818300793CDE9E4
:10543C000434184B039389E7436D002B9CD1A9E7E7
:10544C002146002203A8984785E7D3F88814002941
:10545C0099D0149201230A4A08A80CF089FE00285E
:10546C00DCD008A80DF026F8D8E708A80FF0A6FFA6
:10547C00D4E700BF404600204C1C0020300A00201E
:10548C0000720120CC5D0020143B0020344E002023
:10549C005D050000683A0020184C00202D0100002A
:1054AC00781C00200C380020941C0020AC1C002020
:1054BC00C01C0020C85D0020B83A0020943A00209F
:1054CC00104BD3F8840410B558B1002308220E49B0
:1054DC0000F5896010F01AF80B48BDE8104014F084
:1054EC0021BAD3F88844002CF6D00346082204F5E0
:1054FC00896005490CF0FEFE0348BDE8104014F02D
:10550C0011BA00BFC85D0020404600202DE9F04FC5
:10551C00074688469FB0664943463A466548DFF8D9
:10552C00E09114F01BFA00233A4663490AA8FFF7EE
:10553C0085FCD9F8103013B14846FFF7F1FB0E99F2
:10554C00C9F81010002900F0BE810B685B4ADB6BB8
:10555C00934240F0F9820EAE00224FF47A74DFF8D9
:10556C009CA1183130460B928DF834200C94CDF858
:10557C0028A0CDE91C2211F0E9F81C9B002B00F0AF
:10558C00C8815C20002515F053F80B9B0446456040
:10559C00C36031460C9B183040F8083C9DF8343001
:1055AC0000F8043C464B40F8183C464B40F8103C85
:1055BC0011F01EF86368C4F808A00133A5650695C0
:1055CC0063604FF47A738DF8205007933E4B099427
:1055DC0005933E4B30460A9311F04CF83C4D2B6929
:1055EC0013B13B48FFF79CFB09982861002800F099
:1055FC007881036837491A6B8A4240F0A982026DA0
:10560C00002A00F07A819B6A33498B4240F08D81ED
:10561C00D3692869314C2360FDF78EFD3F2102468A
:10562C002F4817F001FD2E4A2E49224814F096F906
:10563C0022682D491F4814F091F92268B2F5004FE9
:10564C0000F278822C692CB3236828499E688E421C
:10565C0040F09982206D002800F0838224490EF0DE
:10566C00FBFD2C69B4B12368DB6A224A934240F0FB
:10567C009682A06D18B117F027F80023A365236D4F
:10568C00002B00F07B8204F1180010F0F3FF10489F
:10569C00FFF746FB1021184816F06CFE0B4B054823
:1056AC004FF47A7B0EAE029314F03CF93FE000BF4E
:1056BC000C0D002040460020C85D00205D05000058
:1056CC00B83A0020143B0020683A00200C38002027
:1056DC00184C00202D01000041050000E471012050
:1056EC0090B601209C150020200D0020AD06000076
:1056FC00E4F1002045010000540D0020943A0020F4
:10570C00344E002000238B4A0AA80A9301230EF082
:10571C004FFD002840F0AF811B21874816F02AFE70
:10572C00864814F0FFF8BBF1010B00F04881002310
:10573C00424683490AA811F0B7F81C9B002B00F0D5
:10574C001F815C20002714F073FF0B9B00F1180ADB
:10575C000446C36031460C9B476003619DF83430AE
:10576C000375784B0360784B8360504610F040FF14
:10577C00029BA76530460A936368744F0133A76098
:10578C00636010F077FFD9F8103013B17048FFF751
:10579C00C7FA23686F49DB6BC9F810408B4240F0A5
:1057AC00788100224FF47A74514630460A970B9256
:1057BC008DF834200C94CDE91C2210F0C7FF1C9BF3
:1057CC00002B00F04C815C204FF0000A14F030FFED
:1057DC005C4B0446C0F804A0036031465A4B1830A9
:1057EC0040F8103C0B9B40F80C3C0C9B40F8083CE0
:1057FC009DF8343000F8043C10F0FAFE6368A760A2
:10580C000133C4F858A0CDF818A063604FF47A7334
:10581C008DF820A00793504B09940593029B3046BA
:10582C000A9310F027FF2B6913B14C48FFF778FA55
:10583C00099C2C61002C00F0C280236848491A6B2B
:10584C008A4240F01C81226D002A00F0FC805B6BC8
:10585C00444A934240F0FF80A76D002F00F0368140
:10586C004346414AFF213348009717F0DDFB2C6972
:10587C00002C00F0E68023683A4A5B6B934240F0C0
:10588C000D81A26D002A00F00D812A4B37492B485F
:10589C0014F064F8364BD3F8841400297FF432AF3B
:1058AC00D3F88834002B3FF437AF16910AA8194669
:1058BC00204A01230CF05CFC00283FF42DAF0AA811
:1058CC000CF0F8FD28E74FF47A73244D06910793FA
:1058DC00214B8DF8201005932B690991002B7FF437
:1058EC0080AE3A462349154814F038F8224913483B
:1058FC001FB0BDE8F04F14F031B8426D002AF0D063
:10590C009B6A1E4A934210D1436D03B11B692869EF
:10591C0080E61D9B002B7FF434AE8DF8203009936C
:10592C00CDE906340C4B059353E69847034628699A
:10593C0070E600BFD0B601208C0D00204046002040
:10594C00CC5D0020B83A0020143B0020943A002093
:10595C00344E00205D050000683A0020184C0020F1
:10596C002D010000F9010000680D0020700D0020D1
:10597C00C85D0020E40D0020E82100204105000056
:10598C001D9C002C7FF4DDAE029B30460A9310F078
:10599C0071FED9F8103023B19148FFF7C1F9C9F85D
:1059AC001040002306938DF8203009934FF47A733E
:1059BC0007938C4B05932B69002B7FF436AF8A4AE7
:1059CC004346FF2189480092894A17F02DFB0B2191
:1059DC00884816F0CFFC854818F062F901468348D8
:1059EC0016F0C8FC844813F09DFF01230AA87F4AD7
:1059FC008249FFF723FA2B6913B18148FFF790F91D
:105A0C000E982861002800F0858003687D491A6B88
:105A1C008A427CD1026D002A00F0AB807A4A12686F
:105A2C00DB687A498B4240F0C580036D002B00F097
:105A3C00B980774918460FF033F87148FFF7DCF955
:105A4C0054E7744A21E7626D002AB8D05B6B724A46
:105A5C0093423FF401AF20469847074600E71D9B51
:105A6C00002B7FF4B0AE8DF820300993CDE90634CD
:105A7C005C4B0593D2E60AA80FF0A0FC4CE620463E
:105A8C00904700289BD02C690CB9624FE8E623683C
:105A9C00DDE62146002205A89847C4E62046984733
:105AAC000246F2E64FF48070039216F005FE0146B2
:105ABC00A065002800F08180039A0270206DB0B1BF
:105ACC004FF4807210F082F9A26DDEE64FF4807014
:105ADC0016F0F2FD0146A06500287DD00770206D00
:105AEC0068B14FF4807210F071F9A76DB8E6606D73
:105AFC0018B14FF480720DF069FDA26DC5E6606DB2
:105B0C0018B14FF480720DF061FDA76DA8E69047B7
:105B1C0000283CD11F21414816F02CFC334818F0CA
:105B2C00BFF80146314816F025FC3D493248FDF7D7
:105B3C00C7FBDBE64FF400423A492F4813F00EFF47
:105B4C004FF4004222607DE5002205A8984745E508
:105B5C00904700283FF4C5AE2869002831D1034690
:105B6C0058E5606D00283FF47FAD29490BF05CFFD0
:105B7C0077E5426D002A7FF451AFCBE7636D002BC4
:105B8C007FF481AD83E520462149B04769E51E4B82
:105B9C0028691A6800283FF450AF036840E7204694
:105BAC00984774E5406D00283FF447AF18490DF055
:105BBC004BF842E7164998473FE71B4B1A46A3653B
:105BCC0063E60368194A9B6A93427FF4AEAE026D9A
:105BDC00002A7FF41DAD97E6134B1F46A3653FE6E5
:105BEC00344E0020683A002090B60120D0B6012037
:105BFC00680D0020A80D002040460020C85D002044
:105C0C00184C00202D010000E471012091070000C8
:105C1C00E4F10020A0420020F9010000B40D0020A6
:105C2C00D40D00202C0D0020DABB03204105000010
:105C3C0030B59BB004460D460346094A302102A8F4
:105C4C0017F0F2F92B46074A30210EA8009417F0F2
:105C5C00EBF90EA902A8FFF759FC1BB030BD00BF31
:105C6C0048170020581700202DE9F0470D469AB030
:105C7C0006460821AB4890461F4616F07BFB35B113
:105C8C00284618F00DF80146284616F073FBA64876
:105C9C00A64C13F047FE00233246A54906A8FFF791
:105CAC00CDF8236913B12046FFF73AF80A99216120
:105CBC00002900F0F7800B689E4ADB6B934240F0A2
:105CCC005B8100224FF47A74DFF8A8A218310AA87D
:105CDC0007928DF824200894CDF818A0CDE918224D
:105CEC0010F034FD189B002B00F0EB805C204FF083
:105CFC00000914F09DFC079B0446C0F80490C36097
:105D0C000AA9089B183040F8083C9DF8243000F88C
:105D1C00043C894B40F8183C884B40F8103C10F080
:105D2C0067FC6368C4F808A00133C4F85890CDF838
:105D3C00089063604FF47A738DF810900393804B46
:105D4C00059401937F4B0AA8069310F093FC7E4CAC
:105D5C00236913B17C48FEF7E3FF05982061002806
:105D6C003BD00368794A1B6B934240F00F81036D63
:105D7C00002B00F0B2801421754816F0FBFA206954
:105D8C00FDF7DAF9814628B117F08AFF014648463B
:105D9C0016F0F0FA644813F0C5FD2069FDF7CCF954
:105DAC006C49034632466C4817F082F9604BD3F8C5
:105DBC008414002900F09A800023674A06A80693F1
:105DCC0001230EF0F5F9002840F0F3801B21634805
:105DDC0016F0D0FA544813F0A5FD32462B465D4917
:105DEC005D4817F065F93B465B4A5D494E4813F038
:105DFC00B5FD012306A8584A4D49FFF71FF8236942
:105E0C0013B15148FEF78CFF0A982061002834D05A
:105E1C0003684E491A6B8A422BD1026D002A61D05D
:105E2C00DB68504A934240F0BE80036D002B70D06B
:105E3C003A46414618460EF033FE2469B4B1236845
:105E4C00494ADB6A934240F0AB80A06D18B116F062
:105E5C003BFC0023A365236D002B00F09C8004F118
:105E6C00180010F007FC3848FEF75AFF1AB0BDE8CE
:105E7C00F0879047002840F083801F213B4816F0A4
:105E8C0079FA354817F00CFF0146334816F072FAD0
:105E9C000D21374816F06EFA23481AB0BDE8F047CA
:105EAC0013F040BD4FF47A73274C02910393244BAB
:105EBC008DF81010019323690591002B7FF44AAFE4
:105ECC008BE7199B002B7FF411AF8DF810300593E5
:105EDC00CDE902341A4B019334E7436D002B7FF468
:105EEC004AAF7AE7426D002A9AD1C6E7D3F88834D4
:105EFC00002B3FF46BAF129106A81946164A0123EA
:105F0C000CF036F900283FF461AF06A80CF0D2FA79
:105F1C005CE7406D00284AD03A4641460CF094FEAE
:105F2C008BE700BF7809002040460020344E00204B
:105F3C00C85D00205D050000B83A0020143B00202D
:105F4C00683A00200C380020184C00202D0100006D
:105F5C00840900209C090020D0B601208C0D002063
:105F6C00A40900209107000045010000B40D002099
:105F7C00D40D0020943A0020002201A89847E6E6B0
:105F8C00206900283FF472AF036849E7984700285E
:105F9C003FF423AFEFE6636D002B7FF460AF62E755
:105FAC00204698475FE73A464146984745E72469BB
:105FBC0045E706A80FF002FA08E700BF2DE9F04309
:105FCC00064691B00C46174698460A4603469A492F
:105FDC009A489B4D13F0C2FC00233246994902A803
:105FEC00FEF72CFF2B6913B12846FEF799FE069895
:105FFC00286100283AD00368934A1B6B934240F007
:10600C000281036D002B00F0E68032468F498B48ED
:10601C0013F0A4FC2B69C3B11A688D49D26A8A4269
:10602C0040F05A81986D28B1019316F04DFB002277
:10603C00019B9A651A6D002A00F0408103F118004B
:10604C0010F018FB7E48FEF76BFE7E4BD3F88414E1
:10605C00002900F0C5800023324602A802930123D8
:10606C000EF0A6F810B102A80FF0A8F9DFF8009214
:10607C000023C9F80030002C00F0A880224671499A
:10608C0002A8FEF7DBFE2B6913B16D48FEF748FE44
:10609C0006982861002834D003686B491A6B8A4231
:1060AC0040F0E880026D002A00F0B2809B6A6949DA
:1060BC008B4240F0B580D269B2F5004F88BF4FF4E7
:1060CC000042C9F8002064495C4813F047FCD9F839
:1060DC00002000216148019217F014FA2B696BB172
:1060EC001968019A8C685E498C4240F00881186DE1
:1060FC00002800F0DB8059490EF0AEF85048FEF74E
:10610C007BFE012302A832464E49FEF797FE2B690F
:10611C0013B14B48FEF704FE069C2C61002C4DD0AD
:10612C002368494A1B6B934214D1236D002B42D038
:10613C00D9F80020C2B923684A4ADB68934240F080
:10614C00C680206D002800F0A280424639460EF031
:10615C00A7FC16E02046984700282FD0D9F800203D
:10616C002C69002A63D01CB323683E49DB688B4240
:10617C0040F0A980206D002800F0928037490EF085
:10618C008FFC2C69A4B12368314ADB6A93427BD122
:10619C00A06D18B116F098FA0023A365236D002B9F
:1061AC0041D004F1180010F065FA2548FEF7B8FD4F
:1061BC0011B0BDE8F083636D002BB9D132462A498A
:1061CC001E4811B0BDE8F04313F0C8BB27491B486B
:1061DC0013F0C4FB95E7436D002B7FF416AF45E736
:1061EC00D3F88834002B3FF441AF0E913246194658
:1061FC0002A801230BF0BCFF00283FF437AF02A824
:10620C000CF058F932E7984700283FF42FAFFCE622
:10621C00426D002A3FF475AF9B6A0E4A934269D0D7
:10622C009847024648E7636D002BBAD1BDE7002CB6
:10623C0081D111B0BDE8F083D4110020404600207C
:10624C00184C0020C85D00202D010000F01100202A
:10625C00450100004105000008120020E4F1002077
:10626C00AD060000910700003C1200201C1200201B
:10627C00E4710120904700283FF443AF286980BBAC
:10628C000022C9F800201EE7204698478DE7606D74
:10629C0000283FF478AF424639460CF0D5FC70E745
:1062AC00606DE0B118490CF0CFFC6AE7586D00281E
:1062BC003FF424AF14490BF0B7FB1FE75A6D002ACB
:1062CC007FF4BCAEBEE610492046984759E74246DB
:1062DC0039462046984754E718469047B2E62C6951
:1062EC0051E70368094A9B6A934299D1026D002ACF
:1062FC007FF4E1AE436D002BC2D01A69DCE6184680
:10630C000149A047FAE600BFE4F100204105000076
:10631C00294B034410B50446092B47D8DFE803F09A
:10632C00191E23282D32373C41050621234816F02F
:10633C0021F80121224816F01DF8214600231022D5
:10634C00204813F019FB02211F48BDE8104016F03D
:10635C0011B805211D4816F00DF8EAE706211C4876
:10636C0016F008F8E5E706211A4816F003F8E0E7FE
:10637C000621194815F0FEFFDBE70721174815F039
:10638C00F9FFD6E70521164815F0F4FFD1E70521F2
:10639C00144815F0EFFFCCE70721134815F0EAFF7E
:1063AC00C7E70821114815F0E5FFC2E7082110489E
:1063BC0015F0E0FFBDE700BFFC27FFFFFC16002037
:1063CC001C1700204046002020170020BC1600207F
:1063DC00C4160020CC160020D4160020DC16002099
:1063EC00E4160020EC160020F41600200417002000
:1063FC0010170020FF2994460AD04B4B0344092B5D
:10640C0012D8DFE803F0171C21262B30353A3F1247
:10641C00454B034410B4092B47D8DFE803F082380E
:10642C00494B4D586470728070470A4660463F492C
:10643C0016F03EBE0A4660463D4916F039BE0A4685
:10644C0060463C4916F034BE0A4660463A4916F09E
:10645C002FBE0A466046394916F02ABE0A466046E7
:10646C00374916F025BE0A466046364916F020BE5E
:10647C000A466046344916F01BBE0A46604633494C
:10648C0016F016BE0A466046314916F011BE314B65
:10649C0007CBCCF8000018889B78ACF80C00CCF833
:1064AC000410CCF808208CF80E305DF8044B7047C3
:1064BC00294BEDE7294BEBE7294C0FCCCCF800002E
:1064CC00CCF80410CCF80820CCF80C30EDE7254BB8
:1064DC0007CB1B88CCF80000CCF80410CCF80820B3
:1064EC00ACF80C30E1E7204B07CB1B78CCF8000064
:1064FC00CCF80410CCF808208CF80C30D5E71B4BEA
:10650C00C6E71B4C0FCCCCF800002078CCF804105C
:10651C00CCF80820CCF80C308CF81000C5E7154BE3
:10652C00B6E7154BD4E700BFFC27FFFFE01B0020AC
:10653C00841B00206C1B0020981B0020C81B002013
:10654C000C1C0020F81B0020581B0020401B0020B6
:10655C00B01B0020BC1A0020DC1A0020001B0020FD
:10656C00301B0020201B0020AC1A00209C1A00209D
:10657C00EC1A0020101B0020CC1A0020FF2870B54C
:10658C0094B07DD002466D496D4816F091FD002304
:10659C006B4A6C49684610F087F9129B002B79D036
:1065AC005C20002514F044F80199029A0446664BCD
:1065BC0045600360654BC0E903129DF80C2004A9EB
:1065CC008360183000F8042C10F012F86368604AED
:1065DC0004A80133A565A2605E4D5F4A636000921A
:1065EC0010F048F82B6913B12846FEF799FB236885
:1065FC005A4A1B6B2C61934271D1236D002B59D0DD
:10660C0028690368564A9B6A934240F08C80036D5C
:10661C00002B5AD0D8692C691828024628BF18229A
:10662C00504B514918600023C1E90033C1E90233D2
:10663C00C1E904330B7604B323684C489E68864248
:10664C006BD1206D00285ED00DF006FE2C69A4B134
:10665C002368DB6A464A934262D1A06D18B116F0EA
:10666C0033F80023A365236D002B52D004F11800DE
:10667C0010F000F83748FEF753FB3B4814B070BDE0
:10668C003C4D2F4C0FCD0FC495E8030044F8040B80
:10669C0021807CE7139C002C82D12F4B04A82D4D1C
:1066AC0000930FF0E7FF2B693BB12846FEF738FB50
:1066BC002C6102E0636D002BA2D12F4B2A4C0FCB27
:1066CC0007C42948237014B070BD426D002A31D024
:1066DC0010692C691828024628BF1822A0E720460A
:1066EC0098470028E9D0286900288AD11E491D4BFB
:1066FC000860186048610876C1E90100C1E903002F
:10670C00194814B070BD606D0028A2D00BF08CF944
:10671C009CE7636D002BA9D1ACE72046B04795E709
:10672C0020469847A6E79847182802462C6928BFA8
:10673C00182275E72C69104672E700BF240E002062
:10674C0090B60120CC5D0020B83A0020143B00200C
:10675C00943A0020184C00200C3800202D01000029
:10676C0041050000E4710120E4F10020AD060000B9
:10677C00450100000C0E0020400E0020FF2815D013
:10678C0002460C490C4808B516F092FC0A490C2339
:10679C000A4A0B48FFF712FCFF20FFF7EFFE0949EE
:1067AC0002460948BDE8084013F0D8B80749064826
:1067BC0013F0D4B8240E002090B60120400E002017
:1067CC000C0E00209015002040460020A81500203B
:1067DC000E4B70B51878FFF7D1FE0D4B04461B78A5
:1067EC000BB9204670BD2A230A4E337017F058FAA5
:1067FC0005462146701C6A1C13F080FEAA1C31460B
:10680C00204613F07BFE204670BD00BFE0BB03208A
:10681C0025BC032090B6012070B50D460446192105
:10682C00554815F0A7FD00230A222946534813F0BA
:10683C00A3F8524813F076F8E6071ED4A00728D424
:10684C00610732D422073CD4E30646D4A60650D4C2
:10685C0060065AD4210664D4E2056ED4A30578D41C
:10686C002A464749474816F023FC0C23464A474919
:10687C004448BDE87040FFF7A1BB4DF60B00444AFD
:10688C002946FFF7B7FD43482946FFF7D1F9A00782
:10689C00D6D54DF60A003E4A2946FFF7ABFD2946F0
:1068AC003D48FFF7C5F96107CCD5394A4DF60500CF
:1068BC002946FFF79FFD29463848FFF7B9F922070B
:1068CC00C2D54DF60400324A2946FFF793FD2946FE
:1068DC003348FFF7ADF9E306B8D54DF606002C4A60
:1068EC002946FFF787FD29462E48FFF7A1F9A60692
:1068FC00AED54DF60C00264A2946FFF77BFD2A48FB
:10690C002946FFF795F96006A4D54DF60700204AF5
:10691C002946FFF76FFD29462448FFF789F9210620
:10692C009AD51B4A4DF60D002946FFF763FD294603
:10693C001F48FFF77DF9E20590D54DF60900144A82
:10694C002946FFF757FD29461A48FFF771F9A305A9
:10695C0086D5FF2D09D02A4617490D4816F0A8FBFD
:10696C0029461648FFF764F97AE7154B084C0FCB0C
:10697C0084E80F00F4E700BF2417002040460020F5
:10698C00240E002090B60120400E00200C0E00209A
:10699C0000720120FC1500200416002008160020AF
:1069AC001016002018160020382D00202816002064
:1069BC0040170020381600200C1C00204016002028
:1069CC00301B00202DE9F04F93468A4604460021E7
:1069DC004FF40042AF482DED028B9DB008EE10AA8B
:1069EC00CDF800B016F08EFD0821AB4815F0C2FCB6
:1069FC0034B1204617F054F90146204615F0BAFC84
:106A0C00A648DFF8E09212F08DFF00232246A4493D
:106A1C0008A8FEF713FAD9F8103013B14846FEF760
:106A2C007FF90C99C9F81010002900F0E4810B686B
:106A3C009C4ADB6B934240F009820CAE00224FF46F
:106A4C007A74994F1831304609928DF82C200A949B
:106A5C000897CDE91A220FF079FE1A9B002B00F053
:106A6C00D4815C20002513F0E3FD099B04464560AE
:106A7C00C36031460A9B183040F8083C9DF82C3016
:106A8C0000F8043C894B40F8183C894B40F8103C0A
:106A9C000FF0AEFD6368A7600133A56504956360D4
:106AAC004FF47A738DF818500593824B0794039327
:106ABC00814B304608930FF0DDFD804E336913B1E6
:106ACC003046FEF72DF9079C0A25DFF81C8234614D
:106ADC00002C00F0108123685B6B434540F047812C
:106AEC00A76D002F00F04F813B782E2B68D1002C26
:106AFC0000F02F8123685B6B434540F04081A26D11
:106B0C00002A00F053816E49644812F027FFD9F82F
:106B1C001010002900F013810B68624ADB6B934262
:106B2C004FF0000240F028810DF1300A4FF47A74D6
:106B3C00DFF874B1183150468DF82C20CDF820B008
:106B4C00CDE90924CDE91A220FF000FE1A9B002B87
:106B5C0000F001815C20002713F06AFD099B0446BC
:106B6C004760C36051460A9B183040F8083C9DF8BA
:106B7C002C3000F8043C4D4B40F8183C4C4B40F882
:106B8C00103C0FF035FD4B4BC4F808B00393636811
:106B9C00A765013304978DF8187063604FF47A730E
:106BAC0007940593444B504608930FF063FD3369EB
:106BBC0013B14248FEF7B4F8079C013D346187D10C
:106BCC00002C00F0988023683E491A6B8A4240F0F2
:106BDC008D80226D002A00F024819B6A3A498B42F9
:106BEC0040F02D81D069394D06212860384815F0C8
:106BFC00C1FB3069FCF7A0FA044628B117F050F835
:106C0C000146204615F0B6FB244812F08BFE0621F7
:106C1C00304815F0AFFB00230A2229681F4812F0F8
:106C2C00ABFE1E4812F07EFE306978B103682A492B
:106C3C009B682A688B4240F01C81036D002B00F08E
