:0200000460009A
:100000004643464200000156000000000103030081
:1000100000000000000000000000000000000000E0
:1000200000000000000000000000000000000000D0
:1000300000000000000000000000000000000000C0
:1000400000000000010408000000000000000000A3
:100050000000800000000000000000000000000020
:100060000000000000000000000000000000000090
:100070000000000000000000000000000000000080
:10008000EB04180A063204260000000000000000FD
:10009000050404240000000000000000000000002F
:1000A0000000000000000000000000000000000050
:1000B0000604000000000000000000000000000036
:1000C0000000000000000000000000000000000030
:1000D00020041808000000000000000000000000DC
:1000E0000000000000000000000000000000000010
:1000F0000000000000000000000000000000000000
:10010000D8041808000000000000000000000000F3
:100110000204180804200000000000000000000095
:1001200000000000000000000000000000000000CF
:10013000600400000000000000000000000000005B
:1001400000000000000000000000000000000000AF
:10015000000000000000000000000000000000009F
:10016000000000000000000000000000000000008F
:10017000000000000000000000000000000000007F
:10018000000000000000000000000000000000006F
:10019000000000000000000000000000000000005F
:1001A000000000000000000000000000000000004F
:1001B000000000000000000000000000000000003F
:1001C000000100000010000001000000000000001D
:1001D000000001000000000000000000000000001E
:1001E000000000000000000000000000000000000F
:1001F00000000000000000000000000000000000FF
:10020000FFFFFFFFFFFFFFFFFFFFFFFFFFFFFFFFFE
:10021000FFFFFFFFFFFFFFFFFFFFFFFFFFFFFFFFEE
:10100000D1002043551600600000000000000000E1
:1010100020100060001000600090026000000000DE
:1010200000000060009C020000000000FFFFFFFFC6
:10103000FFFFFFFFFFFFFFFFFFFFFFFFFFFFFFFFC0
:10104000FFFFFFFFFFFFFFFFFFFFFFFFFFFFFFFFB0
:10105000FFFFFFFFFFFFFFFFFFFFFFFFFFFFFFFFA0
:10106000FFFFFFFFFFFFFFFFFFFFFFFFFFFFFFFF90
:1014000080B500F033FA764B0822C3F85421754AB0
:10141000754B9A420FD0754B9A420CD2581E801AC7
:1014200020F003000430704B184453F8041B42F8BA
:10143000041B8342F9D16E4A6E4B9A4210D06E4B18
:101440009A420DD26A4A6D48801A20F00300043097
:10145000684B184453F8041B42F8041B8342F9D12B
:10146000674A684B9A420BD2654B674AD21A22F000
:10147000030204321A44002143F8041B9342FBD1B7
:101480004FF0E0234FF47002C3F8882D00235F492A
:101490005F4A41F823200133B02BFAD15D4B802104
:1014A0005D4A03F8011B9342FBD1584E4FF0E024F4
:1014B000C4F8086D4A4D4FF08038C5F80481DFF854
:1014C0008CA1C5F800A1C5F8F480DFF88491C5F8B7
:1014D000F090D4F8243D43F4E023C4F8243D4F4F6A
:1014E000FB6923F07F0343F04003FB617B6A23F039
:1014F0007F0343F040037B62494B4FF0FF329A6613
:10150000DA661A675A6700F0B6F9464BB363464B82
:10151000F363632363610026A66103232361434BC6
:10152000C4F8203DD4F8FC3D43F08073C4F8FC3D82
:101530003F4B1A6842F001021A605A683D4B1A602C
:1015400000F05CFBC5F80481C5F800A1C5F8F48083
:10155000C5F8F090384800F00BFDFB6E43F44053A3
:10156000FB66364B1E60C3F80861C3F81861C3F808
:101570002861C3F8386103F5A0239B6B13F0010FBA
:1015800009D12F4B2F4A5A6542F615621A659A6B9C
:1015900042F001029A632A4A936843F00113936070
:1015A00000F0E2F900F09EFC00F0EAFC00F056FBCF
:1015B00000F0CEFC244A1368132BFCD900F0F2FB98
:1015C000214A1368B3F5967FFBD300F052F900F07F
:1015D0004FF900F0D9FC00F0DBFC30BFFDE700BFA5
:1015E00000800D4000000000F4270060C8070200E2
:1015F00000000020C02F0260C05E0020BF5E0020FF
:10160000C05E002080C003207FC00320005C00205B
:101610008D74010000E400E0A0E400E000C00F4091
:1016200000C00A40A58F0100AD8F010000002020FE
:10163000001000E038BC03200046C32300400840EF
:1016400000400D400000C0563CBC03201B10182079
:101650000C0D1113074B084A5A64084A1A644FF4D8
:101660002A029A63064B9D46BFF34F8FBFF36F8FDD
:10167000FFF7C6FE00C00A40FFABAAAA0700200081
:101680000080052010B40F4A436903EB01131B7A55
:1016900002EB03139B680C4C1C60436903EB0113C2
:1016A00093F808C002EB0C125268DB6813604369C0
:1016B00003EB01110B690BB14A691A605DF8044B29
:1016C000704700BF0843002061F8010038B50446A8
:1016D0004369027E03EB0212107A884209D01A7A1B
:1016E000FF2A06D0914207D01A7EFF2A01D08A42F3
:1016F00000D038BD012500E000251A6812685B683B
:101700001A4201D12576F4E7054B03EB00135B6821
:1017100005221A6029462046FFF7B4FFF2E700BF12
:101720000843002010B40F4A436903EB011393F8F8
:10173000283002EB03139B680B4C1C60436903EBDE
:10174000011393F828C002EB0C125268DB6A136095
:10175000436903EB01110B6B0BB14A6B1A605DF827
:10176000044B70470843002061F8010038B5044677
:101770004369427E03EB021292F8280088420BD0A4
:1017800093F82820FF2A07D0914208D093F83820F8
:10179000FF2A01D08A4200D038BD012500E0002593
:1017A0001A6812685B681A4201D16576F4E7054B46
:1017B00003EB00135B6805221A6029462046FFF7F9
:1017C000B1FFF2E70843002010B504460D4A936BC1
:1017D00023F47C0343F48023936341690A6813680C
:1017E00049680B431360036902221A61064900F03D
:1017F000B3FB217E2046FFF745FF617E2046FFF7C1
:1018000091FF10BD00C00F40A0860100094BC3F836
:10181000A010000400F47020C3F8A4000122C3F853
:10182000B0201A46536913F0010FFBD0014B01227F
:101830005A61704700402A400A4BC3F8A0000A4A88
:10184000C3F8A4200122C3F8B0201A46536913F04C
:10185000010FFBD0034BD3F8000121225A6180B263
:10186000704700BF00402A400400030070477047E3
:10187000704700BF70474FF0E0230021C3F8941D6C
:101880001022C3F89C2D284AC3F8A02D1122C3F8BA
:101890009C2D264AC3F8A02D1222C3F89C2D244A61
:1018A000C3F8A02D234AC3F89C2D234AC3F8A02DCA
:1018B000224AC3F89C2D224AC3F8A02D214A42F0A7
:1018C0001502C3F89C2D204AC3F8A02D02F18152C5
:1018D0000D32C3F89C2D1D4AC3F8A02D1C4AC3F835
:1018E0009C2D1C4AC3F8A02D1B4AC3F89C2D1B4AF3
:1018F000C3F8A02D1A4AC3F89C2D1A4AC3F8A02D8C
:101900000122C3F8942DBFF34F8FBFF36F8FC3F83D
:10191000501FBFF34F8FBFF36F8FD3F8142D42F4D6
:101920004032C3F8142D70473F0000102500080313
:1019300009001000130020002100020714000020FD
:101940002500081380C003200900001027000B1396
:101950001700004033001013180000602F000B0721
:10196000190000702F000B1310B582B08C4B8D4AFC
:10197000C3F85C228C49C3F86012C3F86422A2F554
:101980003042C3F8682202F5E042C3F86C22C3F883
:101990007022C3F87422C3F878221822DA661A6714
:1019A0005A679A67DA67C3F88020C3F88420C3F8BF
:1019B000882003F580630122C3F82C23C3F8302369
:1019C000C3F83423C3F83823C3F83C23C3F85023A7
:1019D000764B9A6976491140764A0A439A61D3F860
:1019E000842042F00C02C3F8842003F5D4131A6853
:1019F00042F002021A60196821F4F14121F07301EA
:101A00000904090C6C4A0A431A604FF0FF325A600D
:101A10006A49886802F5770202F56052024042F096
:101A200000529A60DA6822F07802DA601A6A644C2E
:101A30002240644802431A621A6A224002435A62F0
:101A4000614A9A62DA62D1F8B82022F03F0242F08D
:101A50000102C3F8B820D1F8BC2022F03F0242F0C6
:101A60000102C3F8BC2000221A614FF4005018662E
:101A70005649196740F20562C3F8802058665967D5
:101A8000C3F884201A6822F002021A60504A9A6150
:101A90000222DA6103F5007300214E4A43F8041B69
:101AA0009342FBD14C4A136843F00103136013685F
:101AB00013F0010FFBD1484B454A9A610224DC61C7
:101AC00040F2F562C3F8002240F26642C3F81022E9
:101AD00040F29942C3F82022404AC3F8302242F231
:101AE0000142C3F8342240F23542C3F840223C4A56
:101AF000C3F850223B4AC3F854223B4AC3F8602241
:101B000042F20122C3F8642200210846FFF77EFE5C
:101B100000210120FFF77AFE00212046FFF776FE24
:101B20000020FFF789FE45F60D53984207D02F4B52
:101B300000221A605A609A60DA6002B010BD00217B
:101B40000420FFF763FE4FF400010020FFF75EFE64
:101B50004FF400010120FFF759FE4FF40001204629
:101B6000FFF754FE4FF40000FFF766FE45F60D53F5
:101B700098420ED008201E4B18701E491E4A521A59
:101B800000230093012302EB0052184800F0F4F9FF
:101B9000D3E74FF400010420FFF738FE1020EAE7F6
:101BA00000801F40F9B00100F910010000C00F4093
:101BB000FFFCFF1F000300A01200FFFF00802A406F
:101BC00000FFF07C40000080FF000F8363000200F4
:101BD000F05AF05A00432A4000402A409F0418302F
:101BE000EB06180A063201263806180AECF5002022
:101BF0000FC003200000007000000070F0B4164A0F
:101C000040274FF480314FF480564FF400554FF485
:101C1000404443F2420002E09461516190611369D3
:101C200013F0020FF8D113F4005F0CD013F4805FAF
:101C30000BD0002BF3DA13F4803F08D113F0400FE0
:101C400007D0F0BC70475561E9E75661E7E791615D
:101C5000E5E75761E3E700BF00800D4030B4454B36
:101C6000D3F8802022F00102C3F880200322C3F8B9
:101C70009020414AD2F8E020D1B2404C2160C2F31A
:101C80000B203F4D286007EE901AB8EE677AF3EE0E
:101C9000094A37EE646A3B4981ED006A07EE900A13
:101CA000F8EE676A120D07EE902AF8EE677A77EE83
:101CB000E67A3548C0ED007AD3F88020DFED335A5C
:101CC00037EE657A27EE277AC7EE067A77EEA67AA0
:101CD000FCEEE77A17EE90CA42EA0C52C3F8802075
:101CE00095ED006AB8EE466AD4ED007AF8EE677AB0
:101CF00090ED005AD1ED005AD3F89011DFED246A2F
:101D000077EEE66A66EE856A86EEA57A37EE067AA3
:101D1000BCEEC77A1F4A17EE100A02EA00420A43D5
:101D2000C3F89021D3F8901177EEE47A27EE857A04
:101D3000C7EE257A77EE867AFCEEE77A17EE902AE0
:101D4000C2F30B020A43C3F89021D3F8802042F07B
:101D50000202C3F88020104B002283F840200F4B72
:101D60000F4AC3F840214FF0E0230122C3F80821B5
:101D700030BC704700810D4000441F40F0B9012085
:101D8000ECB90120F4B90120F8B901200000AA4201
:101D90000000B4420000FF0F00E400E0005C0020FF
:101DA0006B76010038B5324B40F66172C3F82021E2
:101DB00000F0D6F82F4AD2F8803043F00303C2F87F
:101DC00080302D4B40F20442C3F860212B4B1A683F
:101DD0002B4B1A4205D1284BD3F8A83113F0030F2F
:101DE0001CD0264B4FF000425A63234AD2F84031B0
:101DF00043F00203C2F84031D2F8403113F0020F31
:101E0000FAD14FF0E0234FF40032C3F88C221B4B81
:101E10004FF000429A63192000F0A6F8174B4FF0DC
:101E200080429A6300211960134C0A23C4F8A83138
:101E3000144D4FF42072284600F086F84FF48103C9
:101E40002B604FF480032B64C4F8585140F24313C5
:101E5000C4F848310C4B0D4AC3F804224FF0E0237C
:101E60004FF40032C3F80C210123C4F8403138BDCF
:101E700000800D4000C00F4000002E4000900D403B
:101E8000001C1E0000000020005C0020657901009D
:101E900008B50F4B1B6E13F0020F00D1FBBE72B6DC
:101EA0000C4B0022C3F84021A3F50D130A4A1A6413
:101EB000A3F1FF53A3F52B239D46BFF34F8F074894
:101EC000074B03604FF40013DB699B689847E6E714
:101ED00000441F4000002E4003002000008020200E
:101EE000000012EB114BDA6E42F44032DA66DA6E21
:101EF00042F44072DA66A3F5603340F237625A6406
:101F0000A0229A641A46936C13F0800FFBD1084B01
:101F100040F237625A64A0229A641A46936C13F016
:101F2000800FFBD1034B00221A70704700C00F4096
:101F300000800C40FDBF0320F8B500BFF8BC08BC12
:101F40009E467047000000005FF800F07DAC010085
:101F50005FF800F0317D00005FF800F0E9D3000089
:101F60005FF800F0057F01005FF800F0E56D01000B
:101F70005FF800F0F56A01005FF800F0399E01009B
:101F80005FF800F0619D01005FF800F0D9B2010038
:101F90005FF800F0DD9A010009010000F9970000E8
:101FA00089D40000B1F1000009FA00005D9601003B
:101FB0000000000000000000000000000000000021
:101FC0000000000000000000000000000000000011
:101FD0000000000000000000000000000000000001
:101FE00000000000000000000000000000000000F1
:101FF00000000000000000000000000000000000E1
:1020000000000000000000000000000000000000D0
:1020100000000000000000000000000000000000C0
:1020200000000000000000000000000000000000B0
:1020300000000000000000000000000000000000A0
:102040000000000000000000000000000000000090
:102050000000000000000000000000000000000080
:102060000000000000000000000000000000000070
:102070000000000000000000000000000000000060
:102080000000000000000000000000000000000050
:102090000000000000000000000000000000000040
:1020A0000000000000000000000000000000000030
:1020B0000000000000000000000000000000000020
:1020C0000000000000000000000000000000000010
:1020D0000000000000000000000000000000000000
:1020E00000000000000000000000000000000000F0
:1020F00000000000000000000000000000000000E0
:1021000000000000000000000000000000000000CF
:102110003F000000000000000000000000001FFC65
:102120003F000000000000000000000000007FFCF5
:102130003F00000000000000000000000000FFFC65
:102140003F00000000000000000000000001FFFC54
:102150003F00000000000000000000000003FFFC42
:102160003F00000000000000000000000007FFFC2E
:102170003F3F007E3F3FC0FF001FFF80000FF9FC84
:102180003F3F007E3F7FF3FFC07FFFE0001FE1FC89
:102190003F3F007E3FFFFFFFE0FFFFE0000FC1FC7D
:1021A0003F3F007E3FFFFFFFE1FFFFF0000781FCA4
:1021B0003F3F007E3FC1FF07F1F807F0000301FC3D
:1021C0003F3F007E3F80FE03F00003F0000001FC73
:1021D0003F3F007E3F00FC03F03FFBF1FFF801FCB6
:1021E0003F3F007E3F00FC03F0FFFFF1FFF801FCE2
:1021F0003F3F007E3F00FC03F0FFFFF1FFF801FCD2
:102200003F3F007E3F00FC03F1FC03F1FFF801FCBF
:102210003F3F00FE3F00FC03F1F803F0000001FC2B
:102220003F3F81FE3F00FC03F1F807F0000001FC96
:102230003F1FFFFE3F00FC03F1FFFFF0000001FC29
:102240003F1FFFFE3F00FC03F1FFFFF0000001FC19
:102250003F0FFF7E3F00FC03F0FFFBF0000001FC9E
:102260003F03FE7E3F00FC03F07FF3F0000001FC23
:10227000000000000000000000000000000000005E
:10228000000000000000000000000000000000004E
:10229000000000000000000000000000000000003E
:1022A000000000000000000000000000000000002E
:1022B000000000000000000000000000000000001E
:1022C000000000000000000000000000000000000E
:1022D00000000000000000000000000000000000FE
:1022E00000000000000000000000000000000000EE
:1022F00000000000000000000000000000000000DE
:1023000000000000000000000000000000000000CD
:1023100000000000000000000000000000000000BD
:1023200000000000000000000000000000000000AD
:10233000000000000000000000000000000000009D
:10234000000000000000000000000000000000008D
:10235000000000000000000000000000000000007D
:10236000000000000000000000000000000000006D
:10237000000000000000000000000000000000005D
:10238000000000000000000000000000000000004D
:10239000000000000000000000000000000000003D
:1023A000000000000000000000000000000000002D
:1023B00070C00F40C00000001200000013000000B9
:1023C000D0841F4001000000FF000000FF0000005B
:1023D00000000000000000001300000013000000D7
:1023E000CC841F4001000000FF000000FF0000003F
:1023F00000000000000000001C000000B9D3000035
:1024000070C00F40000C000011000000110000001F
:10241000E0841F40020000002C00000012000000B9
:10242000E0841F40010000001000000011000000C7
:10243000DC841F40020000002D000000120000009C
:10244000DC841F40010000001E000000C9D3000012
:1024500080C00F40000000031900000010000000C1
:10246000E8841F4001000000FF000000FF000000A2
:102470000000000000000000180000001000000034
:10248000E4841F4001000000FF000000FF00000086
:1024900000000000000000001F000000D9D3000071
:1024A00000006000000000000000000000000000CC
:1024B00000E000000000000000000000000000013B
:1024C000E00000000000000000000000000001F03B
:1024D0000000000000000000000000000003F00009
:1024E00000000000000000000000000007F00000F5
:1024F000000000000000000000000007F8000000DD
:10250000000000000000000000000FF800000003C1
:10251000C0007E000001E0007F0FF800000003C053
:1025200000FE000001E000FFEFF800000003C00023
:10253000FE000001E000FFFFF800000003C000F013
:102540000000000F007FFE7FC0000003C000F0000D
:1025500000000F003FFE7FF83FF1FBCFFCFEF3BC15
:102560003DEFE01FFE7FFF7FFBFFDFFEFEFFBC3D78
:10257000EFE01FC6FFFF7FFBFFDFFEFEFFBC3DEF6E
:10258000E00FE3C7FE787BC3DE1EF0FFBC3DEF002B
:1025900007FF87FC787BC3DE1EF0F83C3DEF0001AF
:1025A000FFFFF0007BC3C01EF0F03C3DEF0001F3E5
:1025B0007FE03FFBC3CFFEF0F03C3DEF0003E33F85
:1025C000807FFBC3DFFEF0F03C3DEF0007E73C00FF
:1025D000787BC3DE1EF0F03C3DEF0007FFBE0078C5
:1025E0007BC3DE1EF0F03C3DEF0007FFFE00787B72
:1025F000C3DE1EF0F03C3DEF000FFFFE007FFBFF4F
:10260000DFFEF0F03FFDEFE00FFFFF007FFBFFDF9D
:10261000FEF0F03FFDEFE00FF9FF003E79F9CF9EAD
:10262000F0F01F3DE7E01FF1FF0000000000000098
:1026300000000000001F80FF007FFFFFFFFFFFFF83
:10264000FFFFFFE01C007F007FFFFFFFFEB46D88EF
:102650008D18E000001F007FFFFFFFFE95AD7DB5E8
:1026600077E000000F007FFFFFFFFEA5AD9D8D19F5
:10267000E0000006007FFFFFFFFEB5ADEDB57EE098
:1026800018035400650065006E0073007900200097
:102690004D004900440049001803540065006500DE
:1026A0006E00730079006400750069006E006F00B1
:1026B0000403090409029500030100C032080B005D
:1026C00002020201000904000001020201000524C7
:1026D000001001052401010104240206052406005E
:1026E000010705820310001009040100020A00001E
:1026F00000070503024000000705830240000009AF
:102700000402000201030000072401000125000665
:10271000240201010006240202020009240301032D
:10272000010201000924030204010101000905045A
:102730000240000000000525010101090584024056
:1027400000000000052501010300000009029500BA
:10275000030100C032080B0002020201000904005C
:1027600000010202010005240010010524010101FD
:102770000424020605240600010705820310000553
:1027800009040100020A000000070503020002001C
:102790000705830200020009040200020103000091
:1027A000072401000125000624020101000624027D
:1027B00002020009240301030102010009240302AB
:1027C00004010101000905040200020000000525C2
:1027D0000101010905840200020000000525010134
:1027E000030000000A060002EF02014001000000A1
:0427F00000010000E4
:1027F40000000000000000000000000000000000D5
:1028040000000000000000000000000000000000C4
:10281400F8B54FF084439D695B691D400FD04FF0BC
:1028240084439D61244F012695FAA5F4B4FA84F4F7
:1028340057F82430984706FA04F4A543F4D11F4B03
:102844009D695B691D400ED01C4B9D611C4F012688
:1028540095FAA5F4B4FA84F457F82430984706FAA4
:1028640004F4A543F4D1174B9D695B691D400ED058
:10287400144B9D61144F012695FAA5F4B4FA84F41F
:1028840057F82430984706FA04F4A543F4D10F4BC3
:102894009D695B691D400ED00C4B9D610C4F012658
:1028A40095FAA5F4B4FA84F457F82430984706FA54
:1028B40004F4A543F4D1F8BD384F00200040004291
:1028C400B84F0020008000423850002000C0004271
:1028D400B85000200548064B1B1AD90F01EBA30181
:1028E400491002D0034B03B118477047C05E002063
:1028F400C05E00200000000008B5054B1BB105496F
:102904000548AFF30080BDE80840FFF7E3BF00BF10
:102914000000000068780120009C026000207047DD
:102924007047006920B108B50368DB68984708BDA3
:1029340000207047006920B108B503681B699847F7
:1029440008BD00207047006920B108B503685B69C1
:10295400984708BD4FF0FF307047006920B108B5B3
:1029640003689B69984708BD7047006968B100B562
:1029740083B003689B6801220DF10701984738B1C1
:102984009DF8070003B05DF804FB4FF0FF3070477B
:102994004FF0FF30F6E700B583B08DF807100069FB
:1029A40040B10368DB6801220DF10701984703B0C9
:1029B4005DF804FB0020FAE7036D53B11A7812F0B6
:1029C400080F20D0D8695B69C01A48BF6FF0004077
:1029D4007047436DCBB193F8312012F0080F16D035
:1029E40010B41A69596918685C68131A61EB040217
:1029F4001846B3F1004F72F1000201D36FF00040AA
:102A04005DF8044B70470020704700207047002396
:102A14001A461846B3F1004F72F1000228BF6FF056
:102A240000407047036D13B1586900217047436D2E
:102A340013B1186859687047002001467047036D48
:102A440013B1D86900217047436D13B118695969EE
:102A54007047002001467047036D0BB10120704799
:102A6400406D003818BF01207047704738B52D4CB1
:102A740001231A46202120460CF09CFF94F8A22042
:102A840094F8A330934247D92346511C84F8A210EA
:102A940013449B7EDBB2244A1370224C402384F8F7
:102AA400A530012584F8305184F82F5123681B6820
:102AB400102120469847294620460CF0FFFE2B465D
:102AC4002A46202120460CF075FF94F8A22094F8A1
:102AD400A330934223D92346511984F8A2101344F6
:102AE4009B7EDBB2114A13700E4C402384F8A53050
:102AF400012584F8305184F82F5123681B68132171
:102B040020469847294620460CF0D8FE084B002260
:102B14001A70084B1D7038BD4FF0FF33BAE74FF001
:102B2400FF33DEE70C68002009C003200BC003203C
:102B34000CC00320FEBF032038B52D4C01231A46D8
:102B4400202120460CF036FF94F8A22094F8A330FC
:102B5400934247D92346511C84F8A21013449B7E08
:102B6400DBB2244A1370224C402384F8A53001259B
:102B740084F8305184F82F5123681B6811212046B2
:102B84009847294620460CF099FE2B462A462021D8
:102B940020460CF00FFF94F8A22094F8A33093423F
:102BA40023D92346511984F8A21013449B7EDBB227
:102BB400114A13700E4C402384F8A530012584F883
:102BC400305184F82F5123681B68132120469847FD
:102BD400294620460CF072FE084B00221A70084B5E
:102BE4001D7038BD4FF0FF33BAE74FF0FF33DEE717
:102BF4000C68002009C003200CC003200BC0032074
:102C0400FEBF032008B5172016F020FD70B9094B4C
:102C14001B680133012B0ADD064B00221A60064BA8
:102C240001221A70054B1A68054B1A6008BD014A47
:102C34001360F7E7287701202CC003203CBC032055
:102C440098BA012010B5044619F0C6F9204610BD03
:102C54008A79A2F1500313F0800F20D1F0B585B02A
:102C640002F26C724B790133DBB20D798E784F78B6
:102C74000978046D4CB103910297019600950421E3
:102C8400204612F0BBFA05B0F0BD406D48B1039187
:102C9400029701960095042110F0D5FBF3E700207C
:102CA40070470020EFE710B582B003460C46006D74
:102CB40010B301AA0DF1060112F07AF8D0B1BDF8F3
:102CC4000630BDF8042053EA02011FD002F01F01B0
:102CD40049002170C2F345116170D20AA27003F059
:102CE4001F022271C3F34312013A62715B0A03F5B6
:102CF400EA63A37102B010BD586D28B101AA0DF1A9
:102D040006010FF0EFFAD9E70020F3E70020F1E71E
:102D140010B582B003460C46006D10B301AA0DF144
:102D2400060112F035F8D0B1BDF80630BDF8042024
:102D340053EA02011FD002F01F0149002170C2F3BF
:102D440045116170D20AA27003F01F022271C3F30D
:102D54004312013A62715B0A03F5EA63A37102B09C
:102D640010BD586D28B101AA0DF106010FF0A8FAA3
:102D7400D9E70020F3E70020F1E710B50446006D21
:102D840020B1037813F0700F0ED110BD636D002BCA
:102D9400FBD093F8313013F0500FF6D0606D002261
:102DA40000230FF0FAFBF0E7002111F0B9FD606D8C
:102DB4000028EAD0F3E708B50346806C10B111F09F
:102DC40079FD08BDD86C10B10FF0D1FBF9E74FF0D5
:102DD400FF30F6E700B583B00346806C58B101229A
:102DE4000DF1070111F091FC01280FD19DF80700A6
:102DF40003B05DF804FBD86C28B101220DF1070182
:102E04000FF0EAFAF0E74FF0FF30F1E74FF0FF3050
:102E1400EEE708B50346806C10B111F0CFFE08BD93
:102E2400D86C0028FBD010F087F9F8E700B583B020
:102E340003468DF80710806C38B101220DF10701AB
:102E440012F094FA03B05DF804FBD86C28B10122A7
:102E54000DF1070110F024FCF4E70020F2E7000074
:102E640010B50446836D0BB1A06D10BD4FF4807096
:102E740019F01CFC0146A06580B100230370206D8D
:102E840020B14FF4807213F03BFCEDE7606D002835
:102E9400EAD04FF4807211F0A3F8E5E7014BA36583
:102EA400E2E700BFFABF032010B50446806D18B1F5
:102EB40019F004FC0023A365236D23B104F1180069
:102EC40013F0EAFF10BD636D002BF7D1FAE710B5DC
:102ED400046D94B14FF0FF3191424FF000019941DC
:102EE40001D2002010BD1146204611F019FD002822
:102EF400F8D0204612F000FAF4E7446D44B12046BD
:102F04000FF04BFB0028EDD0204610F056FBE9E70C
:102F14000020E7E770B594B00546002201924FF413
:102F24007A7302938DF80C20129213921F4B009324
:102F3400183104A813F0FEFF129B002B2AD05C204A
:102F440019F0CCF9044600264660194B0360019B36
:102F5400C360184B8360029B03619DF80C300375BA
:102F640004A9183013F057FF104BA360A6656E60D8
:102F74004FF47A73AB602E730F4B2B602C61636834
:102F8400013363600D4B009304A813F085FF2846BA
:102F940014B070BD139B002BD1D16B604FF47A72C7
:102FA400AA602B73044A2A602B61EBE7F43E0020ED
:102FB400183F0020743F0020C83E00206C3C0020D5
:102FC40008B50346006D10B111F074FC08BD586DCE
:102FD40010B10FF0CCFAF9E74FF0FF30F6E7036DCC
:102FE40033B11B7813F0700F14BF01200020704719
:102FF400436D3BB193F8313013F0500F14BF0120EF
:10300400002070470020704708B50346006D10B1DA
:1030140011F07BFB08BD586D10B10FF0DDF9F9E735
:103024004FF0FF30F6E708B50346006D10B111F01C
:10303400C5FD08BD586D0028FBD010F07DF8F8E7F9
:1030440010B504460C4B0360806D18B119F036FBC3
:103054000023A365236D5BB104F1180013F01CFF7A
:10306400064BA36004F1180013F016FF204610BDB0
:10307400636D002BF0D1F3E7183F00206C3C002077
:1030840010B504460E4B0360806D18B119F016FBA1
:103094000023A365236D7BB104F1180013F0FCFE3B
:1030A400084BA36004F1180013F0F6FE5C212046DF
:1030B40019F018F9204610BD636D002BECD1EFE731
:1030C400183F00206C3C002008B50346006D10B189
:1030D40012F04CF908BD586D10B110F0E1FAF9E79F
:1030E4000020F7E708B50346806C10B112F03EF9F2
:1030F40008BDD86C10B110F0D3FAF9E70020F7E757
:103104008A79A2F1500313F0800F20D1F0B585B075
:1031140002F26C724B790133DBB20D798E784F7801
:103124000978046D4CB10391029701960095022130
:10313400204612F063F805B0F0BD406D48B103912C
:10314400029701960095022110F07DF9F3E7002023
:1031540070470020EFE7836C53B11A7812F0080F20
:1031640020D0D8695B69C01A48BF6FF0004070472F
:10317400C36CCBB193F8312012F0080F16D010B401
:103184001A69596918685C68131A61EB04021846D5
:10319400B3F1004F72F1000201D36FF000405DF80B
:1031A400044B7047002070470020704700231A46E4
:1031B4001846B3F1004F72F1000228BF6FF00040CF
:1031C400704710B5029C2CB1012C19D0022C34D0BC
:1031D400002010BD046D6CB14FF0FF3191424FF0EF
:1031E4000001994101D20020F3E71146204611F075
:1031F40097FBEEE7406D00283CD00FF0CEF9E8E7EE
:10320400046D64B16169891843F100034FF0FF3222
:103214008A424FF000029A410BD20020D9E7406D58
:1032240050B301684468521843EB04030FF0B5F936
:10323400CFE7204611F074FBCBE7046D64B1E1697C
:10324400891843F100034FF0FF328A424FF0000225
:103254009A410BD20020BCE7406D78B10169446902
:10326400521843EB04030FF098F9B2E7204611F02B
:1032740057FBAEE70020ACE70020AAE70020A8E750
:1032840010B50446094B0360036963B15A68013AF7
:103294005A6042B900690368DB6A9847206910B133
:1032A40003685B689847204610BD00BFC83E0020F5
:1032B40010B504460B4B0360036963B15A68013AC5
:1032C4005A6042B900690368DB6A9847206910B103
:1032D40003685B6898471421204619F003F82046D8
:1032E40010BD00BFC83E002008B518F07DF810B925
:1032F40008BD18F0B7F818F077F80028F9D10120C4
:10330400F6E7000008B5084B1B7803B908BD074B66
:1033140001221A70032016F08FFC1D2016F08CFC7D
:10332400014B00221A70F1E70AC0032025C00320D4
:1033340038B504460A4D2B685B68112209492846B2
:10334400984700230A222146284618F0B5FE28464D
:1033540018F08AFE2146002016F030FB38BD00BF6D
:10336400484900201C1F002038B5002016F016FA2A
:1033740004460C4D2B685B6811220B49284698477C
:1033840000230A222146284618F096FE284618F003
:103394006BFE022C01D8204638BD0020FFF7C8FF81
:1033A4000024F8E748490020081F002038B50446E7
:1033B4000A4D2B685B681B2209492846984700235D
:1033C4000A222146284618F077FE284618F04CFEBB
:1033D4002146012016F0F2FA38BD00BF484900200A
:1033E4004C2F002038B5012016F0D8F904460A4DB8
:1033F4002B685B681B2209492846984700230A2248
:103404002146284618F058FE284618F02DFE032CB5
:1034140034BF2046002038BD48490020102F00202A
:1034240038B504460A4D2B685B681D2209492846B5
:10343400984700230A222146284618F03DFE2846D4
:1034440018F012FE2146022016F0B8FA38BD00BF6B
:10345400484900208C2D002010B5022016F09EF95A
:10346400044650B1084B02460849094818F016FEB4
:10347400112C28BF0024204610BD064B002203490E
:10348400034818F00BFEF6E7502E00205C2D0020B8
:1034940048490020802D002070B50D4614461E4674
:1034A400134602460449054818F0F8FD44EA0601AB
:1034B400284616F083FA70BDA42B0020484900204A
:1034C40030B583B00546084616F068F9044610F096
:1034D400010F0B4B0B4A08BF134610F0020F0A4AA8
:1034E400084908BF0A460192009320F0F0032A46D7
:1034F4000649074818F0D2FD204603B030BD00BF8E
:103504000C2B0020502E0020280C0020142B00200F
:103514004849002008B50246A02303210148FFF7CB
:10352400BBFF08BDF82F002008B503210948FFF7A9
:10353400C7FF00F0F003A02B02D100F00F0008BD7C
:103544000549064818F0AAFD0320FFF7E3FF03200E
:10355400F3E700BFF82F0020BC2F002048490020CB
:1035640008B50246A02304210148FFF795FF08BDD2
:10357400682F002008B504210948FFF7A1FF00F0D7
:10358400F003A02B02D100F00F0008BD0549064846
:1035940018F084FD0320FFF7E3FF0320F3E700BFE7
:1035A400682F0020BC2F00204849002008B502469F
:1035B400A02305210148FFF76FFF08BD103000204C
:1035C40008B505210948FFF77BFF00F0F003A02BA5
:1035D40002D100F00F0008BD0549064818F05EFD51
:1035E4000320FFF7E3FF0320F3E700BF10300020C0
:1035F400BC2F00204849002008B50246A02306211C
:103604000148FFF749FF08BDE02F002008B5062157
:103614000948FFF755FF00F0F003A02B02D100F09A
:103624000F0008BD0549064818F038FD0220FFF7D1
:10363400E3FF0220F3E700BFE02F0020A02F0020CB
:103644004849002008B50246A02307210148FFF796
:1036540023FF08BDB02E002008B507210948FFF755
:103664002FFF00F0F003A02B02D100F00F0008BDE3
:103674000549064818F012FD0220FFF7E3FF022077
:10368400F3E700BFB02E0020A02F002048490020FF
:1036940010B5041E064A074B08BF1A4606490748D8
:1036A40018F0FCFC2146082016F088F910BD00BF74
:1036B40088180020142E0020182E002048490020CD
:1036C40010B5082016F06AF8041E064A064B08BF17
:1036D4001A460649064818F0E1FC201E18BF0120CE
:1036E40010BD00BF88180020142E0020FC2D0020DF
:1036F4004849002010B5041E064A074B08BF1A4665
:103704000649074818F0CAFC2146092016F056F964
:1037140010BD00BF7C2E0020842E0020902E00209F
:103724004849002010B5092016F038F8041E064A4E
:10373400064B08BF1A460649064818F0AFFC201E7F
:1037440018BF012010BD00BF7C2E0020842E002055
:103754005C2E00204849002010B5041E064A074B81
:1037640008BF1A460649074818F098FC21460C2061
:1037740016F024F910BD00BF7C2E0020842E0020FA
:10378400802F00204849002008B50020FFF7D0FD15
:103794000020FFF70BFE0020FFF742FE0320FFF797
:1037A400B9FE0320FFF7DCFE0320FFF7FFFE022033
:1037B400FFF722FF0220FFF745FF0120FFF768FF14
:1037C4000020FFF797FF0120FFF7C6FF08BD0000A8
:1037D40010B578B90B4C23685B680E220A49204661
:1037E4009847204618F040FC4FF0E023074AC3F8FE
:1037F4000C2D10BDFFF7C8FF4FF47A7015F0EAFEE8
:10380400E8E700BF48490020B43000200400FA056E
:1038140010B50C2015F0C2FF041E064A064B08BF63
:103824001A460649064818F039FC201E18BF012024
:1038340010BD00BF7C2E0020842E00202C2F0020E1
:103844004849002038B50B2015F0A8FF040204F401
:103854007F440A2015F0A2FF0444A4B242F20F737D
:103864009C4215D8651CADB29D4288BF0025E9B2C3
:103874000A2016F0A3F8C5F307210B2016F09EF8D2
:103884002B4622460449054818F008FC204638BD5A
:1038940000240125EBE700BFF82B00204849002055
:1038A40070B5054602460D490D4818F0F7FB05F1C1
:1038B40008062C4614F8011B04F2FF10401B16F0F6
:1038C4007DF8B442F6D1064C23685B6805220549AD
:1038D40020469847204618F0C7FB70BDAC2D002049
:1038E40048490020D42D0020F8B507460F48036846
:1038F4005B6824220E4998477C1EFE1D40F2012578
:10390400ED1B281915F04AFF04F8010FB442F8D151
:1039140000233B72054C23685B6805220549204659
:103924009847204618F0A0FBF8BD00BF4849002086
:10393400342D0020D42D002010B501281BD00228DE
:1039440027D050B11A4C23685B681A2219492046C3
:103954009847204618F088FB0CE0154C23685B68F8
:103964000D22154920469847204618F07DFB134B3D
:1039740000221A6010BD0E4C23685B680B221049AC
:1039840020469847204618F06FFB0C4B01221A6022
:10399400F0E7074C23685B680C220A4920469847E5
:1039A400204618F061FB054B02221A60E2E700BFD3
:1039B40048490020740D0020480D0020184F0020B5
:1039C400580D0020640D002099287ED8DFE800F00F
:1039D4007F4D4F517D7D7D7D7D7D7D7D7D7D7D7D9B
:1039E40053557D7D7D7D7D7D7D7D7D7D7D7D7D7D55
:1039F4007D7D7D7D7D7D7D7D7D7D7D7D7D7D7D7DF3
:103A04007D7D7D7D7D7D7D7D7D7D7D7D7D7D7D7DE2
:103A14007D7D7D7D7D7D7D7D7D7D7D7D7D7D7D7DD2
:103A24007D7D7D7D7D577D7D7D7D7D7D7D7D7D7DE8
:103A34007D7D7D7D7D7D597D7D7D7D7D7D7D7D7DD6
:103A44005B5D5F617D7D7D7D7D7D7D7D7D7D7D7D1E
:103A5400636567696B6D6F71737D7D7D7D7D7D7D34
:103A6400757D7D7D7D7D7D77797B1A4870471A4809
:103A740070471A4870471A4870471A4870471A48DE
:103A840070471A4870471A4870471A4870471A48CE
:103A940070471A4870471A4870471A4870471A48BE
:103AA40070471A4870471A4870471A4870471A48AE
:103AB40070471A4870471A4870471A4870471A489E
:103AC40070471A4870471A4870471A4870471A488E
:103AD400704700BF480800205808002068080020EC
:103AE400780800208408002094080020A008002002
:103AF400AC080020B8080020CC080020DC08002016
:103B0400EC080020FC0800200C0900201C090020FF
:103B14002C0900203C0900204809002058090020F5
:103B24006C0900207C0900208809002090090020ED
:103B34009C090020A40900203C080020032809D87F
:103B4400DFE800F00A02040604487047044870479E
:103B54000448704704487047044870479C3100206B
:103B6400A8310020B4310020A409002090310020A5
:103B7400F8B50446134B1E680027134D0EE004F0FD
:103B8400F0041034E4B2912C28BF002412E0204643
:103B9400FFF71AFF294619F0CFFD88B904F00F0387
:103BA400092BECD004F0F004082B94BF01333B46FE
:103BB4001C44E4B2002EEAD02046FFF7BFFFE9E739
:103BC4002046F8BD4C770120A4090020F8B504462E
:103BD400104B1E689027104D0AE03C460934E4B2AD
:103BE40096B92046FFF7F0FE294619F0A5FD78B9ED
:103BF40014F00F0F05D114F0F004EED0103CE4B231
:103C0400ECE7013CE4B2EBE72046FFF797FFEBE774
:103C14002046F8BD4C770120A409002070B52C4C37
:103C2400002120460CF05FFE0123238223236382BC
:103C3400022120460CF051FE264B1B78012B1AD092
:103C4400022B2DD033B1244B3F221A705A7000201E
:103C540098700FE0204D5F232B706B700024AC70C4
:103C6400284619F0C5FF0246194801684E682946DE
:103C7400B047204670BD184D184B1B781B093033D4
:103C84002B705F236B700024AC70284619F0B0FFD2
:103C940002460F4801684E682946B0472046E9E7C6
:103CA4000E4B1B780C4C1A093032227003F00F03B0
:103CB400303363700023A370204619F099FF024645
:103CC400034801684D682146A8470120D2E700BF98
:103CD400E073002023C00320887801200DC0032056
:103CE40070B515460C4C208261820126E682A682BC
:103CF400002120460CF0F7FD314620460CF0EDFD86
:103D040045B1284619F074FF0246204621684C68E4
:103D14002946A04770BD00BFE07300200D4B1B680F
:103D240093B10D4A10680D4A11681A46002BB8BFAA
:103D34005A1C00EB62028A4208DC0344994207DD04
:103D4400054B19600020704701207047012070471F
:103D5400002070471C760120107601208078012015
:103D64000D4B1B6893B10D4A10680D4A11681A4631
:103D7400002BB8BF5A1C00EB62028A4208DC0344E1
:103D8400994207DD054B19600020704701207047F8
:103D94000120704700207047187601200C7601201E
:103DA400807801200D4B1B6893B10D4A10680D4AB1
:103DB40011681A46002BB8BF5A1C00EB62028A42F3
:103DC40008DC0344994207DD054B19600020704765
:103DD40001207047012070470020704714760120AD
:103DE400087601208078012010B50446FFF796FF7D
:103DF40000B910BD224614210120FFF771FFF8E736
:103E040010B50446FFF7ACFF00B910BD22462621C9
:103E14000120FFF765FFF8E710B50446FFF7C2FF7E
:103E240000B910BD224638210120FFF759FFF8E7F9
:103E340038B5044609481E23038226234382012100
:103E44000CF04BFD44B1204619F0D2FE0246034863
:103E540001684D682146A84738BD00BFE0730020C3
:103E64004200064B1B68B3EB400F05D0034B1A60AE
:103E7400034B1A68034B1A60704700BF1C7601207D
:103E840080780120107601204200064B1B68B3EBBA
:103E9400400F05D0034B1A60034B1A68034B1A609A
:103EA400704700BF18760120807801200C7601202D
:103EB4004200064B1B68B3EB400F05D0034B1A605E
:103EC400034B1A68034B1A60704700BF1476012035
:103ED4008078012008760120104B0344092B18D860
:103EE400DFE803F009070B0F151305190D110C4832
:103EF40070470C4870470C4870470C4870470C4892
:103F040070470C4870470C4870470C4870470C4881
:103F140070470C4870470C48704700BFFC27FFFFF0
:103F2400D0040020D8040020E0040020E80400208D
:103F3400F0040020F80400200005002008050020FB
:103F44001005002018050020C80400201C38112882
:103F540025D8DFE800F0262609090C0C0F0F1212F1
:103F640015121B181E1E21214DF60A0070474DF62E
:103F7400050070474DF6040070474DF60600704783
:103F84004DF60C0070474DF6070070474DF60D00D6
:103F940070474DF6090070474DF608007047002041
:103FA40070474DF60B00704711F0010F18BF01F177
:103FB400FF318C460029B8BF01F1010C5FEA6C0C9B
:103FC4000BD0431E013108449C4413F8012F10F810
:103FD400011D197002706345F7D1704708B5274B6E
:103FE4001B68042B0AD8DFE803F0030B18283800F9
:103FF400234B244A1A602448FFF7F6FE012008BD2B
:104004001F4B204A1A60214B1888FFF765FFFFF702
:10401400EBFE1D48FFF7F4FEF0E7194B1C4A1A604B
:104024001A4B1888FFF758FFFFF7DEFE194B188864
:10403400FFF752FFFFF7E4FEE0E7114B144A1A6062
:10404400124B1888FFF748FFFFF7CEFE114B188874
:10405400FFF742FFFFF7D4FED0E7094B1868FFF7DC
:10406400C3FE0A4B1888FFF737FFFFF7C9FE094B59
:104074001888FFF731FFFFF7CFFEBFE7D4BE032058
:104084009C5100203411002048110020EEBF032071
:1040940054110020F0BF0320002929D0042822D87D
:1040A400DFE800F003090F151B00124B4FF4006208
:1040B4001A80114870470F4B4FF480521A800F48F2
:1040C40070470C4B4FF400521A800D487047094B4F
:1040D4004FF480421A800B487047064B4FF400425D
:1040E4001A8009487047034B00221A80074870471A
:1040F40007487047DCBF0320882A0020942A002048
:10410400A02A0020AC2A0020BC2A0020CC2A0020AF
:10411400DC2A002038B5404B1B68072B11D8DFE898
:1041240003F00412124956565A713C4B3C4A1A6029
:104134003C48FFF759FE0920FFF7BAFE3A48FFF75B
:104144006BFE012038BD394C394D344B1B68228835
:104154003849284618F0A6FF2846FFF745FE23886D
:10416400B3F5005F1ED009D9B3F5804F1ED0B3F567
:10417400004F10D13048FFF743FE0CE0B3F5006F59
:1041840006D0B3F5805F06D12C48FFF739FE02E074
:104194002A48FFF735FE0020FFF78AFE2848FFF77C
:1041A4003BFECEE72448FFF72BFEF4E72248FFF757
:1041B40027FEF0E72348FFF717FE0F20FFF764FE02
:1041C4002148FFF71DFE1E48FFF726FEB9E71F48EA
:1041D400FFF70AFEB5E70F20FFF742FE1C48FFF782
:1041E40003FE134C1B4B1A881B49204618F05AFF38
:1041F4000020FFF749FE2046FFF702FE1048FFF7B4
:104204000BFE9EE70020FFF72BFE0020FFF73CFE8D
:104214000020FFF74DFE94E7E4F40020144F002043
:10422400341100202420002038200020DCBF03208B
:10423400E8F4002050200020782000206020002096
:1042440090200020A8200020B8200020CC200020AE
:10425400D8200020D8BF0320EC2000201378D3B14D
:104264002DE9F04184B00C46164607B2DFF82880E9
:104274000125029500220192009522B2394640465A
:104284000CF092FA0834A4B216F8013F002BF0D1D6
:1042940004B0BDE8F0817047E073002000B585B03C
:1042A4000292032301930A2300930AB201B2034842
:1042B4000BF060FF05B05DF804FB00BFE073002065
:1042C40010B500213E480CF00EFB3E4A01210220AD
:1042D400FFF7C4FF3C4C228802F001023221002087
:1042E400FFF7DCFF394A01210F20FFF7B7FF2288CF
:1042F400C2F3400232210D20FFF7D0FF344A0121DE
:104304001C20FFF7ABFF2288C2F3800232211A205F
:10431400FFF7C4FF2F4A01212920FFF79FFF2288BE
:10432400C2F3C00232212720FFF7B8FF2A4A012135
:104334003620FFF793FF2288C2F300123221342083
:10434400FFF7ACFF254A01214320FFF787FF2288AE
:10435400C2F3401232214120FFF7A0FF204A01217D
:104364005020FFF77BFF2288C2F3801232214E20B7
:10437400FFF794FF1B4A01215D20FFF76FFF22889E
:10438400C2F3C01232215B20FFF788FF164A0121D5
:104394006A20FFF763FF2288C2F3002232216820DB
:1043A400FFF77CFF114A01217720FFF757FF22888E
:1043B400C2F3402232217520FFF770FF10BD00BF09
:1043C400E073002004180020A45800200C180020DA
:1043D400D8040020E0040020E80400201018002085
:1043E400F8040020181800200805002010050020FB
:1043F40010B5134C4FF0000C94F800E0864507D03C
:104404000CF1010C0C34BCF10D0FF5D1002010BDE2
:104414000B480CEB4C0400EB8404A48814800CEBD4
:104424004C0C00EB8C00C27832B93F298CBF0322BC
:1044340001221A700120EAE71A700120E7E700BFA1
:104444003874002008B50D4B18700D4A0D4B002828
:1044540008BF1A460C490D4817F020FE074B19787F
:10446400081E18BF01200A4A92F8703061F3000355
:1044740060F3470382F8703008BD00BF1EC00320FC
:1044840088180020142E0020B01C00204849002069
:104494005077012010B50446064B1978064A074B9D
:1044A400002908BF1A460649064817F0F7FD014BD4
:1044B4001C7010BD1DC0032088180020142E00207D
:1044C400BC1B002048490020034B01221A70034BF7
:1044D4001A68034B1A60704704C003203CBC0320D5
:1044E400A8BA0120034B01221A70034B1A68034B2C
:1044F4001A60704703C003203CBC0320A4BA012007
:1045040008B5044B1B7813F0010F00D108BDFFF769
:10451400E9FFFBE71BC0032008B5044B1B7813F02D
:10452400010F00D108BDFFF7DDFFFBE719C0032031
:10453400034B01221A70034B1A68034B1A6070472D
:1045440006C003203CBC0320B0BA0120034B012267
:104554001A70034B1A68034B1A60704705C0032096
:104564003CBC0320ACBA012008B5044B1B7813F003
:10457400020F00D108BDFFF7E9FFFBE71BC00320D2
:1045840008B5044B1B7813F0020F00D108BDFFF7E8
:10459400DDFFFBE719C00320064B187830B1064B4A
:1045A4001B68064A12689B1A632B02D90020014B30
:1045B4001870704704C003203CBC0320A8BA012033
:1045C400064B187830B1064B1B68064A12689B1AD2
:1045D400632B02D90020014B1870704703C00320DD
:1045E4003CBC0320A4BA0120064B187830B1064B1A
:1045F4001B68064A12689B1A632B02D90020014BE0
:104604001870704706C003203CBC0320B0BA0120D8
:10461400064B187830B1064B1B68064A12689B1A81
:10462400632B02D90020014B1870704705C003208A
:104634003CBC0320ACBA0120054B1868054B1B6831
:10464400C01AB0F5FA7F8CBF00200120704700BF6C
:104654003CBC03206478012008B5FFF7EDFF30B1BE
:10466400074B1B783BB10748FFF7CAFB08BD064858
:10467400FFF7BAFBF4E70548FFF7C2FBF6E700BF14
:1046840013C00320441A00202C1A0020581A0020BA
:104694000C2834D8DFE800F0090F1535071B212753
:1046A400292B2D2F3100184870471848184B3F29E3
:1046B40098BF184670471748174B3F2998BF1846AC
:1046C40070471648164B3F2998BF1846704715483F
:1046D400154B3F2998BF184670471448144B3F297F
:1046E40098BF1846704713487047134870471348DB
:1046F400704713487047134870471348704713486E
:1047040070471348704700BFF8040020E0040020FD
:1047140034310020D80400203C310020E80400207B
:1047240044310020100500205831002008050020E5
:104734006031002068310020703100207831002081
:1047440080310020F0040020000500208831002082
:104754004C31002030B14FF084434FF08072C3F8E5
:10476400842070474FF084434FF08072C3F8882050
:10477400704700000000000008B5254B1B68022BA1
:104784003EDC244B187880F001001870224B1B7813
:1047940043B1FFF7DFFF1E4A136801331360022B96
:1047A40004D008BD0020FFF7D5FFF4E71B4B93EDC1
:1047B400007AB8EE477B9FED146B27EE067BB7EECD
:1047C400C77BB5EEC07AF1EE10FAEAD9DFED147AC0
:1047D400B4EEE77AF1EE10FAE3DCF3EE087A27EEB2
:1047E400277AF6EE007A37EE677AFCEEC77A17EE90
:1047F400902A102AD5D90B490B4817F08FFBD0E724
:10480400094817F0E9FBCCE7666666666666E63F2C
:1048140048BD032032C003202FC003204877012065
:10482400ABAA2A4D891F00005451002038B5044614
:104834000D46304817F0D0FB4CF2503240F6AC53E2
:10484400944288BF1C4614F09BFE2B4B186035B96C
:104854002A4B01221A702A4B00221A6011E014F02C
:104864008FFE04F57A73274A1268801A83423AD27B
:10487400224B00221A70224B01221A60224B002282
:104884001A70224B1B784BBB214B1C60621E214BC0
:104894009A4207D204EB4404E200013A1E49154847
:1048A40017F03CFB134B00221A711968A9B11B4A7B
:1048B4001B4B0B441B110021D154137851788B42AC
:1048C40028BF0B4691788B4228BF0B46D27893427F
:1048D40028BF1346134A82F87A3038BD074B18783C
:1048E400FFF738FFD0E7054B01221A70044B002272
:1048F4001A60C3E7545100209CBA012032C003203F
:1049040048BD0320A0BA012011C003202FC00320FA
:1049140048770120AAAAAA0A891F00005849002042
:1049240000BFF7BF00E400E008B514F029FE044B13
:104934001B68C01A034B19788008FFF777FF08BD7E
:104944009CBA012011C0032008B5054B1B7813F055
:10495400010F00D108BDFFF7E7FFFFF7C3FDF9E73B
:1049640019C0032008B5054B1B7813F0020F00D1C2
:1049740008BDFFF7D9FFFFF7E9FDF9E719C00320E8
:1049840010B5074B1C781870064A074B002808BF5F
:104994001A460649064817F081FB204610BD00BFA1
:1049A40013C00320781C0020801C00208C1C0020D5
:1049B4004849002038B5114B1C78187080B1104D4F
:1049C4002B685B6811220F4928469847284617F040
:1049D4004BFB02220C49152015F090F8204638BDF7
:1049E400074D2B685B6812220849284698472846D9
:1049F40017F03AFB152015F01FF9EFE71FC003204D
:104A040048490020C42E002015040000D82E0020A0
:104A140009280BD8092828D8DFE800F029050F1247
:104A240015181B1E21244DF605007047FF2802D1DE
:104A3400104B18887047002070474DF606007047E9
:104A44004DF6070070474DF6080070474DF6090013
:104A540070474DF60A0070474DF60B0070474DF64F
:104A64000C0070474DF60D007047002070474DF65E
:104A740004007047A2580020034609280AD80928D0
:104A84001ED8DFE800F01F050D0F11131517191BB1
:104A94000D4870470D480E4AFF2B08BF104670475B
:104AA4000C4870470C4870470C4870470C487047D6
:104AB4000C4870470C4870470C4870470C487047C6
:104AC400024870470B487047D80400206013002048
:104AD4007C130020E8040020F804002010050020C6
:104AE40008050020D0040020C8040020F0040020A1
:104AF4006C130020E004002070B505460C46024605
:104B04001E491F4817F0CAFA1E4B1B7813F0020FF8
:104B140009D11C4B1B7813F0010F0ED11A49184808
:104B240017F0BCFA70BD1949154817F0B7FA0022FE
:104B34002946204615F0E0FFEBE71549104817F029
:104B4400ADFA144B5B6D186803681B68F021984735
:104B54005DB1013C25440F4E736D186803681B68F2
:104B640014F8011F9847AC42F6D10A4B5B6D1868E4
:104B740003681B68F7219847D0E700BF840400202E
:104B84004849002020C00320C0040020A4040020C1
:104B9400B004002050770120F72826D010B5144A1D
:104BA40013785B00DBB21370124C21684A1C22603C
:104BB40023F07F031843104B5854104B9A4201DCE6
:104BC400002010BD0E4C23685B6827220D49204647
:104BD4009847084B1968204617F0B3FA204617F097
:104BE40043FA0120084B1870EBE70120704700BF1F
:104BF400FBBF032014BC0220F4BB01201F000100F2
:104C040048490020B817002030C0032008B5224BC3
:104C14001B680A2B3BD8DFE803F0060B141C232384
:104C2400232323232F0000231C4A13601C4A1370E0
:104C3400F02801D0002008BD174B02221A60002082
:104C4400F9E76928144B0CBF032201221A600020E3
:104C5400F1E7144B1870104B04221A600020EAE7A5
:104C6400FFF79AFF20B90C4A136801331360E2E797
:104C7400094B01221A60DEE7FFF78EFF18B9064BD5
:104C840003221A60D7E7044B01221A60D3E7024BD0
:104C940001221A600020CEE78C79012014BC022086
:104CA40030C00320FBBF03202DE9F04F83B005463D
:104CB4008A46904600273B46BB460AEB0301B946A9
:104CC40008EB0702DC1DDC46C3F10100C6184FEAFD
:104CD4004C0C5FFA8CFC013311F801EB1EF0800FD1
:104CE40018BF4CF0010C0EF07F0E02F801EFAB423E
:104CF40005DAA342EAD108F809C00837DDE708F865
:104D040009C0374400972A460349044817F0C6F9F6
:104D1400781C03B0BDE8F08F6016002048490020DD
:104D240038B5044639493A4817F0B8F96278092A7F
:104D340066D8DFE802F0051D252D353D454D555D4E
:104D4400344B1D782A463449314817F0A7F9A57029
:104D540004232370314D2A46692302F8013B21467E
:104D64002020FFF7A1FF29460130FFF7C5FE38BD1B
:104D74002B4B1D782A462B49254817F08FF9E6E777
:104D8400294B1D782A462949214817F087F9DEE77F
:104D9400274B1D782A4627491D4817F07FF9D6E787
:104DA400254B1D782A462549194817F077F9CEE78F
:104DB400234B1D782A462349154817F06FF9C6E797
:104DC400214B1D782A462149114817F067F9BEE79F
:104DD4001F4B1D782A461F490D4817F05FF9B6E7A7
:104DE4001D4B1D782A461D49094817F057F9AEE7AF
:104DF4001B4B1D782A461949054817F04FF9A6E7B9
:104E040000251849024817F049F9A0E7981D002029
:104E140048490020184F0020B01D002018BC022073
:104E24003C510020C41D00201CC00320DC1D0020B8
:104E34001BC00320F41D00201AC003200C1E0020F8
:104E440019C00320281E002020C00320401E00207B
:104E54001EC00320581E002013C00320741E00200F
:104E64001DC00320901E002010B5FA2014F0B2FBE0
:104E740001223C2117480CF0DFFD174B1870174B2B
:104E84001A68174B1A6010B9134B187810BD154CDB
:104E940023685B682422144920469847204617F06B
:104EA400E3F80121112014F0E3FB0121102014F098
:104EB400DFFB0021112014F0A3FB0021102014F0CB
:104EC4009FFB0A4C20461EF067F8094920460AF069
:104ED40083FED9E7E073002007C003203CBC032015
:104EE4008478012048490020CC1C00204C69002013
:104EF40040420F0000B587B0014604AB03930DF1A7
:104F04001203029305AB01930DF1160300930023E2
:104F14001A4604480BF0C5FDBDF8120007B05DF851
:104F240004FB00BFE073002070B594B0474CFF232E
:104F340084F8C034012184F8CC1404F29445284642
:104F440013F08CFAC4F89054D4F894345B6B28466C
:104F5400984768B13E4C23685B6822223D4920464D
:104F64009847204617F080F80025284614B070BDF5
:104F7400204601231A46D4F89014043012F00CF899
:104F840005460028E6D0324C23685B680B22324980
:104F940020469847204617F067F800232F4A3049E7
:104FA400684612F06FF8129B002B3ED05C2017F07D
:104FB40095F90446002646602A4B0360019BC360B2
:104FC400294B8360029B03619DF80C30037504A98F
:104FD400183011F020FF254BA360A66563680133E8
:104FE4006360234B009304A811F056FF214B1B6907
:104FF4006BB15A68013A5A604AB91E4E3069036867
:10500400DB6A9847306910B103685B689847194BAD
:105014001C610E4BD3F8840458B100231A460C4982
:1050240000F5896010F04EFF9FE7139C002CBDD162
:10503400D7E7064BD3F88804002896D000231A46F5
:10504400034900F589600DF06BFE8EE7E8610020EE
:1050540048490020C80A0020BC0A00207032002001
:10506400EC610020183F0020743F0020F43E002033
:105074006C3C0020405100202DE9F0479EB00F46C3
:1050840091469846002302468D49684611F0FAFF7E
:10509400129B002B2BD05C2017F020F9044600252E
:1050A4004560884B0360019BC360874B8360029B10
:1050B40003619DF80C30037504A9183011F0ABFEA0
:1050C400824BA360A565636801336360804B0093E2
:1050D40004A811F0E1FE7F4B1B69002B00F0248132
:1050E4005A68013A5A609AB17A4B1C611EE1139CCA
:1050F400002CD0D1764B009304A811F0CDFE754B53
:105104001B69A3B15A68013A5A60002A40F02E8103
:10511400704D28690368DB6A9847286910B10368F1
:105124005B6898476B4B1C61002C40F0FF800023A8
:1051340015934FF47A7216928DF85C30664A149285
:105144001893F9E01D9B2361013D3BD020690028A1
:1051540000F0DF8003685B6B984703782E2B31D116
:10516400206910B303685B6B9847024631465B487D
:1051740016F094FF574B1969C9B10B68DB6B002219
:1051840019A898472369002BDCD05A68013A5A6061
:10519400002AD7D120690368DB6A98472069002870
:1051A400D0D003685B689847CCE75246DEE700231B
:1051B4001A934FF47A721B928DF87030464A199202
:1051C4001D93DFE7464B1869002800F0A7800368A9
:1051D4001B6B98470446002800F09C803F480368F6
:1051E4005B6806223F4998473D4B1869002864D004
:1051F40003685B6B9847054640B1284618F0F8FCF5
:105204000246364801684E682946B047334816F0CE
:105214002BFF334B1869002800F0828003689B6AD7
:105224009847314B1860269B984265D82B4D2B68C4
:105234005B6806222D492846984700230A222A49FA
:105244000968284616F038FF284616F00DFF244B4F
:105254001869002859D003689B68234A1268494694
:1052640098471F4B1869002851D003685B6B984717
:1052740003461F4A1821384617F0D0FE1A4B1B6804
:10528400C8F80030164B1869002843D00368DB6A5D
:105294009847134B1A695368013B53604BB9104D3F
:1052A40028690368DB6A9847286910B103685B685A
:1052B40098470B4B00221A612CE00E4D9DE700BF6E
:1052C400EC610020183F0020743F0020F43E0020D1
:1052D4006C3C002040510020C83E0020484900207A
:1052E400244F002024210020047601206C2100207A
:1052F4005C200020302D002002461E491E4816F076
:10530400CDFE1E4B269A1A6090E71D4BB1E71C4B4D
:10531400AFE7002420461EB0BDE8F0870024F9E77B
:10532400164B00221A6081E7164B1C612368DB6B65
:105334000022214614A89847134B1B696BB15A6885
:10534400013A5A604AB9104C20690368DB6A9847ED
:10535400206910B103685B6898470B4B189A1A616F
:105364000A251C46DFF818A0084EEFE6054B00227C
:105374001A61DCE62C210020484900200476012033
:10538400302D002040510020244F0020FC2000201C
:105394002DE9F04194B005460E4617460023024617
:1053A4008249684611F06EFE129B002B00F0B68015
:1053B4005C2016F093FF04464FF00008C0F8048008
:1053C4007B4B0360019BC3607A4B8360029B036148
:1053D4009DF80C30037504A9183011F01CFD764BB0
:1053E400A360C4F85880636801336360734B00930F
:1053F40004A811F051FD724B1B69002B00F0EA80E8
:105404005A68013A5A6062B9DFF8B481D8F81000DA
:105414000368DB6A9847D8F8100010B103685B682A
:105424009847674B1C61002C40F0D6802A4665499A
:10543400654816F033FE44F202232A465B49684667
:1054440011F020FE129B002B00F093805C2016F0DC
:1054540045FF04464FF00008C0F80480544B036035
:10546400019BC360534B8360029B03619DF80C3026
:10547400037504A9183011F0CEFC4F4BA360C4F897
:1054840058806368013363604C4B009304A811F0A7
:1054940003FD4B4B1B69002B00F085805A68013AD1
:1054A4005A6062B9DFF81881D8F810000368DB6A23
:1054B4009847D8F8100010B103685B689847404BD0
:1054C4001C61002C65D023681B6B2046984704465A
:1054D40000285ED03A4B1869002860D00368DB6866
:1054E4003A4631469847364B1869002857D0036826
:1054F400DB6A9847324B1A695368013B53604BB9D6
:105504002F4D28690368DB6A9847286910B103683E
:105514005B6898472A4B00221A6140E0139C002CD8
:105524007FF446AF254B009304A811F0B5FC244B3F
:105534001B69002B7FF464AF214B00221A6175E7CD
:10554400224BD3F8881400293FF475AF00238DF85B
:1055540031308DF832308DF8333001232A466846D5
:105564000DF0EDFA00283FF466AF68460DF0D1FC6B
:1055740061E7139C002C7FF469AF104B009304A8DF
:1055840011F08AFC0E4B1B69002B87D10C4B0022B7
:105594001A612A460E490C4816F080FD0024204664
:1055A40014B0BDE8F081064B1C618CE7EC6100206F
:1055B400183F0020743F0020F43E00206C3C002083
:1055C400244F0020000D002048490020E8610020FD
:1055D400180D00201F4B1C6123681B6B2046984745
:1055E40000283FF423AF2A461B491C4816F056FDF9
:1055F400184B1869A8B10368DB6A9847154B1A69F8
:105604005368013B53604BB9124C20690368DB6A51
:105614009847206910B103685B6898470D4B0022D6
:105624001A610F4BD3F88414002989D000238DF814
:1056340000308DF801308DF8023001232A46684687
:105644000FF07BFB00283FF4F6AE684610F05AFBDF
:10565400F1E600BF244F0020E80C00204849002058
:10566400E86100202DE9F04395B005460E46174643
:10567400984603460A469749974816F00FFD0023BB
:105684002A469649684611F0FDFC129B002B3ED039
:105694005C2016F023FE04464FF00009C0F8049085
:1056A4008F4B0360019BC3608E4B8360029B03613D
:1056B4009DF80C30037504A9183011F0ACFB8A4B2B
:1056C400A360C4F85890636801336360874B009308
:1056D40004A811F0E1FB864B1B69002B00F03A8112
:1056E4005A68013A5A6062B9DFF80492D9F8100096
:1056F4000368DB6A9847D9F8100010B103685B6847
:1057040098477B4B1C61002C40F026812BE1139CB5
:10571400002CBDD1754B009304A811F0BDFB744B54
:105724001B69002BDCD1724B00221A611BE12A4653
:105734007049694816F0B2FC6D4B1869A8B103684A
:10574400DB6A98476A4B1A695368013B53604BB94B
:10575400674C20690368DB6A9847206910B10368C5
:105764005B689847624B00221A61634BD3F8841438
:1057740091B100238DF800308DF801308DF802309E
:1057840001232A4668460FF0D8FA002800F0EB807F
:10579400684610F0B7FAE6E0574BD3F888140029AE
:1057A40000F0E18000238DF831308DF832308DF82F
:1057B400333001232A4668460DF0C1F9002800F071
:1057C400D28068460DF0A5FBCDE0139C002C40F080
:1057D400DA80464B009304A811F05EFB444B1B692E
:1057E400002B40F0F480424B00221A6106E0434B48
:1057F400186015E14249384816F050FC44F202237F
:105804002A463649684611F03DFC129B002B79D09C
:105814005C2016F063FD044600264660304B0360AE
:10582400019BC3602F4B8360029B03619DF80C3086
:10583400037504A9183011F0EEFA2B4BA360A6658A
:10584400606801306060294B009304A811F024FBC8
:10585400274B1B69002B73D05A68013A5A604AB926
:10586400234E30690368DB6A9847306910B10368D6
:105874005B6898471E4B1C61002C52D023681B6B3D
:105884002046984700284CD01C4B1A68002A4ED159
:10589400174803685B68424639469847144B1869B1
:1058A400A8B10368DB6A9847114B1A695368013B36
:1058B40053604BB90E4C20690368DB6A9847206932
:1058C40010B103685B689847094B00221A6115B050
:1058D400BDE8F0831013002048490020EC6100204B
:1058E400183F0020743F0020F43E00206C3C002050
:1058F400244F0020E80C0020E861002004760120F9
:1059040040130020139C002C82D15E4B009304A80A
:1059140011F0C2FA5C4B1B69002B9DD15A4B00223B
:105924001A612A4659495A4816F0B8FBCFE7564B34
:1059340018690028CBD00368DB6856499847ADE75F
:10594400514B1C619AE7544B00221A6068E04E4B9D
:105954001C614FE04C4B1C6123681B6B204698472D
:1059640000287FF4E4AE4C4B00221A60002E3FF472
:1059740041AF134632464949684611F083FB129BF6
:10598400002B3FF422AF5C2016F0A8FC044600264E
:105994004660434B0360019BC360424B8360029BA0
:1059A40003619DF80C30037504A9183011F033FA23
:1059B4003D4BA360A665636801336360314B00937C
:1059C40004A811F069FA304B1B69002BBFD05A6848
:1059D400013A5A604AB92C4E30690368DB6A984729
:1059E400306910B103685B689847274B1C61002C31
:1059F4003FF404AF23681B6B2046984700283FF40C
:105A0400FDAE214B186900289DD003689B6A984716
:105A1400B0F5004F7FF6EBAE1F4B4FF400421A6017
:105A24001D4C226821491A4816F038FB2468224686
:105A34000021184817F01AFD134B186900283FF489
:105A4400DDAE03689B682246124998470E4B1869DD
:105A540000283FF4D3AE0368DB6A98470A4B1A69FF
:105A64005368013B53604BB9074C20690368DB6AF8
:105A74009847206910B103685B689847024B00227D
:105A84001A61BBE66C3C0020244F0020180D002056
:105A94004849002004F6002004760120EC6100202F
:105AA400183F0020743F0020F43E00202C130020F7
:105AB4002DE9F0479AB0074602469349934816F0F9
:105AC400EDFA934B186900286ED003681B6B984756
:105AD400002869D01426DFF874828E4DDFF87092A6
:105AE400D2E0139C002C40F0D9808B4B009304A887
:105AF40011F0D2F9864B1B69B3B15A68013A5A6066
:105B0400002A40F0FC80DFF808A2DAF810000368ED
:105B1400DB6A9847DAF8100010B103685B689847AD
:105B24007B4B1C61002C46D1002316934FF47A72F0
:105B340017928DF86030CDF8549019932B69002B8F
:105B440041D1744B199A1A617449704816F0A6FA37
:105B540073496E4816F0A2FA1AB0BDE8F08771498D
:105B64005AE0684610F0CEF8034688E06E4BD3F84E
:105B7400881499B100238DF831308DF832308DF8C6
:105B840033300123694A68460CF0D9FF03460028E4
:105B940075D068460DF0BDF9034670E0634A644968
:105BA4005A4816F07BFA6CE06249584816F076FAC7
:105BB400CEE7574B1C612368DB6B0022214615A8F6
:105BC40098472B6963B15A68013A5A6042B9286907
:105BD4000368DB6A9847286910B103685B689847D3
:105BE400199828610028AFD003681B6B98470028D8
:105BF400AAD04E4C3A46FF21204617F00FFA204611
:105C040017F0F6FF4C4B1B88235228690028A6D0B6
:105C140003685B6B98470146444C204617F078FCB8
:105C240022464649394816F039FA286990B1036882
:105C3400DB6A98472A695368013B536043B9286972
:105C44000368DB6A9847286910B103685B68984762
:105C540000232B61344BD3F88414002986D000230D
:105C64008DF800308DF801308DF8023001232F4A71
:105C740068460FF062F8034600287FF472AF002BE9
:105C84008CD0013E3FF464AF00233A464146684657
:105C940011F0F8F9129B002B3FF423AF5C2016F0AF
:105CA4001DFB04464FF0000AC0F804A0244B036017
:105CB400019BC360234B8360029B03619DF80C30FE
:105CC400037504A9183011F0A6F81F4BA360C4F89B
:105CD40058A06368013363600F4B009304A811F06C
:105CE400DBF80B4B1B69002B3FF463AF5A68013A96
:105CF4005A60002A3FF407AF054B1C615BE7044B75
:105D040000221A6110E700BF6819002048490020EA
:105D140040510020244F00206C3C0020A819002092
:105D2400101A0020302D0020E86100202076012088
:105D340080190020D819002070320020E80C0020BF
:105D4400183F0020743F0020F43E0020EC61002046
:105D5400C83E002010B58EB00446024616491748C6
:105D640016F09CF9164BD3F8841479B100238DF8FE
:105D740000308DF801308DF802300123224601F500
:105D8400896168460FF0D0F80EB010BD0C4BD3F803
:105D9400881471B100238DF831308DF832308DF8CC
:105DA40033300123224601F5896168460DF077FA04
:105DB400EAE70020E8E700BF24310020484900203A
:105DC400E86100202DE9F04194B005460F461646DF
:105DD400134602464749484816F060F944F2022344
:105DE4002A464649684611F04DF9129B002B44D0CF
:105DF4005C2016F073FA04464FF00008C0F80480E3
:105E04003F4B0360019BC3603E4B8360029B036175
:105E14009DF80C30037504A9183010F0FCFF3A4BC0
:105E2400A360C4F85880636801336360374B009300
:105E340004A811F031F8364B1B69002B2DD05A6899
:105E4400013A5A6062B9DFF8C880D8F810000368D4
:105E5400DB6A9847D8F8100010B103685B6898476C
:105E64002B4B1C61DCB92A462A49234816F016F943
:105E74000024204614B0BDE8F081139C002CB7D157
:105E8400224B009304A811F007F8214B1B69002B47
:105E9400D5D11F4B00221A61E5E71D4B1C61236815
:105EA4001B6B2046984704460028DCD0184B186921
:105EB4000028DED00368DB68324639469847144B25
:105EC40018690028D5D00368DB6A9847104B1A6913
:105ED4005368013B53604BB90D4D28690368DB6A75
:105EE4009847286910B103685B689847084B0022FB
:105EF4001A61BEE72005002048490020EC6100201B
:105F0400183F0020743F0020F43E00206C3C002029
:105F1400244F00203C05002008B584460B4610465B
:105F24006246024917F0BEF808BD00BFE82A002007
:105F3400F0B59BB005460E4602467649764816F003
:105F4400ADF8764C2A467649204617F0ABF8002384
:105F540022467449684611F095F8129B002B2BD009
:105F64005C2016F0BBF90446002747606E4B0360C3
:105F7400019BC3606D4B8360029B03619DF80C30F1
:105F8400037504A9183010F046FF694BA360A76598
:105F9400636801336360674B009304A810F07CFFCF
:105FA400654B1B69002B00F089805A68013A5A60DE
:105FB4009AB1614B1C6183E0139C002CD0D15D4BE2
:105FC400009304A810F068FF5B4B1B699BB15A68EF
:105FD400013A5A60002A40F09880574F38690368A4
:105FE400DB6A9847386910B103685B689847524B7D
:105FF4001C61002C64D1002316934FF47A7217921B
:106004008DF860304D4A159219934D4B1B69002B46
:106014005FD14B4B199A1A61002473E049493E48F9
:1060240016F03CF8002E6DD047493B4816F036F880
:10603400434B186908B303685B6B98470346374CB6
:106044002A464249204617F02DF822464049324854
:1060540016F024F83F4BD3F88414A1B100238DF833
:1060640000308DF801308DF8023001232246684655
:106074000EF063FE18B9344644E0374BDFE7684658
:106084000FF040FEF7E7334BD3F88814A1B1002397
:106094008DF831308DF832308DF8333001231F4ABA
:1060A40068460CF04CFD08B934462BE068460CF009
:1060B40030FFF9E7002425E0344623E01E4B1C6141
:1060C4002368DB6B0022214615A898471C4B1B69EB
:1060D4006BB15A68013A5A604AB9194C206903688D
:1060E400DB6A9847206910B103685B689847199880
:1060F400134B18610028DDD003681B6B98470446D6
:1061040000288BD120461BB0F0BD0B4B00221A6136
:1061140071E700BF301F002048490020207601208D
:106124005C1F0020EC610020183F0020743F002019
:10613400F43E00206C3C002040510020C83E00206A
:10614400244F00206C1F0020881F0020A01F002067
:10615400B41F0020E8610020302D002049B1431E07
:106164005918002013F8012F104480B28B42F9D142
:10617400704700207047000008B50E4BD3F8840424
:1061840050B1002308220C4900F589600FF09AFEF3
:10619400094815F069FF08BD064BD3F888040028A8
:1061A400F6D000230822044900F589600CF0B8FDFC
:1061B400EEE700BFE8610020484900202DE9F043E4
:1061C40095B05E4CFF2384F8C034012184F8CC14CC
:1061D40004F29445284612F041F9C4F89054D4F8D6
:1061E40094345B6B2846984760B1554C23685B68D0
:1061F4001622544920469847204615F035FF4FF0A3
:106204000008E4E3204601231A46D4F8901404302D
:1062140010F0C2FE0028E8D0494C23685B681322C2
:10622400494920469847204615F01EFF0023474A57
:106234004749684610F026FF129B002B63D05C2070
:1062440016F04CF8044600254560424B0360019B60
:10625400C360414B8360029B03619DF80C3003755E
:1062640004A9183010F0D7FD3C4BA360A565636802
:10627400013363603A4B009304A810F00DFE394BD0
:106284001B696BB15A68013A5A604AB9354D28699D
:106294000368DB6A9847286910B103685B6898470C
:1062A400304B1C61254BD3F8840480B300231A4679
:1062B400234900F589600FF005FE204CFF2384F884
:1062C400C034012184F8CC1404F29445284612F019
:1062D400C5F8C4F89054D4F894345B6B28469847B6
:1062E40010B34FF00008164C23685B681D221E494A
:1062F40020469847204615F0B7FE0026DFF8709038
:106304001A4C0E4D20E1139C002C98D1B2E70B4B94
:10631400D3F888040028D0D000231A46084900F591
:1063240089600CF0FDFCC8E7204601231A46D4F826
:106334009014043010F030FE8046D4E7E861002069
:1063440048490020740500208C050020703200208C
:10635400EC610020183F0020743F0020F43E002030
:106364006C3C002040510020A00500202076012034
:10637400D813002000238DF800308DF801308DF8FB
:1063840002300123224601F5896168460EF0CCFDF6
:106394003246DD49204616F085FED5F884140029DE
:1063A40000F0FE8000238DF800308DF801308DF868
:1063B40002300123224601F5896168460EF0B4FDDE
:1063C4003246D249204616F06DFED5F884140029D1
:1063D40000F0FA8000238DF800308DF801308DF83C
:1063E40002300123224601F5896168460EF09CFDC6
:1063F4003246C749204616F055FED5F884140029C4
:1064040000F0F68000238DF800308DF801308DF80F
:1064140002300123224601F5896168460EF084FDAD
:106424003246BC49204616F03DFED5F884140029B6
:1064340000F0F28000238DF800308DF801308DF8E3
:1064440002300123224601F5896168460EF06CFD95
:106454003246B149204616F025FED5F884140029A9
:1064640000F0EE8000238DF800308DF801308DF8B7
:1064740002300123224601F5896168460EF054FD7D
:106484003246A649204616F00DFED5F8841400299C
:1064940000F0EA8000238DF800308DF801308DF88B
:1064A40002300123224601F5896168460EF03CFD65
:1064B40032469B49204616F0F5FDD5F88414002990
:1064C40000F0E68000238DF800308DF801308DF85F
:1064D40002300123224601F5896168460EF024FD4D
:1064E40032469049204616F0DDFDD5F88414002983
:1064F40000F0E28000238DF800308DF801308DF833
:1065040002300123224601F5896168460EF00CFD34
:1065140032468549204616F0C5FDD5F88414002975
:1065240000F0DE8000238DF800308DF801308DF806
:1065340002300123224601F5896168460EF0F4FC1D
:106544000136642E00F0F680784F3B685B680522C4
:106554004946384698473146384615F0F2FD3846E4
:1065640015F082FD32467249204616F09BFDD5F89F
:10657400841400297FF4FEAED5F8881400293FF472
:1065840007AF00238DF831308DF832308DF8333079
:106594000123224601F5896168460CF080FEF7E686
:1065A400D5F8881400293FF40BAF00238DF831305F
:1065B4008DF832308DF833300123224601F589619C
:1065C40068460CF06CFEFBE6D5F8881400293FF40D
:1065D4000FAF00238DF831308DF832308DF8333021
:1065E4000123224601F5896168460CF058FEFFE656
:1065F400D5F8881400293FF413AF00238DF8313007
:106604008DF832308DF833300123224601F589614B
:1066140068460CF044FE03E7D5F8881400293FF4DB
:1066240017AF00238DF831308DF832308DF83330C8
:106634000123224601F5896168460CF030FE07E724
:10664400D5F8881400293FF41BAF00238DF83130AE
:106654008DF832308DF833300123224601F58961FB
:1066640068460CF01CFE0BE7D5F8881400293FF4AB
:106674001FAF00238DF831308DF832308DF8333070
:106684000123224601F5896168460CF008FE0FE7F4
:10669400D5F8881400293FF423AF00238DF8313056
:1066A4008DF832308DF833300123224601F58961AB
:1066B40068460CF0F4FD13E7D5F8881400293FF47C
:1066C40027AF00238DF831308DF832308DF8333018
:1066D4000123224601F5896168460CF0E0FD17E7C5
:1066E400D5F8881400293FF42BAF00238DF83130FE
:1066F4008DF832308DF833300123224601F589615B
:1067040068460CF0CCFD1BE7D4050020EC05002006
:10671400040600201C060020340600204C0600203D
:10672400640600207C0600209006002048490020D2
:10673400C0050020C64C23685B681D22C54920465D
:106744009847204615F090FC0024C34FC04DC34E1B
:1067540014E0C34BD3F8881469B100238DF83130A9
:106764008DF832308DF833300123BE4A01F589614A
:1067740068460CF094FD0134642C25D02B685B68CA
:1067840006223946284698472146284615F0D9FC62
:10679400284615F069FC22463146B24816F082FCC0
:1067A400AF4BD3F884140029D3D000238DF80030E4
:1067B4008DF801308DF802300123AA4A01F5896170
:1067C40068460EF0B1FBD6E7A14C23685B681A2239
:1067D400A54920469847204615F046FCA04BD3F81F
:1067E4008414002900F0F78000238DF800308DF820
:1067F40001308DF8023001239C4A01F58961684615
:106804000EF092FB964BD3F88414002900F0F78025
:1068140000238DF800308DF801308DF8023001230B
:10682400934A01F5896168460EF07EFB8C4BD3F8E0
:106834008414002900F0F78000238DF800308DF8CF
:1068440001308DF8023001238A4A01F589616846D6
:106854000EF06AFB824BD3F88414002900F02281E5
:1068640000238DF800308DF801308DF802300123BB
:10687400814A01F5896168460EF056FB784BD3F8DE
:106884008414002900F0238100238DF800308DF852
:1068940001308DF802300123784A01F58961684698
:1068A4000EF042FB6E4BD3F88414002900F02481CF
:1068B40000238DF800308DF801308DF8023001236B
:1068C4006F4A01F5896168460EF02EFB644BD3F8DC
:1068D4008414002900F0258100238DF800308DF800
:1068E40001308DF802300123664A01F5896168465A
:1068F4000EF01AFB5A4BD3F88414002900F02681B9
:1069040000238DF800308DF801308DF8023001231A
:106914005D4A01F5896168460EF006FB504BD3F8D9
:106924008414002900F0278100238DF800308DF8AD
:1069340001308DF802300123544A01F5896168461B
:106944000EF0F2FA464BD3F88414002900F02881A3
:1069540000238DF800308DF801308DF802300123CA
:106964004B4A01F5896168460EF0DEFA384C23681B
:106974005B681B22474920469847204615F074FB64
:10698400374BD3F88414002900F01F8100238DF8BD
:1069940000308DF801308DF8023001233E4A01F5B4
:1069A400896168460EF0C0FA294C23685B6831227D
:1069B4003A4920469847204615F056FB23685B6801
:1069C4000522374920469847204615F04DFB40469E
:1069D40015B0BDE8F083224BD3F888140029C5D044
:1069E40000238DF831308DF832308DF833300123A7
:1069F4001E4A01F5896168460CF051FC02E7184B08
:106A0400D3F888140029B1D000238DF831308DF8E3
:106A140032308DF833300123154A01F58961684617
:106A24000CF03DFC02E70E4BD3F8881400299DD0EE
:106A340000238DF831308DF832308DF83330012356
:106A44000C4A01F5896168460CF029FC02E700BF95
:106A540048490020A4060020C4060020CC060020DB
:106A6400E861002020760120DC060020F8060020E2
:106A740008070020180700202807002038070020F6
:106A8400480700205C0700206C0700207C070020DA
:106A94008C0700209C070020B8070020C4070020B2
:106AA400F8070020534BD3F8881400293FF45EAF55
:106AB40000238DF831308DF832308DF833300123D6
:106AC4004D4A01F5896168460CF0E9FBD6E6494B6D
:106AD400D3F8881400293FF449AF00238DF83130EE
:106AE4008DF832308DF833300123444A01F5896141
:106AF40068460CF0D4FBD5E63E4BD3F88814002945
:106B04003FF434AF00238DF831308DF832308DF8F6
:106B1400333001233A4A01F5896168460CF0BFFB22
:106B2400D4E6344BD3F8881400293FF41FAF002374
:106B34008DF831308DF832308DF833300123314AFD
:106B440001F5896168460CF0AAFBD3E6294BD3F81A
:106B5400881400293FF40AAF00238DF831308DF8F2
:106B640032308DF833300123274A01F589616846B4
:106B74000CF095FBD2E61F4BD3F8881400293FF4A0
:106B8400F5AE00238DF831308DF832308DF8333086
:106B940001231E4A01F5896168460CF080FBD1E6A9
:106BA400144BD3F8881400293FF4E0AE00238DF889
:106BB40031308DF832308DF833300123144A01F529
:106BC400896168460CF06BFBD0E60A4BD3F8881455
:106BD40000293FF4E9AE00238DF831308DF83230CE
:106BE4008DF8333001230B4A01F5896168460CF0B6
:106BF40056FBD9E6E861002028070020380700206A
:106C0400480700205C0700206C0700207C07002058
:106C14008C070020B807002010B504460F2806D9B9
:106C2400002310222146054815F046FA10BD0348FA
:106C340003685B68012202499847F1E7484900204C
