:0200000460009A
:100000004643464200000156000000000103030081
:1000100000000000000000000000000000000000E0
:1000200000000000000000000000000000000000D0
:1000300000000000000000000000000000000000C0
:1000400000000000010408000000000000000000A3
:100050000000800000000000000000000000000020
:100060000000000000000000000000000000000090
:100070000000000000000000000000000000000080
:10008000EB04180A063204260000000000000000FD
:10009000050404240000000000000000000000002F
:1000A0000000000000000000000000000000000050
:1000B0000604000000000000000000000000000036
:1000C0000000000000000000000000000000000030
:1000D00020041808000000000000000000000000DC
:1000E0000000000000000000000000000000000010
:1000F0000000000000000000000000000000000000
:10010000D8041808000000000000000000000000F3
:100110000204180804200000000000000000000095
:1001200000000000000000000000000000000000CF
:10013000600400000000000000000000000000005B
:1001400000000000000000000000000000000000AF
:10015000000000000000000000000000000000009F
:10016000000000000000000000000000000000008F
:10017000000000000000000000000000000000007F
:10018000000000000000000000000000000000006F
:10019000000000000000000000000000000000005F
:1001A000000000000000000000000000000000004F
:1001B000000000000000000000000000000000003F
:1001C000000100000010000001000000000000001D
:1001D000000001000000000000000000000000001E
:1001E000000000000000000000000000000000000F
:1001F00000000000000000000000000000000000FF
:10020000FFFFFFFFFFFFFFFFFFFFFFFFFFFFFFFFFE
:10021000FFFFFFFFFFFFFFFFFFFFFFFFFFFFFFFFEE
:10100000D100204325160060000000000000000011
:1010100020100060001000600078026000000000F6
:10102000000000600084020000000000FFFFFFFFDE
:10103000FFFFFFFFFFFFFFFFFFFFFFFFFFFFFFFFC0
:10104000FFFFFFFFFFFFFFFFFFFFFFFFFFFFFFFFB0
:10105000FFFFFFFFFFFFFFFFFFFFFFFFFFFFFFFFA0
:10106000FFFFFFFFFFFFFFFFFFFFFFFFFFFFFFFF90
:10140000884207D0904205D251F8043B40F8043B93
:101410008242F9D8704700BF884204D2002340F8C6
:10142000043B8142FBD870472DE9884800F0D0F991
:101430000824614B614AC3F8544161496148FFF790
:10144000DFFF614A61496248FFF7DAFF614962489C
:10145000FFF7E2FF614C4FF0E0214FF470000023F2
:101460005F4AC1F8880D44F823200133B02BFAD12C
:101470005C4B80215C4A03F8011B9342FBD14FF087
:10148000E0254D4E4FF08039DFF88CB1DFF88CA1AC
:101490004FF0FF31C5F8084D0027C6F80491C6F893
:1014A00000B1C6F8F490C6F8F0A0D5F8243DDFF8F6
:1014B000708143F4E0234D4AC5F8243DD8F81C3030
:1014C00023F07F0343F04003C8F81C30D8F82430E1
:1014D00023F07F0343F04003C8F824309166D166BF
:1014E0001167516700F07CF9414B4249A363424BBD
:1014F000E36363236B610323AF612B613F4BC5F84B
:10150000203DD5F8FC3D43F08073C5F8FC3D3C4BD5
:101510001A6842F001021A605B680B6000F09EFBE3
:10152000C6F804913748C6F800B1C6F8F490C6F87A
:10153000F0A000F02DFDD8F86C10334B334A41F485
:101540004051C8F86C101F60C3F80871C3F81871D7
:10155000C3F82871C3F83871936BDB0708D442F6DF
:1015600015632B4951651365936B43F00103936336
:10157000264A284C936843F00113936000F0ACF9BD
:1015800000F0D0FC00F008FD00F096FB00F010FD2C
:101590002368132BFCD900F027FC2368B3F5967F52
:1015A000FBD300F01BF900F017F900F0EDFC00F0A0
:1015B000FBFC30BFFDE700BF00800D4088F8010054
:1015C0002C28006000000000C0560020B8200260F7
:1015D0000000002040B80320C05600200054002026
:1015E000E571010000E400E0A0E400E000C00A4072
:1015F000D95A01000CB40320DD5A0100000020205C
:10160000001000E00046C3230040084000400D40A9
:101610000000C05610B403201B1018200C0D11132D
:1016200000C00F40074B4FF42A01074A07485A648D
:101630001864074A99639546BFF34F8FBFF36F8FC6
:10164000FFF7F2FE00C00A40FFAAAAAA0700200086
:101650000000062043690A4A03EB011010B4037A24
:10166000084C02EB0313D3E901321460C2681A601C
:1016700003690BB142691A605DF8044B704700BF03
:101680008C3A002061F801004369027E03EB0212EC
:1016900092F808C08C451CD01A7AFF2A19D09142C2
:1016A00010B5044616D01A7EFF2A06D00121D3E9D0
:1016B000002312681A4201D1217610BD064B052283
:1016C000204603EB0C135B681A60FFF7C3FF21761B
:1016D000F3E770470021EAE78C3A002043690A4AA1
:1016E00003EB011010B490F82830084C02EB031300
:1016F000D3E901321460C26A1A60036B0BB1426B0A
:101700001A605DF8044B70478C3A002061F80100C4
:101710004369427E03EB021292F828C08C451ED02A
:1017200093F82820FF2A1AD0914210B5044617D00A
:1017300093F83820FF2A06D00121D3E9002312684C
:101740001A4201D1617610BD064B0522204603EBFB
:101750000C135B681A60FFF7C1FF6176F3E770470F
:101760000021EAE78C3A0020164942698B6B23F48A
:101770007C0343F4802370B58B630446124DD2E999
:1017800000130A681A4303690A60022200211A61E1
:101790000E4A19619A6401225A629D624FF43035F3
:1017A000DD624FF001159E6C1E6519629D651A6120
:1017B000017EFFF74FFF617E2046BDE87040FFF7D6
:1017C0008DBF00BF00C00F40B80B05053B3728197F
:1017D000704700BF704700BF704700BF00BF704731
:1017E00010B44FF0E023002110242B48C3F8941DBF
:1017F000C3F89C4D1124C3F8A00D2848C3F89C4D94
:101800001224C3F8A00D2648C3F89C4D254AC3F8FE
:10181000A00D254C42F015022448C3F89C4DC3F896
:10182000A00D234C2348C3F89C4DC3F8A00D224CB7
:10183000C3F89C2D2148224AC3F8A04DC3F89C0D43
:10184000C3F8A02D02F5A0221E4C0C321E48C3F88E
:101850009C4DC3F8A02D1D4AC3F89C0D1C4CC3F829
:10186000A02D01221B48C3F89C4DC3F8A00DC3F85E
:10187000942DBFF34F8FBFF36F8FC3F8501FBFF38B
:101880004F8FBFF36F8FD3F8142D5DF8044B42F4E4
:101890004032C3F8142D70473F00001025000803A4
:1018A0000900100040B803201300200021000207A7
:1018B0001400002025000813090000101600202045
:1018C00027000B1317000040180000602F000B07C3
:1018D000190000702F000B13F0B5B84B1822B84E4A
:1018E0000120B84F83B0C3F85C62B749C3F8607297
:1018F000B64DC3F86462A6F53046B54CC3F86862CD
:10190000C3F86C52C3F87052C3F87452C3F87852DB
:1019100048F20C75DA661A675A679A67DA67C3F88D
:101920008020C3F88420C3F88820C1F82C03A94A7A
:10193000C1F83003C1F83403C1F83803C1F83C03DF
:10194000C1F85003A169A44B0A40A448A449134319
:10195000A44AA361D4F8843043F00C03C4F8843063
:101960004FF0FF34036843F00203036003682B4029
:101970004FF400551A439C4B026044608A689B4CAC
:1019800013409B4A43F000538360C36823F07803FD
:10199000C360036A134023430362036A1340954AFA
:1019A0002343954C43628262C2620022D1F8B83070
:1019B00023F03F0343F00103C0F8B830D1F8BC3046
:1019C0008E4923F03F0343F00103C0F8BC3040F2DE
:1019D0000563026105660467C0F8803045664467A8
:1019E0000224C0F88430036823F00203036081619D
:1019F000834B8449C46143F8042B8B42FBD1774A63
:101A0000136843F001031360136813F00103FBD163
:101A10007A48022140F2F564906140F29940D16128
:101A200040F26641C2F8004242F20144C2F810128C
:101A30007549C2F82002C2F8301240F235417348AD
:101A4000C2F83442C2F84012714CC2F8500242F25D
:101A500001207049C2F854120121C2F86042C2F854
:101A600064025E48C2F8A030C2F8A430C2F8B010D8
:101A70004369DA07FCD5012300244FF4803257492B
:101A80004361C0F8A040C0F8A420C0F8B0304B6952
:101A9000DB07FCD5012300244FF400304F4A4B6193
:101AA000C1F8A040C1F8A400C1F8B0305369DF0705
:101AB000FCD501230024584848495361C2F8A0408E
:101AC000C2F8A400C2F8B0304B69DE07FCD5D1F8EB
:101AD000003145F60D5221209BB24861934265D1F9
:101AE00000244FF4802201233C48C1F8A040C1F8F3
:101AF000A420C1F8B0304369DD07FCD501234FF4C1
:101B000000040021354A4361C0F8A040C0F8A41089
:101B1000C0F8B0305369DC07FCD501234FF4000452
:101B20004FF480302D495361C2F8A040C2F8A400A0
:101B3000C2F8B0304B69D807FCD501234FF400043C
:101B40004FF40030254A4B61C1F8A040C1F8A40011
:101B5000C1F8B0305369D907FCD501234FF4000414
:101B60002D481E495361C2F8A040C2F8A400C2F833
:101B7000B0304B69DA07FCD5D1F8003145F60D528B
:101B800021209BB24861934250D008254FF40004B5
:101B900022490020224B234A009015705A1A012333
:101BA0002148224400F010FA03B0F0BD1E4B002281
:101BB000C3E90022C3E9022203B0F0BD00801F4048
:101BC000F9B00100F910010000841F40F970010014
:101BD00000C00F40FFFCFF1F000300A000402A4090
:101BE00000802A401200FFFFFF37F700400000800E
:101BF00000FFF07CFF000F8363000200F05AF05AF0
:101C000000422A4000432A409F041830EB06180A7D
:101C10003806180A0632012604000300000000708E
:101C200000000070E7B70320CCED00204FF4000463
:101C30004FF4802201230848C1F8A040C1F8A42035
:101C4000C1F8B0304369DB07FCD5012310254FF004
:101C5000807443619CE700BF00402A40F0B4154AFD
:101C600040274FF480314FF480564FF400554FF425
:101C7000404443F24200136913F0020F0ED113F4F3
:101C8000005F0FD013F4805F0ED0002BF3DA13F453
:101C9000803F0BD15B060BD5F0BC7047946151615E
:101CA0009061E8E75561E6E75661E4E79161E2E7B4
:101CB0005761E0E700800D403F4A03203F49F3EEC3
:101CC000095AD2F880304FF0000C9FED3D6A23F0A6
:101CD00001039FED3C5A30B4C2F88030C2F8900046
:101CE000D1F8E010384DCBB2384C39482B6007EEB4
:101CF000903A0B0DC1F30B21F8EEE77A06EE903A1D
:101D000007EE101A334BB8EEC77A2160F8EEE66A98
:101D1000314937EEC66A37EEC55A76EEC76A77EEB6
:101D2000E57A26EE266AC3ED006A25EE265AD2F839
:101D3000803067EEA64AC0ED007AC6EE275A2748E3
:101D400085EE276AC4EEA76A75EE875AFCEEE55A5F
:101D500036EE076A15EE904ABCEEC66A43EA0453B3
:101D600076EE877AC2F8803016EE103AD2F89041BB
:101D7000FCEEE77A01EA0341214317EE903AC2F8FC
:101D80009011C3F30B03D2F890110B431449C2F81E
:101D90009031D2F8803043F00203C2F88030114B0A
:101DA00080F840C0C1F840314FF0E023012230BC40
:101DB000C3F80821704700BF00810D4000441F4058
:101DC0000000AA420000B442C8B10120C4B1012001
:101DD000CCB10120D0B101200000FF0F00E400E0F1
:101DE00000540020C5730100314B40F6617210B5FC
:101DF000C3F8202140F2044400F0D2F82D4A2E49C5
:101E0000D2F880302D4843F00303C2F880302C4BC9
:101E1000C1F8604102681A4203D1D1F8A8319A078B
:101E20001BD0254A4FF00041244B5963D2F8403172
:101E300043F00203C2F84031D2F840319B07FBD493
:101E40004FF400304FF0E0211C4B4FF00042C1F83E
:101E50008C0219209A6300F0B3F8184A4FF08040C2
:101E6000154C002190630A20164B11604FF420722C
:101E7000C4F8A801184600F09FF84FF4800203460A
:101E80004FF4810040F243111860C4F858311A64CD
:101E90000D4B0E4AC4F84811C3F804224FF0E0225B
:101EA0004FF400310123C2F80C11C4F8403110BDC9
:101EB00000800D4000C00F4000002E4000900D40FB
:101EC000001C1E000000002000540020E5750100E9
:101ED00008B50E4B1B6E9B0700D4FBBE72B60C4BB5
:101EE00000200C4AC3F8400103F160430A49A3F5FE
:101EF0005F2311649D46BFF34F8F4FF400130748D3
:101F0000074ADB6902609B68984700BF00441F4096
:101F100000002E4000C00A40030020000080202066
:101F2000000012EB104BA020104AD96E41F4403152
:101F300010B4D96640F23764D96E41F44071D96665
:101F400054649064936C1B06FCD4094A40F23761D8
:101F5000A02351649364936C13F08003FBD1054A72
:101F600013705DF8044B704700C00F4000400C40F8
:101F700000800C40D5B70320F8B500BFF8BC08BC02
:101F80009E467047000000005FF800F039A5010090
:101F90005FF800F0B56401005FF800F0C97001005F
:101FA0005FF800F0217D01005FF800F09D6E0100F8
:101FB0005FF800F0E15F00005FF800F0B59E0100FF
:101FC0005FF800F0A56701005FF800F0618F010085
:101FD000010100002571000069B9000075DA0000F8
:081FE000F9E100006D61010050
:101FE80000000000000000000000000000000000E9
:101FF80000000000000000000000000000000000D9
:1020080000000000000000000000000000000000C8
:1020180000000000000000000000000000000000B8
:1020280000000000000000000000000000000000A8
:102038000000000000000000000000000000000098
:102048000000000000000000000000000000000088
:102058000000000000000000000000000000000078
:102068000000000000000000000000000000000068
:102078000000000000000000000000000000000058
:102088000000000000000000000000000000000048
:102098000000000000000000000000000000000038
:1020A8000000000000000000000000000000000028
:1020B8000000000000000000000000000000000018
:1020C8000000000000000000000000000000000008
:1020D80000000000000000000000000000000000F8
:1020E80000000000000000000000000000000000E8
:1020F80000000000000000000000000000000000D8
:1021080000000000000000000000000000000000C7
:1021180000000000000000000000000000000000B7
:1021280000000000000000000000000000000000A7
:102138000000000000000000000000000000000097
:102148003F000000000000000000000000001FFC2D
:102158003F000000000000000000000000007FFCBD
:102168003F00000000000000000000000000FFFC2D
:102178003F00000000000000000000000001FFFC1C
:102188003F00000000000000000000000003FFFC0A
:102198003F00000000000000000000000007FFFCF6
:1021A8003F3F007E3F3FC0FF001FFF80000FF9FC4C
:1021B8003F3F007E3F7FF3FFC07FFFE0001FE1FC51
:1021C8003F3F007E3FFFFFFFE0FFFFE0000FC1FC45
:1021D8003F3F007E3FFFFFFFE1FFFFF0000781FC6C
:1021E8003F3F007E3FC1FF07F1F807F0000301FC05
:1021F8003F3F007E3F80FE03F00003F0000001FC3B
:102208003F3F007E3F00FC03F03FFBF1FFF801FC7D
:102218003F3F007E3F00FC03F0FFFFF1FFF801FCA9
:102228003F3F007E3F00FC03F0FFFFF1FFF801FC99
:102238003F3F007E3F00FC03F1FC03F1FFF801FC87
:102248003F3F00FE3F00FC03F1F803F0000001FCF3
:102258003F3F81FE3F00FC03F1F807F0000001FC5E
:102268003F1FFFFE3F00FC03F1FFFFF0000001FCF1
:102278003F1FFFFE3F00FC03F1FFFFF0000001FCE1
:102288003F0FFF7E3F00FC03F0FFFBF0000001FC66
:102298003F03FE7E3F00FC03F07FF3F0000001FCEB
:1022A8000000000000000000000000000000000026
:1022B8000000000000000000000000000000000016
:1022C8000000000000000000000000000000000006
:1022D80000000000000000000000000000000000F6
:1022E80000000000000000000000000000000000E6
:1022F80000000000000000000000000000000000D6
:1023080000000000000000000000000000000000C5
:1023180000000000000000000000000000000000B5
:1023280000000000000000000000000000000000A5
:102338000000000000000000000000000000000095
:102348000000000000000000000000000000000085
:102358000000000000000000000000000000000075
:102368000000000000000000000000000000000065
:102378000000000000000000000000000000000055
:102388000000000000000000000000000000000045
:102398000000000000000000000000000000000035
:1023A8000000000000000000000000000000000025
:1023B8000000000000000000000000000000000015
:1023C8000000000000000000000000000000000005
:1023D80000000000000000000000000000000000F5
:1023E80070C00F40C0000000120000001300000081
:1023F800D0841F4001000000FF000000FF00000023
:10240800000000000000000013000000130000009E
:10241800CC841F4001000000FF000000FF00000006
:1024280000000000000000001C000000CDB8000003
:1024380070C00F40000C00001100000011000000E7
:10244800E0841F40020000002C0000001200000081
:10245800E0841F400100000010000000110000008F
:10246800DC841F40020000002D0000001200000064
:10247800DC841F40010000001E000000D9B80000E5
:1024880080C00F4000000003190000001000000089
:10249800E8841F4001000000FF000000FF0000006A
:1024A80000000000000000001800000010000000FC
:1024B800E4841F4001000000FF000000FF0000004E
:1024C80000000000000000001F000000E5B8000048
:1024D8000000600000000000000000000000000094
:1024E80000E0000000000000000000000000000103
:1024F800E00000000000000000000000000001F003
:102508000000000000000000000000000003F000D0
:1025180000000000000000000000000007F00000BC
:10252800000000000000000000000007F8000000A4
:10253800000000000000000000000FF80000000389
:10254800C0007E000001E0007F0FF800000003C01B
:1025580000FE000001E000FFEFF800000003C000EB
:10256800FE000001E000FFFFF800000003C000F0DB
:102578000000000F007FFE7FC0000003C000F000D5
:1025880000000F003FFE7FF83FF1FBCFFCFEF3BCDD
:102598003DEFE01FFE7FFF7FFBFFDFFEFEFFBC3D40
:1025A800EFE01FC6FFFF7FFBFFDFFEFEFFBC3DEF36
:1025B800E00FE3C7FE787BC3DE1EF0FFBC3DEF00F3
:1025C80007FF87FC787BC3DE1EF0F83C3DEF000177
:1025D800FFFFF0007BC3C01EF0F03C3DEF0001F3AD
:1025E8007FE03FFBC3CFFEF0F03C3DEF0003E33F4D
:1025F800807FFBC3DFFEF0F03C3DEF0007E73C00C7
:10260800787BC3DE1EF0F03C3DEF0007FFBE00788C
:102618007BC3DE1EF0F03C3DEF0007FFFE00787B39
:10262800C3DE1EF0F03C3DEF000FFFFE007FFBFF16
:10263800DFFEF0F03FFDEFE00FFFFF007FFBFFDF65
:10264800FEF0F03FFDEFE00FF9FF003E79F9CF9E75
:10265800F0F01F3DE7E01FF1FF0000000000000060
:1026680000000000001F80FF007FFFFFFFFFFFFF4B
:10267800FFFFFFE01C007F007FFFFFFFFEB46D88B7
:102688008D18E000001F007FFFFFFFFE95AD7DB5B0
:1026980077E000000F007FFFFFFFFEA5AD9D8D19BD
:1026A800E0000006007FFFFFFFFEB5ADEDB57EE060
:1026B8000000000118035400650065006E007300F7
:1026C800790020004D0049004400490018035400D7
:1026D800650065006E00730079006400750069008C
:1026E8006E006F000403090409029500030100C08D
:1026F80032080B0002020201000904000001020274
:10270800010005240010010524010101042402062A
:1027180005240600010705820310001009040100C2
:10272800020A0000000705030240000007058302B3
:102738004000000904020002010300000724010010
:1027480001250006240201010006240202020009F4
:102758002403010301020100092403020401010109
:1027680000090504024000000000052501010109D7
:102778000584024000000000052501010300000057
:1027880009029500030100C032080B000202020191
:1027980000090400000102020100052400100105DF
:1027A800240101010424020605240600010705820C
:1027B8000310000509040100020A000000070503D0
:1027C8000200020007058302000200090402000259
:1027D800010300000724010001250006240201016D
:1027E8000006240202020009240301030102010079
:1027F8000924030204010101000905040200020082
:1028080000000525010101090584020002000000FD
:1028180005250101030000000A060002EF0201403D
:0428280001000000AB
:10282C00000000000000000000000000000000009C
:10283C00000000000000000000000000000000008C
:10284C00F8B54FF084439D695A6915400DD0244F5B
:10285C0001269D6195FAA5F4B4FA84F457F8243056
:10286C0006FA04F49847A543F4D11E4B9D695A69A6
:10287C0015400DD01C4F01269D6195FAA5F4B4FAB4
:10288C0084F457F8243006FA04F49847A543F4D19D
:10289C00164B9D695A6915400DD0154F01269D6147
:1028AC0095FAA5F4B4FA84F457F8243006FA04F433
:1028BC009847A543F4D10F4B9D695A6915400DD02B
:1028CC000D4F01269D6195FAA5F4B4FA84F457F8DE
:1028DC00243006FA04F49847A543F4D1F8BD00BFA0
:1028EC00EC470020004000426C4800200080004271
:1028FC00EC48002000C000426C4900200548064B03
:10290C001B1AD90F01EBA301491002D0034B03B1E1
:10291C0018477047C0560020C05600200000000029
:10292C0008B5054B1BB105490548AFF30080BDE860
:10293C000840FFF7E3BF00BF000000004470012017
:10294C000084026000207047704700BF036D0BB11C
:10295C0001207047406D003818BF0120704700BF40
:10296C00704700BF10B50446806D18B118F094FF85
:10297C000023A365236D2BB104F11800BDE81040B2
:10298C0012F05EBF636D002BF6D110BD08B5172099
:10299C0016F0C0FB60B9084A13680133012B08DD3F
:1029AC00064B012110601970054A064B12681A601B
:1029BC0008BD1360F8E700BF086F012002B80320C0
:1029CC0010B4032070B20120054B1B78DB0706D531
:1029DC00044A01200449054B126808701A607047BC
:1029EC00F2B7032010B40320DBB7032078B2012028
:1029FC00054B1B789B0706D5044A01200449054B5F
:102A0C00126808701A607047F2B7032010B40320E4
:102A1C00DDB7032080B2012010B50446806D00B1F3
:102A2C0010BD4FF4807018F02FFFA065B0B10022DC
:102A3C00236D02703BB101464FF48072184612F0C0
:102A4C00ABFAA06D10BD636D002BE9D001464FF4BD
:102A5C00807218460FF0A0FEA06D10BD014B1846F9
:102A6C00A36510BDD2B7032038B5056D6DB10BB1A0
:102A7C00002038BD1146284610F01CFF0028F7D066
:102A8C002846BDE8384011F0B7B8446D002CEFD0A3
:102A9C0020460EF095F90028EAD02046BDE83840D3
:102AAC000FF046B98A79A2F150031B0622D402F228
:102ABC006C72F0B54B7985B0046D01330D798E785D
:102ACC004F78DBB209784CB1204601960095CDE9E0
:102ADC000271022111F024F805B0F0BD406D002800
:102AEC00FAD001960095CDE9027102210FF064F83D
:102AFC0005B0F0BD00207047036D10B50C4682B0D8
:102B0C002BB30DF1060201A9184610F079FA38B36F
:102B1C00BDF80430BDF8062053EA020120D0C2F300
:102B2C00451C02F01F00D20AC3F34311400084F885
:102B3C0001C0A2705A0A013903F01F0302F5EA62C0
:102B4C002070012061712371A27102B010BD406D23
:102B5C0030B10DF1060201A90DF0D8FF0028D7D134
:102B6C00002002B010BD00BF036D10B50C4682B042
:102B7C002BB30DF1060201A9184610F031FA38B347
:102B8C00BDF80430BDF8062053EA020120D0C2F390
:102B9C00451C02F01F00D20AC3F34311400084F815
:102BAC0001C0A2705A0A013903F01F0302F5EA6250
:102BBC002070012061712371A27102B010BD406DB3
:102BCC0030B10DF1060201A90DF08EFF0028D7D10E
:102BDC00002002B010BD00BF30B5D0F880448FB0DB
:102BEC0013464CB100250A46684604F589610095E8
:102BFC0010F0CCFA0FB030BDD0F884040028F9D016
:102C0C000A4600F5896168460C940EF069FF0FB016
:102C1C0030BD00BF10B5044600230A2215F092FF08
:102C2C002046BDE8104015F063BF00BF69B170B518
:102C3C00054608460C461AF013F92B680246214645
:102C4C0028465B68BDE8704018477047006990B132
:102C5C000368154A1B69934225D1036D63B118783B
:102C6C0010F0080007D0D8695B69C01A48BF6FF034
:102C7C000040704718467047436D002BFAD093F80C
:102C8C00310010F00800F6D0186919685A69401A1A
:102C9C005B6862EB0303B0F1004F73F10003EAD3FE
:102CAC006FF00040704718473D080000036973B18E
:102CBC001A68084952698A4207D1186D08B110F098
:102CCC0085BC586D18B10EF065B8184610474FF01A
:102CDC00FF3070471D060000036963B11A6807498D
:102CEC0092698A4208D1186D08B110F013BF586D63
:102CFC0008B10EF0EBBD70471846104721070000D5
:102D0C0000B5006983B08DF8071060B10368104AF4
:102D1C00DB68934215D1036D43B101220DF107011C
:102D2C00184610F0A3FF03B05DF804FB406D0028BB
:102D3C00F9D001220DF107010FF06CF803B05DF82A
:102D4C0004FB01220DF10701984703B05DF804FB69
:102D5C00A1070000036D13B1586900217047436D42
:102D6C0013B1D3E90001704718461946704700BFEC
:102D7C00036D13B1D86900217047436D13B1D3E9CA
:102D8C000401704718461946704700BFF0B595B05E
:102D9C0000224FF47A74244F1831054604A88DF89C
:102DAC000C200097CDE90124CDE9122212F0B4FDDC
:102DBC00129B002B2DD05C20002616F021FD019BD0
:102DCC0004464660C36004A9029B183040F8083CD6
:102DDC009DF80C3000F8043C144B40F8183C144B94
:102DEC0040F8103C12F0EAFC124B4FF47A72A760D8
:102DFC002B606368A66501336E602E73AA602C612C
:102E0C0063600D4B04A8009312F01AFD284615B010
:102E1C00F0BD139B002BCED1064A2B732A602B617D
:102E2C00C5E90134EDE700BF783600209C36002060
:102E3C00F83600204C360020F0330020036D13B11F
:102E4C00184610F0C3BB406D08B10DF0A3BF4FF096
:102E5C00FF307047836C13B1184610F0B7BBC06CD1
:102E6C0008B10DF097BF4FF0FF307047036D33B1D1
:102E7C001B7813F0700F14BF012000207047406DB9
:102E8C0030B190F8313013F0500F14BF01200020F6
:102E9C00704700BF10B50446006D80B1037813F085
:102EAC00700F00D110BD002110F004FD606D0028E2
:102EBC00F8D000220023BDE810400DF081BF606DFA
:102ECC000028EFD090F8313013F0500FEAD00022E8
:102EDC000023BDE810400DF073BF00BF036D13B1AC
:102EEC00184610F09FBA406D08B10DF083BE4FF03C
:102EFC00FF307047836C00B583B063B101220DF1D4
:102F0C000701184610F08EFA01280CD19DF8070025
:102F1C0003B05DF804FBC06C28B101220DF1070170
:102F2C000DF068FEF0E74FF0FF30F1E7836C13B162
:102F3C00184610F0EFBDC06C08B10EF0C7BC70475E
:102F4C00036D13B1184610F0E5BD406D08B10EF0DD
:102F5C00BDBC7047036923B31968134A10B58C685C
:102F6C0082B0944214D1186D48B101220DF10701C1
:102F7C0010F058FA90B19DF8070002B010BD586DD2
:102F8C000028F8D001220DF107010DF033FEF1E716
:102F9C0001220DF107011846A047EBE74FF0FF3077
:102FAC00EBE74FF0FF307047BD060000836C13B1A8
:102FBC00184610F05BBEC06C08B10EF02BBF70470A
:102FCC00036D13B1184610F051BE406D08B10EF0F0
:102FDC0021BF704700B5836C83B08DF8071043B1E7
:102FEC0001220DF10701184610F040FE03B05DF808
:102FFC0004FBC06C0028F9D001220DF107010EF082
:10300C0009FF03B05DF804FB8A79A2F150031B069B
:10301C0022D402F26C72F0B54B7985B0046D013399
:10302C000D798E784F78DBB209784CB12046019639
:10303C000095CDE90271042110F072FD05B0F0BDD0
:10304C00406D0028FAD001960095CDE9027104215B
:10305C000EF0B2FD05B0F0BD00207047036D53B10A
:10306C00187810F008000DD0D8695B69C01A48BFF9
:10307C006FF000407047436DA3B193F8310010F02E
:10308C00080000D17047186919685A69401A5B68C2
:10309C0062EB0303B0F1004F73F10003F2D36FF056
:1030AC00004070471846EDE7836C53B1187810F068
:1030BC0008000DD0D8695B69C01A48BF6FF000409A
:1030CC007047C36CA3B193F8310010F0080000D125
:1030DC007047186919685A69401A5B6862EB0303F8
:1030EC00B0F1004F73F10003F2D36FF00040704762
:1030FC001846EDE70369D3B10E4810B41C68E468B8
:10310C0084420FD1186D18B15DF8044B10F0AEBDB0
:10311C00586D18B15DF8044B0EF07CBE00205DF8C4
:10312C00044B7047184623465DF8044B18470020A3
:10313C00704700BFA107000048B10368174A5B6BDA
:10314C00934210B5044616D1806D10B110BD1448D1
:10315C0070474FF4807018F097FBA065C8B100223F
:10316C00236D027053B101464FF48072184611F072
:10317C0013FFA06D10BDBDE810401847636D002B08
:10318C00E4D001464FF4807218460FF005FBA06D99
:10319C0010BD044B1846A36510BD00BFF90100001B
:1031AC00843E0020D2B7032038B504460C4B806D0A
:1031BC00236018B118F070FB0023A365236D04F194
:1031CC0018054BB1284612F03BFB064B2846A36072
:1031DC0012F036FB204638BD636D002BF2D1F4E7BC
:1031EC009C360020F033002038B504460E4B806D21
:1031FC00236018B118F050FB0023A365236D04F174
:10320C0018056BB1284612F01BFB084B2846A3602F
:10321C0012F016FB20465C2116F0F4FA204638BD5D
:10322C00636D002BEED1F0E79C360020F0330020CC
:10323C0030B4029C11469C4634B1012C1CD0022C9B
:10324C000ED0002030BC7047056DF5B14FF0FF3348
:10325C00934274EB0C04F4D3284630BC10F02ABB18
:10326C00026D0AB3D36959184CF10003002BE8D155
:10327C00104630BC10F01EBB026D62B15369591878
:10328C004CF10003002BDCD1F2E7406D0028D8D0C4
:10329C0030BC0DF095BD406D0028D2D0D0E9002394
:1032AC008A184CEB0303F3E7406D0028C9D0D0E932
:1032BC00042330BC8A184CEB03030DF081BD00BF16
:1032CC0038B5044649B108460D4619F0C9FD2368C6
:1032DC00024629465B68204698472046BDE83840A0
:1032EC0015F006BC08B518F0C3F810B908BD18F0F5
:1032FC0003F918F0BDF80028F9D1012008BD00BF72
:10330C0038B50446094D1121094818F01BF921461E
:10331C0000230A22284615F015FC284615F0E8FB78
:10332C0021460020BDE8384016F0A0B8004200202D
:10333C00101A002010B5002015F088FF044611214A
:10334C00114818F0FFF800230A2221460F4815F007
:10335C00F9FB0E4815F0CCFB022C01D8204610BD11
:10336C0011210B4818F0EEF800230A2207481C46DE
:10337C00194615F0E7FB054815F0BAFB2046214627
:10338C0016F074F8204610BDFC19002000420020F5
:10339C00101A002038B50446094D1B21094818F0B5
:1033AC00D1F8214600230A22284615F0CBFB2846EB
:1033BC0015F09EFB21460120BDE8384016F056B8AA
:1033CC0000420020E027002038B50446094D1D219D
:1033DC00094818F0B7F8214600230A22284615F0B0
:1033EC00B1FB284615F084FB21460220BDE838408D
:1033FC0016F03CB800420020D026002070B51446D0
:10340C000D461E46024623460549064815F08CFB20
:10341C0044EA06012846BDE8704016F027B800BF04
:10342C00B82500200042002030B5032083B015F0F1
:10343C000DFF0446164D14F0010F1649164824F0E2
:10344C00F00308BF294614F0020F144A08BF28469F
:10345C00009113490190134815F066FB04F0F0033A
:10346C00A02B03D104F00F0003B030BD0E490D4862
:10347C0015F05AFB0323094A0C490A4815F054FB72
:10348C00A321032015F0F2FF032003B030BD00BFD1
:10349C007C13002028250020CC3E00206C28002026
:1034AC00302500200042002030280020B8250020C4
:1034BC0030B5042083B015F0C9FE0446164D14F047
:1034CC00010F1649164824F0F00308BF294614F0E2
:1034DC00020F144A08BF2846009113490190134863
:1034EC0015F022FB04F0F003A02B03D104F00F0025
:1034FC0003B030BD0E490D4815F016FB0323094AE5
:10350C000C490A4815F010FBA321042015F0AEFF5E
:10351C00032003B030BD00BF7C1300202825002001
:10352C00CC3E0020FC27002030250020004200204B
:10353C0030280020B825002030B5052083B015F0C8
:10354C0085FE0446164D14F0010F1649164824F05A
:10355C00F00308BF294614F0020F144A08BF28468E
:10356C00009113490190134815F0DEFA04F0F003B2
:10357C00A02B03D104F00F0003B030BD0E490D4851
:10358C0015F0D2FA0323094A0C490A4815F0CCFA73
:10359C00A321052015F06AFF032003B030BD00BF46
:1035AC007C13002028250020CC3E002084280020FD
:1035BC00302500200042002030280020B8250020B3
:1035CC0030B5062083B015F041FE0446164D14F0BC
:1035DC00010F1649164824F0F00308BF294614F0D1
:1035EC00020F144A08BF2846009113490190134852
:1035FC0015F09AFA04F0F003A02B03D104F00F009D
:10360C0003B030BD0E490D4815F08EFA0223094A5D
:10361C000C490A4815F088FAA221062015F026FF5D
:10362C00022003B030BD00BF7C13002028250020F1
:10363C00CC3E0020542800203025002000420020E1
:10364C0014280020B825002030B5072083B015F0D1
:10365C00FDFD0446164D14F0010F1649164824F0D2
:10366C00F00308BF294614F0020F144A08BF28467D
:10367C00009113490190134815F056FA04F0F00329
:10368C00A02B03D104F00F0003B030BD0E490D4840
:10369C0015F04AFA0223094A0C490A4815F044FA73
:1036AC00A221072015F0E2FE022003B030BD00BFBE
:1036BC007C13002028250020CC3E002088270020E9
:1036CC00302500200042002014280020B8250020BE
:1036DC0010B550B10B490C4A0C4815F025FA0121D4
:1036EC000820BDE8104015F0C1BE04460549084A43
:1036FC00064815F019FA21460820BDE8104015F0CF
:10370C00B5BE00BF5C270020EC1400200042002056
:10371C005827002070B505460C490D482A4605F17E
:10372C0008062C4615F000FA14F8011B04F2FF10E1
:10373C00401B15F09BFEA642F6D10521054817F05B
:10374C0001FF0348BDE8704015F0D2B9F026002007
:10375C000042002018270020F8B5074640F201254A
:10376C0024210C487C1EFE1DED1B17F0EBFE2819C6
:10377C0015F06CFD04F8010FB442F8D100230521BB
:10378C0005483B7217F0DEFE0448BDE8F84015F022
:10379C00AFB900BF78260020182700200042002077
:1037AC00012810B504460BD0022816D090B11A216E
:1037BC000B4817F0C7FE0B48BDE8104015F098B940
:1037CC000B21094817F0BEFE064815F091F9074B7E
:1037DC001C6010BD0D210648F4E70C210548F1E7EB
:1037EC00780C0020004200205C0C0020CC4700200C
:1037FC004C0C0020680C0020194B2DE9F041194E9F
:10380C000446DFF868801F68174D04F00F03092B7E
:10381C001BD0082B04F0F00220D80134E4B257B9C5
:10382C00992CF2D8414655F8240019F0CDF800280F
:10383C00EBD0204610E0022CE7D8414656F8240085
:10384C0019F0C2F80028E0D0F3E704F0F0041034CB
:10385C00E4B2902CE3D90020BDE8F0811446DEE7F9
:10386C00286F012050060020E803002020090020CA
:10387C0000F00F03092B16D0082B00F0F0020DD925
:10388C00002311090C4801EB8101007803EB410383
:10389C00DBB2984238BF002210467047431CDAB2A4
:1038AC0003F00F03EDE700F0F0001030C2B2902AE5
:1038BC00E6D9002210467047EFB70320144B2DE9D0
:1038CC00F041DFF858800446124E1D68124F230752
:1038DC000FD114F0F00417D19924002DF7D156F81C
:1038EC002400414619F070F80028F0D02046BDE8BD
:1038FC00F081013CE4B215B9992CE8D8EFE7022C21
:10390C00E5D857F82400ECE7073CE4B2F3E700BF36
:10391C00286F0120E8030020500600202009002019
:10392C00030705D110F0F0001FD1632399200AE0A2
:10393C000138C0F3031200F00F03C0B202EB820295
:10394C0003EB4203DBB20A4A12789A420CD2094BBF
:10395C00A3FB0213DB08C3EB4311C3EB810149004A
:10396C0001EB03131A44D0B270470738E1E700BFEC
:10397C00EFB70320CDCCCCCC70B5274D0021284619
:10398C000BF020FC254B022128462B610BF014FC7C
:10399C00234B1C78012C0AD0022C27D0BCB100225E
:1039AC00204B43F63F7110469A70198070BD1E4B28
:1039BC0000241C495F221B7828464A7002221B09EE
:1039CC008C7030330B7015F05FF8204670BD154EBF
:1039DC0045F65F7330463380B47019F041FA3146C6
:1039EC000246284615F050F8204670BD0E4B0022BA
:1039FC000C4C1B78A27020461A0903F00F033032CE
:103A0C0030332270637019F02BFA21460246284697
:103A1C0015F03AF8012070BDC06B002001002300A6
:103A2C00F9B7032064700120E5B7032038B5174BB4
:103A3C0004461B68002B0FD0154D1A461549B8BF0C
:103A4C005A1C2868096800EB62028A4204DC0344B1
:103A5C00994200DD296038BD0F4D4FF001130F4A1C
:103A6C0000212846C5E904230BF0ACFB01212846B4
:103A7C000BF0A2FB002CEED0204619F0F1F92146F8
:103A8C0002462846BDE8384014F0FEBFFC6D01200C
:103A9C00F06D01205C700120C06B0020010014004F
:103AAC0038B5174B04461B68002B0FD0154D1A4622
:103ABC001549B8BF5A1C2868096800EB62028A4293
:103ACC0004DC0344994200DD296038BD0F4D4FF0F2
:103ADC0001130F4A00212846C5E904230BF072FBA1
:103AEC00012128460BF068FB002CEED0204619F083
:103AFC00B7F9214602462846BDE8384014F0C4BF49
:103B0C00F86D0120EC6D01205C700120C06B002071
:103B1C000100260038B5174B04461B68002B0FD04C
:103B2C00154D1A461549B8BF5A1C2868096800EB90
:103B3C0062028A4204DC0344994200DD296038BDEC
:103B4C000F4D4FF001130F4A00212846C5E90423FD
:103B5C000BF038FB012128460BF02EFB002CEED08D
:103B6C00204619F07DF9214602462846BDE838402A
:103B7C0014F08ABFF46D0120E86D01205C70012007
:103B8C00C06B00200100380038B50A4D04460A4BC2
:103B9C00012128462B610BF00FFB4CB1204619F08C
:103BAC005FF9214602462846BDE8384014F06CBF48
:103BBC0038BD00BFC06B00201E00260030B55E4A29
:103BCC0083B05E4C156823685B1B962B06D95C4D45
:103BDC00236813602B7883F001032B70FF281CD013
:103BEC000F2811D8574C2378012B5ED013F0FD0F02
:103BFC0049D00020B3B9524B1B78002B14BFCC23F7
:103C0C00FC230B7003B030BD1238072805D8DFE851
:103C1C0000F0251C0404041404104A4B00201B78EB
:103C2C00002BE8D0013BDBB2012BEBD8464B1B78C9
:103C3C0031E0444B02201B78DCE7424B1B78A3F1AC
:103C4C000200B0FA80F04009D4E73E4C2378012BF7
:103C5C0059D0022B30D09BB10020E3E7394C2378AC
:103C6C00012B41D0022B34D0002BF5D1374A18460A
:103C7C0001911288012A54D0FFF752FE0199034694
:103C8C000222314D04E0000101222F4D0C30C3B251
:103C9C0000202B7022702A4A0B70127812B943F054
:103CAC000F03DBB20B7003B030BD274D02222B7813
:103CBC0023F00F030343EBE7244B234D1B88287899
:103CCC00012B019125D0FFF7D3FD01990222034668
:103CDC00DEE71E4B1C4D1B882878012B01911CD054
:103CEC00FFF71EFE0199F1E7184B174D1B8828783A
:103CFC00012B019100F0F00018D0FFF711FE019993
:103D0C0003460222C4E7104D0222287800F0F0038B
:103D1C00BEE7FFF771FD0199D8E7FFF7CFFD0199D9
:103D2C00D4E7FFF7CBFD01990346A9E7FFF7C6FDE2
:103D3C0001990346E5E700BFBC67002010B40320DF
:103D4C00D9B70320F9B70320E5B70320B6B7032092
:103D5C0008B5374B1B68042B21D8DFE803F0424A27
:103D6C0003032200334B344A1B88344903F51F5399
:103D7C0011603C339BB2092B50D8314A52F82300C6
:103D8C00FFF754FE2F4B1B8803F51F533C339BB29C
:103D9C00092B45D82A4A52F82300FFF781FE01204F
:103DAC0008BD254B1868FFF741FE224B1B8803F515
:103DBC001F533C339BB2092B38D8214A52F82300AD
:103DCC00FFF76EFE1F4B1B8803F51F533C339BB252
:103DDC00092B29D81A4A52F82300FFF79BFE012021
:103DEC0008BD154B184A19481A60FFF71FFE012031
:103DFC0008BD104B104A1B88134903F51F53116063
:103E0C003C339BB2092B0DD80D4A52F82300FFF717
:103E1C000DFE0E48FFF744FE012008BD0C48AFE72D
:103E2C000B48BAE70A48F2E70948D6E70848C7E75B
:103E3C00ACB60320C6B70320484A00209C0F0020D4
:103E4C0070030020C8B703207C0F0020900F0020C7
:103E5C00CC070020554B1B6810B5072B2CD8DFE87E
:103E6C0003F0840404562D2D3267514C514B5249AA
:103E7C001B682288514818F003FA5048FFF7D6FD0A
:103E8C002388B3F5005F00F08C8000F28380B3F5DB
:103E9C00006F02D0B3F5805F02D14948FFF700FEF6
:103EAC00484B1A682AB148490020484A09681860EA
:103EBC0011604748FFF72EFE012010BD4548FFF763
:103ECC00B5FD012010BD444B1A681E2A05D03E4991
:103EDC001E20424A0968186011604148FFF7A6FD90
:103EEC00404B41491A88354818F0CAF93F4B1A68BB
:103EFC002AB1354900203E4A0968186011602F48E4
:103F0C00FFF7CEFD3248FFF705FE012010BD394802
:103F1C00FFF78CFD354B1A681E2A05D02A491E2046
:103F2C00334A0968186011603348FFF7B9FDC0E7E0
:103F3C00294B1A682AB124490020284A09681860BC
:103F4C0011602A4B1A682AB11F490020284A0968B7
:103F5C00186011601B4B1A68002AADD01A4900205A
:103F6C001A4A096818601160A6E7124B234A2448C4
:103F7C001A60FFF75BFD134B1A68122A05D0124921
:103F8C001220124A0968186011601E48FFF7C2FD22
:103F9C00012010BDB3F5804F03D0B3F5004F7FF473
:103FAC007FAF1948FFF77CFD7AE700BFC4EC002017
:103FBC00B4B70320C84700208C1A0020C8EC00209E
:103FCC009C1A0020F46D01205C700120E86D01202A
:103FDC00CC1A0020081B0020FC6D0120F06D012084
:103FEC00141B0020B0B70320281B0020F86D012003
:103FFC00EC6D0120E41A0020F41A00207C0F002044
:10400C00601A0020741A0020B41A00202DE9F04721
:10401C004FF00009DFF8E482012484B049464046A1
:10402C00B34E432725460BF0CDF83B4622B2022176
:10403C00404600950834CDE901950BF011F816F8BF
:10404C00017FA4B2002FF0D1AA4D03200A23DFF880
:10405C00ACA2298801243222B94601F00101DFF813
:10406C00A4825426029139462746CDE900305046A9
:10407C000AF0CCFB334622B20F215046009708348D
:10408C00CDE901970AF0ECFF18F8016FA4B2002EED
:10409C00F0D12A8803210A23DFF86092C2F3400290
:1040AC0001244846B24602923222A046924F532631
:1040BC00CDE900310D210AF0A9FB334622B21C21B7
:1040CC004846CDF800800834CDE901A80AF0C8FFB5
:1040DC0017F8016FA4B2002EEFD12A8803210A230E
:1040EC00DFF818A2C2F3800201245046DFF81882D0
:1040FC0002923222A1464227CDE900311A210AF060
:10410C0085FB3B4622B229215046CDF8009008345D
:10411C00CDE901690AF0A4FF18F8017FA4B2002FC1
:10412C00EFD12A8803210A23DFF8D0A1C2F3C00201
:10413C0001245046DFF8D48102923222A14648264F
:10414C00CDE9003127210AF061FB334622B236213A
:10415C005046CDF800900834CDE901790AF080FF83
:10416C0018F8016FA4B2002EEFD12A8803210A237C
:10417C00DFF888A1C2F3001201245046DFF89081C9
:10418C0002923222A1464327CDE9003134210AF0B4
:10419C003DFB3B4622B243215046CDF800900834FB
:1041AC00CDE901690AF05CFF18F8017FA4B2002F79
:1041BC00EFD12A8803210A23DFF840A1C2F3401271
:1041CC0001245046DFF84C8102923222A14643264C
:1041DC00CDE9003141210AF019FB334622B25021BE
:1041EC005046CDF800900834CDE901790AF038FF3B
:1041FC0018F8016FA4B2002EEFD12A8803210A23EC
:10420C00DFF8F8A0C2F3801201245046DFF80881D1
:10421C0002923222A1465227CDE900314E210AF0FA
:10422C00F5FA3B4622B25D215046CDF80090083499
:10423C00CDE901690AF014FF18F8017FA4B2002F30
:10424C00EFD12A8803210A23DFF8B0A0C2F3C012F1
:10425C0001245046DFF8C48002923222A146542633
:10426C00CDE900315B210AF0D1FA334622B26A2142
:10427C005046CDF800900834CDE901790AF0F0FEF3
:10428C0018F8016FA4B2002EEFD12A880A2303215B
:10429C000124C2F300221948A046194F029232227F
:1042AC00DFF85890CDE9003168210AF0AFFA4323CA
:1042BC0022B277214846CDF800800834CDE9016858
:1042CC000AF0CEFE17F8013FA4B2002BF0D12888DB
:1042DC0003210A233222C0F340200191752100935F
:1042EC00029006480AF092FA04B0BDE8F08700BFCD
:1042FC00381400205051002044140020C06B0020C2
:10430C007C140020401400204C1400205414002075
:10431C005C140020641400206C1400207414002021
:10432C00F8B5022014F092FF0446002800F0E28059
:10433C000246744B7449754814F0F6FB112C28BFD7
:10434C000024734B0025012603271C60FFF76CF833
:10435C00704B1870FFF7ACF86F4B1870FFF7ECF858
:10436C006E4B1870FFF72CF96D4B1870FFF76CF94A
:10437C006C4B024608201A7014F068FF6A4B041E3E
:10438C006A4A6B4908BF1A46604814F0CDFB601BA3
:10439C0068494DF6060218BF0120674B674C087040
:1043AC004DF604019A83998024211A8527221980BD
:1043BC004DF605019A8407221982252183F82620BF
:1043CC004DF60A0299814DF60701A3F858209986FB
:1043DC002821A3F864202C2219864DF60801A3F895
:1043EC0060204DF60B02A3F840102921A3F8702091
:1043FC0099874DF60901A3F87C202E22A3F84C10C6
:10440C002A219D70A3F8481026219D7319832B2116
:10441C009D76A3F854102D2183F83260A3F86C100C
:10442C002F2183F83E5083F84A5083F8626083F85A
:10443C00567083F86E70A3F87820626DA3F8841020
:10444C00302183F87A60A3F8901047F6122183F894
:10445C00866083F8926010684DF60C02A3F88820F1
:10446C004DF60D02A3F894202A46354BE360354BEC
:10447C00A360354BA361354BA363354BE363354BDD
:10448C006364354BA364354B636214F01DF8344AF6
:10449C004FF6FF7384F870701268A4F85860C4F873
:1044AC000021304A84F85A5065672F4984F8F85037
:1044BC00C4F8FC502D48C4E91A339369C4E9185563
:1044CC0043F080532A4C93610C602A4B2A4C2B4AA4
:1044DC0004601A602A492B4C2B4B2C4A0C601A6036
:1044EC002B492C4A2C482D4C2D4B11602D4A046025
:1044FC001A60F8BD02462C4B0349044814F014FB17
:10450C001FE700BF7C130020A026002000420020E3
:10451C00F0490020F3B70320F2B70320F1B70320D2
:10452C00F0B70320F6B7032058270020EC14002026
:10453C0040270020F4B70320186C00202C6F0120BA
:10454C00417E0000A9010000D58E0000B91F0000BB
:10455C001D470000C547000075460000FD8900009E
:10456C0010B403200080194048B5032044B5032043
:10457C00757E000050B50320D1010000058F0000AE
:10458C0038B50320551F000060B503201549000005
:10459C00CD45000064B503203CB503206D480000F8
:1045AC006CB503206D8A0000C42600200A4B0B4A10
:1045BC000B49002808BF1A4610B50A4C20700A484F
:1045CC0014F0B2FA2378094A191E18BF012143EAE4
:1045DC00410382F8703010BD58270020EC140020E5
:1045EC00CC170020F4B70320004200202C6F0120D0
:1045FC000C2836D8DFE800F021271B09070B111710
:10460C00192D2F3133001848704718487047184B34
:10461C0018483F2998BF18467047174B17483F2931
:10462C0098BF184670471648704716487047164B87
:10463C0016483F2998BF18467047154B15483F2917
:10464C0098BF18467047144B14483F2998BF18461A
:10465C007047134870471348704713487047134806
:10466C0070471348704700BF6414002008290020CD
:10467C00142900207C1400201C2900207414002014
:10468C00242900202C29002000290020541400206B
:10469C00F02800204C140020F8280020441400209E
:1046AC00342900203C290020442900204C290020DA
:1046BC005429002010B52B4C2368042B0AD8DFE8B2
:1046CC0003F0031C293B0A004FF084434FF0807227
:1046DC00C3F8882010BD14F0C9FC234A40F6D763F8
:1046EC001268801A9842F5D94FF084424FF08071CD
:1046FC000023C2F88810236010BD4FF084434FF0A4
:10470C008072C3F8842014F0B1FC174A02231060A5
:10471C00236010BD14F0AAFC134A40F6D76312684C
:10472C00801A9842D6D94FF084424FF080710323FF
:10473C00C2F88810236010BD14F098FC0B4A0C4B87
:10474C0012681B68801A8342C4D84FF084434FF020
:10475C008072C3F8842014F089FC034A042310608F
:10476C00236010BD18B503203C70012074B20120E9
:10477C001CB50320104B1B789B0700D4704710B559
:10478C000E4C14F073FC0E4B2268801A4008186013
:10479C0014F06CFC0B4B20601B783BB90A4A0120CF
:1047AC000A490B4B126808701A6010BD094B0122A4
:1047BC001A60FFF77FFFF1E7F0B7032074B2012016
:1047CC001CB50320EAB7032010B40320DDB7032087
:1047DC0080B2012018B50320104B1B78DB0700D4E6
:1047EC00704710B50E4C14F041FC0E4B2268801A29
:1047FC004008186014F03AFC0B4B20601B783BB956
:10480C000A4A01200A490B4B126808701A6010BD45
:10481C00094B01221A60FFF74DFFF1E7F0B70320B7
:10482C0074B201201CB50320EAB7032010B4032096
:10483C00DBB7032078B2012018B50320092809D86A
:10484C000138082828D8DFE800F00C0F1215181BC7
:10485C001E212400FF2802D1114B1888704700201C
:10486C0070474DF6050070474DF6060070474DF643
:10487C00070070474DF6080070474DF60900704769
:10488C004DF60A0070474DF60B0070474DF60C00C4
:10489C0070474DF60D0070474DF60400704700BF91
:1048AC004E510020092809D80138082820D8DFE803
:1048BC0000F00C0F11131517191B1D000D4B0E4A90
:1048CC00FF2808BF1346184670470C4B1846704714
:1048DC000B4BF8E70B4BF6E70B4BF4E70B4BF2E704
:1048EC000B4BF0E70B4BEEE70B4BECE70B4BEAE714
:1048FC000B4BE8E7F01000201C11002044140020A2
:10490C0054140020641400207C1400207414002023
:10491C00FC10002004110020442900200C11002060
:10492C004C14002070B50546204E0C4620482A46F3
:10493C00204914F0F9F833789A0707D4DB0711D41F
:10494C001D491B48BDE8704014F0EEB81B491848CF
:10495C0014F0EAF800222946204616F009F83378BC
:10496C00DB07EDD5164E1749114814F0DDF8736DC1
:10497C00F021186803681B68984755B1013C254421
:10498C00736D14F8011F186803681B689847A542DB
:10499C00F6D1736DF721186803681B6898470649B0
:1049AC000348BDE8704014F0BFB800BFF6B7032051
:1049BC000042002088070020C4070020A807002020
:1049CC002C6F0120B4070020F72813D0124938B5FA
:1049DC000B78124C5B00124D2268DBB20B7023F08B
:1049EC007F0310491843531C8B422360A85403DCEB
:1049FC00002038BD0120704727210B4816F0A2FD7E
:104A0C0021680A4814F068F8084814F071F801237A
:104A1C00074A1846137038BDD3B70320E8B30220F9
:104A2C00C8B301201F000100101400200042002018
:104A3C0005B8032010B51C4C034622680A2A2AD854
:104A4C00DFE802F0060B271A0F0F0F0F0F0F2000D5
:104A5C0000221648164902600A70F02B08D000207C
:104A6C0010BDFFF7B1FFD0B923680133236010BD2F
:104A7C0002230020236010BD0E49042200200B707D
:104A8C00226010BDFFF7A0FF48B90323002023606C
:104A9C0010BD6928F9D001230020236010BD01232B
:104AAC001846236010BD00BF64710120E8B30220DA
:104ABC0005B80320D3B703202DE9F0474FF0000AC7
:104ACC0082B05346CD1802EB0A0403F107084FF0ED
:104ADC00000CAAEB030715F801EB4FEA4C0C013361
:104AEC001EF0800F5FFA8CFC0EF07F0607EB0309BB
:104AFC0018BF4CF0010C834204F8016F06DA4345F1
:104B0C00E9D102F80AC00AF1080ADBE702F80AC088
:104B1C0002460549CDF80090044814F005F809F157
:104B2C00010002B0BDE8F087C01300200042002055
:104B3C0010B5FA20174C14F045FA01223C21164806
:104B4C000BF0F8FB154A164B126820701A6000B96E
:104B5C0010BD2421134816F0F5FC134813F0C8FFC0
:104B6C000121112014F0E8FA0121102014F0E4FACC
:104B7C000021112014F0A4FA0021102014F0A0FA46
:104B8C000A481DF081FA0A49084809F0C1FA207850
:104B9C0010BD00BFDFB70320C06B002010B4032092
:104BAC0060700120E8170020004200202C610020DA
:104BBC0040420F0070B5066904467568013D75608A
:104BCC0075BB33681F4ADB6A93422CD1B06D10B1B0
:104BDC0016F062FEB565336D63B306F1180010F084
:104BEC002FFE2569E5B12B68174A5B68934225D1E6
:104BFC00164BA86D2B6018B116F04EFE0023AB655A
:104C0C002B6D05F118068BB1304610F019FE104BC8
:104C1C003046AB6010F014FE5C21284614F0F2FD17
:104C2C000023236170BD30469847DAE76B6D002B8B
:104C3C00EAD1ECE7736D002BCFD1D2E72846984729
:104C4C00EEE700BF45010000C90900009C360020BA
:104C5C00F0330020044A036910B5044602600BB11E
:104C6C00FFF7A8FF204610BD4C360020064A03690A
:104C7C0010B5044602600BB1FFF79CFF20461421CF
:104C8C0014F0C0FD204610BD4C360020012BF0B5B1
:104C9C00054695B03DD0022B40F2022001F10401F3
:104CAC000CBF03460023684610F0E4FE129B002B59
:104CBC0038D05C20002614F0A3FD214B04AF044631
:104CCC00C0E90036019B3946183040F80C3C1D4BAE
:104CDC0040F8103C029B40F8083C9DF80C3000F862
:104CEC00043C10F06BFD184B4FF47A72A665A36070
:104CFC00164B6E602B6063682E730133AA602C61B7
:104D0C006360134B3846009310F09AFD284615B09B
:104D1C00F0BD44F202230431684610F0ABFE129B46
:104D2C00002BC6D1139B002BC3D14FF47A71074AC9
:104D3C0004AF2B732A602B61C5E90131E1E700BF99
:104D4C009C360020F8360020783600204C360020A7
:104D5C00F0330020F0B502469DB0A049A048019266
:104D6C0013F0E2FE9F4C019A9F49A04817F088FA75
:104D7C0000239E4A08A89E49FFF788FF236913B1B8
:104D8C002046FFF717FF0C992161002900F0E28003
:104D9C000B68984ADB6B93424FF0000240F008819D
:104DAC004FF47A74944E18310CA88DF82C20089678
:104DBC00CDE90924CDE91A2210F0AEFD1A9B002B87
:104DCC0000F0D2805C20002514F01AFD8B4B0446B9
:104DDC000CA9C0E90035099B183040F80C3C884BF5
:104DEC0040F8103C0A9B40F8083C9DF82C3000F829
:104DFC00043C10F0E3FC63684FF47A72A565013350
:104E0C00049505928DF818500794C4E901367D4B32
:104E1C0003937D4B0CA8089310F012FD7B4C236977
:104E2C0013B12046FFF7C6FE079B7048236118F0AC
:104E3C0017F801466D4816F085FB694813F058FECB
:104E4C002069F8B10368724A1B6B934217D1036D4A
:104E5C00002B00F095800B216E4816F073FB604818
:104E6C0013F046FE206900B303686B4A9B6A9342B9
:104E7C001AD1036D002B00F09180DB6916E0984786
:104E8C000028E8D10F21654816F05CFB544800243B
:104E9C0013F02EFE0521624816F054FB504813F017
:104EAC0027FE20461DB0F0BD984703465D4F0621F6
:104EBC005D483B6016F046FB2569002D73D02B68CE
:104ECC005A4A5B6B934240F08380AE6D002E00F02B
:104EDC00B980304617F0C4FF0146304616F032FB5D
:104EEC003F4813F005FE0621514816F02BFB00231A
:104EFC000A2239683A4813F025FE394813F0F8FDB8
:104F0C002569002D52D02B684A4A9E68964259D189
:104F1C00286D002839D04FF4005247490EF082FA20
:104F2C002569002D42D02B68DB6A444A934246D156
:104F3C00A86D18B116F0B0FC0023AB652B6D002BDF
:104F4C0039D005F1180010F07BFC30483A4CFFF7D3
:104F5C0031FE9FE74FF47A722A4B04918DF81810AA
:104F6C0005920393079159E71B9B002B7FF42AAF03
:104F7C00244A8DF8183003920793CDE9043448E79E
:104F8C00436D002B7FF467AF7CE7686D0028CBD0B6
:104F9C004FF4005228490BF02DFEC1E7436D002B56
:104FAC0084D01B6982E72946254E96E7224C71E78F
:104FBC0003A8984732E76B6D002BC2D1C5E7284692
:104FCC009847C2E74FF400521B492846B047A7E761
:104FDC00284698470646002E82D07AE7A009002082
:104FEC0000420020F4490020CC090020006E012072
:104FFC00C85900206D050000783600209C36002032
:10500C00F83600204C360020F0330020D847002022
:10501C002D010000DC09002051050000F8090020DA
:10502C00080A0020E46D0120E8090020F9010000C5
:10503C00F0090020BD060000689101204501000028
:10504C00843E00204FF4807016F01EFC0146A865CB
:10505C00B0B10670286D40B14FF480720FF09CFF18
:10506C00AE6D002E3FF43CAF33E7686D18B14FF4D2
:10507C0080720DF091FBAE6D002E3FF431AF28E73E
:10508C00014B1E46AB6524E7D2B70320104BD3F877
:10509C00840410B558B1002308220E4900F589602C
:1050AC000FF01AFB0B48BDE8104013F021BDD3F8EC
:1050BC008844002CF6D00346082204F58960054983
:1050CC000CF0FEF90348BDE8104013F011BD00BF11
:1050DC00C8590020004200202DE9F04F05460E462D
:1050EC009FB0B14933462A46B048B14F13F01CFD6E
:1050FC0000232A46AF490AA8FFF7C8FD3B6913B144
:10510C003846FFF757FD0E993961002900F0DD8113
:10511C000B68A94ADB6B934240F039820DF1380BD6
:10512C0000224FF47A74DFF8D882183158460B926B
:10513C008DF834200C94CDF82880CDE91C2210F089
:10514C00EBFB1C9B002B00F0E2815C204FF0000974
:10515C0014F056FB0B9B0446C0F80490C3605946F0
:10516C000C9B183040F8083C9DF8343000F8043C97
:10517C00924B40F8183C924B40F8103C10F01EFB40
:10518C006368C4F808800133C4F85890CDF81890BF
:10519C0063604FF47A738DF820900793894B0994D0
:1051AC000593894B58460A9310F04AFB874C2369A8
:1051BC0013B18648FFF7FEFC09982061002800F027
:1051CC0092810368DFF83C921A6B4A4540F0E38108
:1051DC00026D002A00F08F819B6A7D498B4240F062
:1051EC00A281D0692569DFF820A2CAF80000002D41
:1051FC0000F08A822B68774A5B6B934240F01982ED
:10520C00AA6D002A00F02F823F21734816F0F4FF9C
:10521C00714A7249654813F087FCDAF8002070492E
:10522C00624813F081FCDAF80020B2F5004F00F26E
:10523C009581256935B32B686A49D3F80880884570
:10524C0040F00582286D002800F0B28166490EF00E
:10525C00E9F82569B5B12B68DB6A644A934240F0E2
:10526C00DD81A86D18B116F017FB0023AB652B6D13
:10527C00002B00F0BB8105F1180010F0E1FA534847
:10528C00FFF798FC10215A4816F05CF9474813F0C8
:10529C002FFC0023324647490AA8FFF7F7FC3B696D
:1052AC0013B14348FFF786FC0E993961002900F0D1
:1052BC0060810B68404ADB6B934240F0BE810DF17C
:1052CC00380B00224FF47A75DFF8348118315846C8
:1052DC000B928DF834200C95CDF82880CDE91C224A
:1052EC0010F01AFB1C9B002B00F06A815C2000273D
:1052FC0014F086FA0B9B05464760C36059460C9B1D
:10530C00183040F8083C9DF8343000F8043C2B4B26
:10531C0040F8183C2A4B40F8103C10F04FFA6B68E0
:10532C00C5F808800133AF6506976B604FF47A734C
:10533C008DF820700793234B09950593224B584603
:10534C000A9310F07DFA236913B12048FFF732FC61
:10535C0009982061002860D003681B6B4B4540F016
:10536C007081036D002B00F03781FDF7E5FE2149BC
:10537C0002460E4813F0D8FB2069FDF7DDFE3346DC
:10538C00FF2100901C4A1D4816F036FF094BD3F83C
:10539C008414002900F02F810023184A0AA80A93CC
:1053AC0001230DF0EBFF31E0940C002000420020B3
:1053BC00F4490020C85900206D0500009C360020DF
:1053CC00F83600204C360020F0330020D84700205F
:1053DC0051050000F901000088B20120A80C002042
:1053EC00B40C0020BD060000E4ED002045010000D7
:1053FC00E80C0020FC0C0020180D0020C8B2012085
:10540C00783600202D010000E46D0120002840F0CA
:10541C006F81A149A148FDF753FFA14A3346FF21F3
:10542C00A0480092A04A16F0E7FE0B219F4816F008
:10543C0089F89C4817F014FD01469A4816F082F83A
:10544C00964813F055FB01230AA8964A9849FFF792
:10545C001DFC236913B19748FFF7ACFB0E98206134
:10546C00002866D003681A6B4A455FD1026D002A8A
:10547C0000F0B780DAF80020DB688F498B4240F0EF
:10548C003181036D002B00F0E6808C4918460EF03C
:10549C00EDFB2469B4B12368894ADB6A934240F07E
:1054AC002481A06D18B116F0F7F90023A365236DC4
:1054BC00002B00F0EC8004F1180010F0C1F97D48CD
:1054CC00FFF778FB1FB0BDE8F08F4FF47A73794C7F
:1054DC00069107937B4B8DF8201005932369099156
:1054EC00002B7FF466AE2A4677496C481FB0BDE8A6
:1054FC00F04F13F019BB426D002AF4D09B6A734A2B
:10550C00934210D1406D78B1006925696BE61D9B03
:10551C00002B7FF41AAE8DF820300993CDE90634B8
:10552C00684B05933DE6984725695CE69047002853
:10553C0077D11F21664816F005F85A4817F090FCF1
:10554C000146584815F0FEFF0D21624815F0FAFF90
:10555C0052481FB0BDE8F04F13F0CABA4FF40042E6
:10556C005D494E4813F0E0FA4FF40042CAF80020AF
:10557C005FE64FF47A7306918DF820100793514B28
:10558C00099105932369002B7FF4DFAE45E70022D8
:10559C0005A898470AE690470028A4D0206900285F
:1055AC0040F0B780DFF838A14C4ACAF800002BE66F
:1055BC00686D00283FF450AE40490BF01BFB48E6E9
:1055CC001D9B002B7FF492AE8DF820300993CDE912
:1055DC0006353C4B0593B1E6436D002B7FF4C5AE0D
:1055EC001BE7426D002A7FF445AFA2E76B6D002BE1
:1055FC007FF441AE43E6D3F88834002B3FF409AF77
:10560C0016910AA81946274A01230BF097FE002889
:10561C003FF4FFAE0AA80CF033F8FAE62846984798
:10562C002DE62069DAF8002000283FF44BAF036820
:10563C0022E7284698470246E6E5002205A8984747
:10564C0081E6984700283FF4E8AE20698DE62846AD
:10565C001A49C047FDE5406D18B118490CF0DAFB4A
:10566C0017E7246917E74FF48070039216F00CF9D2
:10567C000146A865002849D0039A0270286D0028BD
:10568C003AD04FF480720FF087FCAA6DBCE5636DC5
:10569C00002B7FF410AF12E7200D002000420020F9
:1056AC0088B20120C8B201203C0D0020440D00201E
:1056BC00C8590020D8470020A1070000E4ED0020C5
:1056CC00450100004C360020800D002051050000E3
:1056DC00500D0020700D0020C00C0020843E0020D6
:1056EC00E46D012010499847D3E620469847E6E63A
:1056FC000AA80EF049FF8CE6686D18B14FF4807261
:10570C000DF04AF8AA6D7FE5084A7DE5084AAA65BE
:10571C007AE50368074A9B6A93427FF404AF026DF3
:10572C00002A7FF45EADEDE6E4ED0020843E00201F
:10573C00D2B703205105000030B59BB004460D468E
:10574C000346094A302102A816F056FD2B46074A9B
:10575C0030210EA8009416F04FFD0EA902A8FFF7F9
:10576C00BBFC1BB030BD00BF84150020941500207D
:10577C002DE9F0470D469CB006460821AD4817466A
:10578C00984615F0DFFE35B1284617F069FB014647
:10579C00284615F0D7FEA848A84C13F0A9F9002309
:1057AC003246A74908A8FFF771FA236913B12046BE
:1057BC00FFF700FA0C992161002900F00B810B68AE
:1057CC00A04ADB6B934240F07C8100224FF47A7448
:1057DC00DFF8B4A218310CA809928DF82C200A9489
:1057EC00CDF820A0CDE91A2210F096F81A9B002BC8
:1057FC0000F003815C204FF0000914F001F8099BC4
:10580C000446C0F80490C3600CA90A9B183040F8F9
:10581C00083C9DF82C3000F8043C8B4B40F8183CAD
:10582C008A4B40F8103C0FF0C9FF6368C4F808A01D
:10583C000133C4F85890CDF8109063604FF47A732C
:10584C008DF818900593824B07940393814B0CA809
:10585C0008930FF0F5FF804C236913B17E48FFF7D6
:10586C00A9F907982061002847D003687B4A1B6B75
:10587C00934240F02A81036D002B00F0CA80142162
:10588C00774815F05FFE2369002B00F0C7801A687B
:10589C007449526B8A4240F02F81D3F85890B9F179
:1058AC00000F00F03181484617F0DAFA01464846FD
:1058BC0015F048FE604813F01BF92069FDF73CFC1D
:1058CC00694903463246694816F0DAFC5C4BD3F85A
:1058DC008414002900F0DC800023644A08A8089393
:1058EC0001230DF04BFD002840F002811B21604884
:1058FC0015F028FE504813F0FBF82B4632465A4957
:10590C005A4816F0BDFC11215A4815F01BFE574899
:10591C0017F0A6FA0146554815F014FE464813F048
:10592C00E7F8012308A8514A4549FFF7AFF9236965
:10593C0013B14948FFF73EF90C982061002834D088
:10594C00036846491A6B8A422BD1026D002A50D04B
:10595C00DB68494A934240F0C280036D002B61D052
:10596C004246394618460EF081F92469B4B12368D1
:10597C00424ADB6A934240F0B680A06D18B115F034
:10598C008BFF0023A365236D002B00F0A38004F193
:10599C0018000FF055FF3048FFF70CF91CB0BDE8AC
:1059AC00F0879047002840F086801F21344815F07E
:1059BC00C9FD2E4817F054FA01462C4815F0C2FDCB
:1059CC000D21304815F0BEFD1B481CB0BDE8F0475A
:1059DC0013F08EB84FF47A731F4C049105931C4B43
:1059EC008DF81810039323690791002B7FF436AFC1
:1059FC0083E7426D002AABD1D7E71B9B002B7FF4CA
:105A0C00F9AE8DF818300793CDE90434104B03939D
:105A1C001CE7436D002B7FF432AF6EE71946DFF8BD
:105A2C006C9044E7406D002860D0424639460CF03B
:105A3C00F1F99AE72809002000420020F4490020DF
:105A4C00C85900206D0500009C360020F836002057
:105A5C004C360020F0330020D84700202D010000E8
:105A6C0034090020F9010000180D0020C8B20120F3
:105A7C00200D00204C090020A1070000450100006A
:105A8C00500D0020700D002078360020843E002040
:105A9C00D3F88834002B3FF429AF149108A8194689
:105AAC002F4A01230BF04AFC00283FF41FAF08A833
:105ABC000BF0E6FD1AE7206900283FF46FAF03688E
:105ACC0046E7002203A89847C5E6984700283FF40C
:105ADC0014AFD4E6636D002B7FF459AF5BE74246FD
:105AEC003946984741E72046984754E724693EE7F2
:105AFC0008A80EF049FDF9E6184690478146B9F121
:105B0C00000F3FF4D7AECEE64FF48070019315F042
:105B1C00BBFE019B01469865F0B180F80090186DB2
:105B2C0058B14FF480720FF037FA019BD3F85890AC
:105B3C00B9F1000F3FF4BEAEB5E6586D28B14FF485
:105B4C00807201930CF028FE019BD3F85890B9F1A8
:105B5C00000F3FF4AFAEA6E6024A91469A65A2E664
:105B6C00C8B20120D2B70320294B034410B5044618
:105B7C00092B47D8DFE803F0191E23282D32373CB8
:105B8C0041050621234815F0DDFC0121224815F0C2
:105B9C00D9FC214600231022204812F0D3FF022109
:105BAC001F48BDE8104015F0CDBC05211D4815F06F
:105BBC00C9FCEAE706211C4815F0C4FCE5E7062100
:105BCC001A4815F0BFFCE0E70621194815F0BAFC9D
:105BDC00DBE70721174815F0B5FCD6E70521164879
:105BEC0015F0B0FCD1E70521144815F0ABFCCCE75F
:105BFC000721134815F0A6FCC7E70821114815F03A
:105C0C00A1FCC2E70821104815F09CFCBDE700BFC1
:105C1C00FC27FFFF381500205815002000420020FB
:105C2C005C150020F8140020001500200815002039
:105C3C001015002018150020201500202815002014
:105C4C0030150020401500204C150020FF299446EB
:105C5C000AD04B4B0344092B12D8DFE803F0171C76
:105C6C0021262B30353A3F12454B034410B4092BF7
:105C7C0047D8DFE803F08238494B4D586470728086
:105C8C0070470A4660463F4916F0FABA0A46604623
:105C9C003D4916F0F5BA0A4660463C4916F0F0BA92
:105CAC000A4660463A4916F0EBBA0A46604639494C
:105CBC0016F0E6BA0A466046374916F0E1BA0A46CB
:105CCC006046364916F0DCBA0A466046344916F08E
:105CDC00D7BA0A466046334916F0D2BA0A4660462D
:105CEC00314916F0CDBA314B07CBCCF800001888EF
:105CFC009B78ACF80C00CCF80410CCF808208CF88D
:105D0C000E305DF8044B7047294BEDE7294BEBE760
:105D1C00294C0FCCCCF80000CCF80410CCF808209F
:105D2C00CCF80C30EDE7254B07CB1B88CCF80000EA
:105D3C00CCF80410CCF80820ACF80C30E1E7204B80
:105D4C0007CB1B78CCF80000CCF80410CCF808205A
:105D5C008CF80C30D5E71B4BC6E71B4C0FCCCCF8A2
:105D6C0000002078CCF80410CCF80820CCF80C30CB
:105D7C008CF81000C5E7154BB6E7154BD4E700BF00
:105D8C00FC27FFFFB81900205C19002044190020E3
:105D9C0070190020A0190020E4190020D01900204F
:105DAC0030190020181900208819002094180020A0
:105DBC00B4180020D818002008190020F81800206A
:105DCC008418002074180020C4180020E818002043
:105DDC00A418002070B5144696B00B4602466849CC
:105DEC006848009416F04CFA0023664A02A86649EB
:105DFC000FF040FE149B002B6FD05C20002513F09D
:105E0C00FFFC0399049A0446604B45600360604BA9
:105E1C00C0E903129DF8142006A98360183000F81D
:105E2C00042C0FF0CBFC63685A4A06A80133A56515
:105E3C00A260594D594A636002920FF001FD2B6923
:105E4C0013B12846FEF7B6FE2368554A1B6B2C612E
:105E5C00934267D1236D002B4FD028690368514AB8
:105E6C009B6A934240F08280036D002B50D0D8691E
:105E7C002C691828024628BF18224B4B4B49186036
:105E8C000023C1E90033C1E90233C1E904330B76C5
:105E9C0004B3236846489E68864261D1206D002871
:105EAC0054D00DF0BFFA2C69A4B12368DB6A414AC7
:105EBC00934258D1A06D18B115F0EEFC0023A365E8
:105ECC00236D002B48D004F118000FF0B9FC3248B8
:105EDC00FEF770FE354816B070BD159C002C8CD1A9
:105EEC002E4B06A82C4D02930FF0AAFC2B693BB14C
:105EFC002846FEF75FFE2C6102E0636D002BACD1EF
:105F0C002D4B2A4C0FCB07C42848237016B070BDFC
:105F1C00426D002A31D010692C691828024628BF1E
:105F2C001822AAE7204698470028E9D028690028BB
:105F3C0094D11E491C4B0860186048610876C1E971
:105F4C000100C1E90300194816B070BD606D00284E
:105F5C00ACD00AF04FFEA6E7636D002BB3D1B6E7C9
:105F6C002046B0479FE720469847B0E79847182847
:105F7C0002462C6928BF18227FE72C6910467CE763
:105F8C00A00D002088B20120CC5900209C360020A6
:105F9C00F836002078360020D8470020F033002057
:105FAC002D01000051050000E46D0120E4ED0020FE
:105FBC00BD06000045010000AC0D002038B50D46B3
:105FCC00044619214C4815F0BDFA0A220023294633
:105FDC004A4812F0B7FD494812F08AFDE20712D484
:105FEC00A3071CD4600726D4210730D4E2063AD488
:105FFC00A30644D460064ED4210658D4E20562D4DC
:10600C00A3056CD438BD4DF60B003D4A2946FFF76D
:10601C001DFE29463B48FFF78FFBA307E2D54DF643
:10602C000A00374A2946FFF711FE37482946FFF781
:10603C0083FB6007D8D54DF60500314A2946FFF79A
:10604C0005FE29463148FFF777FB2107CED52C4AB0
:10605C004DF604002946FFF7F9FD29462C48FFF7B9
:10606C006BFBE206C4D54DF60600254A2946FFF720
:10607C00EDFD29462748FFF75FFBA306BAD54DF681
:10608C000C001F4A2946FFF7E1FD23482946FFF77C
:10609C0053FB6006B0D54DF60700194A2946FFF7A9
:1060AC00D5FD29461D48FFF747FB2106A6D5144A06
:1060BC004DF60D002946FFF7C9FD29461848FFF794
:1060CC003BFBE2059CD54DF609000D4A2946FFF72E
:1060DC00BDFD29461348FFF72FFBA30592D5294692
:1060EC004DF60800064AFFF7B1FD29460E48BDE8FB
:1060FC003840FFF721BB00BF601500200042002094
:10610C00006E01203814002040140020441400209C
:10611C004C14002054140020442900206414002046
:10612C007C150020741400207C1400202DE9F04311
:10613C0004469DB00D46164600214FF40042A94876
:10614C0016F0C8FA0821A84815F0FCF934B120461D
:10615C0016F086FE0146204615F0F4F9A34812F01D
:10616C00C7FC2246A24C0023A24908A8FEF78EFDCC
:10617C00236913B12046FEF71DFD0C9921610029FE
:10618C0000F0D6800A68D46B9B4A94424FF0000210
:10619C0040F01B814FF47A74DFF8A88218310CA8F8
:1061AC0009928DF82C200A94CDF82080CDE91A2282
:1061BC000FF0B2FB1A9B002B00F0F3805C20002741
:1061CC0013F01EFB099B04464760C3600CA90A9B95
:1061DC00183040F8083C9DF82C3000F8043C874BF4
:1061EC0040F8183C864B40F8103C0FF0E7FA636817
:1061FC00C4F808800133A765049763604FF47A7381
:10620C008DF8187005937F4B079403937E4B0CA865
:10621C0008930FF015FB7D4C236913B17B48FEF7F7
:10622C00C9FC07982061002800F090800368784929
:10623C001A6B8A4240F0CC80026D002A00F0A680D6
:10624C009B6A74498B4240F0B880D069DFF8EC81CE
:10625C000621C8F80000704815F074F92769002F62
:10626C0000F0AF803B686D4A5B6B934240F0F98065
:10627C00D7F85890B9F1000F00F00681484616F097
:10628C00EFFD0146484615F05DF9584812F030FC18
:10629C000621634815F056F90A220023D8F800109D
:1062AC00524812F04FFC514812F022FC2769D8F8E2
:1062BC000020002F00F083803B685A49D3F80890E7
:1062CC00894540F0DD80386D002800F0BD804549DF
:1062DC000DF0A8F82769002F71D03B685B6B4F4A13
:1062EC00934240F0C680BB6D002B00F0E4804E4A18
:1062FC00182108A815F080FF2469B4B123684B4A13
:10630C00DB6A934240F0B980A06D18B115F0C4FA65
:10631C000023A365236D002B00F09E8004F1180070
:10632C000FF08EFA3948FEF745FCD8F8004023E010
:10633C00344B4FF47A72354C0393236904918DF8E6
:10634C00181007910592002B7FF468AF3421384860
:10635C0015F0F8F8254812F0CBFB0024354B03F868
:10636C00014F0134B4F5006FF9D11822324908A855
:10637C0016F048FA314B1C60182208A928463460E4
:10638C0016F040FA17481DB0BDE8F083426D002AA4
:10639C00DCD09B6A1F4A93420FD1436DFBB1186945
:1063AC0054E71B9B002B7FF409AF8DF81830079333
:1063BC00CDE90434134B039328E7984746E7204B69
:1063CC0095E73946DFF878905CE703A8A04722E709
:1063DC0090470028BAD02069002840F09680002011
:1063EC0034E700BFE4ED0020B00F00200042002095
:1063FC00F4490020C85900206D0500009C3600208F
:10640C00F83600204C360020F0330020D84700200E
:10641C002D01000051050000E8090020F9010000E1
:10642C00F0090020BD060000981A0020450100006C
:10643C00BC0F0020E3ED0020F40F0020E46D0120E0
:10644C00843E002078360020786D00283FF446AF5B
:10645C0035490AF0CFFB3DE7636D002B7FF45EAF4F
:10646C0060E7384698478146B9F1000F3FF40DAF0D
:10647C0004E738469847034639E72046984751E7E2
:10648C0038462949C84725E74FF4807015F0FCF9C8
:10649C000146B865002843D080F80090386DE0B113
:1064AC004FF480720EF078FDD7F85890B9F1000FC8
:1064BC003FF4EBAEE2E64FF48070019315F0E4F993
:1064CC000146B865F0B1019B0370386D90B14FF483
:1064DC0080720EF061FDBB6D09E7786D18B14FF459
:1064EC0080720CF059F9D7F85890B9F1000F3FF4BD
:1064FC00CCAEC3E6786D18B14FF480720CF04CF949
:10650C00BB6DF4E6094BBB65F1E60368084A9B6A70
:10651C0093427FF452AF026D002A3FF43EAF94E6F3
:10652C00024B9946BB65A9E6E4ED0020D2B70320E7
:10653C005105000010B538B34FF084434FF480126E
:10654C0001211A20C3F8882012F0F6FD0121192030
:10655C0012F0F2FD01211B2012F0EEFD01211C2096
:10656C0012F0EAFD01210A2012F0E6FD01210B20B8
:10657C0012F0E2FD01210C2012F0DEFD01211820A9
:10658C00BDE8104012F0D8BD04461A20214612F086
:10659C00D3FD2146192012F0CFFD21461B2012F00D
:1065AC00CBFD21461C2012F0C7FD21460A2012F01B
:1065BC00C3FD21460B2012F0BFFD21460C2012F02A
:1065CC00BBFD2146182012F0B7FD4FF084434FF469
:1065DC008012C3F8842010BD2DE9F843044600282E
:1065EC0000F0D1807B4B1B78FBB97B4B4FF4807256
:1065FC0006207A4FC3F88820794E7A4D12F08AFD26
:10660C0098B179684FF4FA733268120C03FB02F2FA
:10661C005208A5FB0232120A7B685B1A9A42FBD81D
:10662C00062012F077FD0028EBD10121262012F074
:10663C0083FD4FF084464FF08053012125204FF409
:10664C000025C6F8843012F077FD674B01210F202E
:10665C00C3F8845012F070FDC6F888504FF4001344
:10666C000125C6F888302946212012F065FD2946FF
:10667C0022204FF0844612F05FFD294623204FF470
:10668C00802712F059FD29462420DFF8648112F08E
:10669C0053FD294620204FF4805912F04DFD294618
:1066AC001F2012F049FD2946272012F045FD2946EE
:1066BC00092012F041FD2946082012F03DFD294623
:1066CC00072012F039FD29460E2012F035FD29461F
:1066DC00042012F031FD2946142012F02DFD29461C
:1066EC000220414D12F028FD3B4B10214FF000527F
:1066FC000020C3F884104FF08061C6F8841040214C
:10670C00C3F884104FF40031C6F88470C5F88410B7
:10671C004FF48031C5F884104FF40061C5F8841033
:10672C004FF48001C6F88420C8F884104FF08051D3
:10673C00C5F88490C5F88470C5F88410C5F8842019
:10674C008022C3F88420FFF7F5FE0223C6F884905C
:10675C000121C5F8843004234FF00042C5F8843081
:10676C004FF40053C5F88410C8F88470C6F8842020
:10677C00C6F884304FF08043C6F8843014B31B4BFA
:10678C001C70BDE8F8830146262012F0D5FC4FF0B2
:10679C0084464FF08053214625204FF40025C6F83F
:1067AC00843012F0C9FC104B21460F20C3F88450E2
:1067BC0012F0C2FC4FF40013C6F888502546C6F8F8
:1067CC00843050E7052012F07BFC084B1C70BDE8B0
:1067DC00F88300BF5551002000C00042001000E0BB
:1067EC00FC410020112397080040004206B803200A
:1067FC000080004228B10A4A136853B10133136078
:10680C007047074B1868002801DD0138186020B16B
:10681C00704701201060FFF7DFBEFFF7DDBE00BF41
:10682C00B86700208104634B4FF0100260D5C1049F
:10683C00C3F884204FF084434FF0806260D501058B
:10684C00C3F884205B4B4FF0400260D54105C3F880
:10685C0084204FF084434FF4802260D58105C3F827
:10686C008420554B4FF4003260D5C105C3F8842009
:10687C00514B4FF4803260D50106C3F884204E4B47
:10688C004FF4006260D54106C3F884204FF0844376
:10689C004FF0005260D58106C3F88420474B4FF46B
:1068AC00800260D5C106C3F88420434B4FF480525C
:1068BC0060D50107C3F884203F4B4FF4802260D58C
:1068CC004107C3F884203C4B4FF0805260D58107C0
:1068DC00C3F88420384B4FF0005260D5C107C3F881
:1068EC008420344B4FF0800260D5C3F8842070476D
:1068FC00C104C3F888204FF084434FF080629ED4CB
:10690C000105C3F888202B4B4FF040029ED4410563
:10691C00C3F888204FF084434FF480229ED4810525
:10692C00C3F88820244B4FF400329ED4C105C3F821
:10693C008820214B4FF480329ED40106C3F8882066
:10694C001D4B4FF400629ED44106C3F888204FF0D3
:10695C0084434FF000529ED48106C3F88820174B15
:10696C004FF480029ED4C106C3F88820124B4FF41A
:10697C0080529ED40107C3F888200F4B4FF480221D
:10698C009ED44107C3F888200B4B4FF080529ED405
:10699C008107C3F88820084B4FF000529ED4C107E2
:1069AC00C3F88820034B4FF080029ED4C3F8882094
:1069BC00704700BF00C0004200400042008000420F
:1069CC0001064FF084434FF4805236D54106C3F88C
:1069DC008420354B4FF0020236D58106C3F8842053
:1069EC00314B4FF0040236D5C106C3F884202E4B30
:1069FC004FF0010236D50107C3F884202B4B4FF41E
:106A0C00802236D54107C3F884204FF084434FF0E1
:106A1C00004236D58107C3F884204FF084434FF4ED
:106A2C00005236D5C107C3F884204FF084434FF091
:106A3C00804236D5C3F8842070474106C3F88820BD
:106A4C00194B4FF00202C8D48106C3F88820164BAC
:106A5C004FF00402C8D4C106C3F88820124B4FF083
:106A6C000102C8D40107C3F88820104B4FF48022D0
:106A7C00C8D44107C3F888204FF084434FF000423C
:106A8C00C8D48107C3F888204FF084434FF40052D8
:106A9C00C8D4C107C3F888204FF084434FF080421C
:106AAC00C8D4C3F8882070470040004200800042E0
:106ABC004FF08442194B90689B68C0F300309907E3
:106ACC00164B4FEAC0109B6848BF40F040005A0775
:106ADC00124B9B6848BF40F02000DB07104B9B68B3
:106AEC0048BF40F0100059034FF084439B6848BFE7
:106AFC0040F00800002B4FF084439B68B8BF40F077
:106B0C0004009A044FF084439B6848BF40F0020095
:106B1C005B0048BF40F00100704700BF00400042DE
:106B2C0000800042F8B50D4614464FF08447FFF73D
:106B3C0079FE4FF4002301201B4EC7F88430FFF779
:106B4C00F9FC2846FFF73CFF184D4FF08053C7F86F
:106B5C0088306A683168164B090C04FB01F149084E
:106B6C00A3FB0131090A6B689B1A9942FBD84FF0C1
:106B7C0084434FF080520020C3F884204FF400224D
:106B8C00C3F88820FFF7D6FC68683368084D1B0CE7
:106B9C00064904FB03F25208A5FB0252120A4B6889
:106BAC001B1A9A42FBD8F8BDFC410020001000E0F3
:106BBC001123970808B54FF47A72FFF7B3FFC8207A
:106BCC00BDE8084012F0FEB92DE9F84FDFF8F4A04B
:106BDC008846DFF8F490DAF80030354DC9F800300B
:106BEC00344B1B68B5FBF0F5002B54D00133314A04
:106BFC0013600A2012F0E6F9DAF80030D9F8002018
:106C0C009B1A98453AD96D10DFF8C0B02A4F2B4C1F
:106C1C002B4E9BF800104FF47A724DF6020001F0E7
:106C2C00EF018BF80010FFF77DFF60683968A6FB59
:106C3C000121890C05FB01F16268121A9142FBD803
